:100000000C949F260C943EF10C946AF10C9496F19A
:100010000C94C2F10C94EEF10C941AF20C9446F28A
:100020000C9472F20C949EF20C94CAF20C94E62694
:100030000C94E6260C944EED0C94E6260C94A4ED5C
:100040000C94E6260C94E6260C94E6260C94E62600
:100050000C94E6260C94E6260C94E6260C94E626F0
:100060000C94FCF30C9408F00C94ABEF0C94DAEFC6
:100070000C94E6260C948DF30C9464F30C94E62611
:100080000C94E6260C94E6260C94E6260C94E626C0
:100090000C94A2F00C9445F00C9474F00C94FDF2C6
:1000A0000C94E6260C94E6260C94BDDE0C9420E11C
:1000B0000C94E6260C94E6260C94E6260C94E62690
:1000C0000C94E6260C94E6260C94E6260C94E62680
:1000D0000C94E6260C94E6260C94E6260C94E62670
:1000E0000C94E6260C94E6260C94E6260C94E62660
:1000F0000C947CE10C94E6260C94E6260C94A4E186
:100100000C94E6260C94E6260C94E6260C94E6263F
:100110000C94E6260C94E6260C94E6260C94CCE18E
:100120000C94E6260C94E6260C94E6260C94E6261F
:100130000C94E62600000000000000000000000013
:1001400000000000000000000000000000000000AF
:10015000000000000000000000000000000000009F
:10016000000000000000000000000000000000008F
:10017000000000000000000000000000000000007F
:10440000E90E16001900DC0C030018001808BD00A6
:1044100017008B13010016003F1408001500CC1381
:1044200001001400C313020013002F140100260022
:10443000D21301001E00C21301000F004914010035
:104440000E00331401000D003B1402000C008C130D
:1044500001000B00861302000A00A91311000900D5
:104460009F13010008009E13010007009D13010027
:104470000600301401000500391401000400811306
:1044800004000300BA13080002007F1301000100BA
:10449000631308000000744712002E0098471500AF
:1044A0002D00C24719002C00F44704002A00FC47E5
:1044B000110029000550224F435043504350274FCD
:1044C000314F43504350394F3E4F664F6F4F43502B
:1044D000744F7C4F864F43508F4F944F43509D4FA6
:1044E000D84FEA4F4350DD4FE54F0550055005507A
:1044F000FC4FFC4FFC4FFC4FFC4FFC4FFC4FFC4F64
:10450000FC4FFC4FFC4FFC4FFC4FFC4FFC4FFC4F53
:10451000FC4FB04FFC4F4350435043504350435027
:1045200043504350435043504350435043504350F3
:104530004350FC4FF74F0550FC4FAA4FEF4F075029
:1045400005501E502C5033500550055005509F51BA
:104550000C51E651E651E65112511751BA51E6514C
:104560001A511D512E513351E651365139513C519A
:10457000E65141514451BA5149519351A851E65124
:104580009651995110519C519C51BA51BA51BA51FE
:10459000BA51BA51BA51BA51BA51BA51BA51BA51C3
:1045A000BA51BA51BA51BA51BA51BA517951BA51F4
:1045B000E651E651E651E651E651E651E651E65143
:1045C000E651E651E651E651E651E651BA51B05195
:1045D000B351BA517151AB51C251CB51C551C851B0
:1045E000E651D951DE51E451EB52ED52F852EF52FF
:1045F000F152F352F552CA52FB52FD52CA520053C5
:10460000555358535C535F53635367536A536E5308
:104610006E53CA57085808580858D157EE57DF57F5
:10462000E6571958D857F557F557FC5708581058FA
:104630001458745877587A587A587C588658805845
:10464000835893587E5889588B588D5890587C5A67
:104650007F5AA05A825A865AA05A8A5AA05A955A04
:10466000985A9E5A075EB45EC35EC25D0A5F0A5FD7
:10467000BF5EC35EC85EF65EDF5E0A5F0A5FF65E1F
:10468000F55DF85E109718972F97A197A197F89668
:104690000597A197A197A1974F975E977B978797CB
:1046A000A197F5962397C1968E9B8E9BB79ABF9A3A
:1046B000BF9ACC9ACC9AE99AE99AE99A479B479B88
:1046C000479BE29B8E9B8DA9DFA9B3A9B7A9B7A988
:1046D000B7A9B7A9B7A9BBA9BBA91ABD1DBDBEBDC6
:1046E000BEBD22BDBEBD2CBD15BE15BE15BE15BEC0
:1046F00015BE15BE15BE15BE15BEBEBDBEBD15BED2
:1047000015BD27BDBEBD95C8E3C8E3C8E3C8E3C86F
:10471000E3C8D2C8BCC8DAC8E3C8CCC8E3C8D6C8A6
:10472000DEC8B9CA94CB71CC9CCCDBCC07CE50CEC2
:1047300032D432D432D432D432D432D432D432D449
:1047400032D487CD95CD32D432D4BCCD53CC3AD6E9
:1047500042D654D65DD65FD661D663D666D639D7F3
:10476000B1D7B1D75FD768D778D781D784D787D764
:104770008AD790D700000100020003000400050062
:1047800006000700080009000A000B000C000D00DD
:104790000E000F001E0018000000010002000300C0
:1047A0000400050006000700080009000A000B00CD
:1047B0000C000D000E000F001E0013001400150069
:1047C00016000000010002000300040005000600BE
:1047D0000700080009000A000B000C000D000E0085
:1047E0000F001E001300140015001600170018001B
:1047F0001900260013001400150016000000010027
:10480000020003000400050006000700080009007C
:104810000A000B000C000D000E000F001E008106A8
:1048200000001808000072070000D50800000C08FE
:10483000000000000000FF080000690E0000C10E2B
:104840000000130C0000650C00002F0C00009C0CF5
:104850000000DF0C0000230E00000000000000003C
:104860000000DC0C0000E90E000000000000000069
:104870000000000000000000000000000000000038
:104880000000000000000000000000000000000028
:104890000000000000000000000000000000000018
:1048A0000000FF0E0000270F000006070000A64AC8
:1048B0000200AA4A0100AD4A0100AB4A0200B04A18
:1048C0000100B14A0100B24A0100B34A0100B44AF2
:1048D0000100B54A0100B64A0200AE4A0200B84AD9
:1048E0000100B94A0100D24A0200C34A0100C44A89
:1048F0000100C54A0100CE4A0400BA4A0100BB4A81
:104900000400BF4A0100C04A0100CA4A0100CB4A64
:104910000100CC4A0200000000000000000000007E
:104920000000000000000000000000000000000087
:104930000000000000000000000000000000000077
:10494000000000000000C14A0100C24A0100D44A30
:104950000100D54A0100D64A0100D74A01000000F3
:104960000000C64A0400A84A0200631308006D1341
:1049700001007B1304007F1301008113040037142E
:104980000100381401003F1408003B140200C31357
:104990000200CC1301003314010049140100391442
:1049A000010088130100891301008A1301008B1391
:1049B0000100861302008C1301008D1301003514D1
:1049C0000100341401003E1301003F130100BA132B
:1049D0000800A013040095130400991304009D130C
:1049E00001009E1301009F130100A9131100301450
:1049F0000100A4130100A51304002D1301004013AE
:104A00000200C21301008513010000000000000035
:104A100000002E1301000000000000000000000054
:104A20000000000000000000000000000000000086
:104A30000000000000000000000000000000000076
:104A400000008E1305009313010094130100000071
:104A50000000000000000000000000000000000056
:104A6000000000000000000000006F1301000000C3
:104A70000000000000000000000000000000000036
:104A80000000000000000000000000000000000026
:104A900000000000000000000000801301007513FA
:104AA00001006E13010085006C0001000007050085
:104AB00007040205040204000308FF1400000001BB
:104AC00008030303020A901A00000100000000001E
:104AD0000303141061620003001E000003F4008051
:104AE0000000013412000303000002000000000077
:104AF00003034C1D000010270000010001E8030023
:104B00000004E80300001041746D656C2020202033
:104B100020202020202020FECAAAAAAAAAAA1A0081
:104B2000020301000000000000000000000000007F
:104B3000000005FF00000000000000000000000071
:104B40000000000000000000000000000000000065
:104B50000000000000000000000000000000000055
:104B60000000000000000000000000000000000045
:104B70000000000000000000000000000000000035
:104B80000000000000000000000000000000000025
:104B90000000000000000000000000000000000015
:104BA0000000000002010002020508080000FFFFEB
:104BB00034120000000000000000020201EF402B50
:104BC00046000000000000000000000000024A7DD6
:104BD000287801079298D47201019298D472010149
:104BE000097D3B9001018E7C9A9F01018E7C699F1B
:104BF0000107437CC4720101EB7BB6850101000013
:104C00000000010700000000010100000000010396
:104C10000000BE6A01040000BE6A01050000000039
:104C2000010600000000010D000000000101929843
:104C30000000000100000000010E0000000001075C
:104C400000000000010A0000000001000000000058
:104C50000101000000000101000000000000000050
:104C6000B17600090000B176000C0000B1760000BA
:104C70000000B176004C791E7F519615A9517587B9
:104C80009C617A077BD773C4810D88EA76C39FE85D
:104C90007956743F730000000009738C8100000096
:104CA000007368836B0969DE68026900007A6888AE
:104CB00068F7688168796B3168756A7C6AEB6A6D40
:104CC0006A10690000D36B020102030302020101B2
:104CD00001010101010101020201010102010202BF
:104CE00002020202010202020202020103030202A4
:104CF000034CA7789D2F96AB9E0000AEA52E8F6526
:104D0000AA0000000097B7B2BC67C67ABF42D44C75
:104D1000C531E331E331E331E3A3E468E282F41F18
:104D2000EDD1DF0FDFB4EB54EE58EBE5E960E8328C
:104D3000E384E4B0E5C3E382E4AEE5C1E30011241B
:104D40008091AB18823159F084B780FD04C08F7117
:104D50008093AB1807C081E08093AB1803C081E15A
:104D60008093AB1814BE80916000886180936000CE
:104D700010926000ECEAF8E18DEC01C0819390E7BD
:104D8000E030F907D9F3D0F311241FBEC0E0D0E71B
:104D9000DEBFCDBF00E00CBF13E0A0E0B2E0E6EF65
:104DA000FEEE01E00BBF02C007900D92AE3CB107D2
:104DB000D9F728E1AEECB3E001C01D92AB3AB207DF
:104DC000E1F70E94DD310E94F331FDCF0C94000029
:104DD0007F937FB7F8949D9AA5988AEF4DD08AEF7C
:104DE0004BD09D9886E448D081E0959980E08F93E0
:104DF00080EF42D08F917FBF7F9108957F937FB7DF
:104E0000F8949D9AA59886E037D09D988AE034D092
:104E1000889495990894881F8F9384E62DD08F915C
:104E20007FBF7F9108959F937F9398E0E7DF8795F9
:104E300077959A959923D1F7872F7F919F91089520
:104E40007F937FB7F894A5989D9A8F9386E014D0AE
:104E50008F91879508F49D988F9384E60DD08F915C
:104E60009D987FBF7F9108959F9398E0E9DF9A9581
:104E70009923E1F79F9108950000000000000000D1
:104E80008A958823C9F708955F937F937FB7F89435
:104E9000CF93DF93C0E0D0E07F935091B200709148
:104EA000B2007517E1F3739521965091B200571730
:104EB000D9F77F91CE01DF91CF917FBF7F915F9135
:104EC000089582E08093CE032FB7F8948091370540
:104ED00090913805906190933805809337052FBFE6
:104EE000089581E08093CE032FB7F8948091370521
:104EF00090913805906190933805809337052FBFC6
:104F0000089593E09093CE036AE1882319F084EE2C
:104F100092E002C08FEF92E019D28BE292E00E9401
:104F2000E6E62FB7F89480913705909138059061A7
:104F300090933805809337052FBF089594E09093A0
:104F4000CE036BE1882319F08AE193E002C086E387
:104F500093E0FCD18CE392E00E94E6E68FEC93E0D4
:104F60000E94B7E22FB7F8948091370590913805E9
:104F7000906190933805809337052FBF0895A4E082
:104F8000B0E0E5ECF7E20C9476F68091410690E013
:104F9000982F882720914206822B90934706809372
:104FA00046061C0171E5A72EE7E0BE2EF7E1CF2EE5
:104FB000A4EDDA2EB2E6EB2E18E1F12E00E010E0BF
:104FC000910140E050E060E070E080E090E00E94FD
:104FD000C7F559016A017B018C012F3F3F434544CE
:104FE0005D48644472478048964009F098F420E098
:104FF00030E445E45DE864E472E780E896E00E940E
:10500000CFF629013A014B018C839B8381E0809389
:10501000440610C09501A601B701C80130544544AB
:105020005D48644472478048964029013A014B012B
:105030008C839B83A12CB12C21ECC22E3FE6D32E76
:1050400042EFE42E56E8F52E03E210E09201A301B0
:10505000B4018C819B810E941AF6190149835A83FD
:105060009201A301B4018C819B810E9418F6F22E5B
:10507000132F6A0180914406882311F08DE201C04C
:105080008BE28093110283E0E82E01E091014981D7
:105090005A816AE181E192E0B0D192E0E92E05E027
:1050A0002F2D312FA6016AE181E192E0A6D1409136
:1050B00046065091470622E061E180E092E07AD115
:1050C0002496E2E10C9492F68091CE038130B9F1FE
:1050D00038F0823009F449C0833009F461C0089582
:1050E00006D185E590E0A0E0B0E08093D5039093F1
:1050F000D603A093D703B093D80381E08093D9035C
:1051000081E797E29093DB038093DA0380ED97E0E9
:10511000A0E0B0E08093E2039093E303A093E40364
:10512000B093E5031092E60381E697E29093E803DB
:105130008093E7038CED93E00E94B7E23AC08BE2E4
:1051400092E00E94C8E6019621F46BE082E593E0CC
:10515000FDD08BE292E00E9426E7019621F46BE0FD
:105160008EE593E0F3D083E025C083EF809345067E
:105170008CE392E00E94C8E6019621F46BE082E5A0
:1051800093E0E4D08CE392E00E94FEE6019621F4E5
:105190006CE08AE693E00CC06FE087E793E008C01C
:1051A000EEDE6AE181E192E0D1D061E180E092E05F
:1051B000CDD084E08093CE03089508950895089596
:1051C0000895CF92DF92FF920F931F93CF93DF93B7
:1051D000E42FF0E0F090E5042AEF30E02F193109D8
:1051E0002E173F0734F15091E40420E030E0EC0149
:1051F000C60FD11D0AEF10E02E173F07ACF4852F24
:1052000090E0BC0167517C4F6B01BE01620F731FC0
:10521000DB015C91D6015C932F5F3F4F0196B80193
:105220000E944BF5582FE8CF5093E404F40EF0920F
:10523000E504DF91CF911F910F91FF90DF90CF9008
:1052400008951F93CF93DF931092180510921905BC
:105250001091E504112309F446C08091E304E6EEC1
:10526000F4E01333E0F4212F30E0CAEFD0E0AF01D7
:10527000465E5440421753075CF490E0DC01A751AE
:10528000BC4F4C9141930196BE010E944BF5EFCF6C
:105290008093E304109318051092E50418C02AEFD8
:1052A00030E090E0DC01A751BC4F4C914193019656
:1052B000B9010E944BF595E0E831F90791F7809329
:1052C000E30482E38093180512531093E50481E010
:1052D000809319054091180550E066EE74E088E16E
:1052E00096E00E9419E6DF91CF911F91089588EC16
:1052F000809323061092240689E190E0909326067D
:105300008093250686E08093270610922806109247
:1053100029061092380610922D0610922C06109233
:105320002F0610922E06109231061092300610921F
:1053300033061092320681E299E290933706809309
:10534000360688E196E00C94BAE50895462F209140
:105350001905222319F060E034CF0895FC01A6EE70
:10536000B4E0633370F4862F90E09D01265E3440F4
:10537000281739071CF421912D93F7CF4093180576
:105380000CC021912D9325E0A831B207D1F722E37B
:1053900020931805425362E314DF81E080931905DE
:1053A0004091180550E066EE74E088E196E00C94B8
:1053B00019E6089570E030E0F9013396E617F70733
:1053C000DCF463E070E0280F391FE42FEF70CA01AE
:1053D0008F7099270A9710F480E301C087E38E0F3E
:1053E000F901E60FF71F808384E0569547958A956B
:1053F000E1F76150710948F70895A0E0B0E0E3E0FB
:10540000FAE20C947CF6F12CF701E00FF11DC62FA7
:10541000D0E0CE17DF07ECF0C0E0D0E08C010E0F3B
:105420001F1F6AE0862E912CA12CB12C2197F70129
:10543000EC0FFD1F319669F06801CC0EDD1EB9013D
:10544000CA01A50194010E945EF5605DF6016083CA
:10545000EDCFCDB7DEB7ECE00C9498F6A2E0B0E06B
:10546000E4E3FAE20C947EF66C0100914806109198
:105470004906E12CF12C80914C0690914D06E816DE
:10548000F906A8F45801B8016C5F7F4F42E050E084
:10549000CE0101960E9444F70A5F1F4F29813A818D
:1054A0002C153D0539F08FEFE81AF80AE4CF80E0BB
:1054B00090E001C0C5012296EAE00C949AF6ADE0B6
:1054C000B0E0E5E6FAE20C9480F67C016B0123E0A3
:1054D000969587952A95E1F7FC01E85BF94F228DB7
:1054E00030E0B70167707727062E02C03695279502
:1054F0000A94E2F78E010F5F1F4F20FF42C027E0A2
:10550000E2E6F6E0D80101900D922A95E1F7A0E0DD
:1055100020E030E04A2F50E048175907D8F4F8014E
:10552000E40FF51F4081542F569555754575540F5E
:10553000452F4695469543735373450F4083E42F9B
:10554000EF7042954F7050E04E0F511D240F351FE4
:10555000AF5FE0CFE0E0D801A80FB91F4E2F50E0B9
:105560004617570780F44C9150E00E2E02C0569516
:1055700047950A94E2F741705527240F351FEF5FD6
:10558000EDCF2FEF3FEF1B870A8746E0429FC00118
:10559000439F900D112404969987888786E090E0B8
:1055A0009D878C8761E17CE2CE01089672D18D8166
:1055B0009E81E816F90639F084E090EA90937C0623
:1055C00080937B06E1D589819A81F601918380835E
:1055D0002D96E8E00C949CF6A6E0B0E0E2EFFAE24B
:1055E0000C9482F67C018B0180E090E0FC0133E0BA
:1055F000F695E7953A95E1F7EE0DFF1D6081AC0158
:1056000047705527262F30E0042E02C03695279587
:105610000A94E2F720FF0DC021E030E001C0220F24
:105620004A95EAF720952623208318DF009731F466
:1056300031C0019683339105C9F62CC046E050E095
:10564000BC01CE0101960E9444F789819A81F8013C
:1056500093838283B8018D819E8131DFF80180813F
:1056600091810596918380838B819C81958384832E
:1056700082819381892B39F480E090EA90937C06B3
:1056800080937B0681D58D819E81F70190878783EA
:1056900081E006C08FEF9FEFF7019087878380E05E
:1056A0002696E6E00C949EF6A8E0B0E0EAE5FBE280
:1056B0000C947CF67C01A0904A06B0904B06FC014D
:1056C000868182FD09C000E010E0812C76E0972EF3
:1056D000CC24C394D12C0CC047E050E06FEF70E0B5
:1056E000C7010E9474F76DC0882483940F5F1F4F19
:1056F00080914E0690914F060817190708F05BC07D
:10570000909EB001919E700D11246A0D7B1D46E0A4
:1057100050E0CE0101960E9444F72D813E81F901AF
:1057200063E0F695E7956A95E1F7EE0DFF1D408180
:1057300027703327842F90E0022E02C0969587951C
:105740000A94E2F780FFD2CFC60102C0880F991FEA
:105750002A95E2F79C01209524232083812C882D13
:1057600090E02B813C818217930708F0BDCF880F12
:10577000991F69817A81680F791F42E050E0CE015C
:1057800007960E9444F78F819885FC0153E0F695B7
:10579000E7955A95E1F7EE0DFF1D87709927960161
:1057A00002C0220F331F8A95E2F7C9019081982B1E
:1057B00090838394D4CF882021F000E010E0812CE6
:1057C00097CF2896ECE00C9498F6CF93DF93EC01FA
:1057D0008FEF9FEF98878F8387E0FB01DE010190B9
:1057E0000D928A95E1F7CE015FDFE2E6F6E0919156
:1057F00088818923899386E0E936F807C1F7DF912C
:10580000CF9108958091760690917706A7C208956A
:105810001092730682E09CE2909375068093740662
:1058200008950895EBE5F6E0DC013D91CD0120817E
:10583000232B2193B6E0E236FB07B1F7809178067F
:1058400084608093780608950E94DEE9882311F031
:10585000DFD5FACF0895A2E0B0E0E1E3FCE20C94DA
:1058600084F68B0189839A83EFDFB80189819A815D
:105870000E9401E9019631F08CE20131180721F410
:10588000E3DF02C081E001C080E02296E4E00C94F6
:10589000A0F6A2E0B0E0EFE4FCE20C9484F68B0109
:1058A00089839A83D1DFB80189819A810E948EE829
:1058B000019631F08CE20131180721F4C5DF02C0F6
:1058C00081E001C080E02296E4E00C94A0F6A2E121
:1058D000B0E0EDE6FCE20C9479F680917806982F22
:1058E00092609093780682FF0AC06BE576E08AE1C9
:1058F00095E06BDF809178068B7F80937806CC24CF
:10590000C394D12C7E013DE0E30EF11C55E0A52EA1
:10591000B12C4E0182E1880E911CBE01695F7F4F60
:105920008AE195E059DE882309F462C06090210580
:1059300070902205F30163E0F695E7956A95E1F72B
:10594000E85BF94FC30187709927960102C0220FC7
:10595000331F8A95E2F7C901809593898923838B48
:10596000FC82EB82BE82AD828F81988505979A83F7
:10597000898361E17CE2CE0101968BDF4B855C85FA
:1059800069857A8580E05ED0582E8D8558123AC0A0
:105990008889998968167906A9F52B853C858E85B5
:1059A0009F852817390771F59C828B82DE82CD8214
:1059B00000E010E02B853C850217130708F0ADCFFF
:1059C0002F813885200F311F3A83298361E17CE2E2
:1059D000CE0101965EDFAB81BC81E985FA85E00FDF
:1059E000F11F9C91808198130DC00F5F1F4FE2CF74
:1059F000809178068D7F8093780660E070E08FE07C
:105A000001D21CC05D86798A688A8B859C859F87B8
:105A10008E87FC82EB8285E090E09E838D838F8170
:105A2000988505979A83898367E67CE2CE0107967D
:105A300012DF61E17CE2CE0101960DDF6296EFE0BC
:105A40000C9495F6FB01460F571FE417F50719F064
:105A50009191890FFACF08954F925F927F928F9222
:105A60009F92AF92BF92CF92DF92EF92FF920F93ED
:105A70001F93CF93DF93CDB7DEB762970FB6F8943D
:105A8000DEBF0FBECDBF80E094E4909349068093C3
:105A9000480686E994E490934B0680934A0606E90B
:105AA00014E400501444C80166E070E00E9437F529
:105AB000892B39F080E290EA90937C0680937B06F4
:105AC00063D326E030E0C801B9010E9437F5409168
:105AD0004C0650914D06642B752B70934D066093C8
:105AE0004C0604EB14E406591444C801B9010E94A1
:105AF00037F5892B39F081E290EA90937C06809308
:105B00007B0642D3C80166E070E00E9437F58091C1
:105B10004E0690914F06682B792B70934F06609339
:105B20004E060091480610914906109250061092B8
:105B30005106109252061092530687E0E2E6F6E014
:105B4000DF011D928A95E9F7D12CEE24E394F12C24
:105B500080914C0690914D062D2D30E02817390785
:105B6000C8F546E050E0B801CE0101960E9444F726
:105B70002B813C812B5F3F4F8091500690915106C5
:105B8000A0915206B0915306820F931FA11DB11D23
:105B90008093500690935106A0935206B0935306FB
:105BA0008D819E81FC0133E0F695E7953A95E1F70A
:105BB000E85BF94F87709927970102C0220F331FC6
:105BC0008A95E2F7C901928D982B928F0A5F1F4F39
:105BD000D394BECF26E0289F6001299FD00C1124CA
:105BE00034E0C30ED11CE12CF12CCE010796988B2A
:105BF0008F8786E090E09A8B898BA12CB12C00E0F6
:105C000010E096E0792E22E2822E20EA922EF80110
:105C100083E0F695E7958A95E1F7E85BF94F828D89
:105C200090E098012770332702C0969587952A95B2
:105C3000E2F780FF41C07A9CC0017B9C900D11244B
:105C400004969E878D8761E17CE2CE010D9621DE70
:105C50008B859C858017910749F48F819885A9854C
:105C6000BA858C159D05AE05BF0559F01C870B87BD
:105C7000CF82D886E986FA8661E17CE2CE010D9674
:105C8000EADDC801EBDB2C01009729F490927C0639
:105C900080927B0679D246E050E0B201CE010196B7
:105CA0000E9444F78B819C810596C80ED91EE11C89
:105CB000F11C8FEFA81AB80A0F5F1F4F03331105AD
:105CC00009F0A5CFA5DD62960FB6F894DEBF0FBE32
:105CD000CDBFDF91CF911F910F91FF90EF90DF909B
:105CE000CF90BF90AF909F908F907F905F904F909C
:105CF000089520E0FC013191CF01311105C02F5FE3
:105D00002730C1F780E0089581E0089527E0FB0186
:105D100011922A95E9F7FC0123E0F695E7952A957B
:105D2000E1F7E60FF71F8770992721E030E001C007
:105D3000220F8A95EAF78081822B8083CB01B4CC35
:105D40000895A2E6B6E0FC013D9120812323219332
:105D500026E0A936B207C1F7CCCF0895A7E0B0E09E
:105D6000E4EBFEE20C9485F6BE016F5F7F4FCEDF61
:105D7000CE010196E6DFCE010196BBDF182F882306
:105D800039F0CE0101964EDD8091780681FF9FDDCE
:105D9000812F2796E3E00C94A1F608950895A2E0E0
:105DA000B0E0E5EDFEE20C9486F6809123058823B1
:105DB000E9F0BE016F5F7F4F81E290E00BD4BE013E
:105DC0006E5F7F4F8DE190E005D48981823071F460
:105DD0008A8181110BC08EEC9EE290932C058093FA
:105DE0002B0584E295E00E9428C202C00E9424E0B4
:105DF0002296E2E00C94A2F68091230508950C947B
:105E0000DDEB0895A0E0B0E0E8E0FFE20C947EF660
:105E1000B82E7B01082F10E093E0169507959A9510
:105E2000E1F78770C1E0D0E001C0CC0F8A95EAF7B6
:105E3000AC2E8FE38B1538F484E090E890937C06C9
:105E400080937B06A1D1F801E35DFA4F80818C231A
:105E500011F1C0913505D091360585E0C82E80E856
:105E6000D82E2097C1F0FE01E00FF11F82818A2118
:105E700071F02A853B85232B29F4D0927C06C092B1
:105E80007B0682D1EA85FB85B7018B2D1995099098
:105E9000D881C02DE6CFCDB7DEB7EAE00C949AF6F4
:105EA000E82FF0E023E0F695E7952A95E1F7E35D2A
:105EB000FA4F208130E0877041E050E002C0440F8B
:105EC000551F8A95E2F72423352381E0232B09F41B
:105ED00080E00895282F30E043E0369527954A95D5
:105EE000E1F7620F731F877021E030E001C0220FDD
:105EF0008A95EAF7FB019281922381E009F480E020
:105F000008951F93CF93DF93182FEB01803438F05F
:105F100023E030E830937C0620937B0635D1BE0128
:105F2000812FD8DF81112AC0BE0185E395E09AD088
:105F300081110BC088E0FE013296DF011D928A9527
:105F4000E9F7BE0185E395E09DD0412F50E063E085
:105F5000569547956A95E1F7177021E030E001C04A
:105F6000220F1A95EAF7C40FD51F8A81822B8A83E4
:105F7000FA01E35DFA4F8081822B8083DF91CF911C
:105F80001F9108951F93CF93DF93182FEB01803457
:105F900038F023E030E830937C0620937B06F4D081
:105FA000BE01812F97DF882369F1212F30E073E054
:105FB000369527957A95E1F7177041E050E0012E6C
:105FC00001C0440F0A94EAF7942F9095C20FD31F93
:105FD0008A8189238A83E0913505F09136053097CF
:105FE00059F0DF01A20FB31F12968C91842351F454
:105FF0000190F081E02DF3CFF901E35DFA4F80814C
:1060000089238083DF91CF911F910895DC01ED9169
:10601000FC911197309721F0208131812D933C9391
:10602000CF01089561157105A1F0DC01ED91FC919E
:106030001197E617F70759F4208131812D933C938E
:106040000FC0808191818617970729F0FC01309756
:10605000C1F780E00895DB018D919C91918380834D
:1060600081E00895DC01ED91FC91309739F0E6175D
:10607000F70731F00190F081E02DF7CF80E008952F
:1060800081E008950F931F93CF93DF938C01EB0171
:10609000E9DF882349F080E090E890937C068093C4
:1060A0007B065AD080E014C019821882D801ED9185
:1060B000FC911197309719F4CD93DC9308C080813F
:1060C0009181009711F0FC01FACFD183C08381E068
:1060D000DF91CF911F910F910895CF93DF93FC0132
:1060E00082819381009781F40E940BE3C22FD32F0A
:1060F0000E94EB5144E0FC0121913191CF01C22774
:10610000D3274150C1F7CE010E9439F781E0809337
:1061100053028BE592E00E94B7E2DF91CF910895A0
:106120008DE492E00C945C52089580915302882390
:1061300069F08BE592E00E94E7E28DE690E39093B0
:106140005A028093590210925302EACF08958BE5C8
:1061500092E00C94E7E2089582E090E090937E064E
:1061600080937D0680917B0690917C0690938006BB
:1061700080937F06E0917906F0917A06309719F0C6
:106180008DE796E01995089583E090E090937E0660
:1061900080937D0680917B0690917C06909380068B
:1061A00080937F06E0917906F0917A06309719F096
:1061B0008DE796E019950895EF920F93FC016183A6
:1061C00072834F3740F081E090E890937C06809393
:1061D0007B06C2DF20C0403808F04FE7440F8081C3
:1061E00081700187842BE0FA80F9808334832383D4
:1061F000CB01AC016081669504962181328174E007
:10620000679F200D311D11244217530720F4DC0134
:1062100011971C92EECF0F91EF900895A0E0B0E09F
:10622000E4E1F1E30C947FF6EC018B01B42E0E94C3
:106230000BE369017A018D819E81AF81B885A70149
:106240009601281B390B4A0B5B0BCA01B9012B8144
:106250003C8140E050E00E945EF52F3F3105410552
:10626000510518F42223F9F001C02FEF89819A819A
:10627000BC0138813695049649815A81E4E03E9FFD
:10628000400D511D11246417750748F4FC0132912B
:10629000432F231708F4422F341B3083E9CFCD82DC
:1062A000DE82EF82F886A981BA814881842F8695A3
:1062B0009D0154E0859F200D311D1124C901E0E0AE
:1062C000F0E0A817B907C0F413965C911397552313
:1062D00059F02D913C9111972017310729F412960E
:1062E0002C9112972B15C1F0309719F0238152177A
:1062F00008F4FD011496E5CF40FD06C0309771F01B
:10630000838181110BC002C0309751F0118300834B
:10631000B2828985838304C080E003C082E001C02B
:1063200081E0CDB7DEB7E9E00C949BF6FECE089590
:106330000895CF93DF93609168027091690280E0C5
:1063400090E0E1E0F0E09F01082E02C0220F331F31
:106350000A94E2F7409137055091380546235723B8
:1063600042235323452B11F16FB7F8944091370521
:1063700050913805209530952423352330933805E6
:10638000209337056FBFFC01EE0FFF1FE957FC4F4D
:10639000C081D181209739F486E090E890937C0603
:1063A00080937B06F1DEFE01199504C001968F30C3
:1063B000910549F6DF91CF9108950E94AFE00E94C8
:1063C00078B1882371F02FB7F894809137059091B8
:1063D0003805806190933805809337052FBF81E0A1
:1063E000089582E00895A5DF60E070E08BE20ADDA9
:1063F0008091370590913805892B09F4D0DC2091E4
:1064000037053091380581E0232B09F480E00895A9
:1064100090CF0895FC012081211105C021E0219336
:10642000CF010C94B7E20895FC012081213021F4C2
:106430001192CF010C94E7E20895A5E0B0E0E3E209
:10644000F2E30C9482F67C012A833B834C835D83C8
:106450006983EADFF7011082698163872A813B81C2
:106460004C815D8127833087418752871587048758
:106470002596E6E00C949EF6089589E3E2E4F3E1C4
:10648000DF011D928A95E9F7E3E6F3E181E080837D
:106490009AE09183128213821482158216821782E7
:1064A00095E090936D138093751387E080936E133E
:1064B00047E850E066E37BE483EC93E10E9444F715
:1064C00043E150E063E27BE48FE293E10E9444F712
:1064D00043E050E060E27BE48CE293E10E9444F709
:1064E00048E450E068ED7AE48BE793E10E9444F7DA
:1064F0008BEA9CE0E1E8F6E0DF019C011D9221506F
:106500003040E1F70895A4E0B0E0E9E8F2E30C944C
:1065100086F6BC011A8219821C821B82882781158B
:1065200021E0920769F0811522E09207B9F0892BEA
:10653000E9F4660F771F660F771F6659764B07C021
:106540007727660F771F660F771F6255774B44E0FA
:1065500050E0CE0101960E9444F70FC07727660FE6
:10656000771F660F771F625E774BF1CF8AE090E668
:1065700090937C0680937B0607DE69817A818B810C
:106580009C812496E2E00C94A2F677DF65CA089518
:10659000A4E0B0E0EEECF2E30C9482F67C018B0117
:1065A000B2DFEE24E11422E0F20669F026E030E6E4
:1065B00030937C0620937B0669837A838B839C834C
:1065C000E3DD7A816981F801718360832496E6E0D6
:1065D0000C949EF6A4E0B0E0E0EFF2E30C9482F6B7
:1065E0008C017B0190DFE114F10479F420E030E6C6
:1065F00030937C0620937B0669837A838B839C830C
:10660000C3DD9C818B817A81698100270115110589
:1066100049F0011521E0120751F4AC01C7010E94B5
:1066200044F70CC0AC01C7010E945AF707C081E0D3
:1066300090E690937C0680937B06A6DD2496E6E0A8
:106640000C949EF6A0E0B0E0E8E2F3E30C9480F650
:106650008C01EB0158DF6B017C01209739F484E059
:1066600090E690937C0680937B068EDD00270115D3
:10667000110539F085E090E690937C0680937B06C7
:1066800083DDA701BE01C6010E945AF7CDB7DEB770
:10669000E8E00C949CF6FC0195A5892F887090FF8A
:1066A00009C0882379F081E021A532A52236310581
:1066B00050F408C0882331F081E021A532A52436AA
:1066C000310508F480E08170089521E030E001C0D8
:1066D000220F8A95EAF780913C05822B80933C0536
:1066E0002FB7F89480913705909138058062909388
:1066F0003805809337052FBF0895CF93DF93E0913E
:106700004F14F09150148E179F0718F482E894E408
:1067100046C08E1B9F0B6CE670E00E9437F580919F
:106720004A14681718F083E894E439C08CE6689F2F
:10673000E00DF11D11248781869590E0823091054E
:1067400059F014F00397D1F580914E148823B1F1DC
:10675000815080934E1432C080914D14882319F0DB
:10676000815080934D14DF01AC5ABF4FCD91DC9125
:106770002091521430915314CE01821B930B63E28B
:1067800070E00E9437F5C217D30718F484E894E448
:1067900006C080914B14681740F085E894E490930C
:1067A0007C0680937B06D8DC0CC0D90183E2689F0D
:1067B000A00DB11D11248C9181111C9287818E7FB7
:1067C0008783DF91CF910895CF93DF93EC0118A6D3
:1067D0008EA19FA1892B39F484E494E490937C06E4
:1067E00080937B06D1DCEEA1FFA1CE01889619959E
:1067F000DF91CF910895EF92FF920F931F93CF9364
:10680000DF93A0914A1440914F145091501420E00E
:1068100030E090E09A1709F45AC0FA01E20FF31F32
:10682000B90164597F4FB781B0FD63C07F0194E522
:10683000E90EF11CD7011D921C928230B1F010F0CC
:106840008330F1F590914E1440914C14941708F058
:106850003EC09F5F90934E1413821482158216825D
:1068600090859F709087128235C010914D14909141
:106870004B14191760F50091511440915214509126
:10688000531490E09017B9F0EA014D5D5F4FBA01E3
:1068900063527109DB016C9161110BC01F5F109392
:1068A0004D1441E048836896D701CD93DC93428331
:1068B00002C09F5FE7CF4091511449130BC007C03E
:1068C00081E894E490937C0680937B065DDC80E015
:1068D00090E012C09085907F9087880F81608783B9
:1068E0001182108280914F1490915014820F931F47
:1068F00003C09F5F9B018ECFCDB7DEB7E6E00C945F
:106900009EF620914D05215020934D05BC0187E650
:1069100095E0B8DB81E0D9CE0F931F93CF93DF933F
:106920008C01C0913D05D0913E0580913905909133
:106930003A0580519140813F954048F4B8018DE37C
:1069400095E0A0DBCD2B59F480E0BFDE08C083E6E4
:1069500094E490937C0680937B0616DCEFCFDF9166
:10696000CF911F910F910895BC016151710989E682
:1069700095E088DB81E0A9CE20914D052F5F209323
:106980004D050C94F2916F927F929F92AF92BF92BD
:10699000CF92DF92EF92FF920F931F93CF93DF93EB
:1069A0001F92CDB7DEB78C017B01FB01E25AFF4F8E
:1069B00081E894E3918380833E9782E08083D801CD
:1069C00059968D919C915A973196918380839E968A
:1069D0008C919E97379680833196108231969D9642
:1069E0008C919D978095881F8827881F808331967A
:1069F00081E08083319680839D968C919D9786FD62
:106A00000BC021E059968D919C915A97883F9F4FDA
:106A100008F020E0822F01C081E0F701E35AFF4F28
:106A200081708083C80137DEF701ED5AFF4F6F0197
:106A300097012C5A3F4F3901882309F442C09090A6
:106A4000FC144091FD14242F30E08091001590E05B
:106A500001972817390739F4D80199968C91499DE7
:106A600080191124982EA92CB12CC5014E9682367E
:106A7000910538F081E594E490937C0680937B0641
:106A800083DB3091FC142091FD14809112159091BC
:106A90001315F80163A574A5329F600D711D1124B3
:106AA000A5014E960E945AF78AE0890DD6018C9373
:106AB00080911215909113154496F3019183808370
:106AC0000EC0D80199968C919997885F80839B9688
:106AD0008D919C919C970897D9018D939C93F3017C
:106AE000C080D180D6012C912C7F2F7E2C93F80171
:106AF000818D928D237F883F9F4F10F02860D601B3
:106B00002C93F60180818F7D8083D8019D969C9186
:106B100092FD03C08F7B808322C08064F601808356
:106B2000D70118962C911897207F216018962C93E6
:106B3000C8012983B0DD29812F70882341F080911D
:106B400002158295807F822BF701808708C0809193
:106B50002D138295807F822BD70118968C93C801C4
:106B60009ADDF60190818823A1F09068908390913E
:106B7000FD1480858C7F911106C081608087809193
:106B80000015818709C0826080878091FD1481870C
:106B900003C09F77F6019083D80193968C919397C9
:106BA000F601818396968D919C919797938382832A
:106BB00094968D919C9195979583848398968C91CA
:106BC0008683C80168DD882331F080910115D601E4
:106BD00017968C9308C08091640591E0980F90936C
:106BE0006405F6018783C7010996C6DE80E00F9031
:106BF000DF91CF911F910F91FF90EF90DF90CF9099
:106C0000BF90AF909F907F906F900895E091101586
:106C1000F0911115BF0180819181B5CEEFEEF4E1C5
:106C2000F093C014E093BF1492E09093BB142091B2
:106C30006214309163143093BD142093BC149BE014
:106C40009093BE141092C3141092C41491E09093C8
:106C5000C5149093C6141092C71424E738E33093F8
:106C6000CA142093C9149093C814908190789260AC
:106C700090689083909169149093F014209165141A
:106C8000309166143093F2142093F114209167141C
:106C9000309168143093F4142093F3149091641499
:106CA0009093F51490916A149093F61492E0909357
:106CB000F714909160149093F8149091611490934C
:106CC000F9149091FA149093D81410925B141092C6
:106CD0005C1410925D1410925E148093541484E737
:106CE00094E14ACEA4E0B0E0E8E7F6E30C9484F641
:106CF000182FBE016F5F7F4F8AE190E06BDC20911F
:106D00005205309153054091540550915505A12FDE
:106D1000B0E00E94B7F509811A812B813C81600F98
:106D2000711F821F931F2496E4E00C94A0F60F932A
:106D30001F93CF93DF93EC018C0107551109FC01E0
:106D40003C970190F081E02D6FEF818192810E944C
:106D50001189882361F0FE01329781E894E39183E1
:106D6000808323971882C8010E94E29102C0CE015D
:106D7000C8DDDF91CF911F910F91089561E574E116
:106D800080E191E027DC62E574E18EE092E000DCD6
:106D9000809152149091531420E030915114231794
:106DA00048F4FC0133E2239FE00DF11D1124108211
:106DB0002F5FF3CF6AE474E18FE091E00BDC6FE4C6
:106DC00074E18DE092E0E4DB20914A14E0914F14ED
:106DD000F091501480E0821739F097819E7F97835D
:106DE0008F5FE459FF4FF7CF9091511490934B145C
:106DF00080934C1410924D1410924E146CEF74E169
:106E000088E291E0E7DB6AE574E189E291E0E2DBA8
:106E100069E574E188E191E0DDDB80915914882314
:106E200051F065E574E18FE092E0B2DB62E175E17B
:106E300080E192E0ADDB3091591420915A14809199
:106E4000551490915614329F800D911D11249093EA
:106E50005814809357141092541408956EE675E0F8
:106E600082E192E095DB6DE675E087E191E0B2DBCF
:106E700080916D05E0916E05F0916F05882349F0D2
:106E8000309739F489E294E490937C0680937B06F2
:106E900063C99F0146E1849F200D311D1124C90162
:106EA00028EAE817F90718F4258B7696FACF0895A3
:106EB0001F93CF93DF93EC01162F0097B1F08D81D4
:106EC0009E81892B91F08DE395E0A0D81F83ED8101
:106ED000FE81CE010796199580913D0590913E0562
:106EE000892B59F080E0F1DB08C08BE694E49093A5
:106EF0007C0680937B0648D9E6CFDF91CF911F9126
:106F00000895A1E1B0E0E7E8F7E30C9476F68C0190
:106F1000262E29873A874B875C870E94B3DEE09153
:106F2000560529853A854B855C85EE2361F13090C5
:106F30004A14C0905905D0905A05E0905B05F09036
:106F40005C052B013C014C185D086E087F084D82E2
:106F50005E826F827886E0914F14F0915014198A06
:106F600066246A94762C430169827A828B829C82A1
:106F700046015701861A970AA80AB90A8D869E8685
:106F8000AF86B88A0BC005EC18E3A3C0A781A0FDAB
:106F900009C0A989AF5FA98BE459FF4FB989B31123
:106FA000F5CF40C0B085BF70B23099F7AA7FA2304C
:106FB00081F783809480A580B68081149104A10418
:106FC000B10439F3E017F10721F34D805E806F8043
:106FD0007884481459046A047B0468F44D845E8400
:106FE0006F847888840C951CA61CB71C83829482BD
:106FF000A582B68204C01382148215821682838011
:107000009480A580B68049805A806B807C808414EF
:107010009504A604B70408F0BCCF89829A82AB829B
:10702000BC82B7CF211046C080905B1490905C1456
:10703000A0905D14B0905E1481149104A104B10479
:10704000C9F12B013C014C185D086E087F084814FB
:1070500059046A047B0488F4C80CD91CEA1CFB1C84
:10706000C61AD70AE80AF90AC0925B14D0925C14D7
:10707000E0925D14F0925E1408C010925B141092BE
:107080005C1410925D1410925E1480915B149091C8
:107090005C14A0915D14B0915E1449805A806B809D
:1070A0007C8084159505A605B70520F489839A830D
:1070B000AB83BC8389819A81AB81BC812817390756
:1070C0004A075B0710F4DA01C90105EC18E39C01DB
:1070D000AD0161E086E595E0B0D986E595E09AD905
:1070E0006196E2E10C9492F680914D058150809377
:1070F0004D0580915414833009F43CC0823039F03E
:1071000082E594E490937C0680937B063DD8E091E1
:10711000FB14EE2379F181E080935414A0912E1397
:10712000B0E011972AE030E00E94B1F59B01AC017C
:1071300080914E0590914F05A0915005B091510559
:10714000280F391F4A1F5B1FA0912D13B0E00E942A
:10715000B7F59B01AC0160935B1470935C14809352
:107160005D1490935E14E150E093FB1461E080E0C5
:1071700090E0C7CE1092541410925B1410925C14DD
:1071800010925D1410925E140895A4E0B0E0EBEC50
:10719000F8E30C947EF62FEF3FEFA90110E0AA244C
:1071A000AA94B12C80914A14181708F054C0E091A9
:1071B0004F14F09150148CE6189FE00DF11D11242E
:1071C000678160FF46C07085872F8F70823009F01D
:1071D00040C0862F8A7F8230E1F583819481A5812A
:1071E000B681C0905D05D0905E05E0905F05F0909F
:1071F00060058C199D09AE09BF0983839483A5831B
:10720000B6830097A105B105E9F4872F807F8460DC
:1072100080876E7F663059F4C50100902E1302C03E
:10722000880F991F0A94E2F780958093FF1481E0FC
:1072300029833A834B835C8348DA29813A814B81E5
:107240005C8107C082179307A407B50710F49C015F
:10725000AD011F5FA7CF80915B1490915C14A0914A
:107260005D14B0915E140097A105B10551F1C09075
:107270005D05D0905E05E0905F05F09060058C198B
:107280009D09AE09BF0980935B1490935C14A09391
:107290005D14B0935E140097A105B10559F482E026
:1072A00029833A834B835C83B9DC29813A814B8102
:1072B0005C8107C082179307A407B50710F49C01EF
:1072C000AD012F3FEFEF3E074E075E0751F005EC93
:1072D00018E361E086E595E0B0D886E595E09AD8B8
:1072E00003C086E595E0A0D82496EAE00C949AF6CF
:1072F000A0E0B0E0EEE7F9E30C947DF68C01962E69
:10730000C0916E05D0916F0580916D056E0196E17B
:10731000899FC00CD11C1124F8018589811109C0F5
:107320007E01F6E1EF0EF11C58018CE0A80EB11CB5
:1073300009C085E294E432C08A3A89F06696F6E1A3
:10734000EF0EF11CF801CC15DD0508F04AC0908560
:1073500021853285F70131978081843A69F7F701F9
:107360003E9780819813EACF89859A852817390737
:1073700029F748E050E0B801CE010E944DF7892B73
:10738000E9F6F8018385F7013B9790818913D6CF01
:10739000813059F0833091F086E294E490937C063A
:1073A00080937B060E94AC301DC0F8012485358592
:1073B0008C859D852817390709F617C0F80194892F
:1073C000F701329780819813B9CF48E050E0BE01B1
:1073D000645F7F4FC5010E944DF7892B09F0AECF46
:1073E00004C0958A80E090E001C0CE01CDB7DEB741
:1073F000EBE00C9499F6CF93DF93EC010097B1F199
:107400008AEA8D8B0E94EB5148E050E0BC01CE012E
:107410000E944DF7892B51F582E88D8B888581502C
:107420008E3F20F58B858330C9F48C8981508E3F47
:10743000E8F42C853D854E855F85688979898A8940
:107440009B89A0E00E94E1F671F480E194E49093BE
:107450007C0680937B060E94AC3008C0813019F016
:1074600086EA8D8B03C01D8A81E001C080E0DF9138
:10747000CF910895CF93DF93EC01009761F169AB51
:107480004115510551F0FA014081518162817381AA
:107490004AAB5BAB6CAB7DAB04C01AAA1BAA1CAA9F
:1074A0001DAAEFA5F8A9309749F484E594E49093D8
:1074B0007C0680937B060E94AC300DC0CE01C19645
:1074C0001995CE01E8D8882331F010921115109249
:1074D000101581E0FAD8DF91CF910895A1E0B0E0D6
:1074E000E4E7FAE30C9484F68C01FC0120813181FD
:1074F00080915214909153142817390740F487E46F
:1075000094E490937C0680937B060E94C430F8013B
:10751000808191812091521430915314821B930BDE
:1075200063E270E00E9437F580914B14681750F0C9
:1075300088E494E490937C0680937B0669830E94A0
:10754000C43069818091521490915314F3E26F9F7B
:10755000800D911D11242196E4E00C94A0F6FC010D
:1075600020814597211107C0BC018BE695E00E9460
:10757000423081E0AAC840E050E069EA7BCFA3E056
:10758000B0E0E5ECFAE30C9484F68C01675F7F4F82
:107590007A836983BE016D5F7F4F8EE090E01AD8D9
:1075A0008B81D80199965C919997409164058823C5
:1075B00009F442C089819A81FC01E95BFF4F21E017
:1075C000208359962D913C915A973196318320838F
:1075D0003296585F50839B96ED91FC919C979C014D
:1075E000255B3F4F3897D901ED93FC938FEF818353
:1075F000D80196968D919C919797938382839496C8
:107600008D919C9195979583848398968C91868390
:1076100081E0840F809364054783D901ED91FC914B
:107620008081807888608F778083E981FA81EB5A46
:10763000FF4F81E894E344C089819A81FC01E95BB2
:10764000FF4F22E0208331962DEF3FEF31832083DF
:107650003296575F5083D8019B96ED91FC919C9791
:107660009C01255B3F4F3997D901ED93FC93D801DD
:1076700059968D919C915A979283818396968D917C
:107680009C9197979483838394968D919C919597E1
:107690009683858398968C91878381E0840F80936D
:1076A00064054087D901ED91FC91808180788C60E0
:1076B0008F778083E981FA81EB5AFF4F87E996E360
:1076C00091838083E981FA81D8019E968C919E975F
:1076D000E15BFF4F8083E981FA81E05BFF4F80919E
:1076E0002C138083E981FA81EF5AFF4F9D968C918C
:1076F0008095881F8827881F8083E981FA81EE5A48
:10770000FF4F81E08083E981FA81ED5AFF4F80834A
:10771000E981FA81EC5AFF4F808389819A812CD9C3
:1077200080E02396E4E00C94A0F6DC01ED91FC915E
:1077300090931115809310151092FD141092FE1461
:1077400080912D13809302152091FC1430E081A5C7
:1077500092A5B9010E9437F5462F6093001581A5C7
:1077600092A5B9010E9437F5892B19F04F5F40931C
:1077700000158FEF90E000902E1302C0880F991F24
:107780000A94E2F780958E7F8093FF1480916405C0
:1077900091E0980F90936405809301150895A0E0FF
:1077A000B0E0E5EDFBE30C947DF6EC016B01942E6B
:1077B000590100916E0510916F0580916D0578015A
:1077C00096E1899FE00CF11C1124209761F0C0170D
:1077D000D107F0F583E294E490937C0680937B06D6
:1077E0000E94C43035C0E801CE01801B910B66E1D8
:1077F00070E00E9437F5892B79F084E294E490934D
:107800007C0680937B060E94C43006C01D89143A12
:1078100039F01A3A29F06696CE15DF05B8F313C091
:1078200088859812F8CF89859A85C816D90699F760
:1078300048E050E0B501CE010E944DF7892B59F781
:10784000143A49F703C080E090E004C0CE0102C0C2
:107850006696CACFCDB7DEB7EBE00C9499F64F929F
:107860005F927F928F929F92AF92BF92CF92DF9260
:10787000EF92FF920F931F93CF93DF931F92CDB799
:10788000DEB72C017B010E94EB516C0157018AE6A7
:10789000A80EB11CF501008111814114510431F091
:1078A000E114F10419F0C114D10451F484E194E419
:1078B00090937C0680937B060E94AC3088EA5EC081
:1078C00058EAF20166A177A1960140A5C801598343
:1078D00066DF8C015981009709F44FC0F201868957
:1078E0009789892B19F5F8017384F3E07F121EC084
:1078F00048018CE0880E911CC4010E94C4C1892BF0
:10790000A9F4F2017286D2011D9688E0F40101907B
:107910000D928A95E1F78FEC9CE3F201978B868BB1
:10792000C20106960E94B9C180E028C0F50111830A
:107930000083F80183858330B1F4C8010C960E945E
:10794000C4C1009711F459EABCCFF8012489F201AF
:1079500023A3FC0180819181F201928F818FB70175
:10796000C20111D80BC0F80184859585F201928F70
:10797000818FB701C20103DE01C0852F0F90DF9117
:10798000CF911F910F91FF90EF90DF90CF90BF901C
:10799000AF909F908F907F905F904F900895FF924F
:1079A0000F931F93CF93DF938C0105511109209101
:1079B0004A14C0914F14D0915014F12CF216E9F0F2
:1079C0008F8180FF16C0888199818017910789F483
:1079D000BE01C80144DF882381F040E050E0682FF9
:1079E000C80148DDCE010E947D3381E00E946533ED
:1079F00004C0F394C459DF4FE1CF80914A14F816C4
:107A000040F085E194E490937C0680937B060E948D
:107A1000C430CDB7DEB7E5E00C949FF6EF92FF924D
:107A20001F93CF93DF931F921F92CDB7DEB77B01D9
:107A30000097A1F06115710589F0FC01178A168A7B
:107A4000F701E659FF4F11821082B70108DF182FA6
:107A5000882389F0C7010E947D330DC023E134E4FF
:107A600030937C0620937B0689839A830E94C430DE
:107A700089819A81E2CF812F0F900F90DF91CF9172
:107A80001F91FF90EF900895A1E0B0E0EAE4FDE3DC
:107A90000C9482F68C01262FDC01ED90FC9000976F
:107AA00009F444C0E114F10409F440C02E3C61F033
:107AB000822F8F7D803D41F0213D11F082E005C095
:107AC000F70185A587FFFACF83E0F801EB59FF4F57
:107AD0004081518162817381D701D2964D935D932C
:107AE0006D937C93D597D1962C93833071F0D80108
:107AF000ED91FC91808D811108C0F701178A168ADB
:107B0000B801C701ACDE883AE1F4A7014E5C5F4FD3
:107B1000D701D1966C91F80180819181ABDCC801CD
:107B20000E947D3381E00E9465330BC08FE494E4B2
:107B300090937C0680937B0629830E94C430298120
:107B4000B5CF2196E6E00C949EF6CF93DF93EC013F
:107B500052DC882309F454C060E0CE01C9DB892BD4
:107B6000C1F5209709F43EC08D8981113BC0509129
:107B70006D0520916E0530916F0540E0451781F04D
:107B8000C9012A5E3F4FF90131976081683A31F4AB
:107B900024EAFC01258B009731F432C04F5FEECF11
:107BA0008EEA8D8B2DC0209719F03D89332349F043
:107BB00087E294E490937C0680937B060E94AC302D
:107BC0001AC036E1FE01DC0101900D923A95E1F711
:107BD00006C066EACE018CDB009791F024EAFC0136
:107BE000258B09C080E294E490937C0680937B0609
:107BF0000E94C430BCCF60E070E080E10E94022FA0
:107C0000DF91CF910895CF93DF93EC010097D9F0E6
:107C100080916E0590916F05C817D907A0F020914B
:107C20006D0536E1239F800D911D1124C817D907DA
:107C300050F48D89843A11F08A3A71F488EA8D8B78
:107C4000DF91CF91089581E294E490937C06809334
:107C50007B060E94C430EDCF82E294E490937C06D0
:107C600080937B060E94C430E9CFCF93DF93EC0171
:107C7000C2DB882359F064EACE013ADB009731F089
:107C8000C2DF60E070E080E10E94022FDF91CF91BF
:107C9000089520916E0530916F05009751F0FC0119
:107CA000769680916D0596E1899F200D311D1124F6
:107CB00008C0F901F6CF8589843A49F08A3A39F04B
:107CC0007696E217F307B8F380E090E00895CF01CD
:107CD0000895CF93DF93EC01BC018BE695E00E9401
:107CE00042301F8A1E8A81E00E946533DF91CF9166
:107CF0000895CF93DF93EC01BC0189E695E00E94E3
:107D000042301B8A1A8A81E00E946533DF91CF914D
:107D10000895AAE0B0E0EFE8FEE30C947CF6109141
:107D20006D13BE01665F7F4F87E091E00E94EA32EB
:107D3000BE016F5F7F4F8AE190E00E94EA32C98006
:107D4000DA80EB80FC80812F90E0A0E0B0E08C1521
:107D50009D05AE05BF0578F0CC0CDD1CEE1CFF1CAC
:107D6000C982DA82EB82FC82BE016F5F7F4F8AE1BB
:107D700090E00E942233C12ED12C87E0C80ED11C86
:107D8000EE24D7FCE094FE2CC0925205D09253050D
:107D9000E0925405F09255052A8530E0A3E0B0E06A
:107DA0000E94A2F59B01AC01C701B6010E941CF51F
:107DB00009811A812B813C81600F711F821F931FE3
:107DC00060934E0570934F05809350059093510535
:107DD00081E08887BE01675F7F4F87E091E00E9466
:107DE000EA32BE01685F7F4F84E290E00E94EA328F
:107DF000898590E0A0E0B0E0880F991FAA1FBB1F03
:107E00008F3F9105A105B10529F020F08FEF90E09B
:107E1000A0E0B0E00E947236E885EE2309F45AC073
:107E2000812C912C54018B019C0101501E4F2F4F2E
:107E30003F4F800E911EA21EB31E660F771F881F34
:107E4000991FE15081F718867501640129E0F694C5
:107E5000E794D794C7942A95D1F7D501C4019170BE
:107E6000AA27BB2741E050E060E070E0892B8A2B15
:107E70008B2B19F440E050E0BA01C40ED51EE61E6B
:107E8000F71E1E821D821F82BE01695F7F4F81E146
:107E900091E00E94EA32BE016B5F7F4F88E092E082
:107EA0000E94C832970186010F3F11052105310557
:107EB00029F020F00FEF10E020E030E06D817E81AE
:107EC000C12CEE24E39420E032E04F818FE395E073
:107ED0000E94DC302A96ECE00C9498F6882331F06E
:107EE0000E9436F78093640510924D0510926C0540
:107EF00010926B0510926A05109269051092680540
:107F00001092670510926605109265058AE090E070
:107F1000A0E0B0E08093091590930A15A0930B158B
:107F2000B0930C1586E096E390930F1580930E1591
:107F300081E080930D151092611410926A141092D2
:107F40005F141092661410926514109260141092CF
:107F500064141092681410926714109263141092B3
:107F60006214109269141092541410925B141092BF
:107F70005C1410925D1410925E148CE6EBE6F4E152
:107F8000DF011D928A95E9F783E2E7EDF4E1DF0175
:107F90001D928A95E9F780915A1490E001962091FC
:107FA0005914289FA001299F500D112460E070E012
:107FB00080915514909156140E9474F78FEE94E1BD
:107FC0009093C0148093BF14A4CE4F925F927F927F
:107FD0008F929F92AF92BF92CF92DF92EF92FF92D9
:107FE0000F931F93CF93DF931F92CDB7DEB77C0122
:107FF000009781F02C0127E0421A510880913D053D
:1080000090913E058415950529F4D20112968C9124
:10801000893149F086E694E490937C0680937B0650
:108020000E94AC30CBC08091390590913A05811502
:10803000B7E09B0709F07FC000916B0510916C05BC
:108040000115110551F08BE695E00E94063040E0E5
:1080500050E063EAC8010EDAEFCF6CE6C62ED12CF1
:108060007CE6772EE2E4AE2EE4E4BE2EF3E48F2E1F
:10807000F4E49F2E00916705109168050115110524
:1080800009F444C0B80187E695E00E94123080915F
:108090004F1490915014F801E81BF90BCF01B60171
:1080A0000E9437F580914A14681740F0B0927C0620
:1080B000A0927B0669830E94C4306981E0914F14CD
:1080C000F0915014679DE00DF11D11248081918184
:1080D0002781269530E02130310561F022303105CD
:1080E00049F2232B61F4A8014B5F5F4FD801129630
:1080F0006C9103C040E050E067EABCD9BBCF9092DE
:108100007C0680927B060E94C430B4CF10E0809140
:108110004A141817D8F480914F1490915014BCE66B
:108120001B9F800D911D1124FC01278120FD0E94C1
:108130007D331F5FECCF8115924041F087E694E4D8
:1081400090937C0680937B060E94C43010923C057D
:1081500010923B0581E0C2DE0E94BE360E942E379F
:1081600082E393E090933A0580933905D7018C918F
:10817000F20182878DE395E00E940630D2011896C5
:108180008D919C911997892B41F489E694E4909301
:108190007C0680937B060E94C430D2011896ED9134
:1081A000FC911997C7010396199580913D0590910F
:1081B0003E05892B19F080E00E9465330F90DF9116
:1081C000CF911F910F91FF90EF90DF90CF90BF90D4
:1081D000AF909F908F907F905F904F900895CF9336
:1081E000DF93C0913D05D0913E05209741F484E690
:1081F00094E490937C0680937B060E94C4308A812D
:108200008A38F9F0853C09F44FC0893109F06CC017
:108210008091390590913A058031914019F480E0C0
:1082200092E002C080E097E090933A058093390590
:1082300085EE9FE39E838D83CE0103960E94CFA897
:108240005BC08091390590913A05823323E0920713
:1082500019F08031964049F48FE394E090933A0509
:108260008093390556DD1D8202C083EA8D838DE33C
:1082700095E00E9406308B819C81892B41F48AE62F
:1082800094E490937C0680937B060E94C430EB813B
:10829000FC81CE010596199580913D0590913E0592
:1082A000892B51F180E018C08091390590913A05F1
:1082B0008F339440A1F480E095E090933A05809349
:1082C000390582E090E09C838B8386E595E00E94EF
:1082D000143210924D0581E00E9465330DC063EAAF
:1082E000CE010E94583708C085E694E490937C063E
:1082F00080937B060E94C430DF91CF910895AAE05D
:10830000B0E0E5E8F1E40C9486F6DC011396ED911B
:10831000FC9114972181328140E450E05A834983D3
:10832000AE01495F5F4F5C834B8341E050E05E8369
:108330004D836F3FBFEF7B0719F437FF15C003C0B4
:108340002617370789F098878F837A876987BE0158
:108350006F5F7F4F8EE10E94022F81E02D813E8171
:10836000232B19F080E001C081E02A96E2E00C9412
:10837000A2F6009729F480914B0590914C05089541
:10838000FC01808191810895CF93C82FE0E0F0E057
:10839000CF01EFDFFC01009739F0A381B4818C910C
:1083A000C813F6CFCF0102C080E090E0CF910895CE
:1083B000DF92EF92FF920F931F93CF93DF938C0185
:1083C000009741F480E394E490937C0680937B06CD
:1083D0000E94C430C0E0D0E0A1E3EA2EA4E4FA2E6B
:1083E000CE01C7DFEC01009789F18A818111F8CFB6
:1083F0008B819C81892B31F4F0927C06E0927B0684
:108400000E94C430F80160A171A1CE0178DF8823F9
:1084100039F3EB81FC81D0806D2DF8018781908547
:108420000E9411898823E1F2F801D18AED81FE8151
:10843000309749F482E394E490937C0680937B0622
:108440000E94AC3003C0C8011995CACFCDB7DEB7C2
:10845000E7E00C949DF6A1E3B0E0E1E3F2E40C94D4
:108460007CF68C01B62EDC015C96ED90FC905D975D
:1084700057966D917C915897F70147818FE395E06E
:108480000E940E31882309F414C1D70111968C91F2
:108490009FEF980F9E3F28F477DF6C01009719F447
:1084A00008C1C12CD12CF8012489858996892130F5
:1084B00009F022E02F8399878887D70111968C9144
:1084C0008A8BF8018789908D0E94C7C1FC010097B3
:1084D00099F083E08B8B708161815281438134817B
:1084E0002581968187817E8B6F8B588F498F3A8F3C
:1084F0002B8F9C8F8D8F02C082E08B8BD80157967B
:108500008D919C9158979D8B8C8B59968D919C91B8
:108510005A979F8F8E8FF701868188A384819581DA
:108520009AA389A3828193819CA38BA35B968C9150
:1085300090E09C012A5031093EA32DA319A6208169
:1085400027FD04C09C012850310906C020852370F6
:1085500029F49C01295031093EA32DA32DA13EA150
:10856000821B930BF801248D358D280F391F38A7F6
:108570002FA3BAA684A18BA7868D8CA740A151A159
:1085800062A173A14DA75EA76FA778AB878D89AB5A
:10859000D7018C9187FF48C018968C9183708230E8
:1085A00009F042C0E0915714F0915814808190E096
:1085B0009EA38DA38080912CAA24A394B12C2091FA
:1085C0005F1430E08091551490915614A216B306B2
:1085D0004CF5E0915714F0915814EA0DFB1D4081C1
:1085E00050E020915A142A9DB0012B9D700D11244A
:1085F000680F791F880D991D0E945AF7E091571452
:10860000F0915814EA0DFB1D20818DA19EA1820FCF
:10861000911D9EA38DA3BFEFAB1ABB0A8081880E6C
:10862000911CCDCF98A78FA3C114D10449F0D601D6
:108630001596ED91FC911697CE010196199539C0CA
:10864000F8018489813021F4CE010196B1DE31C078
:10865000D70111968C918F3F41F5E12CF12CC70188
:1086600088DE7C01009729F1D7011396ED91FC91EA
:1086700014978081882399F312968C918111EFCF02
:1086800069A17AA1C7013BDE882349F3D70113967C
:10869000ED91FC91149780818A8B1596ED91FC9158
:1086A0001697CE0101961995DACFCE0101960E9458
:1086B00035C9C8010E94E433E196ECE00C9498F6C9
:1086C000A1E0B0E0E6E6F3E40C947EF65C01DC01A8
:1086D0005C960D911C915D97F80181812FEF280F19
:1086E0002E3F80F4298350DE7C012981009751F0D0
:1086F000D80114966D917C91159701DE882309F4B9
:1087000005C105C02E3F08F401C1E12CF12CF80190
:10871000808187FF04C09085937009F0F7C086FFC1
:10872000F7C08C70883009F4F1C0D50157968D914F
:108730009C915897883FBFEF9B0708F0E7C0E11472
:10874000F10421F0F70122812111E0C0D5015C96EE
:108750000D911C915D97F801208126FD02C090E0EB
:10876000D2C02370213009F027E0F0904A14E09144
:108770004F14F091501430E0422F50E0B801640FD4
:10878000751F3F15E9F0A781A530B1F4DF01AF5A9D
:10879000BF4F0D90BC91A02D8A179B0769F4DF0194
:1087A000AC5ABF4FCD90DC90C40ED51EDB01EC90CF
:1087B000D601DC90ED1499F23F5FE459FF4FE1CF11
:1087C00082E029830E94FB332981009741F2FC015A
:1087D000EC5AFF4F0190F081E02DDF0158973FEAFE
:1087E00011963C9311971396BC92AE92129762E049
:1087F000DC01A05BBF4F6C93D50157964D915C9106
:108800005897DC01AF5ABF4F11965C934E93179661
:108810001C9211961C9231E011963C9311963C9358
:1088200011961C9241E854E3129611965C934E9374
:1088300011973C9330813C7F32603083D8014C915A
:108840004C70337F342B30834C914295417040FB08
:1088500034F93E7D3F7B30834C9147FB442740F900
:1088600040FB37F930834C9130E0DC01AD5ABF4F0B
:108870007D0144FF0DC0D5015C964D915C915D97E3
:10888000420F531FDA012C912183F701608337C017
:1088900048E04C93D80116964C9116974183129656
:1088A0004D915C9113975383428314964D915C9143
:1088B00015975583448311964C914683D5015C9658
:1088C0004D915C915D97420F531FDA012C912783E4
:1088D000D8012C9127FF13C018962C91237031F4E6
:1088E0001086F70120812F5F208309C0D7012C91CA
:1088F0002D5F2C93D80118962C9123702087099610
:108900000E94BC3491E081E08927A1C190E001C0C0
:1089100091E0F801808187FF92C18085837009F41E
:108920008EC1D5015C960D911C915D975B968C91E3
:10893000F801F18420915914222309F487C196EF9C
:10894000E92EE80E80915414813009F456C030F0BD
:10895000843008F06BC180E494E46AC1D084B1E053
:10896000DB1274C12F1508F471C180915A148E1551
:1089700008F46CC190E00196289FA001299F500D3A
:10898000112460E070E080915514909156140E947B
:1089900074F78FEA8093FA14D0925414F0925F1413
:1089A000F5018789908D9093631480936214D801A8
:1089B00011968C9111978093641412968D919C91CD
:1089C0001397909366148093651414968D919C91DF
:1089D0001597909368148093671416968C91169748
:1089E0008093691417968C9180936A1480912D134B
:1089F0008093FB1410926014F12CF8018085982F5D
:108A00009370923011F0F11021C18C7F09F01EC1DA
:108A100080915F148F1508F419C120916214309170
:108A20006314D50157968D919C9158972817390753
:108A300009F00CC190916414F8018181981306C16A
:108A4000209165143091661482819381281739072B
:108A500009F0FCC0209167143091681484819581DD
:108A60002817390709F0F2C090916914868198138C
:108A7000EDC090916A1487819813E8C0209160142A
:108A800040912E130F2D10E0822F90E0840F911D46
:108A9000081719070CF0DAC08F2D642F0E942BF5F0
:108AA000D92EF21668F48F2D891B8093601421E073
:108AB00030E001C0220F4A95EAF721952093611416
:108AC00020915A1480915514909156144E2D50E0D7
:108AD000D5015C966D917C915D97665F7F4FF29EAC
:108AE000800D911D11240E945AF7E0915714F091C6
:108AF0005814E00FF11FE0827091601420915F1410
:108B00007F1111C090912E13822F8F19981708F49E
:108B1000892F41E050E0082E01C0440F0A94EAF783
:108B200041954093611441E050E00D2C01C0440F89
:108B30000A94EAF760916114642B609361146F3FAB
:108B400079F4FF24FA94F70E822F90E040912E13CF
:108B500050E0871B9109481759070CF4CA01F80E19
:108B60008F2D90E030E0215031098217930751F4A6
:108B70006F3F21F483E00E940E3663C082E00E94C2
:108B80000E3664C0A0912E13B0E011979D01270FFF
:108B9000311D8217930711F06F3F09F582E00E94A3
:108BA0000E36809161148F3F09F050C080912E13D2
:108BB00090916014980F9093601420915F1421504D
:108BC0002F19821708F4282F81E090E0022E01C0AF
:108BD000880F0A94EAF781958093611437C02AE0E0
:108BE00030E00E94B1F59B01AC0180914E0590915F
:108BF0004F05A0915005B0915105280F391F4A1F0C
:108C00005B1FA0912D13B0E00E94B7F59B01AC0152
:108C100060935B1470935C1480935D1490935E1466
:108C200061E080E090E00E94813710C083E594E429
:108C300090937C0680937B060E94C43007C09923E2
:108C400029F06FEAC50107DC80E001C081E02196D0
:108C5000EAE00C949AF6A4E3B0E0E1E3F6E40C94C5
:108C600076F6C0903905D0903A0520E1C21621E091
:108C7000D20609F46CC12EE4222E24E4322EAA245A
:108C8000A394B12C87E695E00E9406307C01009702
:108C900009F45DC100914F1410915014C701801B5D
:108CA000910B6CE670E00E9437F580914A146817CA
:108CB00048F089E494E490937C0680937B060E94BC
:108CC000AC3045C13CE6639F000D111D1124D80155
:108CD00017968C91B0E1CB16B6E0DB0621F0C114FB
:108CE000E5E0DE0699F58E7F843019F5C8018C5ACF
:108CF0009F4F0E946E3A4C01DC0111966C911197C6
:108D000012968D919C911397892B51F4EAE4F4E427
:108D1000F0937C06E0937B066CAB0E94C4306CA998
:108D2000D70112968C91811104C0F4018281938144
:108D300092DBA7014B5F5F4F63EAD8018D919C9155
:108D40000E943A3AC7010E947D339CCF8695482EF7
:108D5000512CB1E04B165104B1F054F4452809F000
:108D6000EFC0D70112966C91C8010E94443D8ACF92
:108D7000F2E04F16510409F4BCC023E0421651043E
:108D800009F47CC0DDC0F80180858F70813009F066
:108D900079CF80809180D70119968C910E9472368C
:108DA0009B01AC01A0912D13F801808582958F70F5
:108DB000A81BC20102C0880F991FAA95E2F7DC0127
:108DC0000E94C1F52B013C01D70112966C916111F3
:108DD00015C043825482658276820E9436F7917074
:108DE000B301A201480F591F611D711DD8011396CF
:108DF0004D935D936D937C9316972EC06E3C51F00E
:108E0000603F41F0603D31F0613D89F4F40195A58A
:108E100097FF0DC0A7014B5F5F4FC4010E943A3A14
:108E2000C7010E947D3381E00E94653390C0D80164
:108E300013964D925D926D927C9216970E9436F732
:108E40009170B301A201480F591F611D711DF801F6
:108E50004383548365837683D80118968C91189741
:108E6000807F826018968C93189713962D913D9170
:108E70004D915C91169760E0C80104C2F8018085AD
:108E80008F70813009F0FECE2091FD1430E080918A
:108E9000001590E001972817390709F4B5C1E09152
:108EA0002E137091FF14272F30E080E090E0682FA0
:108EB0008E1708F0A9C10196A901062E02C055958A
:108EC00047950A94E2F740FFF2CFC501062E01C094
:108ED000880F0A94EAF7809587238093FF14809186
:108EE000FE14860F8093FD1483E095E10E94B7E2A3
:108EF000C9CEC8018C5A9F4F0E946E3A8C01DC018A
:108F000011966C91119712968D919C911397892BC4
:108F100051F4EDE4F4E4F0937C06E0937B066CAB53
:108F20000E94C4306CA9D80112968D919C91139720
:108F300092DAC7010E947D3381E00E946533A2CEA0
:108F400030927C0620927B060E94C4309BCE1BAAE6
:108F50001AAAA4EB4A2EA4E35A2EBFEA2B2E13E042
:108F6000312EAA24A394B12C66246A94712C95E422
:108F7000892E94E4992E89E695E00E9406308C01B2
:108F8000C0903905D0903A05009751F1F8018289D7
:108F90009389892B09F079C1048CF58DE02D8081AE
:108FA0008370813009F071C18281853009F46DC10F
:108FB000D80157968D919C9158970E94C7C1892BD3
:108FC00009F063C122E0F80126838789908D90879C
:108FD0008783538A428AC80102960E94B9C1CBCFC7
:108FE000C1FE11C050E5C52E54E4D52E62E0462ED8
:108FF00072E1A72E74E4B72EE8E05E2EFFEA8F2E12
:10900000FAE39F2E3BC000916B0510916C05011592
:10901000110509F458C0B8018BE695E00E941230A2
:1090200040E050E063EAC8010E943A3AECCF808DFC
:10903000833081F57801FBE1EF0EF11CC7010E943E
:10904000C4C1892B39F5D8011D96F701852D0190F2
:109050000D928A95E1F7D80158968C9158971A96F7
:109060008C931A9757969C928E925697C8010696A3
:109070000E94B9C18BE695E00E94063000916B0515
:1090800010916C0501151105F1F0F8018689978999
:10909000892B69F28091101590911115892B09F493
:1090A000BEC2C8010E944B33882309F4B8C2C8016C
:1090B0000E944B33882309F4B2C2F8010081118168
:1090C00001151105A1F78091390590913A05811597
:1090D000B5E09B0721F08031F6E09F0769F5F12CA0
:1090E0000EC02CE6F29E80011124E0914F14F09105
:1090F0005014E00FF11F8781833031F0F394809199
:109100004A14F81670F320C080858F70843011F0F7
:109110008230A1F740E050E063EA808191810E94B3
:109120003A3A80914F1490915014800F911F805AB9
:109130009F4F0E947D33E2CF8F33944029F4F12C6E
:1091400080914A14F81648F08091390590913A05BB
:109150008115954009F080C351C000914F141091C2
:1091600050148CE6F89E000D111D1124D80117969D
:109170008C91179780FF40C018969C911897292FC3
:109180002F702430C9F5282F2A7F2230A9F5907F2F
:1091900079F19160905118969C938E7F823071F492
:1091A000C80109960E94BC34F801238134814581AD
:1091B000568160E0C8010E9481371EC08630E1F40C
:1091C0008091FF148E7F8093FF148091FE14809312
:1091D000FD1480910215815080930215E0911015C5
:1091E000F0911115BF01808191810E94C33404C0A8
:1091F00067EAC8010E94443DF394A2CF80914D05D7
:10920000882309F4AAC228C3F70181850E94723617
:109210009B01AC01A0912D13F801808582958F7080
:10922000A81BC50102C0880F991FAA95E2F7DC01AF
:109230000E94C1F52B013C010091101510911115F0
:109240000E9436F79170B301A201480F591F611DAA
:10925000711DD80113964D935D936D937C93169772
:10926000E0911015F09111158085807F82608087D4
:109270008091101590911115FC0123813481458155
:10928000568160E00E948137FDCCD8015C96ED905C
:10929000FC905D97BFE3CB16B4E0DB0669F0D70125
:1092A0008C918370813041F0F80185A1811104C057
:1092B000C8010E94E433A4C1D7014C91642F6074AB
:1092C00046FF11C050914D1420914A1430E0809116
:1092D0004E1490E0850F911D821793074CF78091F3
:1092E0004B14581728F7242F2C70243009F36623C9
:1092F00031F0842F83708230D9F243FDD9CF45FD00
:10930000D7CFF801D488F1E0DF1671F032E0D31244
:10931000CFCF4370842F90E0009721F0029709F49B
:109320007AC0C6CF2C3031F0C801CAD9882309F4DD
:1093300067C1BECFD80157966D917C915897F701C0
:1093400040858FE395E00E940E31882309F4B0CF69
:10935000D8015B968C91893008F4AACFB1E0BF8325
:10936000F7018181928199878887D80157968D91DD
:109370009C9158970E94C7C1FC01009791F03B8ACD
:1093800070816181528143813481258196818781F9
:109390007E8B6F8B588F498F3A8F2B8F9C8F8D8F41
:1093A00001C0DB8AF8018789908D9D8B8C8B818D24
:1093B000928D9F8F8E8FD70117968C91179788A3C8
:1093C00015968D919C9116979AA389A313968D91CA
:1093D0009C9114979CA38BA3838D90E009979EA3E7
:1093E0008DA3848D958D099698A78FA319A62AA67B
:1093F00084A18BA7868D8CA780A191A1A2A1B3A1E6
:109400008DA79EA7AFA7B8AB878D89ABCE0101967C
:109410000E94D8414DCF423031F090927C0680922C
:109420007B060E94C430C0904F14D090501480919D
:109430004A14F6012CE6829FE00DF11D1124CF01A4
:10944000C816D90608F034CFD60117966C91179735
:1094500060FFD2C018962C9118972F70223009F017
:10946000CBC0F601EC5AFF4F0190F081E02D2D9119
:109470003C91D80157964D915C915897D9015996D6
:109480002D913C915A974217530709F0B5C0D70167
:1094900017963C91179727813213AEC014964D91C1
:1094A0005C911597248135814217530709F0A4C0B8
:1094B00012964D915C911397228133814217530785
:1094C00009F09AC011963C9111972681321394C0ED
:1094D00016963C91218132138FC06E7F623031F439
:1094E000F6018085807F836080873FC0663009F009
:1094F00083C0D70119969C9119978091FE149813F7
:10950000D7CE60912E13262F30E0C501062E01C064
:10951000880F0A94EAF781951A969C911A97982BCE
:109520001A969C931A97F6018085807F83608087C6
:109530001A96EC91EF3F99F54091001550E070912B
:10954000FE14E70FCA01871B9109281739070CF48D
:10955000C9018E0F8093FD1490E04150510984178A
:10956000950741F4C6010E94953B60E0C6010E9448
:10957000443D9ECE760F7093FE1480912D13809300
:1095800002157093FD14930102C0220F331F6A95D8
:10959000E2F7B90160956E7F6093FF1423C0E095F8
:1095A000E093FF1480E090E02E2F30E0782F8617B4
:1095B000C8F40196A901072E02C0559547950A9453
:1095C000E2F740FFF3CFC501072E01C0880F0A94D0
:1095D000EAF780958E238093FF148091FE14870F05
:1095E0008093FD14E0911015F0911115BF01808159
:1095F00091810E94C3345CCE3CE6C30ED11C20CFC7
:10960000D8015E968C915E978AAB5F968C918BABFE
:10961000BE016E5C7F4F8BE30E94022FACCCC80171
:109620000E944B33882361F080911215909113159D
:10963000892B09F4BDC0D8019D968C9182FFB8C0DA
:10964000F80181A592A58536910518F085A583FFBF
:10965000B1C0D80198963C90332031F0832D0E9400
:10966000C441892B09F448C0F80185A5208D382F05
:10967000347082FF0AC0223031F4818D928D883F90
:109680009F4FD0F502C02130B9F18EEF820F8230AA
:1096900038F4D80193968C91815F8E3068F18CC03C
:1096A00021118AC0332309F487C0F80166A077A08E
:1096B00092D67C01009719F080E090E00CC0B09247
:1096C0007C06A0927B060E94AC3076C0DC011B9623
:1096D0002C91213089F09701432DB3010E94CF3B9B
:1096E0000097A1F769C0813008F475C0823009F491
:1096F0009AC0833009F48AC026EAE12CF12C612C4F
:10970000712CB8018BE695E02CAB0E9412302CA98D
:1097100021111CC0E114F10431F4D0927C06C092F6
:109720007B060E94C430F30111830083C8010E94AC
:109730004B33882319F0C3010E94953BB301C80144
:10974000F7011995282F882309F498CC40E050E0C0
:10975000622FC8010E943A3A91CC00913D051091C8
:109760003E05F8018281853C41F08DE694E49093BA
:109770007C0680937B060E94C430D80113968D919D
:109780009C9114978D7F14969C938E931397892B9D
:1097900009F062C080E00E946E3F80E196E0909305
:1097A0003A058093390560E0C8010E94583754C0DB
:1097B0002AEAA3CF20EAA1CFD80158968C91813014
:1097C00009F091CF80E00E94FB333C013FEBE32E98
:1097D0003AE3F32E0DC0C8010E944B33882371F089
:1097E00083E00E94FB333C014EE0E42E4DE3F42E77
:1097F0006114710409F467CC20E083CFF80185A5DA
:1098000082FF02C081E0EDCF80E0EBCFC8014B9634
:109810000E94C4C10097F1F0DC018D919C91F80188
:10982000928F818F408EC8010E944B33882311F0A4
:1098300083E008C0D8019D968C9182FF02C081E030
:1098400001C080E00E94FB333C0123ECE22E24E3C4
:10985000F22ECECF29EA51CFE496E2E10C9492F6B3
:10986000AFE1B0E0E6E3FCE40C9483F6009749F442
:1098700085E495E490937C0680937B060E94AC304F
:1098800082C0FC012081233009F07DC0218132811A
:109890003A83298328E03396DE01139601900D92D6
:1098A0002A95E1F7FC0123852B87248535853D87A3
:1098B0002C8728E03E96DE011E9601900D922A9597
:1098C000E1F7FC01218D2D8F238D2E8F0789108DBF
:1098D000F688F6E0FF1508F056C0F8018081982F51
:1098E0009370933009F04FC0807E09F04CC08181A5
:1098F000811149C0BE01615E7F4F85E190E00E9409
:10990000EA32F801208126952695277030E08F8D68
:1099100090E028173907B9F58281982F937093301A
:1099200091F5982F907F79F58C708C3091F481E0CF
:109930008B87F8E0FF1538F5F801838194819F87C4
:109940008E876FEF0E9411898823E9F0F80129E0E2
:1099500003C0F801329727E085819681998F888F1F
:10996000878190859F8B8E8BF21AFA8E020F111DC4
:109970001C8F0B8FE0914905F0914A05309719F043
:10998000CE01019619956F96E5E00C949FF680E163
:1099900091E090933A058093390510923E0510921C
:1099A0003D0510923C0510923B0510924C0510921B
:1099B0004B050E94BE360C94EEA8CF93DF93EC01CA
:1099C0006AE672E085E20E94812F6AE672E088E32F
:1099D0000E94812F209749F480E694E490937C06BE
:1099E00080937B060E94AC3005C089E18A83CE015A
:1099F0000E948C34DF91CF910895009741F481E665
:109A000094E490937C0680937B060C94AC302AE817
:109A1000FC0122830C948C34009741F482E694E498
:109A200090937C0680937B060C94AC3025ECFC0173
:109A300022830C948C34CF93309151148091521422
:109A40009091531420E0231751F08396FC01B397B3
:109A50004081442311F081E029C02F5FF4CFC0E0A2
:109A600080914A14C817E0F40E94FC2E9CE6C99F1E
:109A70009001112440914F1450915014FA01E20FBB
:109A8000F31F882341F0878180FF08C080858F7095
:109A9000823021F0E0CF878180FDDDCFCF5FE0CF46
:109AA00081E090915414911101C080E0CF9108950C
:109AB0001F93CF93DF93EB01853239F41881BBDF1D
:109AC00091E09827912398831FC08833E9F4388167
:109AD00040914A14E0914F14F091501480E08417A3
:109AE00071F0278120FF07C090859F70923019F494
:109AF0002A7F223031F08F5FE459FF4FF0CF80E0B2
:109B000001C081E0832B8883DF91CF911F9108955D
:109B1000FC01808184FD0C942E370895A2E0B0E012
:109B2000E4E9FDE40C9486F6E0913B05F0913C05F8
:109B30002F2F30E09E2F9F5F983008F090E0692F24
:109B400070E0A901092E02C0569547950A94E2F7E4
:109B500040FF26C090933B0581E090E0062E01C0B7
:109B6000880F0A94EAF78F2780933C05660F771FCA
:109B70006354744B42E050E0CE0101960E9444F7DA
:109B800089819A81892B41F480E094E490937C064A
:109B900080937B060E94C430E981FA81199504C044
:109BA000E913C9CFE0933B0580913C05882361F020
:109BB0002FB7F89480913705909138058062909383
:109BC0003805809337052FBF2296E2E00C94A2F669
:109BD00080917613853091F028F4882349F0823003
:109BE00069F004C0843141F0863141F080E008958D
:109BF00080916F138B3010F488E0089582E008950F
:109C0000833014F083E01BC096E0980F923010F47C
:109C10008BEF15C098E0980F923010F489EF0FC0C9
:109C20009AE0980F923010F487EF09C09EE0980FE9
:109C3000943010F484EF03C0823F0CF48FEE8093D5
:109C400074130895C5DF282F220F220F280F30E04C
:109C5000A90160E8869F400D511D1124CA01089595
:109C6000809176138530E9F028F4882349F082301A
:109C700079F004C0843189F0863189F080E008955C
:109C800080916F13882349F08B3058F489E108954F
:109C900080916F13811105C002C082E3089588E2AC
:109CA000089580E10895CF93DF93EC01D9DFE82F89
:109CB0009E01A0ECB3E00E94A2F59B01AC01AE2F87
:109CC000B0E00E94B7F528EE33E040E050E00E949B
:109CD0005EF5CA01B901DF91CF910895CF93DF936B
:109CE000B1DFEC01BDDF282F2C9FC0012D9F900D0F
:109CF0001124BC0180E090E028EE33E040E050E029
:109D00000E945EF52F5F20936D13DF91CF91089530
:109D1000CF93DF938BE080936F1380E098EFAFEFEA
:109D2000B7E08093701390937113A0937213B09364
:109D3000731364E773E183E090E00E94EA3280915C
:109D400074135EDF64E773E183E090E00E942233E6
:109D50001092761377DF909378138093771338DF20
