:020000020000FC
:100000000C9406240C940BD30C940ED30C9410D3A4
:100010000C9415D30C941AD30C9428D30C942DD390
:100020000C944DD30C9457D30C9459D31895189520
:10003000189518950C94E4CF189518950C940ED03B
:100040001895189518951895189518951895189548
:100050001895189518951895189518951895189538
:100060000C9488D50C945ED20C9450D20C9454D23B
:10007000189518950C9427D50C94DAD318951895E3
:100080001895189518951895189518951895189508
:100090000C949CD20C946ED20C948FD20C9475D389
:1000A00018951895189518950C949ED10C94A3D674
:1000B00018951895189518951895189518951895D8
:1000C00018951895189518951895189518951895C8
:1000D00018951895189518951895189518951895B8
:1000E00018951895189518951895189518951895A8
:1000F0000C94D1D618951895189518950C94D5D6BA
:100100001895189518951895189518951895189587
:100110001895189518951895189518950C9404D756
:100120001895189518951895189518951895189567
:05013000189518951858
:104400004001CF4D000C4E0001624D00010E4E00E8
:10441000010E4E00010E4E0001664D00016A4D0076
:10442000010E4E00010E4E0001714D0001754D0050
:1044300001794D00017D4D00010E4E0001814D00BE
:1044400001884D0001924D00010E4E0001964D0075
:10445000019A4D00010E4E00019E4D0001B14D002C
:1044600001C04D00010E4E0001B54D0001BC4D00D4
:10447000010C4E00010C4E00010C4E0012AB4D0021
:10448000020E4E00010E4E00010E4E00010E4E00B7
:10449000010E4E00010E4E00010E4E00010E4E00A8
:1044A000010E4E00010E4E00010E4E00010E4E0098
:1044B000010E4E00010E4E0002CB4D00010C4E00CD
:1044C00002A74D0001C44D00FB004001814E006871
:1044D0004E0001264E0001794E0001794E0001790F
:1044E0004E0001294E00012D4E0002794E00013090
:1044F0004E0001334E0001364E00013A4E00017964
:104500004E00013D4E0001404E0001434E00017936
:104510004E0001474E00014A4E00024E4E00015C23
:104520004E0001724E0001794E00015F4E000162A3
:104530004E00017A4E0001654E0001654E00125694
:104540004E0002794E0001794E0001794E0001794A
:104550004E0001794E0001794E0001794E0001793B
:104560004E0001794E0001794E0001794E0001792B
:104570004E0001794E0001794E00027C4E00017F11
:104580004E0002524E0001764E00FB000101655DB7
:1045900000D95C00013C5D0001495D0001BA5C008E
:1045A00003455D0001495D00014B5D00015D5D005B
:1045B00001535D00035D5D0001D35C00015F5D00A0
:1045C000FB000100E35F000E00BF5F00C25F00C59B
:1045D0005F00C55F00C85F00D45F00CE5F00D15FA1
:1045E00000E35F00CB5F00D75F00DA5F00DD5F00B4
:1045F000E05F000001003060001000F25F003760F3
:1046000000376000376000F95F0016600007600047
:104610000E60003060000060001D60001D6000251D
:1046200060003760003E60004160000024013B777D
:104630000050770001577700016977000341770048
:10464000014D770004807700018A77000197770099
:10465000019C7700023F7700015D7700012577001C
:10466000FB0000000187B9007AB900017CB90001A4
:1046700082B9000182B900017EB9000182B900014E
:1046800085B9000A82B9000182B9000278B9000137
:1046900080B9000182B900FB000001FBB900C6B976
:1046A0000001C9B90001D2B90001D5B90001D8B9DA
:1046B0000001F5B90001F8B9000ADBB90001EFB952
:1046C0000003F2B90001CCB900FB01004B00AD08BA
:1046D000CA3000000200E800050E000000010700DB
:1046E0001600441500000001080003003413000008
:1046F000000109000100DF0B00000000F55100057A
:0347000000014075
:104704007F937FB7F8949D9AA5980AEF0E94E123BE
:104714000AEF0E94E1239D9806E40E94E12301E050
:10472400959900E00F9300EF0E94E1230F917FBF62
:104734007F9108957F937FB7F8949D9AA59806E09A
:104744000E94E1239D980AE00E94E12388949599B0
:104754000894001F0F9304E60E94E1230F917FBF8A
:104764007F9108959F937F9398E00E949C230795DF
:1047740077959A959923C9F7072F7F919F9108956B
:104784007F937FB7F894A5989D9A0F9306E00E94B3
:10479400E1230F91079508F49D980F9304E60E9476
:1047A400E1230F919D987FBF7F9108959F9398E097
:1047B4000E94C2239A959923D9F79F9108950000E6
:1047C4000000000000000A950023C9F708955F93D4
:1047D4007F937FB7F894CF93DF93C0E0D0E07F93CB
:1047E4005091B2007091B2007517E1F37395219660
:1047F4005091B2005717D9F77F918E01DF91CF9175
:104804007FBF7F915F9108950E949DE00DECAFE71B
:10481400CFE7BFE1D3E20D93AC17BD07E1F7AFE7F4
:10482400CFE7B3E2DAE20D93AC17BD07E1F70EE789
:104834000DBF03E20EBFCFE7DAE20E94B8E0002327
:1048440011F00E94A3E10E94782F0E94B6E00C941C
:104854002B240C94F9E14A9512F0000FE1F7089526
:104864004A9512F00695E1F708950024E8E0EA95E8
:1048740032F0001F001C0416D0F3041AF8CF001FF6
:10488400402D00950895149F102D059F100D049F31
:10489400002D110D0895000F111F4A95E2F7089598
:1048A400169507954A95E2F70895159507954A9543
:1048B400E2F7089500241124EFE0001F111F001CEB
:1048C400111C0416150610F0041A150AEA95AAF725
:1048D400001F111FA0010095109508955195419551
:1048E40050400895FF27552312F4F160F7DF112398
:1048F40012F4F09507D00E945C24F0FD03D0F1FD82
:10490400EDCF089511950195104008952224349F08
:10491400302D259F300D169F300D079F300D249F9D
:10492400202D310D159F200D311D069F200D311DA9
:10493400149F102D210D321D059F100D211D321DB8
:10494400049F002D110D221D321D0895000F111F0B
:10495400221F331F4A95D2F7089536952795179548
:1049640007954A95D2F70895002411241001E0E236
:10497400EA9592F0001F111F221F331F001C111C07
:10498400221C331C041615062606370688F3041A5F
:10499400150A260A370AECCF001F111F221F331FE6
:1049A400A001B10100951095209530950895579177
:1049B4004791179011FA2790379007900CBE0895ED
:1049C400F7DF041B10E003C0F2DF041B150B20E02B
:1049D40030E000C028F110FC25C047910790E00F9B
:1049E400F11F0417100540E024073407C8F486F4C7
:1049F40012FE05C0E00FF11F0791069002C0069158
:104A04000024F101E01BF0090CB700400CBF19941D
:104A1400E00FF11FE00FF11F2790379007900CBEB5
:104A2400F101199411F4C6F7E3CF319612FC3196D3
:104A34000EF0329650E060E070E047914B3F48F052
:104A440079F34F3F29F04E3F11F0779167915791D9
:104A54004791041B150B260B370B29F308F3E5CFFD
:104A6400AF93BF93D80101900D9241505040D9F7B4
:104A7400BF91AF910895AF93BF93D8013BBF079007
:104A84000D9241505040D9F7BF91AF910895E00F76
:104A9400F11F02900A9201501040D9F70895FA923A
:104AA400EA92DA92CA92BA92AA929A928A927A92E2
:104AB4006A925A924A92BA93AA939A938A930895BD
:104AC400FF84EE84DD84CC84BB84AA8499848884A6
:104AD4007F806E805D804C80BB81AA8199818881B2
:104AE400F0E0EC0FFD1FEF0108958081080F818134
:104AF400181F8281281F8381381F8481481F858164
:104B0400581F8681681F8781781F08958081082B2C
:104B14008181182B8281282B8381382B8481482B17
:104B24008581582B8681682B8781782B0895808115
:104B3400081B8181180B8281280B8381380B8481A7
:104B4400480B8581580B8681680B8781780B089503
:104B5400808108178181180782812807838138079B
:104B6400848148078581580786816807878178078B
:104B74000895000000000000000000000000000094
:104B84000000000000000000000000000000000021
:104B94000000000000000000000000000000000011
:104BA4000000000000000000000000000000000001
:104BB40000000000000000000000000000000000F1
:104BC40000000000000000000000000000000000E1
:104BD40000000000000000000000000000000001D0
:104BE40002010002020505080000FFFF3412000064
:104BF40000000000000002060100000000000000A8
:104C0400000000000000000005FF00000203030094
:104C14001E000003F40080000001341200030300AE
:104C24000002000000000003034C1D0000102700D8
:104C340000010001E803000004E8030000104174CF
:104C44006D656C2020202020202020202020AAAA6E
:104C5400AAAAAAAAAAAA0085006C00010000080555
:104C6400000808020504020A000308FF14000000FB
:104C740001080303030208901A0000010000000069
:104C84000003031410616200035B0B000800650B52
:104C9400000100100C000400140C000100160C00AC
:104CA4000400E70B000100E80B000100EF0B000813
:104CB40000EB0B000200730B0002007C0B000100F0
:104CC400E30B000100F90B000100E90B0001001DDA
:104CD4000C0001001E0C0001001F0C000100200C40
:104CE4000001001B0C000200210C000100220C003A
:104CF4000100E50B000100E40B000100090C0001B8
:104D0400000A0C0001004F0C000800350C000400E0
:104D14002A0C0004002E0C000400320C00010033A5
:104D24000C000100340C0001003E0C001100E00BEB
:104D3400000100390C0001003A0C0004000E0C00C4
:104D440001000B0C000200570C0001001A0C0001BA
:104D540000000000000000000000000F0C00010033
:104D6400000000000000000000000000000000003F
:104D7400000000000000000000000000000000002F
:104D8400000000000000000000000000000000001F
:104D940000000000000000230C000500280C0001A6
:104DA40000290C00010000000000000000000000C9
:104DB40000000000000000000000000000000000EF
:104DC400000000000000000000670B00010000006C
:104DD40000000000000000000000000000000000CF
:104DE40000000000000000000000000000000000BF
:104DF40000000000000000000000000000000000AF
:104E04000000000000150C0001006D0B000100669D
:104E14000B0001005B4C0002005F4C000100624C7F
:104E2400000100604C000200654C000100664C006B
:104E34000100674C000100684C000100694C00014E
:104E4400006A4C0001006B4C000200634C0002003D
:104E54006D4C0001006E4C000100874C000200788C
:104E64004C000100794C0001007A4C000100834C95
:104E74000004006F4C000100704C000400744C00EE
:104E84000100754C0001007F4C000100804C0001C2
:104E940000814C000200000000000000000000003F
:104EA40000000000000000000000000000000000FE
:104EB40000000000000000000000000000000000EE
:104EC40000000000000000000000000000000000DE
:104ED4000000764C000100774C000100894C000171
:104EE400008A4C0001008B4C0001008C4C00010036
:104EF40000000000007B4C0004005D4C00020058E0
:104F04000C000000050E000000490D000000ED0E2D
:104F1400000000F90D0000000000000000250F0053
:104F24000000CA1400000024150000004112000013
:104F340000BD120000008712000000F412000000FF
:104F4400371300000084140000000000000000007B
:104F540000000000341300000044150000000000AD
:104F6400000000000000000000000000000000003D
:104F7400000000000000000000000000000000002D
:104F8400000000000000000000000000000000001D
:104F9400000000000000000000000000000000000D
:104FA400000000005A150000008215000000DD0C0E
:104FB400000000FCAF601107012000000000006B3E
:104FC4008E00BB8C00CD97002E7A00000000FF728B
:104FD400002C7800E47D00000000000000100000B8
:104FE40000000003020102030302020101010101A6
:104FF4000101010102020101010201020202020295
:10500400020102020202020201030302020300017E
:1050140000010000FE9A69004E9900247F00D675B5
:1050240000DC7C000000000E6C007A7000247A0022
:10503400CB6C00849700616400F58800B58A007C1D
:105044008C00868800E37F00000000E19E00FC885D
:1050540000E39800326300F19900078A00518B0045
:10506400119700F08700C46900ED6C00627600B40B
:105074007200F97A002E6C005E69005B7F0000000C
:10508400000000007E8300D48400000000000000C3
:1050940002757D003C7D000107109800899800018D
:1050A4000110980089980001010C79000C78000126
:1050B400017C730060740001017C7300C8730001FB
:1050C40007987B00C87B000101847C005E7C0001A2
:1050D40001000000000000010700000000000001C2
:1050E400010000000000000103000000F18B00013A
:1050F40004000000F18B0001050000000000000125
:1051040006000000000000010D0000000000000186
:1051140001109800000000000100000000000001E0
:105124000E00000000000001070000000000000164
:105134000A0000000000000100000000000000015F
:105144000100000000000001010000000000000058
:10515400000000002F690000090000002F69000012
:105164000C0000002F690000000000002F690000FF
:10517400ACD800ACD800ACD800ACD8000FD900DD56
:10518400D70041D700C1CF00BFD40068D4006ADF84
:10519400009DD000F3DE00B9DD0086DD00ADD8004F
:1051A400000040000000010058B400DBAD00000026
:1051B40000000000000000000000000000000000EB
:1051C4000100000000000380000000000001C9008D
:1051D4004CCC00F9C5000BC9005BB60040BE0058BA
:1051E400DC005ADC005CDC005EDC005FDC0061DCBF
:1051F400000100020007000800090001A52A0010B0
:10520400B22A00B21BCC03000000CC0100021552EC
:105214000000000000000000000000000001010187
:105224000080000000000000000000010C000000ED
:10523400000000000000000000200547686F737440
:10524400000000000000000000000000000000005A
:1052540000000000000000FAFFFFFFFFFFFFFF9DBA
:10526400310000776C5064734461746153657276E5
:10527400657200535F4E7600526573697A696E6792
:10528400204E56206974656D202869643D25687533
:10529400292066726F6D2025687520746F2025683B
:1052A4007500000000000000000000000000000085
:1052B4000000000000000000FF00000000000000EB
:1052C40000000000000000000000000000000000DA
:1052D4000000000000000000445F4E760000000063
:1052E40000000000010000000000000000000000B9
:1052F400000000E803000001133A00F34400BBD8A7
:10530400004960009E990069CB00FBB500000000D5
:10531400000000D73B000000000000000000002255
:105324002D006F31000000000000FFFF0B0000FFA4
:10533400FF00000000FFFFFFFFFFFFFFFFFFFF0074
:1053440000000000000000000011610001FFD78789
:10535400380C040000000000000000000000000001
:10536400A2690000000000000000000000DF8900C6
:10537400000000000000000000002A7A0000000085
:1053840000000000000000B1B500000000000000B3
:10539400000000006DC400000000000000000000D8
:1053A4000091C40000000000000000000000B5C42B
:1053B40000200000000000000000000000B3D10045
:1053C4000000FFFF00FF00000000010000000100DA
:0D53D40000000000000000000000000000CC
:1053E2000E94A43C0E94B83C0C94F33C0E94A53C51
:1053F2000E94B93C0C94F43CECECF3E00083118382
:10540200228307E01AE220E00C94A63C002331F04C
:1054120025D020A351A332A333A305C009D000A3F2
:1054220001A302A303A30DE11AE220E00C94BA3C0B
:1054320000E0E0E0F2E00895002331F00FD024A371
:1054420055A336A337A305C0F3DF04A305A306A320
:1054520007A303E31AE220E00C94F53C532F330F29
:10546200330BE7CF212F220F220BE3DF048F158F9F
:10547200268F278FECECF3E0008111812281F80165
:105482002CBF1994BA93AA932297AFECB3E0009180
:10549200DD03002369F10A9579F00A9519F00A955E
:1054A20019F13FC00E94B72E0E94F1290DE91AE2BC
:1054B20020E00E94FD2935C000E0088309838E01A7
:1054C2000E94F62C002371F001E0A881B9810C93AF
:1054D2004FE250E020E032E0088119810F5F1F4F58
:1054E2000E94D1E003E01AC08D010E944AD819C07F
:1054F2008D010E946FD800E117E220E016960D930D
:105502001D932D932C93129601E00093D90302EA86
:105512001AE220E00D931D932C9302E007D00E9423
:10552200CA2E2296A991B991089500E00093DD0355
:105532000895FBDF0C94CA2E01E0F8DF0E94F729E0
:10554200F9CF02E0F3DFF6CF9A938A93C8010E9463
:105552007C2B20E38C010E94853001E08991999196
:1055620008959A938A9324970A831B8391E066D0C5
:105572000181128123813481458156816781708541
:10558200E1E0F2E00E94AA2591F000E0088309839D
:1055920042E25BE260E09E012E5F3F4F8E010E947D
:1055A200582C0023D1F490E0092F2496D7CF46D06F
:1055B20023853485018512850E94F32E01E13ED0B8
:1055C200008300E03BD00183E1E0F2E00A811B812D
:1055D20051D00A811B814AD0E7CF49E350E020E055
:1055E20030E0088119810E940CE110E024D096A3DA
:1055F20017A303E020D0028F2A813B812F5F3F4F08
:1056020008811981035E1F4FF90139D014D095A387
:1056120012D090A741A70FD092A70DE00CD003A7FC
:1056220044A709D007A5046005D007A5086002D0E9
:1056320040ABBACF07A7E881F9810895EA81FB81DF
:105642000895BA93AA93F801025E1F4FD8012C91D4
:10565200203159F401E10D93E559FF4F07890C936D
:1056620011970A2F07D08D0101D05CCF0E9485309F
:105672000C947C2B0E5F1F4F02D02AE0089548E065
:1056820050E00C9432254FEF51E560E0F80141877C
:105692005287638728E0248746E95AE260E0438321
:1056A2005483658343E45AE260E04083518362831A
:1056B2004AE95AE260E046835783608708950C9472
:1056C200923C00E00E949D3C0BC000E00E94953C91
:1056D20007C001E00E94993C02E0089502E001C087
:1056E200F8DF0C94993CFACF02E00C94953CF6CF8B
:1056F20001E00C949D3C02E0FCCF0E94923C00E051
:10570200F4CF00E0F6CF0E945D25AEEDB3E000E0FD
:105712000093E6030D930C931197FD01028303831B
:10572200048305830683078380E0482F50E00CE85A
:1057320010E00E94452428EE33E0200F311F00EED6
:1057420013E085D08395823080F3E4E00C946E25DB
:105752009A938A930091E603002329F0025039F1CB
:105762000A9529F14CC00EED13E095D0C801012B2A
:1057720009F445C00E94752BFC01E558FF4F03E078
:105782001CE220E00483158326838C01025E1F4FF6
:1057920000831183825B9F4F8C010E943BA50EED1B
:1057A20013E077D0980102EE13E051D027C01AC05F
:1057B2000297FC01E757FF4F40815181628100E06F
:1057C20040305007600731F08C010E5F1F4FFA0125
:1057D2006CBF19959C0104EE13E03BD0980100EEDA
:1057E20013E035D004EE13E056D0C801082F092B80
:1057F200F9F60E94782B00E00093E60326D0899107
:10580200999108950E945D25D8019801245830404D
:10581200EEEDF3E00C91002319F410E002E009C070
:1058220011851395143018F400E0CF0104C010E084
:1058320003E0CF0106960087118734968F0109D0C5
:1058420098018C0104D001D080CF0C94E62E0C94E8
:10585200A939BA93AA93F80140815181421753079B
:1058620011F417D013C0DA0101C0D8010D911C91B7
:105872001197012B51F00D91119702171307A9F7F8
:10588200F901008111810D931C938901A991B991AC
:1058920008950C94CE39F80100811181202F212B1B
:1058A20019F00E5F1F4F089500E010E008950E9466
:1058B2005625380129014A01A62EEEEDF3E0A28118
:1058C200B3810A2F0B2B81F100EE13E0E2DF980186
:1058D2000EED13E0BCDFF2012DD049F040E350E0C1
:1058E2002081312F8D01005E1F4F0E94D1E0CD013A
:1058F200805B9F4FF3011ED039F049E350E02081D5
:10590200312F8C010E94D1E08D01005E1F4FF20108
:1059120000831183F30180839183A757BF4F8D9238
:105922009D92AC9281E001C080E08FDF082FEBE016
:105932000C94672500811181012B08950E945D2539
:10594200A8ECB5E000E00D930C931197FD010283E2
:10595200038380E0482F50E002E310E00E944524D8
:1059620020E035E0200F311F0AEC15E029D08395A5
:10597200843080F3E4E00C946E25BA93AA932497C2
:1059820027D0D801012BC1F02C918E010E94382F13
:10599200002341F08D01E981FA816B816CBF199579
:1059A200002321F00FD00AEC15E003C00BD008EC65
:1059B20015E006D00E94D02E2496A991B99108959F
:1059C2000C94A93908EC15E00E94CE39980108958B
:1059D200E8ECF5E000811181202F212B19F00E5FF8
:1059E2001F4F089500E010E008950E945C25D80141
:1059F2004424E8ECF5E082819381082F092BD9F049
:105A02000AEC15E00E94CE39980108EC15E0D8DFC7
:105A1200FD0100811181012B51F040E350E02D91F5
:105A2200312F11978C010E5F1F4F0E94D1E0029619
:105A32008D939C9343940E94D02E042DE5E00C9408
:105A42006D25BA93AA93A0E0B2E06DD1002339F09C
:105A52000A9531F10A9541F00A9591F159C00E94D7
:105A6200602B5DD058D054C0FD0105AD00FF06C0CB
:105A72000E7F05AF47A550A961A901D1FD0105AD72
:105A820002FF04C00B7F05AF0E94A92BFD0105ADEB
:105A920001FF3EC0DD960D7F0C930E94BE2C38C0E4
:105AA2000E94622B00E049D106E11EE220E0E0EF15
:105AB200F6E0078B108F218F8F010E9402C928C048
:105AC2000E946F2B0FE01EE220E0E1E9F6E0008386
:105AD2001183228304E310E0E2E1F6E00083118304
:105AE20003E002830E94A84F980107E116E091D0DB
:105AF200EEE3F6E04083418342834383448345835C
:105B02004683478300E400870CEC15E00E9421CC19
:105B1200A991B991089501E000933C0239C18A9399
:105B220061979E012F5F70D009811A812B813C8180
:105B32004D815E816F817885EEE3F2E00E94AA25B5
:105B420029F0E6E4F2E00E94AA2550F08E010F5FF0
:105B52001F4F0E947A3C9E012F5F3F4F00E051D0C1
:105B62000E947D2F0FE212E00E94442B00E0088386
:105B72009E0101E246D008810093000201E00093F9
:105B8200210710E0EAE0F7E0008F118F028F138FF8
:105B9200048D017F048F0160048F01E217E0018B05
:105BA200128B09E61FE220E0038B148B258B08E1A0
:105BB20017E00E945EAF04EF11E020E0EAE0F7E0B8
:105BC2000683178320872187228705EB1EE220E0C8
:105BD2000387148725879E01275F16D09E01275FC2
:105BE2003F4F01E012E015D0E0E0F2E042A953A9F4
:105BF20064A945D00E94842B0E949F2C61968991B2
:105C0200089510E00C94863D3F4F00E010E00C94A4
:105C1200673DF90148E050E00C943225F801048513
:105C2200002311F404E083C079CF0E945D25C801EE
:105C320081D0FC0107850023E9F4A0E0B2E076D030
:105C42000E94662B1BD0FC0103811481FD01038B92
:105C5200148BFC0101811281FD0101871287FC0175
:105C620005851685FD01068B178BFC0100810093CB
:105C7200150201C053DFE4E00C946E254FD049D0E9
:105C820009F044D00895F8012081203509F001D0AF
:105C92000895BA93AA93F80120812E5869F02A95A3
:105CA20059F02A9519F02A9519F02FC004E02CC05A
:105CB2000E94742B30DF29C0A0E0B2E02681378138
:105CC200FD0121873287F80123813481FD01238B75
:105CD200348BF80121813281FD01268B378BF8014B
:105CE20005810093150226D00E94662B1CD001303C
:105CF20021F414D00ED039F009D015D0043019F4A3
:105D020015D0BCDF0BDF02E012D002CFFA016CBF6C
:105D1200199400E04030500760070895FD0145A93D
:105D220056A967A9089500913C02089502E00093E4
:105D32003C02089501E001C00895002361F400913E
:105D42002D07002381F40AE017E00E944AD801E0FF
:105D520000932D070895013031F400E000932D07E0
:105D62000AE017E060D008950C94622B2497E0E0DB
:105D7200F2E006891789088319838E010E949DC566
:105D82000A81009318020B81009319022496089548
:105D920011C021D019F409D001600BD008951BD095
:105DA20019F403D0026005D00895EDE3F2E000811A
:105DB200089500832FB7F894E7E1F3E000811181A1
:105DC2001061118300832FBF089505D019F4EDDF10
:105DD2000460EFDF0895A7DF023008952297088359
:105DE20019837EC00E945D25C901202F212BC9F095
:105DF200282F232BB1F0AEE2B7E0FD01068717870B
:105E020011D020E0FD018683978320872187228796
:105E120006E11FE220E00387148725878D010E9497
:105E22004AD829CF8D010C946FD8BA93AA930E94B5
:105E3200822BACE3B7E00D911C91199720E00D90F5
:105E42001D902D903C9016960015110522052305F4
:105E520010F4A80101C0A001041B150B1C930E93A2
:105E62001E97012B19F40E947E2BDCDF51CE0E947B
:105E720059253801522E27D022AD012B022BC1F019
:105E8200442401C0439400913B02401688F41BD085
:105E920032ADF80104E0409EE00DF11D10E0D301A7
:105EA2000E94DEE0F3010081501661F701E008C0B4
:105EB20044E050E020E030E083010E940CE100E089
:105EC200E8E00C946A25E0E0F2E000AD11AD08953F
:105ED2002297F80107A110A5088319830E94792B44
:105EE2008E010E94F62C22960895089508950E942C
:105EF2003C3B0E944D3BFDCFEAE8F8E008EC03870B
:105F020000E0048702A309E110E00587168706E096
:105F12000787108B118B00EC17E0048B158B00E4C4
:105F220010E0068B178B108F118F128F138F05EDD8
:105F32001FE220E0048F158F268F06E710E320E092
:105F4200078F10A321A38F010E94E2D901E00093E1
:105F5200860804E610E0E2E8F8E000831183128389
:105F6200138304ED1FE220E0E7E8F8E000831183E9
:105F7200228308D04FE750E020E030E00EE317E044
:105F82000C940CE1BA93AA93AEEBB7E090D000E088
:105F92008BD000E018E00D931C9300E000937B0887
:105FA200A991B9910895EECF0E945C252197C8016D
:105FB200ADEBB7E03DC041E050E09E010AE818E0D9
:105FC2000E9448DB013010401CF405E06DD068C02F
:105FD20001970091BD07002359F00A9509F441C0C9
:105FE2000A9581F10A95B1F10A9509F446C007C0F4
:105FF2000881003121F440927B0802E055D00881EB
:10600200EBE7F8E01081100F1083442089F0FD01C6
:106012000181128138E00B37130750F42881F8010F
:106022002083FD01018112810F5F1F4F01831283C3
:10603200082F092B81F144240091BD07053009F096
:10604200BACF2EC00881023011F403E0D7CF4092BC
:10605200BD07D5CF0881003111F401E0CFCF4394C1
:10606200CECF0881003119F403E01ED0F8CF0330FF
:1060720011F404E0C3CF05E0C1CF00917B08188181
:10608200011739F4FD01218100E0205018E00E943F
:10609200EF2E78DF05C00BD00CE718E00E944AD83B
:1060A2002196E5E00C946D250093BD0708950CE759
:1060B20018E00C946FD80091BC070023A9F040911E
:1060C200BA0762D02EE337E0200F311FF901E558FD
:1060D200FF4F40810AE818E00E94C8DA0F3F1F4FC5
:1060E20019F400E00093BC0708950091BA071091DB
:1060F200BC07112331F01A951093BC07039509F0E0
:106102000A950093BA07D7CFBA93AA93322FD80130
:1061120020E00091BC070023A9F53C3398F501E08B
:106122000093BC076091BB07462F2ED0A8010EE357
:1061320017E0040F151F639509F06A956093BB077A
:10614200F80140E1419342E0419340E00AC05C9192
:10615200503119F450E15193205F5D91250F519315
:1061620043954317A0F330E1319333E031932B5D34
:106172002193E01B2E2F05581F4FF80120839BDF30
:1061820001E001C000E00CCF50E00CE710E00C94FD
:106192004524BD01ADEAB8E0EBE5FBE08D015ED040
:1061A2000091140C0093B508EFE4FCE006EB18E054
:1061B20059D051D00681178120853185FD01018B8F
:1061C200128B238B348B0091E90B058B0091E00B32
:1061D200068B0091320C078B0091330C008F0091DB
:1061E200340C018FEEE3FCE007EC18E032D033D040
:1061F20003851485FD0103A714A70091210C05A7AF
:10620200EBEEFBE000811181FD0106A717A70091CB
:10621200E30B00AB0091F90B01AB0091570C02AB01
:106222000091820B03ABE3E7FBE000811181FD01EA
:1062320007AFFF96118300917C0B02830FEE18E0EB
:10624200EFEEFBE00FD00091200C0093F708DB018A
:10625200089541E105C0E0E1FCE0089548E050E026
:106262000C94322548E0FCCF0E9458252A97380129
:1062720029018AEC96E409E2802E0AE010D0088116
:1062820019810615170519F44AE00FD004C00A96C1
:106292008A9499F700E02A96E9E00C94692510E0C7
:1062A200FC0130E0DE010C94DEE050E09E01820150
:1062B2000E94D1E001E00895402F34D0EEE4F2E0F4
:1062C2001381102B13832FB7F894E7E1F3E00081D9
:1062D20011811062118300832FBF08953091510202
:1062E2003323F9F020E001C02395422F1BD0132F56
:1062F2001023D1F3302730935102422F50E003E0B4
:1063020010E00E944524F801E25BFD4F00811181FB
:106312002281F8012CBF199500915102002309F046
:10632200D2DF089501E010E00C944F240E946937F7
:106332000C942236002308959A938A932A9720E098
:1063420060E030E0E8EFF8E0E20FF61F462F37D0CA
:106352001081102329F0009510811023108306C0AC
:106362006395683098F32395263050F308E0209F18
:10637200C001860F931F8C0126D071F49E018C01FF
:106382000E94353122D051F04BD056D039F0002343
:1063920029F020E040D002C08C0120D020E0F0E0C3
:1063A200E22FE850F74F0081002311F014D003C010
:1063B20023952630A0F32A9689919991089501E0B8
:1063C20010E00C944F240E946437002311F001E086
:1063D20001C000E0AFCF00E00C945D319A938A9344
:1063E20034D0C1F00A811B81012B21F00C811D8167
:1063F200012B11F426E70FD013D06C817D814A81E5
:106402005B8120E030E08C010E949236002311F083
:1064120024E801D0D0CF31E002E512E00C94B43888
:106422004E815F81688500E040305007600719F0B7
:10643200FA016CBF199508954C815D812A813B81D7
:106442008C010E943D36023008952A97C8019E01B0
:106452000E9435316FCF63D419F40091A702E6D1BF
:1064620008955DD429F4E4D219F422EE30E016D571
:106472000895E0C28A9380E0EEEFFAE04081518114
:10648200628140305807680731F0FA016CBF1995F4
:10649200002309F481E0082F8991089501E008950D
:1064A20000E008959C01F6D0800F911F0F96807F27
:1064B20086879787C9010895BA93AA9320E001C0FD
:1064C20023953091A6022317A0F434E0239F82D2B1
:1064D2004D915C9111974017510791F712960D91CA
:1064E2001C911397012B19F42CE231E0D7D48D01C2
:1064F20001C045D0A991B991089535D019F029E389
:1065020031E0CCD464D2003818F02AE331E0C6D4AA
:106512005ED214E0019F0EEF18E0000D111D85D22E
:1065220025892395258BF8018083918389919991FF
:10653200089519D019F427E431E0B0D48C01D8D1F0
:1065420074D225892A95258B34E0239FF001E250ED
:10655200F74F4081518162817381F80140835183F9
:1065620062837383E3CF9A938A93C801C1D1012BCB
:106572000895BAD121F0F80102811381089500E053
:1065820010E00895792F482FF801C9010FEF1FEF8E
:1065920013C031911327212F12951F702127522FDB
:1065A200550F550F550F550F052730E2239F012533
:1065B200102F0226002D0197282F292B51F7842F07
:1065C200972F08952CE030E00E5F1F4FDBCF60D095
:1065D200D8012901CA01BA01A901980124D10E9456
:1065E200AE37BC01A2019D011ED10E94B338E6E084
:1065F2000C946C2574D1C8010FEFE82FF12F0083A2
:106602000183082FDFDFFC0106871787AFE9B2E0BD
:1066120040E150E09C010D911C911F97D1D069F48B
:1066220040E150E01E962D913C91FDD00E94AF3882
:10663200002309F405D000E002C002D001E033C417
:1066420000E110E04EC1229720E028832983FBC09D
:106652001FD0D80129011ED062D2B1F0042D052924
:1066620071F0FD01468157819201DFD106851785C0
:10667200A7D029F4FD010681178133D105C0FD01A0
:1066820006811781A0D111F400E001C001E0AFCF73
:106692000C945B25CAD18685978508950E94512561
:1066A200A59708832B833C835A0100E009830A8360
:1066B200662477240DA91EA918D129F0060F171FE9
:1066C20009831A8303C027D3660E771E8B819C81B0
:1066D2007A012A01460E571E11C08D0111950195AE
:1066E200104029813A81200F311F29833A83BD014D
:1066F2004981532F8A1A9B0A940191D3E414F50419
:1067020041F401E0A596E2E10C94622578018F85BF
:106712009889082F092B09F451C08FD24B5F5F4F24
:106722009C0188D209851A8598014B855C85040FE6
:10673200151F2415350558F7E016F10640F7041524
:10674200150520F3840D951D4096821B930B4C0179
:10675200E216F306D20128F4A21BB30B8F859889A7
:1067620005C0AE19BF098B819C8175014A1A5B0A6B
:1067720009811A81012B09F0B0CF0A2F0B2B09F4E2
:10678200BDCFA13100E0B00728F000E1C02EDD242A
:10679200509703C06D01A0E0B0E06C187D088C1822
:1067A2009D08B601AE014B5E5F4F940143D2A60134
:1067B2009E012B5E3F4F830103D0F9F600E0A2CF8A
:1067C20006DFAEC178D3D90133D021F42CD02ED03C
:1067D2002FD009F10FEF0883098301E40A8304E54E
:1067E2000B8303E50C830EE40D8306E70E8301E3BE
:1067F2000F8388879987AA87BB8780959095A095F4
:10680200B0958C879D87AE87BF8740E150E09E019F
:10681200B6DED6DF11F400E005C064D006D10687EB
:10682200178701E03FC30091A50208950C941C381C
:1068320040E050E2F9D1F7DF0E94AF3871C12297F0
:106842009EDE0883098342E050E09E01C0DE002301
:1068520011F400E001C001E02296089540D0609753
:10686200A1E9B2E03FD0FD0106871787E6D1268570
:106872003785D5D280E090E0FE01E80FF91F008154
:106882000F3F31F40196803100E0900738F5F4CFE4
:106892008E0198DE2E853F852017310711F022D018
:1068A20018C008811981012B89F48A819B818C018E
:1068B2001BD011F48C0121DEFD0126853785F801FC
:1068C20022833383B4D1012B09F4FBD224D1005F9C
:1068D2001F4F07D0FD011785103240F2E3C20C941E
:1068E2005D25E0CD00E14CCE03D0202F212B089571
:1068F200E3CD0FD2A09701E9402E02E0502E08EA24
:1069020012E00E94CC3B00E0F20100D17090A5029F
:1069120094D1405F5F4F88D1072D8DD1888D998D9D
:10692200AA8DBB8D81509040A040B0407CDF039582
:10693200023008F000E00093A502071519F42AE4DA
:1069420033E0ACD28C019D013DDF002379F3662454
:106952001EC004E0609E3ED070D130D06CD1F3D026
:10696200F20186859785DAD0C1F000E00A930A9396
:106972006A857B8540E050E021D090DE002369F0FB
:10698200CAD021D051F0FD018283938363941FD03A
:106992006016F8F254DF002311F400E00BC070928D
:1069A200A70201E912E00E946FD801E912E00E94F9
:1069B2004AD801E0A096E8E00C946A25FD01228104
:1069C2003381072D08958DDF8C013DDEA9C0009132
:1069D200A6020895AEEFB8E0A00DB11D089520E023
:1069E20030E223D066857785261B370B20173107C7
:1069F20028F41ED0C9F426E933E050C220313440D5
:106A020098F42091A802222379F442E352E360E051
:106A12006A935A934A9340E157E260E070E021E0C2
:106A220008EA12E00E94A93B0895E1E9F2E0089524
:106A320060DF76C00E945725609771D129F005E08A
:106A42006096EAE00C946825F0DF82899389082F2A
:106A5200092B29F400891189012B21F405C04096E4
:106A62008C01DCD16AD011F400E0EACFEA2FF12FD9
:106A720059D05FD0012B59F4DAD0005F1F4FCED12D
:106A82005CD019F429EC33E009D2FD014BD0CDDF03
:106A9200868497846884798402891389012BE1F0C2
:106AA20040E050E024E030E002E612E00E94B53817
:106AB20040D0ABD10A851B85A8D100891189A5D107
:106AC20007E612E00E94B638269633D00887198767
:106AD2000615170508F4380136D020D071F000E011
:106AE2000A930A93B30140E050E09C01BDD129F022
:106AF20012D0F7DE840169DF11F401E0A1CF00E0DA
:106B020094DF04D0FD0182829382AECF008B018B91
:106B1200028B038B08950E811F8108958E016ADD19
:106B2200002308958281938160E170E0AE019C01AF
:106B320076C17BDF02891389089577DF0089118985
:106B4200D7DED80114CDE1D0088519850E831F83C5
:106B520000E0ACC19DDD609700E00093A6024424F2
:106B62004A948FEF9FEFAFEFBFEF552466D05CD012
:106B7200052D61D008811981012B69F50A81013443
:106B820051F50B81043539F50C81033521F50D8161
:106B92000E3409F50E810637F1F40F810133D9F471
:106BA20046D02A853B854C855D856E857F850801AB
:106BB200190104261526262637264FEF0416140639
:106BC2002406340641F4081719072A073B0718F46C
:106BD200452CC801D901539402E0501638F20FEF48
:106BE2004016D1F400E00093A50208C01EDF04891C
:106BF2000395048B023010F020E44FD10EEF1FEF0B
:106C02002FEF3FEFDFDD002389F319DE002371F35D
:106C120000E00093A60203C04092A5021FDE01E03D
:106C22000093C6026096E3CC20E030E00895088528
:106C32001985089508810C947F3760E170E0AE01F8
:106C42000895BA93AA93ACE9B2E00091C602002378
:106C520009F480DF01E000939B020CE212E320E0E2
:106C62000D931D932C93179708E51BE120E00D93DC
:106C72001D932D932C933ECC4CD06097D801C90123
:106C82002A01012B29F0103F18F42130344010F072
:106C920023E603D1ECD0012BC1F08D01EAD0081715
:106CA200190741F0C2DEA08BB18B828B938BC2DEBF
:106CB200002349F5042D052931F0B201AC01B4DFFE
:106CC2008D01AFD020C000E01EC029D011F005E038
:106CD2001AC0A1D07CDE003810F02BE8DED01BD029
:106CE200AA83BB8312D08E839F8388879987DED045
:106CF20092018ED011F401E006C08D01FEDBF80195
:106D02006282738202E0609656CE00E00C830D83AD
:106D120008950C94592589DE668477840895AADB48
:106D2200FFCE0E9455256097D8014901CA015B0137
:106D3200012B11F0672B11F429EAAFD0F0DF11F02B
:106D420005E05FC068D08D01D3DD2801012B11F46D
:106D520003E057C0E42DF12F62807380A1E9B2E015
:106D62006CDF93015CD0088419842224A40160E0C2
:106D7200480F591F621D04161506260610F404E07A
:106D820040C08C829D828E839F836A867B86C3DE0F
:106D9200288539850217130719F42C862D8606C01B
:106DA2000C851D850F5F1F4F0C871D87FD01868592
:106DB200978595012DD011F401E023C0F201828361
:106DC20093830C851D85053620E01040C8F00A81AA
:106DD2001B81FD01008B118B228B238B0091B7024B
:106DE200002371F40AE312E320E02A930ED048EB69
:106DF2005BE060E070E021E096968D010E94A93B85
:106E020000E06096ECE00C9466251A930A930895CC
:106E12008E011EDC85CE8C01005F1F4FE0CD03DDAD
:106E22000ACF77DFD801C9012A013B01012B11F0FA
:106E3200672B11F42AEF31D01AD057DD11F403E099
:106E420012C00C012224040C151C221C21E0221663
:106E520038F47A926A92B201AC01980105D011F429
:106E620004E001C000E0A7CDDEDC18DC59CE8D01C4
:106E720027C09A938A936097C801012B19F42AE1DB
:106E820035E00CD01CD031DD11F479DB04C0D5DE45
:106E92009801C5DFCCDE609649CB34E002E612E011
:106EA2000C94B4386096E4E00C946E250A870B8744
:106EB2000C870D87089513DD6097C80108958C0132
:106EC20058CB8C0136CBFCDF012B09F0E7CAE8CAAC
:106ED20000E0002311F026E4ACD0C6D000501440EC
:106EE200204030400F5F1F4F2F4F3F4F0030104464
:106EF2002040304011F02AE49CD008950E9457258A
:106F020029013A014B018DD0840D951DAB1FBB1F8A
:106F120082D010F428E58DD040E054E460E078D0CF
:106F2200080D191D261F361F4017510762076307F8
:106F320010F429E57ED0480C591C01E0401600E20D
:106F4200500610F02AE575D08401FC013A2FD301D6
:106F52000E94DEE0EAE00C9468250E945625490171
:106F62003A012B015ED0AA24880D991DA31FB31FDD
:106F7200672B11F42DE6EED04ED010F42EE659D048
:106F820040E054E445D0040D151D2A1D3A1D40175A
:106F92005107A206A30610F42FE64BD0840C951CD1
:106FA20001E0801600E2900610F020E742D0082FA0
:106FB20010E020E031E0281B30402415350510F4A4
:106FC200490101C04201B301A40105C04201B3015C
:106FD200A40100E010E020E030E00E94E8DF18D0D9
:106FE2000E9469E048185908880D991DAA1DBA1D0A
:106FF200680C791C042D052941F001E04016500669
:1070020028F3882499249394E2CFEBE00C9467252B
:107012008C019D01089528D0081719072A073B07FC
:10702200089580E094E0A0E0B0E08ED0910FA21F1E
:10703200089530E08FC00E945C25F3DF15D0003048
:1070420019072A07304010F420E9F3DF00E2402E4E
:10705200DFDF0E945DE080509F4FAF4FBF4F4A94E9
:10706200B9F7E5E00C946D250FEF13E420E030E072
:1070720008950E9455256097002EC9015A014B01BF
:1070820000E014E0280166247724002D5DD0510E23
:10709200621EA0E0480E591E631E731E672B11F478
:1070A20026EA58D0E1DF041515052605370510F448
:1070B20027EABFDF40E054E482019301080D191D65
:1070C2002A1F3A1F40175107A207A30710F428EA04
:1070D200B0DF880D991D8130904240F029EAA9DF86
:1070E20005C0881A990A480E591E631E082D0929DF
:1070F20031F101E1801600E0900618F080E190E0A5
:1071020001C0C4018C01F201362DDE010E94DEE0D5
:1071120020E001C0239530E02817390710F70A2D27
:107122000B2921F0F50101915F0101C00FEFFE0172
:10713200E20FF31F3081301769F300E001C001E074
:107142006096ECE00C94662510E020E030E04DE023
:107152000C94AC2407EC12E00C94B438BA0140E071
:1071620050E087CFFECF089508950895BA93AA9369
:107172002297A9E0BBE000910C0B0023C9F09E010D
:1071820001E21CD09E012F5F3F4F0DE117D0088115
:10719200023071F40981002359F405EE18E320E06E
:1071A2000D931D932C931A978D010E94DAC502C08C
:1071B2000E9417D52296A991B991089510E00C94D6
:1071C200673D00910C0B089508950C9497DF0E947F
:1071D2005B25502ED9016AD0452D64D0402E00E4A3
:1071E200501608F026D09D01052DA1D00023F1F400
:1071F2009D010DE01BE00E94063A002371F448E075
:1072020050E020E030E08D010E5F1F4F0E940CE144
:107212009D010DE01BE00E94A939A80FB91FFD01D5
:1072220002810429028339D004290283E6E00C9406
:107232006C2503E010E8EEE1FBE0008311830C947F
:10724200793A0E945B25B02F290130D04B2F2AD0EA
:10725200A02FB03408F0EDDF92010B2F68D000238D
:10726200D9F00A2F0095480E591EF20112811023FF
:107272001283EDE0FBE007C0F801E80FF91F22815D
:107282002A2351F4F80100811181202F212BA1F72B
:10729200A09503D00A230283C9CFFC01E35FF44F18
:1072A20002810895477001E00C942D2406950695FD
:1072B2000695802F90E008950E945925A02F39014C
:1072C200F5DF4A2FEFDFB02FA03410F004E0B2DF79
:1072D200E4DF0B2319F1EDE0FBE01BC0F201E80F44
:1072E200F91F02810B23A1F0F201428553856485C7
:1072F20040305040604011F405E09CDF372DF20130
:10730200028513852485F8012CBF262D0A2F199595
:10731200F20140805180042D052901F7E8E00C9428
:107322006A250BD0F0E0E02FE35FF44F0BC005D0ED
:1073320010E0200F311FF90105C0402F0695069578
:1073420006950895028147700E94322401700895C3
:107352000E945D25C801D90158D0002300E049F000
:1073620010E8EEE1FBE0008311830E945F3A00E047
:1073720011C00D930C931197FC0100811181012B17
:1073820031F0008102C00081132F16D0E1F7A083F3
:10739200B18301E0E4E00C946E25BD010DD041F013
:1073A2002081D9014D915C9140835183890102C0B2
:1073B20000E010E0DB010895F80120813181232BE8
:1073C2000895BD01422F432BF1F0F8014081518114
:1073D2004217530731F4DA012D913C912083318316
:1073E20010C0FA0101C0F8010E2F0F2B61F00081CD
:1073F200118102171307B9F7D8010D911C9100836F
:10740200118301E001C000E0D5CFF80100811181B4
:10741200402F412B29F002171307B9F701E0089515
:1074220000E008950CEC12E00C94C744F8010281CC
:107432001381202F212B09F425D00E94D4E101E0F1
:107442000093D3020CED12E00C944AD8BA93AA939B
:10745200A9EDB2E00091D302002389F00CED12E015
:107462000E946FD807E11AE320E00D931D932C933D
:107472001F9700E00093D3028D010E94C744A99197
:10748200B99108959A938A930E9492D8C8010E9452
:10749200A84F20E032E0239FF801E00DF11D40816A
:1074A20051818427952723952430A8F38C01899153
:1074B200999108950CED12E00C946FD802D002E07D
:1074C20003C0E7E1FBE0089510E000831183078128
:1074D20010850283138344815581668100E0403028
:1074E2005007600721F08F01FA016CBF19950895CA
:1074F200E8DF03E0E9CFBA93AA93F801218332834C
:107502004F3748F001E010E8EEE1FBE00083118321
:107512000E945F3A1EC010811170440F142B108319
:1075220051870A8100FB008100F900836383748321
:10753200A181B28134E003C000E013960D93018172
:10754200128120812695239F000D111DA017B107DE
:1075520098F3A991B991229608950E945A25D801CB
:107562002901642E80E090E03FD0FD01218132812B
:1075720089010AC0582F592B21F0FC01538145176C
:1075820008F4C8010C5F1F4F4C91469554E0459F8B
:10759200A90169D070F4F8014381442359F3608151
:1075A20071816415750531F75281561519F700E09E
:1075B20018C00C9100FD09C0082F092B21F0FC0115
:1075C2000381002329F002E00CC0082F092B41F0AF
:1075D200FC01408251826282FD010185FC0103832C
:1075E20001E0E7E00C946B250E945B2528010E94D4
:1075F20092D8C801D901F20145815681678170850F
:10760200041B150B260B370B4381548160E070E09D
:107612000E94B6240F3F10402040304020F4202F1B
:10762200002311F41DC02FEFE42D0181128164E0CB
:1076320005C03381341B33830C5F1F4FF20141813C
:10764200528130813695369F0ED030F4F801438155
:10765200241778F7422FEDCF85839683A783B087CF
:10766200E6E00C946C25400D511D04171507089592
:107672000C94273A08950E9437D60E94E63D0023D3
:1076820011F402E008952FB7F89418D0006116A7FC
:1076920005A72FBF01E0089516D020E030E00BE2ED
:1076A2000E945D3908D011F40E94B73804D009F065
:1076B200F1CF00E0089502D0012B0895EAEEF2E046
:1076C20005A516A50895BA93AA9320E0EAEEF2E082
:1076D200422F01E010E00E944F2447A550A965A562
:1076E20076A54623572340235123452B59F13FB713
:1076F200F8940095109545A556A54023512345A71A
:1077020056A73FBF022F10E043E050E00E944524FD
:10771200E00FF11FDF014D915D916C9112974030A6
:107722005040604041F406E010E8EEE1FBE00083E7
:1077320011830E94793A0D911D912C91F8012CBF71
:10774200199503C023952F3018F2A991B991089584
:107752000E9459253801422ECA01DB011CD000E0EB
:10776200F3010083438687839087A187B2870885C8
:1077720019852A85048715872687EBE00C946A25EC
:10778200F8012081222331F421E020830F5F1F4F73
:107792000E944AD80895F8012081213031F420E076
:1077A20020830F5F1F4F0E946FD808952ED000FFD5
:1077B20005C000810E7F00830E941D3C26D001FF80
:1077C20005C000810D7F00830E94AB3C1ED002FFEA
:1077D20005C000810B7F00830E94D33C16D003FFBB
:1077E20005C00081077F00830E94FA3C0091200BB4
:1077F200002351F02FB7F894E7E1F3E00081118103
:107802001160118300832FBF0895E0E2FBE0008145
:107812000895A991B9910895E0E2FBE00081016029
:1078220000832FB7F894E7E1F3E000811181116042
:10783200118300832FBF089523D0FD01078101FF2B
:107842000BC007810D7F07830781046007834D9179
:107852005D916C9112971CD0FD01078102FF0FC050
:10786200649B0CC007810B7F078307810E7F078310
:107872004381548165810CD008D001C0CDDFC9CFCE
:10788200BA93AA93A1E2BBE0089504E00C9463DCEE
:1078920000E040305007600721F001E0FA016CBFC0
:1078A200199508952FB7F89400E00EBB01E00ABDC8
:1078B20000E00BBD00E50093750002E00BBDEF9305
:1078C200FF933F93EBB5FAB531E237BF34913EBB3C
:1078D2003F91FF91EF913EB3F0E0E02FE95DF44F6D
:1078E200308303950A3050F300E4009375002FBFF4
:1078F20008959A938A93C801012B19F40FEF1FEF91
:107902000AC0D0DFE9E2FBE08C0148E050E00E94CF
:10791200322500E010E0899199910895249A00E0BF
:1079220007C0FCDF00E00895002309F42C980895B5
:10793200002309F42C9A0895002321F400E115B1E3
:10794200102715B908952CC02BC0E1E3FBE016D037
:1079520002601BC0E1E3FBE03ED011F403E02ED055
:1079620020E030E001E0E1E3FBE02FD0199418C001
:1079720017C0E4E3FBE002D0046007C00083118378
:107982002283E0E2FBE00081089500832FB7F894A0
:10799200E7E1F3E0008111811160118300832FBFC1
:1079A20000E00895E4E3FBE016D011F404E006D011
:1079B20020E030E001E0E4E3FBE0D7CF10E9EEE1C4
:1079C200FBE0008311830C94793A408151816281FA
:1079D200FA016CBF0895408151816281403050406C
:1079E20060400895DDCFDCCFE7E3FBE0C7DF08604E
:1079F200CCCFE7E3FBE0EFDF11F405E0DFDF00E0EF
:107A020010E0E7E3FBE0B1CFBA93AA93AAE3BBE0AD
:107A120049E350E020E030E08D010E940CE101E0FA
:107A220010E091960D931D931D931D931D931D932D
:107A32001D931C9305E00093650B01E000936D0B11
:107A420007E00093660B07E8E6E7FBE430E0A3E714
:107A5200BBE023D003E110E0EDEFFBE430E0AAEF5E
:107A6200BBE01BD003E010E0E0E1FCE430E0ADE07D
:107A7200BCE013D008E410E0E3E1FCE430E0A0E174
:107A8200BCE00BD044E45DE020E030E008E51CE01F
:107A92000E940CE1A991B99108950C94DEE00E9434
:107AA200053D0C9497314DD0B12FC9010CD0A0E007
:107AB200A030B24011F006E048D008811981FC01E3
:107AC2000083118331C098018E0146C033D011F476
:107AD20000E03BD0E0E0F92F309621F0E050F14099
:107AE20049F010C04B815C81288139818D010E944F
:107AF200D1E00AC00B811C81E881F9813A810E94A0
:107B0200DEE002C001E021D00FC014D011F404E085
:107B12001CD0992311F005E018D04B815C819D01A6
:107B2200088119810E94D1E002D00C946E2525961D
:107B3200E4E0089506D0912FD901C5DF0A2F0B2B5F
:107B420008950E945D252597089510E6EEE1FBE079
:107B5200008311830C94793AF4DFC801D901FE0144
:107B620040E025E041932A95E9F74A2F50E02AD0D8
:107B72000E944524A801A0E0109639F0A050B1401F
:107B820049F0A050B14059F014C01CD0EDE8FCE41B
:107B920030E009C017D0E8E1FEE430E004C012D0C2
:107BA200E3E0FFE430E0E40FF51FDE010E94DEE0D7
:107BB20002C00AE0CADF8C01FE0145E050E00E94EB
:107BC2003225B2CF05E010E00895E9E3F1E000814B
:107BD200016000830AE00E943DD108E00093420167
:107BE200009141010F710830D9F70E947BD60E94A3
:107BF20077D60E9476D601E008959A938A9382E01E
:107C02000091671A013019F401E000939C19009168
:107C1200671A002389F400E0009347019FB7F894A4
:107C22002CE830E001E00E947FD69FBF002329F0BC
:107C320000E00093651A01C081E0082F89919991B3
:107C420008950E945C25B02FA0E080E00E9440448D
:107C5200402E0091671A013019F401E000939C193B
:107C62000091671A0023C1F59B2FB33009F498E005
:107C72003CD0013169F40E9499D624E630E000E05C
:107C82000E947FD602E00093651A2CD001E027C043
:107C92002CD0083011F004E001C009E00093420149
:107CA20024D0093029F4B93151F40E9479D609C09F
:107CB2000EE60E943DD18395833090F30EC00E9460
:107CC20078D6B093420111D09017E9F79093661AD3
:107CD2000FEF00934F0101C0A1E004D00A2FE5E0AD
:107CE2000C946D25042D0C943D44009141010F71BB
:107CF2000895F80140814A952091410120E00BC08E
:107D020030E0F801E20FF31F3081E22FF0E0E0589B
:107D1200FE4F30832395241798F302E0009342012B
:107D220008950E945D25219780E02091671A2130F5
:107D320019F421E020939C192091671A222309F05B
:107D4200B6C0D8011196F8010081045809F461C047
:107D52000C5609F49CC0025009F491C00E5091F0E7
:107D6200025099F10A9509F448C00C5409F467C00D
:107D72000A9509F454C0035009F459C00C5109F48E
:107D820064C096C09091480100914801007E118123
:107D92001F71012B00934801A5D09BD061F408818B
:107DA20096D0109145011F70101710F497D08AD009
:107DB2000E94EC3F7DC09F719A3109F079C00E9408
:107DC200EE3F8CD000919E190FC00C9180D0009391
:107DD2009E190F70902F7DD049F484D008811C9198
:107DE200011724F474D07AD06DD062C0009145019D
:107DF200007F092B009345015BC0109148011F7958
:107E020001810295007F000F0076102B109348012C
:107E12004FC00091490151D00093490149C0FD0171
:107E220000810093620101810093630141C0FD0161
:107E320000810093600101810093610139C00091CA
:107E42006F013BD000936F0133C0FD0100810093AD
:107E5200640101810093650102810093660103813F
:107E62000093670104810093680105810093690111
:107E7200068100936A01078100936B0119C0018199
:107E8200EEE6F1E000FB008103F9008311C00181FD
:107E9200002329F00E94404400939D1909C00FEF6E
:107EA20000934F0100919D190E943D4401C081E061
:107EB200082F2196E4E00C946E25007F11811F703B
:107EC200012B08950F70102B1093450108950C9407
:107ED2003740009148010F710A3108951091450110
:107EE200107F08959E010CE410E00C94673D2997E1
:107EF200E9E3F1E0008101600083009141010F712B
:107F02000830D9F700E000939C190093671A08E043
:107F12000093661A0E9477D60E9476D6EEE6F1E0CA
:107F2200008100620083EEE400810860008300812A
:107F3200006400830091670B098300E028D0009160
:107F42006C0B098302E023D000916D0B098303E0DF
:107F52001ED00091660B098304E819D000916E0BC4
:107F6200098304E014D0ECE4F1E0008100680083AE
:107F7200ECE600810F7000830081017F00830E9484
:107F8200A84FF801008100936D0129960895088396
:107F92008E010C94923E012F089511D071F400319C
:107FA20011F401E001C000E0209144012F7E02950E
:107FB200007F202B2093440101C011E0ECCF10E0A0
:107FC2002091671A213019F421E020939C19209105
:107FD200671A2223089500E1E0CF00E0FDCF0230CE
:107FE20011F00130B9F420914D012C7F102F137044
:0E7FF200212B20934D01EDE4F1E0108114608D
:10800000108310911B03187F000F0670102B109324
:108010001B0300E008950FEF089510914D011370B8
:1080200000911B03077E110F110F110F012B0093FD
:108030001B03089500911B03069506950695037092
:10804000089500914D0107FF02C001E001C002E068
:1080500010911B031F790295007F000F102B1093C6
:108060001B0310FD03C0116010931B03089516E05D
:10807000033014F010E035C0023011F412E031C0CA
:10808000013011F414E02DC0002359F10F3F11F419
:1080900017E027C00E3F11F418E023C00D3F11F484
:1080A00019E01FC00C3F11F41AE01BC00B3F11F088
:1080B0000A3F11F41BE015C0093F11F0083F11F40D
:1080C0001CE00FC0073F11F0063F11F41DE009C08E
:1080D000202F225F243010F41EE003C0023F0CF476
:1080E0001FE0012F08950E945D25D80180E00E94C5
:1080F0004044902F0091671A013019F401E0009379
:108100009C190091671A002341F510915101107FCD
:10811000FD0103810F70102B10935101038104FFA7
:1081200002C001E001C000E0E1E5F1E000FB0081F8
:1081300004F9008305E00E943DD10091510105FF43
:1081400008C0FD018483E1E5F1E000810064008363
:1081500005C001E0FD01048301C081E0092F0E94F8
:108160003D44082FE4E00C946E250E945825380108
:1081700055240E944044902F0091671A013019F451
:1081800001E000939C190091671A002309F067C071
:1081900044247DD0013169F40E9499D624E630E070
:1081A00000E00E947FD602E00093651A6DD001E0E6
:1081B00068C0EDE4F1E0B081B3FBB0E0B0F900815C
:1081C000077F0083809141018F716BD0883019F453
:1081D0000BE90E943DD15FD006E064D058D0063054
:1081E000E9F7A0E01FC004E0802E01E00E943DD12D
:1081F000440C440C0091460102950F7006950370E3
:10820000402A8A9491F7F30101851285202F212BB2
:1082100021F00A0F151DF8014082F30133854386D2
:108220003487A395F3010085A017E8F200914D0172
:10823000077FBB0FBB0FBB0F0B2B00934D0188308B
:1082400041F02FD028D006E12DD021D00631E9F71A
:1082500007C008E027D00FEF00934F0101C05394EF
:10826000F3010781002359F0EFE4F1E0008103FFFF
:1082700006C0008108600083008103FDFDCF04D0AB
:10828000052DE9E00C946925092F0C943D440091DB
:1082900041010F710895009141010F710930D9F723
:1082A000089509E00093420108958A9380E00E94B6
:1082B00040441091671A113019F411E010939C1981
:1082C0001091671A112349F52ED0183041F023E0A0
:1082D00020934201209141012F712830D9F7E8E520
:1082E000F1E0208120682083208127FDFDCF183018
:1082F00069F019E01093420116D01930E9F716E140
:108300001093420110D01631E9F703C018E0109322
:1083100042011FEF10934F0101C081E00E943D44D4
:10832000082F89910895109141011F7108951DD062
:1083300039F4FC0115812381F481E22F108301C0FF
:10834000A1E00ED00C946F2510D041F4FC012381E4
:10835000F481E22F1081FC01128701C0A1E0F1CF6E
:108360000E943D440A2FE3E008950E945E25C80163
:10837000A0E00E9440441091671A113019F411E0F6
:1083800010939C191091671A112308950D01BC01D7
:10839000F901108300E0D9011196412F50E0812F9F
:1083A00090E00196E02FF0E0E058FE4F10811D9321
:1083B000039508175907B4F3240F351F0091681A65
:1083C0000B55F90102830091691A0383CB01D00197
:1083D00008954A92BA93AA939A938A9344240E9446
:1083E000214005E020918001122F1370133009F015
:1083F0005AC026FB0EF007E02091810126952695B4
:10840000122F1370123011F40E5F07C0133011F4E5
:10841000085F03C0113009F446C022952F70223046
:1084200019F4102F1E5F04C02330E9F5102F185FD8
:10843000E12FF0E0E058FE4F30813430A1F51D5FB0
:1084400030917B01131779F54394E02FF0E0E05869
:10845000FE4F223019F4008141810EC0408101811C
:10846000400F0281400F0381400F0481400F0581BE
:10847000400F0681400F0781400F042F0695069597
:108480000695F0E0E02FE259F54E008147700E941A
:108490003224017041F4EEE6F1E000810F7D0083AB
:1084A0004092691A03C000E00093691A0091661AAD
:1084B00001E00093671A009147010093681A209128
:1084C0007B01322F3C5F0CE0409E8DEC99E1800DEA
:1084D000911DFC01E358FF4F4481558110E06081FC
:1084E000718146175707C1F4608571850284138432
:1084F000061A170A301511057CF462837383A08570
:10850000B1853D93A087B18760857B2F462F430FB0
:10851000B11F4087B18716C066817781641B750BD8
:10852000361717070CF073C042835383A481B581BB
:108530003D93A483B58364817B2F462F430FB11FE6
:108540004483B583AB01042F052B09F460C0122FBF
:108550009A01042D1BDF00E081589F4FFC0100832E
:108560000183ECE4F1E000810F77008302E00E94D8
:108570003DD1ECE4F1E0008100680083009141010D
:108580000F71063111F5EEE6008100620083009163
:108590009C190023B9F02FB7F89400912003002311
:1085A00069F43FB7F894E7E1F3E0008111810160DD
:1085B000118300833FBF01E0009320032FBF00E041
:1085C00000939C1900E00093671A00912203109118
:1085D000230340FA16F4016001C0026000932203F5
:1085E000109323032FB7F89400912003002369F41C
:1085F0003FB7F894E7E1F3E0008111810160118356
:1086000000833FBF01E0009320032FBF37C00091DC
:108610009C190023B9F02FB7F89400912003002390
:1086200069F43FB7F894E7E1F3E00081118101605C
:10863000118300833FBF01E0009320032FBF00E0C0
:1086400000939C1900E00093671A04E00093420134
:1086500006E1009342010091661AECE4F1E000812A
:108660000F77008302E00E943DD1ECE4F1E000814D
:1086700000680083EEE60081006200838991999191
:10868000A991B991499008956A925A924A929A93FF
:108690008A930E940D40009141010F71093109F048
:1086A0009DC02091C7194090520B00914201029544
:1086B0000F70069500939F190091641A033009F416
:1086C00008E01091641A10934201109141011F714A
:1086D0000117D9F70093661A00919F19033029F00A
:1086E00000919F19053009F05CC0222309F459C09C
:1086F0005524421A55088091C4199091C5190CE46B
:108700001DE120E030E0652C660C660848EE53E081
:108710002224569D702D469D700D559D602D710D26
:10872000469D600D711D549D502D610D721F459D1C
:10873000500D611D721F449D510D621F721F001963
:10874000150B260B370B389F302D299F300D289F96
:10875000202D310D199F200D311D189F102D210D39
:10876000321D099F100D211D321D089F110D221D64
:10877000321DC90102E0400E521C08EE13E0149DA8
:10878000102D059D100D049D110D800D911F0E944F
:1087900099D69C0101E00E947FD603E00093651A00
:1087A00045C000E00093C619E2E2F3E000810860F2
:1087B00000832FB7F89400912003002369F43FB79A
:1087C000F894E7E1F3E000811181016011830083F7
:1087D0003FBF01E0009320032FBF28C0009141015B
:1087E0000F71063119F5EEE6F1E0008100620083B9
:1087F00000919C190023B9F02FB7F8940091200341
:10880000002369F43FB7F894E7E1F3E000811181B8
:108810000160118300833FBF01E0009320032FBF5D
:1088200000E000939C1900E00093671A89919991E8
:108830004990599069900895E1E5F1E000810F7B3E
:108840000083F093CC19E2E2F3E00081046000833E
:108850002FB7F89400912003002369F43FB7F894F0
:10886000E7E1F3E0008111810160118300833FBFE4
:1088700001E0009320032FBF089500934E01089557
:1088800000914E0110E010934E01089500919F1940
:108890000A9559F00A9559F00A9529F0025039F0D5
:1088A000025029F006C001E0089500E0089502E0BA
:1088B000089503E008950091651A0050F9F10A95B2
:1088C00031F00A9599F10A9509F456C0089500917E
:1088D00041010F71093009F051C0EEE6F1E000816D
:1088E000006200830E9499D606E100934201009144
:1088F0009C190023B9F02FB7F894009120030023AE
:1089000069F43FB7F894E7E1F3E000811181016079
:10891000118300833FBF01E0009320032FBF00E0DD
:1089200000939C1900E00093671A0895009141019B
:108930000F71063119F50E9499D609C000914701BF
:108940000093C819E2E2F3E00081006400832FB7CE
:10895000F89400912003002369F43FB7F894E7E10D
:10896000F3E0008111810160118300833FBF01E0CA
:10897000009320032FBF08950E942B49089520E003
:108980000DC021E00BC022E009C023E007C008D0E1
:1089900020E02187228722E0208701C002D0BDC0CD
:1089A00025E0F801228308958A93219700E0ECE105
:1089B000F3E0008301830E94454B8FB7F8940ED0FB
:1089C00011F402E001C000E00093210300E07ED03A
:1089D000008301838FBF2196899108958E010E94A3
:1089E0001446002308950E945D25229780E09FB7DA
:1089F000F894ACE1B3E080932003F0DF41F0009104
:108A00002103023011F48093210381E00AC061D078
:108A1000009510955BD02081318120233123208364
:108A200031839FBF882309F04DC001E000932103EB
:108A300008810A30D1F48D919C91119702C08081F8
:108A40009181082F092BA1F0FD0102811381FC0106
:108A500042810E945424017091F39C018D010E9477
:108A6000E2399E018C0164D001C0A8D00023E9F452
:108A70008E010F5F1F4FB3DF51F42FB741D009F5BF
:108A80003FB742D03FBF01E0009320031AC00091DE
:108A9000C6190023B9F40D911C91012B11F01ED0C1
:108AA00011C000E0009321030DC0013059F42FB72D
:108AB000F8940FD00BD040815181402B512B408333
:108AC00051832FBF2296E4E00C946E25E2E2F3E09E
:108AD0000895488101E010E00C944F242FB7F894DA
:108AE000F5DF0181046001833FB70AD031F44FB74D
:108AF0000BD04FBF01E0009320033FBF2FBF08956D
:108B0000F894009120036DCFF894E7E1F3E0008141
:108B10001181016011830083089598010CE113E035
:108B20000E94A93900912103002309F4D7DF089599
:108B3000BA93AA93F801D90100E01281112389F0B8
:108B40001A95A1F01A95B9F01A95D1F01A95E9F095
:108B50001A9501F11A9519F11A9539F11A9529F119
:108B60002AC08F010E94C04813E01DC08F010E94DF
:108B7000864814E018C08F010E948D4A15E013C08A
:108B80008F010E94664916E00EC08F010E94884B3B
:108B900012E009C08F010E94D24B18E004C08F017F
:108BA0000E940A4C19E01C9306C08F010E94464C9B
:108BB0001BE0FD011083A991B991089510E00023F5
:108BC00099F00A95A1F00A9509F10A9599F00A958C
:108BD000A1F00A95A9F00A95B1F00250D1F00A95DA
:108BE000D9F00250E1F01EC00E940A4A1AC00E9449
:108BF0000D4A17C00E94E54814C00E94A54811C044
:108C00000E94E74A0EC00E9477490BC00E94A44B05
:108C100008C00E94EE4B05C00E94284C02C00E9472
:108C20007D4C102F012F08955B2F0A2ED80131E0C3
:108C3000E2E2F3E000811181012BB1F020E06081DC
:108C400071810281138160237123422F01E010E0C2
:108C50000E944F2460237123672B19F02C9330E07E
:108C600003C023952C3058F3032FA02DB52F089562
:108C700005D2D801290128D22F5F3F4F0F5F1F4F28
:108C800010D1F2010381FD0103830181077029F0F6
:108C90000A9529F0025029F0D6C001E003C002E095
:108CA00001C000E00C93728124E0072F029F012D88
:108CB000013009F4C8C0769576957370672F7130CE
:108CC00009F4C1C0A2014C5F5F4F9D012A5FACD186
:108CD0000C5FD9D00C5F802FFD01628104E0609FA2
:108CE000612D018106FF05C064600481158106873E
:108CF000178790E0A201480F591F9D01205F94D172
:108D0000025FC1D0800FF201E80FF91F0C91002320
:108D100009F048C083959201280F391F00810A95F8
:108D200079F00A9591F00A95C1F00A95E9F00A9553
:108D3000E9F00A95E9F00A95E9F00A95F1F083C0A7
:108D400004E00C9341E0A9D075C005E00C93BCD1C0
:108D50008D01085EA8D0028F23C006E00C93F901B4
:108D60000081FD01008F1CC007E005C008E003C0C2
:108D700009E001C00AE00C935DC00BE00C9342E0F7
:108D80008CD08E5F97D0065E8ED0048F839592D064
:108D9000035E7BD0FD0131D109F04CC086D0078F36
:108DA000839548C00130E9F58FD19F018D01075EA1
:108DB0006CD041E080D0055E6CD0038D077091F0DF
:108DC00074D0048F839500E008C09201280F391FEA
:108DD0000FD1258F368F8D5F0395FD01138D177091
:108DE000011798F341E067D0055D53D003A50770E4
:108DF00041F042D004A715A703A50770000F800F0C
:108E000002C094A795A703A50295077041F034D03E
:108E100006A717A703A506950873800F02C096A79B
:108E200097A72ED00250081B0395FD0102AB24D05A
:108E300000AB11AB25D010E0E02FF0E032970197A6
:108E4000E817F90714F400E014C0F201E00FF11F75
:108E50000181FD0103AB14D0E00FF11F0281FD0180
:108E600004AB0ED0400E511EF2010381FD0105AB93
:108E700001E0E6E00C946C258201080F191F0895AB
:108E8000F201008108951F4FD8C01F4F0AD08E5F96
:108E9000089506D08395FD01089550E08D01085E88
:108EA0001F4F0C94D1E0FCDF8E5FF201E80FF91F39
:108EB0000081F1CF42E050E09201280F351F8D0173
:108EC00008950E945C25C801F80100810A9539F0D7
:108ED0000A9529F0025080F0085020F00DC002A938
:108EE000002351F402EC19E100AB11AB03EC19E1E2
:108EF00000AB11AB00E002ABA0A9B1A94A2E0081E2
:108F00000A9589F0035029F10A9539F10A9551F132
:108F10000A9561F10A9561F10A9561F10A9561F18D
:108F20000A9561F13AC0038D077071F000E005C049
:108F300013975ED0158D1C930395FC01138D17704C
:108F40000117B0F3048D0E93038D5FD0275E73D0AD
:108F500024C0008D0E9301E01FC0028D0E9366D0D9
:108F600002E01AC0008D0E9303E016C004E014C0A6
:108F700005E012C006E010C007E00EC03ED011F4BC
:108F8000078D0E9343D0235E56D0FC01048D3DD057
:108F9000265E51D04BD008E00E93FC01028124E004
:108FA000029F012D118116FF03C00460602F01C0D4
:108FB000612DAC01405F5F4F9C01225F2CD062812C
:108FC000669566956370AC014A5F5F4F9C012C5FAC
:108FD00022D003811AD02F5F2ED04A1AFC0112A989
:108FE000410E042D0E5F0E938D01E5E00C946D256E
:108FF00012E0019FE00DF11D08950281069506958E
:10900000069506950370013008950E93129742E07D
:1090100050E09C01089508D035D010E00195104033
:10902000A00FB11FFC0108953F4F49CF129742E0B6
:1090300050E09C01285EF8DF34CF20D02901CA011E
:10904000A0E030E062FB0EF431E06B7F625019F07B
:109050006A9519F011C0A2E001C0A8E020E0332316
:1090600021F4D5DF1EDFAE5F22E04A2F50E030E072
:10907000280F391F820115DF0A2FFBCE0C945B25C8
:109080008D010FCFFBDFD80129019A0180E090E02C
:1090900062FB0EF491E06B7F625019F06A9531F03B
:1090A00011C0129711D0ECDF82E005C0189748E09C
:1090B00050E0E6DF88E0992329F406D09201129768
:1090C0008D01E4DE082FD5CE42E050E008951093E4
:1090D000C31902D00C94223E13E001C018E0002313
:1090E00019F00A9519F003C019E101C016E1012F2A
:1090F000089518E0085041F00E5021F0035029F473
:1091000010E003C011E001C012E0F1CF0E945D2524
:10911000D80180E09091661AF80103810E946E48A0
:10912000901729F014E0FD01038121D031F4FD01F5
:1091300004811581268120D004C0E0EAF9E1A083F2
:10914000B183082FE4E00C946E250E945D25E0EACF
:10915000F9E1A081B18114E013960C91139707D027
:1091600029F414960D911D912C9106D0EACF0E94FE
:109170006748802F00230895F8012CBF19940895A3
:10918000BA93AA93D801D9960C91D9970E946C48AA
:109190000093641AE0EAF9E1A083B1830091520BD5
:1091A0000093C7190E9415E1E4ECF9E100831183F3
:1091B0000091661A093119F48D017ED003C001E0D7
:1091C000028339D0A991B99108950E945D25229713
:1091D00080E0E0EAF9E1A081B1810091C619013097
:1091E00021F429D0802F002309F50E941A400E9403
:1091F000F03F00E0088309830E944644FD0105AF6B
:109200008D01035C1F4F42AD53AD64ADFA016CBFDD
:1092100019952091520B30E00091C719201B304066
:10922000288339839E010DE30E945D39082F229621
:10923000E4E00C946E258D0104C000E00093C61993
:1092400008959A938A93C80131D011F48C0134D0D7
:10925000899199910895299703E008838E010E94CE
:109260001C4E0981033021F40E944644013029F04C
:10927000E4ECF9E103810A9503830E947AD616D0C3
:1092800059F402E00093C619E0EAF9E10081118186
:1092900019D00E947A3E08C001E00093C619E2E2AC
:1092A000F3E00081086000832996089513E000E050
:1092B0000E9467480023089522E02093C61902D037
:1092C0000C947A3E0D5F1F4F0C9461479A938A93DA
:1092D000C80100E01091661A163131F40E94FE3D7B
:1092E000E0EAF9E180839183899199910895BA9395
:1092F000AA93A0EAB9E1ED91FC910091C819068307
:109300008F010A5F1F4F438154816581FA016CBF51
:10931000199500E0A991B99108950895F801408147
:109320005181448355834683578340875187420F39
:10933000531F4287538720E0228323830895229777
:109340002AE43AE100E010D000E013D00AE41AE188
:10935000E5DF26E53AE103E207D00EE20AD006E5B2
:109360001AE1DCDF2296089512E00E94543D9E012E
:10937000089511E00E94673D28813981089544D005
:10938000F801E05BF54E008111810F5F1F4F0895DA
:10939000BD0134D00FB7F89426813781D9014C91A3
:1093A000240F351F2F5F3F4F268337835C93268121
:1093B0003781408551852417350761F42481358133
:1093C0002087318720813181248335832081318139
:1093D000268337830FBFDB0108959D010FD0A6813F
:1093E000B78102811381A017B10729F00C910023E6
:1093F00011F001E001C000E0D9010895EAE4FAE1CA
:1094000003D0E00FF11F0895402F50E00CE010E072
:109410000C9445248A9301E002C08A9300E02CD08A
:10942000802F03D0082F8991089501E05FD029F0A3
:10943000E2E2F3E00081016009D000E057D029F0BA
:10944000E2E2F3E00081026001D0089500832FB7CB
:10945000F89400912003002369F43FB7F894E7E102
:10946000F3E0008111810160118300833FBF01E0BF
:10947000009320032FBF08950E945B25E697802F5D
:1094800035D079F1082F0E94BF492801F8010081E9
:1094900010E0D201A00FB11FFD01128101812AD07D
:1094A000FD01018392018E010E9438460023B1F034
:1094B00009811A8107761C70012B19F40091670B42
:1094C000088FE9E1F3E000810E7F00838E010E94A6
:1094D000305AE9E1F3E0008101600083082F0E9427
:1094E000C84900E0E696E6E00C946C250E94ED4940
:1094F00000230895113210F010E203C0112309F483
:1095000011E024E0029F119E0FEF10E0A0010E94E5
:10951000452440E650E00C945C240E945D25D8016F
:1095200080E000E030E0EA2FF12F2381122F145861
:10953000A1F01C5698F0135080F01D5071F012509D
:1095400068F0135050F0195448F0135030F0125096
:1095500021F0165011F0165109F431E01091C9199B
:109560003323A1F0213F59F424813091CB192317E3
:1095700061F02093CB1925D041F411E007C02935C3
:1095800021F01FD019F412E001C001E01093C919B5
:10959000112329F4002339F48D0165D001C02AD0AC
:1095A000802F882331F4FD010485158526851FD081
:1095B00004C0E0EAF9E1A083B183082FE4E00C9451
:1095C0006E252091661A2093CA19263108950E94AB
:1095D0005D25E0EAF9E1A081B1810CD0802F002364
:1095E00029F41C960D911D912C9101D0E6CFF80124
:1095F0002CBF19948D0106C000E00093C919009397
:10960000CB1908950E945C25C801B0E0A0E000914C
:10961000C919013015E039F401E020D039F4B093D4
:10962000C919B1E004C000E019D009F0A1E0BA2BDB
:1096300089F48C0118D0402E0091C919023051F4E0
:109640000091CA190E94794815E00E94674800E01D
:109650000093C919042DE5E00C946D250E9467481C
:10966000402E002308952997F801038108839E0165
:109670002F5F3F4F3496890148E050E00E94322529
:109680008E010E94923E2996089560970E94783F2D
:1096900002E0088700E00D870E870F8709870A8799
:1096A00001E00F838E010E94B5400B851C850E944E
:1096B000D4E10E949F490E948D490E94FC4A0E9469
:1096C000BF480E941D490E94CE4B0E94094C0E9437
:1096D000454C0EE408830091510B098316D00FE42A
:1096E00008830091530B098310D009E5088300918A
:1096F000520B09830AD000E504D003E502D060963E
:10970000089508830FEF09830A838E010C94923E1B
:109710000E945E25C801F801008511852285EAE6D0
:10972000FAE100831183228329D019F00A9521F0F0
:1097300007C02AD0199504C0E0EAF9E1808391833B
:109740000A2FE3E00C946F250E945E25A0E00091B3
:10975000CC19002341F4E0EAF9E1808191810ED037
:1097600061F412D009C0A093CC19EAE6FAE10081B5
:1097700011812281F8012CBF1995E2CF8C010E9442
:109780007340A02F002308958C010C5F1F4FFC0134
:10979000458156816781FA016CBF089500E000930E
:1097A000CC1908950E945E25C8010E94B540A02FE3
:1097B000002319F00A9551F00DC08C01075F1F4F6F
:1097C000FC0145855685678521D004C0E0EAF9E1B2
:1097D000808391830A2FE3E00C946F250E945D251E
:1097E000E0EAF9E1A081B1818D010E94B540802FAE
:1097F000002341F48D01075F1F4F1D964D915D9130
:109800006C9104D0082FE4E00C946E25FA016CBF33
:10981000199408950E945D25D80101E0EA2FF12FE7
:1098200006830A2F0E945541802F002319F00A95C4
:1098300039F00AC000E0FD0106838D011ED004C08E
:10984000E0EAF9E1A083B183082FE4E00C946E25EF
:109850000E945E25E0EAF9E1808191818C010E94FD
:109860005541A02F002329F400E0FC0106838C0160
:1098700004D00A2FE3E00C946F250A5F1F4F438149
:1098800054816581FA016CBF199408950E945D2589
:10989000D80180E0F801818703811481202F212BDA
:1098A00009F100341040F0F403811481005C1E4F74
:1098B000038314830281075019F00A9589F012C0BE
:1098C0003CD0802F082F882319F00A9571F011C021
:1098D00000E0FD0101878D01075F1F4F31D009C0F6
:1098E00029D0EFCF01E00187F3CFE0EAF9E1A083CF
:1098F000B183082FE4E00C946E250E945D2580E082
:10990000E0EAF9E1A081B181FD010281075019F07F
:109910000A9559F00CC011D0802F882329F48D01AD
:10992000075F1F4FFD010CD0E4CF04D0F5CF01E05D
:109930000187F5CF8D010C94A4418D010C949741C2
:10994000468157816085FA016CBF199424979E0166
:1099500019D013D0012B022B032B19F404EF11E0C3
:109960000AC014D040EC53E060E02AD0A80160E0C7
:1099700070E003D028D024960895088119812A81A7
:109980003B81089502E010E00C94673DEED110E0B9
:1099900020E030E008959A938A9310D0402F60E041
:1099A00020E030E0489F8001949F100D211D361F5C
:1099B00040EC53E005D0899199910895C801D5C133
:1099C00070E0F3D248EE0C94B624BA93AA93A8E6BA
:1099D000BBE00BE00093670B00E018EF2FEF37E0E0
:1099E0000D931D932D933C9314962CE63BE003E0DE
:1099F000CADF00916C0B88D22CE63BE003E019D162
:109A000000E000936E0B38D20D931C93D697A9D12A
:109A10000092710B4FD20093720B06E310E00D938E
:109A20001D931D931C93149610933E0B10933F0BA4
:109A300001E00093400B1D931C9313961093430B6E
:109A40000E9415E10093440B0FEF0D930D930D93BE
:109A50000D930D930D930D930C9311960D930C9301
:109A600016960E9415E100934F0B05E00093500BF2
:109A700004E00093510B03E00093520B0093530B4F
:109A80000FEF1FEF0D930C93149600E20093560B0B
:109A900000E00093570B0093580B1D931C93009309
:109AA000630B0093640B07D2A991B991089568D212
:109AB0002497D80180E00C91E0E0F0E0FBBFF4E4F3
:109AC0000C94E224AFD000933F0BA9C0AED0078323
:109AD0001087A5C0A7D0053308F09CC00093430BA6
:109AE0009EC0A0D00093440B9AC0119605E41BE0E1
:109AF00035C09BD0038B148B92C094D000934F0B36
:109B00008EC090D0063008F085C00093510B87C0FE
:109B10000091500BFD011181011708F47BC01093D7
:109B2000530B7DC082D0028F138F79C07BD00093FE
:109B3000570B75C07AD0078F10A371C073D01281F4
:109B40002ADF088319832A833B839E0102C0119672
:109B50009D0102E048C011960BE51BE0FD01F4D029
:109B60005EC060D000933E0B5AC05CD0083008F055
:109B700051C00093520B53C055D00093560B4FC0A9
:109B800051D00093500B4BC04DD0003108F042C073
:109B90000093660B44C046D00093640B40C00C9108
:109BA000002369F00A95C1F10A95A1F00A95E9F040
:109BB0000A9511F1015090F1035070F12FC0C8D0F7
:109BC000FD0141810E94B324017021F101810093C4
:109BD000670B1EC027D0005E0034E0F4018194D1F1
:109BE0002CE63BE003E025D01AC01CD0045090F4D2
:109BF000018100936D0B13C015D0035030F002505B
:109C000021F00F5011F0025029F4018100936E0BE6
:109C100052D105C088EE03C08BEF01C084EF082F3E
:109C20002496ABC1FD0101810895FD0101811281DE
:109C300020C110E00C94863DA3D1D80180E00C91A6
:109C4000EAECF0E0FBBFF4E40C94E22400913F0B5B
:109C50004BC00FD10781108522C00091430B44C037
:109C60000091440B41C0E5E4FBE022C002D103892E
:109C7000148915C000914F0B37C00091510B34C0AF
:109C80000091530B31C0F5D0028D138D08C00091A7
:109C9000570B2AC0EED0078D10A101C057DE5ED051
:109CA000128328C011969D016DDE24C0EBE5FBE018
:109CB00011968D0149D01EC000913E0B15C0009138
:109CC000520B12C00091560B0FC0FD01818312C0D0
:109CD000D0D0008111812281338140D0128323832F
:109CE000348308C00091500B39D004C00091660B3A
:109CF00035D084EF082F41C10091640BF5CFC1D05E
:109D0000ECCF0C91002369F00A95A1F00A9561F05F
:109D10000A9569F0025081F00A9581F00A9591F058
:109D2000E8CF0091670BE0CF00916C0BDDCF009185
:109D30006D0BDACF0DD0D1CF9FD0B1CF12D0FD01B6
:109D40000182D8CFB7D0D0CF48E050E00C94322574
:109D500090D006A517A520A931A90895FD0101837A
:109D60000895B9D015E0019F0895C9D049F0125067
:109D700071F0135079F01F5079F0125079F0089576
:109D800005A5002349F00B3028F409E1089505A545
:109D9000002321F000E1089502E3089508E2089508
