:020000020000FC
:100000000C9406240C943FD10C9442D10C9444D10E
:100010000C9449D10C944ED10C945CD10C9461D1C8
:100020000C9481D10C948BD10C948DD1189518958A
:10003000189518950C945ACE189518950C9484CE52
:100040001895189518951895189518951895189548
:100050001895189518951895189518951895189538
:100060000C94BCD30C9492D00C9484D00C9488D073
:10007000189518950C945BD30C940ED2189518957E
:100080001895189518951895189518951895189508
:100090000C94D0D00C94A2D00C94C3D00C94A9D1C1
:1000A00018951895189518950C9414D00C94D7D4CD
:1000B00018951895189518951895189518951895D8
:1000C00018951895189518951895189518951895C8
:1000D00018951895189518951895189518951895B8
:1000E00018951895189518951895189518951895A8
:1000F0000C9405D518951895189518950C9409D554
:100100001895189518951895189518951895189587
:100110001895189518951895189518950C9438D524
:100120001895189518951895189518951895189567
:05013000189518951858
:104400004001454C00824C0001D84B0001844C0017
:1044100001844C0001844C0001DC4B0001E04B00A6
:1044200001844C0001844C0001E74B0001EB4B0080
:1044300001EF4B0001F34B0001844C0001F74B00EE
:1044400001FE4B0001084C0001844C00010C4C00A3
:1044500001104C0001844C0001144C0001274C0059
:1044600001364C0001844C00012B4C0001324C0001
:1044700001824C0001824C0001824C0012214C0050
:1044800002844C0001844C0001844C0001844C00E7
:1044900001844C0001844C0001844C0001844C00D8
:1044A00001844C0001844C0001844C0001844C00C8
:1044B00001844C0001844C0002414C0001824C00FC
:1044C000021D4C00013A4C00FB004001F74C00DE9D
:1044D0004C00019C4C0001EF4C0001EF4C0001EF3F
:1044E0004C00019F4C0001A34C0002EF4C0001A6C0
:1044F0004C0001A94C0001AC4C0001B04C0001EF94
:104500004C0001B34C0001B64C0001B94C0001EF66
:104510004C0001BD4C0001C04C0002C44C0001D253
:104520004C0001E84C0001EF4C0001D54C0001D8D3
:104530004C0001F04C0001DB4C0001DB4C0012CCC4
:104540004C0002EF4C0001EF4C0001EF4C0001EF7A
:104550004C0001EF4C0001EF4C0001EF4C0001EF6B
:104560004C0001EF4C0001EF4C0001EF4C0001EF5B
:104570004C0001EF4C0001EF4C0002F24C0001F541
:104580004C0002C84C0001EC4C00FB000101DB5B5D
:10459000004F5B0001B25B0001BF5B0001305B00BC
:1045A00003BB5B0001BF5B0001C15B0001D35B008B
:1045B00001C95B0003D35B0001495B0001D55B00CF
:1045C000FB000100595E000E00355E00385E003BC6
:1045D0005E003B5E003E5E004A5E00445E00475E59
:1045E00000595E00415E004D5E00505E00535E006B
:1045F000565E00000100A65E001000685E00AD5E21
:1046000000AD5E00AD5E006F5E008C5E007D5E0002
:10461000845E00A65E00765E00935E00935E009B63
:104620005E00AD5E00B45E00B75E00002401B175AF
:1046300000C6750001CD750001DF750003B7750078
:1046400001C3750004F6750001007600010D7600C7
:104650000112760002B5750001D37500019B75004B
:10466000FB00000001FDB700F0B70001F2B7000148
:10467000F8B70001F8B70001F4B70001F8B700017E
:10468000FBB7000AF8B70001F8B70002EEB7000167
:10469000F6B70001F8B700FB00000171B8003CB8A4
:1046A00000013FB8000148B800014BB800014EB806
:1046B00000016BB800016EB8000A51B8000165B87E
:1046C000000368B8000142B800FB01004B003E0740
:1046D0003C2F00000200E800960C000000010700DB
:1046E0001600D5130000000108000300C5110000EA
:1046F000000109000100700A00000000F5510005EA
:0347000000014075
:104704007F937FB7F8949D9AA5980AEF0E94E123BE
:104714000AEF0E94E1239D9806E40E94E12301E050
:10472400959900E00F9300EF0E94E1230F917FBF62
:104734007F9108957F937FB7F8949D9AA59806E09A
:104744000E94E1239D980AE00E94E12388949599B0
:104754000894001F0F9304E60E94E1230F917FBF8A
:104764007F9108959F937F9398E00E949C230795DF
:1047740077959A959923C9F7072F7F919F9108956B
:104784007F937FB7F894A5989D9A0F9306E00E94B3
:10479400E1230F91079508F49D980F9304E60E9476
:1047A400E1230F919D987FBF7F9108959F9398E097
:1047B4000E94C2239A959923D9F79F9108950000E6
:1047C4000000000000000A950023C9F708955F93D4
:1047D4007F937FB7F894CF93DF93C0E0D0E07F93CB
:1047E4005091B2007091B2007517E1F37395219660
:1047F4005091B2005717D9F77F918E01DF91CF9175
:104804007FBF7F915F9108950E9489DD0DECA0E147
:10481400C0E1BEE1D2E20D93AC17BD07E1F7A0E120
:10482400C0E1B2E2D9E20D93AC17BD07E1F70FE0A6
:104834000DBF02E20EBFC0E1D9E20E94A4DD002355
:1048440011F00E948FDE0E94372F0E94A2DD0C948B
:104854002B240C94E5DE4A9512F0000FE1F708953D
:104864004A9512F00695E1F708950024E8E0EA95E8
:1048740032F0001F001C0416D0F3041AF8CF001FF6
:10488400402D00950895149F102D059F100D049F31
:10489400002D110D0895000F111F4A95E2F7089598
:1048A400169507954A95E2F70895159507954A9543
:1048B400E2F7089500241124EFE0001F111F001CEB
:1048C400111C0416150610F0041A150AEA95AAF725
:1048D400001F111FA0010095109508955195419551
:1048E40050400895FF27552312F4F160F7DF112398
:1048F40012F4F09507D00E945C24F0FD03D0F1FD82
:10490400EDCF089511950195104008952224349F08
:10491400302D259F300D169F300D079F300D249F9D
:10492400202D310D159F200D311D069F200D311DA9
:10493400149F102D210D321D059F100D211D321DB8
:10494400049F002D110D221D321D0895000F111F0B
:10495400221F331F4A95D2F7089536952795179548
:1049640007954A95D2F70895002411241001E0E236
:10497400EA9592F0001F111F221F331F001C111C07
:10498400221C331C041615062606370688F3041A5F
:10499400150A260A370AECCF001F111F221F331FE6
:1049A400A001B10100951095209530950895579177
:1049B4004791179011FA2790379007900CBE0895ED
:1049C400F7DF041B10E003C0F2DF041B150B20E02B
:1049D40030E000C028F110FC25C047910790E00F9B
:1049E400F11F0417100540E024073407C8F486F4C7
:1049F40012FE05C0E00FF11F0791069002C0069158
:104A04000024F101E01BF0090CB700400CBF19941D
:104A1400E00FF11FE00FF11F2790379007900CBEB5
:104A2400F101199411F4C6F7E3CF319612FC3196D3
:104A34000EF0329650E060E070E047914B3F48F052
:104A440079F34F3F29F04E3F11F0779167915791D9
:104A54004791041B150B260B370B29F308F3E5CFFD
:104A6400AF93BF93D80101900D9241505040D9F7B4
:104A7400BF91AF910895AF93BF93D8013BBF079007
:104A84000D9241505040D9F7BF91AF910895E00F76
:104A9400F11F02900A9201501040D9F70895FA923A
:104AA400EA92DA92CA92BA92AA929A928A927A92E2
:104AB4006A925A924A92BA93AA939A938A930895BD
:104AC400FF84EE84DD84CC84BB84AA8499848884A6
:104AD4007F806E805D804C80BB81AA8199818881B2
:104AE400F0E0EC0FFD1FEF0108958081080F818134
:104AF400181F8281281F8381381F8481481F858164
:104B0400581F8681681F8781781F08958081082B2C
:104B14008181182B8281282B8381382B8481482B17
:104B24008581582B8681682B8781782B0895808115
:104B3400081B8181180B8281280B8381380B8481A7
:104B4400480B8581580B8681680B8781780B089503
:104B5400808108178181180782812807838138079B
:104B6400848148078581580786816807878178078B
:104B74000895000000000000000000000000000094
:104B84000000000000000000000000000000000021
:104B94000000000000000000000000000000000011
:104BA4000000000000000000000000000000000001
:104BB40000000000000000000000000000000000F1
:104BC40000000000000000000000000000000000E1
:104BD40000000000000000000000000000000001D0
:104BE40002010002020505080000FFFF3412000064
:104BF40000000000000002060100000000000000A8
:104C0400000000000000000005FF00000203030094
:104C14001E000003F40080000001341200030300AE
:104C24000002000000000003034C1D0000102700D8
:104C340000010001E803000004E8030000104174CF
:104C44006D656C2020202020202020202020AAAA6E
:104C5400AAAAAAAAAAAA0085006C00010000080555
:104C6400000808020504020A000308FF14000000FB
:104C740001080303030208901A0000010000000069
:104C8400000303141061620003EC09000800F60934
:104C9400000100A10A000400A50A000100A70A00FF
:104CA4000400780A000100790A000100800A000863
:104CB400007C0A000200040A0002000D0A00010040
:104CC400740A0001008A0A0001007A0A000100AE99
:104CD4000A000100AF0A000100B00A000100B10A95
:104CE400000100AC0A000200B20A000100B30A008D
:104CF4000100760A000100750A0001009A0A000109
:104D0400009B0A000100E00A000800C60A00040033
:104D1400BB0A000400BF0A000400C30A000100C467
:104D24000A000100C50A000100CF0A001100710A3F
:104D3400000100CA0A000100CB0A0004009F0A0017
:104D440001009C0A000200E80A000100AB0A00010D
:104D54000000000000000000000000A00A000100A4
:104D6400000000000000000000000000000000003F
:104D7400000000000000000000000000000000002F
:104D8400000000000000000000000000000000001F
:104D940000000000000000B40A000500B90A000188
:104DA40000BA0A000100000000000000000000003A
:104DB40000000000000000000000000000000000EF
:104DC400000000000000000000F8090001000000DD
:104DD40000000000000000000000000000000000CF
:104DE40000000000000000000000000000000000BF
:104DF40000000000000000000000000000000000AF
:104E04000000000000A60A000100FE09000100F7EE
:104E1400090001005B4C0002005F4C000100624C81
:104E2400000100604C000200654C000100664C006B
:104E34000100674C000100684C000100694C00014E
:104E4400006A4C0001006B4C000200634C0002003D
:104E54006D4C0001006E4C000100874C000200788C
:104E64004C000100794C0001007A4C000100834C95
:104E74000004006F4C000100704C000400744C00EE
:104E84000100754C0001007F4C000100804C0001C2
:104E940000814C000200000000000000000000003F
:104EA40000000000000000000000000000000000FE
:104EB40000000000000000000000000000000000EE
:104EC40000000000000000000000000000000000DE
:104ED4000000764C000100774C000100894C000171
:104EE400008A4C0001008B4C0001008C4C00010036
:104EF40000000000007B4C0004005D4C000200E94F
:104F04000A000000960C000000DA0B0000007E0D81
:104F14000000008A0C0000000000000000B60D0034
:104F240000005B13000000B513000000D210000065
:104F3400004E11000000181100000085110000004F
:104F4400C81100000015130000000000000000005C
:104F540000000000C511000000D51300000000008F
:104F6400000000000000000000000000000000003D
:104F7400000000000000000000000000000000002D
:104F8400000000000000000000000000000000001D
:104F9400000000000000000000000000000000000D
:104FA40000000000EB1300000013140000006E0B5F
:104FB400000000FCAF60110701200000000000E1C8
:104FC4008C00318B00439600A478000000007571BA
:104FD40000A276005A7C00000000000000100000CF
:104FE40000000003020102030302020101010101A6
:104FF4000101010102020101010201020202020295
:10500400020102020202020201030302020300017E
:1050140000010000FE106800C497009A7D004C74E3
:1050240000527B00000000846A00F06E009A780051
:10503400416B00FA9500D762006B87002B8900F260
:105044008A00FC8600597E00000000579D0072878C
:1050540000599700A861006798007D8800C78900FF
:105064008795006686003A6800636B00D874002A4E
:1050740071006F7900A46A00D46700D17D0000003C
:1050840000000000F481004A8300000000000000DA
:1050940002EB7B00B27B000107869600FF960001BD
:1050A40001869600FF960001018277008276000156
:1050B40001F27100D672000101F271003E7200012A
:1050C400070E7A003E7A000101FA7A00D47A0001D0
:1050D40001000000000000010700000000000001C2
:1050E400010000000000000103000000678A0001C5
:1050F40004000000678A00010500000000000001B0
:1051040006000000000000010D0000000000000186
:10511400018696000000000001000000000000016C
:105124000E00000000000001070000000000000164
:105134000A0000000000000100000000000000015F
:105144000100000000000001010000000000000058
:1051540000000000A567000009000000A56700002A
:105164000C000000A567000000000000A567000017
:10517400E0D600E0D600E0D600E0D60043D7001128
:10518400D60075D50037CE00F3D2009CD20056DC91
:105194000013CF00DFDB00A5DA0072DA00E1D600ED
:1051A4000000400000000100CEB20051AC0000003D
:1051B40000000000000000000000000000000000EB
:1051C4000100000000000380000000000077C70019
:1051D400C2CA006FC40081C700D1B400B6BC004489
:1051E400D90046D90048D9004AD9004BD9004DD935
:1051F400000100020007000800090001B32A0010A2
:10520400FB2A00431ACC03000000CC010002155213
:105214000000000000000000000000000001010187
:105224000080000000000000000000010C000000ED
:10523400000000000000000000200547686F737440
:10524400000000000000000000000000000000005A
:1052540000000000000000FAFFFFFFFFFFFFFF0F48
:10526400300000776C5064734461746153657276E6
:10527400657200535F4E7600526573697A696E6792
:10528400204E56206974656D202869643D25687533
:10529400292066726F6D2025687520746F2025683B
:1052A4007500000000000000000000000000000085
:1052B4000000000000000000FF00000000000000EB
:1052C40000000000000000000000000000000000DA
:1052D4000000000000000000445F4E760000000063
:1052E40000000000010000000000000000000000B9
:1052F400000000E803000001893800694300EFD68C
:1053040000BF5E00149800DFC90071B40000000003
:105314000000004D3A00000000000000000000E220
:105324002C00E12F000000000000FFFF0B0000FF35
:10533400FF00000000FFFFFFFFFFFFFFFFFFFF0074
:10534400000000000000000000875F0001FFD78715
:10535400380C040000000000000000000000000001
:1053640018680000000000000000000000558800DC
:1053740000000000000000000000A0780000000011
:105384000000000000000027B4000000000000003E
:1053940000000000E3C20000000000000000000064
:1053A4000007C300000000000000000000002BC341
:1053B4000020000000000000000000000029D000D0
:1053C4000000FFFF00FF00000000010000000100DA
:0D53D40000000000000000000000000000CC
:1053E2000E941A3B0E942E3B0C94693B0E941B3B7D
:1053F2000E942F3B0C946A3BECECF3E00083118398
:10540200228307E01AE220E00C941C3B002331F0D7
:1054120025D020A351A332A333A305C009D000A3F2
:1054220001A302A303A30DE11AE220E00C94303B96
:1054320000E0E0E0F2E00895002331F00FD024A371
:1054420055A336A337A305C0F3DF04A305A306A320
:1054520007A303E31AE220E00C946B3B532F330FB4
:10546200330BE7CF212F220F220BE3DF048F158F9F
:10547200268F278FECECF3E0008111812281F80165
:105482002CBF1994BA93AA932297AFECB3E0009180
:10549200DD03002369F10A9579F00A9519F00A955E
:1054A20019F13FC00E94752E0E94F1290DEA1AE2FD
:1054B20020E00E94FD2935C000E0088309838E01A7
:1054C2000E94B62C002369F001E08FD00C934FE2CA
:1054D20050E020E032E0088119810F5F1F4F0E94E7
:1054E200BDDD03E022D01DC08D010E947ED619C011
:1054F2008D010E94A3D600E117E220E016960D93DB
:105502001D932D932C93129601E00093D90301EB86
:105512001AE220E00D931D932C9302E006D00E9424
:1055220054372296A991B99108950093DD0301C0E1
:105532000ED00C94882E219700E008839E010DE185
:1055420010E00E94FC3B02D02196089500E00093F7
:10555200DD030895FBDFEDCF0E94F72901E0E8CFDC
:1055620002E0E6CFBA93AA9324970A831B8300E052
:105572000883098340E050E060E09E012E5F3F4FC8
:105582008E010E94182C002359F149E350E020E0DB
:1055920030E0088119810E94F8DD01E010E025D099
:1055A20096960D931C9302E020D05A9621D05B96DA
:1055B2001D931C9301E019D095961AD0989613D09A
:1055C2009A960C9300E311D09B960DD09F960C9166
:1055D20004600ED09F960C9108600AD0D0961C935E
:1055E20001E024969FCF0D931C93A881B981089561
:1055F2000C93FBCFF80123853485018512850E9427
:10560200B22E01E008954FEF51E560E0F8014187C5
:105612005287638728E024874CE95AE260E043839B
:105622005483658343E45AE260E04083518362839A
:105632004BEA5AE260E046835783608708950C94F0
:10564200083B00E00E94133B0BC000E00E940B3BB2
:1056520007C001E00E940F3B02E0089502E001C092
:10566200F8DF0C940F3BFACF02E00C940B3BF6CF21
:1056720001E00C94133B0E94083B00E0F6CF00E0EF
:10568200F8CF0E945D25AEEDB3E000E00093E603A3
:105692000D930C931197FD01028303830483058309
:1056A2000683078380E0482F50E00CE810E00E9458
:1056B200452428EE33E0200F311F00EE13E087D09F
:1056C2008395823080F3E4E00C946E259A938A935A
:1056D2000091E603002329F0025049F10A9529F1CD
:1056E2004EC00EED13E097D0C801012B09F447C05C
:1056F2000E94352BFC01E558FF4F03EC1BE220E032
:105702000483158326838C01025E1F4F008311835D
:10571200825B9F4F8C010E94B1A30EED13E079D002
:10572200980102EE13E053D029C00E94AD2E1AC098
:105732000297FC01E757FF4F40815181628100E0EF
:1057420040305007600731F08C010E5F1F4FFA01A5
:105752006CBF19959C0104EE13E03BD0980100EE5A
:1057620013E035D004EE13E056D0C801082F092B00
:10577200F9F60E94382B00E00093E60326D08991C7
:10578200999108950E945D25D801980124583040CE
:10579200EEEDF3E00C91002319F410E002E009C0F1
:1057A20011851395143018F400E0CF0104C010E005
:1057B20003E0CF0106960087118734968F0109D046
:1057C20098018C0104D001D07ECF0C94A42E0C94AD
:1057D2001F38BA93AA93F8014081518142175307A7
:1057E20011F417D013C0DA0101C0D8010D911C9138
:1057F2001197012B51F00D91119702171307A9F779
:10580200F901008111810D931C938901A991B9912C
:1058120008950C944438F80100811181202F212B26
:1058220019F00E5F1F4F089500E010E008950E94E6
:105832005625380129014A01A62EEEEDF3E0A28198
:10584200B3810A2F0B2B81F100EE13E0E2DF980106
:105852000EED13E0BCDFF2012DD049F040E350E041
:105862002081312F8D01005E1F4F0E94BDDDCD01D1
:10587200805B9F4FF3011ED039F049E350E0208155
:10588200312F8C010E94BDDD8D01005E1F4FF201A0
:1058920000831183F30180839183A757BF4F8D92B9
:1058A2009D92AC9281E001C080E08FDF082FEBE097
:1058B2000C94672500811181012B08950E945D25BA
:1058C200A8ECB5E000E00D930C931197FD01028363
:1058D200038380E0482F50E002E310E00E94452459
:1058E20020E035E0200F311F0AEC15E029D0839526
:1058F200843080F3E4E00C946E25BA93AA93249743
:1059020027D0D801012BC1F02C918E010E94F72ED5
:10591200002341F08D01E981FA816B816CBF1995F9
:10592200002321F00FD00AEC15E003C00BD008ECE5
:1059320015E006D00E948E2E2496A991B991089561
:105942000C941F3808EC15E00E9444389801089521
:10595200E8ECF5E000811181202F212B19F00E5F78
:105962001F4F089500E010E008950E945C25D801C1
:105972004424E8ECF5E082819381082F092BD9F0C9
:105982000AEC15E00E944438980108EC15E0D8DFD3
:10599200FD0100811181012B51F040E350E02D9176
:1059A200312F11978C010E5F1F4F0E94BDDD0296B1
:1059B2008D939C9343940E948E2E042DE5E00C94CB
:1059C2006D25BA93AA93A0E0B2E06BD1002339F01F
:1059D2000A9531F10A9541F00A9591F159C00E9458
:1059E200202B5DD058D054C0FD0105AD00FF06C08C
:1059F2000E7F05AF47A550A961A9FFD0FD0105ADF6
:105A020002FF04C00B7F05AF0E94672BFD0105ADAD
:105A120001FF3EC0DD960D7F0C930E947E2C38C0A4
:105A22000E94222B00E047D104ED1DE220E0E0EFCE
:105A3200F6E0078B108F218F8F010E9478C728C054
:105A42000E942F2B0DEC1DE220E0E1E9F6E000833D
:105A52001183228304E310E0E2E1F6E00083118384
:105A620003E002830E941E4E980107E116E08FD0E8
:105A7200EEE3F6E0408341834283438344834583DC
:105A82004683478300E400870CEC15E00E9497CA26
:105A9200A991B991089501E000933C0237C18A931C
:105AA20061979E012F5F6ED009811A812B813C8103
:105AB2004D815E816F817885EEE3F2E00E94AA2536
:105AC20029F0E6E4F2E00E94AA2550F08E010F5F71
:105AD2001F4F0E94F03A9E012F5F3F4F00E04FD0D0
:105AE2000FE212E00E94042B02E008839E0101E211
:105AF20046D008810093000201E00093210710E0E4
:105B0200EAE0F7E0008F118F028F138F048D017F7F
:105B1200048F0160048F01E217E0018B128B08E20F
:105B22001FE220E0038B148B258B08E117E00E9413
:105B3200D4AD04EF11E020E0EAE0F7E0068317833A
:105B420020872187228703E71EE220E0038714874C
:105B520025879E01275F16D09E01275F3F4F01E0F8
:105B620012E015D0E0E0F2E042A953A964A945D0C1
:105B72000E94422B0E945F2C61968991089510E049
:105B82000C94FC3B3F4F00E010E00C94DD3BF9012C
:105B920048E050E00C943225F8010485002311F40A
:105BA20004E083C07BCF0E945D25C80181D0FC0147
:105BB20007850023E9F4A0E0B2E076D00E94262B0C
:105BC2001BD0FC0103811481FD01038B148BFC01AA
:105BD20001811281FD0101871287FC01058516856D
:105BE200FD01068B178BFC0100810093150201C099
:105BF20055DFE4E00C946E254FD049D009F044D033
:105C02000895F8012081203509F001D00895BA9352
:105C1200AA93F80120812E5869F02A9559F02A9505
:105C220019F02A9519F02FC004E02CC00E94342BE1
:105C320032DF29C0A0E0B2E026813781FD01218751
:105C42003287F80123813481FD01238B348BF801E3
:105C520021813281FD01268B378BF801058100936A
:105C6200150226D00E94262B1CD0013021F414D01C
:105C72000ED039F009D015D0043019F415D0BCDF9C
:105C82000DDF02E012D004CFFA016CBF199400E0DC
:105C92004030500760070895FD0145A956A967A93C
:105CA200089500913C02089502E000933C02089599
:105CB20001E001C00895002361F400912D07002343
:105CC20081F40AE017E00E947ED601E000932D07DE
:105CD2000895013031F400E000932D070AE017E047
:105CE20061D008950C94222B2497E0E0F2E006891B
:105CF2001789088319838E010E9413C40A810093B5
:105D020018020B81009319022496089511C021D024
:105D120019F409D001600BD008951BD019F403D0F7
:105D2200026005D00895EDE3F2E00081089500835A
:105D32002FB7F894E7E1F3E000811181106111833C
:105D420000832FBF089505D019F4EDDF0460EFDF63
:105D52000895A7DF02300895FCDF11F403E09CDE12
:105D620008950E945D25C901202F212BC9F0282FFB
:105D7200232BB1F0AEE2B7E0FD010687178711D001
:105D820020E0FD018683978320872187228705ED06
:105D92001EE220E00387148725878D010E947ED6AC
:105DA20028CF8D010C94A3D6BA93AA930E94402BBC
:105DB200ACE3B7E00D911C91199720E00D901D9076
:105DC2002D903C901696001511052205230510F41E
:105DD200A80101C0A001041B150B1C930E931E9772
:105DE200012B19F40E943C2BDCDF52CE0E94592574
:105DF2003801522E27D022AD012B022BC1F04424B0
:105E020001C0439400913B02401688F41BD032AD8E
:105E1200F80104E0409EE00DF11D10E0D3010E9464
:105E2200CADDF3010081501661F701E008C044E0C9
:105E320050E020E030E083010E94F8DD00E0E8E07D
:105E42000C946A25E0E0F2E000AD11AD08952297CE
:105E5200F80107A110A5088319830E94392B8E012E
:105E62000E94B62C22960895089508950E94B23990
:105E72000E94C339FDCFBD01AEE3B7E0ECEEF9E01D
:105E82008D015ED00091A50A00934607E0EEFAE08C
:105E920007E417E059D051D006811781208531855A
:105EA200FD01018B128B238B348B00917A0A058BB7
:105EB2000091710A068B0091C30A078B0091C40AF4
:105EC200008F0091C50A018FEFECFAE008E517E0B8
:105ED20032D033D003851485FD0103A714A70091A6
:105EE200B20A05A7ECE7FAE000811181FD0106A7DD
:105EF20017A70091740A00AB00918A0A01AB0091C6
:105F0200E80A02AB0091130A03ABE4E0FAE0008175
:105F12001181FD0107AFFF96118300910D0A0283E3
:105F220000E817E0E0E8FAE00FD00091B10A009330
:105F32008807DB01089541E105C0E1EAFAE008952E
:105F420048E050E00C94322548E0FCCF0E945825EE
:105F52002A97380129018AEC96E409E2802E0AE0A8
:105F620010D0088119810615170519F44AE00FD0DF
:105F720004C00A968A9499F700E02A96E9E00C9404
:105F8200692510E0FC0130E0DE010C94CADD50E02E
:105F92009E0182010E94BDDD01E00895402F34D0B0
:105FA200EEE4F2E01381102B13832FB7F894E7E1AC
:105FB200F3E0008111811062118300832FBF0895E5
:105FC200309151023323F9F020E001C02395422F92
:105FD2001BD0132F1023D1F3302730935102422FBD
:105FE20050E003E010E00E944524F801E25BFD4F1F
:105FF200008111812281F8012CBF19950091510273
:10600200002309F0D2DF089501E010E00C944F2440
:106012000E94DB350C949434002308959A938A935A
:106022002A9720E060E030E0E9E8F7E0E20FF61FAF
:10603200462F37D01081102329F0009510811023AC
:10604200108306C06395683098F32395263050F389
:1060520008E0209FC001860F931F8C0126D071F4A7
:106062009E018C010E94A72F22D051F04BD056D016
:1060720039F0002329F020E040D002C08C0120D06A
:1060820020E0F0E0E22FE757F84F0081002311F003
:1060920014D003C023952630A0F32A9689919991B2
:1060A200089501E010E00C944F240E94D63500239D
:1060B20011F001E001C000E0AFCF00E00C94CF2F5F
:1060C2009A938A9334D0C1F00A811B81012B21F06B
:1060D2000C811D81012B11F426E70FD013D06C81A6
:1060E2007D814A815B8120E030E08C010E94043591
:1060F200002311F024E801D0D0CF31E002E512E014
:106102000C9426374E815F81688500E0403050074D
:10611200600719F0FA016CBF199508954C815D81F1
:106122002A813B818C010E94AF34023008952A9764
:10613200C8019E010E94A72F6FCF63D419F400916A
:10614200A702E6D108955DD429F4E4D219F422EE2F
:1061520030E016D50895E0C28A9380E0EFE8F9E0D6
:1061620040815181628140305807680731F0FA015D
:106172006CBF1995002309F481E0082F89910895D5
:1061820001E0089500E008959C01F6D0800F911F70
:106192000F96807F86879787C9010895BA93AA933D
:1061A20020E001C023953091A6022317A0F434E029
:1061B200239F82D24D915C9111974017510791F71D
:1061C20012960D911C911397012B19F42CE231E0D8
:1061D200D7D48D0101C045D0A991B991089535D088
:1061E20019F029E331E0CCD464D2003818F02AE364
:1061F20031E0C6D45ED214E0019F0FE817E0000D33
:10620200111D85D225892395258BF80180839183E1
:1062120089919991089519D019F427E431E0B0D405
:106222008C01D8D174D225892A95258B34E0239FFD
:10623200F001E157F84F4081518162817381F80189
:106242004083518362837383E3CF9A938A93C80115
:10625200C1D1012B0895BAD121F0F8010281138135
:10626200089500E010E00895792F482FF801C90140
:106272000FEF1FEF13C031911327212F12951F70BB
:106282002127522F550F550F550F550F052730E275
:10629200239F0125102F0226002D0197282F292B3D
:1062A20051F7842F972F08952CE030E00E5F1F4F97
:1062B200DBCF60D0D8012901CA01BA01A901980136
:1062C20024D10E942036BC01A2019D011ED10E9450
:1062D2002537E6E00C946C2574D1C8010FEFE82F46
:1062E200F12F00830183082FDFDFFC010687178768
:1062F200AFE9B2E040E150E09C010D911C911F9783
:10630200D1D069F440E150E01E962D913C91FDD030
:106312000E942137002309F405D000E002C002D018
:1063220001E033C400E110E04EC1229720E028834F
:106332002983FBC01FD0D80129011ED062D2B1F03F
:10634200042D052971F0FD01468157819201DFD1AB
:1063520006851785A7D029F4FD010681178133D15F
:1063620005C0FD0106811781A0D111F400E001C032
:1063720001E0AFCF0C945B25CAD18685978508953D
:106382000E945125A59708832B833C835A0100E084
:1063920009830A83662477240DA91EA918D129F03E
:1063A200060F171F09831A8303C027D3660E771EB1
:1063B2008B819C817A012A01460E571E11C08D01E4
:1063C20011950195104029813A81200F311F2983AF
:1063D2003A83BD014981532F8A1A9B0A940191D3B2
:1063E200E414F50441F401E0A596E2E10C9462257F
:1063F20078018F859889082F092B09F451C08FD213
:106402004B5F5F4F9C0188D209851A8598014B85A5
:106412005C85040F151F2415350558F7E016F106A3
:1064220040F70415150520F3840D951D4096821B37
:10643200930B4C01E216F306D20128F4A21BB30B14
:106442008F85988905C0AE19BF098B819C81750122
:106452004A1A5B0A09811A81012B09F0B0CF0A2F6F
:106462000B2B09F4BDCFA13100E0B00728F000E109
:10647200C02EDD24509703C06D01A0E0B0E06C187F
:106482007D088C189D08B601AE014B5E5F4F9401EA
:1064920043D2A6019E012B5E3F4F830103D0F9F642
:1064A20000E0A2CF06DFAEC178D3D90133D021F408
:1064B2002CD02ED02FD009F10FEF0883098301E4ED
:1064C2000A8304E50B8303E50C830EE40D8306E7E0
:1064D2000E8301E30F8388879987AA87BB878095FC
:1064E2009095A095B0958C879D87AE87BF8740E138
:1064F20050E09E01B6DED6DF11F400E005C064D0A4
:1065020006D10687178701E03FC30091A5020895CF
:106512000C948E3640E050E2F9D1F7DF0E94213729
:1065220071C122979EDE0883098342E050E09E01FA
:10653200C0DE002311F400E001C001E022960895BC
:1065420040D06097A1E9B2E03FD0FD0106871787EE
:10655200E6D126853785D5D280E090E0FE01E80FAE
:10656200F91F00810F3F31F40196803100E090075E
:1065720038F5F4CF8E0198DE2E853F85201731073E
:1065820011F022D018C008811981012B89F48A8167
:106592009B818C011BD011F48C0121DEFD0126852B
:1065A2003785F80122833383B4D1012B09F4FBD25E
:1065B20024D1005F1F4F07D0FD011785103240F232
:1065C200E3C20C945D25E0CD00E14CCE03D0202F38
:1065D200212B0895E3CD0FD2A09701E9402E02E0CE
:1065E200502E08EA12E00E94423A00E0F20100D185
:1065F2007090A50294D1405F5F4F88D1072D8DD155
:10660200888D998DAA8DBB8D81509040A040B0405D
:106612007CDF0395023008F000E00093A502071525
:1066220019F42AE433E0ACD28C019D013DDF002352
:1066320079F366241EC004E0609E3ED070D130D053
:106642006CD1F3D0F20186859785DAD0C1F000E0F3
:106652000A930A936A857B8540E050E021D090DE60
:10666200002369F0CAD021D051F0FD0182839383C7
:1066720063941FD06016F8F254DF002311F400E097
:106682000BC07092A70201E912E00E94A3D601E9B1
:1066920012E00E947ED601E0A096E8E00C946A2502
:1066A200FD0122813381072D08958DDF8C013DDEAE
:1066B200A9C00091A6020895AFE8B7E0A00DB11DF0
:1066C200089520E030E223D066857785261B370BBC
:1066D2002017310728F41ED0C9F426E933E050C24E
:1066E2002031344098F42091A802222379F444EA1C
:1066F20050E360E06A935A934A9340E157E260E0C4
:1067020070E021E008EA12E00E941F3A0895E1E9F0
:10671200F2E0089560DF76C00E945725609771D13C
:1067220029F005E06096EAE00C946825F0DF8289A2
:106732009389082F092B29F400891189012B21F44F
:1067420005C040968C01DCD16AD011F400E0EACF9A
:10675200EA2FF12F59D05FD0012B59F4DAD0005F24
:106762001F4FCED15CD019F429EC33E009D2FD01E0
:106772004BD0CDDF8684978468847984028913891B
:10678200012BE1F040E050E024E030E002E612E0CC
:106792000E94273740D0ABD10A851B85A8D100893A
:1067A2001189A5D107E612E00E942837269633D038
:1067B200088719870615170508F4380136D020D046
:1067C20071F000E00A930A93B30140E050E09C01AB
:1067D200BDD129F012D0F7DE840169DF11F401E0A6
:1067E200A1CF00E094DF04D0FD0182829382AECF7C
:1067F200008B018B028B038B08950E811F810895FC
:106802008E016ADD002308958281938160E170E048
:10681200AE019C0176C17BDF02891389089577DF7F
:1068220000891189D7DED80114CDE1D008851985F8
:106832000E831F8300E0ACC19DDD609700E00093F2
:10684200A60244244A948FEF9FEFAFEFBFEF552487
:1068520066D05CD0052D61D008811981012B69F5C4
:106862000A81013451F50B81043539F50C81033568
:1068720021F50D810E3409F50E810637F1F40F81F1
:106882000133D9F446D02A853B854C855D856E85DA
:106892007F850801190104261526262637264FEF83
:1068A200041614062406340641F4081719072A07A9
:1068B2003B0718F4452CC801D901539402E0501645
:1068C20038F20FEF4016D1F400E00093A50208C0A1
:1068D2001EDF04890395048B023010F020E44FD1AF
:1068E2000EEF1FEF2FEF3FEFDFDD002389F319DEFD
:1068F200002371F300E00093A60203C04092A502B8
:106902001FDE01E00093C6026096E3CC20E030E097
:10691200089508851985089508810C94F13560E180
:1069220070E0AE010895BA93AA93ACE9B2E0009187
:10693200C602002309F480DF01E000939B020EE906
:1069420010E320E00D931D932C93179708E51BE1AC
:1069520020E00D931D932D932C933ECC4CD0609749
:10696200D801C9012A01012B29F0103F18F4213066
:10697200344010F023E603D1ECD0012BC1F08D019D
:10698200EAD00817190741F0C2DEA08BB18B828BC7
:10699200938BC2DE002349F5042D052931F0B201A3
:1069A200AC01B4DF8D01AFD020C000E01EC029D001
:1069B20011F005E01AC0A1D07CDE003810F02BE8FF
:1069C200DED01BD0AA83BB8312D08E839F8388879D
:1069D2009987DED092018ED011F401E006C08D01BC
:1069E200FEDBF8016282738202E0609656CE00E01E
:1069F2000C830D8308950C94592589DE668477846F
:106A02000895AADBFFCE0E9455256097D80149015F
:106A1200CA015B01012B11F0672B11F429EAAFD0F7
:106A2200F0DF11F005E05FC068D08D01D3DD2801F1
:106A3200012B11F403E057C0E42DF12F6280738023
:106A4200A1E9B2E06CDF93015CD0088419842224AE
:106A5200A40160E0480F591F621D041615062606A0
:106A620010F404E040C08C829D828E839F836A86EC
:106A72007B86C3DE288539850217130719F42C8615
:106A82002D8606C00C851D850F5F1F4F0C871D8745
:106A9200FD018685978595012DD011F401E023C073
:106AA200F201828393830C851D85053620E0104018
:106AB200C8F00A811B81FD01008B118B228B238B75
:106AC2000091B702002371F40CEA10E320E02A934C
:106AD2000ED048EB5BE060E070E021E096968D011D
:106AE2000E941F3A00E06096ECE00C9466251A932F
:106AF2000A9308958E011EDC85CE8C01005F1F4F24
:106B0200E0CD03DD0ACF77DFD801C9012A013B01BD
:106B1200012B11F0672B11F42AEF31D01AD057DD77
:106B220011F403E012C00C012224040C151C221CD7
:106B320021E0221638F47A926A92B201AC019801ED
:106B420005D011F404E001C000E0A7CDDEDC18DCC2
:106B520059CE8D0127C09A938A936097C801012B61
:106B620019F42AE135E00CD01CD031DD11F479DBC7
:106B720004C0D5DE9801C5DFCCDE609649CB34E097
:106B820002E612E00C9426376096E4E00C946E253F
:106B92000A870B870C870D87089513DD6097C8015C
:106BA20008958C0158CB8C0136CBFCDF012B09F008
:106BB200E7CAE8CA00E0002311F026E4ACD0C6D050
:106BC20000501440204030400F5F1F4F2F4F3F4F67
:106BD200003010442040304011F02AE49CD0089547
:106BE2000E94572529013A014B018DD0840D951D34
:106BF200AB1FBB1F82D010F428E58DD040E054E4D7
:106C020060E078D0080D191D261F361F4017510766
:106C12006207630710F429E57ED0480C591C01E095
:106C2200401600E2500610F02AE575D08401FC01FE
:106C32003A2FD3010E94CADDEAE00C9468250E9433
:106C4200562549013A012B015ED0AA24880D991DCF
:106C5200A31FB31F672B11F42DE6EED04ED010F414
:106C62002EE659D040E054E445D0040D151D2A1DEE
:106C72003A1D40175107A206A30610F42FE64BD087
:106C8200840C951C01E0801600E2900610F020E7CB
:106C920042D0082F10E020E031E0281B30402415BC
:106CA200350510F4490101C04201B301A40105C038
:106CB2004201B301A40100E010E020E030E00E94B4
:106CC200D4DC18D00E9455DD48185908880D991D4A
:106CD200AA1DBA1D680C791C042D052941F001E09A
:106CE2004016500628F3882499249394E2CFEBE0CF
:106CF2000C9467258C019D01089528D00817190767
:106D02002A073B07089580E094E0A0E0B0E08ED02F
:106D1200910FA21F089530E08FC00E945C25F3DF1F
:106D220015D0003019072A07304010F420E9F3DFAC
:106D320000E2402EDFDF0E9449DD80509F4FAF4FBF
:106D4200BF4F4A94B9F7E5E00C946D250FEF13E4B9
:106D520020E030E008950E9455256097002EC90179
:106D62005A014B0100E014E0280166247724002D2B
:106D72005DD0510E621EA0E0480E591E631E731EA6
:106D8200672B11F426EA58D0E1DF04151505260514
:106D9200370510F427EABFDF40E054E48201930193
:106DA200080D191D2A1F3A1F40175107A207A307F2
:106DB20010F428EAB0DF880D991D8130904240F02E
:106DC20029EAA9DF05C0881A990A480E591E631ECE
:106DD200082D092931F101E1801600E0900618F032
:106DE20080E190E001C0C4018C01F201362DDE0188
:106DF2000E94CADD20E001C0239530E02817390740
:106E020010F70A2D0B2921F0F50101915F0101C054
:106E12000FEFFE01E20FF31F3081301769F300E03C
:106E220001C001E06096ECE00C94662510E020E0E1
:106E320030E04DE00C94AC2407EC12E00C942637C1
:106E4200BA0140E050E087CFFECF0895089508953B
:106E5200BA93AA932297AAE9B9E000919D09002367
:106E6200C9F09E0101E21CD09E012F5F3F4F0DE150
:106E720017D00881023071F40981002359F40BE51F
:106E820017E320E00D931D932C931A978D010E9416
:106E920050C402C00E944BD32296A991B991089581
:106EA20010E00C94DD3B01E000939D0908950091F0
:106EB2009D09089508950C9483DC0E945B25502E51
:106EC200D9016AD0452D64D0402E00E4501608F056
:106ED20026D09D01052DA1D00023F1F49D010EE9DC
:106EE20019E00E947C38002371F448E050E020E071
:106EF20030E08D010E5F1F4F0E94F8DD9D010EE90B
:106F020019E00E941F38A80FB91FFD010281042950
:106F1200028339D004290283E6E00C946C2503E055
:106F220010E8EFEAF9E0008311830C94EF380E9435
:106F32005B25B02F290130D04B2F2AD0A02FB0349F
:106F420008F0EDDF92010B2F68D00023D9F00A2F51
:106F52000095480E591EF201128110231283EEE9A8
:106F6200F9E007C0F801E80FF91F22812A2351F442
:106F7200F80100811181202F212BA1F7A09503D0C8
:106F82000A230283C9CFFC01E256F64F028108951B
:106F9200477001E00C942D24069506950695802FE6
:106FA20090E008950E945925A02F3901F5DF4A2F5C
:106FB200EFDFB02FA03410F004E0B2DFE4DF0B23E8
:106FC20019F1EEE9F9E01BC0F201E80FF91F0281A5
:106FD2000B23A1F0F2014285538564854030504075
:106FE200604011F405E09CDF372DF2010285138524
:106FF2002485F8012CBF262D0A2F1995F201408015
:107002005180042D052901F7E8E00C946A250BD084
:10701200F0E0E02FE256F64F0BC005D010E0200F53
:10702200311FF90105C0402F069506950695089572
:10703200028147700E943224017008950E945D25EA
:10704200C801D90158D0002300E049F010E8EFEA66
:10705200F9E0008311830E94D53800E011C00D933E
:107062000C931197FC0100811181012B31F00081F9
:1070720002C00081132F16D0E1F7A083B18301E093
:10708200E4E00C946E25BD010DD041F02081D901C0
:107092004D915C9140835183890102C000E010E070
:1070A200DB010895F80120813181232B0895BD0170
:1070B200422F432BF1F0F8014081518142175307CF
:1070C20031F4DA012D913C912083318310C0FA0111
:1070D20001C0F8010E2F0F2B61F000811181021700
:1070E2001307B9F7D8010D911C910083118301E0B8
:1070F20001C000E0D5CFF80100811181402F412B62
:1071020029F002171307B9F701E0089500E0089586
:107112000CEC12E00C943D43F80102811381202F04
:10712200212B09F425D00E94C0DE01E00093D30296
:107132000CED12E00C947ED6BA93AA93A9EDB2E0BC
:107142000091D302002389F00CED12E00E94A3D635
:107152000DE818E320E00D931D932C931F9700E098
:107162000093D3028D010E943D43A991B9910895E4
:107172009A938A930E94C6D6C8010E941E4E20E0AE
:1071820032E0239FF801E00DF11D408151818427F7
:10719200952723952430A8F38C018991999108951C
:1071A2000CED12E00C94A3D602D002E003C0E8EA90
:1071B200F9E0089510E000831183078110850283AE
:1071C200138344815581668100E040305007600797
:1071D20021F08F01FA016CBF19950895E8DF03E0F1
:1071E200E9CFBA93AA93F801218332834F3748F04B
:1071F20001E010E8EFEAF9E0008311830E94D5383C
:107202001EC010811170440F142B108351870A8104
:1072120000FB008100F9008363837483A181B28142
:1072220034E003C000E013960D93018112812081A6
:107232002695239F000D111DA017B10798F3A99160
:10724200B991229608950E945A25D8012901642EE7
:1072520080E090E03FD0FD012181328189010AC0A6
:10726200582F592B21F0FC015381451708F4C8010E
:107272000C5F1F4F4C91469554E0459FA90169D080
:1072820070F4F8014381442359F3608171816415DC
:10729200750531F75281561519F700E018C00C91A7
:1072A20000FD09C0082F092B21F0FC0103810023F6
:1072B20029F002E00CC0082F092B41F0FC014082AA
:1072C20051826282FD010185FC01038301E0E7E056
:1072D2000C946B250E945B2528010E94C6D6C8012A
:1072E200D901F2014581568167817085041B150B16
:1072F200260B370B4381548160E070E00E94B62474
:107302000F3F10402040304020F4202F002311F482
:107312001DC02FEFE42D0181128164E005C033818D
:10732200341B33830C5F1F4FF20141815281308144
:107332003695369F0ED030F4F8014381241778F742
:10734200422FEDCF85839683A783B087E6E00C9426
:107352006C25400D511D0417150708950C949D3896
:1073620008950E946BD40E945C3C002311F402E059
:1073720008952FB7F89418D0006116A705A72FBF5C
:1073820001E0089516D020E030E00BE20E94D337EE
:1073920008D011F40E94293704D009F0F1CF00E09F
:1073A200089502D0012B0895EAEEF2E005A516A594
:1073B2000895BA93AA9320E0EAEEF2E0422F01E0A8
:1073C20010E00E944F2447A550A965A576A5462343
:1073D200572340235123452B59F13FB7F894009589
:1073E200109545A556A54023512345A756A73FBF53
:1073F200022F10E043E050E00E944524E00FF11F0D
:10740200DF014D915D916C91129740305040604088
:1074120041F406E010E8EFEAF9E0008311830E94EC
:10742200EF380D911D912C91F8012CBF199503C0D5
:1074320023952F3018F2A991B99108950E945925E8
:107442003801422ECA01DB011CD000E0F3010083A7
:10745200438687839087A187B287088519852A8505
:10746200048715872687EBE00C946A25F8012081B2
:10747200222331F421E020830F5F1F4F0E947ED62A
:107482000895F8012081213031F420E020830F5F3C
:107492001F4F0E94A3D608952ED000FF05C0008181
:1074A2000E7F00830E94933A26D001FF05C000811F
:1074B2000D7F00830E94213B1ED002FF05C0008188
:1074C2000B7F00830E94493B16D003FF05C0008159
:1074D200077F00830E94703B0091B109002351F0A5
:1074E2002FB7F894E7E1F3E0008111811160118375
:1074F20000832FBF0895E1EBF9E000810895A9917F
:10750200B9910895E1EBF9E00081016000832FB7A2
:10751200F894E7E1F3E000811181116011830083A7
:107522002FBF089523D0FD01078101FF0BC0078102
:107532000D7F07830781046007834D915D916C91F4
:1075420012971CD0FD01078102FF0FC0649B0CC083
:1075520007810B7F078307810E7F07834381548155
:1075620065810CD008D001C0CDDFC9CFBA93AA93F0
:10757200A2EBB9E0089504E00C944FD900E040304A
:107582005007600721F001E0FA016CBF19950895D8
:107592002FB7F89400E00EBB01E00ABD00E00BBD7E
:1075A20000E50093750002E00BBDEF93FF933F935C
:1075B200EBB5FAB531E237BF34913EBB3F91FF9153
:1075C200EF913EB3F0E0E02FE854F64F308303959D
:1075D2000A3050F300E4009375002FBF08959A9388
:1075E2008A93C801012B19F40FEF1FEF0AC0D0DFF5
:1075F200EAEBF9E08C0148E050E00E94322500E01D
:1076020010E0899199910895249A00E007C0FCDF67
:1076120000E00895002309F42C980895002309F44A
:107622002C9A0895002321F400E115B1102715B911
:1076320008952CC02BC0E2ECF9E016D002601BC00A
:10764200E2ECF9E03ED011F403E02ED020E030E08D
:1076520001E0E2ECF9E02FD0199418C017C0E5EC74
:10766200F9E002D0046007C0008311832283E1EBBA
:10767200F9E00081089500832FB7F894E7E1F3E081
:10768200008111811160118300832FBF00E00895F2
:10769200E5ECF9E016D011F404E006D020E030E089
:1076A20001E0E5ECF9E0D7CF10E9EFEAF9E0008379
:1076B20011830C94EF38408151816281FA016CBFD1
:1076C2000895408151816281403050406040089568
:1076D200DDCFDCCFE8ECF9E0C7DF0860CCCFE8EC27
:1076E200F9E0EFDF11F405E0DFDF00E010E0E8ECA5
:1076F200F9E0B1CFBA93AA93ABECB9E049E350E019
:1077020020E030E08D010E94F8DD03E010E0919668
:107712000D931D931D931D931D931D931D931C93F8
:1077220005E00093F60901E00093FE0907E00093EB
:10773200F70907E8E6E7FBE430E0A4E0BAE023D08B
:1077420003E110E0EDEFFBE430E0ABE8BAE01BD080
:1077520003E010E0E0E1FCE430E0AEE9BAE013D08F
:1077620008E410E0E3E1FCE430E0A1EABAE00BD087
:1077720044E45DE020E030E009EE1AE00E94F8DD2A
:10778200A991B99108950C94CADD0E947B3B0C9497
:1077920009304DD0B12FC9010CD0A0E0A030B240C9
:1077A20011F006E048D008811981FC0100831183A1
:1077B20031C098018E0146C033D011F400E03BD0B5
:1077C200E0E0F92F309621F0E050F14049F010C08E
:1077D2004B815C81288139818D010E94BDDD0AC007
:1077E2000B811C81E881F9813A810E94CADD02C0C5
:1077F20001E021D00FC014D011F404E01CD0992371
:1078020011F005E018D04B815C819D01088119813E
:107812000E94BDDD02D00C946E252596E4E0089509
:1078220006D0912FD901C5DF0A2F0B2B08950E9494
:107832005D252597089510E6EFEAF9E000831183AC
:107842000C94EF38F4DFC801D901FE0140E025E0D5
:1078520041932A95E9F74A2F50E02AD00E94452405
:10786200A801A0E0109639F0A050B14049F0A05014
:10787200B14059F014C01CD0EDE8FCE430E009C07E
:1078820017D0E8E1FEE430E004C012D0E3E0FFE408
:1078920030E0E40FF51FDE010E94CADD02C00AE0FB
:1078A200CADF8C01FE0145E050E00E943225B2CFD2
:1078B20005E010E00895E9E3F1E000810160008352
:1078C2000AE00E94B3CF08E0009342010091410117
:1078D2000F710830D9F70E94AFD40E94ABD40E9436
:1078E200AAD401E008959A938A9382E00091F8184D
:1078F200013019F401E000932D180091F8180023CB
:1079020089F400E0009347019FB7F8942CE830E037
:1079120001E00E94B3D49FBF002329F000E000934E
:10792200F61801C081E0082F8991999108950E946B
:107932005C25B02FA0E080E00E94B642402E00916C
:10794200F818013019F401E000932D180091F8188D
:107952000023C1F59B2FB33009F498E03CD00131EC
:1079620069F40E94CDD424E630E000E00E94B3D452
:1079720002E00093F6182CD001E027C02CD008308A
:1079820011F004E001C009E00093420124D0093063
:1079920029F4B93151F40E94ADD409C00EE60E9417
:1079A200B3CF8395833090F30EC00E94ACD4B093D2
:1079B200420111D09017E9F79093F7180FEF009357
:1079C2004F0101C0A1E004D00A2FE5E00C946D251F
:1079D200042D0C94B342009141010F710895F801F6
:1079E20040814A952091410120E00BC030E0F8012E
:1079F200E20FF31F3081E22FF0E0E058FE4F3083B8
:107A02002395241798F302E00093420108950E94FF
:107A12005D25219780E02091F818213019F421E0AA
:107A220020932D182091F818222309F0B6C0D8010E
:107A32001196F8010081045809F461C00C5609F44A
:107A42009CC0025009F491C00E5091F0025099F17D
:107A52000A9509F448C00C5409F467C00A9509F460
:107A620054C0035009F459C00C5109F464C096C0C3
:107A72009091480100914801007E11811F71012BF4
:107A820000934801A5D09BD061F4088196D0109153
:107A920045011F70101710F497D08AD00E94623EE1
:107AA2007DC09F719A3109F079C00E94643E8CD0EA
:107AB20000912F180FC00C9180D000932F180F70D7
:107AC200902F7DD049F484D008811C91011724F4B1
:107AD20074D07AD06DD062C000914501007F092B2D
:107AE200009345015BC0109148011F790181029505
:107AF200007F000F0076102B109348014FC00091B9
:107B0200490151D00093490149C0FD010081009310
:107B1200620101810093630141C0FD010081009374
:107B2200600101810093610139C000916F013BD076
:107B320000936F0133C0FD01008100936401018154
:107B4200009365010281009366010381009367013E
:107B52000481009368010581009369010681009305
:107B62006A01078100936B0119C00181EEE6F1E021
:107B720000FB008103F9008311C00181002329F079
:107B82000E94B64200932E1809C00FEF00934F01D6
:107B920000912E180E94B34201C081E0082F219665
:107BA200E4E00C946E25007F11811F70012B089573
:107BB2000F70102B1093450108950C94AD3E009167
:107BC20048010F710A31089510914501107F0895FF
:107BD2009E010CE410E00C94DD3B2997E9E3F1E00F
:107BE200008101600083009141010F710830D9F7D3
:107BF20000E000932D180093F81808E00093F7189E
:107C02000E94ABD40E94AAD4EEE6F1E000810062A9
:107C12000083EEE400810860008300810064008339
:107C22000091F809098300E028D00091FD09098339
:107C320002E023D00091FE09098303E01ED00091E7
:107C4200F709098304E819D00091FF09098304E0C8
:107C520014D0ECE4F1E0008100680083ECE60081DE
:107C62000F7000830081017F00830E941E4EF80185
:107C7200008100936D012996089508838E010C946A
:107C8200083D012F089511D071F4003111F401E083
:107C920001C000E0209144012F7E0295007F202B3D
:107CA2002093440101C011E0ECCF10E02091F818BC
:107CB200213019F421E020932D182091F818222365
:107CC200089500E1E0CF00E0FDCF023011F0013075
:107CD200B9F420914D012C7F102F1370212B20938A
:107CE2004D01EDE4F1E010811460108310911B034B
:107CF200187F000F0670102B10931B0300E00895ED
:107D02000FEF089510914D01137000911B03077E30
:107D1200110F110F110F012B00931B0308950091F6
:107D22001B030695069506950370089500914D0173
:107D320007FF02C001E001C002E010911B031F799E
:107D42000295007F000F102B10931B0310FD03C040
:107D5200116010931B03089516E0033014F010E035
:107D620035C0023011F412E031C0013011F414E0D8
:107D72002DC0002359F10F3F11F417E027C00E3F29
:107D820011F418E023C00D3F11F419E01FC00C3F9D
:107D920011F41AE01BC00B3F11F00A3F11F41BE073
:107DA20015C0093F11F0083F11F41CE00FC0073F56
:107DB20011F0063F11F41DE009C0202F225F24308C
:107DC20010F41EE003C0023F0CF41FE0012F0895DF
:107DD2000E945D25D80180E00E94B642902F00915A
:107DE200F818013019F401E000932D180091F818E9
:107DF200002341F510915101107FFD0103810F70A5
:107E0200102B10935101038104FF02C001E001C055
:107E120000E0E1E5F1E000FB008104F9008305E008
:107E22000E94B3CF0091510105FF08C0FD01848378
:107E3200E1E5F1E000810064008305C001E0FD019D
:107E4200048301C081E0092F0E94B342082FE4E0BD
:107E52000C946E250E945825380155240E94B64282
:107E6200902F0091F818013019F401E000932D18B9
:107E72000091F818002309F067C044247DD0013135
:107E820069F40E94CDD424E630E000E00E94B3D42D
:107E920002E00093F6186DD001E068C0EDE4F1E075
:107EA200B081B3FBB0E0B0F90081077F008380911D
:107EB20041018F716BD0883019F40BE90E94B3CF66
:107EC2005FD006E064D058D00630E9F7A0E01FC0CA
:107ED20004E0802E01E00E94B3CF440C440C0091D8
:107EE200460102950F7006950370402A8A9491F715
:107EF200F30101851285202F212B21F00A0F151D78
:107F0200F8014082F301338543863487A395F30158
:107F12000085A017E8F200914D01077FBB0FBB0F50
:107F2200BB0F0B2B00934D01883041F02FD028D08E
:107F320006E12DD021D00631E9F707C008E027D0AD
:107F42000FEF00934F0101C05394F3010781002307
:107F520059F0EFE4F1E0008103FF06C00081086000
:107F62000083008103FDFDCF04D0052DE9E00C94D0
:107F72006925092F0C94B342009141010F710895B4
:107F8200009141010F710930D9F7089509E000937A
:107F9200420108958A9380E00E94B6421091F81837
:107FA200113019F411E010932D181091F8181123C3
:107FB20049F52ED0183041F023E020934201209160
:107FC20041012F712830D9F7E8E5F1E020812068DE
:107FD2002083208127FDFDCF183069F019E010932E
:107FE200420116D01930E9F716E11093420110D080
:0E7FF2001631E9F703C018E0109342011FEFAB
:1080000010934F0101C081E00E94B342082F899173
:108010000895109141011F7108951DD039F4FC019C
:1080200015812381F481E22F108301C0A1E00ED0DD
:108030000C946F2510D041F4FC012381F481E22FD0
:108040001081FC01128701C0A1E0F1CF0E94B34270
:108050000A2FE3E008950E945E25C801A0E00E9477
:10806000B6421091F818113019F411E010932D1840
:108070001091F818112308950D01BC01F901108326
:1080800000E0D9011196412F50E0812F90E0019638
:10809000E02FF0E0E058FE4F10811D930395081784
:1080A0005907B4F3240F351F0091F9180B55F90146
:1080B00002830091FA180383CB01D00108954A92FC
:1080C000BA93AA939A938A9344240E94973E05E018
:1080D00020918001122F1370133009F05AC026FB33
:1080E0000EF007E02091810126952695122F13703E
:1080F000123011F40E5F07C0133011F4085F03C093
:10810000113009F446C022952F70223019F4102F37
:108110001E5F04C02330E9F5102F185FE12FF0E057
:10812000E058FE4F30813430A1F51D5F30917B0166
:10813000131779F54394E02FF0E0E058FE4F22301A
:1081400019F4008141810EC040810181400F0281FC
:10815000400F0381400F0481400F0581400F0681CD
:10816000400F0781400F042F069506950695F0E015
:10817000E02FE150F74E008147700E9432240170D9
:1081800041F4EEE6F1E000810F7D00834092FA18A1
:1081900003C000E00093FA180091F71801E0009383
:1081A000F818009147010093F91820917B01322FB4
:1081B0003C5F0CE0409E8EE598E1800D911DFC0136
:1081C000E358FF4F4481558110E06081718146176B
:1081D0005707C1F46085718502841384061A170A53
:1081E000301511057CF462837383A085B1853D93BE
:1081F000A087B18760857B2F462F430FB11F408733
:10820000B18716C066817781641B750B3617170717
:108210000CF073C042835383A481B5813D93A48342
:10822000B58364817B2F462F430FB11F4483B583F1
:10823000AB01042F052B09F460C0122F9A01042D05
:108240001BDF00E081589F4FFC0100830183ECE4B9
:10825000F1E000810F77008302E00E94B3CFECE4ED
:10826000F1E0008100680083009141010F71063147
:1082700011F5EEE600810062008300912D180023C5
:10828000B9F02FB7F89400912003002369F43FB7A9
:10829000F894E7E1F3E0008111810160118300832C
:1082A0003FBF01E0009320032FBF00E000932D1893
:1082B00000E00093F818009122031091230340FA84
:1082C00016F4016001C0026000932203109323039F
:1082D0002FB7F89400912003002369F43FB7F89476
:1082E000E7E1F3E0008111810160118300833FBF6A
:1082F00001E0009320032FBF37C000912D18002309
:10830000B9F02FB7F89400912003002369F43FB728
:10831000F894E7E1F3E000811181016011830083AB
:108320003FBF01E0009320032FBF00E000932D1812
:1083300000E00093F81804E00093420106E1009386
:1083400042010091F718ECE4F1E000810F7700831F
:1083500002E00E94B3CFECE4F1E00081006800830A
:10836000EEE600810062008389919991A991B9910B
:10837000499008956A925A924A929A938A930E94D7
:10838000833E009141010F71093109F09DC0209198
:1083900058184090E3090091420102950F7006952C
:1083A000009330180091F518033009F408E010919B
:1083B000F51810934201109141011F710117D9F76F
:1083C0000093F71800913018033029F0009130180D
:1083D000053009F05CC0222309F459C05524421A23
:1083E000550880915518909156180CE41DE120E035
:1083F00030E0652C660C660848EE53E02224569D5A
:10840000702D469D700D559D602D710D469D600D22
:10841000711D549D502D610D721F459D500D611DA4
:10842000721F449D510D621F721F0019150B260B00
:10843000370B389F302D299F300D289F202D310D6F
:10844000199F200D311D189F102D210D321D099FE0
:10845000100D211D321D089F110D221D321DC90155
:1084600002E0400E521C08EE13E0149D102D059DF5
:10847000100D049D110D800D911F0E94CDD49C0103
:1084800001E00E94B3D403E00093F61845C000E079
:1084900000935718E2E2F3E00081086000832FB7F1
:1084A000F89400912003002369F43FB7F894E7E1C2
:1084B000F3E0008111810160118300833FBF01E07F
:1084C000009320032FBF28C0009141010F71063196
:1084D00019F5EEE6F1E000810062008300912D18AD
:1084E0000023B9F02FB7F89400912003002369F41A
:1084F0003FB7F894E7E1F3E0008111810160118357
:1085000000833FBF01E0009320032FBF00E00093F2
:108510002D1800E00093F81889919991499059908D
:1085200069900895E1E5F1E000810F7B0083F0930D
:108530005D18E2E2F3E00081046000832FB7F89455
:1085400000912003002369F43FB7F894E7E1F3E0DA
:10855000008111810160118300833FBF01E000931E
:1085600020032FBF089500934E01089500914E01FE
:1085700010E010934E010895009130180A9559F0BB
:108580000A9559F00A9529F0025039F0025029F065
:1085900006C001E0089500E0089502E0089503E0B8
:1085A00008950091F6180050F9F10A9531F00A95F6
:1085B00099F10A9509F456C00895009141010F718F
:1085C000093009F051C0EEE6F1E00081006200835D
:1085D0000E94CDD406E10093420100912D180023A2
:1085E000B9F02FB7F89400912003002369F43FB746
:1085F000F894E7E1F3E000811181016011830083C9
:108600003FBF01E0009320032FBF00E000932D182F
:1086100000E00093F8180895009141010F710631B0
:1086200019F50E94CDD409C0009147010093591853
:10863000E2E2F3E00081006400832FB7F894009138
:108640002003002369F43FB7F894E7E1F3E00081E9
:1086500011810160118300833FBF01E0009320037B
:108660002FBF08950E94A147089520E00DC021E08A
:108670000BC022E009C023E007C008D020E021871A
:10868000228722E0208701C002D0BDC025E0F8018A
:10869000228308958A93219700E0ECE1F3E00083C0
:1086A00001830E94BB498FB7F8940ED011F402E009
:1086B00001C000E00093210300E07ED0008301832D
:1086C0008FBF2196899108958E010E948A440023CC
:1086D00008950E945D25229780E09FB7F894ACE151
:1086E000B3E080932003F0DF41F0009121030230DA
:1086F00011F48093210381E00AC061D000951095A8
:108700005BD02081318120233123208331839FBF9F
:10871000882309F04DC001E00093210308810A304D
:10872000D1F48D919C91119702C080819181082F85
:10873000092BA1F0FD0102811381FC0142810E94FD
:108740005424017091F39C018D010E9458389E01C0
:108750008C0164D001C0A8D00023E9F48E010F5F22
:108760001F4FB3DF51F42FB741D009F53FB742D0C7
:108770003FBF01E0009320031AC000915718002367
:10878000B9F40D911C91012B11F01ED011C000E025
:10879000009321030DC0013059F42FB7F8940FD086
:1087A0000BD040815181402B512B408351832FBFEF
:1087B0002296E4E00C946E25E2E2F3E0089548810D
:1087C00001E010E00C944F242FB7F894F5DF0181FD
:1087D000046001833FB70AD031F44FB70BD04FBFCD
:1087E00001E0009320033FBF2FBF0895F89400914C
:1087F00020036DCFF894E7E1F3E00081118101607F
:1088000011830083089598010CE113E00E941F3842
:1088100000912103002309F4D7DF0895BA93AA93A6
:10882000F801D90100E01281112389F01A95A1F015
:108830001A95B9F01A95D1F01A95E9F01A9501F147
:108840001A9519F11A9539F11A9529F12AC08F0153
:108850000E94364713E01DC08F010E94FC4614E0C1
:1088600018C08F010E94034915E013C08F010E94B8
:10887000DC4716E00EC08F010E94FE4912E009C0DD
:108880008F010E94484A18E004C08F010E94804A6C
:1088900019E01C9306C08F010E94BC4A1BE0FD0139
:1088A0001083A991B991089510E0002399F00A95D9
:1088B000A1F00A9509F10A9599F00A95A1F00A9597
:1088C000A9F00A95B1F00250D1F00A95D9F0025002
:1088D000E1F01EC00E9480481AC00E94834817C061
:1088E0000E945B4714C00E941B4711C00E945D4953
:1088F0000EC00E94ED470BC00E941A4A08C00E9499
:10890000644A05C00E949E4A02C00E94F34A102F8A
:10891000012F08955B2F0A2ED80131E0E2E2F3E047
:1089200000811181012BB1F020E060817181028111
:10893000138160237123422F01E010E00E944F2435
:1089400060237123672B19F02C9330E003C023952B
:108950002C3058F3032FA02DB52F089505D2D80140
:10896000290128D22F5F3F4F0F5F1F4F10D1F20117
:108970000381FD0103830181077029F00A9529F025
:10898000025029F0D6C001E003C002E001C000E0BF
:108990000C93728124E0072F029F012D013009F40E
:1089A000C8C0769576957370672F713009F4C1C091
:1089B000A2014C5F5F4F9D012A5FACD10C5FD9D003
:1089C0000C5F802FFD01628104E0609F612D0181B9
:1089D00006FF05C06460048115810687178790E053
:1089E000A201480F591F9D01205F94D1025FC1D0A1
:1089F000800FF201E80FF91F0C91002309F048C025
:108A000083959201280F391F00810A9579F00A9504
:108A100091F00A95C1F00A95E9F00A95E9F00A95F6
:108A2000E9F00A95E9F00A95F1F083C004E00C93AF
:108A300041E0A9D075C005E00C93BCD18D01085E62
:108A4000A8D0028F23C006E00C93F9010081FD013C
:108A5000008F1CC007E005C008E003C009E001C0AA
:108A60000AE00C935DC00BE00C9342E08CD08E5F6B
:108A700097D0065E8ED0048F839592D0035E7BD014
:108A8000FD0131D109F04CC086D0078F839548C0D5
:108A90000130E9F58FD19F018D01075E6CD041E077
:108AA00080D0055E6CD0038D077091F074D0048F78
:108AB000839500E008C09201280F391F0FD1258F40
:108AC000368F8D5F0395FD01138D1770011798F395
:108AD00041E067D0055D53D003A5077041F042D057
:108AE00004A715A703A50770000F800F02C094A765
:108AF00095A703A50295077041F034D006A717A7E4
:108B000003A506950873800F02C096A797A72ED0DD
:108B10000250081B0395FD0102AB24D000AB11AB42
:108B200025D010E0E02FF0E032970197E817F90721
:108B300014F400E014C0F201E00FF11F0181FD0107
:108B400003AB14D0E00FF11F0281FD0104AB0ED086
:108B5000400E511EF2010381FD0105AB01E0E6E08C
:108B60000C946C258201080F191F0895F2010081F1
:108B700008951F4FD8C01F4F0AD08E5F089506D0AA
:108B80008395FD01089550E08D01085E1F4F0C9400
:108B9000BDDDFCDF8E5FF201E80FF91F0081F1CF30
:108BA00042E050E09201280F351F8D0108950E9488
:108BB0005C25C801F80100810A9539F00A9529F071
:108BC000025080F0085020F00DC002A9002351F49B
:108BD00003E518E100AB11AB04E518E100AB11AB04
:108BE00000E002ABA0A9B1A94A2E00810A9589F044
:108BF000035029F10A9539F10A9551F10A9561F16D
:108C00000A9561F10A9561F10A9561F10A9561F1A0
:108C10003AC0038D077071F000E005C013975ED075
:108C2000158D1C930395FC01138D17700117B0F37C
:108C3000048D0E93038D5FD0275E73D024C0008D0A
:108C40000E9301E01FC0028D0E9366D002E01AC0A1
:108C5000008D0E9303E016C004E014C005E012C0BE
:108C600006E010C007E00EC03ED011F4078D0E9351
:108C700043D0235E56D0FC01048D3DD0265E51D0FA
:108C80004BD008E00E93FC01028124E0029F012DED
:108C9000118116FF03C00460602F01C0612DAC017B
:108CA000405F5F4F9C01225F2CD062816695669584
:108CB0006370AC014A5F5F4F9C012C5F22D003813F
:108CC0001AD02F5F2ED04A1AFC0112A9410E042D92
:108CD0000E5F0E938D01E5E00C946D2512E0019F6F
:108CE000E00DF11D089502810695069506950695FD
:108CF0000370013008950E93129742E050E09C01FA
:108D0000089508D035D010E001951040A00FB11F94
:108D1000FC0108953F4F49CF129742E050E09C017B
:108D2000285EF8DF34CF20D02901CA01A0E030E06E
:108D300062FB0EF431E06B7F625019F06A9519F016
:108D400011C0A2E001C0A8E020E0332321F4D5DF68
:108D50001EDFAE5F22E04A2F50E030E0280F391FBF
:108D6000820115DF0A2FFBCE0C945B258D010FCFFE
:108D7000FBDFD80129019A0180E090E062FB0EF44C
:108D800091E06B7F625019F06A9531F011C0129733
:108D900011D0ECDF82E005C0189748E050E0E6DF34
:108DA00088E0992329F406D0920112978D01E4DE20
:108DB000082FD5CE42E050E008951093541802D009
:108DC0000C94983C13E001C018E0002319F00A95B8
:108DD00019F003C019E101C016E1012F089518E050
:108DE000085041F00E5021F0035029F410E003C068
:108DF00011E001C012E0F1CF0E945D25D80180E0B2
:108E00009091F718F80103810E94E446901729F029
:108E100014E0FD01038121D031F4FD0104811581AD
:108E2000268120D004C0E1E3F8E1A083B183082FBC
:108E3000E4E00C946E250E945D25E1E3F8E1A08159
:108E4000B18114E013960C91139707D029F414966E
:108E50000D911D912C9106D0EACF0E94DD46802F06
:108E600000230895F8012CBF19940895BA93AA938A
:108E7000D801D9960C91D9970E94E2460093F51833
:108E8000E1E3F8E1A083B1830091E309009358186E
:108E90000E9401DEE5E5F8E1008311830091F718F7
:108EA000093119F48D017ED003C001E0028339D06D
:108EB000A991B99108950E945D25229780E0E1E390
:108EC000F8E1A081B18100915718013021F429D037
:108ED000802F002309F50E94903E0E94663E00E02C
:108EE000088309830E94BC42FD0105AF8D01035C2C
:108EF0001F4F42AD53AD64ADFA016CBF199520917F
:108F0000E30930E000915818201B30402883398352
:108F10009E010DE30E94D337082F2296E4E00C94C3
:108F20006E258D0104C000E00093571808959A93B0
:108F30008A93C80131D011F48C0134D08991999170
:108F40000895299703E008838E010E94924C0981BD
:108F5000033021F40E94BC42013029F0E5E5F8E13C
:108F600003810A9503830E94AED416D059F402E01F
:108F700000935718E1E3F8E10081118119D00E94B4
:108F8000F03C08C001E000935718E2E2F3E00081F2
:108F9000086000832996089513E000E00E94DD46F2
:108FA0000023089522E02093571802D00C94F03C3F
:108FB0000D5F1F4F0C94D7459A938A93C80100E028
:108FC0001091F718163131F40E94743CE1E3F8E196
:108FD00080839183899199910895BA93AA93A1E38B
:108FE000B8E1ED91FC910091591806838F010A5F59
:108FF0001F4F438154816581FA016CBF199500E0D0
:10900000A991B99108950895F8014081518144834F
:1090100055834683578340875187420F531F4287AA
:10902000538720E022832383089522972BED38E194
:1090300000E010D000E013D00BED18E1E5DF27EEE3
:1090400038E103E207D00EE20AD007EE18E1DCDFD8
:109050002296089512E00E94CA3B9E01089511E0F5
:109060000E94DD3B28813981089544D0F801EF51F9
:10907000F74E008111810F5F1F4F0895BD0134D05D
:109080000FB7F89426813781D9014C91240F351FF1
:109090002F5F3F4F268337835C932681378140853E
:1090A00051852417350761F4248135812087318764
:1090B0002081318124833583208131812683378348
:1090C0000FBFDB0108959D010FD0A681B7810281FA
:1090D0001381A017B10729F00C91002311F001E0D2
:1090E00001C000E0D9010895EBEDF8E103D0E00FF5
:1090F000F11F0895402F50E00CE010E00C9445243F
:109100008A9301E002C08A9300E02CD0802F03D024
:10911000082F8991089501E05FD029F0E2E2F3E0A1
:109120000081016009D000E057D029F0E2E2F3E0CD
:109130000081026001D0089500832FB7F894009158
:109140002003002369F43FB7F894E7E1F3E00081DE
:1091500011810160118300833FBF01E00093200370
:109160002FBF08950E945B25E697802F35D079F1B7
:10917000082F0E9435482801F801008110E0D20133
:10918000A00FB11FFD01128101812AD0FD010183D1
:1091900092018E010E94AE440023B1F009811A8130
:1091A00007761C70012B19F40091F809088FE9E18A
:1091B000F3E000810E7F00838E010E94A658E9E152
:1091C000F3E0008101600083082F0E943E4800E028
:1091D000E696E6E00C946C250E946348002308950F
:1091E000113210F010E203C0112309F411E024E061
:1091F000029F119E0FEF10E0A0010E94452440E65F
:1092000050E00C945C240E945D25D80180E000E0D1
:1092100030E0EA2FF12F2381122F1458A1F01C56B1
:1092200098F0135080F01D5071F0125068F01350F8
:1092300050F0195448F0135030F0125021F01650ED
:1092400011F0165109F431E010915A183323A1F0AE
:10925000213F59F4248130915C18231761F0209349
:109260005C1825D041F411E007C0293521F01FD04A
:1092700019F412E001C001E010935A18112329F4E7
:10928000002339F48D0165D001C02AD0802F8823B6
:1092900031F4FD010485158526851FD004C0E1E366
:1092A000F8E1A083B183082FE4E00C946E252091AF
:1092B000F71820935B18263108950E945D25E1E39D
:1092C000F8E1A081B1810CD0802F002329F41C96F5
:1092D0000D911D912C9101D0E6CFF8012CBF19946E
:1092E0008D0106C000E000935A1800935C180895A1
:1092F0000E945C25C801B0E0A0E000915A1801303E
:1093000015E039F401E020D039F4B0935A18B1E0F7
:1093100004C000E019D009F0A1E0BA2B89F48C0157
:1093200018D0402E00915A18023051F400915B1869
:109330000E94EF4615E00E94DD4600E000935A18B7
:10934000042DE5E00C946D250E94DD46402E00239F
:1093500008952997F801038108839E012F5F3F4FED
:109360003496890148E050E00E9432258E010E9427
:10937000083D2996089560970E94EE3D02E0088717
:1093800000E00D870E870F8709870A8701E00F83AA
:109390008E010E942B3F0B851C850E94C0DE0E941F
:1093A00015480E9403480E9472490E9435470E9456
:1093B00093470E94444A0E947F4A0E94BB4A0EE49F
:1093C00008830091E209098316D00FE40883009115
:1093D000E409098310D009E508830091E3090983B2
:1093E0000AD000E504D003E502D060960895088312
:1093F0000FEF09830A838E010C94083D0E945E25BD
:10940000C801F801008511852285EBEFF8E10083A2
:109410001183228329D019F00A9521F007C02AD0A0
:10942000199504C0E1E3F8E1808391830A2FE3E01A
:109430000C946F250E945E25A0E000915D1800232A
:1094400041F4E1E3F8E1808191810ED061F412D022
:1094500009C0A0935D18EBEFF8E100811181228132
:10946000F8012CBF1995E2CF8C010E94E93EA02F94
:10947000002308958C010C5F1F4FFC01458156812C
:109480006781FA016CBF089500E000935D180895AC
:109490000E945E25C8010E942B3FA02F002319F0D7
:1094A0000A9551F00DC08C01075F1F4FFC014585E7
:1094B0005685678521D004C0E1E3F8E1808391837C
:1094C0000A2FE3E00C946F250E945D25E1E3F8E1AB
:1094D000A081B1818D010E942B3F802F002341F498
:1094E0008D01075F1F4F1D964D915D916C9104D0CA
:1094F000082FE4E00C946E25FA016CBF19940895CE
:109500000E945D25D80101E0EA2FF12F06830A2F82
:109510000E94CB3F802F002319F00A9539F00AC032
:1095200000E0FD0106838D011ED004C0E1E3F8E1F7
:10953000A083B183082FE4E00C946E250E945E2581
:10954000E1E3F8E1808191818C010E94CB3FA02F63
:10955000002329F400E0FC0106838C0104D00A2FCB
:10956000E3E00C946F250A5F1F4F438154816581AE
:10957000FA016CBF199408950E945D25D80180E01E
:10958000F801818703811481202F212B09F10034F8
:109590001040F0F403811481005C1E4F0383148398
:1095A0000281075019F00A9589F012C03CD0802F33
:1095B000082F882319F00A9571F011C000E0FD0111
:1095C00001878D01075F1F4F31D009C029D0EFCF30
:1095D00001E00187F3CFE1E3F8E1A083B183082F35
:1095E000E4E00C946E250E945D2580E0E1E3F8E163
:1095F000A081B181FD010281075019F00A9559F04F
:109600000CC011D0802F882329F48D01075F1F4FD4
:10961000FD010CD0E4CF04D0F5CF01E00187F5CFF8
:109620008D010C941A408D010C940D404681578198
:109630006085FA016CBF199424979E0119D013D04C
:10964000012B022B032B19F404EF11E00AC014D0F4
:1096500040EC53E060E02AD0A80160E070E003D065
:1096600028D024960895088119812A813B81089584
:1096700002E010E00C94DD3BEED110E020E030E0A1
:1096800008959A938A9310D0402F60E020E030E054
:10969000489F8001949F100D211D361F40EC53E020
:1096A00005D0899199910895C801D5C170E0F3D290
:1096B00048EE0C94B624BA93AA93A9EFB9E00BE054
:1096C0000093F80900E018EF2FEF37E00D931D939A
:1096D0002D933C9314962DEF39E003E0CADF0091FF
:1096E000FD0988D22DEF39E003E019D100E00093A5
:1096F000FF0938D20D931C93D697A9D10092020A84
:109700004FD20093030A06E310E00D931D931D93BF
:109710001C9314961093CF091093D00901E0009385
:10972000D1091D931C9313961093D4090E9401DE56
:109730000093D5090FEF0D930D930D930D930D939A
:109740000D930D930C9311960D930C9316960E9406
:1097500001DE0093E00905E00093E10904E00093D5
:10976000E20903E00093E3090093E4090FEF1FEF20
:109770000D930C93149600E20093E70900E0009328
:10978000E8090093E9091D931C930093F4090093E1
:10979000F50907D2A991B991089568D22497D80103
:1097A00080E00C91E0E0F0E0FBBFF4E40C94E224F4
:1097B000AFD00093D009A9C0AED007831087A5C051
:1097C000A7D0053308F09CC00093D4099EC0A0D058
:1097D0000093D5099AC0119606ED19E035C09BD0CB
:1097E000038B148B92C094D00093E0098EC090D06C
:1097F000063008F085C00093E20987C00091E109B6
:10980000FD011181011708F47BC01093E4097DC0AC
:1098100082D0028F138F79C07BD00093E80975C086
:109820007AD0078F10A371C073D012812ADF08830A
:1098300019832A833B839E0102C011969D0102E099
:1098400048C011960CEE19E0FD01F4D05EC060D066
:109850000093CF095AC05CD0083008F051C0009383
:10986000E30953C055D00093E7094FC051D000938E
:10987000E1094BC04DD0003108F042C00093F70918
:1098800044C046D00093F50940C00C91002369F014
:109890000A95C1F10A95A1F00A95E9F00A9511F12E
:1098A000015090F1035070F12FC0C8D0FD014181EB
:1098B0000E94B324017021F101810093F8091EC0B8
:1098C00027D0005E0034E0F4018194D12DEF39E01F
:1098D00003E025D01AC01CD0045090F401810093FD
:1098E000FE0913C015D0035030F0025021F00F5084
:1098F00011F0025029F401810093FF0952D105C0F3
:1099000088EE03C08BEF01C084EF082F2496ABC113
:10991000FD0101810895FD010181128120C110E046
:109920000C94FC3BA3D1D80180E00C91EAECF0E070
:10993000FBBFF4E40C94E2240091D0094BC00FD19A
:109940000781108522C00091D40944C00091D50937
:1099500041C0E6EDF9E022C002D10389148915C0A7
:109960000091E00937C00091E20934C00091E40998
:1099700031C0F5D0028D138D08C00091E8092AC0CE
:10998000EED0078D10A101C057DE5ED0128328C033
:1099900011969D016DDE24C0ECEEF9E011968D016B
:1099A00049D01EC00091CF0915C00091E30912C033
:1099B0000091E7090FC0FD01818312C0D0D0008162
:1099C00011812281338140D012832383348308C0E4
:1099D0000091E10939D004C00091F70935D084EF36
:1099E000082F41C10091F509F5CFC1D0ECCF0C9102
:1099F000002369F00A95A1F00A9561F00A9569F0D3
:109A0000025081F00A9581F00A9591F0E8CF00911B
:109A1000F809E0CF0091FD09DDCF0091FE09DACF12
:109A20000DD0D1CF9FD0B1CF12D0FD010182D8CFC0
:109A3000B7D0D0CF48E050E00C94322590D006A5A6
:109A400017A520A931A90895FD0101830895B9D072
:109A500015E0019F0895C9D049F0125071F01350DC
:109A600079F01F5079F0125079F0089505A5002380
:109A700049F00B3028F409E1089505A5002321F0F1
:109A800000E1089502E3089508E208950E94532535
:109A9000442455246624772462D0018C8688A788C4
:109AA000082D10E000191040BB240A15140514F409
:109AB000C80102C08A2D90E0A92FAA0FAA0BBA2FC5
:109AC000082F092B0A2B21F481E090E0A0E0B0E000
:109AD000E0E00CC0402D4E0F4A9545D0212F220FBB
:109AE000220B400E511E621E721EE3958C019D01D9
:109AF00001501040204030400E17104020403040B0
:109B000048F730D068018A94482D2DD0015010407C
:109B1000A801110F110B612F712FAFDDA81A0A2DAB
:109B2000190B2A0B3B0BB7D0400E511E621E731E41
:109B300004E1A3DDA201B301AED0C801D9018C0DAF
:109B40009D1DAB1DBB1D98DDAC01BD01A4D048EE31
:109B500053E060E070E0ADDDEEE00C946425EBECEA
:109B6000F9E0089511C002E010E00C944F249DDD4F
:109B70006091E70970E020E030E0609F800140ECF8
:109B800053E060E088D094CD9A938A9360DF802D73
:109B900090E006D010E8019F800D911D8C0181CDD1
:109BA00010C09A938A93DEDF7FDD10E0AC010E9443
:109BB000452448EE53E00E945C2403950093F60987
:109BC00070CD13D049F0125071F0135061F01F5056
:109BD00041F0125041F0089505A5002311F00B301B
:109BE00010F408E0089502E0089500E0B8DF14A939
:109BF00011230895033014F013E01DC00B3F11F042
:109C00000A3F11F41BEF17C0093F11F0083F11F490
:109C100019EF11C0073F11F0063F11F417EF0BC009
:109C2000102F125F143010F414EF05C0023F14F42B
:109C30001FEE01C0102F1093FD0908950CEE19E0DE
:109C4000089514D0F801ACEEB9E00D911D912D915D
:109C50003D914D915D916D917C910E94AA2511F4E9
:109C600001E001C000E0E4E00C946E250C945D2559
:109C7000FDDFC801D90194DF08D0C801D90115DD85
:109C800004D048EE53E015DDEECF402F50E060E009
:109C900070E08C019D010C948824BA93AA93D8019A
:109CA00098012D5F3F4F02E098D0CDD0012B022BC1
:109CB000032B51F404EF11E00E94414B13960D93D6
:109CC0001D932D933C93169700E017960C931797CE
:109CD00045D1002321F00DEB18E10E947ED69D01B5
:109CE0000BEB18E10E941F388D010E94A660A9911C
:109CF000B9910895BA93AA9310E0ABEBB8E101C013
:109D0000DF01ED91FC912E2F2F2B49F022812D3078
:109D1000B9F727892017A1F78F019CD011E0012FF7
:109D2000E6CF9D018DD001C0FD0180D011F083D020
:109D3000D9F38D01D90108950E945B25219728014F
:109D400090E07ED0A081B18109C092018D01ABD09D
:109D5000902F992341F50D91BC91A02F0A2F0B2B29
:109D600069F59E0107E239D0288111E0092F01270A
:109D7000202319F082010E94735F092F2196E6E0EB
:109D80000C946C25F201AFD0033029F7FD0100855A
:109D90001185228533854485558566857785F20151
