S02B0000416C6C5F4D65676152665F41746D656761323536726672325F384D687A5F4763632F4578652F417000
S2840000000C94B7260C949BF60C94C7F60C94F3F60C941FF70C944BF70C9477F70C94A3F70C94CFF70C94FBF70C9427F80C94FE260C94FE260C94ABF20C94FE260C9401F30C94FE260C94FE260C94FE260C94FE260C94FE260C94FE260C94FE260C94FE260C9459F90C9465F50C9408F50C9437F50C94FE260C94EAF80C94C1F80C94FE265B
S2840000800C94FE260C94FE260C94FE260C94FE260C94FFF50C94A2F50C94D1F50C945AF80C94FE260C94FE260C941AE40C947DE60C94FE260C94FE260C94FE260C94FE260C94FE260C94FE260C94FE260C94FE260C94FE260C94FE260C94FE260C94FE260C94FE260C94FE260C94FE260C94FE260C94D9E60C94FE260C94FE260C9401E7F0
S2840001000C94FE260C94FE260C94FE260C94FE260C94FE260C94FE260C94FE260C9429E70C94FE260C94FE260C94FE260C94FE260C94FE26000000000000000000000000000000000000000000000000000000000000000000000000000000000000000000000000000000000000000000000000000000000000000000000000000000009A
S2840001800000000000000000000000000000000000000000000000000000000000000000000000000000000000000000000000000000000000000000000000000000000000000000000000000000000000000000000000000000000000000000000000000000000000000000000000000000000000000000000000000000000000000000FA
S284000200000000000000000000000000000000000000000000000000000000000000000000000000000000000000000000000000000000000000000000000000000000000000000000000000000000000000000000000000000000000000000000000000000000000000000000000000000000000000000000000000000000000000000079
S2840002800000000000000000000000000000000000000000000000000000000000000000000000000000000000000000000000000000000000000000000000000000000000000000000000000000000000000000000000000000000000000000000000000000000000000000000000000000000000000000000000000000000000000000F9
S284000300000000000000000000000000000000000000000000000000000000000000000000000000000000000000000000000000000000000000000000000000000000000000000000000000000000000000000000000000000000000000000000000000000000000000000000000000000000000000000000000000000000000000000078
S284004400F91316001900EC1103001800280DBD0017009B18010016004F1908001500DC1801001400D318020013003F1901002600E21801001E00D21801000F00591901000E00431901000D004B1902000C009C1801000B00961802000A00B91811000900AF1801000800AE1801000700AD1801000600401901000500491901000400911856
S28400448004000300CA18080002008F1801000100731808000000A44712002E00C84715002D00F24719002C00244804002A002C4811002900DF28392B592B7A2BB02BBC2B982BB62BC22B042C31294B296F299929392A602A7B2A962AB12AD12AEB2A062B212BCA2B5C5579549A559A559A557E5488549A559A5590549554BD54C6549A559A
S284004500CB54D354DD549A55E654EB549A55F4542F5541559A5534553C555C555C555C5553555355535553555355535553555355535553555355535553555355535553555355075553559A559A559A559A559A559A559A559A559A559A559A559A559A559A5553554E555C555355015546555E555C55755583558A555C555C555C55F656D3
S28400458063563D573D573D5769566E5611573D577156745685568A563D578D56905693563D5798569B561157A056EA56FF563D57ED56F0566756F356F35611571157115711571157115711571157115711571157115711571157115711571157D05611573D573D573D573D573D573D573D573D573D573D573D573D573D573D57115707570A
S2840046000A571157C8560257195722571C571F573D57305735573B57425844584F58465848584A584C5821585258545821585758AC58AF58B358B658BA58BE58C158C558C558215D5F5D5F5D5F5D285D455D365D3D5D705D2F5D4C5D4C5D535D5F5D675D6B5DCB5DCE5DD15DD15DD35DDD5DD75DDA5DEA5DD55DE05DE25DE45DE75DD35F1A
S284004680D65FF75FD95FDD5FF75FE15FF75FEC5FEF5FF55F5E630B641A6419636164616416641A641F644D643664616461644D644C634F64679C6F9C869CF89CF89C4F9C5C9CF89CF89CF89CA69CB59CD29CDE9CF89C4C9C7A9C189CE5A0E5A00EA016A016A023A023A040A040A040A09EA09EA09EA039A1E5A0E4AE36AF0AAF0EAF0EAF01
S2840047000EAF0EAF0EAF12AF12AF71C274C215C315C379C215C383C26CC36CC36CC36CC36CC36CC36CC36CC36CC315C315C36CC36CC27EC215C3F2CD40CE40CE40CE40CE40CE2FCE19CE37CE40CE29CE40CE33CE3BCE16D0F1D0CED1F9D138D264D3ADD38FD98FD98FD98FD98FD98FD98FD98FD98FD9E4D2F2D28FD98FD919D3B0D197DB91
S2840047809FDBB1DBBADBBCDBBEDBC0DBC3DB96DC0EDD0EDDBCDCC5DCD5DCDEDCE1DCE4DCE7DCEDDC00000100020003000400050006000700080009000A000B000C000D000E000F001E00180000000100020003000400050006000700080009000A000B000C000D000E000F001E001300140015001600000001000200030004000500060010
S2840048000700080009000A000B000C000D000E000F001E0013001400150016001700180019002600130014001500160000000100020003000400050006000700080009000A000B000C000D000E000F001E00910B0000280D0000820C0000E50D00001C0D0000000000000F0E000079130000D113000023110000751100003F110000AC113C
S2840048800000EF110000331300000000000000000000EC110000F913000000000000000000000000000000000000000000000000000000000000000000000000000000000000000000000000000000000000000000000F14000037140000160C0000D64A0200DA4A0100DD4A0100DB4A0200E04A0100E14A0100E24A0100E34A0100E44A5E
S2840049000100E54A0100E64A0200DE4A0200E84A0100E94A0100024B0200F34A0100F44A0100F54A0100FE4A0400EA4A0100EB4A0400EF4A0100F04A0100FA4A0100FB4A0100FC4A0200000000000000000000000000000000000000000000000000000000000000000000000000000000000000000000000000F14A0100F24A0100044B68
S2840049800100054B0100064B0100074B010000000000F64A0400D84A0200731808007D1801008B1804008F1801009118040047190100481901004F1908004B190200D3180200DC18010043190100591901004919010098180100991801009A1801009B180100961802009C1801009D18010045190100441901004E1801004F180100CA182D
S284004A000800B0180400A5180400A9180400AD180100AE180100AF180100B918110040190100B4180100B51804003D18010050180200D21801009518010000000000000000003E18010000000000000000000000000000000000000000000000000000000000000000000000000000000000000000009E180500A3180100A41801000000C4
S284004A8000000000000000000000000000000000000000000000000000007F180100000000000000000000000000000000000000000000000000000000000000000000000000000000000000000090180100851801007E18010085006C0001000007050007040205040204000308FF140000000108030303020A901A00000100000000003A
S284004B000303141061620003001E000003F400800000013412000303000002000000000003034C1D000010270000000001E803000004E80300001041746D656C202020202020202020202007CAAAAAAAAAAA1A0002030100000000000000000000000000000005FF0000000000000000000000000000000000000000000000000000000031
S284004B8000000000000000000000000000000000000000000000000000000000000000000000000000000000000000000000000000000000000000000000000000000000000000000000000000000000000000000000000202010002020508080000FFFF341200000000000000000202012346824B00000000000000000000000002A182EE
S284004C007F7D0107E99D2B780101E99D2B780101608292950101E581F1A40101E581C0A401079A811B78010142810D8B010100000000010700000000010100000000010300001570010400001570010500000000010600000000010D000000000101E99D0000000100000000010E00000000010700000000010A000000000100000000000A
S284004C8001010000000001010000000000000000087C00090000087C000C0000087C00000000087C00A37E7584A89B6CAEA87ADEA1B87F5E802E791B87648D417C1AA53F7FAD799678000000006078E38600000000CA6DDA70606E356E596E0000D16DDF6D4E6ED86DD070886DCC6FD36F4270C46F676E00002A7102010203030202010114
S284004D00010101010101010202010101020102020202020201020202020202010303020203A3ACCFA2869B02A4000005AB8594BCAF00000000EEBC09C2C4CBD1C49FD9A3CA8EE88EE88EE88EE800EAC5E7DFF97CF22EE56CE411F1B1F3B5F042EFBDED8FE8E1E90DEB20E9DFE90BEB1EE90011248091BB1D823159F084B780FD04C08F71E3
S284004D808093BB1D07C081E08093BB1D03C081E18093BB1D14BE8091600088618093600010926000ECEBFDE18DEC01C0819390E7E030F907D9F3D0F311241FBEC0E0D0E7DEBFCDBF00E00CBF17E0A0E0B2E0EEEBFCEF01E00BBF02C007900D92AC3DB107D9F72DE1ACEDB7E001C01D92AB3BB207E1F70E94EE360E940437FDCF0C94000094
S284004E007F937FB7F8949D9AA5988AEF4DD08AEF4BD09D9886E448D081E0959980E08F9380EF42D08F917FBF7F9108957F937FB7F8949D9AA59886E037D09D988AE034D0889495990894881F8F9384E62DD08F917FBF7F9108959F937F9398E0E7DF879577959A959923D1F7872F7F919F9108957F937FB7F894A5989D9A8F9386E014D04A
S284004E808F91879508F49D988F9384E60DD08F919D987FBF7F9108959F9398E0E9DF9A959923E1F79F91089500000000000000008A958823C9F708955F937F937FB7F894CF93DF93C0E0D0E07F935091B2007091B2007517E1F3739521965091B2005717D9F77F91CE01DF91CF917FBF7F915F91089584E08093A8032FB7F8948091D8092C
S284004F009091D90990619093D9098093D8092FBF08958091DE078093A8032FB7F8948091D8099091D90990619093D9098093D8092FBF0895A0E0B0E08093E5079093E607A093E707B093E8076093DE078FED97E00C9414E80895FC01878581110AC069E878E081E290E00E941E3882E00E944E3704C067E080E494E0AFD62FB7F894809161
S284004F80D8099091D90990619093D9098093D8092FBF0895CF93DF93EC0180E00E944E3786E098E00E9414E86CA18EA19FA194D662E08CEC94E090D6DF91CF91089580E00C945A37089581E00C945A370895811104C060E288E494E07FD684E693E00C9443EC0895811104C062E28BE694E074D686E893E00C9443EC0895811104C060E287
S2840050008EE894E069D685E793E00C9443EC0895811104C06FE18FEA94E05ED683E593E00C9443EC0895811104C065E28FEC94E053D682E493E00C9443EC0895811104C06BE183EB94E048D681E393E00C9443EC0895811104C06AE183ED94E03DD680E293E00C9443EC0895FC018081811115C081E00E944E3789EF97E00E9414E81092D5
S284005080A8032FB7F8948091D8099091D90990619093D9098093D8092FBF0895813011F483EF03C0823019F485EF8093570B81E393E00E9425EC019621F46BE08EEE94E00BD681E393E00E945BEC019621F46CE08AEF94E001C60895811104C062E287E095E0FAD587E993E00E9443EC8091DD07882351F08091FD0A813831F06FE08AE2AF
S28400510095E0EAD51092DD078091DC07882341F08091FD0A82FD04C060E18AE395E003C06CE08BE495E0D8D51092DC070895CF93C82F80E293E00E9425EC019621F46BE08EEE94E0C9D580E293E00E9483EC019621F46BE088E595E0BFD5C13069F48091340B90E0982F88272091350B822B9093370B8093360B0EC0C23061F48091340B67
S28400518090E0982F88272091350B822B9093DF0A8093DE0ACF910895A0E0B0E0E2EDF8E20C94D5FB8091A80390E0FC013197E831F10508F0C3C4E65AFD4D0C94F9FA5DD580E197E2A0E0B0E08093F2079093F307A093F407B093F5071092F60789E797E29093F8078093F70784E690E0A0E0B0E08093E5079093E607A093E707B093E807A4
S28400520041E04093E90789E897E29093EB078093EA0784EF91E0A0E0B0E08093FF0790930008A0930108B09302084093030823EE37E2309305082093040880930C0890930D08A0930E08B0930F08409310088FED97E290931208809311080E9466378BE00BC08BEA97E2909388088093870881E798E00E94EBCA8CE08093A8032FB7F89414
S2840052808091D8099091D90990619093D9098093D8092FBF53C481E090E0909369088093680890936708809366088093650880916A08807F816080936A0885E698E090936108809360088AEC97E290936308809362088DE598E00E940C478DE0CDCF81E090E09093230B8093220B82E08093160B1092180B1092170B21E02093210B81E3D1
S28400530098E090932A0B8093290B8CE290E09093280B8093270B2093260B84E398E290932E0B80932D0B1092A8036FE080ED97E004C42091530B3091540B4091550B5091560B02E0E02E03E06DE283EF92E01BD52091470B3091480B4091490B50914A0B05E06DE283EF92E00ED52091430B3091440B4091450B5091460B08E06DE283EFD4
S28400538092E001D52091DA0A3091DB0A4091DC0A5091DD0A0AE06DE283EF92E0F4D48091420B882311F08DE201C08BE28093F50220914D0B30914E0B40914F0B5091500BD5E0ED2E0DE06DE283EF92E00DD52091E20A3091E30A4091E40A5091E50A14E0E12E03E16DE283EF92E0CDD42091FB0A3091FC0A40E050E008E16DE283EF92E036
S284005400C2D42091EC0A3091ED0A40E050E00DE16DE283EF92E0B7D42091510B3091520B40E050E002E26DE283EF92E0ACD42091EA0A3091EB0A40E050E007E26DE283EF92E0A1D4E3EFF2E0A1E3B8E081918D9313E0E032F107D1F78EEF9AE00E949D436CE283EF92E038D462E08CEC94E034D465C31092A8038FEF80933D0B81E1809381
S2840054803E0B85EE80933F0B82E78093400B8AE88093410B84E693E00E9425EC019621F465E184E695E018D484E693E00E945BEC019621F466E18AE795E00ED460E13BC31092A80380E28093FD0A87E993E00E9425EC019621F464E181E995E0FDD387E993E00E945BEC019621F465E186EA95E0F3D361E120C31092A80381E08093DD07B7
S28400550087E993E00E9425EC019621F464E181E995E0E2D387E993E00E9483EC019621F465E18CEB95E0D8D362E105C31092A80384EF8093FD0A87E993E00E9425EC019621F46AE181ED95E0C7D387E993E00E945BEC019621F46BE18CEE95E0BDD363E1EAC21092A80381E08093E00A80E18093E10A86E893E00E9425EC019621F468E1D9
S28400558088E096E0A9D386E893E00E945BEC019621F469E181E296E09FD364E188EE93E0CCC21092A8031092FD0A87E993E00E9425EC019621F46AE18BE396E08DD387E993E00E945BEC019621F46BE186E596E083D365E1B0C21092A80381E08093DC0787E993E00E9425EC019621F46AE18BE396E072D387E993E00E9483EC019621F411
S2840056006BE186E596E068D362E095C21092A80382E08093FD0A87E993E00E9425EC019621F46AE182E796E057D387E993E00E945BEC019621F46BE18DE896E04DD367E17AC21092A80385E793E00E9425EC019621F469E189EA96E03FD385E793E00E9483EC019621F46BE183EC96E035D368E162C21092A8038FE380934B0B86E88093B7
S2840056804C0B83E593E00E9425EC019621F465E18EED96E021D383E593E00E945BEC019621F466E184EF96E017D363E084EF91E044C21092A80381E280934B0B81EB80934C0B83E593E00E9425EC019621F464E18BE097E001D383E593E00E945BEC019621F465E180E297E0F7D28CEE97E00E9414E824C21092A8038CEE80934B0B85E0AC
S28400570080934C0B83E593E00E9425EC019621F468E186E397E0E0D283E593E00E945BEC019621F469E18FE497E0D6D267E02FC01092A80382E493E00E9425EC019621F464E189E697E0C8D282E493E00E9483EC019621F464E18EE797E0BED265E017C01092A80381E09ADC68E011C01092A80381E0DDDC66E00BC01092A80382E08EDC98
S28400578069E005C01092A80382E0D1DC66E184E690E0D3C180E880937C0010927B0083E880937A0024E130E060E070E0CB0140917A00406440937A0040917A0046FDFCCF4091780050917900640F751F811D911D215031092115310551F720917A002F7720937A0024E130E040E050E00E94BBFA66E0629FC001639F900D11249093EB0A70
S2840058008093EA0A6AE097C11092A803C091EE0AD0E0DC2FCC278091EF0AC82BD093FC0AC093FB0A6091F10A862F90E0A0E0B0E06627782F892F9A2F2091F20A622B6093F70A7093F80A8093F90A9093FA0A0E94E2FC20E030E040E857E30E946EFD20E038EB48E856E40E946EFD20E030EA4CE855E40E944AFC0E94AFFC60934D0B70938F
S2840058804E0B80934F0B9093500B6091F40A862F90E0A0E0B0E06627782F892F9A2F2091F50A622B6093380B7093390B80933A0B90933B0B0E94E0FC20E030E040E857E30E946EFD20E030E44CE156E40E946EFD0E94B4FC6093E20A7093E30A8093E40A9093E50A9E0140E050E065E0E62E01E065E187E692E047D220914D0B30914E0BC8
S28400590040914F0B5091500B6CE18BE492E06CD22091E20A3091E30A4091E40A5091E50A60E28BE292E02FD28091DE0A9091DF0A7DE3A72EE1E9BE2EF0E6CF2EA4EEDA2EB8E5EB2EC1E1FC2E00E010E09C0140E050E060E070E080E090E00E9424FB2F3F1FEF310715E841071EE951071EEA610719E2710715ED8107910569F060F04658F6
S2840059805E496E4A7942854D910929013A014B01D82FC92F08C0412C512C612C712C812C912CD0E0C0E0A12CB12C41ECC42E5FE6D52E62EFE62E76E8F72E03E210E09201A301B4018D2F9C2F0E9477FB2093430B3093440B4093450B5093460B9201A301B4018D2F9C2F0E9475FB2093DA0A3093DB0A4093DC0A5093DD0A6091360B70919D
S284005A00370B80E090E00E94E0FC20E038E449E85EE30E946EFD26E636E64BE352E40E944AFC0E94AFFC24E630E040E050E00E94DDFA2093530B3093540B4093550B5093560B6093470B7093480B8093490B90934A0BE3E0EE2E01E06EE185ED92E093D12091470B3091480B4091490B50914A0BF2E0EF2E05E06EE185ED92E084D1409138
S284005A80360B5091370B22E06AE18BEB92E058D12091430B3091440B4091450B5091460B01E068E283E992E06ED12091DA0A3091DB0A4091DC0A5091DD0A04E068E283E992E061D14091DE0A5091DF0A22E067E18CE792E035D12091E60A30E0322F22278091E70A282B3093ED0A2093EC0A40E050E0B5E0EB2E01E065E180E092E043D167
S284005B002091E80A30E0322F22278091E90A282B3093520B2093510B40E050E066E185E192E031D16DE283EF92E0D6D063E083E997E0D2D06EE081E090E0FCD9CDB7DEB7E0E10C94F1FB0895089508950895CF92DF92FF920F931F93CF93DF93E42FF0E0F09086092AEF30E02F1931092E173F0734F15091850920E030E0EC01C60FD11D56
S284005B800AEF10E02E173F07ACF4852F90E0BC016657774F6B01BE01620F731FDB015C91D6015C932F5F3F4F0196B8010E94A8FA582FE8CF50938509F40EF0928609DF91CF911F910F91FF90DF90CF9008951F93CF93DF931092B9091092BA0910918609112309F446C080918409E7E8F9E01333E0F4212F30E0CAEFD0E0AF014758594018
S284005C00421753075CF490E0DC01A657B74F4C9141930196BE010E94A8FAEFCF809384091093B9091092860918C02AEF30E090E0DC01A657B74F4C9141930196B9010E94A8FA99E0E93BF90791F78093840982E38093B90912531093860981E08093BA094091B90950E067E879E089EB9AE00E9476EBDF91CF911F91089588EC8093C40A5B
S284005C801092C50A89E190E09093C70A8093C60A86E08093C80A1092C90A1092CA0A1092D90A1092CE0A1092CD0A1092D00A1092CF0A1092D20A1092D10A1092D40A1092D30A87EE9DE29093D80A8093D70A89EB9AE00C9417EB0895462F2091BA09222319F060E034CF0895FC01A7E8B9E0633370F4862F90E09D01275839402817390754
S284005D001CF421912D93F7CF4093B9090CC021912D9329E0A93BB207D1F722E32093B909425362E314DF81E08093BA094091B90950E067E879E089EB9AE00C9476EB089570E030E0F9013396E617F707DCF463E070E0280F391FE42FEF70CA018F7099270A9710F480E301C087E38E0FF901E60FF71F808384E0569547958A95E1F7615069
S284005D80710948F70895A0E0B0E0E9ECFEE20C94D9FBF12CF701E00FF11DC62FD0E0CE17DF07ECF0C0E0D0E08C010E0F1F1F6AE0862E912CA12CB12C2197F701EC0FFD1F319669F06801CC0EDD1EB901CA01A50194010E94BBFA605DF6016083EDCFCDB7DEB7ECE00C94F5FBA0E0B0E0EAEFFEE20C94D9FBFC01C62FCA01B90110E057FD18
S284005E0002C02BE208C090958095709561957F4F8F4F9F4F2DE2DF01A00FB11F2C9398012F5F3F4FF12C2E0D3F1D4C2F50E04217530704F1C0E0D0E00E0D1F1D0E0F1F1FEAE08E2E912CA12CB12C21979E01215031092E0D3F1D37FD0DC06801CC0EDD1EA50194010E94DDFA605DF6016083B901CA01EBCFCDB7DEB7ECE00C94F5FBA2E086
S284005E80B0E0E5E4FFE20C94DBFB6C010091580B1091590BE12CF12C80915C0B90915D0BE816F906A8F45801B8016C5F7F4F42E050E0CE0101960E9428FE0A5F1F4F29813A812C153D0539F08FEFE81AF80AE4CF80E090E001C0C5012296EAE00C94F7FBADE0B0E0E6E7FFE20C94DDFB7C016B0123E0969587952A95E1F7FC01E85AF44F81
S284005F00228D30E0B70167707727062E02C0369527950A94E2F78E010F5F1F4F20FF42C027E0E2E7FBE0D80101900D922A95E1F7A0E020E030E04A2F50E048175907D8F4F801E40FF51F4081542F569555754575540F452F4695469543735373450F4083E42FEF7042954F7050E04E0F511D240F351FAF5FE0CFE0E0D801A80FB91F4E2FE2
S284005F8050E04617570780F44C9150E00E2E02C0569547950A94E2F741705527240F351FEF5FEDCF2FEF3FEF1B870A8746E0429FC001439F900D112404969987888786E090E09D878C8762E271E3CE01089672D18D819E81E816F90639F084E090EA90938C0B80938B0BE1D589819A81F601918380832D96E8E00C94F9FBA6E0B0E0E3E0A8
S284006000F0E30C94DFFB7C018B0180E090E0FC0133E0F695E7953A95E1F7EE0DFF1D6081AC0147705527262F30E0042E02C0369527950A94E2F720FF0DC021E030E001C0220F4A95EAF720952623208318DF009731F431C0019683339105C9F62CC046E050E0BC01CE0101960E9428FE89819A81F80193838283B8018D819E8131DFF8011D
S284006080808191810596918380838B819C819583848382819381892B39F480E090EA90938C0B80938B0B81D58D819E81F7019087878381E006C08FEF9FEFF7019087878380E02696E6E00C94FBFBA8E0B0E0EBE6F0E30C94D9FB7C01A0905A0BB0905B0BFC01868182FD09C000E010E0812C76E0972ECC24C394D12C0CC047E050E06FEF68
S28400610070E0C7010E9458FE6DC0882483940F5F1F4F80915E0B90915F0B0817190708F05BC0909EB001919E700D11246A0D7B1D46E050E0CE0101960E9428FE2D813E81F90163E0F695E7956A95E1F7EE0DFF1D408127703327842F90E0022E02C0969587950A94E2F780FFD2CFC60102C0880F991F2A95E2F79C01209524232083812CF7
S284006180882D90E02B813C818217930708F0BDCF880F991F69817A81680F791F42E050E0CE0107960E9428FE8F819885FC0153E0F695E7955A95E1F7EE0DFF1D87709927960102C0220F331F8A95E2F7C9019081982B90838394D4CF882021F000E010E0812C97CF2896ECE00C94F5FBCF93DF93EC018FEF9FEF98878F8387E0FB01DE015E
S28400620001900D928A95E1F7CE015FDFE2E7FBE091918881892389938BE0E937F807C1F7DF91CF9108958091860B9091870BA7C208951092830B83E191E39093850B8093840B08950895EBE6FBE0DC013D91CD012081232B2193BBE0E237FB07B1F78091880B84608093880B08950E943BEF882311F0DFD5FACF0895A2E0B0E0E2E4F1E37E
S2840062800C94E1FB8B0189839A83EFDFB80189819A810E945EEE019631F081E30232180721F4E3DF02C081E001C080E02296E4E00C94FDFBA2E0B0E0E0E6F1E30C94E1FB8B0189839A83D1DFB80189819A810E94EBED019631F081E30232180721F4C5DF02C081E001C080E02296E4E00C94FDFBA2E1B0E0EEE7F1E30C94D6FB8091880BFA
S284006300982F92609093880B82FF0AC06BE67BE08BEB99E06BDF8091880B8B7F8093880BCC24C394D12C7E013DE0E30EF11C55E0A52EB12C4E0182E1880E911CBE01695F7F4F8BEB99E059DE882309F462C06090C2097090C309F30163E0F695E7956A95E1F7E85AF44FC30187709927960102C0220F331F8A95E2F7C90180959389892311
S284006380838BFC82EB82BE82AD828F81988505979A83898362E271E3CE0101968BDF4B855C8569857A8580E05ED0582E8D8558123AC08889998968167906A9F52B853C858E859F852817390771F59C828B82DE82CD8200E010E02B853C850217130708F0ADCF2F813885200F311F3A83298362E271E3CE0101965EDFAB81BC81E985FA85AB
S284006400E00FF11F9C91808198130DC00F5F1F4FE2CF8091880B8D7F8093880B60E070E08FE001D21CC05D86798A688A8B859C859F878E87FC82EB8285E090E09E838D838F81988505979A83898368E771E3CE01079612DF62E271E3CE0101960DDF6296EFE00C94F2FBFB01460F571FE417F50719F09191890FFACF08954F925F927F92B2
S2840064808F929F92AF92BF92CF92DF92EF92FF920F931F93CF93DF93CDB7DEB762970FB6F894DEBF0FBECDBF80E094E49093590B8093580B86E994E490935B0B80935A0B06E914E400501444C80166E070E00E9494FA892B39F080E290EA90938C0B80938B0B63D326E030E0C801B9010E9494FA40915C0B50915D0B642B752B70935D0B3D
S28400650060935C0B04EB14E406591444C801B9010E9494FA892B39F081E290EA90938C0B80938B0B42D3C80166E070E00E9494FA80915E0B90915F0B682B792B70935F0B60935E0B0091580B1091590B1092600B1092610B1092620B1092630B87E0E2E7FBE0DF011D928A95E9F7D12CEE24E394F12C80915C0B90915D0B2D2D30E028178C
S2840065803907C8F546E050E0B801CE0101960E9428FE2B813C812B5F3F4F8091600B9091610BA091620BB091630B820F931FA11DB11D8093600B9093610BA093620BB093630B8D819E81FC0133E0F695E7953A95E1F7E85AF44F87709927970102C0220F331F8A95E2F7C901928D982B928F0A5F1F4FD394BECF26E0289F6001299FD00CF2
S284006600112434E0C30ED11CE12CF12CCE010796988B8F8786E090E09A8B898BA12CB12C00E010E096E0792E22E2822E20EA922EF80183E0F695E7958A95E1F7E85AF44F828D90E098012770332702C0969587952A95E2F780FF41C07A9CC0017B9C900D112404969E878D8762E271E3CE010D9621DE8B859C858017910749F48F819885AC
S284006680A985BA858C159D05AE05BF0559F01C870B87CF82D886E986FA8662E271E3CE010D96EADDC801EBDB2C01009729F490928C0B80928B0B79D246E050E0B201CE0101960E9428FE8B819C810596C80ED91EE11CF11C8FEFA81AB80A0F5F1F4F0333110509F0A5CFA5DD62960FB6F894DEBF0FBECDBFDF91CF911F910F91FF90EF900D
S284006700DF90CF90BF90AF909F908F907F905F904F90089520E0FC013191CF01311105C02F5F2730C1F780E0089581E0089527E0FB0111922A95E9F7FC0123E0F695E7952A95E1F7E60FF71F8770992721E030E001C0220F8A95EAF78081822B8083CB01B4CC0895A2E7BBE0FC013D912081232321932BE0A937B207C1F7CCCF0895A7E0DB
S284006780B0E0E5ECF3E30C94E2FBBE016F5F7F4FCEDFCE010196E6DFCE010196BBDF182F882339F0CE0101964EDD8091880B81FF9FDD812F2796E3E00C94FEFB08950895A2E0B0E0E6EEF3E30C94E3FB8091C4098823E9F0BE016F5F7F4F81E290E02ED4BE016E5F7F4F8DE190E028D48981823071F48A8181110BC08FED93E39093CD09EA
S2840068008093CC0985EC99E00E947FC702C00E9481E52296E2E00C94FFFB8091C40908950C943AF10895A0E0B0E0E9E1F4E30C94DBFBB82E7B01082F10E093E0169507959A95E1F78770C1E0D0E001C0CC0F8A95EAF7AC2E8FE38B1538F484E090E890938C0B80938B0BA1D1F801E253F64F80818C2311F1C091D609D091D70985E0C82E89
S28400688080E8D82E2097C1F0FE01E00FF11F82818A2171F02A853B85232B29F4D0928C0BC0928B0B82D1EA85FB85B7018B2D19950990D881C02DE6CFCDB7DEB7EAE00C94F7FBE82FF0E023E0F695E7952A95E1F7E253F64F208130E0877041E050E002C0440F551F8A95E2F72423352381E0232B09F480E00895282F30E043E036952795B7
S2840069004A95E1F7620F731F877021E030E001C0220F8A95EAF7FB019281922381E009F480E008951F93CF93DF93182FEB01803438F023E030E830938C0B20938B0B35D1BE01812FD8DF81112AC0BE0186ED99E09AD081110BC088E0FE013296DF011D928A95E9F7BE0186ED99E09DD0412F50E063E0569547956A95E1F7177021E030E0E4
S28400698001C0220F1A95EAF7C40FD51F8A81822B8A83FA01E253F64F8081822B8083DF91CF911F9108951F93CF93DF93182FEB01803438F023E030E830938C0B20938B0BF4D0BE01812F97DF882369F1212F30E073E0369527957A95E1F7177041E050E0012E01C0440F0A94EAF7942F9095C20FD31F8A8189238A83E091D609F091D70965
S284006A00309759F0DF01A20FB31F12968C91842351F40190F081E02DF3CFF901E253F64F808189238083DF91CF911F910895DC01ED91FC911197309721F0208131812D933C93CF01089561157105A1F0DC01ED91FC911197E617F70759F4208131812D933C930FC0808191818617970729F0FC013097C1F780E00895DB018D919C91918303
S284006A80808381E00895DC01ED91FC91309739F0E617F70731F00190F081E02DF7CF80E0089581E008950F931F93CF93DF938C01EB01E9DF882349F080E090E890938C0B80938B0B5AD080E014C019821882D801ED91FC911197309719F4CD93DC9308C080819181009711F0FC01FACFD183C08381E0DF91CF911F910F910895CF93DF93C0
S284006B00FC0182819381009781F40E9468E8C22FD32F0E94425744E0FC0121913191CF01C227D3274150C1F7CE010E941DFE81E08093AF0387EB93E00E9414E8DF91CF91089589EA93E00C94B35708958091AF03882369F087EB93E00E9444E88EE795E39093B6038093B5031092AF03EACF089587EB93E00C9444E8089582E090E0909375
S284006B808E0B80938D0B80918B0B90918C0B9093900B80938F0BE091890BF0918A0B309719F08DE89BE01995089583E090E090938E0B80938D0B80918B0B90918C0B9093900B80938F0BE091890BF0918A0B309719F08DE89BE019950895EF920F93FC01618372834F3740F081E090E890938C0B80938B0BC2DF20C0403808F04FE7440FCD
S284006C00808181700187842BE0FA80F9808334832383CB01AC016081669504962181328174E0679F200D311D11244217530720F4DC0111971C92EECF0F91EF900895A0E0B0E0E5E2F6E30C94DCFBEC018B01B42E0E9468E869017A018D819E81AF81B885A7019601281B390B4A0B5B0BCA01B9012B813C8140E050E00E94BBFA2F3F3105C5
S284006C804105510518F42223F9F001C02FEF89819A81BC0138813695049649815A81E4E03E9F400D511D11246417750748F4FC013291432F231708F4422F341B3083E9CFCD82DE82EF82F886A981BA814881842F86959D0154E0859F200D311D1124C901E0E0F0E0A817B907C0F413965C911397552359F02D913C9111972017310729F451
S284006D0012962C9112972B15C1F0309719F02381521708F4FD011496E5CF40FD06C0309771F0838181110BC002C0309751F011830083B2828985838304C080E003C082E001C081E0CDB7DEB7E9E00C94F8FBFECE08950895CF93DF936091C4037091C50380E090E0E1E0F0E09F01082E02C0220F331F0A94E2F74091D8095091D909462319
S284006D80572342235323452B11F16FB7F8944091D8095091D90920953095242335233093D9092093D8096FBFFC01EE0FFF1FEA56F84FC081D181209739F486E090E890938C0B80938B0BF1DEFE01199504C001968F30910549F6DF91CF9108950E940CE60E94CFB6882371F02FB7F8948091D8099091D90980619093D9098093D8092FBFFB
S284006E0081E0089582E00895A5DF60E070E08BE20ADD8091D8099091D909892B09F4D0DC2091D8093091D90981E0232B09F480E0089590CF0895FC012081211105C021E02193CF010C9414E80895FC012081213021F41192CF010C9444E80895A5E0B0E0E4E3F7E30C94DFFB7C012A833B834C835D836983EADFF7011082698163872A81C4
S284006E803B814C815D812783308741875287158704872596E6E00C94FBFB0895813031F018F0823029F008952F9A08952E9A08952C9A0895813031F018F0823029F008952F9808952E9808952C980895279A269A249A2F9881E0EEDF82E0ECDF80E0089589E3E2E5F8E1DF011D928A95E9F7E3E7F8E184E080838AE081831282138287E06F
S284006F00848315821682178295E090937D1891E09093851880937E1847E850E066E67BE483ED98E10E9428FE43E150E063E57BE48FE398E10E9428FE43E050E060E57BE48CE398E10E9428FE48E450E068E07BE48BE898E10E9428FE8BEA9CE0E1E9FBE0DF019C011D9221503040E1F70895A4E0B0E0EDEBF7E30C94E3FBBC011A8219821F
S284006F801C821B828827811521E0920769F0811522E09207B9F0892BE9F4660F771F660F771F6656764B07C07727660F771F660F771F6252774B44E050E0CE0101960E9428FE0FC07727660F771F660F771F625B774BF1CF8AE090E690938C0B80938B0BE4DD69817A818B819C812496E2E00C94FFFB76DF42CA0895A4E0B0E0E2E0F8E30F
S2840070000C94DFFB7C018B01B2DFEE24E11422E0F20669F026E030E630938C0B20938B0B69837A838B839C83C0DD7A816981F801718360832496E6E00C94FBFBA4E0B0E0E4E2F8E30C94DFFB8C017B0190DFE114F10479F420E030E630938C0B20938B0B69837A838B839C83A0DD9C818B817A81698100270115110549F0011521E012074C
S28400708051F4AC01C7010E9428FE0CC0AC01C7010E943EFE07C081E090E690938C0B80938B0B83DD2496E6E00C94FBFBA0E0B0E0ECE5F8E30C94DDFB8C01EB0158DF6B017C01209739F484E090E690938C0B80938B0B6BDD00270115110539F085E090E690938C0B80938B0B60DDA701BE01C6010E943EFECDB7DEB7E8E00C94F9FBFC01C8
S28400710095A5892F887090FF09C0882379F081E021A532A52236310550F408C0882331F081E021A532A52436310508F480E08170089521E030E001C0220F8A95EAF78091DD09822B8093DD092FB7F8948091D8099091D90980629093D9098093D8092FBF0895CF93DF93E0915F19F09160198E179F0718F482E894E446C08E1B9F0B6CE6D0
S28400718070E00E9494FA80915A19681718F083E894E439C08CE6689FE00DF11D11248781869590E08230910559F014F00397D1F580915E198823B1F1815080935E1932C080915D19882319F0815080935D19DF01AC5ABF4FCD91DC912091621930916319CE01821B930B63E270E00E9494FAC217D30718F484E894E406C080915B196817D7
S28400720040F085E894E490938C0B80938B0BB5DC0CC0D90183E2689FA00DB11D11248C9181111C9287818E7F8783DF91CF910895CF93DF93EC0118A68EA19FA1892B39F484E494E490938C0B80938B0BAEDCEEA1FFA1CE0188961995DF91CF910895EF92FF920F931F93CF93DF93A0915A1940915F195091601920E030E090E09A1709F4D3
S2840072805AC0FA01E20FF31FB90164597F4FB781B0FD63C07F0194E5E90EF11CD7011D921C928230B1F010F08330F1F590915E1940915C19941708F03EC09F5F90935E19138214821582168290859F709087128235C010915D1990915B19191760F500916119409162195091631990E09017B9F0EA014D5D5F4FBA0163527109DB016C9126
S28400730061110BC01F5F10935D1941E048836896D701CD93DC93428302C09F5FE7CF4091611949130BC007C081E894E490938C0B80938B0B3ADC80E090E012C09085907F9087880F816087831182108280915F1990916019820F931F03C09F5F9B018ECFCDB7DEB7E6E00C94FBFB2091EE0921502093EE09BC0188E09AE095DB81E0D9CEE2
S2840073800F931F93CF93DF938C01C091DE09D091DF098091DA099091DB0980519140813F954048F4B8018EED99E07DDBCD2B59F480E0BFDE08C083E694E490938C0B80938B0BF3DBEFCFDF91CF911F910F910895BC01615171098AE09AE065DB81E0A9CE2091EE092F5F2093EE090C9449976F927F929F92AF92BF92CF92DF92EF92FF924C
S2840074000F931F93CF93DF931F92CDB7DEB78C017B01FB01E25AFF4F85EB99E3918380833E9782E08083D80159968D919C915A973196918380839E968C919E97379680833196108231969D968C919D978095881F8827881F8083319681E08083319680839D968C919D9786FD0BC021E059968D919C915A97883F9F4F08F020E0822F01C046
S28400748081E0F701E35AFF4F81708083C80137DEF701ED5AFF4F6F0197012C5A3F4F3901882309F442C090900C1A40910D1A242F30E08091101A90E001972817390739F4D80199968C91499D80191124982EA92CB12CC5014E968236910538F081E594E490938C0B80938B0B60DB30910C1A20910D1A8091221A9091231AF80163A574A543
S284007500329F600D711D1124A5014E960E943EFE8AE0890DD6018C938091221A9091231A4496F301918380830EC0D80199968C919997885F80839B968D919C919C970897D9018D939C93F301C080D180D6012C912C7F2F7E2C93F801818D928D237F883F9F4F10F02860D6012C93F60180818F7D8083D8019D969C9192FD03C08F7B808329
S28400758022C08064F6018083D70118962C911897207F216018962C93C8012983B0DD29812F70882341F08091121A8295807F822BF701808708C080913D188295807F822BD70118968C93C8019ADDF60190818823A1F09068908390910D1A80858C7F911106C0816080878091101A818709C08260808780910D1A818703C09F77F60190833C
S284007600D80193968C919397F601818396968D919C9197979383828394968D919C9195979583848398968C918683C80168DD882331F08091111AD60117968C9308C08091050A91E0980F9093050AF6018783C7010996C6DE80E00F90DF91CF911F910F91FF90EF90DF90CF90BF90AF909F907F906F900895E091201AF091211ABF0180816B
S2840076809181B5CEEFEFF9E1F093D019E093CF1992E09093CB1920917219309173193093CD192093CC199BE09093CE191092D3191092D41991E09093D5199093D6191092D71928EA3DE33093DA192093D9199093D81990819078926090689083909179199093001A20917519309176193093021A2093011A20917719309178193093041A0F
S2840077002093031A909174199093051A90917A199093061A92E09093071A909170199093081A909171199093091A90910A1A9093E81910926B1910926C1910926D1910926E198093641984E899E14ACEA4E0B0E0ECEAFBE30C94E1FB182FBE016F5F7F4F8AE190E06BDC2091F3093091F4094091F5095091F609A12FB0E00E9414FB098165
S2840077801A812B813C81600F711F821F931F2496E4E00C94FDFB0F931F93CF93DF93EC018C0107551109FC013C970190F081E02D6FEF818192810E94688E882361F0FE01329785EB99E39183808323971882C8010E94399702C0CE01C8DDDF91CF911F910F91089561E679E180E191E027DC62E679E18EE092E000DC8091621990916319D0
S28400780020E030916119231748F4FC0133E2239FE00DF11D112410822F5FF3CF6AE579E18FE091E00BDC6FE579E18DE092E0E4DB20915A19E0915F19F091601980E0821739F097819E7F97838F5FE459FF4FF7CF9091611990935B1980935C1910925D1910925E196CE07AE188E291E0E7DB6AE679E189E291E0E2DB69E679E188E191E004
S284007880DDDB80916919882351F065E679E18FE092E0B2DB62E27AE180E192E0ADDB3091691920916A198091651990916619329F800D911D112490936819809367191092641908956FE07AE082E192E095DB6EE07AE087E191E0B2DB80910E0AE0910F0AF091100A882349F0309739F489E294E490938C0B80938B0B40C99F0146E1849F0A
S284007900200D311D1124C90128EAE817F90718F4258B7696FACF08951F93CF93DF93EC01162F0097B1F08D819E81892B91F08EED99E07DD81F83ED81FE81CE01079619958091DE099091DF09892B59F080E0F1DB08C08BE694E490938C0B80938B0B25D9E6CFDF91CF911F910895A1E1B0E0EBEBFCE30C94D3FB8C01262E29873A874B879E
S2840079805C870E9410E4E091F70929853A854B855C85EE2361F130905A19C090FA09D090FB09E090FC09F090FD092B013C014C185D086E087F084D825E826F827886E0915F19F0916019198A66246A94762C430169827A828B829C8246015701861A970AA80AB90A8D869E86AF86B88A0BC009EF1DE3A3C0A781A0FD09C0A989AF5FA98B34
S284007A00E459FF4FB989B311F5CF40C0B085BF70B23099F7AA7FA23081F783809480A580B68081149104A104B10439F3E017F10721F34D805E806F807884481459046A047B0468F44D845E846F847888840C951CA61CB71C83829482A582B68204C0138214821582168283809480A580B68049805A806B807C8084149504A604B70408F008
S284007A80BCCF89829A82AB82BC82B7CF211046C080906B1990906C19A0906D19B0906E1981149104A104B104C9F12B013C014C185D086E087F08481459046A047B0488F4C80CD91CEA1CFB1CC61AD70AE80AF90AC0926B19D0926C19E0926D19F0926E1908C010926B1910926C1910926D1910926E1980916B1990916C19A0916D19B0916F
S284007B006E1949805A806B807C8084159505A605B70520F489839A83AB83BC8389819A81AB81BC81281739074A075B0710F4DA01C90109EF1DE39C01AD0161E087EF99E08DD987EF99E077D96196E2E10C94EFFB8091EE0981508093EE0980916419833009F43CC0823039F082E594E490938C0B80938B0B1AD8E0910B1AEE2379F181E048
S284007B8080936419A0913E18B0E011972AE030E00E940EFB9B01AC018091EF099091F009A091F109B091F209280F391F4A1F5B1FA0913D18B0E00E9414FB9B01AC0160936B1970936C1980936D1990936E19E150E0930B1A61E080E090E0C7CE1092641910926B1910926C1910926D1910926E190895A4E0B0E0EFEFFDE30C94DBFB2FEFA6
S284007C003FEFA90110E0AA24AA94B12C80915A19181708F054C0E0915F19F09160198CE6189FE00DF11D1124678160FF46C07085872F8F70823009F040C0862F8A7F8230E1F583819481A581B681C090FE09D090FF09E090000AF090010A8C199D09AE09BF0983839483A583B6830097A105B105E9F4872F807F846080876E7F663059F4A9
S284007C80C50100903E1802C0880F991F0A94E2F7809580930F1A81E029833A834B835C8348DA29813A814B815C8107C082179307A407B50710F49C01AD011F5FA7CF80916B1990916C19A0916D19B0916E190097A105B10551F1C090FE09D090FF09E090000AF090010A8C199D09AE09BF0980936B1990936C19A0936D19B0936E190097D9
S284007D00A105B10559F482E029833A834B835C83B9DC29813A814B815C8107C082179307A407B50710F49C01AD012F3FEFEF3E074E075E0751F009EF1DE361E087EF99E08DD887EF99E077D803C087EF99E07DD82496EAE00C94F7FBA0E0B0E0E2EBFEE30C94DAFB8C01962EC0910F0AD091100A80910E0A6E0196E1899FC00CD11C112488
S284007D80F8018589811109C07E01F6E1EF0EF11C58018CE0A80EB11C09C085E294E432C08A3A89F06696F6E1EF0EF11CF801CC15DD0508F04AC0908521853285F70131978081843A69F7F7013E9780819813EACF89859A852817390729F748E050E0B801CE010E9431FE892BE9F6F8018385F7013B9790818913D6CF813059F0833091F024
S284007E0086E294E490938C0B80938B0B0E94BD351DC0F801248535858C859D852817390709F617C0F8019489F701329780819813B9CF48E050E0BE01645F7F4FC5010E9431FE892B09F0AECF04C0958A80E090E001C0CE01CDB7DEB7EBE00C94F6FBCF93DF93EC010097B1F18AEA8D8B0E94425748E050E0BC01CE010E9431FE892B51F5C9
S284007E8082E88D8B888581508E3F20F58B858330C9F48C8981508E3FE8F42C853D854E855F85688979898A899B89A0E00E943EFC71F480E194E490938C0B80938B0B0E94BD3508C0813019F086EA8D8B03C01D8A81E001C080E0DF91CF910895CF93DF93EC01009761F169AB4115510551F0FA0140815181628173814AAB5BAB6CAB7DAB9A
S284007F0004C01AAA1BAA1CAA1DAAEFA5F8A9309749F484E594E490938C0B80938B0B0E94BD350DC0CE01C1961995CE01E8D8882331F01092211A1092201A81E0FAD8DF91CF910895A1E0B0E0E8EAFFE30C94E1FB8C01FC012081318180916219909163192817390740F487E494E490938C0B80938B0B0E94D535F801808191812091621998
S284007F8030916319821B930B63E270E00E9494FA80915B19681750F088E494E490938C0B80938B0B69830E94D53569818091621990916319F3E26F9F800D911D11242196E4E00C94FDFBFC0120814597211107C0BC018CE09AE00E94533581E0AAC840E050E069EA7BCFA3E0B0E0E9EFFFE30C94E1FB8C01675F7F4F7A836983BE016D5FC5
S2840080007F4F8EE090E01AD88B81D80199965C9199974091050A882309F442C089819A81FC01E95BFF4F21E0208359962D913C915A973196318320833296585F50839B96ED91FC919C979C01255B3F4F3897D901ED93FC938FEF8183D80196968D919C9197979383828394968D919C9195979583848398968C91868381E0840F8093050A58
S2840080804783D901ED91FC918081807888608F778083E981FA81EB5AFF4F85EB99E344C089819A81FC01E95BFF4F22E0208331962DEF3FEF318320833296575F5083D8019B96ED91FC919C979C01255B3F4F3997D901ED93FC93D80159968D919C915A979283818396968D919C9197979483838394968D919C9195979683858398968C91D0
S284008100878381E0840F8093050A4087D901ED91FC91808180788C608F778083E981FA81EB5AFF4F8BEC9BE391838083E981FA81D8019E968C919E97E15BFF4F8083E981FA81E05BFF4F80913C188083E981FA81EF5AFF4F9D968C918095881F8827881F8083E981FA81EE5AFF4F81E08083E981FA81ED5AFF4F8083E981FA81EC5AFF4F5F
S284008180808389819A812CD980E02396E4E00C94FDFBDC01ED91FC919093211A8093201A10920D1A10920E1A80913D188093121A20910C1A30E081A592A5B9010E9494FA462F6093101A81A592A5B9010E9494FA892B19F04F5F4093101A8FEF90E000903E1802C0880F991F0A94E2F780958E7F80930F1A8091050A91E0980F9093050A7A
S2840082008093111A0895A0E0B0E0E9E0F1E40C94DAFBEC016B01942E590100910F0A1091100A80910E0A780196E1899FE00CF11C1124209761F0C017D107F0F583E294E490938C0B80938B0B0E94D53535C0E801CE01801B910B66E170E00E9494FA892B79F084E294E490938C0B80938B0B0E94D53506C01D89143A39F01A3A29F0669629
S284008280CE15DF05B8F313C088859812F8CF89859A85C816D90699F748E050E0B501CE010E9431FE892B59F7143A49F703C080E090E004C0CE0102C06696CACFCDB7DEB7EBE00C94F6FB4F925F927F928F929F92AF92BF92CF92DF92EF92FF920F931F93CF93DF931F92CDB7DEB72C017B010E9442576C0157018AE6A80EB11CF50100815A
S28400830011814114510431F0E114F10419F0C114D10451F484E194E490938C0B80938B0B0E94BD3588EA5EC058EAF20166A177A1960140A5C801598366DF8C015981009709F44FC0F20186899789892B19F5F8017384F3E07F121EC048018CE0880E911CC4010E941BC7892BA9F4F2017286D2011D9688E0F40101900D928A95E1F783E091
S28400838092E4F201978B868BC20106960E9410C780E028C0F50111830083F80183858330B1F4C8010C960E941BC7009711F459EABCCFF8012489F20123A3FC0180819181F201928F818FB701C20111D80BC0F80184859585F201928F818FB701C20103DE01C0852F0F90DF91CF911F910F91FF90EF90DF90CF90BF90AF909F908F907F90A4
S2840084005F904F900895FF920F931F93CF93DF938C010551110920915A19C0915F19D0916019F12CF216E9F08F8180FF16C0888199818017910789F4BE01C80144DF882381F040E050E0682FC80148DDCE010E94B13881E00E94993804C0F394C459DF4FE1CF80915A19F81640F085E194E490938C0B80938B0B0E94D535CDB7DEB7E5E040
S2840084800C94FCFBEF92FF921F93CF93DF931F921F92CDB7DEB77B010097A1F06115710589F0FC01178A168AF701E659FF4F11821082B70108DF182F882389F0C7010E94B1380DC023E134E430938C0B20938B0B89839A830E94D53589819A81E2CF812F0F900F90DF91CF911F91FF90EF900895A1E0B0E0EEE7F2E40C94DFFB8C01262F17
S284008500DC01ED90FC90009709F444C0E114F10409F440C02E3C61F0822F8F7D803D41F0213D11F082E005C0F70185A587FFFACF83E0F801EB59FF4F4081518162817381D701D2964D935D936D937C93D597D1962C93833071F0D801ED91FC91808D811108C0F701178A168AB801C701ACDE883AE1F4A7014E5C5F4FD701D1966C91F801BC
S28400858080819181ABDCC8010E94B13881E00E9499380BC08FE494E490938C0B80938B0B29830E94D5352981B5CF2196E6E00C94FBFBCF93DF93EC0152DC882309F454C060E0CE01C9DB892BC1F5209709F43EC08D8981113BC050910E0A20910F0A3091100A40E0451781F0C9012A5E3F4FF90131976081683A31F424EAFC01258B0097BE
S28400860031F432C04F5FEECF8EEA8D8B2DC0209719F03D89332349F087E294E490938C0B80938B0B0E94BD351AC036E1FE01DC0101900D923A95E1F706C066EACE018CDB009791F024EAFC01258B09C080E294E490938C0B80938B0B0E94D535BCCF60E070E080E10E941334DF91CF910895CF93DF93EC010097D9F080910F0A9091100A3C
S284008680C817D907A0F020910E0A36E1239F800D911D1124C817D90750F48D89843A11F08A3A71F488EA8D8BDF91CF91089581E294E490938C0B80938B0B0E94D535EDCF82E294E490938C0B80938B0B0E94D535E9CFCF93DF93EC01C2DB882359F064EACE013ADB009731F0C2DF60E070E080E10E941334DF91CF91089520910F0A309124
S284008700100A009751F0FC01769680910E0A96E1899F200D311D112408C0F901F6CF8589843A49F08A3A39F07696E217F307B8F380E090E00895CF010895CF93DF93EC01BC018CE09AE00E9453351F8A1E8A81E00E949938DF91CF910895CF93DF93EC01BC018AE09AE00E9453351B8A1A8A81E00E949938DF91CF910895AAE0B0E0E3EC65
S284008780F3E40C94D9FB10917D18BE01665F7F4F87E091E00E941E38BE016F5F7F4F8AE190E00E941E38C980DA80EB80FC80812F90E0A0E0B0E08C159D05AE05BF0578F0CC0CDD1CEE1CFF1CC982DA82EB82FC82BE016F5F7F4F8AE190E00E945638C12ED12C87E0C80ED11CEE24D7FCE094FE2CC092F309D092F409E092F509F092F609A2
S2840088002A8530E0A3E0B0E00E94FFFA9B01AC01C701B6010E9479FA09811A812B813C81600F711F821F931F6093EF097093F0098093F1099093F20981E08887BE01675F7F4F87E091E00E941E38BE01685F7F4F84E290E00E941E38898590E0A0E0B0E0880F991FAA1FBB1F8F3F9105A105B10529F020F08FEF90E0A0E0B0E00E94A63B18
S284008880E885EE2309F45AC0812C912C54018B019C0101501E4F2F4F3F4F800E911EA21EB31E660F771F881F991FE15081F718867501640129E0F694E794D794C7942A95D1F7D501C4019170AA27BB2741E050E060E070E0892B8A2B8B2B19F440E050E0BA01C40ED51EE61EF71E1E821D821F82BE01695F7F4F81E191E00E941E38BE0173
S2840089006B5F7F4F88E092E00E94FC37970186010F3F11052105310529F020F00FEF10E020E030E06D817E81C12CEE24E39420E032E04F8180EE99E00E94ED352A96ECE00C94F5FB882331F00E941AFE8093050A1092EE0910920D0A10920C0A10920B0A10920A0A1092090A1092080A1092070A1092060A8AE090E0A0E0B0E08093191A7C
S28400898090931A1AA0931B1AB0931C1A8AE39BE390931F1A80931E1A81E080931D1A1092711910927A1910926F191092761910927519109270191092741910927819109277191092731910927219109279191092641910926B1910926C1910926D1910926E198CE6EBE7F9E1DF011D928A95E9F783E2E7EEF9E1DF011D928A95E9F78091A7
S284008A006A1990E0019620916919289FA001299F500D112460E070E080916519909166190E9458FE8FEF99E19093D0198093CF19A4CE4F925F927F928F929F92AF92BF92CF92DF92EF92FF920F931F93CF93DF931F92CDB7DEB77C01009781F02C0127E0421A51088091DE099091DF098415950529F4D20112968C91893149F086E694E47F
S284008A8090938C0B80938B0B0E94BD35CBC08091DA099091DB098115B7E09B0709F07FC000910C0A10910D0A0115110551F08CE09AE00E94173540E050E063EAC8010EDAEFCF6CE6C62ED12C7CE6772EE2E4AE2EE4E4BE2EF3E48F2EF4E49F2E0091080A1091090A0115110509F444C0B80188E09AE00E94233580915F1990916019F80135
S284008B00E81BF90BCF01B6010E9494FA80915A19681740F0B0928C0BA0928B0B69830E94D5356981E0915F19F0916019679DE00DF11D1124808191812781269530E02130310561F02230310549F2232B61F4A8014B5F5F4FD80112966C9103C040E050E067EABCD9BBCF90928C0B80928B0B0E94D535B4CF10E080915A191817D8F48091EF
S284008B805F1990916019BCE61B9F800D911D1124FC01278120FD0E94B1381F5FECCF8115924041F087E694E490938C0B80938B0B0E94D5351092DD091092DC0981E0C2DE0E94F23B0E94623C82E393E09093DB098093DA09D7018C91F20182878EED99E00E941735D20118968D919C911997892B41F489E694E490938C0B80938B0B0E9467
S284008C00D535D2011896ED91FC911997C701039619958091DE099091DF09892B19F080E00E9499380F90DF91CF911F910F91FF90EF90DF90CF90BF90AF909F908F907F905F904F900895CF93DF93C091DE09D091DF09209741F484E694E490938C0B80938B0B0E94D5358A818A38F9F0853C09F44FC0893109F06CC08091DA099091DB098B
S284008C808031914019F480E092E002C080E097E09093DB098093DA0989E195E49E838D83CE0103960E9426AE5BC08091DA099091DB09823323E0920719F08031964049F48FE394E09093DB098093DA0956DD1D8202C083EA8D838EED99E00E9417358B819C81892B41F48AE694E490938C0B80938B0B0E94D535EB81FC81CE010596199574
S284008D008091DE099091DF09892B51F180E018C08091DA099091DB098F339440A1F480E095E09093DB098093DA0982E090E09C838B8387EF99E00E9425371092EE0981E00E9499380DC063EACE010E948C3C08C085E694E490938C0B80938B0B0E94D535DF91CF910895AAE0B0E0E9EBF6E40C94E3FBDC011396ED91FC911497218132811F
S284008D8040E450E05A834983AE01495F5F4F5C834B8341E050E05E834D836F3FBFEF7B0719F437FF15C003C02617370789F098878F837A876987BE016F5F7F4F8EE10E94133481E02D813E81232B19F080E001C081E02A96E2E00C94FFFB009729F48091EC099091ED090895FC01808191810895CF93C82FE0E0F0E0CF01EFDFFC01009742
S284008E0039F0A381B4818C91C813F6CFCF0102C080E090E0CF910895CF93DF93EC010097D9F086EA8F83EB81FC813097A9F080819FEF980F903F80F4DBDF892B69F421E08D819E81892B09F020E02A83BE018CEE99E00E9453351F82DF91CF910895DF92EF92FF920F931F93CF93DF938C01009741F480E394E490938C0B80938B0B0E94C9
S284008E80D535C0E0D0E0A1E3EA2EA4E4FA2ECE01A4DFEC01009789F18A818111F8CF8B819C81892B31F4F0928C0BE0928B0B0E94D535F80160A171A1CE0155DF882339F3EB81FC81D0806D2DF801878190850E94688E8823E1F2F801D18AED81FE81309749F482E394E490938C0B80938B0B0E94BD3503C0C8011995CACFCDB7DEB7E7E093
S284008F000C94FAFBA1E3B0E0E8E8F7E40C94D9FB8C01B62EDC015C96ED90FC905D9757966D917C915897F701478180EE99E00E941F36882309F414C1D70111968C919FEF980F9E3F28F454DF6C01009719F408C1C12CD12CF801248985899689213009F022E02F8399878887D70111968C918A8BF8018789908D0E941EC7FC01009799F0A9
S284008F8083E08B8B708161815281438134812581968187817E8B6F8B588F498F3A8F2B8F9C8F8D8F02C082E08B8BD80157968D919C9158979D8B8C8B59968D919C915A979F8F8E8FF701868188A3848195819AA389A3828193819CA38BA35B968C9190E09C012A5031093EA32DA319A6208127FD04C09C012850310906C02085237029F430
S2840090009C01295031093EA32DA32DA13EA1821B930BF801248D358D280F391F38A72FA3BAA684A18BA7868D8CA740A151A162A173A14DA75EA76FA778AB878D89ABD7018C9187FF48C018968C918370823009F042C0E0916719F0916819808190E09EA38DA38080912CAA24A394B12C20916F1930E08091651990916619A216B3064CF569
S284009080E0916719F0916819EA0DFB1D408150E020916A192A9DB0012B9D700D1124680F791F880D991D0E943EFEE0916719F0916819EA0DFB1D20818DA19EA1820F911D9EA38DA3BFEFAB1ABB0A8081880E911CCDCF98A78FA3C114D10449F0D6011596ED91FC911697CE010196199539C0F8018489813021F4CE010196B1DE31C0D7011D
S28400910011968C918F3F41F5E12CF12CC70165DE7C01009729F1D7011396ED91FC9114978081882399F312968C918111EFCF69A17AA1C70118DE882349F3D7011396ED91FC91149780818A8B1596ED91FC911697CE0101961995DACFCE0101960E9492CEC8010E941839E196ECE00C94F5FBA1E0B0E0EDEBF8E40C94DBFB5C01DC015C96A6
S2840091800D911C915D97F80181812FEF280F2E3F80F429832DDE7C012981009751F0D80114966D917C911597DEDD882309F405C105C02E3F08F401C1E12CF12CF801808187FF04C09085937009F0F7C086FFF7C08C70883009F4F1C0D50157968D919C915897883FBFEF9B0708F0E7C0E114F10421F0F70122812111E0C0D5015C960D919C
S2840092001C915D97F801208126FD02C090E0D2C02370213009F027E0F0905A19E0915F19F091601930E0422F50E0B801640F751F3F15E9F0A781A530B1F4DF01AF5ABF4F0D90BC91A02D8A179B0769F4DF01AC5ABF4FCD90DC90C40ED51EDB01EC90D601DC90ED1499F23F5FE459FF4FE1CF82E029830E942F392981009741F2FC01EC5A2E
S284009280FF4F0190F081E02DDF0158973FEA11963C9311971396BC92AE92129762E0DC01A05BBF4F6C93D50157964D915C915897DC01AF5ABF4F11965C934E9317961C9211961C9231E011963C9311963C9311961C9245EB59E3129611965C934E9311973C9330813C7F32603083D8014C914C70337F342B30834C914295417040FB34F94F
S2840093003E7D3F7B30834C9147FB442740F940FB37F930834C9130E0DC01AD5ABF4F7D0144FF0DC0D5015C964D915C915D97420F531FDA012C912183F701608337C048E04C93D80116964C911697418312964D915C9113975383428314964D915C9115975583448311964C914683D5015C964D915C915D97420F531FDA012C912783D80116
S2840093802C9127FF13C018962C91237031F41086F70120812F5F208309C0D7012C912D5F2C93D80118962C912370208709960E94F03991E081E08927A1C190E001C091E0F801808187FF92C18085837009F48EC1D5015C960D911C915D975B968C91F801F18420916919222309F487C196EFE92EE80E80916419813009F456C030F0843009
S28400940008F06BC180E494E46AC1D084B1E0DB1274C12F1508F471C180916A198E1508F46CC190E00196289FA001299F500D112460E070E080916519909166190E9458FE8FEA80930A1AD0926419F0926F19F5018789908D9093731980937219D80111968C9111978093741912968D919C911397909376198093751914968D919C911597E4
S284009480909378198093771916968C9116978093791917968C9180937A1980913D1880930B1A10927019F12CF8018085982F9370923011F0F11021C18C7F09F01EC180916F198F1508F419C12091721930917319D50157968D919C9158972817390709F00CC190917419F8018181981306C12091751930917619828193812817390709F037
S284009500FCC02091771930917819848195812817390709F0F2C09091791986819813EDC090917A1987819813E8C02091701940913E180F2D10E0822F90E0840F911D081719070CF0DAC08F2D642F0E9488FAD92EF21668F48F2D891B8093701921E030E001C0220F4A95EAF721952093711920916A1980916519909166194E2D50E0D501F9
S2840095805C966D917C915D97665F7F4FF29E800D911D11240E943EFEE0916719F0916819E00FF11FE0827091701920916F197F1111C090913E18822F8F19981708F4892F41E050E0082E01C0440F0A94EAF741954093711941E050E00D2C01C0440F0A94EAF760917119642B609371196F3F79F4FF24FA94F70E822F90E040913E1850E01F
S284009600871B9109481759070CF4CA01F80E8F2D90E030E0215031098217930751F46F3F21F483E00E94423B63C082E00E94423B64C0A0913E18B0E011979D01270F311D8217930711F06F3F09F582E00E94423B809171198F3F09F050C080913E1890917019980F9093701920916F1921502F19821708F4282F81E090E0022E01C0880F5E
S2840096800A94EAF781958093711937C02AE030E00E940EFB9B01AC018091EF099091F009A091F109B091F209280F391F4A1F5B1FA0913D18B0E00E9414FB9B01AC0160936B1970936C1980936D1990936E1961E080E090E00E94B53C10C083E594E490938C0B80938B0B0E94D53507C0992329F06FEAC50107DC80E001C081E02196EAE0DC
S2840097000C94F7FBA4E3B0E0E8E8FBE40C94D3FBC090DA09D090DB0920E1C21621E0D20609F46CC12EE4222E24E4322EAA24A394B12C88E09AE00E9417357C01009709F45DC100915F1910916019C701801B910B6CE670E00E9494FA80915A19681748F089E494E490938C0B80938B0B0E94BD3545C13CE6639F000D111D1124D8011796F5
S2840097808C91B0E1CB16B6E0DB0621F0C114E5E0DE0699F58E7F843019F5C8018C5A9F4F0E94A23F4C01DC0111966C91119712968D919C911397892B51F4EAE4F4E4F0938C0BE0938B0B6CAB0E94D5356CA9D70112968C91811104C0F4018281938192DBA7014B5F5F4F63EAD8018D919C910E946E3FC7010E94B1389CCF8695482E512CAD
S284009800B1E04B165104B1F054F4452809F0EFC0D70112966C91C8010E9478428ACFF2E04F16510409F4BCC023E04216510409F47CC0DDC0F80180858F70813009F079CF80809180D70119968C910E94A63B9B01AC01A0913D18F801808582958F70A81BC20102C0880F991FAA95E2F7DC010E941EFB2B013C01D70112966C91611115C09A
S28400988043825482658276820E941AFE9170B301A201480F591F611D711DD80113964D935D936D937C9316972EC06E3C51F0603F41F0603D31F0613D89F4F40195A597FF0DC0A7014B5F5F4FC4010E946E3FC7010E94B13881E00E94993890C0D80113964D925D926D927C9216970E941AFE9170B301A201480F591F611D711DF801438399
S284009900548365837683D80118968C911897807F826018968C93189713962D913D914D915C91169760E0C80104C2F80180858F70813009F0FECE20910D1A30E08091101A90E001972817390709F4B5C1E0913E1870910F1A272F30E080E090E0682F8E1708F0A9C10196A901062E02C0559547950A94E2F740FFF2CFC501062E01C0880FE3
S2840099800A94EAF78095872380930F1A80910E1A860F80930D1A83E19AE10E9414E8C9CEC8018C5A9F4F0E94A23F8C01DC0111966C91119712968D919C911397892B51F4EDE4F4E4F0938C0BE0938B0B6CAB0E94D5356CA9D80112968D919C91139792DAC7010E94B13881E00E949938A2CE30928C0B20928B0B0E94D5359BCE1BAA1AAA04
S284009A00A8EE4A2EA9E35A2EBFEA2B2E13E0312EAA24A394B12C66246A94712C95E4892E94E4992E8AE09AE00E9417358C01C090DA09D090DB09009751F1F80182899389892B09F079C1048CF58DE02D80818370813009F071C18281853009F46DC1D80157968D919C9158970E941EC7892B09F063C122E0F80126838789908D9087878323
S284009A80538A428AC80102960E9410C7CBCFC1FE11C050E5C52E54E4D52E62E0462E72E1A72E74E4B72EE8E05E2EF3EE8F2EFFE39F2E3BC000910C0A10910D0A0115110509F458C0B8018CE09AE00E94233540E050E063EAC8010E946E3FECCF808D833081F57801FBE1EF0EF11CC7010E941BC7892B39F5D8011D96F701852D01900D92C8
S284009B008A95E1F7D80158968C9158971A968C931A9757969C928E925697C80106960E9410C78CE09AE00E94173500910C0A10910D0A01151105F1F0F80186899789892B69F28091201A9091211A892B09F4BEC2C8010E947F38882309F4B8C2C8010E947F38882309F4B2C2F8010081118101151105A1F78091DA099091DB098115B5E0CB
S284009B809B0721F08031F6E09F0769F5F12C0EC02CE6F29E80011124E0915F19F0916019E00FF11F8781833031F0F39480915A19F81670F320C080858F70843011F08230A1F740E050E063EA808191810E946E3F80915F1990916019800F911F805A9F4F0E94B138E2CF8F33944029F4F12C80915A19F81648F08091DA099091DB09811534
S284009C00954009F080C351C000915F19109160198CE6F89E000D111D1124D80117968C91179780FF40C018969C911897292F2F702430C9F5282F2A7F2230A9F5907F79F19160905118969C938E7F823071F4C80109960E94F039F801238134814581568160E0C8010E94B53C1EC08630E1F480910F1A8E7F80930F1A80910E1A80930D1A66
S284009C808091121A81508093121AE091201AF091211ABF01808191810E94F73904C067EAC8010E947842F394A2CF8091EE09882309F4AAC228C3F70181850E94A63B9B01AC01A0913D18F801808582958F70A81BC50102C0880F991FAA95E2F7DC010E941EFB2B013C010091201A1091211A0E941AFE9170B301A201480F591F611D711D22
S284009D00D80113964D935D936D937C931697E091201AF091211A8085807F826080878091201A9091211AFC01238134814581568160E00E94B53CFDCCD8015C96ED90FC905D97BFE3CB16B4E0DB0669F0D7018C918370813041F0F80185A1811104C0C8010E941839A4C1D7014C91642F607446FF11C050915D1920915A1930E080915E1988
S284009D8090E0850F911D821793074CF780915B19581728F7242F2C70243009F3662331F0842F83708230D9F243FDD9CF45FDD7CFF801D488F1E0DF1671F032E0D312CFCF4370842F90E0009721F0029709F47AC0C6CF2C3031F0C801CAD9882309F467C1BECFD80157966D917C915897F701408580EE99E00E941F36882309F4B0CFD801B2
S284009E005B968C91893008F4AACFB1E0BF83F7018181928199878887D80157968D919C9158970E941EC7FC01009791F03B8A708161815281438134812581968187817E8B6F8B588F498F3A8F2B8F9C8F8D8F01C0DB8AF8018789908D9D8B8C8B818D928D9F8F8E8FD70117968C91179788A315968D919C9116979AA389A313968D919C9143
S284009E8014979CA38BA3838D90E009979EA38DA3848D958D099698A78FA319A62AA684A18BA7868D8CA780A191A1A2A1B3A18DA79EA7AFA7B8AB878D89ABCE0101960E942F474DCF423031F090928C0B80928B0B0E94D535C0905F19D090601980915A19F6012CE6829FE00DF11D1124CF01C816D90608F034CFD60117966C91179760FF12
S284009F00D2C018962C9118972F70223009F0CBC0F601EC5AFF4F0190F081E02D2D913C91D80157964D915C915897D90159962D913C915A974217530709F0B5C0D70117963C91179727813213AEC014964D915C911597248135814217530709F0A4C012964D915C911397228133814217530709F09AC011963C9111972681321394C0169647
S284009F803C91218132138FC06E7F623031F4F6018085807F836080873FC0663009F083C0D70119969C91199780910E1A9813D7CE60913E18262F30E0C501062E01C0880F0A94EAF781951A969C911A97982B1A969C931A97F6018085807F836080871A96EC91EF3F99F54091101A50E070910E1AE70FCA01871B9109281739070CF4C90136
S28400A0008E0F80930D1A90E0415051098417950741F4C6010E94C94060E0C6010E9478429ECE760F70930E1A80913D188093121A70930D1A930102C0220F331F6A95E2F7B90160956E7F60930F1A23C0E095E0930F1A80E090E02E2F30E0782F8617C8F40196A901072E02C0559547950A94E2F740FFF3CFC501072E01C0880F0A94EAF79B
S28400A08080958E2380930F1A80910E1A870F80930D1AE091201AF091211ABF01808191810E94F7395CCE3CE6C30ED11C20CFD8015E968C915E978AAB5F968C918BABBE016E5C7F4F8BE30E941334ACCCC8010E947F38882361F08091221A9091231A892B09F4BDC0D8019D968C9182FFB8C0F80181A592A58536910518F085A583FFB1C0E4
S28400A100D80198963C90332031F0832D0E94F846892B09F448C0F80185A5208D382F347082FF0AC0223031F4818D928D883F9F4FD0F502C02130B9F18EEF820F823038F4D80193968C91815F8E3068F18CC021118AC0332309F487C0F80166A077A092D67C01009719F080E090E00CC0B0928C0BA0928B0B0E94BD3576C0DC011B962C91F8
S28400A180213089F09701432DB3010E9403410097A1F769C0813008F475C0823009F49AC0833009F48AC026EAE12CF12C612C712CB8018CE09AE02CAB0E9423352CA921111CC0E114F10431F4D0928C0BC0928B0B0E94D535F30111830083C8010E947F38882319F0C3010E94C940B301C801F7011995282F882309F498CC40E050E0622FA7
S28400A200C8010E946E3F91CC0091DE091091DF09F8018281853C41F08DE694E490938C0B80938B0B0E94D535D80113968D919C9114978D7F14969C938E931397892B09F062C080E00E94A24480E196E09093DB098093DA0960E0C8010E948C3C54C02AEAA3CF20EAA1CFD80158968C91813009F091CF80E00E942F393C0133EFE32E3FE357
S28400A280F32E0DC0C8010E947F38882371F083E00E942F393C0142E4E42E42E4F42E6114710409F467CC20E083CFF80185A582FF02C081E0EDCF80E0EBCFC8014B960E941BC70097F1F0DC018D919C91F801928F818F408EC8010E947F38882311F083E008C0D8019D968C9182FF02C081E001C080E00E942F393C0127EFE22E29E3F22EC4
S28400A300CECF29EA51CFE496E2E10C94EFFBAFE1B0E0EDE8F1E50C94E0FB009749F485E495E490938C0B80938B0B0E94BD3582C0FC012081233009F07DC0218132813A83298328E03396DE01139601900D922A95E1F7FC0123852B87248535853D872C8728E03E96DE011E9601900D922A95E1F7FC01218D2D8F238D2E8F0789108DF68821
S28400A380F6E0FF1508F056C0F8018081982F9370933009F04FC0807E09F04CC08181811149C0BE01615E7F4F85E190E00E941E38F801208126952695277030E08F8D90E028173907B9F58281982F9370933091F5982F907F79F58C708C3091F481E08B87F8E0FF1538F5F801838194819F878E876FEF0E94688E8823E9F0F80129E003C0F8
S28400A400F801329727E085819681998F888F878190859F8B8E8BF21AFA8E020F111D1C8F0B8FE091EA09F091EB09309719F0CE01019619956F96E5E00C94FCFB80E191E09093DB098093DA091092DF091092DE091092DD091092DC091092ED091092EC090E94F23B0C9445AECF93DF93EC0166EC73E085E20E94923466EC73E088E30E94B3
S28400A4809234209749F480E694E490938C0B80938B0B0E94BD3505C089E18A83CE010E94C039DF91CF910895009741F481E694E490938C0B80938B0B0C94BD352AE8FC0122830C94C039009741F482E694E490938C0B80938B0B0C94BD3525ECFC0122830C94C039CF9330916119809162199091631920E0231751F08396FC01B397408179
S28400A500442311F081E029C02F5FF4CFC0E080915A19C817E0F40E940D349CE6C99F9001112440915F1950916019FA01E20FF31F882341F0878180FF08C080858F70823021F0E0CF878180FDDDCFCF5FE0CF81E090916419911101C080E0CF9108951F93CF93DF93EB01853239F41881BBDF91E09827912398831FC08833E9F438814091D1
S28400A5805A19E0915F19F091601980E0841771F0278120FF07C090859F70923019F42A7F223031F08F5FE459FF4FF0CF80E001C081E0832B8883DF91CF911F910895FC01808184FD0C94623C0895A2E0B0E0EBEEF2E50C94E3FBE091DC09F091DD092F2F30E09E2F9F5F983008F090E0692F70E0A901092E02C0569547950A94E2F740FFAF
S28400A60026C09093DC0981E090E0062E01C0880F0A94EAF78F278093DD09660F771F6351744B42E050E0CE0101960E9428FE89819A81892B41F480E094E490938C0B80938B0B0E94D535E981FA81199504C0E913C9CFE093DC098091DD09882361F02FB7F8948091D8099091D90980629093D9098093D8092FBF2296E2E00C94FFFB8091DE
S28400A6808618853091F028F4882349F0823069F004C0843141F0863141F080E0089580917F188B3010F488E0089582E00895833014F083E01BC096E0980F923010F48BEF15C098E0980F923010F489EF0FC09AE0980F923010F487EF09C09EE0980F943010F484EF03C0823F0CF48FEE809384180895C5DF282F220F220F280F30E0A90108
S28400A70060E8869F400D511D1124CA010895809186188530E9F028F4882349F0823079F004C0843189F0863189F080E0089580917F18882349F08B3058F489E1089580917F18811105C002C082E3089588E2089580E10895CF93DF93EC01D9DFE82F9E01A0ECB3E00E94FFFA9B01AC01AE2FB0E00E9414FB28EE33E040E050E00E94BBFA16
S28400A780CA01B901DF91CF910895CF93DF93B1DFEC01BDDF282F2C9FC0012D9F900D1124BC0180E090E028EE33E040E050E00E94BBFA2F5F20937D18DF91CF910895CF93DF938BE080937F1880E098EFAFEFB7E08093801890938118A0938218B093831864E878E183E090E00E941E38809184185EDF64E878E183E090E00E945638109299
S28400A800861877DF909388188093871838DF94E0899F800D11248093891831DF80938A1886E390E0A0E0B0E08093521890935318A0935418B0935518109256181092571881E08093581810925A181092591810925B180E941AFE80935C18EDE5F8E18FEF80838183828383838483858386838783CFEFDFEFD0936618C09365180E941AFE63
S28400A8808093671885E08093681884E08093691883E080936A1880936B18D0936D18C0936C1880E280936E1810926F1810927018D0937218C093711810927B1810927C1864DFDF91CF910895A4E0B0E0EAE6F4E50C94E3FBDC014C9150E0CA01805491098534910508F0DFC08E589D4DFC010C94F9FA11968C918093571808C011968D91DB
S28400A9009C91129790935A188093591880E015C111968C91853308F00FC180935B18F6CF11968C9180935C18F1CF11968C91119780935D1812968C91129780935E1813968C91139780935F1814968C9114978093601815968C9115978093611816968C9116978093621817968C9117978093631818968C9180936418C9CF11968D919C9144
S28400A98012979093661880936518C0CF11968C9180936718BBCF11968C91863008F0CCC080936918B3CF11968C9190916818981708F4C2C080936B18A9CF11968D919C91129790936D1880936C18A0CF11968C9180936F189BCF11968D919C911297909372188093711892CF11968D919C911297B1DE69837A838B839C83BE016F5F7F4F64
S28400AA0003C0BD016F5F7F4F82E090E079C011967C91119712966C91129713965C91139714964C91149715963C91159716962C91169717969C91179718968C917093731860937418509375184093761830937718209378189093791880937A1857CF11968C918093561852CF11968C91883008F063C080936A184ACF11968C9180936E1806
S28400AA8045CF11968C918093681840CF11968C91803108F051C080937E1838CF11968C9180937C1833CF4830510508F043C049545D4DFA010C94F9FA8BEF3FC011962C918091801890918118A0918218B0918318022E04C0B695A795979587950A94D2F780FF2AC020937F1823C011968C9190E2980F903408F5DBDD64E878E183E090E029
S28400AB000E94563803CF11968C918430A8F480938518FCCE11968C91853041F018F4833058F404C0843111F0863131F4809386182CDEECCE84EF01C088EE2496E2E00C94FFFBA4E0B0E0E7EAF5E50C94D5FB609069186091681870E0E0916B18F0E0262D30E0CB018E1B9F0B281739070CF4C901AA2797FDA095BA2F0097A105B10521F485
S28400AB8081E090E0A0E0B0E0712CC12CD12C76018C019D01015011092109310942E0442E512C872C912CA12CB12C081519052A053B05B0F0AF01470D511D41505109520102C0AA0CBB1C4A95E2F74501AA2497FCA094BA2CC80CD91CEA1CFB1C7394E1CF262D30E040E050E0281B390B4A0B5B0B61507109A2E0B0E002C0AA0FBB1F6A9567
S28400AC00E2F711970E941EFB9B01AC012C0D3D1D4E1D5F1DA4E1B0E00E9414FB9B01AC0169833A834B835C8364DD29813A814B815C81280F391F411D511D29833A834B835C8365DDA82FB0E029813A814B815C810E9414FB28EE33E040E050E00E94BBFACA01B9012496E0E10C94F1FB50DDE82F20916E1830E0A0ECB3E00E94FFFA9B0106
S28400AC80AC01AE2FB0E00E9414FB28EE33E040E050E00E94BBFACA01B9010895A4E0B0E0E4E5F6E50C94DDFB8C01FC01408150E0FA01E054F109E534F10508F0B2C0E154FD4D0C94F9FA80915718F801818380E0D5C08091591890915A18C3C080915B18F4CF80915C18F1CF70915D1860915E1850915F18409160183091611820916218BA
S28400AD0090916318809164185BC08091651890916618A7C080916718D8CF80916918D5CF80916B18D2CF80916C1890916D1899C080916F18CACF809171189091721891C0BE016F5F7F4F82E090E00E941E38C980DA80EB80FC80C114D104E104F10491F0D6DC282F30E0A0ECB3E00E94FFFA28EE33E040E050E00E94BBFAC701B6010E9481
S28400AD80BBFA02C024EF31E0F801328321839FCFBC016F5F7F4F82E090E00E941E3897CF7091731860917418509175184091761830917718209178189091791880917A18F801718362835383448335832683978380877DCF8091561878CF80916A1875CF80916E1872CFFC01118271CF8091521890915318A0915418B09155182BC08091DE
S28400AE00681863CF80917E18F801818336C080917C185BCF2BDFF801618372838383948356CF4830510548F5FA01EC5FFC4D0C94F9FA80917F1849CF8091841846CF8091851843CF8091801890918118A0918218B0918318F80181839283A383B48337CF48DCF8019283818332CF09DCF4E08F9F800D11242ACF03DC28CF84EF2496E8E002
S28400AE800C94F9FB83E798E1089548E050E0BC0183E798E10E9431FE21E0892B09F020E0822F0895CF92DF92EF92FF92CF936B017C01E5DBC82F2BDC2C2F30E0A82FB0E00E94FFFA9B01AC01C701B6010E9479FA28EE33E040E050E00E94BBFACA01B901CF91FF90EF90DF90CF9008952FB7F8948091560A9091570A94609093570A80931F
S28400AF00560A3FB7F8948091110A81110FC04FB7F8948091D8099091D90981609093D9098093D8094FBF81E08093110A3FBF2FBF0895BC0183E19AE00E9453358091120A811101C0D3CF0895FC011282F2CF21E0FC012283EECF22E0FC012283EACF23E0FC012283E6CF25E0FC0122831186108622E02783DECFA1E0B0E0E1ECF7E50C9462
S28400AF80E2FB1092140A1092130A5AD11FB7F894CE0101960E9446DD811104C082E08093120A02C01092120A1092570A1092560A1FBF2196E3E00C94FEFBA2E0B0E0E3EEF7E50C94E1FB1FB7F8941092110ACE0102960E9446DD882339F08091120A8230C9F41092120A16C081E090E00A8002C0880F991F0A94E2F7809590952091560A23
S28400B0003091570A282339233093570A2093560A80E001C081E01FBF8111BAC081E08093120A8A818A3029F50091130A1091140A2091D2033091D30341E050E00115110539F4CE0101960E9446DD81114BC033C0CA01F801028002C0880F991F0A94E2F782239323892B09F065C0F80100811181E5CF90E08C30910520F7FC01E45FFC4DE0
S28400B0800C94F9FAB0D214C0B7D212C02AD410C0C5D30EC05ED30CC00E94CBDA09C00E944FDA06C03DD104C00E949ADA01C0A5D0811127C0C6CF2FB7F8948091110A81110FC03FB7F8948091D8099091D90981609093D9098093D8093FBF81E08093110A2FBF56C080911C0A811152C08091130A9091140A892B11F0F9DE4AC01092120A8C
S28400B10047C0813009F044C04FB7F89421E030E00A8002C0220F331F0A94E2F78091560A9091570A822B932B9093570A8093560A4FBF2EC0B80183E19AE00E942335F801428150E04930510508F07BCFFA01E85EFC4DC8010C94F9FA97D393E002C040D394E09A83A5CF87D295E0FBCF0E94B7DA96E0F7CF0E942CDA92E0F3CFB5D098E0D0
S28400B180F0CF0E947ADA99E0ECCF06D09BE0E9CF2296E4E00C94FDFBCF93DF93EC0118868B819C819C01215031092F333105C8F4805C9E4F9C838B838A81873031F0883081F4CE010E9401B703C0CE010E94E7B6882339F0813061F4D093550AC093540A07C01886EE81FF81CE010896199580E08093150ADF91CF910895CF93DF93C09140
S28400B200540AD091550A8A81873031F0883041F4CE010E9401B707C0CE010E94E7B603C081E0888702C0811106C0EE81FF81CE010896199580E08093150ADF91CF910895AEE0B0E0E6E2F9E50C94E1FB0E941BB782E088871E861D861A86198681E08F83CE0101960E9451BA8B859C850E941DFE73D00E94DFDA89D2F0D26ED30E9475DA7B
S28400B28068D00E94B4DA8EE48983809169188A83CE0101960E9416BB8FE4898380916B188A83CE0101960E9416BB89E5898380916A188A83CE0101960E9416BB80E589830FEF1FEF1B830A83CE0101960E9416BB83E589831B830A83CE0101960E9416BB2E96E4E00C94FDFB1F93CF93DF93EC010E9451BA182F882339F0813051F4D09352
S28400B300550AC093540A05C0EC85FD85CE01089619951093160A812FDF91CF911F9108951F93CF93DF93C091540AD091550ACE010E9451BA182F811105C0EC85FD85CE01089619951093160A812FDF91CF911F9108951092160A0895A2E0B0E0E2EBF9E50C94E3FB6EE37DE180E092E00E94FC37BE016F5F7F4F80E091E00E941E382981EA
S28400B3803A8180913E1D90913F1D9093431D8093421D9093451D8093441D9093471D8093461D280F391F3093491D2093481D1092411D1092401D6AE47DE183E292E00E94FC37BE016F5F7F4F8EE291E00E941E3829813A8180914A1D90914B1D90934F1D80934E1D9093511D8093501D9093531D8093521D280F391F3093551D2093541DDD
S28400B40010924D1D10924C1D2296E2E00C94FFFB9CE0899FF0011124E25CF24E86819781019608959CE0899FF0011124E25CF24E4FB7F894A681B7818C9190E001968A0F9B1F978386831C9226813781808591852817390751F484819581918780878081918195838483978386834FBF08959CE0899FF0011124E25CF24EA681B78182815E
S28400B4809381A817B90721F081E09C91911101C080E0089581E0EBDF8823F9F08091560A9091570A81609093570A8093560A2FB7F8948091110A81110FC03FB7F8948091D8099091D90981609093D9098093D8093FBF81E08093110A2FBF80E0C8DF8823F9F08091560A9091570A82609093570A8093560A2FB7F8948091110A81110FC0FA
S28400B5003FB7F8948091D8099091D90981609093D9098093D8093FBF81E08093110A2FBF0895A6E3B0E0E7E9FAE50C94E2FB182F6FDFFC01208130E0DC01A20FB31F12968C912F5F3F4F2E0F3F1FD9016C91813220F4811103C081E001C080E26295669566956370689FB00111248FEF869FA001879F500D1124CA0160E670E00E9494FA48
S28400B580D9016C93BF01CE0101960E942EDB882319F18A81982F977029F4807619F48B818C70B1F02091C4033091C5032E7F3093C5032093C403CE010196BED42091C4033091C50321603093C5032093C40304C080917F18898FE6CF812F24DF80E0E696E3E00C94FEFB81E042DF882311F081E098DF50DF80E0089580E039DF882311F099
S28400B60080E08FDF47DF80E00895A9E0B0E0EBE0FBE50C94E0FB8C018091190A65E0813029F4C4D0F82E811121C01EC080E0BED0F82E81111BC0F8018381898388E03496DE01129601900D928A95E1F7CE0101960E9416BBF82E8091190A823039F48091180AB3D065E0A2D01092190A8F2D2996E5E00C94FCFBA9E0B0E0E1E4FBE50C94D3
S28400B680E1FB8C01DC0113968C91833511F148F4853028F4823088F4811124C01AC092EB09C08438B1F028F4893579F08F36D1F410C090E1980F9330A8F4813F41F4F80194812091170A921339C091E00CC08935E1F390915A1D9093180A963119F492E09093190A90E02091190A211111C0911113C0898388E0F8013496DE011296019087
