S02B0000416C6C5F4D65676152665F41746D656761323536726672325F384D687A5F4763632F4578652F417000
S2840000000C94B2260C94E4F10C9410F20C943CF20C9468F20C9494F20C94C0F20C94ECF20C9418F30C9444F30C9470F30C94F9260C94F9260C94F5ED0C94F9260C944BEE0C94F9260C94F9260C94F9260C94F9260C94F9260C94F9260C94F9260C94F9260C94A2F40C94AEF00C9451F00C9480F00C94F9260C9433F40C940AF40C94F926D1
S2840000800C94F9260C94F9260C94F9260C94F9260C9448F10C94EBF00C941AF10C94A3F30C94F9260C94F9260C9464DF0C94C7E10C94F9260C94F9260C94F9260C94F9260C94F9260C94F9260C94F9260C94F9260C94F9260C94F9260C94F9260C94F9260C94F9260C94F9260C94F9260C94F9260C9423E20C94F9260C94F9260C944BE241
S2840001000C94F9260C94F9260C94F9260C94F9260C94F9260C94F9260C94F9260C9473E20C94F9260C94F9260C94F9260C94F9260C94F9260000000000000000000000000000000000000000000000000000000000000000000000000000000000000000000000000000000000000000000000000000000000000000000000000000000091
S2840001800000000000000000000000000000000000000000000000000000000000000000000000000000000000000000000000000000000000000000000000000000000000000000000000000000000000000000000000000000000000000000000000000000000000000000000000000000000000000000000000000000000000000000FA
S284000200000000000000000000000000000000000000000000000000000000000000000000000000000000000000000000000000000000000000000000000000000000000000000000000000000000000000000000000000000000000000000000000000000000000000000000000000000000000000000000000000000000000000000079
S2840002800000000000000000000000000000000000000000000000000000000000000000000000000000000000000000000000000000000000000000000000000000000000000000000000000000000000000000000000000000000000000000000000000000000000000000000000000000000000000000000000000000000000000000F9
S284000300000000000000000000000000000000000000000000000000000000000000000000000000000000000000000000000000000000000000000000000000000000000000000000000000000000000000000000000000000000000000000000000000000000000000000000000000000000000000000000000000000000000000000078
S2840044002A11160019001D0F03001800590ABD001700CC15010016008016080015000D1601001400041602001300701601002600131601001E00031601000F008A1601000E00741601000D007C1602000C00CD1501000B00C71502000A00EA1511000900E01501000800DF1501000700DE15010006007116010005007A1601000400C2155C
S28400448004000300FB1508000200C01501000100A415080000009A4712002E00BE4715002D00E84719002C001A4804002A002248110029003629A629A629A629A629A629A629A629A6299B2966296B29702975297A29812986298E299329AC50C94FEA50EA50EA50CE4FD84FEA50EA50E04FE54F0D501650EA501B5023502D50EA50365095
S2840045003B50EA5044507F509150EA5084508C50AC50AC50AC50A350A350A350A350A350A350A350A350A350A350A350A350A350A350A350A350A3505750A350EA50EA50EA50EA50EA50EA50EA50EA50EA50EA50EA50EA50EA50EA50A3509E50AC50A35051509650AE50AC50C550D350DA50AC50AC50AC504652B3518D528D528D52B9517C
S284004580BE5161528D52C151C451D551DA518D52DD51E051E3518D52E851EB516152F0513A524F528D523D524052B7514352435261526152615261526152615261526152615261526152615261526152615261526152205261528D528D528D528D528D528D528D528D528D528D528D528D528D528D52615257525A526152185252526952C6
S28400460072526C526F528D52805285528B52925394539F53965398539A539C537153A253A4537153A753FC53FF53035406540A540E541154155415547158AF58AF58AF587858955886588D58C0587F589C589C58A358AF58B758BB581B591E592159215923592D5927592A593A5925593059325934593759235B265B475B295B2D5B475B9A
S284004680315B475B3C5B3F5B455BAE5E5B5F6A5F695EB15FB15F665F6A5F6F5F9D5F865FB15FB15F9D5F9C5E9F5FB797BF97D697489848989F97AC97489848984898F697059822982E9848989C97CA976897359C359C5E9B669B669B739B739B909B909B909BEE9BEE9BEE9B899C359C34AA86AA5AAA5EAA5EAA5EAA5EAA5EAA62AA62AACB
S284004700C1BDC4BD65BE65BEC9BD65BED3BDBCBEBCBEBCBEBCBEBCBEBCBEBCBEBCBEBCBE65BE65BEBCBEBCBDCEBD65BE3CC98AC98AC98AC98AC98AC979C963C981C98AC973C98AC97DC985C960CB3BCC18CD43CD82CDAECEF7CED9D4D9D4D9D4D9D4D9D4D9D4D9D4D9D4D9D42ECE3CCED9D4D9D463CEFACCE1D6E9D6FBD604D706D708D7B2
S2840047800AD70DD7E0D758D858D806D80FD81FD828D82BD82ED831D837D800000100020003000400050006000700080009000A000B000C000D000E000F001E00180000000100020003000400050006000700080009000A000B000C000D000E000F001E00130014001500160000000100020003000400050006000700080009000A000B0023
S2840048000C000D000E000F001E0013001400150016001700180019002600130014001500160000000100020003000400050006000700080009000A000B000C000D000E000F001E00C2080000590A0000B3090000160B00004D0A000000000000400B0000AA10000002110000540E0000A60E0000700E0000DD0E0000200F0000641000009C
S28400488000000000000000001D0F00002A1100000000000000000000000000000000000000000000000000000000000000000000000000000000000000000000000000000000000000000000401100006811000047090000CC4A0200D04A0100D34A0100D14A0200D64A0100D74A0100D84A0100D94A0100DA4A0100DB4A0100DC4A0200C7
S284004900D44A0200DE4A0100DF4A0100F84A0200E94A0100EA4A0100EB4A0100F44A0400E04A0100E14A0400E54A0100E64A0100F04A0100F14A0100F24A0200000000000000000000000000000000000000000000000000000000000000000000000000000000000000000000000000E74A0100E84A0100FA4A0100FB4A0100FC4A0100F3
S284004980FD4A010000000000EC4A0400CE4A0200A4150800AE150100BC150400C0150100C21504007816010079160100801608007C160200041602000D160100741601008A1601007A160100C9150100CA150100CB150100CC150100C7150200CD150100CE15010076160100751601007F15010080150100FB150800E1150400D615040051
S284004A00DA150400DE150100DF150100E0150100EA15110071160100E5150100E61504006E1501008115020003160100C615010000000000000000006F1501000000000000000000000000000000000000000000000000000000000000000000000000000000000000000000CF150500D4150100D515010000000000000000000000000078
S284004A8000000000000000000000000000000000B01501000000000000000000000000000000000000000000000000000000000000000000000000000000000000000000C1150100B6150100AF15010085006C0001000007050007040205040204000308FF140000000108030303020A901A00000100000000000303141061620003001E74
S284004B00000003F400800000013412000303000002000000000003034C1D000010270000010001E803000004E80300001041746D656C2020202020202020202020FECAAAAAAAAAAA1A0002030100000000000000000000000000000005FF000000000000000000000000000000000000000000000000000000000000000000000000000047
S284004B80000000000000000000000000000000000000000000000000000000000000000000000000000000000000000000000000000000000000000000000000000000000000000000000000000002010002020508080000FFFF341200000000000000000202019641D24600000000000000000000000002F17DCF78010739997B730101DB
S284004C0039997B730101B07DE2900101357D41A00101357D10A00107EA7C6B730101927C5D8601010000000001070000000001010000000001030000656B01040000656B010500000000010600000000010D00000000010139990000000100000000010E00000000010700000000010A0000000001000000000001010000000001010000CA
S284004C800000000000005877000900005877000C0000587700000000587700F379C57FF896BCA9F8752E9D087BAE7B7E746B82B48891776AA08F7AFD74E67300000000B0733382000000001A692A6CB0698569A969000021692F699E692869206CD8681C6B236B926B146BB76900007A6C0201020303020201010101010101010102020193
S284004D000101020102020202020201020202020202010303020203F3A71F9ED696529F000055A6D58F0CAB000000003EB859BD0EC721C0E9D4F3C5D8E3D8E3D8E3D8E34AE50FE328F5C6ED78E0B6DF5BECFBEEFFEB8CEA07E9D9E32BE557E66AE429E555E668E40011248091EC1A823159F084B780FD04C08F718093EC1A07C081E08093B3
S284004D80EC1A03C081E18093EC1A14BE8091600088618093600010926000EDEEFAE18DEC01C0819390E7E030F907D9F3D0F311241FBEC0E0D0E7DEBFCDBF00E00CBF16E0A0E0B2E0E4EEFEEE01E00BBF02C007900D92AC30B107D9F72AE1ACE0B6E001C01D92AC3EB207E1F70E9484320E949A32FDCF0C9400007F937FB7F8949D9AA59813
S284004E008AEF4DD08AEF4BD09D9886E448D081E0959980E08F9380EF42D08F917FBF7F9108957F937FB7F8949D9AA59886E037D09D988AE034D0889495990894881F8F9384E62DD08F917FBF7F9108959F937F9398E0E7DF879577959A959923D1F7872F7F919F9108957F937FB7F894A5989D9A8F9386E014D08F91879508F49D988F9303
S284004E8084E60DD08F919D987FBF7F9108959F9398E0E9DF9A959923E1F79F91089500000000000000008A958823C9F708955F937F937FB7F894CF93DF93C0E0D0E07F935091B2007091B2007517E1F3739521965091B2005717D9F77F91CE01DF91CF917FBF7F915F91089580910E06809369022FB7F894809177079091780790619093E9
S284004F007807809377072FBF089560E181E093E0E7D282E1809369022FB7F8948091770790917807906190937807809377072FBF0895811104C060E282E193E0D1D280E092E00C948DE70895811104C062E285E393E0C6D282E292E00C948DE70895811104C060E288E593E0BBD281E192E00C948DE70895A0E0B0E0809315069093160663
S284004F80A0931706B093180660930E068FE096E00C945EE30895811104C062E289E793E09FD283E392E00E948DE780910D06882351F080918308813831F06FE08CE993E08FD210920D0680910C06882341F08091830882FD04C060E18CEA93E003C06CE08DEB93E07DD210920C060895EF920F9320917F0830E0322F222780918008282B3F
S28400500030937C0820937B0840E050E095E0E92E01E062E187E592E097D22091810830E0322F222780918208282B30937E0820937D0840E050E063E184E492E085D20F91EF9008958FEF8093840881E18093850885EE8093860882E7809387088AE88093880880E092E00E946FE7019621F465E18AEC93E035D280E092E00E94A5E70196ED
S28400508021F466E180EE93E02BD26CE087EF93E027C2089580E28093830883E392E00E946FE7019621F464E184E094E019D283E392E00E94A5E7019621F465E189E194E00FD26BE08FE294E00BC2089581E080930D0683E392E00E946FE7019621F464E184E094E0FDD183E392E00E94CDE7019621F465E18BE394E0F3D16FE080E594E005
S284005100EFC1089584EF8093830883E392E00E946FE7019621F46AE181E694E0E1D183E392E00E94A5E7019621F46BE18CE794E0D7D161E188E994E0D3C1089581E08093790880E180937A0882E292E00E946FE7019621F468E18AEA94E0C2D182E292E00E94A5E7019621F469E183EC94E0B8D16FE08DED94E0B4C108951092830883E322
S28400518092E00E946FE7019621F46AE18DEE94E0A7D183E392E00E94A5E7019621F46BE188E095E09DD161E184E295E099C1089581E080930C0683E392E00E946FE7019621F46AE18DEE94E08BD183E392E00E94CDE7019621F46BE188E095E081D161E184E295E07DC1089582E08093830883E392E00E946FE7019621F46AE186E395E0FB
S2840052006FD183E392E00E94A5E7019621F46BE181E595E065D161E18DE695E061C1089581E192E00E946FE7019621F469E18FE795E056D181E192E00E94CDE7019621F46BE189E995E04CD160E184EB95E048C108958091690290E0FC013197E331F10508F074C0E65AFD4D0C9442F61092690208D188EE93E0A0E0B0E0809322069093A6
S2840052802306A0932406B09325061092260685E897E2909328068093270680ED97E0A0E0B0E08093150690931606A0931706B093180681E08093190684E797E290931B0680931A066BE080ED97E033C010926902B9DE6CE02CC010926902DCDE6DE027C010926902F3DE6EE022C0109269020ADF6FE01DC01092690221DF60E188EE93E010
S28400530018C01092690239DF61E111C0109269024FDF8CE196E00C945EE308951092690263DF63E104C0109269027ADF6AE081E090E020CE08955ADE62E187E592E0D0D063E184E492E0CCD01092690208950895089508950895CF92DF92FF920F931F93CF93DF93E42FF0E0F09025072AEF30E02F1931092E173F0734F15091240720E0C7
S28400538030E0EC01C60FD11D0AEF10E02E173F07ACF4852F90E0BC01675D794F6B01BE01620F731FDB015C91D6015C932F5F3F4F0196B8010E94F1F5582FE8CF50932407F40EF0922507DF91CF911F910F91FF90DF90CF9008951F93CF93DF93109258071092590710912507112309F446C080912307E6E2F7E01333E0F4212F30E0CAEF06
S284005400D0E0AF0146525740421753075CF490E0DC01A75DB94F4C9141930196BE010E94F1F5EFCF80932307109358071092250718C02AEF30E090E0DC01A75DB94F4C9141930196B9010E94F1F597E0E835F90791F78093230782E38093580712531093250781E0809359074091580750E066E277E088E598E00E94C0E6DF91CF911F911A
S284005480089588EC809363081092640889E190E0909366088093650886E08093670810926808109269081092780810926D0810926C0810926F0810926E08109271081092700810927308109272088BEE99E2909377088093760888E598E00C9461E60895462F20915907222319F060E034CF0895FC01A6E2B7E0633370F4862F90E09D0107
S28400550026523740281739071CF421912D93F7CF409358070CC021912D9327E0A835B207D1F722E320935807425362E314DF81E0809359074091580750E066E277E088E598E00C94C0E60895A0E0B0E0EAEAFAE20C9473F6F12CF701E00FF11DC62FD0E0CE17DF07ECF0C0E0D0E08C010E0F1F1F6AE0862E912CA12CB12C2197F701EC0FAD
S284005580FD1F319669F06801CC0EDD1EB901CA01A50194010E9404F6605DF6016083EDCFCDB7DEB7ECE00C948FF6A2E0B0E0EBEDFAE20C9475F66C010091890810918A08E12CF12C80918D0890918E08E816F906A8F45801B8016C5F7F4F42E050E0CE0101960E943BF70A5F1F4F29813A812C153D0539F08FEFE81AF80AE4CF80E090E09C
S28400560001C0C5012296EAE00C9491F6ADE0B0E0ECE0FBE20C9477F67C016B0123E0969587952A95E1F7FC01E757F74F228D30E0B70167707727062E02C0369527950A94E2F78E010F5F1F4F20FF42C027E0E3EAF8E0D80101900D922A95E1F7A0E020E030E04A2F50E048175907D8F4F801E40FF51F4081542F569555754575540F452FD1
S2840056804695469543735373450F4083E42FEF7042954F7050E04E0F511D240F351FAF5FE0CFE0E0D801A80FB91F4E2F50E04617570780F44C9150E00E2E02C0569547950A94E2F741705527240F351FEF5FEDCF2FEF3FEF1B870A8746E0429FC001439F900D112404969987888786E090E09D878C8768EB7CE2CE01089672D18D819E81AB
S284005700E816F90639F084E090EA9093BD088093BC08E1D589819A81F601918380832D96E8E00C9493F6A6E0B0E0E9E9FBE20C9479F67C018B0180E090E0FC0133E0F695E7953A95E1F7EE0DFF1D6081AC0147705527262F30E0042E02C0369527950A94E2F720FF0DC021E030E001C0220F4A95EAF720952623208318DF009731F431C036
S284005780019683339105C9F62CC046E050E0BC01CE0101960E943BF789819A81F80193838283B8018D819E8131DFF801808191810596918380838B819C819583848382819381892B39F480E090EA9093BD088093BC0881D58D819E81F7019087878381E006C08FEF9FEFF7019087878380E02696E6E00C9495F6A8E0B0E0E1E0FCE20C94B7
S28400580073F67C01A0908B08B0908C08FC01868182FD09C000E010E0812C76E0972ECC24C394D12C0CC047E050E06FEF70E0C7010E946BF76DC0882483940F5F1F4F80918F08909190080817190708F05BC0909EB001919E700D11246A0D7B1D46E050E0CE0101960E943BF72D813E81F90163E0F695E7956A95E1F7EE0DFF1D408127700C
S2840058803327842F90E0022E02C0969587950A94E2F780FFD2CFC60102C0880F991F2A95E2F79C01209524232083812C882D90E02B813C818217930708F0BDCF880F991F69817A81680F791F42E050E0CE0107960E943BF78F819885FC0153E0F695E7955A95E1F7EE0DFF1D87709927960102C0220F331F8A95E2F7C9019081982B908365
S2840059008394D4CF882021F000E010E0812C97CF2896ECE00C948FF6CF93DF93EC018FEF9FEF98878F8387E0FB01DE0101900D928A95E1F7CE015FDFE3EAF8E0919188818923899388E0EA3AF807C1F7DF91CF9108958091B7089091B808A7C208951092B40889EA9CE29093B6088093B50808950895ECE9F8E0DC013D91CD012081232B5B
S2840059802193B8E0E33AFB07B1F78091B90884608093B90808950E9485EA882311F0DFD5FACF0895A2E0B0E0E8EDFCE20C947BF68B0189839A83EFDFB80189819A810E94A8E9019631F08CE2083B180721F4E3DF02C081E001C080E02296E4E00C9497F6A2E0B0E0E6EFFCE20C947BF68B0189839A83D1DFB80189819A810E9435E901966B
S284005A0031F08CE2083B180721F4C5DF02C081E001C080E02296E4E00C9497F6A2E1B0E0E4E1FDE20C9470F68091B908982F92609093B90882FF0AC06CE978E08AE597E06BDF8091B9088B7F8093B908CC24C394D12C7E013DE0E30EF11C55E0A52EB12C4E0182E1880E911CBE01695F7F4F8AE597E059DE882309F462C06090610770903A
S284005A806207F30163E0F695E7956A95E1F7E757F74FC30187709927960102C0220F331F8A95E2F7C901809593898923838BFC82EB82BE82AD828F81988505979A83898368EB7CE2CE0101968BDF4B855C8569857A8580E05ED0582E8D8558123AC08889998968167906A9F52B853C858E859F852817390771F59C828B82DE82CD8200E091
S284005B0010E02B853C850217130708F0ADCF2F813885200F311F3A83298368EB7CE2CE0101965EDFAB81BC81E985FA85E00FF11F9C91808198130DC00F5F1F4FE2CF8091B9088D7F8093B90860E070E08FE001D21CC05D86798A688A8B859C859F878E87FC82EB8285E090E09E838D838F81988505979A8389836EE07DE2CE01079612DF56
S284005B8068EB7CE2CE0101960DDF6296EFE00C948CF6FB01460F571FE417F50719F09191890FFACF08954F925F927F928F929F92AF92BF92CF92DF92EF92FF920F931F93CF93DF93CDB7DEB762970FB6F894DEBF0FBECDBF80E094E490938A088093890886E994E490938C0880938B0806E914E400501444C80166E070E00E94DDF5892B16
S284005C0039F080E290EA9093BD088093BC0863D326E030E0C801B9010E94DDF540918D0850918E08642B752B70938E0860938D0804EB14E406591444C801B9010E94DDF5892B39F081E290EA9093BD088093BC0842D3C80166E070E00E94DDF580918F0890919008682B792B7093900860938F080091890810918A0810929108109292086C
S284005C80109293081092940887E0E3EAF8E0DF011D928A95E9F7D12CEE24E394F12C80918D0890918E082D2D30E028173907C8F546E050E0B801CE0101960E943BF72B813C812B5F3F4F8091910890919208A0919308B0919408820F931FA11DB11D8093910890939208A0939308B09394088D819E81FC0133E0F695E7953A95E1F7E757FE
S284005D00F74F87709927970102C0220F331F8A95E2F7C901928D982B928F0A5F1F4FD394BECF26E0289F6001299FD00C112434E0C30ED11CE12CF12CCE010796988B8F8786E090E09A8B898BA12CB12C00E010E096E0792E22E2822E20EA922EF80183E0F695E7958A95E1F7E757F74F828D90E098012770332702C0969587952A95E2F760
S284005D8080FF41C07A9CC0017B9C900D112404969E878D8768EB7CE2CE010D9621DE8B859C858017910749F48F819885A985BA858C159D05AE05BF0559F01C870B87CF82D886E986FA8668EB7CE2CE010D96EADDC801EBDB2C01009729F49092BD088092BC0879D246E050E0B201CE0101960E943BF78B819C810596C80ED91EE11CF11C1C
S284005E008FEFA81AB80A0F5F1F4F0333110509F0A5CFA5DD62960FB6F894DEBF0FBECDBFDF91CF911F910F91FF90EF90DF90CF90BF90AF909F908F907F905F904F90089520E0FC013191CF01311105C02F5F2730C1F780E0089581E0089527E0FB0111922A95E9F7FC0123E0F695E7952A95E1F7E60FF71F8770992721E030E001C0220F9D
S284005E808A95EAF78081822B8083CB01B4CC0895A3EAB8E0FC013D9120812323219328E0AA3AB207C1F7CCCF0895A7E0B0E0EBE5FFE20C947CF6BE016F5F7F4FCEDFCE010196E6DFCE010196BBDF182F882339F0CE0101964EDD8091B90881FF9FDD812F2796E3E00C9498F608950895A2E0B0E0ECE7FFE20C947DF6809163078823E9F0EC
S284005F00BE016F5F7F4F81E290E00BD4BE016E5F7F4F8DE190E005D48981823071F48A8181110BC085E79FE290936C0780936B0784E697E00E94CFC202C00E94CBE02296E2E00C9499F68091630708950C9484EC0895A0E0B0E0EFEAFFE20C9475F6B82E7B01082F10E093E0169507959A95E1F78770C1E0D0E001C0CC0F8A95EAF7AC2EFF
S284005F808FE38B1538F484E090E89093BD088093BC08A1D1F801E359F84F80818C2311F1C0917507D091760785E0C82E80E8D82E2097C1F0FE01E00FF11F82818A2171F02A853B85232B29F4D092BD08C092BC0882D1EA85FB85B7018B2D19950990D881C02DE6CFCDB7DEB7EAE00C9491F6E82FF0E023E0F695E7952A95E1F7E359F84F1A
S284006000208130E0877041E050E002C0440F551F8A95E2F72423352381E0232B09F480E00895282F30E043E0369527954A95E1F7620F731F877021E030E001C0220F8A95EAF7FB019281922381E009F480E008951F93CF93DF93182FEB01803438F023E030E83093BD082093BC0835D1BE01812FD8DF81112AC0BE0185E797E09AD0811180
S2840060800BC088E0FE013296DF011D928A95E9F7BE0185E797E09DD0412F50E063E0569547956A95E1F7177021E030E001C0220F1A95EAF7C40FD51F8A81822B8A83FA01E359F84F8081822B8083DF91CF911F9108951F93CF93DF93182FEB01803438F023E030E83093BD082093BC08F4D0BE01812F97DF882369F1212F30E073E03695B6
S28400610027957A95E1F7177041E050E0012E01C0440F0A94EAF7942F9095C20FD31F8A8189238A83E0917507F0917607309759F0DF01A20FB31F12968C91842351F40190F081E02DF3CFF901E359F84F808189238083DF91CF911F910895DC01ED91FC911197309721F0208131812D933C93CF01089561157105A1F0DC01ED91FC91119780
S284006180E617F70759F4208131812D933C930FC0808191818617970729F0FC013097C1F780E00895DB018D919C919183808381E00895DC01ED91FC91309739F0E617F70731F00190F081E02DF7CF80E0089581E008950F931F93CF93DF938C01EB01E9DF882349F080E090E89093BD088093BC085AD080E014C019821882D801ED91FC9166
S2840062001197309719F4CD93DC9308C080819181009711F0FC01FACFD183C08381E0DF91CF911F910F910895CF93DF93FC0182819381009781F40E94B2E3C22FD32F0E94925244E0FC0121913191CF01C227D3274150C1F7CE010E9430F781E08093700288E792E00E945EE3DF91CF9108958AE692E00C940353089580917002882369F000
S28400628088E792E00E948EE384E191E3909377028093760210927002EACF089588E792E00C948EE3089582E090E09093BF088093BE088091BC089091BD089093C1088093C008E091BA08F091BB08309719F08EEB98E01995089583E090E09093BF088093BE088091BC089091BD089093C1088093C008E091BA08F091BB08309719F08EEB3A
S28400630098E019950895EF920F93FC01618372834F3740F081E090E89093BD088093BC08C2DF20C0403808F04FE7440F808181700187842BE0FA80F9808334832383CB01AC016081669504962181328174E0679F200D311D11244217530720F4DC0111971C92EECF0F91EF900895A0E0B0E0EBEBF1E30C9476F6EC018B01B42E0E94B2E39F
S28400638069017A018D819E81AF81B885A7019601281B390B4A0B5B0BCA01B9012B813C8140E050E00E9404F62F3F31054105510518F42223F9F001C02FEF89819A81BC0138813695049649815A81E4E03E9F400D511D11246417750748F4FC013291432F231708F4422F341B3083E9CFCD82DE82EF82F886A981BA814881842F86959D0131
S28400640054E0859F200D311D1124C901E0E0F0E0A817B907C0F413965C911397552359F02D913C9111972017310729F412962C9112972B15C1F0309719F02381521708F4FD011496E5CF40FD06C0309771F0838181110BC002C0309751F011830083B2828985838304C080E003C082E001C081E0CDB7DEB7E9E00C9492F6FECE089508955E
S284006480CF93DF93609185027091860280E090E0E1E0F0E09F01082E02C0220F331F0A94E2F740917707509178074623572342235323452B11F16FB7F8944091770750917807209530952423352330937807209377076FBFFC01EE0FFF1FEB53FA4FC081D181209739F486E090E89093BD088093BC08F1DEFE01199504C001968F309105F6
S28400650049F6DF91CF9108950E9456E10E941FB2882371F02FB7F8948091770790917807806190937807809377072FBF81E0089582E00895A5DF60E070E08BE20ADD8091770790917807892B09F4D0DC209177073091780781E0232B09F480E0089590CF0895FC012081211105C021E02193CF010C945EE30895FC012081213021F411922B
S284006580CF010C948EE30895A5E0B0E0EAECF2E30C9479F67C012A833B834C835D836983EADFF7011082698163872A813B814C815D812783308741875287158704872596E6E00C9495F6089589E3E3E8F5E1DF011D928A95E9F7E4EAF5E181E080839AE0918312821382148215821682178295E09093AE158093B61587E08093AF1547E8BD
S28400660050E06CE57BE484E096E10E943BF743E150E069E47BE480E795E10E943BF743E050E066E47BE48DE695E10E943BF748E450E06EEF7AE48CEB95E10E943BF78BEA9CE0E2ECF8E0DF019C011D9221503040E1F70895A4E0B0E0E0E3F3E30C947DF6BC011A8219821C821B828827811521E0920769F0811522E09207B9F0892BE9F499
S284006680660F771F660F771F6057764B07C07727660F771F660F771F6C52774B44E050E0CE0101960E943BF70FC07727660F771F660F771F6C5B774BF1CF8AE090E69093BD088093BC0807DE69817A818B819C812496E2E00C9499F677DF65CA0895A4E0B0E0E5E7F3E30C9479F67C018B01B2DFEE24E11422E0F20669F026E030E63093BB
S284006700BD082093BC0869837A838B839C83E3DD7A816981F801718360832496E6E00C9495F6A4E0B0E0E7E9F3E30C9479F68C017B0190DFE114F10479F420E030E63093BD082093BC0869837A838B839C83C3DD9C818B817A81698100270115110549F0011521E0120751F4AC01C7010E943BF70CC0AC01C7010E9451F707C081E090E61E
S2840067809093BD088093BC08A6DD2496E6E00C9495F6A0E0B0E0EFECF3E30C9477F68C01EB0158DF6B017C01209739F484E090E69093BD088093BC088EDD00270115110539F085E090E69093BD088093BC0883DDA701BE01C6010E9451F7CDB7DEB7E8E00C9493F6FC0195A5892F887090FF09C0882379F081E021A532A52236310550F49D
S28400680008C0882331F081E021A532A52436310508F480E08170089521E030E001C0220F8A95EAF780917C07822B80937C072FB7F8948091770790917807806290937807809377072FBF0895CF93DF93E0919016F09191168E179F0718F482E894E446C08E1B9F0B6CE670E00E94DDF580918B16681718F083E894E439C08CE6689FE00DB6
S284006880F11D11248781869590E08230910559F014F00397D1F580918F168823B1F1815080938F1632C080918E16882319F0815080938E16DF01AC5ABF4FCD91DC912091931630919416CE01821B930B63E270E00E94DDF5C217D30718F484E894E406C080918C16681740F085E894E49093BD088093BC08D8DC0CC0D90183E2689FA00DE0
S284006900B11D11248C9181111C9287818E7F8783DF91CF910895CF93DF93EC0118A68EA19FA1892B39F484E494E49093BD088093BC08D1DCEEA1FFA1CE0188961995DF91CF910895EF92FF920F931F93CF93DF93A0918B16409190165091911620E030E090E09A1709F45AC0FA01E20FF31FB90164597F4FB781B0FD63C07F0194E5E90E46
S284006980F11CD7011D921C928230B1F010F08330F1F590918F1640918D16941708F03EC09F5F90938F16138214821582168290859F709087128235C010918E1690918C16191760F500919216409193165091941690E09017B9F0EA014D5D5F4FBA0163527109DB016C9161110BC01F5F10938E1641E048836896D701CD93DC93428302C0FA
S284006A009F5FE7CF4091921649130BC007C081E894E49093BD088093BC085DDC80E090E012C09085907F9087880F81608783118210828091901690919116820F931F03C09F5F9B018ECFCDB7DEB7E6E00C9495F620918D07215020938D07BC0187EA97E0B8DB81E0D9CE0F931F93CF93DF938C01C0917D07D0917E078091790790917A0733
S284006A8080519140813F954048F4B8018DE797E0A0DBCD2B59F480E0BFDE08C083E694E49093BD088093BC0816DCEFCFDF91CF911F910F910895BC016151710989EA97E088DB81E0A9CE20918D072F5F20938D070C9499926F927F929F92AF92BF92CF92DF92EF92FF920F931F93CF93DF931F92CDB7DEB78C017B01FB01E25AFF4F88E251
S284006B0095E3918380833E9782E08083D80159968D919C915A973196918380839E968C919E97379680833196108231969D968C919D978095881F8827881F8083319681E08083319680839D968C919D9786FD0BC021E059968D919C915A97883F9F4F08F020E0822F01C081E0F701E35AFF4F81708083C80137DEF701ED5AFF4F6F019701F9
S284006B802C5A3F4F3901882309F442C090903D1740913E17242F30E08091411790E001972817390739F4D80199968C91499D80191124982EA92CB12CC5014E968236910538F081E594E49093BD088093BC0883DB30913D1720913E178091531790915417F80163A574A5329F600D711D1124A5014E960E9451F78AE0890DD6018C9380915A
S284006C005317909154174496F301918380830EC0D80199968C919997885F80839B968D919C919C970897D9018D939C93F301C080D180D6012C912C7F2F7E2C93F801818D928D237F883F9F4F10F02860D6012C93F60180818F7D8083D8019D969C9192FD03C08F7B808322C08064F6018083D70118962C911897207F216018962C93C8013E
S284006C802983B0DD29812F70882341F0809143178295807F822BF701808708C080916E158295807F822BD70118968C93C8019ADDF60190818823A1F09068908390913E1780858C7F911106C08160808780914117818709C08260808780913E17818703C09F77F6019083D80193968C919397F601818396968D919C91979793838283949639
S284006D008D919C9195979583848398968C918683C80168DD882331F080914217D60117968C9308C08091A40791E0980F9093A407F6018783C7010996C6DE80E00F90DF91CF911F910F91FF90EF90DF90CF90BF90AF909F907F906F900895E0915117F0915217BF0180819181B5CEE0E3F7E1F0930117E093001792E09093FC162091A3167A
S284006D803091A4163093FE162093FD169BE09093FF16109204171092051791E09093061790930717109208172BE139E330930B1720930A1790930917908190789260906890839091AA16909331172091A6163091A71630933317209332172091A8163091A91630933517209334179091A516909336179091AB169093371792E0909338179C
S284006E009091A116909339179091A21690933A1790913B179093191710929C1610929D1610929E1610929F168093951685EB96E14ACEA4E0B0E0EFE1F7E30C947BF6182FBE016F5F7F4F8AE190E06BDC20919207309193074091940750919507A12FB0E00E945DF609811A812B813C81600F711F821F931F2496E4E00C9497F60F931F9347
S284006E80CF93DF93EC018C0107551109FC013C970190F081E02D6FEF818192810E94B889882361F0FE01329788E295E39183808323971882C8010E94899202C0CE01C8DDDF91CF911F910F91089562E976E180E191E027DC63E976E18EE092E000DC809193169091941620E030919216231748F4FC0133E2239FE00DF11D112410822F5FAC
S284006F00F3CF6BE876E18FE091E00BDC60E976E18DE092E0E4DB20918B16E0919016F091911680E0821739F097819E7F97838F5FE459FF4FF7CF9091921690938C1680938D1610928E1610928F166DE377E188E291E0E7DB6BE976E189E291E0E2DB6AE976E188E191E0DDDB80919A16882351F066E976E18FE092E0B2DB63E577E180E102
S284006F8092E0ADDB30919A1620919B168091961690919716329F800D911D112490939916809398161092951608956EEA77E082E192E095DB6DEA77E087E191E0B2DB8091AD07E091AE07F091AF07882349F0309739F489E294E49093BD088093BC0863C99F0146E1849F200D311D1124C90128EAE817F90718F4258B7696FACF08951F9351
S284007000CF93DF93EC01162F0097B1F08D819E81892B91F08DE797E0A0D81F83ED81FE81CE010796199580917D0790917E07892B59F080E0F1DB08C08BE694E49093BD088093BC0848D9E6CFDF91CF911F910895A1E1B0E0EEE2F8E30C946DF68C01262E29873A874B875C870E945ADFE091960729853A854B855C85EE2361F130908B1606
S284007080C0909907D0909A07E0909B07F0909C072B013C014C185D086E087F084D825E826F827886E0919016F0919116198A66246A94762C430169827A828B829C8246015701861A970AA80AB90A8D869E86AF86B88A0BC00CE619E3A3C0A781A0FD09C0A989AF5FA98BE459FF4FB989B311F5CF40C0B085BF70B23099F7AA7FA23081F777
S28400710083809480A580B68081149104A104B10439F3E017F10721F34D805E806F807884481459046A047B0468F44D845E846F847888840C951CA61CB71C83829482A582B68204C0138214821582168283809480A580B68049805A806B807C8084149504A604B70408F0BCCF89829A82AB82BC82B7CF211046C080909C1690909D16A09010
S2840071809E16B0909F1681149104A104B104C9F12B013C014C185D086E087F08481459046A047B0488F4C80CD91CEA1CFB1CC61AD70AE80AF90AC0929C16D0929D16E0929E16F0929F1608C010929C1610929D1610929E1610929F1680919C1690919D16A0919E16B0919F1649805A806B807C8084159505A605B70520F489839A83AB8321
S284007200BC8389819A81AB81BC81281739074A075B0710F4DA01C9010CE619E39C01AD0161E086E997E0B0D986E997E09AD96196E2E10C9489F680918D07815080938D0780919516833009F43CC0823039F082E594E49093BD088093BC083DD8E0913C17EE2379F181E080939516A0916F15B0E011972AE030E00E9457F69B01AC01809185
S2840072808E0790918F07A0919007B0919107280F391F4A1F5B1FA0916E15B0E00E945DF69B01AC0160939C1670939D1680939E1690939F16E150E0933C1761E080E090E0C7CE1092951610929C1610929D1610929E1610929F160895A4E0B0E0E2E7F9E30C9475F62FEF3FEFA90110E0AA24AA94B12C80918B16181708F054C0E09190163A
S284007300F09191168CE6189FE00DF11D1124678160FF46C07085872F8F70823009F040C0862F8A7F8230E1F583819481A581B681C0909D07D0909E07E0909F07F090A0078C199D09AE09BF0983839483A583B6830097A105B105E9F4872F807F846080876E7F663059F4C50100906F1502C0880F991F0A94E2F780958093401781E029837D
S2840073803A834B835C8348DA29813A814B815C8107C082179307A407B50710F49C01AD011F5FA7CF80919C1690919D16A0919E16B0919F160097A105B10551F1C0909D07D0909E07E0909F07F090A0078C199D09AE09BF0980939C1690939D16A0939E16B0939F160097A105B10559F482E029833A834B835C83B9DC29813A814B815C81CE
S28400740007C082179307A407B50710F49C01AD012F3FEFEF3E074E075E0751F00CE619E361E086E997E0B0D886E997E09AD803C086E997E0A0D82496EAE00C9491F6A0E0B0E0E5E2FAE30C9474F68C01962EC091AE07D091AF078091AD076E0196E1899FC00CD11C1124F8018589811109C07E01F6E1EF0EF11C58018CE0A80EB11C09C04A
S28400748085E294E432C08A3A89F06696F6E1EF0EF11CF801CC15DD0508F04AC0908521853285F70131978081843A69F7F7013E9780819813EACF89859A852817390729F748E050E0B801CE010E9444F7892BE9F6F8018385F7013B9790818913D6CF813059F0833091F086E294E49093BD088093BC080E9453311DC0F801248535858C85E5
S2840075009D852817390709F617C0F8019489F701329780819813B9CF48E050E0BE01645F7F4FC5010E9444F7892B09F0AECF04C0958A80E090E001C0CE01CDB7DEB7EBE00C9490F6CF93DF93EC010097B1F18AEA8D8B0E94925248E050E0BC01CE010E9444F7892B51F582E88D8B888581508E3F20F58B858330C9F48C8981508E3FE8F4AA
S2840075802C853D854E855F85688979898A899B89A0E00E94D8F671F480E194E49093BD088093BC080E94533108C0813019F086EA8D8B03C01D8A81E001C080E0DF91CF910895CF93DF93EC01009761F169AB4115510551F0FA0140815181628173814AAB5BAB6CAB7DAB04C01AAA1BAA1CAA1DAAEFA5F8A9309749F484E594E49093BD0896
S2840076008093BC080E9453310DC0CE01C1961995CE01E8D8882331F0109252171092511781E0FAD8DF91CF910895A1E0B0E0EBE1FBE30C947BF68C01FC012081318180919316909194162817390740F487E494E49093BD088093BC080E946B31F801808191812091931630919416821B930B63E270E00E94DDF580918C16681750F088E4A3
S28400768094E49093BD088093BC0869830E946B3169818091931690919416F3E26F9F800D911D11242196E4E00C9497F6FC0120814597211107C0BC018BEA97E00E94E93081E0AAC840E050E069EA7BCFA3E0B0E0ECE6FBE30C947BF68C01675F7F4F7A836983BE016D5F7F4F8EE090E01AD88B81D80199965C9199974091A407882309F4C7
S28400770042C089819A81FC01E95BFF4F21E0208359962D913C915A973196318320833296585F50839B96ED91FC919C979C01255B3F4F3897D901ED93FC938FEF8183D80196968D919C9197979383828394968D919C9195979583848398968C91868381E0840F8093A4074783D901ED91FC918081807888608F778083E981FA81EB5AFF4F0B
S28400778088E295E344C089819A81FC01E95BFF4F22E0208331962DEF3FEF318320833296575F5083D8019B96ED91FC919C979C01255B3F4F3997D901ED93FC93D80159968D919C915A979283818396968D919C9197979483838394968D919C9195979683858398968C91878381E0840F8093A4074087D901ED91FC91808180788C608F77A1
S2840078008083E981FA81EB5AFF4F8EE397E391838083E981FA81D8019E968C919E97E15BFF4F8083E981FA81E05BFF4F80916D158083E981FA81EF5AFF4F9D968C918095881F8827881F8083E981FA81EE5AFF4F81E08083E981FA81ED5AFF4F8083E981FA81EC5AFF4F808389819A812CD980E02396E4E00C9497F6DC01ED91FC919093B9
S28400788052178093511710923E1710923F1780916E158093431720913D1730E081A592A5B9010E94DDF5462F6093411781A592A5B9010E94DDF5892B19F04F5F409341178FEF90E000906F1502C0880F991F0A94E2F780958E7F809340178091A40791E0980F9093A407809342170895A0E0B0E0ECE7FCE30C9474F6EC016B01942E59012C
S2840079000091AE071091AF078091AD07780196E1899FE00CF11C1124209761F0C017D107F0F583E294E49093BD088093BC080E946B3135C0E801CE01801B910B66E170E00E94DDF5892B79F084E294E49093BD088093BC080E946B3106C01D89143A39F01A3A29F06696CE15DF05B8F313C088859812F8CF89859A85C816D90699F748E04C
S28400798050E0B501CE010E9444F7892B59F7143A49F703C080E090E004C0CE0102C06696CACFCDB7DEB7EBE00C9490F64F925F927F928F929F92AF92BF92CF92DF92EF92FF920F931F93CF93DF931F92CDB7DEB72C017B010E9492526C0157018AE6A80EB11CF501008111814114510431F0E114F10419F0C114D10451F484E194E490939D
S284007A00BD088093BC080E94533188EA5EC058EAF20166A177A1960140A5C801598366DF8C015981009709F44FC0F20186899789892B19F5F8017384F3E07F121EC048018CE0880E911CC4010E946BC2892BA9F4F2017286D2011D9688E0F40101900D928A95E1F786E79DE3F201978B868BC20106960E9460C280E028C0F5011183008378
S284007A80F80183858330B1F4C8010C960E946BC2009711F459EABCCFF8012489F20123A3FC0180819181F201928F818FB701C20111D80BC0F80184859585F201928F818FB701C20103DE01C0852F0F90DF91CF911F910F91FF90EF90DF90CF90BF90AF909F908F907F905F904F900895FF920F931F93CF93DF938C010551110920918B16B8
S284007B00C0919016D0919116F12CF216E9F08F8180FF16C0888199818017910789F4BE01C80144DF882381F040E050E0682FC80148DDCE010E94243481E00E940C3404C0F394C459DF4FE1CF80918B16F81640F085E194E49093BD088093BC080E946B31CDB7DEB7E5E00C9496F6EF92FF921F93CF93DF931F921F92CDB7DEB77B010097E6
S284007B80A1F06115710589F0FC01178A168AF701E659FF4F11821082B70108DF182F882389F0C7010E9424340DC023E134E43093BD082093BC0889839A830E946B3189819A81E2CF812F0F900F90DF91CF911F91FF90EF900895A1E0B0E0E1EFFDE30C9479F68C01262FDC01ED90FC90009709F444C0E114F10409F440C02E3C61F0822F15
S284007C008F7D803D41F0213D11F082E005C0F70185A587FFFACF83E0F801EB59FF4F4081518162817381D701D2964D935D936D937C93D597D1962C93833071F0D801ED91FC91808D811108C0F701178A168AB801C701ACDE883AE1F4A7014E5C5F4FD701D1966C91F80180819181ABDCC8010E94243481E00E940C340BC08FE494E490931D
S284007C80BD088093BC0829830E946B312981B5CF2196E6E00C9495F6CF93DF93EC0152DC882309F454C060E0CE01C9DB892BC1F5209709F43EC08D8981113BC05091AD072091AE073091AF0740E0451781F0C9012A5E3F4FF90131976081683A31F424EAFC01258B009731F432C04F5FEECF8EEA8D8B2DC0209719F03D89332349F087E28E
S284007D0094E49093BD088093BC080E9453311AC036E1FE01DC0101900D923A95E1F706C066EACE018CDB009791F024EAFC01258B09C080E294E49093BD088093BC080E946B31BCCF60E070E080E10E94A92FDF91CF910895CF93DF93EC010097D9F08091AE079091AF07C817D907A0F02091AD0736E1239F800D911D1124C817D90750F41D
S284007D808D89843A11F08A3A71F488EA8D8BDF91CF91089581E294E49093BD088093BC080E946B31EDCF82E294E49093BD088093BC080E946B31E9CFCF93DF93EC01C2DB882359F064EACE013ADB009731F0C2DF60E070E080E10E94A92FDF91CF9108952091AE073091AF07009751F0FC0176968091AD0796E1899F200D311D112408C015
S284007E00F901F6CF8589843A49F08A3A39F07696E217F307B8F380E090E00895CF010895CF93DF93EC01BC018BEA97E00E94E9301F8A1E8A81E00E940C34DF91CF910895CF93DF93EC01BC0189EA97E00E94E9301B8A1A8A81E00E940C34DF91CF910895AAE0B0E0E6E3FFE30C9473F61091AE15BE01665F7F4F87E091E00E949133BE0105
S284007E806F5F7F4F8AE190E00E949133C980DA80EB80FC80812F90E0A0E0B0E08C159D05AE05BF0578F0CC0CDD1CEE1CFF1CC982DA82EB82FC82BE016F5F7F4F8AE190E00E94C933C12ED12C87E0C80ED11CEE24D7FCE094FE2CC0929207D0929307E0929407F09295072A8530E0A3E0B0E00E9448F69B01AC01C701B6010E94C2F5098160
S284007F001A812B813C81600F711F821F931F60938E0770938F07809390079093910781E08887BE01675F7F4F87E091E00E949133BE01685F7F4F84E290E00E949133898590E0A0E0B0E0880F991FAA1FBB1F8F3F9105A105B10529F020F08FEF90E0A0E0B0E00E941937E885EE2309F45AC0812C912C54018B019C0101501E4F2F4F3F4FEF
S284007F80800E911EA21EB31E660F771F881F991FE15081F718867501640129E0F694E794D794C7942A95D1F7D501C4019170AA27BB2741E050E060E070E0892B8A2B8B2B19F440E050E0BA01C40ED51EE61EF71E1E821D821F82BE01695F7F4F81E191E00E949133BE016B5F7F4F88E092E00E946F33970186010F3F11052105310529F0A7
S28400800020F00FEF10E020E030E06D817E81C12CEE24E39420E032E04F818FE797E00E9483312A96ECE00C948FF6882331F00E942DF78093A40710928D071092AC071092AB071092AA071092A9071092A8071092A7071092A6071092A5078AE090E0A0E0B0E080934A1790934B17A0934C17B0934D178DEA96E39093501780934F1781E02E
S28400808080934E171092A2161092AB161092A0161092A7161092A6161092A1161092A5161092A9161092A8161092A4161092A3161092AA161092951610929C1610929D1610929E1610929F168CE6ECEAF6E1DF011D928A95E9F783E2E8E1F7E1DF011D928A95E9F780919B1690E0019620919A16289FA001299F500D112460E070E0809130
S2840081009616909197160E946BF780E397E19093011780930017A4CE4F925F927F928F929F92AF92BF92CF92DF92EF92FF920F931F93CF93DF931F92CDB7DEB77C01009781F02C0127E0421A510880917D0790917E078415950529F4D20112968C91893149F086E694E49093BD088093BC080E945331CBC08091790790917A078115B7E0F5
S2840081809B0709F07FC00091AB071091AC070115110551F08BEA97E00E94AD3040E050E063EAC8010EDAEFCF6CE6C62ED12C7CE6772EE2E4AE2EE4E4BE2EF3E48F2EF4E49F2E0091A7071091A8070115110509F444C0B80187EA97E00E94B9308091901690919116F801E81BF90BCF01B6010E94DDF580918B16681740F0B092BD08A09250
S284008200BC0869830E946B316981E0919016F0919116679DE00DF11D1124808191812781269530E02130310561F02230310549F2232B61F4A8014B5F5F4FD80112966C9103C040E050E067EABCD9BBCF9092BD088092BC080E946B31B4CF10E080918B161817D8F48091901690919116BCE61B9F800D911D1124FC01278120FD0E942434C6
S2840082801F5FECCF8115924041F087E694E49093BD088093BC080E946B3110927C0710927B0781E0C2DE0E9465370E94D53782E393E090937A0780937907D7018C91F20182878DE797E00E94AD30D20118968D919C911997892B41F489E694E49093BD088093BC080E946B31D2011896ED91FC911997C7010396199580917D0790917E0756
S284008300892B19F080E00E940C340F90DF91CF911F910F91FF90EF90DF90CF90BF90AF909F908F907F905F904F900895CF93DF93C0917D07D0917E07209741F484E694E49093BD088093BC080E946B318A818A38F9F0853C09F44FC0893109F06CC08091790790917A078031914019F480E092E002C080E097E090937A07809379078CE874
S28400838090E49E838D83CE0103960E9476A95BC08091790790917A07823323E0920719F08031964049F48FE394E090937A078093790756DD1D8202C083EA8D838DE797E00E94AD308B819C81892B41F48AE694E49093BD088093BC080E946B31EB81FC81CE010596199580917D0790917E07892B51F180E018C08091790790917A078F3350
S2840084009440A1F480E095E090937A078093790782E090E09C838B8386E997E00E94BB3210928D0781E00E940C340DC063EACE010E94FF3708C085E694E49093BD088093BC080E946B31DF91CF910895AAE0B0E0ECE2F2E40C947DF6DC011396ED91FC9114972181328140E450E05A834983AE01495F5F4F5C834B8341E050E05E834D83AC
S2840084806F3FBFEF7B0719F437FF15C003C02617370789F098878F837A876987BE016F5F7F4F8EE10E94A92F81E02D813E81232B19F080E001C081E02A96E2E00C9499F6009729F480918B0790918C070895FC01808191810895CF93C82FE0E0F0E0CF01EFDFFC01009739F0A381B4818C91C813F6CFCF0102C080E090E0CF910895DF928D
S284008500EF92FF920F931F93CF93DF938C01009741F480E394E49093BD088093BC080E946B31C0E0D0E0A1E3EA2EA4E4FA2ECE01C7DFEC01009789F18A818111F8CF8B819C81892B31F4F092BD08E092BC080E946B31F80160A171A1CE0178DF882339F3EB81FC81D0806D2DF801878190850E94B8898823E1F2F801D18AED81FE81309700
S28400858049F482E394E49093BD088093BC080E94533103C0C8011995CACFCDB7DEB7E7E00C9494F6A1E3B0E0E8EDF2E40C9473F68C01B62EDC015C96ED90FC905D9757966D917C915897F70147818FE797E00E94B531882309F414C1D70111968C919FEF980F9E3F28F477DF6C01009719F408C1C12CD12CF801248985899689213009F0FB
S28400860022E02F8399878887D70111968C918A8BF8018789908D0E946EC2FC01009799F083E08B8B708161815281438134812581968187817E8B6F8B588F498F3A8F2B8F9C8F8D8F02C082E08B8BD80157968D919C9158979D8B8C8B59968D919C915A979F8F8E8FF701868188A3848195819AA389A3828193819CA38BA35B968C9190E0C4
S2840086809C012A5031093EA32DA319A6208127FD04C09C012850310906C02085237029F49C01295031093EA32DA32DA13EA1821B930BF801248D358D280F391F38A72FA3BAA684A18BA7868D8CA740A151A162A173A14DA75EA76FA778AB878D89ABD7018C9187FF48C018968C918370823009F042C0E0919816F0919916808190E09EA3DC
S2840087008DA38080912CAA24A394B12C2091A01630E08091961690919716A216B3064CF5E0919816F0919916EA0DFB1D408150E020919B162A9DB0012B9D700D1124680F791F880D991D0E9451F7E0919816F0919916EA0DFB1D20818DA19EA1820F911D9EA38DA3BFEFAB1ABB0A8081880E911CCDCF98A78FA3C114D10449F0D601159680
S284008780ED91FC911697CE010196199539C0F8018489813021F4CE010196B1DE31C0D70111968C918F3F41F5E12CF12CC70188DE7C01009729F1D7011396ED91FC9114978081882399F312968C918111EFCF69A17AA1C7013BDE882349F3D7011396ED91FC91149780818A8B1596ED91FC911697CE0101961995DACFCE0101960E94DCC94C
S284008800C8010E948B34E196ECE00C948FF6A1E0B0E0EDE0F4E40C9475F65C01DC015C960D911C915D97F80181812FEF280F2E3F80F4298350DE7C012981009751F0D80114966D917C91159701DE882309F405C105C02E3F08F401C1E12CF12CF801808187FF04C09085937009F0F7C086FFF7C08C70883009F4F1C0D50157968D919C91D2
S2840088805897883FBFEF9B0708F0E7C0E114F10421F0F70122812111E0C0D5015C960D911C915D97F801208126FD02C090E0D2C02370213009F027E0F0908B16E0919016F091911630E0422F50E0B801640F751F3F15E9F0A781A530B1F4DF01AF5ABF4F0D90BC91A02D8A179B0769F4DF01AC5ABF4FCD90DC90C40ED51EDB01EC90D6015B
S284008900DC90ED1499F23F5FE459FF4FE1CF82E029830E94A2342981009741F2FC01EC5AFF4F0190F081E02DDF0158973FEA11963C9311971396BC92AE92129762E0DC01A05BBF4F6C93D50157964D915C915897DC01AF5ABF4F11965C934E9317961C9211961C9231E011963C9311963C9311961C9248E255E3129611965C934E93119757
S2840089803C9330813C7F32603083D8014C914C70337F342B30834C914295417040FB34F93E7D3F7B30834C9147FB442740F940FB37F930834C9130E0DC01AD5ABF4F7D0144FF0DC0D5015C964D915C915D97420F531FDA012C912183F701608337C048E04C93D80116964C911697418312964D915C9113975383428314964D915C9115976E
S284008A005583448311964C914683D5015C964D915C915D97420F531FDA012C912783D8012C9127FF13C018962C91237031F41086F70120812F5F208309C0D7012C912D5F2C93D80118962C912370208709960E94633591E081E08927A1C190E001C091E0F801808187FF92C18085837009F48EC1D5015C960D911C915D975B968C91F801BC
S284008A80F18420919A16222309F487C196EFE92EE80E80919516813009F456C030F0843008F06BC180E494E46AC1D084B1E0DB1274C12F1508F471C180919B168E1508F46CC190E00196289FA001299F500D112460E070E080919616909197160E946BF78FEA80933B17D0929516F092A016F5018789908D9093A4168093A316D8011196A2
S284008B008C9111978093A51612968D919C9113979093A7168093A61614968D919C9115979093A9168093A81616968C9116978093AA1617968C918093AB1680916E1580933C171092A116F12CF8018085982F9370923011F0F11021C18C7F09F01EC18091A0168F1508F419C12091A3163091A416D50157968D919C9158972817390709F07A
S284008B800CC19091A516F8018181981306C12091A6163091A716828193812817390709F0FCC02091A8163091A916848195812817390709F0F2C09091AA1686819813EDC09091AB1687819813E8C02091A11640916F150F2D10E0822F90E0840F911D081719070CF0DAC08F2D642F0E94D1F5D92EF21668F48F2D891B8093A11621E030E0F6
S284008C0001C0220F4A95EAF721952093A21620919B1680919616909197164E2D50E0D5015C966D917C915D97665F7F4FF29E800D911D11240E9451F7E0919816F0919916E00FF11FE0827091A1162091A0167F1111C090916F15822F8F19981708F4892F41E050E0082E01C0440F0A94EAF741954093A21641E050E00D2C01C0440F0A94F8
S284008C80EAF76091A216642B6093A2166F3F79F4FF24FA94F70E822F90E040916F1550E0871B9109481759070CF4CA01F80E8F2D90E030E0215031098217930751F46F3F21F483E00E94B53663C082E00E94B53664C0A0916F15B0E011979D01270F311D8217930711F06F3F09F582E00E94B5368091A2168F3F09F050C080916F159091EC
S284008D00A116980F9093A1162091A01621502F19821708F4282F81E090E0022E01C0880F0A94EAF781958093A21637C02AE030E00E9457F69B01AC0180918E0790918F07A0919007B0919107280F391F4A1F5B1FA0916E15B0E00E945DF69B01AC0160939C1670939D1680939E1690939F1661E080E090E00E94283810C083E594E49093D6
S284008D80BD088093BC080E946B3107C0992329F06FEAC50107DC80E001C081E02196EAE00C9491F6A4E3B0E0E8EDF6E40C946DF6C0907907D0907A0720E1C21621E0D20609F46CC12EE4222E24E4322EAA24A394B12C87EA97E00E94AD307C01009709F45DC10091901610919116C701801B910B6CE670E00E94DDF580918B16681748F037
S284008E0089E494E49093BD088093BC080E94533145C13CE6639F000D111D1124D80117968C91B0E1CB16B6E0DB0621F0C114E5E0DE0699F58E7F843019F5C8018C5A9F4F0E94153B4C01DC0111966C91119712968D919C911397892B51F4EAE4F4E4F093BD08E093BC086CAB0E946B316CA9D70112968C91811104C0F4018281938192DB7B
S284008E80A7014B5F5F4F63EAD8018D919C910E94E13AC7010E9424349CCF8695482E512CB1E04B165104B1F054F4452809F0EFC0D70112966C91C8010E94EB3D8ACFF2E04F16510409F4BCC023E04216510409F47CC0DDC0F80180858F70813009F079CF80809180D70119968C910E9419379B01AC01A0916E15F801808582958F70A81B61
S284008F00C20102C0880F991FAA95E2F7DC010E9467F62B013C01D70112966C91611115C043825482658276820E942DF79170B301A201480F591F611D711DD80113964D935D936D937C9316972EC06E3C51F0603F41F0603D31F0613D89F4F40195A597FF0DC0A7014B5F5F4FC4010E94E13AC7010E94243481E00E940C3490C0D801139609
S284008F804D925D926D927C9216970E942DF79170B301A201480F591F611D711DF8014383548365837683D80118968C911897807F826018968C93189713962D913D914D915C91169760E0C80104C2F80180858F70813009F0FECE20913E1730E08091411790E001972817390709F4B5C1E0916F1570914017272F30E080E090E0682F8E179D
S28400900008F0A9C10196A901062E02C0559547950A94E2F740FFF2CFC501062E01C0880F0A94EAF7809587238093401780913F17860F80933E1784E497E10E945EE3C9CEC8018C5A9F4F0E94153B8C01DC0111966C91119712968D919C911397892B51F4EDE4F4E4F093BD08E093BC086CAB0E946B316CA9D80112968D919C91139792DA0E
S284009080C7010E94243481E00E940C34A2CE3092BD082092BC080E946B319BCE1BAA1AAAABE54A2EA5E35A2EBFEA2B2E13E0312EAA24A394B12C66246A94712C95E4892E94E4992E89EA97E00E94AD308C01C0907907D0907A07009751F1F80182899389892B09F079C1048CF58DE02D80818370813009F071C18281853009F46DC1D801B5
S28400910057968D919C9158970E946EC2892B09F063C122E0F80126838789908D90878783538A428AC80102960E9460C2CBCFC1FE11C050E5C52E54E4D52E62E0462E72E1A72E74E4B72EE8E05E2EF6E58F2EFBE39F2E3BC00091AB071091AC070115110509F458C0B8018BEA97E00E94B93040E050E063EAC8010E94E13AECCF808D833080
S28400918081F57801FBE1EF0EF11CC7010E946BC2892B39F5D8011D96F701852D01900D928A95E1F7D80158968C9158971A968C931A9757969C928E925697C80106960E9460C28BEA97E00E94AD300091AB071091AC0701151105F1F0F80186899789892B69F28091511790915217892B09F4BEC2C8010E94F233882309F4B8C2C8010E9484
S284009200F233882309F4B2C2F8010081118101151105A1F78091790790917A078115B5E09B0721F08031F6E09F0769F5F12C0EC02CE6F29E80011124E0919016F0919116E00FF11F8781833031F0F39480918B16F81670F320C080858F70843011F08230A1F740E050E063EA808191810E94E13A8091901690919116800F911F805A9F4F5F
S2840092800E942434E2CF8F33944029F4F12C80918B16F81648F08091790790917A078115954009F080C351C000919016109191168CE6F89E000D111D1124D80117968C91179780FF40C018969C911897292F2F702430C9F5282F2A7F2230A9F5907F79F19160905118969C938E7F823071F4C80109960E946335F8012381348145815681E4
S28400930060E0C8010E9428381EC08630E1F4809140178E7F8093401780913F1780933E1780914317815080934317E0915117F0915217BF01808191810E946A3504C067EAC8010E94EB3DF394A2CF80918D07882309F4AAC228C3F70181850E9419379B01AC01A0916E15F801808582958F70A81BC50102C0880F991FAA95E2F7DC010E94D0
S28400938067F62B013C0100915117109152170E942DF79170B301A201480F591F611D711DD80113964D935D936D937C931697E0915117F09152178085807F826080878091511790915217FC01238134814581568160E00E942838FDCCD8015C96ED90FC905D97BFE3CB16B4E0DB0669F0D7018C918370813041F0F80185A1811104C0C801C6
S2840094000E948B34A4C1D7014C91642F607446FF11C050918E1620918B1630E080918F1690E0850F911D821793074CF780918C16581728F7242F2C70243009F3662331F0842F83708230D9F243FDD9CF45FDD7CFF801D488F1E0DF1671F032E0D312CFCF4370842F90E0009721F0029709F47AC0C6CF2C3031F0C801CAD9882309F467C160
S284009480BECFD80157966D917C915897F70140858FE797E00E94B531882309F4B0CFD8015B968C91893008F4AACFB1E0BF83F7018181928199878887D80157968D919C9158970E946EC2FC01009791F03B8A708161815281438134812581968187817E8B6F8B588F498F3A8F2B8F9C8F8D8F01C0DB8AF8018789908D9D8B8C8B818D928DC9
S2840095009F8F8E8FD70117968C91179788A315968D919C9116979AA389A313968D919C9114979CA38BA3838D90E009979EA38DA3848D958D099698A78FA319A62AA684A18BA7868D8CA780A191A1A2A1B3A18DA79EA7AFA7B8AB878D89ABCE0101960E947F424DCF423031F09092BD088092BC080E946B31C0909016D090911680918B1682
S284009580F6012CE6829FE00DF11D1124CF01C816D90608F034CFD60117966C91179760FFD2C018962C9118972F70223009F0CBC0F601EC5AFF4F0190F081E02D2D913C91D80157964D915C915897D90159962D913C915A974217530709F0B5C0D70117963C91179727813213AEC014964D915C911597248135814217530709F0A4C012963B
S2840096004D915C911397228133814217530709F09AC011963C9111972681321394C016963C91218132138FC06E7F623031F4F6018085807F836080873FC0663009F083C0D70119969C91199780913F179813D7CE60916F15262F30E0C501062E01C0880F0A94EAF781951A969C911A97982B1A969C931A97F6018085807F836080871A965C
S284009680EC91EF3F99F54091411750E070913F17E70FCA01871B9109281739070CF4C9018E0F80933E1790E0415051098417950741F4C6010E943C3C60E0C6010E94EB3D9ECE760F70933F1780916E158093431770933E17930102C0220F331F6A95E2F7B90160956E7F6093401723C0E095E093401780E090E02E2F30E0782F8617C8F41F
S2840097000196A901072E02C0559547950A94E2F740FFF3CFC501072E01C0880F0A94EAF780958E238093401780913F17870F80933E17E0915117F0915217BF01808191810E946A355CCE3CE6C30ED11C20CFD8015E968C915E978AAB5F968C918BABBE016E5C7F4F8BE30E94A92FACCCC8010E94F233882361F08091531790915417892BDD
S28400978009F4BDC0D8019D968C9182FFB8C0F80181A592A58536910518F085A583FFB1C0D80198963C90332031F0832D0E946B42892B09F448C0F80185A5208D382F347082FF0AC0223031F4818D928D883F9F4FD0F502C02130B9F18EEF820F823038F4D80193968C91815F8E3068F18CC021118AC0332309F487C0F80166A077A092D61A
S2840098007C01009719F080E090E00CC0B092BD08A092BC080E94533176C0DC011B962C91213089F09701432DB3010E94763C0097A1F769C0813008F475C0823009F49AC0833009F48AC026EAE12CF12C612C712CB8018BEA97E02CAB0E94B9302CA921111CC0E114F10431F4D092BD08C092BC080E946B31F30111830083C8010E94F233FC
S284009880882319F0C3010E943C3CB301C801F7011995282F882309F498CC40E050E0622FC8010E94E13A91CC00917D0710917E07F8018281853C41F08DE694E49093BD088093BC080E946B31D80113968D919C9114978D7F14969C938E931397892B09F062C080E00E94154080E196E090937A078093790760E0C8010E94FF3754C02AEA11
S284009900A3CF20EAA1CFD80158968C91813009F091CF80E00E94A2343C0136E6E32E3BE3F32E0DC0C8010E94F233882371F083E00E94A2343C0145EBE42E4DE3F42E6114710409F467CC20E083CFF80185A582FF02C081E0EDCF80E0EBCFC8014B960E946BC20097F1F0DC018D919C91F801928F818F408EC8010E94F233882311F083E0B9
S28400998008C0D8019D968C9182FF02C081E001C080E00E94A2343C012AE6E22E25E3F22ECECF29EA51CFE496E2E10C9489F6AFE1B0E0EDEDFCE40C947AF6009749F485E495E49093BD088093BC080E94533182C0FC012081233009F07DC0218132813A83298328E03396DE01139601900D922A95E1F7FC0123852B87248535853D872C8786
S284009A0028E03E96DE011E9601900D922A95E1F7FC01218D2D8F238D2E8F0789108DF688F6E0FF1508F056C0F8018081982F9370933009F04FC0807E09F04CC08181811149C0BE01615E7F4F85E190E00E949133F801208126952695277030E08F8D90E028173907B9F58281982F9370933091F5982F907F79F58C708C3091F481E08B8703
S284009A80F8E0FF1538F5F801838194819F878E876FEF0E94B8898823E9F0F80129E003C0F801329727E085819681998F888F878190859F8B8E8BF21AFA8E020F111D1C8F0B8FE0918907F0918A07309719F0CE01019619956F96E5E00C9496F680E191E090937A078093790710927E0710927D0710927C0710927B0710928C0710928B07DF
S284009B000E9465370C9495A9CF93DF93EC0167E872E085E20E94283067E872E088E30E942830209749F480E694E49093BD088093BC080E94533105C089E18A83CE010E943335DF91CF910895009741F481E694E49093BD088093BC080C9453312AE8FC0122830C943335009741F482E694E49093BD088093BC080C94533125ECFC01228336
S284009B800C943335CF9330919216809193169091941620E0231751F08396FC01B3974081442311F081E029C02F5FF4CFC0E080918B16C817E0F40E94A32F9CE6C99F900111244091901650919116FA01E20FF31F882341F0878180FF08C080858F70823021F0E0CF878180FDDDCFCF5FE0CF81E090919516911101C080E0CF9108951F93F5
S284009C00CF93DF93EB01853239F41881BBDF91E09827912398831FC08833E9F4388140918B16E0919016F091911680E0841771F0278120FF07C090859F70923019F42A7F223031F08F5FE459FF4FF0CF80E001C081E0832B8883DF91CF911F910895FC01808184FD0C94D5370895A2E0B0E0EBE3FEE40C947DF6E0917B07F0917C072F2FAD
S284009C8030E09E2F9F5F983008F090E0692F70E0A901092E02C0569547950A94E2F740FF26C090937B0781E090E0062E01C0880F0A94EAF78F2780937C07660F771F6D51744B42E050E0CE0101960E943BF789819A81892B41F480E094E49093BD088093BC080E946B31E981FA81199504C0E913C9CFE0937B0780917C07882361F02FB74C
S284009D00F8948091770790917807806290937807809377072FBF2296E2E00C9499F68091B715853091F028F4882349F0823069F004C0843141F0863141F080E008958091B0158B3010F488E0089582E00895833014F083E01BC096E0980F923010F48BEF15C098E0980F923010F489EF0FC09AE0980F923010F487EF09C09EE0980F9430CF
S284009D8010F484EF03C0823F0CF48FEE8093B5150895C5DF282F220F220F280F30E0A90160E8869F400D511D1124CA0108958091B7158530E9F028F4882349F0823079F004C0843189F0863189F080E008958091B015882349F08B3058F489E108958091B015811105C002C082E3089588E2089580E10895CF93DF93EC01D9DFE82F9E01C7
S284009E00A0ECB3E00E9448F69B01AC01AE2FB0E00E945DF628EE33E040E050E00E9404F6CA01B901DF91CF910895CF93DF93B1DFEC01BDDF282F2C9FC0012D9F900D1124BC0180E090E028EE33E040E050E00E9404F62F5F2093AE15DF91CF910895CF93DF938BE08093B01580E098EFAFEFB7E08093B1159093B215A093B315B093B415AE
S284009E8065EB75E183E090E00E9491338091B5155EDF65EB75E183E090E00E94C9331092B71577DF9093B9158093B81538DF94E0899F800D11248093BA1531DF8093BB1586E390E0A0E0B0E08093831590938415A0938515B0938615109287151092881581E08093891510928B1510928A1510928C150E942DF780938D15EEE8F5E18FEF7B
S284009F0080838183828383838483858386838783CFEFDFEFD0939715C09396150E942DF78093981585E08093991584E080939A1583E080939B1580939C15D0939E15C0939D1580E280939F151092A0151092A115D093A315C093A2151092AC151092AD1564DFDF91CF910895A4E0B0E0EAEBFFE40C947DF6DC014C9150E0CA0180549109C2
S284009F808534910508F0DFC083599D4DFC010C9442F611968C918093881508C011968D919C91129790938B1580938A1580E015C111968C91853308F00FC180938C15F6CF11968C9180938D15F1CF11968C91119780938E1512968C91129780938F1513968C9113978093901514968C9114978093911515968C9115978093921516968C91D2
S28400A00016978093931517968C9117978093941518968C9180939515C9CF11968D919C9112979093971580939615C0CF11968C9180939815BBCF11968C91863008F0CCC080939A15B3CF11968C9190919915981708F4C2C080939C15A9CF11968D919C91129790939E1580939D15A0CF11968C918093A0159BCF11968D919C9112979093C3
S28400A080A3158093A21592CF11968D919C911297B1DE69837A838B839C83BE016F5F7F4F03C0BD016F5F7F4F82E090E079C011967C91119712966C91129713965C91139714964C91149715963C91159716962C91169717969C91179718968C917093A4156093A5155093A6154093A7153093A8152093A9159093AA158093AB1557CF119603
S28400A1008C918093871552CF11968C91883008F063C080939B154ACF11968C9180939F1545CF11968C918093991540CF11968C91803108F051C08093AF1538CF11968C918093AD1533CF4830510508F043C04E545D4DFA010C9442F68BEF3FC011962C918091B1159091B215A091B315B091B415022E04C0B695A795979587950A94D2F79F
S28400A18080FF2AC02093B01523C011968C9190E2980F903408F5DBDD65EB75E183E090E00E94C93303CF11968C918430A8F48093B615FCCE11968C91853041F018F4833058F404C0843111F0863131F48093B7152CDEECCE84EF01C088EE2496E2E00C9499F6A4E0B0E0E7EFF0E50C946FF660909A156091991570E0E0919C15F0E0262D01
S28400A20030E0CB018E1B9F0B281739070CF4C901AA2797FDA095BA2F0097A105B10521F481E090E0A0E0B0E0712CC12CD12C76018C019D01015011092109310942E0442E512C872C912CA12CB12C081519052A053B05B0F0AF01470D511D41505109520102C0AA0CBB1C4A95E2F74501AA2497FCA094BA2CC80CD91CEA1CFB1C7394E1CF73
S28400A280262D30E040E050E0281B390B4A0B5B0B61507109A2E0B0E002C0AA0FBB1F6A95E2F711970E9467F69B01AC012C0D3D1D4E1D5F1DA4E1B0E00E945DF69B01AC0169833A834B835C8364DD29813A814B815C81280F391F411D511D29833A834B835C8365DDA82FB0E029813A814B815C810E945DF628EE33E040E050E00E9404F666
S28400A300CA01B9012496E0E10C948BF650DDE82F20919F1530E0A0ECB3E00E9448F69B01AC01AE2FB0E00E945DF628EE33E040E050E00E9404F6CA01B9010895A4E0B0E0E4EAF1E50C9477F68C01FC01408150E0FA01E054F109E534F10508F0B2C0E654FD4D0C9442F680918815F801818380E0D5C080918A1590918B15C3C080918C1599
S28400A380F4CF80918D15F1CF70918E1560918F155091901540919115309192152091931590919415809195155BC08091961590919715A7C080919815D8CF80919A15D5CF80919C15D2CF80919D1590919E1599C08091A015CACF8091A2159091A31591C0BE016F5F7F4F82E090E00E949133C980DA80EB80FC80C114D104E104F10491F00C
S28400A400D6DC282F30E0A0ECB3E00E9448F628EE33E040E050E00E9404F6C701B6010E9404F602C024EF31E0F801328321839FCFBC016F5F7F4F82E090E00E94913397CF7091A4156091A5155091A6154091A7153091A8152091A9159091AA158091AB15F801718362835383448335832683978380877DCF8091871578CF80919B1575CF90
S28400A48080919F1572CFFC01118271CF8091831590918415A0918515B09186152BC08091991563CF8091AF15F801818336C08091AD155BCF2BDFF801618372838383948356CF4830510548F5FA01E150FD4D0C9442F68091B01549CF8091B51546CF8091B61543CF8091B1159091B215A091B315B091B415F80181839283A383B48337CF5C
S28400A50048DCF8019283818332CF09DCF4E08F9F800D11242ACF03DC28CF84EF2496E8E00C9493F684EA95E1089548E050E0BC0184EA95E10E9444F721E0892B09F020E0822F0895CF92DF92EF92FF92CF936B017C01E5DBC82F2BDC2C2F30E0A82FB0E00E9448F69B01AC01C701B6010E94C2F528EE33E040E050E00E9404F6CA01B9015C
S28400A580CF91FF90EF90DF90CF9008952FB7F8948091F5079091F60794609093F6078093F5073FB7F8948091B00781110FC04FB7F8948091770790917807816090937807809377074FBF81E08093B0073FBF2FBF0895BC0182EB97E00E94E9308091B107811101C0D3CF0895FC011282F2CF21E0FC012283EECF22E0FC012283EACF23E0B2
S28400A600FC012283E6CF25E0FC0122831186108622E02783DECFA1E0B0E0E1E1F3E50C947CF61092B3071092B2075AD11FB7F894CE0101960E9490D8811104C082E08093B10702C01092B1071092F6071092F5071FBF2196E3E00C9498F6A2E0B0E0E3E3F3E50C947BF61FB7F8941092B007CE0102960E9490D8882339F08091B107823042
S28400A680C9F41092B10716C081E090E00A8002C0880F991F0A94E2F7809590952091F5073091F607282339233093F6072093F50780E001C081E01FBF8111BAC081E08093B1078A818A3029F50091B2071091B307209193023091940241E050E00115110539F4CE0101960E9490D881114BC033C0CA01F801028002C0880F991F0A94E2F795
S28400A70082239323892B09F065C0F80100811181E5CF90E08C30910520F7FC01E95FFC4D0C9442F6B0D214C0B7D212C02AD410C0C5D30EC05ED30CC00E9415D609C00E9499D506C03DD104C00E94E4D501C0A5D0811127C0C6CF2FB7F8948091B00781110FC03FB7F8948091770790917807816090937807809377073FBF81E08093B007A0
S28400A7802FBF56C08091BB07811152C08091B2079091B307892B11F0F9DE4AC01092B10747C0813009F044C04FB7F89421E030E00A8002C0220F331F0A94E2F78091F5079091F607822B932B9093F6078093F5074FBF2EC0B80182EB97E00E94B930F801428150E04930510508F07BCFFA01ED5EFC4DC8010C9442F697D393E002C040D3DE
S28400A80094E09A83A5CF87D295E0FBCF0E9401D696E0F7CF0E9476D592E0F3CFB5D098E0F0CF0E94C4D599E0ECCF06D09BE0E9CF2296E4E00C9497F6CF93DF93EC0118868B819C819C01215031092F333105C8F4805C9E4F9C838B838A81873031F0883081F4CE010E9451B203C0CE010E9437B2882339F0813061F4D093F407C093F30743
S28400A88007C01886EE81FF81CE010896199580E08093B407DF91CF910895CF93DF93C091F307D091F4078A81873031F0883041F4CE010E9451B207C0CE010E9437B203C081E0888702C0811106C0EE81FF81CE010896199580E08093B407DF91CF910895AEE0B0E0E6E7F4E50C947BF60E946BB282E088871E861D861A86198681E08F8379
S28400A900CE0101960E94A1B58B859C850E9430F773D00E9429D689D2F0D26ED30E94BFD568D00E94FED58EE4898380919A158A83CE0101960E9466B68FE4898380919C158A83CE0101960E9466B689E5898380919B158A83CE0101960E9466B680E589830FEF1FEF1B830A83CE0101960E9466B683E589831B830A83CE0101960E9466B679
S28400A9802E96E4E00C9497F61F93CF93DF93EC010E94A1B5182F882339F0813051F4D093F407C093F30705C0EC85FD85CE01089619951093B507812FDF91CF911F9108951F93CF93DF93C091F307D091F407CE010E94A1B5182F811105C0EC85FD85CE01089619951093B507812FDF91CF911F9108951092B5070895A2E0B0E0E2E0F5E502
S28400AA000C947DF66FE67AE180E092E00E946F33BE016F5F7F4F80E091E00E94913329813A8180916F1A9091701A9093741A8093731A9093761A8093751A9093781A8093771A280F391F30937A1A2093791A1092721A1092711A6BE77AE183E292E00E946F33BE016F5F7F4F8EE291E00E94913329813A8180917B1A90917C1A9093801A4D
S28400AA8080937F1A9093821A8093811A9093841A8093831A280F391F3093861A2093851A10927E1A10927D1A2296E2E00C9499F69CE0899FF0011124E159F54E86819781019608959CE0899FF0011124E159F54E4FB7F894A681B7818C9190E001968A0F9B1F978386831C9226813781808591852817390751F484819581918780878081D4
S28400AB00918195838483978386834FBF08959CE0899FF0011124E159F54EA681B78182819381A817B90721F081E09C91911101C080E0089581E0EBDF8823F9F08091F5079091F60781609093F6078093F5072FB7F8948091B00781110FC03FB7F8948091770790917807816090937807809377073FBF81E08093B0072FBF80E0C8DF882373
S28400AB80F9F08091F5079091F60782609093F6078093F5072FB7F8948091B00781110FC03FB7F8948091770790917807816090937807809377073FBF81E08093B0072FBF0895A6E3B0E0E7EEF5E50C947CF6182F6FDFFC01208130E0DC01A20FB31F12968C912F5F3F4F2E0F3F1FD9016C91813220F4811103C081E001C080E262956695B5
S28400AC0066956370689FB00111248FEF869FA001879F500D1124CA0160E670E00E94DDF5D9016C93BF01CE0101960E9478D6882319F18A81982F977029F4807619F48B818C70B1F020918502309186022E7F3093860220938502CE010196BED420918502309186022160309386022093850204C08091B015898FE6CF812F24DF80E0E696D5
S28400AC80E3E00C9498F681E042DF882311F081E098DF50DF80E0089580E039DF882311F080E08FDF47DF80E00895A9E0B0E0EBE5F6E50C947AF68C018091B80765E0813029F4C4D0F82E811121C01EC080E0BED0F82E81111BC0F8018381898388E03496DE01129601900D928A95E1F7CE0101960E9466B6F82E8091B807823039F4809154
S28400AD00B707B3D065E0A2D01092B8078F2D2996E5E00C9496F6A9E0B0E0E1E9F6E50C947BF68C01DC0113968C91833511F148F4853028F4823088F4811124C01AC092EB09C08438B1F028F4893579F08F36D1F410C090E1980F9330A8F4813F41F4F80194812091B607921339C091E00CC08935E1F390918B1A9093B707963119F492E043
S28400AD809093B80790E02091B807211111C0911113C0898388E0F8013496DE01129601900D928A95E1F7CE0101960E9466B602C0C8017BDF811108C0D8011C96ED91FC911D97199580E004C01093F4070093F3078093B9072996E4E00C9497F69093B60790918B1A9093B707963109F0BECF91E0C7CFA1E0B0E0EFEFF6E50C947BF60091BB
S28400AE00F3071091F407C80150DF811108C0D8011C96ED91FC911D978983199589818093B9072196E4E00C9497F61092B9071092B8071092B6070895882331F0813011F083E0089586E1089589E1089560935517F3DF0C946BB7882331F0813011F088E0089586E1089589E108958850823130F4E82FF0E0ED51FA4F8081089588E00895D3
S28400AE801F93CF93DF93EC0110918B1A8B81E3DF181729F064E08B81D9DF811105C0EC81FD81199580E004C0D093F407C093F3078093BA07DF91CF911F910895A1E0B0E0E4E6F7E50C947BF60091F3071091F40764E0D80113968C91B9DF811108C0D8011496ED91FC9115978983199589818093BA072196E4E00C9497F61092BA07089588
S28400AF00CF93DF93EC0163E080E0A0DF811109C082E08093BB07CE0103960E94BAD70E94C9B7DF91CF910895CF93DF93EC0189AD83DF8093891AD093F407C093F30780919B15809356170E942DF7909358178093571780918B1A893151F482E08093BB07CE0103960E94BAD70E94C9B705C081E08093BB07CE01C4DF8093BC07DF91CF919D
S28400AF800895A2E0B0E0E7ECF7E50C947BF60091F3071091F4078091BB07813021F4C801AFDF811123C00E9402B20E94D9B11A8219820E9495B5D801DC968C93DC97DA96ED91FC91DB97C801CC96199580919B1590E020915617821B91099A838983BE016F5F7F4F8DE30E94A92F80E08093BC072296E4E00C9497F61092BC071092BB076D
S28400B0000895A9E0B0E0E7E0F8E50C947DF683E08983CE01019692D98A81833021F40E9495B5813029F0809156178150809356170E9479E163E080E009DF81110DC08091F3079091F40722E02093BB0703960E94BAD70E94C9B70EC081E08093BC078093BB078091F5079091F60788609093F6078093F5072996E2E00C9499F62FB7F89416
S28400B0808091770790917807846090937807809377072FBF0895BC0188E09AE10E94E9308091F71981110CC02FB7F8948091770790917807846090937807809377072FBF0895CF93DF93DC0112964C9150E0FA013197E031F10508F053C0E45EFC4D0C9442F6DC011C96ED91FC911D970E963DC0DC011B96ED91FC911C970D9636C0DC010E
S28400B1001796ED91FC91189709962FC0DC015196ED91FC915297439628C0DC015396ED91FC9154974596199543C0DC011996ED91FC911A970B9619C0DC011E96ED91FC911F97409612C0FC01C08DC470D0E0018CF28DE02D4B961995CD2B51F511C0DC011496ED91FC9115970696199509C08091681A8E7F03C08091681A8D7F8093681A8B
S28400B1801092F7192091681A8091081A9091091A892B11F4222361F02FB7F8948091770790917807846090937807809377072FBFDF91CF910895CF93DF938091F719882319F0833009F06AC08091681A882389F080FF09C08FE08093F7190E94646761EF0E94BC655BC080E18093F7190E9436DC55C080919502882309F450C0C091081AC1
S28400B200D091091A209709F449C088E09AE10E94AD308A818093F719D093FA19C093F9198A8190E0FC013197EE30F10518F5E45DFC4D0C9442F60E94AB631AC00E94856317C05CD415C0C7D713C0AAD411C00E9496DA0EC00E94DDDA0BC00E947A6508C0EED006C052D304C00E9442DD01C01ED4811114C01092F7198091081A9091091AED
S28400B280892B61F02FB7F8948091770790917807846090937807809377072FBFDF91CF91089527E0FC012283F6CE28E0FC012283F2CE2BE0FC012283EECE22E0FC012283EACECF93DF93EC018B81882331F183E08A838093F7191092091A1092081A1092681A66E972E085E20E942830BE0188E09AE10E94E9308FD98BEF99E10E948EE3ED
S28400B3002FB7F8948091770790917807846090937807809377072FBF04C084E08A83CE01BADEDF91CF9108952AE0FC012283B3CE25E0FC012283AFCE21E0FC012283ABCE26E0FC012283A7CE2CE0FC012283A3CE2DE0FC0122839FCE2091F719233011F00C9437A508952091F719233011F00C94DCAD08952091F719233011F00C9459A19C
S28400B38008952091F719233011F00C942CB108952091F719233011F00C9424A908952091F719233011F00C9404B108958091681A81608093681A8091F719811101C05ECE08958091681A82608093681A8091F719811101C053CE08952091F719211104C021E12093F7191DC308958091681A811105C00E94CF6891E0982701C091E0892FFE
S28400B40008951F93CF93DF93EB011881EEDF91E0982791239883DF91CF911F910895CF93DF93C091F919D091FA19FC0180810E94A5DC8CA3CE0145DEDF91CF9108951F93CF93DF93C091F919D091FA1980919D1590919E15998B888B13E01A8B63D8DE01539628E0FC0101900D922A95E1F71B8F8B818C8F8C818D8F8D818E8F8E818F8FF8
S28400B4808F8188A3888589A389858AA38A858BA38D85811105C01CA2CE0113DE80E077C08BE08093171A8091981591E0980F9093981580931A1A8091181A80782091191A2C6083628F778093181A2C7C2093191A8FEF9FEF90931C1A80931B1AEB817C816D815E814F81388599858A85E0931D1A70931E1A60931F1A5093201A4093211AFF
S28400B5003093221A9093231A8093241A206C2093191A80919D1590919E159093261A8093251A00D828E0FC01A7E2BAE101900D922A95E1F780919D1590919E159093301A80932F1A8091A2159091A3159093321A8093311A8B859C859093351A8093341A8091B0158093331A8FE09AE590934F1A80934E1A8091A015882311F081E001C0FF
S28400B58082E080934D1A84E19AE12ED881E0DF91CF911F910895A8E0B0E0E1EDFAE50C947DF6FC018281807C81F08089898381898A8382898B8383898C8384898D8385898E8386898F8387898887CE010196E0DE2896E2E00C9499F6EF92FF920F931F93CF93DF93EC018A81807C8038C1F4AE014C5C5F4FBE016D5C7F4F888999890E9447
S28400B60073DB811144C0488150E0FA013197EB30F10508F03CC0E65CFC4D0C9442F6803C91F7288939894A895B896C897D897E0184E3E80EF11C8E010D5C1F4F8E899F890E94B1DBDECFCE018DD621C0CE01ADD01EC0CE010E946DDA1AC0CE010E94EDDA16C08DA980FD05C0CE010E94726781119DDECE0173D00BC0CE018DDF08C080914E
S28400B680AD15882321F09DDE02C0CE01A7D7CDB7DEB7E6E00C9495F681E08093AD1508951092AD15089583E08093F8191092641A60E67BE584E19AE10C94A365F4CF08958091F9199091FA19FCDC1092F8190895A3E0B0E0EEE6FBE50C947DF681E18B83CE010196EEDC2396E2E00C9499F6CF93DF93C091F919D091FA19FC01808183302B
