:100000000C94AE260C949BF40C94C7F40C94F3F46B
:100010000C941FF50C944BF50C9477F50C94A3F508
:100020000C94CFF50C94FBF50C9427F60C94F52664
:100030000C94F5260C94ABF00C94F5260C9401F17D
:100040000C94F5260C94F5260C94F5260C94F526C4
:100050000C94F5260C94F5260C94F5260C94F526B4
:100060000C9459F70C9465F30C9408F30C9437F343
:100070000C94F5260C94EAF60C94C1F60C94F52633
:100080000C94F5260C94F5260C94F5260C94F52684
:100090000C94FFF30C94A2F30C94D1F30C945AF645
:1000A0000C94F5260C94F5260C941AE20C947DE43D
:1000B0000C94F5260C94F5260C94F5260C94F52654
:1000C0000C94F5260C94F5260C94F5260C94F52644
:1000D0000C94F5260C94F5260C94F5260C94F52634
:1000E0000C94F5260C94F5260C94F5260C94F52624
:1000F0000C94D9E40C94F5260C94F5260C9401E5A7
:100100000C94F5260C94F5260C94F5260C94F52603
:100110000C94F5260C94F5260C94F5260C9429E500
:100120000C94F5260C94F5260C94F5260C94F526E3
:100130000C94F52600000000000000000000000004
:1001400000000000000000000000000000000000AF
:10015000000000000000000000000000000000009F
:10016000000000000000000000000000000000008F
:10017000000000000000000000000000000000007F
:104400003B11160019002E0F030018006A0ABD00A8
:104410001700DD15010016009116080015001E1684
:104420000100140015160200130081160100260079
:10443000241601001E00141601000F009B16010037
:104440000E00851601000D008D1602000C00DE1511
:1044500001000B00D81502000A00FB15110009002D
:10446000F11501000800F01501000700EF1501002B
:1044700006008216010005008B1601000400D3150A
:10448000040003000C1608000200D1150100010011
:10449000B51508000000924712002E00B64715001F
:1044A0002D00E04719002C00124804002A001A4889
:1044B000110029009F2BA528BE29E229072A3D2AA1
:1044C000492A252A432A4F2A582A132934295D29A3
:1044D00088295C5379529A539A539A537E52885240
:1044E0009A539A5390529552BD52C6529A53CB52F8
:1044F000D352DD529A53E652EB529A53F4522F5351
:1045000041539A5334533C535C535C535C53535361
:10451000535353535353535353535353535353536B
:10452000535353535353535353535353535353535B
:10453000075353539A539A539A539A539A539A53ED
:104540009A539A539A539A539A539A539A539A5303
:1045500053534E535C535353015346535E535C5372
:10456000755383538A535C535C535C53F6546354C2
:104570003D553D553D5569546E5411553D55715449
:10458000745485548A543D558D54905493543D55DC
:1045900098549B541155A054EA54FF543D55ED5482
:1045A000F0546754F354F3541155115511551155E6
:1045B00011551155115511551155115511551155CB
:1045C00011551155115511551155D05411553D55D1
:1045D0003D553D553D553D553D553D553D553D554B
:1045E0003D553D553D553D553D55115507550A55D0
:1045F0001155C8540255195522551C551F553D5586
:10460000305535553B55425644564F5646564856FA
:104610004A564C5621565256545621565756AC5669
:10462000AF56B356B656BA56BE56C156C556C556FF
:10463000215B5F5B5F5B5F5B285B455B365B3D5B84
:10464000705B2F5B4C5B4C5B535B5F5B675B6B5BD7
:10465000CB5BCE5BD15BD15BD35BDD5BD75BDA5BE6
:10466000EA5BD55BE05BE25BE45BE75BD35DD65D79
:10467000F75DD95DDD5DF75DE15DF75DEC5DEF5DFB
:10468000F55D5E610B621A621961616261621662B8
:104690001A621F624D623662616261624D624C61F4
:1046A0004F62679A6F9A869AF89AF89A4F9A5C9A2C
:1046B000F89AF89AF89AA69AB59AD29ADE9AF89A3F
:1046C0004C9A7A9A189AE59EE59E0E9E169E169E24
:1046D000239E239E409E409E409E9E9E9E9E9E9E0A
:1046E000399FE59EE4AC36AD0AAD0EAD0EAD0EAD14
:1046F0000EAD0EAD12AD12AD71C074C015C115C1B5
:1047000079C015C183C06CC16CC16CC16CC16CC176
:104710006CC16CC16CC16CC115C115C16CC16CC0E0
:104720007EC015C1F2CB40CC40CC40CC40CC40CC7C
:104730002FCC19CC37CC40CC29CC40CC33CC3BCC83
:1047400016CEF1CECECFF9CF38D064D1ADD18FD740
:104750008FD78FD78FD78FD78FD78FD78FD78FD729
:10476000E4D0F2D08FD78FD719D1B0CF97D99FD9B6
:10477000B1D9BAD9BCD9BED9C0D9C3D996DA0EDB62
:104780000EDBBCDAC5DAD5DADEDAE1DAE4DAE7DA6A
:10479000EDDA00000100020003000400050006003D
:1047A0000700080009000A000B000C000D000E00B5
:1047B0000F001E00180000000100020003000400AA
:1047C000050006000700080009000A000B000C00A5
:1047D0000D000E000F001E0013001400150016003F
:1047E00000000100020003000400050006000700AD
:1047F000080009000A000B000C000D000E000F005D
:104800001E001300140015001600170018001900F0
:10481000260013001400150016000000010002001D
:1048200003000400050006000700080009000A0054
:104830000B000C000D000E000F001E00D30800003E
:104840006A0A0000C4090000270B00005E0A00008D
:1048500000000000510B0000BB100000131100000D
:10486000650E0000B70E0000810E0000EE0E000085
:10487000310F000075100000000000000000000073
:104880002E0F00003B11000000000000000000009F
:104890000000000000000000000000000000000018
:1048A0000000000000000000000000000000000008
:1048B00000000000000000000000000000000000F8
:1048C000511100007911000058090000C44A02008B
:1048D000C84A0100CB4A0100C94A0200CE4A010081
:1048E000CF4A0100D04A0100D14A0100D24A01005A
:1048F000D34A0100D44A0200CC4A0200D64A010041
:10490000D74A0100F04A0200E14A0100E24A0100F0
:10491000E34A0100EC4A0400D84A0100D94A0400E5
:10492000DD4A0100DE4A0100E84A0100E94A0100CF
:10493000EA4A020000000000000000000000000041
:104940000000000000000000000000000000000067
:104950000000000000000000000000000000000057
:1049600000000000DF4A0100E04A0100F24A0100B5
:10497000F34A0100F44A0100F54A0100000000007A
:10498000E44A0400C64A0200B5150800BF1501003C
:10499000CD150400D1150100D315040089160100BE
:1049A0008A160100911608008D16020015160200E5
:1049B0001E160100851601009B1601008B160100D2
:1049C000DA150100DB150100DC150100DD15010021
:1049D000D8150200DE150100DF1501008716010061
:1049E0008616010090150100911501000C160800B3
:1049F000F2150400E7150400EB150400EF150100A3
:104A0000F0150100F1150100FB15110082160100DF
:104A1000F6150100F71504007F150100921502003C
:104A200014160100D715010000000000000000006E
:104A300080150100000000000000000000000000E0
:104A40000000000000000000000000000000000066
:104A50000000000000000000000000000000000056
:104A6000E0150500E5150100E61501000000000055
:104A70000000000000000000000000000000000036
:104A80000000000000000000C1150100000000004F
:104A90000000000000000000000000000000000016
:104AA0000000000000000000000000000000000006
:104AB0000000000000000000D2150100C715010031
:104AC000C015010085006C00010000070500070407
:104AD0000205040204000308FF140000000108039B
:104AE0000303020A901A0000010000000000030303
:104AF000141061620003001E000003F40080000037
:104B00000134120003030000020000000000030350
:104B10004C1D000010270000000001E80300000405
:104B2000E80300001041746D656C202020202020D7
:104B3000202020202007CAAAAAAAAAAA1A00020393
:104B40000100000000000000000000000000000064
:104B500005FF000000000000000000000000000051
:104B60000000000000000000000000000000000045
:104B70000000000000000000000000000000000035
:104B80000000000000000000000000000000000025
:104B90000000000000000000000000000000000015
:104BA0000000000000000000000000000000000005
:104BB00000000000000000000000000000000000F5
:104BC000000202010002020508080000FFFF341283
:104BD000000000000000000002020123448249009E
:104BE000000000000000000000000002A1807F7BA8
:104BF0000107E99B2B760101E99B2B76010160807F
:104C000092930101E57FF1A20101E57FC0A20107B6
:104C10009A7F1B760101427F0D890101000000008F
:104C20000107000000000101000000000103000076
:104C3000156E01040000156E01050000000001065C
:104C400000000000010D000000000101E99B0000D0
:104C5000000100000000010E00000000010700003C
:104C60000000010A00000000010000000000010136
:104C70000000000001010000000000000000087AB0
:104C800000090000087A000C0000087A000000000B
:104C9000087A00A37C7582A8996CACA878DE9FB8CE
:104CA0007D5E7E2E771B85648B417A1AA33F7DAD96
:104CB000779676000000006076E38400000000CA6A
:104CC0006BDA6E606C356C596C0000D16BDF6B4E2B
:104CD0006CD86BD06E886BCC6DD36D426EC46D6733
:104CE0006C00002A6F0201020303020201010101AC
:104CF000010101010102020101010201020202029D
:104D0000020201020202020202010303020203A3E1
:104D1000AACFA0869902A2000005A98592BCAD0089
:104D2000000000EEBA09C0C4C9D1C29FD7A3C88E83
:104D3000E68EE68EE68EE600E8C5E5DFF77CF02E2F
:104D4000E36CE211EFB1F1B5EE42EDBDEB8FE6E1C0
:104D5000E70DE920E7DFE70BE91EE700112480916A
:104D6000FD1A823159F084B780FD04C08F718093A1
:104D7000FD1A07C081E08093FD1A03C081E1809392
:104D8000FD1A14BE809160008861809360001092CB
:104D90006000EEEFFAE18DEC01C0819390E7E03026
:104DA000F907D9F3D0F311241FBEC0E0D0E7DEBF6E
:104DB000CDBF00E00CBF15E0A0E0B2E0E0EBF5EF06
:104DC00001E00BBF02C007900D92AE32B107D9F7D8
:104DD0002AE1AEE2B5E001C01D92AD3FB207E1F7B6
:104DE0000E94EE340E940435FDCF0C9400007F93A6
:104DF0007FB7F8949D9AA5988AEF4DD08AEF4BD053
:104E00009D9886E448D081E0959980E08F9380EF6B
:104E100042D08F917FBF7F9108957F937FB7F894A1
:104E20009D9AA59886E037D09D988AE034D08894E2
:104E300095990894881F8F9384E62DD08F917FBF1A
:104E40007F9108959F937F9398E0E7DF879577950B
:104E50009A959923D1F7872F7F919F9108957F93FA
:104E60007FB7F894A5989D9A8F9386E014D08F9180
:104E7000879508F49D988F9384E60DD08F919D9827
:104E80007FBF7F9108959F9398E0E9DF9A959923DA
:104E9000E1F79F91089500000000000000008A954E
:104EA0008823C9F708955F937F937FB7F894CF93D2
:104EB000DF93C0E0D0E07F935091B2007091B200D8
:104EC0007517E1F3739521965091B2005717D9F7F2
:104ED0007F91CE01DF91CF917FBF7F915F91089548
:104EE00080912E058093B6022FB7F89480914007E9
:104EF00090914107906190934107809340072FBFA5
:104F000008958EE08093B6022FB7F8948091400701
:104F100090914107906190934107809340072FBF84
:104F20000895A0E0B0E080935C0590935D05A093A8
:104F30005E05B0935F0560932E0586E595E00C94C1
:104F400014E60895CF93DF93EC0180E00E944E3584
:104F500089E495E00E9414E66CA18EA19FA1BCD4C7
:104F600062E08DE794E0B8D4DF91CF91089560E1DD
:104F70008EE493E0B1D484E08093B6022FB7F89426
:104F800080914007909141079061909341078093F1
:104F900040072FBF0895FC018785811112C061EF82
:104FA00075E081E290E00E941E368091F10581114A
:104FB00004C06DE08FE593E08FD481E00E944E3510
:104FC00004C067E08DE693E087D42FB7F894809112
:104FD000400790914107906190934107809340076B
:104FE0002FBF089580E00C945A35089581E00C9409
:104FF0005A350895811104C06FE185E793E06CD4C0
:1050000085EA92E00C9443EA0895811104C065E2B8
:1050100085E993E061D484E992E00C9443EA089531
:10502000811104C06BE189E793E056D483E892E0F4
:105030000C9443EA0895811104C06AE189E993E080
:105040004BD482E792E00C9443EA0895FC018081FE
:10505000811115C081E00E944E358CE395E00E94DD
:1050600014E61092B6022FB7F89480914007909101
:105070004107906190934107809340072FBF0895A7
:10508000813011F483EF03C0823019F485EF8093EF
:10509000990883E892E00E9425EA019621F46BE0EA
:1050A00084EB93E019D483E892E00E945BEA0196D6
:1050B00021F46CE080EC93E00FC40895CF93C82FE7
:1050C00082E792E00E9425EA019621F46BE084EBEE
:1050D00093E002D482E792E00E9483EA019621F4F1
:1050E0006BE08DEC93E0F8D3C13069F480918F08C8
:1050F00090E0982F882720919008822B9093920817
:10510000809391080EC0C23061F480918F0890E0C6
:10511000982F882720919008822B909343088093A2
:105120004208CF910895A3E1B0E0E9E9F8E20C94D8
:10513000D3F98091B60290E08F30910508F0FFC25C
:10514000FC01E65AFD4D0C94F9F81092B60295D385
:105150000E9466358CE795E1A0E0B0E08093690598
:1051600090936A05A0936B05B0936C0510926D0542
:1051700087EB97E290936F0580936E0584E690E04D
:10518000A0E0B0E080935C0590935D05A0935E0580
:10519000B0935F0541E04093600580E797E290930C
:1051A00062058093610588EB9BE0A0E0B0E080930E
:1051B000350590933605A0933705B09338051092C6
:1051C000390581E897E290933B0580933A0584EF97
:1051D00091E0A0E0B0E08093420590934305A09356
:1051E0004405B09345054093460526EF37E23093DA
:1051F00048052093470580934F0590935005A09351
:105200005105B09352054093530582EF97E2909376
:1052100055058093540562E08CED95E082DE8BE0CD
:105220008093B60214C082E00E944E358BEC97E268
:105230009093F0058093EF0589ED95E00E94EBC80F
:105240008CE08093B60263E189ED93E045D32FB7FC
:10525000F8948091400790914107906190934107A5
:10526000809340072FBF6BC281E090E09093D105FF
:105270008093D0059093CF058093CE058093CD0584
:105280008091D205807F81608093D2058DEC95E07E
:105290009093C9058093C80582EA97E29093CB0565
:1052A0008093CA0585EC95E00E940C458DE08093C3
:1052B000B6026FE08DEE93E0C9CF81E090E090936D
:1052C0007A088093790882E080936D0810926F08C5
:1052D00010926E0821E0209378088EE895E0909374
:1052E00081088093800887E390E090937F08809303
:1052F0007E0820937D0886E298E29093850880934B
:1053000084081092B6028FE295E00E9414E69FCFC7
:105310006AE08DEF93E0E0D283E380938E058BE02B
:10532000EDEDF4E0DE01119601900D928A95E1F722
:1053300005E0E02E01E02CE336EF4FEF5FEF6BE08E
:10534000CE01019651D384E0E82E06E028E135E154
:1053500040E050E06BE0CE01019615D3FE0131969E
:10536000AEE8B5E0CE010C9621912D93E817F90730
:10537000D9F785E598E00E949D41E1C11092B602FF
:105380008FE38093970886E88093980885EA92E0F7
:105390000E9425EA019621F465E188E094E09CD220
:1053A00085EA92E00E945BEA019621F466E18EE1D3
:1053B00094E092D26CE085E394E08ED263E084EFD7
:1053C00091E074C01092B60281E28093970881EB5D
:1053D0008093980885EA92E00E9425EA019621F4DC
:1053E00064E182E494E078D285EA92E00E945BEA8C
:1053F000019621F465E187E594E06ED262E18DE6E5
:1054000094E06AD283E695E00E9414E698C1109277
:10541000B6028CEE8093970885E08093980885EA21
:1054200092E00E9425EA019621F468E180E894E088
:1054300053D285EA92E00E945BEA019621F469E189
:1054400089E994E049D267E02FC01092B60284E95E
:1054500092E00E9425EA019621F464E183EB94E056
:105460003BD284E992E00E9483EA019621F464E150
:1054700088EC94E031D265E017C01092B60281E06A
:10548000FFDD68E011C01092B60281E017DE66E031
:105490000BC01092B60282E0F3DD69E005C0109205
:1054A000B60282E00BDE6AE084E690E03ADD47C1B6
:1054B0002091440830E0322F222780914508282B84
:1054C00030935408209353088091470890E0982F18
:1054D000882740914808842B909352088093510864
:1054E00080914A0890E0982F882740914B08842BA0
:1054F000909394088093930840E050E065E0E62E96
:1055000001E062E180E692E03ED240919108509144
:10551000920871E5A72EE7E0BE2EF7E1CF2EA4EDAD
:10552000DA2EB2E6EB2E18E1F12E00E010E09A013F
:1055300040E050E060E070E080E090E00E9424F9FC
:1055400059016A017B018C012F3F3F4345445D486F
:10555000644472478048964009F090F420E030E4BB
:1055600045E45DE864E472E780E896E00E942CFA86
:1055700019012A013B014C0181E08093960811C07A
:105580009501A601B701C801305445445D48644403
:1055900072478048964019012A013B014C01109244
:1055A0009608A12CB12CE1ECCE2EFFE6DF2EA2EF67
:1055B000EA2EB6E8FB2E03E210E09101A201B3014E
:1055C000C4010E9477F92C873D874E875F87910140
:1055D000A201B301C4010E9475F9288B398B4A8B53
:1055E0005B8B80919608882311F08DE201C08BE2DD
:1055F0008093460240914208509143088DE3A82EC3
:1056000091E9B92E20E6C22E34EED32E68E5E62EBF
:1056100071E1F72E00E010E09A0140E050E060E018
:1056200070E080E090E00E9424F92F3FEFEF3E070A
:10563000E5E84E07EEE95E07EEEA6E07E9E27E076F
:10564000E5ED8E07910561F058F046585E496E4AC7
:105650007942854D910919012A013B014C0108C08D
:10566000212C312C412C512C612C712C812C912C12
:1056700043E0E42E01E02C853D854E855F856AE19F
:1056800086E492E080D152E0E52E05E02889398950
:105690004A895B896AE186E492E075D1409191087C
:1056A0005091920822E061E185E392E049D1A12C7A
:1056B000B12C61ECC62E7FE6D72EE2EFEE2EF6E897
:1056C000FF2E03E210E09101A201B301C4010E9488
:1056D00077F9A2E0EA2E01E064E281E192E053D1A1
:1056E000B2EFEB2E03E29101A201B301C4010E94CB
:1056F00075F902E0E02E04E064E281E192E043D13A
:10570000409142085091430822E061E180E092E03C
:1057100017D162E180E692E0DFD06AE186E492E0B0
:10572000DBD061E185E392E0D7D064E281E192E0F1
:10573000D3D061E180E092E0CFD01092B6026396C0
:10574000E2E10C94EFF90895089508950895CF9239
:10575000DF92FF920F931F93CF93DF93E42FF0E03C
:10576000F090EE062AEF30E02F1931092E173F078F
:1057700034F15091ED0620E030E0EC01C60FD11D70
:105780000AEF10E02E173F07ACF4852F90E0BC0124
:105790006E507A4F6B01BE01620F731FDB015C918B
:1057A000D6015C932F5F3F4F0196B8010E94A8F885
:1057B000582FE8CF5093ED06F40EF092EE06DF91ED
:1057C000CF911F910F91FF90DF90CF9008951F937D
:1057D000CF93DF9310922107109222071091EE06CB
:1057E000112309F446C08091EC06EFEEF6E0133386
:1057F000E0F4212F30E0CAEFD0E0AF014F5E564019
:10580000421753075CF490E0DC01AE50BA4F4C9164
:1058100041930196BE010E94A8F8EFCF8093EC0659
:10582000109321071092EE0618C02AEF30E090E0A6
:10583000DC01AE50BA4F4C9141930196B9010E94E0
:10584000A8F897E0E132F90791F78093EC0682E33C
:105850008093210712531093EE0681E08093220774
:105860004091210750E06FEE76E081E298E00E94DF
:1058700076E9DF91CF911F91089588EC80932C08F1
:1058800010922D0889E190E090932F0880932E08C4
:1058900086E08093300810923108109232081092FE
:1058A000410810923608109235081092380810926C
:1058B000370810923A081092390810923C0810925A
:1058C0003B0887EE9BE29093400880933F0881E27B
:1058D00098E00C9417E90895462F2091220722237F
:1058E00019F060E034CF0895FC01AFEEB6E0633309
:1058F00070F4862F90E09D012F5E364028173907FF
:105900001CF421912D93F7CF409321070CC02191D6
:105910002D9327E0A132B207D1F722E3209321078C
:10592000425362E314DF81E0809322074091210714
:1059300050E06FEE76E081E298E00C9476E908950D
:1059400070E030E0F9013396E617F707DCF463E026
:1059500070E0280F391FE42FEF70CA018F7099276C
:105960000A9710F480E301C087E38E0FF901E60F78
:10597000F71F808384E0569547958A95E1F761503B
:10598000710948F70895A0E0B0E0E9ECFCE20C945E
:10599000D9F9F12CF701E00FF11DC62FD0E0CE1799
:1059A000DF07ECF0C0E0D0E08C010E0F1F1F6AE0B3
:1059B000862E912CA12CB12C2197F701EC0FFD1F05
:1059C000319669F06801CC0EDD1EB901CA01A5014E
:1059D00094010E94BBF8605DF6016083EDCFCDB706
:1059E000DEB7ECE00C94F5F9A0E0B0E0EAEFFCE201
:1059F0000C94D9F9FC01C62FCA01B90110E057FD7A
:105A000002C02BE208C090958095709561957F4FFC
:105A10008F4F9F4F2DE2DF01A00FB11F2C939801F4
:105A20002F5F3F4FF12C2E0D3F1D4C2F50E04217A2
:105A3000530704F1C0E0D0E00E0D1F1D0E0F1F1F15
:105A4000EAE08E2E912CA12CB12C21979E012150A1
:105A500031092E0D3F1D37FD0DC06801CC0EDD1E36
:105A6000A50194010E94DDF8605DF6016083B90133
:105A7000CA01EBCFCDB7DEB7ECE00C94F5F9A2E0AC
:105A8000B0E0E5E4FDE20C94DBF96C0100919A08CA
:105A900010919B08E12CF12C80919E0890919F0819
:105AA000E816F906A8F45801B8016C5F7F4F42E090
:105AB00050E0CE0101960E94A1FA0A5F1F4F298192
:105AC0003A812C153D0539F08FEFE81AF80AE4CF3A
:105AD00080E090E001C0C5012296EAE00C94F7F95D
:105AE000ADE0B0E0E6E7FDE20C94DDF97C016B018E
:105AF00023E0969587952A95E1F7FC01E656F74F46
:105B0000228D30E0B70167707727062E02C03695E8
:105B100027950A94E2F78E010F5F1F4F20FF42C0C6
:105B200027E0E4EBF8E0D80101900D922A95E1F727
:105B3000A0E020E030E04A2F50E048175907D8F4A1
:105B4000F801E40FF51F4081542F569555754575A2
:105B5000540F452F4695469543735373450F408325
:105B6000E42FEF7042954F7050E04E0F511D240FFF
:105B7000351FAF5FE0CFE0E0D801A80FB91F4E2F6F
:105B800050E04617570780F44C9150E00E2E02C0AB
:105B9000569547950A94E2F741705527240F351F13
:105BA000EF5FEDCF2FEF3FEF1B870A8746E0429F65
:105BB000C001439F900D112404969987888786E041
:105BC00090E09D878C8762E27FE2CE01089672D1D9
:105BD0008D819E81E816F90639F084E090EA909371
:105BE000CE088093CD08E1D589819A81F601918311
:105BF00080832D96E8E00C94F9F9A6E0B0E0E3E0AC
:105C0000FEE20C94DFF97C018B0180E090E0FC0166
:105C100033E0F695E7953A95E1F7EE0DFF1D6081CB
:105C2000AC0147705527262F30E0042E02C0369570
:105C300027950A94E2F720FF0DC021E030E001C073
:105C4000220F4A95EAF720952623208318DF009734
:105C500031F431C0019683339105C9F62CC046E07A
:105C600050E0BC01CE0101960E94A1FA89819A817F
:105C7000F80193838283B8018D819E8131DFF80121
:105C8000808191810596918380838B819C8195830E
:105C9000848382819381892B39F480E090EA909308
:105CA000CE088093CD0881D58D819E81F7019087A4
:105CB000878381E006C08FEF9FEFF701908787838E
:105CC00080E02696E6E00C94FBF9A8E0B0E0EBE675
:105CD000FEE20C94D9F97C01A0909C08B0909D083C
:105CE000FC01868182FD09C000E010E0812C76E095
:105CF000972ECC24C394D12C0CC047E050E06FEF1A
:105D000070E0C7010E94D1FA6DC0882483940F5FB0
:105D10001F4F8091A0089091A1080817190708F05B
:105D20005BC0909EB001919E700D11246A0D7B1D89
:105D300046E050E0CE0101960E94A1FA2D813E81FD
:105D4000F90163E0F695E7956A95E1F7EE0DFF1D21
:105D5000408127703327842F90E0022E02C0969551
:105D600087950A94E2F780FFD2CFC60102C0880F60
:105D7000991F2A95E2F79C01209524232083812CEA
:105D8000882D90E02B813C818217930708F0BDCFCE
:105D9000880F991F69817A81680F791F42E050E06E
:105DA000CE0107960E94A1FA8F819885FC0153E0ED
:105DB000F695E7955A95E1F7EE0DFF1D8770992747
:105DC000960102C0220F331F8A95E2F7C901908124
:105DD000982B90838394D4CF882021F000E010E0AA
:105DE000812C97CF2896ECE00C94F5F9CF93DF93B4
:105DF000EC018FEF9FEF98878F8387E0FB01DE0137
:105E000001900D928A95E1F7CE015FDFE4EBF8E0B7
:105E1000919188818923899388E0EB3BF807C1F74A
:105E2000DF91CF9108958091C8089091C908A7C2C9
:105E300008951092C50883E19FE29093C70880936C
:105E4000C60808950895EDEAF8E0DC013D91CD0122
:105E50002081232B2193B8E0E43BFB07B1F780912D
:105E6000CA0884608093CA0808950E943BED882385
:105E700011F0DFD5FACF0895A2E0B0E0E2E4FFE24E
:105E80000C94E1F98B0189839A83EFDFB801898152
:105E90009A810E945EEC019631F08FE2023218077F
:105EA00021F4E3DF02C081E001C080E02296E4E05B
:105EB0000C94FDF9A2E0B0E0E0E6FFE20C94E1F919
:105EC0008B0189839A83D1DFB80189819A810E94ED
:105ED000EBEB019631F08FE20232180721F4C5DFB7
:105EE00002C081E001C080E02296E4E00C94FDF95C
:105EF000A2E1B0E0EEE7FFE20C94D6F98091CA0887
:105F0000982F92609093CA0882FF0AC06DEA78E0E9
:105F100083E297E06BDF8091CA088B7F8093CA0889
:105F2000CC24C394D12C7E013DE0E30EF11C55E05E
:105F3000A52EB12C4E0182E1880E911CBE01695F35
:105F40007F4F83E297E059DE882309F462C06090B6
:105F50002A0770902B07F30163E0F695E7956A95A1
:105F6000E1F7E656F74FC30187709927960102C003
:105F7000220F331F8A95E2F7C901809593898923FF
:105F8000838BFC82EB82BE82AD828F8198850597E0
:105F90009A83898362E27FE2CE0101968BDF4B8593
:105FA0005C8569857A8580E05ED0582E8D85581293
:105FB0003AC08889998968167906A9F52B853C85A8
:105FC0008E859F852817390771F59C828B82DE822A
:105FD000CD8200E010E02B853C850217130708F006
:105FE000ADCF2F813885200F311F3A83298362E29C
:105FF0007FE2CE0101965EDFAB81BC81E985FA8547
:10600000E00FF11F9C91808198130DC00F5F1F4F0F
:10601000E2CF8091CA088D7F8093CA0860E070E06B
:106020008FE001D21CC05D86798A688A8B859C8549
:106030009F878E87FC82EB8285E090E09E838D8334
:106040008F81988505979A83898368E77FE2CE01DF
:10605000079612DF62E27FE2CE0101960DDF6296C3
:10606000EFE00C94F2F9FB01460F571FE417F50718
:1060700019F09191890FFACF08954F925F927F9214
:106080008F929F92AF92BF92CF92DF92EF92FF9248
:106090000F931F93CF93DF93CDB7DEB762970FB601
:1060A000F894DEBF0FBECDBF80E094E490939B08D0
:1060B00080939A0886E994E490939D0880939C08C5
:1060C00006E914E400501444C80166E070E00E9440
:1060D00094F8892B39F080E290EA9093CE0880936F
:1060E000CD0863D326E030E0C801B9010E9494F8DE
:1060F00040919E0850919F08642B752B70939F08C8
:1061000060939E0804EB14E406591444C801B901D5
:106110000E9494F8892B39F081E290EA9093CE089E
:106120008093CD0842D3C80166E070E00E9494F8E5
:106130008091A0089091A108682B792B7093A108F9
:106140006093A00800919A0810919B081092A208F1
:106150001092A3081092A4081092A50887E0E4EB1F
:10616000F8E0DF011D928A95E9F7D12CEE24E39443
:10617000F12C80919E0890919F082D2D30E02817DA
:106180003907C8F546E050E0B801CE0101960E94FB
:10619000A1FA2B813C812B5F3F4F8091A208909107
:1061A000A308A091A408B091A508820F931FA11D78
:1061B000B11D8093A2089093A308A093A408B09364
:1061C000A5088D819E81FC0133E0F695E7953A950F
:1061D000E1F7E656F74F87709927970102C0220F23
:1061E000331F8A95E2F7C901928D982B928F0A5F2F
:1061F0001F4FD394BECF26E0289F6001299FD00C6B
:10620000112434E0C30ED11CE12CF12CCE010796F1
:10621000988B8F8786E090E09A8B898BA12CB12C8C
:1062200000E010E096E0792E22E2822E20EA922E03
:10623000F80183E0F695E7958A95E1F7E656F74F82
:10624000828D90E098012770332702C0969587953C
:106250002A95E2F780FF41C07A9CC0017B9C900D9B
:10626000112404969E878D8762E27FE2CE010D960F
:1062700021DE8B859C858017910749F48F81988555
:10628000A985BA858C159D05AE05BF0559F01C87FB
:106290000B87CF82D886E986FA8662E27FE2CE015A
:1062A0000D96EADDC801EBDB2C01009729F49092F2
:1062B000CE088092CD0879D246E050E0B201CE01FE
:1062C00001960E94A1FA8B819C810596C80ED91E69
:1062D000E11CF11C8FEFA81AB80A0F5F1F4F0333A0
:1062E000110509F0A5CFA5DD62960FB6F894DEBFC3
:1062F0000FBECDBFDF91CF911F910F91FF90EF9017
:10630000DF90CF90BF90AF909F908F907F905F90E5
:106310004F90089520E0FC013191CF01311105C06B
:106320002F5F2730C1F780E0089581E0089527E0CE
:10633000FB0111922A95E9F7FC0123E0F695E79518
:106340002A95E1F7E60FF71F8770992721E030E0E3
:1063500001C0220F8A95EAF78081822B8083CB01CE
:10636000B4CC0895A4EBB8E0FC013D912081232337
:10637000219328E0AB3BB207C1F7CCCF0895A7E04B
:10638000B0E0E5ECF1E30C94E2F9BE016F5F7F4F02
:10639000CEDFCE010196E6DFCE010196BBDF182FDE
:1063A000882339F0CE0101964EDD8091CA0881FF25
:1063B0009FDD812F2796E3E00C94FEF90895089560
:1063C000A2E0B0E0E6EEF1E30C94E3F980912C0753
:1063D0008823E9F0BE016F5F7F4F81E290E02ED409
:1063E000BE016E5F7F4F8DE190E028D489818230BD
:1063F00071F48A8181110BC08FED91E39093350781
:10640000809334078DE297E00E947FC502C00E940E
:1064100081E32296E2E00C94FFF980912C07089525
:106420000C943AEF0895A0E0B0E0E9E1F2E30C94B7
:10643000DBF9B82E7B01082F10E093E01695079545
:106440009A95E1F78770C1E0D0E001C0CC0F8A9542
:10645000EAF7AC2E8FE38B1538F484E090E8909344
:10646000CE088093CD08A1D1F801EA5CF84F808175
:106470008C2311F1C0913E07D0913F0785E0C82ED3
:1064800080E8D82E2097C1F0FE01E00FF11F828135
:106490008A2171F02A853B85232B29F4D092CE08DE
:1064A000C092CD0882D1EA85FB85B7018B2D199565
:1064B0000990D881C02DE6CFCDB7DEB7EAE00C94C5
:1064C000F7F9E82FF0E023E0F695E7952A95E1F754
:1064D000EA5CF84F208130E0877041E050E002C074
:1064E000440F551F8A95E2F72423352381E0232B9F
:1064F00009F480E00895282F30E043E03695279591
:106500004A95E1F7620F731F877021E030E001C008
:10651000220F8A95EAF7FB019281922381E009F428
:1065200080E008951F93CF93DF93182FEB01803401
:1065300038F023E030E83093CE082093CD0835D1F1
:10654000BE01812FD8DF81112AC0BE018EE397E002
:106550009AD081110BC088E0FE013296DF011D92B6
:106560008A95E9F7BE018EE397E09DD0412F50E078
:1065700063E0569547956A95E1F7177021E030E0A2
:1065800001C0220F1A95EAF7C40FD51F8A81822B0A
:106590008A83FA01EA5CF84F8081822B8083DF9145
:1065A000CF911F9108951F93CF93DF93182FEB0185
:1065B000803438F023E030E83093CE082093CD08C3
:1065C000F4D0BE01812F97DF882369F1212F30E0BD
:1065D00073E0369527957A95E1F7177041E050E022
:1065E000012E01C0440F0A94EAF7942F9095C20F30
:1065F000D31F8A8189238A83E0913E07F0913F0768
:10660000309759F0DF01A20FB31F12968C918423AB
:1066100051F40190F081E02DF3CFF901EA5CF84FDD
:10662000808189238083DF91CF911F910895DC01C0
:10663000ED91FC911197309721F0208131812D93BC
:106640003C93CF01089561157105A1F0DC01ED9136
:10665000FC911197E617F70759F4208131812D93AA
:106660003C930FC0808191818617970729F0FC0128
:106670003097C1F780E00895DB018D919C91918363
:10668000808381E00895DC01ED91FC91309739F031
:10669000E617F70731F00190F081E02DF7CF80E0A9
:1066A000089581E008950F931F93CF93DF938C019A
:1066B000EB01E9DF882349F080E090E89093CE0871
:1066C0008093CD085AD080E014C019821882D80176
:1066D000ED91FC911197309719F4CD93DC9308C09C
:1066E00080819181009711F0FC01FACFD183C083A2
:1066F00081E0DF91CF911F910F910895CF93DF93A8
:10670000FC0182819381009781F40E9468E6C22F88
:10671000D32F0E94425544E0FC0121913191CF01D9
:10672000C227D3274150C1F7CE010E9496FA81E0DB
:106730008093BD0285EC92E00E9414E6DF91CF9138
:10674000089587EB92E00C94B35508958091BD02B3
:10675000882369F085EC92E00E9444E68EE793E39B
:106760009093C4028093C3021092BD02EACF0895B1
:1067700085EC92E00C9444E6089582E090E09093DA
:10678000D0088093CF088091CD089091CE08909347
:10679000D2088093D108E091CB08F091CC083097D3
:1067A00019F08FEC98E01995089583E090E09093AC
:1067B000D0088093CF088091CD089091CE08909317
:1067C000D2088093D108E091CB08F091CC083097A3
:1067D00019F08FEC98E019950895EF920F93FC0152
:1067E000618372834F3740F081E090E89093CE0848
:1067F0008093CD08C2DF20C0403808F04FE7440F37
:10680000808181700187842BE0FA80F98083348352
:106810002383CB01AC01608166950496218132818E
:1068200074E0679F200D311D11244217530720F497
:10683000DC0111971C92EECF0F91EF900895A0E02C
:10684000B0E0E5E2F4E30C94DCF9EC018B01B42E4A
:106850000E9468E669017A018D819E81AF81B885C9
:10686000A7019601281B390B4A0B5B0BCA01B90122
:106870002B813C8140E050E00E94BBF82F3F310566
:106880004105510518F42223F9F001C02FEF898149
:106890009A81BC0138813695049649815A81E4E099
:1068A0003E9F400D511D11246417750748F4FC01EB
:1068B0003291432F231708F4422F341B3083E9CF42
:1068C000CD82DE82EF82F886A981BA814881842F49
:1068D00086959D0154E0859F200D311D1124C9012D
:1068E000E0E0F0E0A817B907C0F413965C911397A5
:1068F000552359F02D913C9111972017310729F418
:1069000012962C9112972B15C1F0309719F0238114
:10691000521708F4FD011496E5CF40FD06C03097EC
:1069200071F0838181110BC002C0309751F0118347
:106930000083B2828985838304C080E003C082E043
:1069400001C081E0CDB7DEB7E9E00C94F8F9FECEE6
:1069500008950895CF93DF936091D2027091D3028E
:1069600080E090E0E1E0F0E09F01082E02C0220FFD
:10697000331F0A94E2F740914007509141074623A4
:10698000572342235323452B11F16FB7F8944091BD
:1069900040075091410720953095242335233093AB
:1069A0004107209340076FBFFC01EE0FFF1FE85126
:1069B000FB4FC081D181209739F486E090E8909315
:1069C000CE088093CD08F1DEFE01199504C0019632
:1069D0008F30910549F6DF91CF9108950E940CE424
:1069E0000E94CFB4882371F02FB7F89480914007AC
:1069F00090914107806190934107809340072FBF9A
:106A000081E0089582E00895A5DF60E070E08BE208
:106A10000ADD8091400790914107892B09F4D0DC71
:106A2000209140073091410781E0232B09F480E059
:106A3000089590CF0895FC012081211105C021E027
:106A40002193CF010C9414E60895FC01208121309C
:106A500021F41192CF010C9444E60895A5E0B0E032
:106A6000E4E3F5E30C94DFF97C012A833B834C8358
:106A70005D836983EADFF7011082698163872A8178
:106A80003B814C815D812783308741875287158701
:106A900004872596E6E00C94FBF90895813031F0E7
:106AA00018F0823029F008952F9A08952E9A0895AB
:106AB0002C9A0895813031F018F0823029F0089531
:106AC0002F9808952E9808952C980895279A269A1D
:106AD000249A2F9881E0EEDF82E0ECDF80E00895D9
:106AE00089E3E4E9F5E1DF011D928A95E9F7E5EB39
:106AF000F5E183E080838AE081831282138287E05C
:106B0000848315821682178295E09093BF1591E0D9
:106B10009093C7158093C01547E850E064E57BE487
:106B200085E196E10E94A1FA43E150E061E47BE453
:106B300081E895E10E94A1FA43E050E06EE37BE436
:106B40008EE795E10E94A1FA48E450E066EF7AE40E
:106B50008DEC95E10E94A1FA8BEA9CE0E3EDF8E070
:106B6000DF019C011D9221503040E1F70895A4E01F
:106B7000B0E0EDEBF5E30C94E3F9BC011A82198265
:106B80001C821B828827811521E0920769F08115FC
:106B900022E09207B9F0892BE9F4660F771F660FA0
:106BA000771F6857764B07C07727660F771F660FEA
:106BB000771F6453774B44E050E0CE0101960E946A
:106BC000A1FA0FC07727660F771F660F771F645CE7
:106BD000774BF1CF8AE090E69093CE088093CD0872
:106BE000E4DD69817A818B819C812496E2E00C94BA
:106BF000FFF976DF42CA0895A4E0B0E0E2E0F6E3F0
:106C00000C94DFF97C018B01B2DFEE24E11422E069
:106C1000F20669F026E030E63093CE082093CD08E6
:106C200069837A838B839C83C0DD7A816981F801D3
:106C3000718360832496E6E00C94FBF9A4E0B0E055
:106C4000E4E2F6E30C94DFF98C017B0190DFE114C0
:106C5000F10479F420E030E63093CE082093CD089B
:106C600069837A838B839C83A0DD9C818B817A816D
:106C7000698100270115110549F0011521E012076E
:106C800051F4AC01C7010E94A1FA0CC0AC01C701CC
:106C90000E94B7FA07C081E090E69093CE088093F7
:106CA000CD0883DD2496E6E00C94FBF9A0E0B0E08B
:106CB000ECE5F6E30C94DDF98C01EB0158DF6B0198
:106CC0007C01209739F484E090E69093CE0880937D
:106CD000CD086BDD00270115110539F085E090E640
:106CE0009093CE088093CD0860DDA701BE01C60158
:106CF0000E94B7FACDB7DEB7E8E00C94F9F9FC01D1
:106D000095A5892F887090FF09C0882379F081E0CC
:106D100021A532A52236310550F408C0882331F070
:106D200081E021A532A52436310508F480E0817088
:106D3000089521E030E001C0220F8A95EAF78091A2
:106D40004507822B809345072FB7F8948091400721
:106D500090914107806290934107809340072FBF35
:106D60000895CF93DF93E091A116F091A2168E17AC
:106D70009F0718F482E894E446C08E1B9F0B6CE6D4
:106D800070E00E9494F880919C16681718F083E8D0
:106D900094E439C08CE6689FE00DF11D11248781D1
:106DA000869590E08230910559F014F00397D1F563
:106DB0008091A0168823B1F181508093A01632C033
:106DC00080919F16882319F0815080939F16DF01D0
:106DD000AC5ABF4FCD91DC912091A4163091A516ED
:106DE000CE01821B930B63E270E00E9494F8C217FD
:106DF000D30718F484E894E406C080919D166817C0
:106E000040F085E894E49093CE088093CD08B5DCFB
:106E10000CC0D90183E2689FA00DB11D11248C9193
:106E200081111C9287818E7F8783DF91CF91089596
:106E3000CF93DF93EC0118A68EA19FA1892B39F483
:106E400084E494E49093CE088093CD08AEDCEEA168
:106E5000FFA1CE0188961995DF91CF910895EF9209
:106E6000FF920F931F93CF93DF93A0919C164091B5
:106E7000A1165091A21620E030E090E09A1709F494
:106E80005AC0FA01E20FF31FB90164597F4FB7816D
:106E9000B0FD63C07F0194E5E90EF11CD7011D929E
:106EA0001C928230B1F010F08330F1F59091A01671
:106EB00040919E16941708F03EC09F5F9093A016D5
:106EC000138214821582168290859F709087128299
:106ED00035C010919F1690919D16191760F500917D
:106EE000A3164091A4165091A51690E09017B9F002
:106EF000EA014D5D5F4FBA0163527109DB016C918C
:106F000061110BC01F5F10939F1641E04883689684
:106F1000D701CD93DC93428302C09F5FE7CF4091BE
:106F2000A31649130BC007C081E894E49093CE08E0
:106F30008093CD083ADC80E090E012C09085907F8D
:106F40009087880F81608783118210828091A116BB
:106F50009091A216820F931F03C09F5F9B018ECF5B
:106F6000CDB7DEB7E6E00C94FBF92091560721502F
:106F700020935607BC0180E797E095DB81E0D9CEEE
:106F80000F931F93CF93DF938C01C0914607D0914D
:106F90004707809142079091430780519140813F7C
:106FA000954048F4B80186E497E07DDBCD2B59F499
:106FB00080E0BFDE08C083E694E49093CE0880931F
:106FC000CD08F3DBEFCFDF91CF911F910F910895A3
:106FD000BC016151710982E797E065DB81E0A9CED0
:106FE000209156072F5F209356070C9449956F9276
:106FF0007F929F92AF92BF92CF92DF92EF92FF92D9
:107000000F931F93CF93DF931F92CDB7DEB78C0101
:107010007B01FB01E25AFF4F85EB97E3918380836D
:107020003E9782E08083D80159968D919C915A9722
:107030003196918380839E968C919E97379680831C
:107040003196108231969D968C919D978095881FE0
:107050008827881F8083319681E0808331968083E2
:107060009D968C919D9786FD0BC021E059968D9140
:107070009C915A97883F9F4F08F020E0822F01C0D3
:1070800081E0F701E35AFF4F81708083C80137DE4A
:10709000F701ED5AFF4F6F0197012C5A3F4F39010D
:1070A000882309F442C090904E1740914F17242F27
:1070B00030E08091521790E001972817390739F492
:1070C000D80199968C91499D80191124982EA92C4C
:1070D000B12CC5014E968236910538F081E594E4D5
:1070E0009093CE088093CD0860DB30914E172091AD
:1070F0004F178091641790916517F80163A574A5E7
:10710000329F600D711D1124A5014E960E94B7FAA1
:107110008AE0890DD6018C93809164179091651750
:107120004496F301918380830EC0D80199968C9187
:107130009997885F80839B968D919C919C970897E7
:10714000D9018D939C93F301C080D180D6012C91FD
:107150002C7F2F7E2C93F801818D928D237F883F89
:107160009F4F10F02860D6012C93F60180818F7D0F
:107170008083D8019D969C9192FD03C08F7B808374
:1071800022C08064F6018083D70118962C9118974D
:10719000207F216018962C93C8012983B0DD2981B6
:1071A0002F70882341F0809154178295807F822B25
:1071B000F701808708C080917F158295807F822BA0
:1071C000D70118968C93C8019ADDF6019081882327
:1071D000A1F09068908390914F1780858C7F9111DA
:1071E00006C08160808780915217818709C08260C4
:1071F000808780914F17818703C09F77F601908326
:10720000D80193968C919397F601818396968D91F0
:107210009C9197979383828394968D919C91959757
:107220009583848398968C918683C80168DD882332
:1072300031F080915317D60117968C9308C0809136
:107240006D0791E0980F90936D07F6018783C70152
:107250000996C6DE80E00F90DF91CF911F910F91CC
:10726000FF90EF90DF90CF90BF90AF909F907F9076
:107270006F900895E0916217F0916317BF018081CC
:107280009181B5CEE1E4F7E1F0931217E093111785
:1072900092E090930D172091B4163091B51630936B
:1072A0000F1720930E179BE090931017109215174D
:1072B0001092161791E09093171790931817109249
:1072C000191728EA3BE330931C1720931B17909360
:1072D0001A17908190789260906890839091BB1675
:1072E000909342172091B7163091B81630934417F7
:1072F000209343172091B9163091BA163093461750
:10730000209345179091B616909347179091BC160D
:107310009093481792E0909349179091B2169093EA
:107320004A179091B31690934B1790914C179093E6
:107330002A171092AD161092AE161092AF16109238
:10734000B0168093A61686EC96E14ACEA4E0B0E093
:10735000ECEAF9E30C94E1F9182FBE016F5F7F4F5F
:107360008AE190E06BDC20915B0730915C074091F3
:107370005D0750915E07A12FB0E00E9414F90981CA
:107380001A812B813C81600F711F821F931F2496ED
:10739000E4E00C94FDF90F931F93CF93DF93EC017E
:1073A0008C0107551109FC013C970190F081E02DFB
:1073B0006FEF818192810E94688C882361F0FE01C9
:1073C000329785EB97E39183808323971882C801D6
:1073D0000E94399502C0CE01C8DDDF91CF911F9187
:1073E0000F91089563EA76E180E191E027DC64EA99
:1073F00076E18EE092E000DC8091A4169091A516D3
:1074000020E03091A316231748F4FC0133E2239FB8
:10741000E00DF11D112410822F5FF3CF6CE976E1AE
:107420008FE091E00BDC61EA76E18DE092E0E4DB55
:1074300020919C16E091A116F091A21680E082178F
:1074400039F097819E7F97838F5FE459FF4FF7CF85
:107450009091A31690939D1680939E1610929F165E
:107460001092A0166EE477E188E291E0E7DB6CEA27
:1074700076E189E291E0E2DB6BEA76E188E191E096
:10748000DDDB8091AB16882351F067EA76E18FE06F
:1074900092E0B2DB64E677E180E192E0ADDB30912F
:1074A000AB162091AC168091A7169091A816329F2A
:1074B000800D911D11249093AA168093A916109205
:1074C000A616089567E777E082E192E095DB66E72C
:1074D00077E087E191E0B2DB80917607E091770772
:1074E000F0917807882349F0309739F489E294E4E1
:1074F0009093CE088093CD0840C99F0146E1849FB8
:10750000200D311D1124C90128EAE817F90718F4E4
:10751000258B7696FACF08951F93CF93DF93EC01D6
:10752000162F0097B1F08D819E81892B91F086E412
:1075300097E07DD81F83ED81FE81CE0107961995D6
:107540008091460790914707892B59F080E0F1DB45
:1075500008C08BE694E49093CE088093CD0825D99B
:10756000E6CFDF91CF911F910895A1E1B0E0EBEB61
:10757000FAE30C94D3F98C01262E29873A874B879E
:107580005C870E9410E2E0915F0729853A854B8570
:107590005C85EE2361F130909C16C0906207D0901C
:1075A0006307E0906407F09065072B013C014C18DD
:1075B0005D086E087F084D825E826F827886E0915A
:1075C000A116F091A216198A66246A94762C4301BA
:1075D00069827A828B829C8246015701861A970AB9
:1075E000A80AB90A8D869E86AF86B88A0BC009EFB5
:1075F0001BE3A3C0A781A0FD09C0A989AF5FA98B28
:10760000E459FF4FB989B311F5CF40C0B085BF70C1
:10761000B23099F7AA7FA23081F783809480A58049
:10762000B68081149104A104B10439F3E017F10785
:1076300021F34D805E806F807884481459046A0479
:107640007B0468F44D845E846F847888840C951C78
:10765000A61CB71C83829482A582B68204C01382C2
:1076600014821582168283809480A580B68049801A
:107670005A806B807C8084149504A604B70408F0BB
:10768000BCCF89829A82AB82BC82B7CF211046C020
:107690008090AD169090AE16A090AF16B090B01638
:1076A00081149104A104B104C9F12B013C014C18CF
:1076B0005D086E087F08481459046A047B0488F446
:1076C000C80CD91CEA1CFB1CC61AD70AE80AF90A1E
:1076D000C092AD16D092AE16E092AF16F092B016F0
:1076E00008C01092AD161092AE161092AF161092FE
:1076F000B0168091AD169091AE16A091AF16B091D4
:10770000B01649805A806B807C8084159505A6054B
:10771000B70520F489839A83AB83BC8389819A81DE
:10772000AB81BC81281739074A075B0710F4DA01DF
:10773000C90109EF1BE39C01AD0161E08FE597E012
:107740008DD98FE597E077D96196E2E10C94EFF956
:10775000809156078150809356078091A6168330FA
:1077600009F43CC0823039F082E594E49093CE086D
:107770008093CD081AD8E0914D17EE2379F181E07E
:107780008093A616A0918015B0E011972AE030E012
:107790000E940EF99B01AC01809157079091580708
:1077A000A0915907B0915A07280F391F4A1F5B1F34
:1077B000A0917F15B0E00E9414F99B01AC01609389
:1077C000AD167093AE168093AF169093B016E1503D
:1077D000E0934D1761E080E090E0C7CE1092A616CE
:1077E0001092AD161092AE161092AF161092B016FF
:1077F0000895A4E0B0E0EFEFFBE30C94DBF92FEF8A
:107800003FEFA90110E0AA24AA94B12C80919C1604
:10781000181708F054C0E091A116F091A2168CE65A
:10782000189FE00DF11D1124678160FF46C070852F
:10783000872F8F70823009F040C0862F8A7F823078
:10784000E1F583819481A581B681C0906607D090CF
:107850006707E0906807F09069078C199D09AE09E9
:10786000BF0983839483A583B6830097A105B105DF
:10787000E9F4872F807F846080876E7F663059F4BB
:10788000C5010090801502C0880F991F0A94E2F785
:1078900080958093511781E029833A834B835C83E1
:1078A00048DA29813A814B815C8107C082179307AE
:1078B000A407B50710F49C01AD011F5FA7CF80910D
:1078C000AD169091AE16A091AF16B091B01600977C
:1078D000A105B10551F1C0906607D0906707E0900F
:1078E0006807F09069078C199D09AE09BF0980935C
:1078F000AD169093AE16A093AF16B093B016009746
:10790000A105B10559F482E029833A834B835C8356
:10791000B9DC29813A814B815C8107C082179307CA
:10792000A407B50710F49C01AD012F3FEFEF3E0710
:107930004E075E0751F009EF1BE361E08FE597E02A
:107940008DD88FE597E077D803C08FE597E07DD895
:107950002496EAE00C94F7F9A0E0B0E0E2EBFCE357
:107960000C94DAF98C01962EC0917707D0917807A4
:10797000809176076E0196E1899FC00CD11C11247D
:10798000F8018589811109C07E01F6E1EF0EF11C35
:1079900058018CE0A80EB11C09C085E294E432C005
:1079A0008A3A89F06696F6E1EF0EF11CF801CC15E3
:1079B000DD0508F04AC0908521853285F7013197B1
:1079C0008081843A69F7F7013E9780819813EACF66
:1079D00089859A852817390729F748E050E0B801CA
:1079E000CE010E94AAFA892BE9F6F8018385F701F6
:1079F0003B9790818913D6CF813059F0833091F035
:107A000086E294E49093CE088093CD080E94BD3323
:107A10001DC0F801248535858C859D85281739077B
:107A200009F617C0F8019489F701329780819813FD
:107A3000B9CF48E050E0BE01645F7F4FC5010E94AE
:107A4000AAFA892B09F0AECF04C0958A80E090E0B5
:107A500001C0CE01CDB7DEB7EBE00C94F6F9CF93C1
:107A6000DF93EC010097B1F18AEA8D8B0E944255B9
:107A700048E050E0BC01CE010E94AAFA892B51F5E2
:107A800082E88D8B888581508E3F20F58B858330F1
:107A9000C9F48C8981508E3FE8F42C853D854E8554
:107AA0005F85688979898A899B89A0E00E943EFA6E
:107AB00071F480E194E49093CE088093CD080E9405
:107AC000BD3308C0813019F086EA8D8B03C01D8A52
:107AD00081E001C080E0DF91CF910895CF93DF93E3
:107AE000EC01009761F169AB4115510551F0FA01C4
:107AF00040815181628173814AAB5BAB6CAB7DABE2
:107B000004C01AAA1BAA1CAA1DAAEFA5F8A930979F
:107B100049F484E594E49093CE088093CD080E94C4
:107B2000BD330DC0CE01C1961995CE01E8D888238A
:107B300031F0109263171092621781E0FAD8DF914A
:107B4000CF910895A1E0B0E0E8EAFDE30C94E1F9FB
:107B50008C01FC01208131818091A4169091A516A1
:107B60002817390740F487E494E49093CE08809373
:107B7000CD080E94D533F801808191812091A4160F
:107B80003091A516821B930B63E270E00E9494F87B
:107B900080919D16681750F088E494E49093CE0885
:107BA0008093CD0869830E94D53369818091A416A2
:107BB0009091A516F3E26F9F800D911D11242196DF
:107BC000E4E00C94FDF9FC0120814597211107C0E8
:107BD000BC0184E797E00E94533381E0AAC840E0EB
:107BE00050E069EA7BCFA3E0B0E0E9EFFDE30C945D
:107BF000E1F98C01675F7F4F7A836983BE016D5F16
:107C00007F4F8EE090E01AD88B81D80199965C91D5
:107C1000999740916D07882309F442C089819A8120
:107C2000FC01E95BFF4F21E0208359962D913C91A7
:107C30005A973196318320833296585F50839B96B2
:107C4000ED91FC919C979C01255B3F4F3897D901A2
:107C5000ED93FC938FEF8183D80196968D919C9143
:107C600097979383828394968D919C919597958312
:107C7000848398968C91868381E0840F80936D072E
:107C80004783D901ED91FC918081807888608F775E
:107C90008083E981FA81EB5AFF4F85EB97E344C07B
:107CA00089819A81FC01E95BFF4F22E020833196B4
:107CB0002DEF3FEF318320833296575F5083D801F9
:107CC0009B96ED91FC919C979C01255B3F4F3997CA
:107CD000D901ED93FC93D80159968D919C915A97B7
:107CE0009283818396968D919C91979794838383B9
:107CF00094968D919C9195979683858398968C9177
:107D0000878381E0840F80936D074087D901ED91CF
:107D1000FC91808180788C608F778083E981FA8103
:107D2000EB5AFF4F8BEC99E391838083E981FA81D1
:107D3000D8019E968C919E97E15BFF4F8083E981ED
:107D4000FA81E05BFF4F80917E158083E981FA81A3
:107D5000EF5AFF4F9D968C918095881F8827881F2A
:107D60008083E981FA81EE5AFF4F81E08083E981C7
:107D7000FA81ED5AFF4F8083E981FA81EC5AFF4F77
:107D8000808389819A812CD980E02396E4E00C9449
:107D9000FDF9DC01ED91FC919093631780936217DC
:107DA00010924F171092501780917F15809354179F
:107DB00020914E1730E081A592A5B9010E9494F858
:107DC000462F6093521781A592A5B9010E9494F89D
:107DD000892B19F04F5F409352178FEF90E000907E
:107DE000801502C0880F991F0A94E2F780958E7F54
:107DF0008093511780916D0791E0980F90936D07D4
:107E0000809353170895A0E0B0E0E9E0FFE30C94FD
:107E1000DAF9EC016B01942E59010091770710916A
:107E2000780780917607780196E1899FE00CF11C34
:107E30001124209761F0C017D107F0F583E294E494
:107E40009093CE088093CD080E94D53335C0E801C9
:107E5000CE01801B910B66E170E00E9494F8892BA3
:107E600079F084E294E49093CE088093CD080E9448
:107E7000D53306C01D89143A39F01A3A29F06696AE
:107E8000CE15DF05B8F313C088859812F8CF898521
:107E90009A85C816D90699F748E050E0B501CE0199
:107EA0000E94AAFA892B59F7143A49F703C080E0D7
:107EB00090E004C0CE0102C06696CACFCDB7DEB74F
:107EC000EBE00C94F6F94F925F927F928F929F9223
:107ED000AF92BF92CF92DF92EF92FF920F931F93D8
:107EE000CF93DF931F92CDB7DEB72C017B010E94A9
:107EF00042556C0157018AE6A80EB11CF5010081BC
:107F000011814114510431F0E114F10419F0C1144C
:107F1000D10451F484E194E49093CE088093CD0889
:107F20000E94BD3388EA5EC058EAF20166A177A1DB
:107F3000960140A5C801598366DF8C0159810097DD
:107F400009F44FC0F20186899789892B19F5F80148
:107F50007384F3E07F121EC048018CE0880E911CF0
:107F6000C4010E941BC5892BA9F4F2017286D201BB
:107F70001D9688E0F40101900D928A95E1F783E067
:107F800090E4F201978B868BC20106960E9410C581
:107F900080E028C0F50111830083F80183858330D8
:107FA000B1F4C8010C960E941BC5009711F459EA60
:107FB000BCCFF8012489F20123A3FC0180819181C7
:107FC000F201928F818FB701C20111D80BC0F80165
:107FD00084859585F201928F818FB701C20103DEFE
:107FE00001C0852F0F90DF91CF911F910F91FF90CE
:107FF000EF90DF90CF90BF90AF909F908F907F9049
:108000005F904F900895FF920F931F93CF93DF934C
:108010008C010551110920919C16C091A116D09197
:10802000A216F12CF216E9F08F8180FF16C088812C
:1080300099818017910789F4BE01C80144DF882324
:1080400081F040E050E0682FC80148DDCE010E9479
:10805000B13681E00E94993604C0F394C459DF4FD1
:10806000E1CF80919C16F81640F085E194E490935E
:10807000CE088093CD080E94D533CDB7DEB7E5E0BA
:108080000C94FCF9EF92FF921F93CF93DF931F9212
:108090001F92CDB7DEB77B010097A1F06115710586
:1080A00089F0FC01178A168AF701E659FF4F118201
:1080B0001082B70108DF182F882389F0C7010E94BA
:1080C000B1360DC023E134E43093CE082093CD08BF
:1080D00089839A830E94D53389819A81E2CF812F47
:1080E0000F900F90DF91CF911F91FF90EF90089527
:1080F000A1E0B0E0EEE7F0E40C94DFF98C01262F6C
:10810000DC01ED90FC90009709F444C0E114F10407
:1081100009F440C02E3C61F0822F8F7D803D41F0FC
:10812000213D11F082E005C0F70185A587FFFACF58
:1081300083E0F801EB59FF4F4081518162817381E7
:10814000D701D2964D935D936D937C93D597D1963D
:108150002C93833071F0D801ED91FC91808D8111C9
:1081600008C0F701178A168AB801C701ACDE883A41
:10817000E1F4A7014E5C5F4FD701D1966C91F801F5
:1081800080819181ABDCC8010E94B13681E00E9400
:1081900099360BC08FE494E49093CE088093CD0879
:1081A00029830E94D5332981B5CF2196E6E00C942E
:1081B000FBF9CF93DF93EC0152DC882309F454C020
:1081C00060E0CE01C9DB892BC1F5209709F43EC0E0
:1081D0008D8981113BC050917607209177073091AE
:1081E000780740E0451781F0C9012A5E3F4FF90149
:1081F00031976081683A31F424EAFC01258B0097BD
:1082000031F432C04F5FEECF8EEA8D8B2DC02097B8
:1082100019F03D89332349F087E294E49093CE0826
:108220008093CD080E94BD331AC036E1FE01DC0107
:1082300001900D923A95E1F706C066EACE018CDB1B
:10824000009791F024EAFC01258B09C080E294E4B8
:108250009093CE088093CD080E94D533BCCF60E0C8
:1082600070E080E10E941332DF91CF910895CF93A7
:10827000DF93EC010097D9F0809177079091780710
:10828000C817D907A0F02091760736E1239F800D0B
:10829000911D1124C817D90750F48D89843A11F023
:1082A0008A3A71F488EA8D8BDF91CF91089581E24B
:1082B00094E49093CE088093CD080E94D533EDCFFF
:1082C00082E294E49093CE088093CD080E94D53347
:1082D000E9CFCF93DF93EC01C2DB882359F064EA46
:1082E000CE013ADB009731F0C2DF60E070E080E160
:1082F0000E941332DF91CF9108952091770730913A
:108300007807009751F0FC0176968091760796E108
:10831000899F200D311D112408C0F901F6CF8589F0
:10832000843A49F08A3A39F07696E217F307B8F3BF
:1083300080E090E00895CF010895CF93DF93EC01A2
:10834000BC0184E797E00E9453331F8A1E8A81E0B4
:108350000E949936DF91CF910895CF93DF93EC017E
:10836000BC0182E797E00E9453331B8A1A8A81E09E
:108370000E949936DF91CF910895AAE0B0E0E3EC36
:10838000F1E40C94D9F91091BF15BE01665F7F4FDF
:1083900087E091E00E941E36BE016F5F7F4F8AE149
:1083A00090E00E941E36C980DA80EB80FC80812F2D
:1083B00090E0A0E0B0E08C159D05AE05BF0578F01B
:1083C000CC0CDD1CEE1CFF1CC982DA82EB82FC8225
:1083D000BE016F5F7F4F8AE190E00E945636C12E4A
:1083E000D12C87E0C80ED11CEE24D7FCE094FE2CE3
:1083F000C0925B07D0925C07E0925D07F0925E0747
:108400002A8530E0A3E0B0E00E94FFF89B01AC01B8
:10841000C701B6010E9479F809811A812B813C813C
:10842000600F711F821F931F609357077093580747
:108430008093590790935A0781E08887BE01675F50
:108440007F4F87E091E00E941E36BE01685F7F4F3C
:1084500084E290E00E941E36898590E0A0E0B0E0C2
:10846000880F991FAA1FBB1F8F3F9105A105B1055A
:1084700029F020F08FEF90E0A0E0B0E00E94A63954
:10848000E885EE2309F45AC0812C912C54018B010C
:108490009C0101501E4F2F4F3F4F800E911EA21E78
:1084A000B31E660F771F881F991FE15081F718864A
:1084B0007501640129E0F694E794D794C7942A954E
:1084C000D1F7D501C4019170AA27BB2741E050E044
:1084D00060E070E0892B8A2B8B2B19F440E050E090
:1084E000BA01C40ED51EE61EF71E1E821D821F8213
:1084F000BE01695F7F4F81E191E00E941E36BE019F
:108500006B5F7F4F88E092E00E94FC359701860107
:108510000F3F11052105310529F020F00FEF10E084
:1085200020E030E06D817E81C12CEE24E39420E0D8
:1085300032E04F8188E497E00E94ED332A96ECE028
:108540000C94F5F9882331F00E9493FA80936D071B
:1085500010925607109275071092740710927307C5
:1085600010927207109271071092700710926F07A5
:1085700010926E078AE090E0A0E0B0E080935B1775
:1085800090935C17A0935D17B0935E178AE399E30D
:10859000909361178093601781E080935F1710922A
:1085A000B3161092BC161092B1161092B816109213
:1085B000B7161092B2161092B6161092BA16109202
:1085C000B9161092B5161092B4161092BB161092EE
:1085D000A6161092AD161092AE161092AF1610920B
:1085E000B0168CE6EDEBF6E1DF011D928A95E9F716
:1085F00083E2E9E2F7E1DF011D928A95E9F78091D4
:10860000AC1690E001962091AB16289FA001299FFF
:10861000500D112460E070E08091A7169091A8168B
:108620000E94D1FA81E497E1909312178093111779
:10863000A4CE4F925F927F928F929F92AF92BF9201
:10864000CF92DF92EF92FF920F931F93CF93DF931E
:108650001F92CDB7DEB77C01009781F02C0127E097
:10866000421A510880914607909147078415950555
:1086700029F4D20112968C91893149F086E694E46E
:108680009093CE088093CD080E94BD33CBC08091DB
:108690004207909143078115B7E09B0709F07FC01F
:1086A00000917407109175070115110551F084E7C9
:1086B00097E00E94173340E050E063EAC8010EDA09
:1086C000EFCF6CE6C62ED12C7CE6772EE2E4AE2E00
:1086D000E4E4BE2EF3E48F2EF4E49F2E00917007A5
:1086E000109171070115110509F444C0B80180E724
:1086F00097E00E9423338091A1169091A216F80171
:10870000E81BF90BCF01B6010E9494F880919C16EA
:10871000681740F0B092CE08A092CD0869830E94FD
:10872000D5336981E091A116F091A216679DE00D05
:10873000F11D1124808191812781269530E021301F
:10874000310561F02230310549F2232B61F4A80193
:108750004B5F5F4FD80112966C9103C040E050E030
:1087600067EABCD9BBCF9092CE088092CD080E9418
:10877000D533B4CF10E080919C161817D8F48091AF
:10878000A1169091A216BCE61B9F800D911D11248D
:10879000FC01278120FD0E94B1361F5FECCF8115BF
:1087A000924041F087E694E49093CE088093CD0800
:1087B0000E94D533109245071092440781E0C2DE33
:1087C0000E94F2390E94623A82E393E09093430759
:1087D00080934207D7018C91F201828786E497E06B
:1087E0000E941733D20118968D919C911997892B6D
:1087F00041F489E694E49093CE088093CD080E94DA
:10880000D533D2011896ED91FC911997C7010396C3
:1088100019958091460790914707892B19F080E0C0
:108820000E9499360F90DF91CF911F910F91FF9089
:10883000EF90DF90CF90BF90AF909F908F907F9000
:108840005F904F900895CF93DF93C0914607D091EA
:108850004707209741F484E694E49093CE088093F0
:10886000CD080E94D5338A818A38F9F0853C09F415
:108870004FC0893109F06CC0809142079091430745
:108880008031914019F480E092E002C080E097E0EE
:10889000909343078093420789E193E49E838D83FD
:1088A000CE0103960E9426AC5BC080914207909156
:1088B0004307823323E0920719F08031964049F450
:1088C0008FE394E0909343078093420756DD1D8227
:1088D00002C083EA8D8386E497E00E9417338B8180
:1088E0009C81892B41F48AE694E49093CE0880938E
:1088F000CD080E94D533EB81FC81CE0105961995F8
:108900008091460790914707892B51F180E018C06C
:1089100080914207909143078F339440A1F480E007
:1089200095E0909343078093420782E090E09C8318
:108930008B838FE597E00E9425351092560781E0E2
:108940000E9499360DC063EACE010E948C3A08C09D
:1089500085E694E49093CE088093CD080E94D533A9
:10896000DF91CF910895AAE0B0E0E9EBF4E40C9434
:10897000E3F9DC011396ED91FC911497218132818A
:1089800040E450E05A834983AE01495F5F4F5C8306
:108990004B8341E050E05E834D836F3FBFEF7B0729
:1089A00019F437FF15C003C02617370789F09887D9
:1089B0008F837A876987BE016F5F7F4F8EE10E9448
:1089C000133281E02D813E81232B19F080E001C01C
:1089D00081E02A96E2E00C94FFF9009729F4809157
:1089E0005407909155070895FC0180819181089565
:1089F000CF93C82FE0E0F0E0CF01EFDFFC0100975C
:108A000039F0A381B4818C91C813F6CFCF0102C095
:108A100080E090E0CF910895CF93DF93EC01009731
:108A2000D9F086EA8F83EB81FC813097A9F08081B1
:108A30009FEF980F903F80F4DBDF892B69F421E0F2
:108A40008D819E81892B09F020E02A83BE0184E577
:108A500097E00E9453331F82DF91CF910895DF92F8
:108A6000EF92FF920F931F93CF93DF938C010097A8
:108A700041F480E394E49093CE088093CD080E9463
:108A8000D533C0E0D0E0A1E3EA2EA4E4FA2ECE0173
:108A9000A4DFEC01009789F18A818111F8CF8B81E5
:108AA0009C81892B31F4F092CE08E092CD080E948F
:108AB000D533F80160A171A1CE0155DF882339F3C8
:108AC000EB81FC81D0806D2DF801878190850E941B
:108AD000688C8823E1F2F801D18AED81FE8130971C
:108AE00049F482E394E49093CE088093CD080E94E9
:108AF000BD3303C0C8011995CACFCDB7DEB7E7E0D3
:108B00000C94FAF9A1E3B0E0E8E8F5E40C94D9F9A3
:108B10008C01B62EDC015C96ED90FC905D9757962B
:108B20006D917C915897F701478188E497E00E9406
:108B30001F34882309F414C1D70111968C919FEF3B
:108B4000980F9E3F28F454DF6C01009719F408C178
:108B5000C12CD12CF801248985899689213009F00E
:108B600022E02F8399878887D70111968C918A8B71
:108B7000F8018789908D0E941EC5FC01009799F02D
:108B800083E08B8B708161815281438134812581A7
:108B9000968187817E8B6F8B588F498F3A8F2B8F71
:108BA0009C8F8D8F02C082E08B8BD80157968D9160
:108BB0009C9158979D8B8C8B59968D919C915A972F
:108BC0009F8F8E8FF701868188A3848195819AA3D8
:108BD00089A3828193819CA38BA35B968C9190E067
:108BE0009C012A5031093EA32DA319A6208127FDFF
:108BF00004C09C012850310906C02085237029F447
:108C00009C01295031093EA32DA32DA13EA1821B19
:108C1000930BF801248D358D280F391F38A72FA30A
:108C2000BAA684A18BA7868D8CA740A151A162A171
:108C300073A14DA75EA76FA778AB878D89ABD701CE
:108C40008C9187FF48C018968C918370823009F010
:108C500042C0E091A916F091AA16808190E09EA3EF
:108C60008DA38080912CAA24A394B12C2091B116BD
:108C700030E08091A7169091A816A216B3064CF585
:108C8000E091A916F091AA16EA0DFB1D408150E073
:108C90002091AC162A9DB0012B9D700D1124680FF8
:108CA000791F880D991D0E94B7FAE091A916F091DD
:108CB000AA16EA0DFB1D20818DA19EA1820F911D98
:108CC0009EA38DA3BFEFAB1ABB0A8081880E911CB7
:108CD000CDCF98A78FA3C114D10449F0D601159622
:108CE000ED91FC911697CE010196199539C0F801C6
:108CF0008489813021F4CE010196B1DE31C0D701E3
:108D000011968C918F3F41F5E12CF12CC70165DE66
:108D10007C01009729F1D7011396ED91FC911497EE
:108D20008081882399F312968C918111EFCF69A1EC
:108D30007AA1C70118DE882349F3D7011396ED9174
:108D4000FC91149780818A8B1596ED91FC91169772
:108D5000CE0101961995DACFCE0101960E9492CCF0
:108D6000C8010E941837E196ECE00C94F5F9A1E0F7
:108D7000B0E0EDEBF6E40C94DBF95C01DC015C9611
:108D80000D911C915D97F80181812FEF280F2E3FE7
:108D900080F429832DDE7C012981009751F0D801D0
:108DA00014966D917C911597DEDD882309F405C139
:108DB00005C02E3F08F401C1E12CF12CF80180819F
:108DC00087FF04C09085937009F0F7C086FFF7C055
:108DD0008C70883009F4F1C0D50157968D919C9123
:108DE0005897883FBFEF9B0708F0E7C0E114F104F4
:108DF00021F0F70122812111E0C0D5015C960D918F
:108E00001C915D97F801208126FD02C090E0D2C040
:108E10002370213009F027E0F0909C16E091A11614
:108E2000F091A21630E0422F50E0B801640F751F98
:108E30003F15E9F0A781A530B1F4DF01AF5ABF4F6C
:108E40000D90BC91A02D8A179B0769F4DF01AC5AE5
:108E5000BF4FCD90DC90C40ED51EDB01EC90D60147
:108E6000DC90ED1499F23F5FE459FF4FE1CF82E0CF
:108E700029830E942F372981009741F2FC01EC5A87
:108E8000FF4F0190F081E02DDF0158973FEA1196E6
:108E90003C9311971396BC92AE92129762E0DC015C
:108EA000A05BBF4F6C93D50157964D915C9158973D
:108EB000DC01AF5ABF4F11965C934E9317961C92EC
:108EC00011961C9231E011963C9311963C931196A9
:108ED0001C9245EB57E3129611965C934E931197B3
:108EE0003C9330813C7F32603083D8014C914C7090
:108EF000337F342B30834C914295417040FB34F9E1
:108F00003E7D3F7B30834C9147FB442740F940FB3B
:108F100037F930834C9130E0DC01AD5ABF4F7D0111
:108F200044FF0DC0D5015C964D915C915D97420F59
:108F3000531FDA012C912183F701608337C048E089
:108F40004C93D80116964C911697418312964D91E9
:108F50005C9113975383428314964D915C911597BE
:108F60005583448311964C914683D5015C964D916F
:108F70005C915D97420F531FDA012C912783D80132
:108F80002C9127FF13C018962C91237031F4108672
:108F9000F70120812F5F208309C0D7012C912D5F1D
:108FA0002C93D80118962C912370208709960E9443
:108FB000F03791E081E08927A1C190E001C091E004
:108FC000F801808187FF92C18085837009F48EC18A
:108FD000D5015C960D911C915D975B968C91F80183
:108FE000F1842091AB16222309F487C196EFE92E74
:108FF000E80E8091A616813009F456C030F0843016
:1090000008F06BC180E494E46AC1D084B1E0DB1263
:1090100074C12F1508F471C18091AC168E1508F437
:109020006CC190E00196289FA001299F500D11244A
:1090300060E070E08091A7169091A8160E94D1FA86
:109040008FEA80934C17D092A616F092B116F501D4
:109050008789908D9093B5168093B416D801119698
:109060008C9111978093B61612968D919C911397BF
:109070009093B8168093B71614968D919C9115977E
:109080009093BA168093B91616968C911697809382
:10909000BB1617968C918093BC1680917F15809398
:1090A0004D171092B216F12CF8018085982F93700D
:1090B000923011F0F11021C18C7F09F01EC1809116
:1090C000B1168F1508F419C12091B4163091B51658
:1090D000D50157968D919C9158972817390709F01B
:1090E0000CC19091B616F8018181981306C12091A8
:1090F000B7163091B816828193812817390709F085
:10910000FCC02091B9163091BA1684819581281738
:10911000390709F0F2C09091BB1686819813EDC013
:109120009091BC1687819813E8C02091B2164091A7
:1091300080150F2D10E0822F90E0840F911D0817ED
:1091400019070CF0DAC08F2D642F0E9488F8D92EF1
:10915000F21668F48F2D891B8093B21621E030E05F
:1091600001C0220F4A95EAF721952093B31620916A
:10917000AC168091A7169091A8164E2D50E0D501FF
:109180005C966D917C915D97665F7F4FF29E800D3E
:10919000911D11240E94B7FAE091A916F091AA1628
:1091A000E00FF11FE0827091B2162091B1167F118D
:1091B00011C090918015822F8F19981708F4892F6C
:1091C00041E050E0082E01C0440F0A94EAF74195AF
:1091D0004093B31641E050E00D2C01C0440F0A94B7
:1091E000EAF76091B316642B6093B3166F3F79F47E
:1091F000FF24FA94F70E822F90E04091801550E002
:10920000871B9109481759070CF4CA01F80E8F2DD6
:1092100090E030E0215031098217930751F46F3FFD
:1092200021F483E00E94423963C082E00E94423907
:1092300064C0A0918015B0E011979D01270F311DEA
:109240008217930711F06F3F09F582E00E944239BF
:109250008091B3168F3F09F050C080918015909196
:10926000B216980F9093B2162091B11621502F1973
:10927000821708F4282F81E090E0022E01C0880FA9
:109280000A94EAF781958093B31637C02AE030E05C
:109290000E940EF99B01AC018091570790915807ED
:1092A000A0915907B0915A07280F391F4A1F5B1F19
:1092B000A0917F15B0E00E9414F99B01AC0160936E
:1092C000AD167093AE168093AF169093B01661E012
:1092D00080E090E00E94B53A10C083E594E490935A
:1092E000CE088093CD080E94D53307C0992329F07A
:1092F0006FEAC50107DC80E001C081E02196EAE069
:109300000C94F7F9A4E3B0E0E8E8F9E40C94D3F99D
:10931000C0904207D090430720E1C21621E0D20658
:1093200009F46CC12EE4222E24E4322EAA24A39444
:10933000B12C80E797E00E9417337C01009709F475
:109340005DC10091A1161091A216C701801B910B5F
:109350006CE670E00E9494F880919C16681748F0C3
:1093600089E494E49093CE088093CD080E94BD33A5
:1093700045C13CE6639F000D111D1124D8011796CD
:109380008C91B0E1CB16B6E0DB0621F0C114E5E02C
:10939000DE0699F58E7F843019F5C8018C5A9F4FEF
:1093A0000E94A23D4C01DC0111966C91119712961E
:1093B0008D919C911397892B51F4EAE4F4E4F09396
:1093C000CE08E093CD086CAB0E94D5336CA9D701D1
:1093D00012968C91811104C0F4018281938192DBF9
:1093E000A7014B5F5F4F63EAD8018D919C910E946A
:1093F0006E3DC7010E94B1369CCF8695482E512CF8
:10940000B1E04B165104B1F054F4452809F0EFC017
:10941000D70112966C91C8010E9478408ACFF2E081
:109420004F16510409F4BCC023E04216510409F45C
:109430007CC0DDC0F80180858F70813009F079CF64
:1094400080809180D70119968C910E94A6399B014A
:10945000AC01A0917F15F801808582958F70A81BC3
:10946000C20102C0880F991FAA95E2F7DC010E9491
:109470001EF92B013C01D70112966C91611115C0A8
:1094800043825482658276820E9493FA9170B3017E
:10949000A201480F591F611D711DD80113964D93EC
:1094A0005D936D937C9316972EC06E3C51F0603F98
:1094B00041F0603D31F0613D89F4F40195A597FFDD
:1094C0000DC0A7014B5F5F4FC4010E946E3DC701F5
:1094D0000E94B13681E00E94993690C0D80113965F
:1094E0004D925D926D927C9216970E9493FA9170C4
:1094F000B301A201480F591F611D711DF80143837B
:10950000548365837683D80118968C911897807F51
:10951000826018968C93189713962D913D914D91DA
:109520005C91169760E0C80104C2F80180858F70D5
:10953000813009F0FECE20914F1730E08091521714
:1095400090E001972817390709F4B5C1E09180151B
:1095500070915117272F30E080E090E0682F8E1730
:1095600008F0A9C10196A901062E02C0559547959C
:109570000A94E2F740FFF2CFC501062E01C0880F22
:109580000A94EAF7809587238093511780915017AA
:10959000860F80934F1785E597E10E9414E6C9CEA8
:1095A000C8018C5A9F4F0E94A23D8C01DC0111968C
:1095B0006C91119712968D919C911397892B51F470
:1095C000EDE4F4E4F093CE08E093CD086CAB0E9498
:1095D000D5336CA9D80112968D919C91139792DA8C
:1095E000C7010E94B13681E00E949936A2CE309226
:1095F000CE082092CD080E94D5339BCE1BAA1AAA72
:10960000A8EE4A2EA7E35A2EBFEA2B2E13E0312EE6
:10961000AA24A394B12C66246A94712C95E4892E13
:1096200094E4992E82E797E00E9417338C01C09052
:109630004207D0904307009751F1F801828993893E
:10964000892B09F079C1048CF58DE02D8081837020
:10965000813009F071C18281853009F46DC1D80172
:1096600057968D919C9158970E941EC5892B09F0A1
:1096700063C122E0F80126838789908D90878783D4
:10968000538A428AC80102960E9410C5CBCFC1FE00
:1096900011C050E5C52E54E4D52E62E0462E72E18D
:1096A000A72E74E4B72EE8E05E2EF3EE8F2EFDE3D6
:1096B0009F2E3BC00091740710917507011511058D
:1096C00009F458C0B80184E797E00E94233340E0D2
:1096D00050E063EAC8010E946E3DECCF808D83307C
:1096E00081F57801FBE1EF0EF11CC7010E941BC55B
:1096F000892B39F5D8011D96F701852D01900D9222
:109700008A95E1F7D80158968C9158971A968C93C0
:109710001A9757969C928E925697C80106960E9469
:1097200010C584E797E00E941733009174071091E9
:10973000750701151105F1F0F80186899789892BC4
:1097400069F28091621790916317892B09F4BEC268
:10975000C8010E947F36882309F4B8C2C8010E945C
:109760007F36882309F4B2C2F80100811181011506
:109770001105A1F780914207909143078115B5E04B
:109780009B0721F08031F6E09F0769F5F12C0EC0B0
:109790002CE6F29E80011124E091A116F091A21610
:1097A000E00FF11F8781833031F0F39480919C1694
:1097B000F81670F320C080858F70843011F08230ED
:1097C000A1F740E050E063EA808191810E946E3D04
:1097D0008091A1169091A216800F911F805A9F4FE1
:1097E0000E94B136E2CF8F33944029F4F12C80915E
:1097F0009C16F81648F08091420790914307811516
:10980000954009F080C351C00091A1161091A21695
:109810008CE6F89E000D111D1124D80117968C912D
:10982000179780FF40C018969C911897292F2F708A
:109830002430C9F5282F2A7F2230A9F5907F79F1AD
:109840009160905118969C938E7F823071F4C8017C
:1098500009960E94F037F8012381348145815681B1
:1098600060E0C8010E94B53A1EC08630E1F48091E4
:1098700051178E7F809351178091501780934F1707
:1098800080915417815080935417E0916217F091A2
:109890006317BF01808191810E94F73704C067EA96
:1098A000C8010E947840F394A2CF80915607882384
:1098B00009F4AAC228C3F70181850E94A6399B0139
:1098C000AC01A0917F15F801808582958F70A81B4F
:1098D000C50102C0880F991FAA95E2F7DC010E941A
:1098E0001EF92B013C0100916217109163170E9431
:1098F00093FA9170B301A201480F591F611D711DA8
:10990000D80113964D935D936D937C931697E091D8
:109910006217F09163178085807F826080878091D5
:10992000621790916317FC01238134814581568130
:1099300060E00E94B53AFDCCD8015C96ED90FC90B9
:109940005D97BFE3CB16B4E0DB0669F0D7018C91DD
:109950008370813041F0F80185A1811104C0C801F4
:109960000E941837A4C1D7014C91642F607446FF40
:1099700011C050919F1620919C1630E08091A01646
:1099800090E0850F911D821793074CF780919D16EB
:10999000581728F7242F2C70243009F3662331F050
:1099A000842F83708230D9F243FDD9CF45FDD7CFC4
:1099B000F801D488F1E0DF1671F032E0D312CFCF96
:1099C0004370842F90E0009721F0029709F47AC049
:1099D000C6CF2C3031F0C801CAD9882309F467C139
:1099E000BECFD80157966D917C915897F70140856D
:1099F00088E497E00E941F34882309F4B0CFD8018F
:109A00005B968C91893008F4AACFB1E0BF83F7014F
:109A10008181928199878887D80157968D919C91F1
:109A200058970E941EC5FC01009791F03B8A7081F7
:109A300061815281438134812581968187817E8B2A
:109A40006F8B588F498F3A8F2B8F9C8F8D8F01C0D2
:109A5000DB8AF8018789908D9D8B8C8B818D928D0F
:109A60009F8F8E8FD70117968C91179788A3159685
:109A70008D919C9116979AA389A313968D919C9191
:109A800014979CA38BA3838D90E009979EA38DA32D
:109A9000848D958D099698A78FA319A62AA684A1CF
:109AA0008BA7868D8CA780A191A1A2A1B3A18DA720
:109AB0009EA7AFA7B8AB878D89ABCE0101960E9458
:109AC0002F454DCF423031F09092CE088092CD0894
:109AD0000E94D533C090A116D090A21680919C16FA
:109AE000F6012CE6829FE00DF11D1124CF01C8166E
:109AF000D90608F034CFD60117966C91179760FFFE
:109B0000D2C018962C9118972F70223009F0CBC034
:109B1000F601EC5AFF4F0190F081E02D2D913C9120
:109B2000D80157964D915C915897D90159962D912E
:109B30003C915A974217530709F0B5C0D7011796C1
:109B40003C91179727813213AEC014964D915C91CA
:109B50001597248135814217530709F0A4C0129646
:109B60004D915C911397228133814217530709F07D
:109B70009AC011963C9111972681321394C0169683
:109B80003C91218132138FC06E7F623031F4F60137
:109B90008085807F836080873FC0663009F083C006
:109BA000D70119969C911997809150179813D7CE89
:109BB00060918015262F30E0C501062E01C0880F68
:109BC0000A94EAF781951A969C911A97982B1A96FF
:109BD0009C931A97F6018085807F836080871A9610
:109BE000EC91EF3F99F54091521750E0709150176A
:109BF000E70FCA01871B9109281739070CF4C9011F
:109C00008E0F80934F1790E04150510984179507AC
:109C100041F4C6010E94C93E60E0C6010E9478403E
:109C20009ECE760F7093501780917F1580935417B6
:109C300070934F17930102C0220F331F6A95E2F70A
:109C4000B90160956E7F6093511723C0E095E09352
:109C5000511780E090E02E2F30E0782F8617C8F45F
:109C60000196A901072E02C0559547950A94E2F77F
:109C700040FFF3CFC501072E01C0880F0A94EAF711
:109C800080958E238093511780915017870F809372
:109C90004F17E0916217F0916317BF0180819181A6
:109CA0000E94F7375CCE3CE6C30ED11C20CFD80112
:109CB0005E968C915E978AAB5F968C918BABBE0162
:109CC0006E5C7F4F8BE30E941332ACCCC8010E94C4
:109CD0007F36882361F08091641790916517892BF6
:109CE00009F4BDC0D8019D968C9182FFB8C0F801DF
:109CF00081A592A58536910518F085A583FFB1C091
:109D0000D80198963C90332031F0832D0E94F8447E
:109D1000892B09F448C0F80185A5208D382F3470AF
:109D200082FF0AC0223031F4818D928D883F9F4F8F
:109D3000D0F502C02130B9F18EEF820F823038F4B5
:109D4000D80193968C91815F8E3068F18CC021117F
:109D50008AC0332309F487C0F80166A077A092D6A1
