:020000020000FC
:100000000C9409250D94C7290D94CA290D94CC2967
:100010000D94D1290D94D6290D94E4290D94E92944
:100020000D94092A0D94132A0D94152A18951895E4
:10003000189518950D949426189518950D94BE262C
:100040001895189518951895189518951895189548
:100050001895189518951895189518951895189538
:100060000D94442C0D941A290D940C290D941029EB
:10007000189518950D94E32B0D94962A18951895BC
:100080001895189518951895189518951895189508
:100090000D9458290D942A290D944B290D94312A39
:1000A00018951895189518950D945A280D945F2D4C
:1000B00018951895189518951895189518951895D8
:1000C00018951895189518951895189518951895C8
:1000D00018951895189518951895189518951895B8
:1000E00018951895189518951895189518951895A8
:1000F0000D948D2D18951895189518950D94912D92
:100100001895189518951895189518951895189587
:100110001895189518951895189518950D94C02D43
:100120001895189518951895189518951895189567
:05013000189518951858
:1044000000010093440009007A4400874400964468
:10441000009644009044007D44008A44008D44008E
:1044200096440000000011530017000A5300D652B2
:1044300000E152001153000E5300115300E55200E9
:104440001053000E5300F65200E152001153000EBB
:1044500053000E5300D152001153001153000A5360
:10446000000C53000A53000C53000E53001053006D
:1044700000006A57001700F3560016570023570034
:10448000235700165700235700465700165700427F
:1044900057001657003E570067570037570016570A
:1044A00000F356006A57006A57004A570016570033
:1044B0005157001657005857001657000801255F3E
:1044C00000E15E0001E45E0001E75E0001EA5E00DB
:1044D00001ED5E0001F05E0001F35E0001F65E009A
:1044E00001E15E0008E15E0001E45E0001E75E00BC
:1044F00001EA5E0001ED5E0001F05E0001F35E0086
:1045000001F65E0001E05E0001E35E0001E65E0090
:1045100001E95E0001EC5E0001EF5E0001F25E0069
:1045200001F55E0001E05E0001E35E0001E65E0071
:1045300001E95E0001EC5E0001EF5E0001F25E0049
:1045400001F55E0001E15E0001E45E0010FB5E002B
:1045500001FB5E0006055F0004195F0004055F00B3
:1045600001055F0091E95E0006E45E0001E45E0083
:1045700007F65E0001F85E00FB004001257A00624C
:104580007A0001B8790001647A0001647A0001645C
:104590007A0001BC790001C0790001647A000164ED
:1045A0007A0001C7790001CB790001CF790001D3EE
:1045B000790001647A0001D7790001DE790001E811
:1045C000790001647A0001EC790001F0790001645E
:1045D0007A0001F4790001077A0001167A0001647B
:1045E0007A00010B7A0001127A0001627A000162FE
:1045F0007A0001627A0012017A0002647A00016492
:104600007A0001647A0001647A0001647A0001642E
:104610007A0001647A0001647A0001647A0001641E
:104620007A0001647A0001647A0001647A0001640E
:104630007A0002217A0001627A0002FD7900011AF3
:104640007A00FB004001D77A00BE7A00017C7A0034
:1046500001CF7A0001CF7A0001CF7A00017F7A0082
:1046600001837A0002CF7A0001867A0001897A00FC
:10467000018C7A0001907A0001CF7A0001937A00D0
:1046800001967A0001997A0001CF7A00019D7A00A3
:1046900001A07A0002A47A0001B27A0001C87A006F
:1046A00001CF7A0001B57A0001B87A0001D07A0012
:1046B00001BB7A0001BB7A0012AC7A0002CF7A000B
:1046C00001CF7A0001CF7A0001CF7A0001CF7A00C2
:1046D00001CF7A0001CF7A0001CF7A0001CF7A00B2
:1046E00001CF7A0001CF7A0001CF7A0001CF7A00A2
:1046F00001CF7A0002D27A0001D57A0002A87A00AE
:1047000001CC7A00FB000101BB89002F89000192D6
:104710008900019F890001108900039B8900019F86
:10472000890001A1890001B3890001A9890003B3AF
:1047300089000129890001B58900FB000100398C3D
:10474000000E00158C00188C001B8C001B8C001EAA
:104750008C002A8C00248C00278C00398C00218C42
:10476000002D8C00308C00338C00368C0000010052
:10477000868C001000488C008D8C008D8C008D8CF8
:10478000004F8C006C8C005D8C00648C00868C006B
:10479000568C00738C00738C007B8C008D8C009485
:1047A0008C00978C0000240142A50058A500015FF1
:1047B000A5000171A5000348A5000154A5000487C8
:1047C000A5000191A500019EA50001A2A500024639
:1047D000A5000165A500012CA500FB000000013D1E
:1047E000FF0030FF000132FF000138FF000138FFF9
:1047F000000134FF000138FF00013BFF000A38FFD1
:10480000000138FF00022EFF000136FF000138FFD3
:1048100000FB000001B1FF007CFF00017FFF0001F1
:1048200088FF00018BFF00018EFF0001ABFF00013C
:10483000AEFF000A91FF0001A5FF0003A8FF0001E1
:1048400082FF00FB0100E51F010C002D1F01661F08
:1048500001391F01561F01C11F01661F01A11F0160
:10486000C51F01781F01A11F01C31F01D81F01002F
:104870000A008000A30D000000000B000F00F905E6
:10488000000000000C000F001E05000000000100E9
:104890004B0076169E44000002009100EB1B0000C6
:1048A00000010300D700DD2A00000002040003001D
:1048B000FC1900000000050016001D250000000284
:1048C00006000200011A0000000007003401302930
:1048D0000000000108001800052500000001090083
:1048E0000100E219000000006255000300034020AF
:1048F000550009000140FF93EF933BB72BBFF80130
:1049000006913BBFEF91FF9108957F937FB7F89495
:104910009D9AA5980AEF0E94E4240AEF0E94E424DD
:104920009D9806E40E94E42401E0959900E00F932D
:1049300000EF0E94E4240F917FBF7F9108957F9341
:104940007FB7F8949D9AA59806E00E94E4249D986C
:104950000AE00E94E424889495990894001F0F931C
:1049600004E60E94E4240F917FBF7F9108959F93F6
:104970007F9398E00E949F24079577959A959923B5
:10498000C9F7072F7F919F9108957F937FB7F89480
:10499000A5989D9A0F9306E00E94E4240F91079535
:1049A00008F49D980F9304E60E94E4240F919D98CB
:1049B0007FBF7F9108959F9398E00E94C5249A95A8
:1049C0009923D9F79F91089500000000000000008E
:1049D0000A950023C9F708955F937F937FB7F894F2
:1049E000CF93DF93C0E0D0E07F935091B2007091FD
:1049F000B2007517E1F3739521965091B2005717E5
:104A0000D9F77F918E01DF91CF917FBF7F915F9129
:104A100008950F946C370DECAEEBCEEBBDE3D1E413
:104A20000D93AC17BD07E1F7AEEBCEEBB1E4D8E4E4
:104A30000D93AC17BD07E1F70DEB0DBF01E40EBF01
:104A4000CEEBD8E40F94BE37002311F00F94B938A1
:104A50000E94E0410F9485370C942E250D94CC3C98
:104A60004A9512F0000FE1F708954A9512F0069565
:104A7000E1F708950024E8E0EA9532F0001F001CF9
:104A80000416D0F3041AF8CF001F402D00950895A6
:104A9000149F102D059F100D049F002D110D0895DA
:104AA000000F111F4A95E2F70895169507954A954C
:104AB000E2F70895159507954A95E2F708950024C1
:104AC0001124EFE0001F111F001C111C0416150615
:104AD00010F0041A150AEA95AAF7001F111FA00189
:104AE0000095109508955195419550400895FF27E0
:104AF000552312F4F160F7DF112312F4F09507D07B
:104B00000E945F25F0FD03D0F1FDEDCF08951195D2
:104B10000195104008952224349F302D259F300D9B
:104B2000169F300D079F300D249F202D310D159FAE
:104B3000200D311D069F200D311D149F102D210DBC
:104B4000321D059F100D211D321D049F002D110DDA
:104B5000221D321D0895000F111F221F331F4A9579
:104B6000D2F7089536952795179507954A95D2F768
:104B70000895002411241001E0E2EA9592F0001F4C
:104B8000111F221F331F001C111C221C331C041672
:104B900015062606370688F3041A150A260A370A68
:104BA000ECCF001F111F221F331FA001B101009580
:104BB000109520953095089557914791179011FAC7
:104BC0002790379007900CBE0895F7DF041B10E084
:104BD00003C0F2DF041B150B20E030E000C028F119
:104BE00010FC25C047910790E00FF11F0417100536
:104BF00040E024073407C8F486F412FE05C0E00F35
:104C0000F11F0791069002C006910024F101E01BFC
:104C1000F0090CB700400CBF1994E00FF11FE00F32
:104C2000F11F2790379007900CBEF101199411F4F1
:104C3000C6F7E3CF319612FC31960EF0329650E073
:104C400060E070E047914B3F48F079F34F3F29F027
:104C50004E3F11F07791679157914791041B150BC7
:104C6000260B370B29F308F3E5CFAF93BF93D80199
:104C700001900D9241505040D9F7BF91AF910895E6
:104C8000AF93BF93D8013BBF07900D924150504066
:104C9000D9F7BF91AF910895E00FF11F02900A92EA
:104CA00001501040D9F70895FA92EA92DA92CA9226
:104CB000BA92AA929A928A927A926A925A924A9254
:104CC000BA93AA939A938A930895FF84EE84DD841D
:104CD000CC84BB84AA84998488847F806E805D8024
:104CE0004C80BB81AA8199818881F0E0EC0FFD1F87
:104CF000EF0108958081080F8181181F8281281F8C
:104D00008381381F8481481F8581581F8681681FD1
:104D10008781781F08958081082B8181182B8281DB
:104D2000282B8381382B8481482B8581582B8681C1
:104D3000682B8781782B08958081081B8181180B4F
:104D40008281280B8381380B8481480B8581580B25
:104D50008681680B8781780B089510952095309592
:104D6000409550956095709501951F4F2F4F3F4F7F
:104D70004F4F5F4F6F4F7F4F08958081081781819C
:104D80001807828128078381380784814807858135
:104D9000580786816807878178070895000000001A
:104DA0000000000000000000000000000000000003
:104DB00000000000000000000000000000000000F3
:104DC00000000000000000000000000000000000E3
:104DD00000000000000000000000000000000000D3
:104DE00000000000000000000000000000000000C3
:104DF00000000000000000000000000000000000B3
:104E00000000000000000000000102010002020595
:104E100005080000FFFF3412000000000000000041
:104E20000204000501000000000100000000000075
:104E300000000000000000000005FF00000203AABF
:104E4000AAAAAAAAAAAAAAFFFF00070707077F7AA9
:104E5000785A5F0707070707787F1F03001E0000C7
:104E600003F400800000013412000303000002007C
:104E7000000000000303581B000010270000010081
:104E800001E803000004E80300001041746D656C44
:104E900020202020202020202020200000000000B2
:104EA00000000000010185006C0001000005050004
:104EB00005060205080405000208FF1400000008AA
:104EC000080303040307901A00000E000000053DCC
:104ED0000000030314100110270000010500014F1A
:104EE0005000035E190008006819000100361A001E
:104EF00004003A1A0001003C1A000400EA190001FB
:104F000000EB19000100F219000800EE1900020080
:104F100076190002007F19000100E6190001000364
:104F20001A000100EC19000100431A000100441AA4
:104F3000000100451A000100461A000100411A0054
:104F40000200471A000100481A000100E819000198
:104F500000E719000100131A000100141A000100F3
:104F6000751A0008005B1A000400501A000400546F
:104F70001A000400581A000100591A0001005A1AB8
:104F8000000100641A001100E3190001005F1A001B
:104F90000100601A000400181A000100151A00022E
:104FA000007D1A000100401A00010000000000000E
:104FB0000000000000351A000100000000000000A1
:104FC0000000000000000000000000000000AC0C29
:104FD0000010007E1A000100FD19000100FE1900FA
:104FE00001007F1A000100191A000800211A0002AE
:104FF00000491A0005004E1A0001004F1A00010076
:1050000000000000000000000000000000000000A0
:105010000000000000000000000000000000000090
:105020000000006A190001000000000000000000FC
:105030000000000000000000000000000000000070
:105040000000000000000000000000000000000060
:105050000000000000000000000000000000003B15
:105060001A00010070190001006919000100A64E24
:10507000000200AA4E000100AD4E000100AB4E0040
:105080000200B04E000100B14E000100B24E00011E
:1050900000B34E000100B44E000100B54E00010007
:1050A000B64E000200AE4E000200B84E000100B93C
:1050B0004E000100D44E000200C34E000100C44E59
:1050C000000100C54E000100D04E000400BA4E00A1
:1050D0000100BB4E000400BF4E000100C04E0001A5
:1050E00000CA4E000100CB4E000100CC4E00020071
:1050F000CE4E000100CF4E00010000000000000075
:105100000000000000000000000000000000D64E7B
:10511000000100D74E000400DB4E0001000000003B
:105120000000DC4E000200DE4E000100C14E000116
:1051300000C24E000100DF4E000100E04E00010001
:10514000E14E000100E24E0001000000000000C638
:105150004E000400A84E000200801A000000EB1B65
:10516000000000711B0000007C1C000000DF1B0021
:10517000000000000000009F1C00000060280000EC
:1051800000142900000047240000008E24000000C5
:105190006A24000000C5240000006F250000008B79
:1051A00027000000000000000000000000000525AE
:1051B0000000003029000000432C000000C82E0031
:1051C00000000000000000000000000000000000DF
:1051D000000000000000FC190000001D2500000078
:1051E0003325000000642A0000000000000000DDFC
:1051F0002A000000B42B000000D22B000000123067
:105200000000003A30000000051B000000FCAF6009
:1052100011070120000000000031BD0084BB009C8C
:10522000C90038A800000000F6A00030A600F0ABCE
:105230000000000000000010000000000003020158
:105240000203030202010101010101010101020245
:105250000101010201020202020202010202020233
:105260000202010303020203000100010000FE022A
:1052700096002BCB0036AD00DBA300D9AA000000BE
:10528000007A9800D59C002EA8002E99004FC900E6
:10529000B59000A5B70076B90047BB0037B700F658
:1052A000AD00000000F2D000ADB700C0CA00848F8E
:1052B00000D0CB00B8B8000FBA00D6C800A0B60026
:1052C0002A96004E990064A400AFA000F9A80098A7
:1052D0009800C495006CAD00000000000000BCB157
:1052E0000010B300000000FDB400027DAB0038AB3D
:1052F000000107E8C90068CA000101E8C90068CADE
:105300000001011CA7000BA600010171A1005CA215
:1053100000010171A100C7A100010791A900C4A962
:1053200000010187AA0060AA00010100000000003E
:105330000001070000000000000101000000000063
:10534000000103000000B5BA000104000000B5BA76
:105350000001050000000000000106000000000040
:1053600000010D0000000000000101E8C90000007C
:10537000000001000000000000010E00000000001D
:10538000000107000000000000010A00000000000A
:10539000000100000000000000010100000000000A
:1053A00000010100000000000000000000009695D0
:1053B000000009000000969500000C000000969582
:1053C000000000000000969500000E01000E020093
:1053D0000E04000E05000E06000E07000E08000E5B
:1053E0000900050100050200050400050500050689
:1053F000000507000508000509000401000402007B
:105400000404000406000405000407000408000466
:10541000090006010002020003020009030015034F
:1054200000200300140400140500140600100700F7
:105430001108001208001F060026090024010000C0
:10544000005A6967426565416C6C69616E636530DD
:1054500039FFFF00AF000000000000000000000066
:105460000000000000000025FA0005FB00EAEE0045
:10547000D2EF00E2F5000000000000000000000094
:105480000000EBF700400000000100E5F30010E52C
:10549000002EF0002FD50079D2000000000000009F
:1054A0009CF900682F01682F01682F01682F01CB3C
:1054B0002F01992E01FD2D017126017B2B01242B3B
:1054C00001393601592701C23501883401553401AB
:1054D000692F0101000000000003800000000000AF
:1054E000030D10014F1501CE0C010D1201D3FB006D
:1054F000F80301020302020101010101020201029B
:105500000202010203020102030202112501282501
:10551000011B2401982501132001F92001672201B4
:105520000100020003000400050006000700080057
:1055300009001433011633011833011A33011B33E8
:10554000011D3301030700035A00000700095A0038
:10555000701A01CE1901491B01D16000AF5200261B
:1055600051000A000B000C000800000000000100C0
:105570000000010000040810FFFF00A30B000289D7
:1055800055001A30A30D0000004964656E74696609
:10559000790D0A002D3E455A2D4D6F646520496EE8
:1055A000766F6B650D0A002D3E5570646174652041
:1055B000436F6D6D697373696E696E6720537461B3
:1055C00074650D0A000000000000000000000000EB
:1055D000000000000021000000010018020000008F
:1055E0000010EA3000011414310000110000000224
:1055F0001036310003106D31006164645363656ED1
:1056000065496E6428293A203078253034782C207A
:105610003078253032780D0A0076696577536365F6
:105620006E65496E6428293A203078253034782C0C
:10563000203078253032780D0A0072656D6F7665FE
:105640005363656E65496E6428293A2030782530A9
:1056500034782C203078253032780D0A0072656D50
:105660006F7665416C6C5363656E6573496E642833
:10567000293A203078253034780D0A0073746F721F
:10568000655363656E65496E6428293A2030782534
:105690003034782C2025640D0A00726563616C6CCF
:1056A0005363656E65496E6428293A203078253049
:1056B00034782C2025640D0A006765745363656E89
:1056C000654D656D62657273686970496E642829FD
:1056D0003A203078253034780D0A0000002002008E
:1056E00001002002000200211200000000F7FF0369
:1056F0000010020004001802000014963200011489
:10570000B632000214E93200031418330004144EB8
:1057100033000510683300061486330000110000C2
:105720000001110000000211000000031100000040
:10573000041100000006110000002D3E4D6F76653B
:10574000546F4C6576656C3A206C766C3D307825EC
:105750007820747254696D653D25750D0A002D3EE3
:105760004D6F76653A206D6F64653D307825782001
:10577000726174653D307825780D0A002D3E5374B2
:1057800065703A206D6F64653D30782578207374BC
:10579000657053697A653D30782578207472546954
:1057A0006D653D25750D0A002D3E53746F700D0A11
:1057B000002D3E4D6F7665546F4C6576656C57696C
:1057C00074684F6E4F66663A206C766C3D30782573
:1057D0007820747254696D653D25750D0A002D3E63
:1057E0004D6F76652077697468206F6E2F6F6666DF
:1057F0003A206D6F64653D3078257820726174655C
:105800003D307825780D0A002D3E53746570207761
:10581000697468206F6E2F6F66663A206D6F6465DD
:105820003D30782578207374657053697A653D3012
:1058300078257820747254696D653D25750D0A00D0
:105840002D3E53746F702077697468206F6E2F6FD0
:1058500066660D0A00202B20436F6C6F72206C650A
:1058600076656C207472616E736974696F6E2069FD
:10587000732066696E69736865642E204375727261
:10588000656E74206C6576656C2069732025750DD6
:105890000A000000000000000000000000000000FE
:1058A00000000000000000000020030000000A00CB
:1058B00014000000000000104635000110523500B1
:1058C00002105E350003106A3500041072350005C1
:1058D000108D35000610B035000710D135000000DE
:1058E00000082A0A01900A000000000000000000E1
:1058F00000030000024A02055702000000000000F9
:105900000000000006000001F90503080600000081
:1059100000000000000000080000011E05082D0521
:105920000000000000000000000004000001FB0671
:105930000A00070000000000000000000005000051
:105940000552030D7003000000000000000000007D
:10595000EE3900963000BC3600223500A8370074BE
:1059600032000000030006000800040005004F6E2E
:105970000D0A004F66660D0A00546F67676C650D6F
:105980000A00000010030000001E003C00000000A0
:10599000000110D936000010E336000210F5360081
:1059A00000000000000000000011040101010006D9
:1059B000D9050000005505000000000000000000AF
:1059C00000000000000000533700FFFFFFFFFFFF53
:1059D000FFFF5A6967426565416C6C69616E63657A
:1059E000303961646447726F7570496E6428293A72
:1059F000203078253034780D0A0076696577477253
:105A00006F7570496E6428293A20307825303478D3
:105A10000D0A0067657447726F75704D656D62653C
:105A20007273686970496E6428290D0A0072656D89
:105A30006F766547726F7570496E6428293A203019
:105A400078253034780D0A0072656D6F7665416C8B
:105A50006C47726F757073496E6428290D0A006176
:105A6000646447726F757049664964656E746966EF
:105A700079696E67496E6428293A20307825303478
:105A8000780D0A0000001802000014AC3700011461
:105A9000E23700021412380003143C380004106688
:105AA00038000510733800001100000001110000DB
:105AB000000211000000031100000068656C700016
:105AC000002D3E53686F772068656C7020796F7584
:105AD0002772652072656164696E67206E6F773A20
:105AE000202068656C700D0A007265736574002D66
:105AF0003E5265736574206465766963650D0A00BE
:105B0000696E766F6B65455A4D6F6465002D3E5327
:105B1000746172742066696E64696E6720616E6478
:105B20002062696E64696E672070726F636573735B
:105B30000D0A007265736574546F464E002D3E5217
:105B40006573657420746F20666163746F72792069
:105B500066726573682073657474696E67733A2042
:105B60007265736574546F464E0D0A006765744420
:105B7000657669636554797065002D3E20526571C4
:105B80007565737420666F7220646576696365203D
:105B9000747970653A206765744465766963655405
:105BA0007970650D0A00706F7765724F6666002D1B
:105BB0003E20506F77657273206F6666206465764D
:105BC0006963653A20706F7765724F66660D0A00EB
:105BD0007365745065726D69744A6F696E00640014
:105BE0002D3E2053657473205065726D6974204A90
:105BF0006F696E3A207365745065726D69744A6F8F
:105C0000696E205B6475725D0D0A00726573746164
:105C100072744E776B002D3E2052657374617274FE
:105C200073206E6574776F726B206F6E2070617277
:105C3000746963756C6172206368616E6E656C2057
:105C40005B6368616E6E656C5D0D0A006765744E1E
:105C50006574776F726B41646472657373002D3E77
:105C60002052657475726E73206E6574776F726BF7
:105C700020616464726573733A206765744E65745D
:105C8000776F726B416464726573730D0A006765A8
:105C90007441707044657669636554797065002D50
:105CA0003E205265717565737420666F722064655D
:105CB0007669636520747970653A20676574417010
:105CC00070446576696365547970650D0A002573C3
:105CD0000D0A00436F6D6D616E64733A200D0A000A
:105CE000320737075439003807600737076D390026
:105CF0006607770737076F39008407AA07370774E5
:105D00003900B407E3073707783900F1071D083772
:105D1000078839002608470855088E390057088239
:105D2000085508C339008D08C3083707DA3900D58C
:105D30000805093707E339001609000000000000D4
:105D400000000044657669636554797065203D20E4
:105D500025640D0A007365745065726D69744A6F2D
:105D6000696E5273702025640D0A00253034780D59
:105D70000A00484144657669636554797065203D41
:105D8000203078253034780D0A0000000000000033
:105D900000000A000000013339001F2041746D65C6
:105DA0006C20001F2044696D6D61626C654C6967F1
:105DB00068740000002002000100200200020020A0
:105DC0000200030020020004004202000000000064
:105DD00000000000000000000000000000000000C3
:105DE000000000000000000000000005004202006A
:105DF00000000000000000000000000000000000A3
:105E0000000000000000000000000000000000078B
:105E10000030020011003000000010103A005A63F8
:105E20006C436F6E6669726D3A207374617475733A
:105E3000203D203078253032780D0A005A636C52AC
:105E40006573706F6E73653A207374617475732037
:105E50003D203078253032780D0A00756E6B6E6FFC
:105E6000776E20636F6D6D616E640D0A00E912003C
:105E7000000000000020BF020001713D0000000092
:105E800000000030750000007D3D000000000000B3
:105E900000000000833D0000000000000000000042
:105EA00000000000004E6574776F726B207570649F
:105EB00061746520737461747573202D20307825AA
:105EC0003032780D0A0000000000000000000000E1
:105ED00000000000000000000000000000000000C2
:105EE00000000000000000010000000000000000B1
:105EF000000000000000000000000000000000AFF3
:105F0000410000000000000000000000DC4100FA39
:105F1000FFFFFFFFFFFFFF0D0A4E6F7420656E6FDE
:105F200075676820636F6D6D616E6420627566666B
:105F30006572730D0A00776C506473446174615329
:105F4000657276657200000000000000000000002D
:105F5000394300BB420000776C506473547970651C
:105F600073436F6E76657274657200535F4E760090
:105F7000526573697A696E67204E56206974656D43
:105F8000202869643D256875292066726F6D20257B
:105F9000687520746F20256875000600FF0F0000EB
:105FA00000000000000000000000000000000000F1
:105FB00000000000FF0000000000000000000000E2
:105FC00000000000000000000000000000000000D1
:105FD00000000000445F4E7600000000000000005A
:105FE000010000000000000000000000000000E8C8
:105FF00003000001C64E00497100772F019F8C00FD
:106000007BCB0064140116F6002F1C01BF1B016C32
:106010006800000000215A000000006240003E4479
:10602000000000000000FFFF000000000000000072
:1060300000000F6700CCCCCCCCCCCCCCCCCCCCCC26
:10604000CCCCCCCCCC0B0000FFFF00000000FFFF4D
:10605000FFFFFFFFFFFFFFFF000000000000000048
:106060000000678D0001FFD787380C040000000096
:106070000000000000000000000A96000000000080
:1060800000000000000093B80000000000000000C5
:1060900000000034A8000000000000000200000022
:1060A0000000000000000059F500FFFFFDFFFCFFAD
:1060B000FBFF00000000000000000000160A0100C5
:1060C0000000000000000000003A0A01000000008B
:1060D0000000000000006C0A012000FDFFFFFFFF30
:1060E000FFFFFFFCFFFFFFFFFFFFFFFBFFFFFFFFC7
:1060F000FFFFFF000000000000921C0100000000F4
:106100000000000000006F28010000FFFF00FF00FA
:10611000000000010000000100000000000000007D
:10612000000000000000686C747A4C0010E04FD052
:10613000128B138B23E030E001E10E94685C202F7A
:10614000212B39F049EE51E360E0F801408B518B8F
:10615000628B08EE13E020E03AD006831783208795
:10616000218722870EED11E320E00387148725871E
:1061700008950CE312E00D942B2F9A938A93C80193
:10618000980105E512E00E94B94E002329F49C0114
:1061900005E512E00E945C4E899199910895089559
:1061A00008955ED011F001E0089500E008950FD049
:1061B000028B138B04D00CE312E00D94062F8F0199
:1061C000DACF05D010FB008D00F9008F0895ECE3C5
:1061D000F2E0089580D02B972801DA01E0E0F2E0A8
:1061E0008E014BE0C0D08CE392E00D911C91119791
:1061F000FC01028B138B8C01BEDF0D911C9111975A
:10620000012B19F08C010F94062FFC01818D928DCA
:1062100005C0FC014281538164814CD0082F092BB9
:10622000C1F700E02B9643C056D0C8012A0118D010
:1062300019F08C019DD013C0A18DB28D0CC0FD0151
:1062400045815681678142D019F092018C013BD083
:106250000D91BC91A02F0A2F0B2B89F700E027C0CE
:10626000ECE3F2E002891389012B089534D063979F
:106270002801DA01EBE0F2E08E0143E171D000FF8A
:106280000AC000E00E94B7420C9100FF04C00170F8
:106290000E94BD400AC05FD005C0FC014385548503
:1062A000658508D0082F092BC1F700E06396E6E06A
:1062B0000C946F260BD019F09D01820104D0FC01D3
:1062C000808191810895FA016CBF199400E04030FB
:1062D0005007600708950C945E26FDDF6E97280135
:1062E000DA01EEE1F2E08E014EE13AD0013039F40C
:1062F0002AD01ED0009154021E7F017019D00C913B
:10630000023049F420D03181317021E018D01E7F55
:106310003181317014D01FD005C0FC0146855785EE
:106320006089C8DF082F092BC1F700E06E96BFCF48
:1063300021812170022B102B1093540208953227D3
:1063400003230170F8CF20915402122F1E7F217079
:10635000022FFD010895ECE3F2E0818D928D089506
:1063600002D00C91089550E00E9435260C94063D11
:106370000E946026C8010E940742D801012B11F437
:1063800009E819C032E020E00A2F0E94E5411FDF32
:1063900022893389FD0107A1F0A5E02F20833183F5
:1063A00041E09C018D01025F1F4F0E941B428D0145
:1063B0000E94633A00E0E4E00C94712608DF028951
:1063C000138901501040028B138B012B09F4F7DE67
:1063D0000895413051F4232B41F40CE312E0CBDE5D
:1063E0003FDF19F08F010F94062F089540E850E029
:1063F00020E030E003EA1DE00D94223800E06ED08A
:1064000019F401E0008304C003950031C0F302C019
:106410008F01089500E010E0089548E050E020E08A
:1064200030E0EACF30E048E0349F53D042815381DE
:106430004017510721F44181421709F4E9CF339500
:10644000303188F3E7CF0E946026D80190E080E0E9
:1064500008E0809F03EA1DE0000D111DF801228174
:1064600033812A173B0711F4D8DF93958395803148
:1064700078F3092FE4E00C947126402F412B61F44E
:1064800000E02CD029F04281538142175307E1F0FC
:1064900003950031E8F4F5CF5DE0033A1507C0F04D
:1064A0004BE15EE04017510798F040E058E0459F0F
:1064B00010D00E171F0748F45081552331F0628128
:1064C00073816217730709F4A3CF4395403170F3CA
:1064D000A1CFE3EAFDE0E00DF11D089518E0019F72
:1064E000F8DF1081112308954ED200E00483018764
:1064F00010E00687078701E0008F158F0C94F631B6
:1065000000E000936A0308959A938A93C8010ED21B
:1065100049F08C010E94233236D21481101B14835F
:1065200000E001C005E889919991089577D0A0977E
:106530002801A22FCA01E0E7F2E08E0140E23FD03D
:1065400011D02A2F8C01CFD16BD039F456D011F451
:1065500009E804C034E020E055D000E0A096E7E070
:106560000C946E260C5F10D124960895F9D023D098
:106570009E012E5F3F4FE0E9F2E0890141E21FD02A
:106580000A5FF1DF51D091F438D011F409E80FC05F
:106590009E018C01CDD1BC01402F28813981FD01A4
:1065A00007A110A5FAD0302F21E0DCD000E0A3969F
:1065B000E6E00C946F26A3972801CA010895A3D0A2
:1065C000FC0102814A930A9331D21A930A938E01F5
:1065D000089524D0F0DFE1EBF2E08E0143E273D0C6
:1065E000B9D11ED039F409D011F409E804C034E05F
:1065F00022E008D000E0A396B2CF0E940742D80163
:10660000012B08950A2F48D0562DFC01428120818C
:106610003181FD0107A110A5BAD0A6C00C945D265A
:10662000602E002309F40AD2F201048900230895A0
:106630000E945C266F973801DA01E4EDF2E061D048
:106640005CD09DD05AD060DF402E002309F4F6D1F3
:10665000F30104890023D9F40E940742C801012BE9
:1066600011F409E815C033E023E0082F15D02D916F
:106670003C91FC0107A1F0A5E02F408221833283E9
:1066800041E093018C0177D08C010E94633A00E0D5
:106690006F96E8E00C946D260C94E541BFDF6E9791
:1066A0008BDFE3EFF2E08E014EE10DD06FD1B8DF6A
:1066B00039F4A3DF11F409E804C034E024E0A2DFD8
:1066C00000E06E964CCF7BDF0C5F4DDF8C010895B0
:1066D000BA93AA936F97DA01E1E1F3E012D0FD01DA
:1066E00002814A930A9309D070DF3CDF8D0182D189
:1066F00000E06F96A991B99108950D911C911197A1
:1067000008958E014FE150E00C94352629D0A297D0
:1067100053DFE0E3F3E08E0142E2F5DF86D12FD0D4
:1067200083DF61F082D102D1C1F0FC01208131818F
:1067300000E010E00E943D32012B79F05EDF11F4A1
:1067400009E80CC0FC0120813181EA2FF12F07A15B
:1067500010A559D0302F26E005D000E0A29628CF12
:106760000C945E268D0198DF41E092018D0103D0EB
:106770008D010C94633A025F1F4F0C941B4225DF7E
:106780000E5F02D0229608951F4F0C94063DF8012B
:10679000508321833283438308951D01F801408390
:1067A000FB0100801180F80101821282FB015281FD
:1067B000F8015383442311F004E023C0F90144811C
:1067C0005581F8014483558340E04683D8011796EC
:1067D00046E050E04D935C93119741E0FD01428308
:1067E000F9014681FD014383055F1F4F48E0F80131
:1067F0004083518341E04283F9012781F8012383DB
:106800000FE0D1010895A3D000E110915603011BC0
:10681000FD01018322833383890188D0D1F000E018
:1068200010E00CC0FD012481322F33953483F80130
:10683000418130E0FD01E20FF31F45839C010E947E
:106840003D326FD079F700E00C93FD0104810B5FBE
:1068500003C005E80C9304E05DC063D019F021E1AA
:106860000C94CB9D01E0089558D0F90115962C9118
:10687000139730E02A5F3F4F90E0421B842F930B29
:10688000020F131F2C91129721832D913C91129688
:10689000228333832D913C91248335830EC0D8010C
:1068A00013964C914683D80112962C91020F161F15
:1068B0000D5F1F4F821B90400397282F292B89F0D3
:1068C000D8014D915C91463060E0560741F3483065
:1068D000504029F4D80113964C914783E4CF05E842
:1068E00001C000E017C019D0822F1FD091F07DD0D9
:1068F00018D011F40E94FE3114D049F044D0248104
:1069000023952483482F98018D01AEDF03C009E849
:1069100001C005E8E4E00C9471260E946026D801CD
:106920000895202F212B0895D801E7DE96DF7ECE33
:106930000ED0FBDF51F021D0FC0100831183012B2D
:1069400011F40BE803C000E001C005E8E3CFE5DF88
:10695000C9010895BA93AA93E7DF69F00ED0E1DF89
:1069600011F40BE809C00E940D320DD004810A9584
:10697000048300E001C005E8BDCE12962C91129769
:106980000D911C9135C0E2E5F3E00895E9DECCDF1E
:1069900051F12BD02801012B19F40E94FE3128015E
:1069A000042D0529F1F0EFDF0481039504830E9493
:1069B000D636F20106830E943835F201078300E0E3
:1069C000048305839ADE02831383FD010281F201B1
:1069D000018300935B0302811381D5DF2AD000E09D
:1069E00003C009E801C005E8E3CDFD01228185DE91
:1069F0000C941232BA93AA93F801228117D0F8DFCF
:106A0000D801012B89F0EA2FF12F06810E94C036B0
:106A1000FD0107810E943B35B6DF11960D9101877C
:106A20000D911C9106D00AD065CEFC010081118128
:106A300008950687178701E0008F08950AE010E0A7
:106A40000C94AC42E9E0F5E000E0018F028704E637
:106A500010E0068317831087118709E716E320E00B
:106A6000038714872587089509E015E00D942B2FDF
:106A70000091220508958A93802F09E015E0F6DF42
:106A80008093220575D16BD1899108953FD0A49749
:106A9000DA01E1EBF3E08E0144E23BD010E030D0CC
:106AA000A4962BC033D06E97DA01E5EDF3E08E01AA
:106AB0004EE144D020E03DD06E961FC027D0AC9769
:106AC000DA01E3EFF3E08E014CE25ED040E054D017
:106AD000AC9613C02997EFE1F4E08E0149E069D04C
:106AE0002996089513D0AD97DA01E8E2F4E08E011B
:106AF0004DE20FD011E004D0AD96A991B99108955F
:106B0000FD012181328100815ED03CC0BA93AA93FD
:106B1000089517D012811A9318C0F8DFAA97DA01E6
:106B2000E5E5F4E08E014AE209D021E002D0AA9620
:106B3000E4CFFD011181008170D024C002D04A93BE
:106B400004C03ED0FD010181089504D00C5F04D142
:106B5000249608950A930C914A930A938E010895FE
:106B6000D5DFE897DA01EFE7F4E08E0148E30CD0D7
:106B700041E002D0E896C1CFFD012281338111812D
:106B8000008185D000E008951BD0FD0102811381B2
:106B90001A930A9301814A93DDDF0A5FDDD02696BE
:106BA00008956597E7EBF4E08E0145E102D0659624
:106BB000089506D00E94063D09E015E057DFE2CFB8
:106BC00050E00C9435260E945E26402EC901512EBD
:106BD00085D00FEF401619F40EEF402E04C044206C
:106BE00011F4442443948F3F0FEF900719F4042DC0
:106BF00074D00BC0FD0186879787408A5524018D8C
:106C0000401A5508418A528A03D0E6E00C946F2658
:106C1000838B948B8D010D94062F0E945E26502E3F
:106C2000412E822FA9E0B5E08D0120DF882309F0F5
:106C30005DD080912205552059F40EEF502E10E0C2
:106C4000081B10404AE050E00E944825442D0CC02B
:106C500055245394482F50E0415050400AE010E032
:106C60000E944825442D50E00E9477255092190536
:106C7000FD0106871787008910E0081B1040018B73
:106C8000128B06851785038B148BC4DFBECF0E9441
:106C90005D26602E412EC901542E20D06620FD01B4
:106CA000008931F4040D008B0E3F30F00EEF04C06C
:106CB0000419008B09F401E0008B8F3F1FEF91074F
:106CC00011F40BD007C010E0218D021B1040018B86
:106CD000128B9EDFE7E00C946E2645C0A9E0B5E07C
:106CE0008D01C4DE552009F001D0089501E00C9417
:106CF000C0368A93ED97E9E0F5E0038914890150E5
:106D00001040038B148BA801012B99F0808960E05F
:106D100070E001891289212F220F220B322F0E944D
:106D20008B25468557850E94B925801B082FD5DF06
:106D300011C08F019BDE00911905CFDFECECF4E070
:106D40008E014DE33DDF0091190506DF0E5F04D093
:106D5000229605D0ED9698CE1F4F0C94063D0CE080
:106D600010E00C94AC420093220502D00C948032C7
:106D70000EE115E00C941B5C00E00093FD05089506
:106D80009A938A93802F9091FD050093FD0509EF5A
:106D900015E00E941B5C981731F00E9480320BE0D6
:106DA00010E00E94AC428991999108950091FD05EF
:106DB00008952597E5EEF5E08E0145E011D001E05C
:106DC0000CD0259608952697EAEEF5E08E0146E070
:106DD00007D000E002D026960895D2DF00E00895A3
:106DE00050E00E9435260C94063D2997E0EFF5E02F
:106DF0008E0149E0F5DF0091FD0511E00127EDDF8F
:106E00002996089507E116E00E945E5F0E94CC3C3F
:106E10000E94113900E316E00E94BD300E94EE3955
:106E20000E9496300E94BC360E9422350E94A837EC
:106E30000E9474320AE012D011F00AE00CD00BE08C
:106E40000DD011F00BE007D00CE008D011F00CE0F1
:106E500002D00C94845F10E00C94794210E00E9400
:106E60002643002308952B970E94275101E00883B1
:106E700001E416E00A831B838E010E9456512B9673
:106E8000089500915B0B002319F401E000935B0B64
:106E9000089500E010E008950E94B9300C94343554
:106EA00000E00895089501D0D4CF0091240E00236E
:106EB00029F00A95B9F00A9541F108950091230E41
:106EC00000FF10C004E917E320E02A931A930A9305
:106ED00068E770E040E050E026E021D001E019D002
:106EE0000E7F11C00091230E01FF0FC000E00A9336
:106EF0000A930A9368E270E040E050E028E00FD087
:106F000002E007D00D7F0083089500E00093240E77
:106F100008950093240EE3E2FEE00081089530E03E
:106F200014E101E10C942A42C0CF2091230EF80114
:106F300001851285083030E0130711F4226004C087
:106F40000630104009F421602093230E089508951F
:106F500000E00093FF060895B0D068972801DA0199
:106F6000E9E5F6E08E0148E1AAD0DBD039F4D5D0CE
:106F7000002311F0662404C009E801C00AE8602E6D
:106F80004DD039F474D011F409E804C033E020E0A6
:106F900005D000E06896E7E00C946E263CD02D9179
:106FA0003C91FC0107A1F0A5E02F60822183328390
:106FB00041E092018C01025F1F4F0E941B428C0135
:106FC0000C94633A0E945C2669972801DA01E1E794
:106FD000F6E08E0149E1A8D021D0C1F448D011F4E7
:106FE00009E815C035E021E016D00D911C91D801BB
:106FF000FC0167A070A421E194D011F000E001C071
:107000000BE8F3010083A183B283D2DF00E069962D
:10701000E8E00C946D26082F0C94E541F2010489F8
:10702000002308950E945E266A97D8012A01EAE8A3
:10703000F6E08E014AE154D0FD010489002391F469
:1070400016D011F409E80FC09201E82FF12F07A123
:1070500010A57AD0302F22E08C010E94E54141E05A
:107060009D01A8DF00E06A96E6E00C946F260E947E
:107070000742C801012B089520D06B972801DA013F
:10708000E4EAF6E08E014BE11AD00E94779D0023DE
:1070900031F08C010E942332BED0662402C00BE87E
:1070A000602EBCDF39F4E3DF11F409E804C033E0FB
:1070B00023E074DF00E06B966ECF0C945D2634D035
:1070C0008D919C91119721E18C0108956797EFEBC9
:1070D000F6E08E0147E104D086D000E0679608957F
:1070E00030D00C94063D0E946026A597DA01E6EDAB
:1070F000F6E08E0145E218D0FD01808191810E9469
:10710000D130002329F021E18C010BD009F405D006
:1071100000E0A596E4E00C94712621E18C010C942A
:107120005F9D0E94CB9D7CCF0CD00D911C9111973F
:107130001A930A938E010E5F1F4F0E94063D2296FE
:10714000089550E00C943526B8DFD801C9010E949B
:10715000F19D0C9300E0FD010183FC0100810023FF
:1071600031F1662413C000E0002379F0FD010181B4
:10717000102F13951183F2012181328112E0019FBA
:10718000FD01E00DF11D228333836394FC01008136
:10719000601620F502E0609E2C01400C511C21E19C
:1071A000F20101811281BDDFF1F201E0DDCF00E0EB
:1071B00010E00FC0FD012181322F33953183F8019A
:1071C0004181528132E0239FFD01E00DF11D428398
:1071D00053830E94039E202F212B61F7FD01018123
:1071E000000F0E5FD8CEBA93AA93A0E0B0E006C01D
:1071F00011960D911C9112970E9423328D010E94CD
:10720000039ED801012BA1F701E10E94A69D03D0A6
:10721000A991B99108950AE010E00C94AC420C9445
:10722000063D07E519E00C94A73B0E946126033355
:10723000104010F022E301C0202F0DE61FE00E9455
:10724000FB3CA02F80E00AC0982F990F990BFC01FE
:10725000E359F04F00810E94AC3B83958A17A4F359
:10726000E3E00C947226BA93AA93A1E0BAE0ED9100
:10727000FC9129D01A930A9305E419E0D0DF2296F5
:1072800020D0075F1F4F26D0E091010AF12F1BD0BD
:10729000012B11F01BD005C000E0E1E0FAE0008313
:1072A0000183A991B99108950CD0012B49F40AE406
:1072B00019E0B5DF07E519E0E1E0FAE00BD006D010
:1072C0000895E1E0FAE000811181089503E01AE0F9
:1072D0000D94062F0083118308950D94463302E523
:1072E00017E320E00C941F3D00E00E94B742F5CF69
:1072F0006297EAEBF9E08E0142E142D003E002D06E
:10730000649608954A930A938E010E5F1F4F87CFAC
:10731000EDE9FCE00081067C008308959A938A934E
:10732000C80102EB19E320E0EEE0FFE0D3DF2283A7
:1073300006E310E0EBE6FEE0CDDF02E002830E9410
:10734000C58EEEE6FEE0C6DFFC0100810093B30EC1
:1073500001E00093B40E05E21EE00F94241589911C
:1073600099910895BA93AA936697D801ECECF9E045
:107370008E0146E105D01C960C91C4DF689691CF32
:1073800050E00C9435262497F801408101E010E08C
:1073900020E030E00E94AF25088319832A833B83D5
:1073A0009E0104E010E00E94DC6900E00E94BD4004
:1073B000249608950E94C58E1A930A9302EE19E04E
:1073C0002EDF229608956897E9EEF9E08E0148E1F4
:1073D000D7DF01E00A9397DF6A96089501E00093F2
:1073E0002E0A04E000938A0A00E000938F0A02E06C
:1073F0000093330A03E00093380A04E000933D0A47
:1074000048E050E021E13AE002E41AE00F94E73767
:107410004EE050E02AE13AE006E61AE00D94E73744
:107420008A9380E0482F50E003E010E00E94482556
:10743000F801E953FA4F40815181628100E0403008
:107440005007600719F0FA016CBF199583958630D3
:1074500048F303E010E40E94AC4200E089910895F3
:107460000E94602640E02AD08FE99FE0800F911FA4
:10747000DC019796FD01038D0023C1F401E0038F29
:107480004DE220E030E08C010F94223845E150E0DD
:1074900020E030E08C01035D1F4F0F9422388C01F7
:1074A000035D1F4F0D931C938C0105C043954C3019
:1074B000D0F200E010E0E4E00C94712650E006E425
:1074C00010E00C94482505D00C94795F02D00C9400
:1074D0006C5FF801438554856585ED5BFF4F408304
:1074E000518362834AE75AE360E0F8014387548797
:1074F000658708950E945E26A597D801C801049764
:107500002C01F8010181002361F40C910023E9F1C1
:107510009E012A5F3F4FE5E9FAE089014EE14CD038
:107520004ED0FD010181013081F59C01BE016A5FF1
:107530007F4FE3EBFAE08B014FE13ED0285F3F4FF6
:10754000F901048D023011F00330F1F400810130B3
:10755000D9F004E0088300810983FD0105811681CB
:107560000A831B834C834D830981002371F08E01B4
:107570000E944653EC81FD81008110E01A9321D0D6
:1075800000E00C830D83F0CF1AD002E4400E00E03F
:10759000501EF201418152816381403050076007E3
:1075A00021F08D01FA016CBF199500E0F201008312
:1075B000A596E6E00C946F2650E00C9435260C91CD
:1075C0004A930A938E01085F1F4F0E94063D229640
:1075D00008950E945C262801390141E050E060E0F6
:1075E00070E0ACD0B0D009F101C03196ADD0E9F770
:1075F000319714C025D0212F220F220B322F0E9449
:107600008B25800F911FA21FB31F31970AE010E056
:1076100020E030E00E948B25A801B901E415F505B2
:1076200030F00ED00A30104028F300E006C0F3011D
:1076300080839183A283B38301E0E8E00C946D26FC
:10764000008110E0005310400895BA93AA93249744
:10765000D901F80120812D3299F49E010F5F1F4F4F
:10766000B8DF0023D9F01FD01095209530950195F3
:107670001F4F2F4F3F4F0D931D932D933C930CC0E5
:10768000222361F09E01A5DF002341F00CD0FD0113
:10769000008311832283338301E001C000E024963C
:1076A000A991B9910895088119812A813B81089592
:1076B00095D0B801290142D000241124222433247A
:1076C00042D089F101C031963FD0E9F7319711C01E
:1076D0002755022F10E020E030E0482F0E94AF2510
:1076E000000E111E221E331E31978C5F9F4FAF4F2D
:1076F000BF4FE617F707C8F0803200E09007A007F9
:10770000B00798F42081022F0156063008F3022FAB
:107710000154063010F42753DCCF022F00530A30F7
:1077200010F42053D6CF00E006C0F201008211828F
:107730002282338201E0E6E00C946F2680E090E044
:10774000A0E0B0E00895F801008100230895E7EE7D
:10775000F2E100831183089541D0802FA4EEBAE0B6
:107760004D905C9011970A3031F110E00F94A237E0
:10777000012B91F009EE12E1401A510A05E540167D
:1077800000E050062CF5ADD080830D911C910F5F69
:107790001F4F1C930E931CC0883051F41AD0C0F4B4
:1077A00000E0FD01A081B1810E93A083B18310C0E0
:1077B0008B3171F409C00DD038F400E0ED91F52D56
:1077C0001197008309EE0CD009EE12E10D931C9382
:1077D000B2CF09EE12E10415150508950C945E264A
:1077E000BA93AA93AA979E0180D00023A1F1288181
:1077F00039818E010E5F1F4F2017310761F1E7EECF
:10780000F2E1A081B18101C019960D911C911197EF
:10781000012BE9F02D91312F11970A811B810F94D3
:107820001939012B89F79E018D0117D0002321F40E
:1078300017960D911C910DC08E010A5F1F4F149673
:107840004D915D916C91FA016CBF199504C002EDE8
:107850001AE00E940F39AA9623CFC0DF2901F80150
:1078600082819381D901169609C09D010D911F2F28
:107870001197EBDE002389F101961496FC0164DF79
:10788000F2010081118131F1A017B10730F5FC013F
:107890000081035629F00A9551F0055041F0ECCFD4
:1078A00020D001810023C9F400810C93E5CF19D0C9
:1078B00000810033D1F60181083711F00835A9F6AF
:1078C0009D010D9111970E5FFF4F1F2FF1DE0023D9
:1078D00099F603C0A017B10711F000E001C001E064
:1078E0002ACFED91FC91119708950D01D80100E088
:1078F000A9014E5F5F4FF9014083518305C00C9190
:107900000032F9F500E01196FD0110811123B9F163
:10791000102F002339F01A9519F11A9549F11A958B
:1079200071F3F1CF1C91103271F3F9014081518153
:107930008901065D1F4F4017510718F50C9102325F
:1079400049F402E023D0BD016F5F7F4FFA016083ED
:107950007183D9CF01E01AD0FA01A083B183D3CFCC
:107960001C91123271F0103271F600E00C93CBCF03
:107970001C91123241F603E010E01C93C4CF023098
:1079800011F400E001C001E0D0010895BA016C5F7C
:107990007F4F608371830895EDE9F4E108EC03877C
:1079A00000E0048709E110E00587168706E00787F5
:1079B000108B118B0BE614E1048B158B02E310E0A6
:1079C000068B178B0FE313E1008F118F0CE211E090
:1079D000028F138F04E01DE320E0048F158F268FA4
:1079E00000E0078F00A301A302A38F010D949E3036
:1079F00005D00D94843102D00D940432422F50E012
:107A000098010DE914E108950C941539EF97EF975B
:107A1000E697BE016C547F4FA80124EB30E08E0145
:107A20000F943A39202F8E01E3DFEF96EF96E6961A
:107A300008950093020B03E01BE00C94BD300E94FC
:107A40006026D801922F0F941614002389F4009118
:107A50006A16002369F44FEA51E020E030E0E1D1FA
:107A60000F94223801E0A5D0A083B183928304D083
:107A7000E4E00C9471263BC00DE41DE320E0D4D17A
:107A800006E3C8D10DEF1FEFE9E0F5E1A8D104EB63
:107A900000934E15C6D10D94241521970091020B29
:107AA000002339F0DFD110D00881002339F408D049
:107AB00005C006D000E078D009F073D02196089573
:107AC00004EB10E00C94D73006EE1AE00ED03DD057
:107AD0000F94062F04EF1AE00F94062F0FD00C948A
:107AE000CF3004EF1AE001D002C00D942B2F00E03C
:107AF00000936A1600936B160895F0CF1FEF2FEFD7
:107B00003FEF02E00895D2D1D80110916A1620917A
:107B10006B1601E020271223B9F017D0E6DF01E051
:107B200000936B160E94493742E050E0980100E153
:107B300016E10F94E73711960D911C91A0E1B6E183
:107B4000ED91FC914CD108D0DDC004EF1AE00F9408
:107B50002B2F06EE1AE008956ED00130D9F411E013
:107B600001E00E94E13053E041E01FEF66D022E0E7
:107B7000029FF001E25FF94EA081B1812D913C910D
:107B800002E00E94D03000E000936B160DD041F06F
:107B900008D006C000E000936716009313160ED0BD
:107BA000B1C0FA016CBF199404D040815181628147
:107BB00094C100936A16ECE6F6E108953CD07AD2BF
:107BC00000E00093121600E21EE320E084D006E0FD
:107BD00010E0A6E0B5E18FD084D001851285A0E544
:107BE000B5E189D005850093521500E009C05BD14D
:107BF000A281B3811AD0AD5ABA4E2D933C9303950E
:107C000015850117A0F304850093751500E009C0E0
:107C10004AD1A481B58109D0AA58BA4E2D933C937C
:107C2000039514850117A0F369C0A00DB11D2D9116
:107C30003C91D0010895BA93AA9300911416089527
:107C40009801235F3F4FF80104850D3009F411C1FD
:107C5000002309F026C000911216002349F401E028
:107C60000093121644E150E005E116E10F94E73766
:107C70000895E4E1F6E100810395008308954EE361
:107C800050E020E030E009E216E10F94223849D1BB
:107C9000442321F054D1002309F005C000E00093F3
:107CA0001216E7DF59CF02D1E1E0F6E141898ED12A
:107CB000E00FF11F05E81EE320E00DD004E0A6E090
:107CC000B5E10D935C930DD00281E00FF51F0281A9
:107CD0000093501513C0A9EAB5E10D931D932C93A1
:107CE000089502E000930815B5D1A9E0B5E103D0ED
:107CF000B1D1AEE4B5E10D931C93089500EC14E10D
:107D00000F942415A991B99108950E945E26219798
:107D1000280153D1C2010D96A5D0F201048500239C
:107D200009F04DC020E017C0028113814DD042857B
:107D300053854017510749F44091291652E0459F59
:107D4000AED04DD0E9E2F6E196DF3395FD01058531
:107D5000301750F32395FC010185201710F430E013
:107D6000F5CF20E017C0048115812ED045A556A57A
:107D70004017510749F44091481652E0459F8AD078
:107D80002ED0E8E4F6E177DF3395FD010485301766
:107D900050F32395FC0104A5201710F430E0F5CF33
:107DA0005CD1E4E1FBE00E94BD2611F41BD008C0C9
:107DB0000881023011F45ED003C053D001C055D009
:107DC0002196E6E00C946F2642E0349F000D111DD1
:107DD000F80140D1249FFC01E00DF11D08950083BE
:107DE00011830895F2D0F801EF5FF94E408151817F
:107DF000EEE4F5E14083518300E00283038309E16F
:107E00001FE320E011D001E005D0E9E0F5E1408377
:107E1000518340CE10E0E6E0F5E1E1DF02E00283CD
:107E2000089500EC14E10895E9EAF5E1D8DF228332
:107E300008953CD02197D8011C960C911C970023E3
:107E400069F410D01D9608E016E1FD0110D10881FB
:107E5000023011F40FD003C004D001C006D0219627
:107E600051CF3FC09E0101E211C15BD068D00A959D
:107E7000008305CF1BD002C011D01BD05BD0E1F72F
:107E800064D002C006D015D04FD0E1F75ED0EDDF50
:107E900039CF09D0F001E75BF94E089504D0F00125
:107EA000E65DF94E089512E0019F0895BA93AA93F2
:107EB0000895D0D033D093DF4CD0002339F0BDDE0D
:107EC000F9D007D019F02AD0C5D06BDEE3E1F6E196
:107ED000D2CE46815781608500E040305007600770
:107EE000089500916716002331F424D079F401E05D
:107EF000009367162AD018D059F413D020D00A95D1
:107F000000835093671650931316B3CFC7DF01C099
:107F1000C0DFA0D003D063DF5ED0D8CFE8E6F6E1C3
:107F20000895409112160895009113161091481665
:107F3000101708950091131610912916F9CF46D005
:107F4000F801ED5FF94E0081089500E000931316EB
:107F50000895ACDF6E9731D09E0197D021E036E1D5
:107F600034D0200F311F8E01085F1F4FFE0122D039
:107F7000FD010385088B6DD0098B1A8B03E00B8BF9
:107F8000E8E0F6E18E010C5E1F4F14D0F90102818A
:107F9000200F341FF90102810C8F8E01085F1F4FE3
:107FA0000E9494D20D8D002311F000E001C001E089
:107FB0006E96A8CE48E00C9435263FDE74DFF001C3
:107FC000E05FF94EA081B1810895ABDF50E004E19C
:107FD00010E00C9448250E9460262997EEDF81E08E
:107FE00096E1F3DF800F911F9E012F5F3F4F4DD031
:107FF00039DFAFDF00936F1609E410E420E014DFEF
:1080000001E210E0E6E0F5E135D027D0EBE0F5E164
:1080100034D0EEE4F5E131D0FC01028110E0800FB4
:10802000911FFC0102810093561513D0E7E5F5E19D
:1080300021D09E012F5F3F4F0AE515E1F90117D0CE
:10804000FD01038500936215ECDE0F94241529963B
:108050000FCD64DF008111810895E8E0F6E1FADFD9
:10806000228133814481558166817781089548E07A
:1080700050E0A1CFB4DE03E0D2CEB1DE2283338361
:108080004483558366837783089500E010E00C9461
:10809000BD690CDF20916F16222351F0F801058590
:1080A000002331F4CADD06D014DF11F0D2DF79DD10
:1080B000D8DE28CE12E0019FD001A05FB94EED912D
:1080C000FC910895EDE3FBE0078D002329F00250B9
:1080D00021F0025099F0089560C000A1102F13956F
:1080E00010A3033049F001E411E420E0078B108F66
:1080F000218F8F010F94041203E0C0C00C9441370C
:10810000BA93AA93A197D801ECE1FBE08E0141E27A
:1081100050E00E9435260C914A930A938E010E5F1F
:108120001F4F0E94063D2296FD010081013991F406
:1081300000915F0B002349F408D100E000935D0B30
:108140000E943B3D11D10AD005C000E00E94B74219
:108150000F944633A196A991B991089502E0009336
:108160005C0B2FB7F894EBE9FCE000811181106102
:10817000118300832FBF0895089510915C0B153073
:1081800059F015E010935C0B00935E0B0E944C3786
:1081900001E61BE00F94AE0F08958A932A9769D0E9
:1081A000D7D00A811B812C813D814E815F816885FA
:1081B0007985E4E1FBE00E94BD2629F0E6E8FBE0DA
:1081C0000E94BD2638F08E010E5F1F4F0E940F697E
:1081D00050D0C2D000E00983B4D008E1BDD027E57B
:1081E0003BE004E0B5D001E049D008839E0101E204
:1081F000B3D00FEF0A830B830C830D830E830F83A1
:10820000088709879E012E5F3F4F04E3A5D0A6DFB4
:1082100029E73BE005E30E949B4D0E9450370E94F6
:10822000193D01E010E40E940A4301E010E40E94BD
:108230002643002369F001E010E40E947942002304
:1082400039F010E000E094D001E00093600B0CC026
:1082500006E010E00E942643002321F006E010E033
:108260000E9479420E9433370E9402372A968991F0
:1082700008959E012E5F3F4F00E0089500935C0B30
:108280000895BA93AA9329974FB7F894EBE9FCE0C5
:10829000208131813061318320834FBFADE3BBE06A
:1082A000F8010785002339F54CD007E051D049D0BB
:1082B00009E152D05A969D014ED000915B0B0130DE
:1082C00019F000E000935B0B04E0D8DF10E001E060
:1082D0000E94E1301091600B20915E0B01E020279D
:1082E000122B69F502E517E320E00E941F3D00E034
:1082F00000935E0B24C002E0C1DF0091600B0023FD
:10830000F1F09E0101E124D0488101E010E020E07D
:1083100030E00E94AF25FD01428D538D648D758D37
:10832000401751076207730719F45A969D0105C05B
:1083300009831A832B833C8304D00DD006D0299661
:108340000ACF9E012F5F3F4F089511E001E010C05A
:1083500010E00C94BD6904E010E00C94DC6904D0DA
:1083600000E000935D0BFBCE10E000E00C94E130E8
:108370009A938A932697902F812F9E0101E2E8DF3E
:108380000881023041F401E00C839B830A8303E0FF
:1083900009838D830AC0013059F400E00C830B83FC
:1083A00001E00A83098300E00D83CBDF06E3D4DF1D
:1083B000269689919991089501E000935F0B0895A5
:1083C0000E941F500E943050FDCFF80124A335A316
:1083D00021E123A321E026A308950DD020E0208BE6
:1083E00000C0218B228B2091F118322F33953093CE
:1083F000F118238B0895F80120834183528344E0D0
:1084000051E04387548735876687778708959A9325
:108410008A936F970E94303AC801012B39F4EEE835
:10842000FBE08E014FE113D00E94063D8C016F9658
:108430008991999108957B2F2A2ED801642FF901F3
:1084400045E105D050966C93A22DB72F089550E0CA
:108450000C9435260E945A262F97502E412EC90182
:108460003A014B01D4DFD801012BF1F101E00E8379
:108470006F82788689869A8600E00983EA2FF12F39
:1084800007A110A50A831B8306E008838E010A5FFB
:108490001F4F0C831D838E010E941953398126E0E2
:1084A0008D0193DFFD0153A2BC01342D40E050E06B
:1084B00020E08D01025F1F4F90DF01E0FD01068F7C
:1084C000498D5A8D6B8D00E040305007600721F4D4
:1084D00008E712E420E002C08A01262F03871487F0
:1084E00025878D010E94663A2F96EDE00C946B264D
:1084F000089525D041F080E0A0E012D031F019D0ED
:108500001CD182D011F400E007C0A395A830A8F3D5
:108510008395863088F301E02696E3E00C9472267A
:10852000FE0190E0E80FF91F20814A2F67D0202339
:10853000089508E0809F80010A0F191F08950E9486
:10854000612626979E01FE0140E086E041938A95D0
:10855000E9F72DD10023089520E736E128D1002343
:1085600000E009F408950E942C4401E008950E945F
:10857000E54B00E008959A938A932A9720E060E003
:1085800030E0E0E7F6E1E20FF61F462F37D010812A
:10859000102329F0009510811023108306C06395E5
:1085A000683098F32395263050F308E0209FC001EF
:1085B000860F931F8C0126D071F49E018C010E94BE
:1085C0005C4622D051F0ADD0E3D039F0002329F041
:1085D00020E0A2D002C08C0182D020E0F0E0E22FA7
:1085E000E059F94E0081002311F066D003C02395B5
:1085F0002630A0F32A9689919991089501E010E020
:108600000C9452250E94174C002311F001E001C088
:1086100000E0A0CF0E945E262397280180E04FD083
:1086200001E0401600E4500629F009811A81041582
:10863000150529F42DEB3BE008810E949B4D8395A5
:10864000873268F32396E6E00C946F2678DF39F0E2
:1086500080E0A0E065DF29F06CDFD4DF11F400E0FA
:1086600007C0A395A830B0F38395863090F301E05E
:1086700053CF0E945F262397402E90E080E01FD0CA
:108680000881041579F429811A81422FE0D0502FF6
:1086900043E0022FD6D0F801E059F94E0081052BB6
:1086A000008391E08395873250F3992309F004D039
:1086B0002396E5E00C94702600E00C942C4403E033
:1086C00010E0482F50E00E944825EAECF3E530E046
:1086D000E00FF11F03E010E0DE010D94F4379A93F0
:1086E0008A935FD0C1F00A811B81012B21F00C819C
:1086F0001D81012B11F426E70FD013D06C817D81F1
:108700004A815B8120E030E08C010E94134B002302
:1087100011F024E801D06ECF31E00DEA1BE00C949B
:10872000674D4E815F81688500E0403050076007EB
:1087300019F0FA016CBF199508950E94602631D096
:1087400011F10A811B81012B21F00C811D81012B6C
:1087500011F427E9E1DFE5DF8C010E94BB4BD80172
:1087600017D089F0002319F02DEAD6DF0CC0BD0127
:108770004A815B812C813D818C010E946A440023E7
:1087800011F001E001C000E02A96E4E00C947126AB
:108790004C815D812A813B818C010E94BE4A02305E
:1087A00008952A97C8019E010E945C46D3CE0E947C
:1087B0005E262997602FC901023000E4100759F4A2
:1087C00046E050E02FEF30E08C010F942238FC019E
:1087D00000810E7F32C016FB3EF59E012E5F3F4F9B
:1087E000062F0E9477460023E9F0442455240D818A
:1087F0001E814016510610F502E010E0409EEA810D
:10880000FB813C81E00DF11D67DF48811CD00881B0
:10881000198117D0FC01E00FF11F0081022B0083AA
:108820004394E4CF00E00BC0462F0DD0062F09D0B3
:10883000800F911FFC010081022B008301E029962B
:1088400002CF0C94572503D0202F43E008954770A2
:1088500001E00C9430250895402F34D0EAECFBE081
:108860001381102B13832FB7F894EBE9FCE0008100
:1088700011811062118300832FBF08953091CD0BB9
:108880003323F9F020E001C02395422F1BD0132F92
:108890001023D1F330273093CD0B422F50E003E06B
:1088A00010E00E944825F801E653F44F0081118141
:1088B0002281F8012CBF19950091CD0B002309F0FE
:1088C000D2DF089501E010E00C9452250E941C4C68
:1088D0000C94A34A0E945C263801D9012A01CB01DD
:1088E000AB0192019BD08301E0E0F0E0FBBFF4E438
:1088F0000C94E9258D01A3D01AC00D911C911197FC
:108900000F3F1F4F99F400E00D930C930FC012D04E
:10891000AFD10CC00FD074D109C00CD08ED106C01D
:108920008D011AD103C02BE930E083D101E0E8E0EA
:108930000C946D26AC0192018D010895BD01A6E74E
:10894000B6E1EEE5F9E18D0103D100913A1A009309
:108950007E16E5E7FAE10FE716E1F4D0F0D00681E4
:10896000178120853185FD01018B128B238B348B80
:108970000091EC19058B0091E319068B0091581AB0
:10898000078B0091591A008F00915A1A018FE4E663
:10899000FAE100E916E141E1DDD0D1D0038514858B
:1089A000FD0103A714A70091471A05A7EEEEF9E110
:1089B00000811181FD0106A717A70091E61900AB00
:1089C0000091031A01AB00917D1A02AB0091851949
:1089D00003ABE9E1FAE10AEA16E1B4D0E7E1FAE132
:1089E00002851385FD0104AF15AF00917F1A06AF14
:1089F000E6E7F9E100811181FD0107AFFF961183E0
:108A000000917F19028308EB16E1E2EFF9E19AD0B9
:108A10000091461A0093C016DB0108952A97241787
:108A2000350759F09E0148D12985217011E0212791
:108A3000022319F023ED30E0FCD02A960895BA9372
:108A4000AA93980100E010E0F901E00FF11F1081F6
:108A50001F3F09F46CC00EE519E1F90179D0B901A5
:108A6000685F7F4FFB01019100933A1A05E71AE115
:108A70006BD0018412842384348461D006821782EF
:108A800020863186A6E7B9E1FB0105850093EC1944
:108A900006850093E31907850093581A008900930F
:108AA000591A018900935A1A04E61AE1F9017A96D3
:108AB00041E14BD003A114A142D003871487FB01ED
:108AC00005A10093471A06A117A1EEEEF9E1008374
:108AD0001183FB0100A50093E61901A50093031A79
:108AE00002A500937D1A03A500938519BC9609E1A0
:108AF0001AE12AD004A915A9E7E1FAE10287138750
:108B0000FB0106A900937F1A07A910AD0D931C93D2
:108B100001AD00937F192E5B3F4F02EF19E1F90180
:108B200011D0F90100850093461A01E005C00395B4
:108B30000B3408F488CF00E0A991B9910895E6E3D9
:108B4000FAE1089548E006C048E004D0FB0108952A
:108B500048E050E00C9435269A938A932497C801F4
:108B60009E012F5F3F4F00E231D002E02FD02E5FF9
:108B70003F4F0BE112E00E94AA6920E020C0422F83
:108B800050E006E110E02DD0FC01E00FF11F008164
:108B90000023A1F008811181019F4CE080011BD0CE
:108BA000428B538B088110E0418150E04F5F5F4F53
:108BB00018D04CE050E00FD0448B558B23950981A1
:108BC0002017E8F2249689919991089511E00E9466
:108BD000BD699E01089505D04A815B81400F511FF8
:108BE00008950C944825BA014217530740F4241BFA
:108BF000350BA90135D0060F171F0F9422380895A1
:108C00000E945E264FD089F049D078F4FC01E40D33
:108C1000F51D08EA058B769606E14AD0D0F31ED002
:108C200007E021D011F025E603D0E6E00C946F2692
:108C300031E00EEC1BE00C94674D0E946026C801E9
:108C4000D9012417350739F0CEDF08D008E00BD062
:108C500011F02BE7EDDFE4E00C947126BC01AD01CF
:108C600020E030E0089510E00E94134B00230895A7
:108C70000E945E2617D089F011D078F4FC01E40D33
:108C8000F51D06E000837D960DE112D0D0F3E6DFFE
:108C900002E0E9DF11F02AE9CBDFC7CFA4DF4A16F3
:108CA0005B060895C801D9012A01241735070895E4
:108CB000400E00E0501EF3CF0E945B262A97380139
:108CC000290180E798E409E2802E0AE029D0088192
:108CD00019810615170519F44AE028D004C00A9630
:108CE0008A9499F700E02A96E9E00C946C260E9499
:108CF0005B2627973801290188EE98E405E0802E4D
:108D000007E00ED00D811E810615170519F447E006
:108D10000DD004C007968A9499F700E02796E4CF17
:108D200010E0FC0130E0DE010D94F43750E09E01CC
:108D300082010F94E73701E0089573D419F400918C
:108D40002B0CF6D108956DD429F4F4D219F422EE47
:108D500030E026D50895F0C28A9380E0E1ECF8E196
:108D600040815181628140305807680731F0FA0133
:108D70006CBF1995002309F481E0082F89910895AB
:108D800020E032E0239FF001EF5EF34F40815181FC
:108D90000417150709F404C02395223090F302C08C
:108DA00001E0089500E008959C01F6D0800F911F26
:108DB0000F96807F86879787C9010895BA93AA93F3
:108DC00020E001C0239530912A0C2317A0F434E051
:108DD000239F82D24D915C9111974017510791F7D3
:108DE00012960D911C911397012B19F42CE231E08E
:108DF000D7D48D0101C045D0A991B991089535D03E
:108E000019F029E331E0CCD464D2003818F02AE319
:108E100031E0C6D45ED214E0019F01EC16E1000DF2
:108E2000111D85D225892395258BF8018083918397
:108E300089919991089519D019F427E431E0B0D4BB
:108E40008C01D8D174D225892A95258B34E0239FB3
:108E5000F001EF53F94E4081518162817381F80135
:108E60004083518362837383E3CF9A938A93C801CB
:108E7000C1D1012B0895BAD121F0F80102811381EB
:108E8000089500E010E00895792F482FF801C901F6
:108E90000FEF1FEF13C031911327212F12951F7071
:108EA0002127522F550F550F550F550F052730E22B
:108EB000239F0125102F0226002D0197282F292BF3
:108EC00051F7842F972F08952CE030E00E5F1F4F4D
:108ED000DBCF60D0D8012901CA01BA01A9019801EC
:108EE00024D10E94614CBC01A2019D011ED10E94AF
:108EF000664DE6E00C946F2674D1C8010FEFE82FA1
:108F0000F12F00830183082FDFDFFC01068717871D
:108F1000A3E2BCE040E150E09C010D911C911F9741
:108F2000D1D069F440E150E01E962D913C91FDD0E6
:108F30000E94624D002309F405D000E002C002D077
:108F400001E033C400E110E04EC1229720E0288305
:108F50002983FBC01FD0D80129011ED062D2B1F0F5
:108F6000042D052971F0FD01468157819201DFD161
:108F700006851785A7D029F4FD010681178133D115
:108F800005C0FD0106811781A0D111F400E001C0E8
:108F900001E0AFCF0C945E26CAD1868597850895EF
:108FA0000E945426A59708832B833C835A0100E036
:108FB00009830A83662477240DA91EA918D129F0F4
:108FC000060F171F09831A8303C027D3660E771E67
:108FD0008B819C817A012A01460E571E11C08D019A
:108FE00011950195104029813A81200F311F298365
:108FF0003A83BD014981532F8A1A9B0A940191D368
:10900000E414F50441F401E0A596E2E10C94652630
:1090100078018F859889082F092B09F451C08FD2C8
:109020004B5F5F4F9C0188D209851A8598014B855B
:109030005C85040F151F2415350558F7E016F10659
:1090400040F70415150520F3840D951D4096821BED
:10905000930B4C01E216F306D20128F4A21BB30BCA
:109060008F85988905C0AE19BF098B819C817501D8
:109070004A1A5B0A09811A81012B09F0B0CF0A2F25
:109080000B2B09F4BDCFA13100E0B00728F000E1BF
:10909000C02EDD24509703C06D01A0E0B0E06C1835
:1090A0007D088C189D08B601AE014B5E5F4F9401A0
:1090B00043D2A6019E012B5E3F4F830103D0F9F6F8
:1090C00000E0A2CF06DFAEC178D3D90133D021F4BE
:1090D0002CD02ED02FD009F10FEF0883098301E4A3
:1090E0000A8304E50B8303E50C830EE40D8306E796
:1090F0000E8301E30F8388879987AA87BB878095B2
:109100009095A095B0958C879D87AE87BF8740E1ED
:1091100050E09E01B6DED6DF11F400E005C064D059
:1091200006D10687178701E03FC30091290C0895F7
:109130000C94CF4C40E050E2F9D1F7DF0E94624D31
:1091400071C122979EDE0883098342E050E09E01B0
:10915000C0DE002311F400E001C001E02296089572
:1091600040D06097A5E1BCE03FD0FD01068717879E
:10917000E6D126853785D5D280E090E0FE01E80F64
:10918000F91F00810F3F31F40196803100E0900714
:1091900038F5F4CF8E0198DE2E853F8520173107F4
:1091A00011F022D018C008811981012B89F48A811D
:1091B0009B818C011BD011F48C0121DEFD012685E1
:1091C0003785F80122833383B4D1012B09F4FBD214
:1091D00024D1005F1F4F07D0FD011785103240F2E8
:1091E000E3C20C946026E0CD00E14CCE03D0202FEA
:1091F000212B0895E3CD0FD2A09705E1402E0CE07E
:10920000502E0CE21CE00E941B5100E0F20100D144
:109210007090290C94D1405F5F4F88D1072D8DD17C
:10922000888D998DAA8DBB8D81509040A040B04013
:109230007CDF0395023008F000E00093290C07154D
:1092400019F42AE433E0ACD28C019D013DDF002308
:1092500079F366241EC004E0609E3ED070D130D009
:109260006CD1F3D0F20186859785DAD0C1F000E0A9
:109270000A930A936A857B8540E050E021D090DE16
:10928000002369F0CAD021D051F0FD01828393837D
:1092900063941FD06016F8F254DF002311F400E04D
:1092A0000BC070922B0C05E11CE00F942B2F05E1F5
:1092B0001CE00F94062F01E0A096E8E00C946D26C8
:1092C000FD0122813381072D08958DDF8C013DDE64
:1092D000A9C000912A0C0895A1ECB6E1A00DB11D22
:1092E000089520E030E223D066857785261B370B72
:1092F0002017310728F41ED0C9F426E933E050C204
:109300002031344098F420912C0C222379F443EA44
:1093100056E460E06A935A934A9340E157E260E072
:1093200070E021E00CE21CE00E94F8500895E5E1B5
:10933000FCE0089560DF76C00E945A26609771D1E4
:1093400029F005E06096EAE00C946B26F0DF828954
:109350009389082F092B29F400891189012B21F405
:1093600005C040968C01DCD16AD011F400E0EACF50
:10937000EA2FF12F59D05FD0012B59F4DAD0005FDA
:109380001F4FCED15CD019F429EC33E009D2FD0196
:109390004BD0CDDF868497846884798402891389D1
:1093A000012BE1F040E050E024E030E002EE1BE071
:1093B0000E94684D40D0ABD10A851B85A8D1008999
:1093C0001189A5D107EE1BE00E94694D269633D086
:1093D000088719870615170508F4380136D020D0FC
:1093E00071F000E00A930A93B30140E050E09C0161
:1093F000BDD129F012D0F7DE840169DF11F401E05C
:10940000A1CF00E094DF04D0FD0182829382AECF31
:10941000008B018B028B038B08950E811F810895B1
:109420008E016ADD002308958281938160E170E0FE
:10943000AE019C0176C17BDF02891389089577DF35
:1094400000891189D7DED80114CDE1D008851985AE
:109450000E831F8300E0ACC19DDD609700E00093A8
:109460002A0C44244A948FEF9FEFAFEFBFEF5524AF
:1094700066D05CD0052D61D008811981012B69F57A
:109480000A81013451F50B81043539F50C8103351E
:1094900021F50D810E3409F50E810637F1F40F81A7
:1094A0000133D9F446D02A853B854C855D856E8590
:1094B0007F850801190104261526262637264FEF39
:1094C000041614062406340641F4081719072A075F
:1094D0003B0718F4452CC801D901539402E05016FB
:1094E00038F20FEF4016D1F400E00093290C08C0C9
:1094F0001EDF04890395048B023010F020E44FD165
:109500000EEF1FEF2FEF3FEFDFDD002389F319DEB2
:10951000002371F300E000932A0C03C04092290C51
:109520001FDE01E000934A0C6096E3CC20E030E0BF
:10953000089508851985089508810C94324C60E1DE
:1095400070E0AE010895BA93AA93A0E2BCE0009146
:109550004A0C002309F480DF01E000931F0C0DE9A1
:1095600016E420E00D931D932C93179708E51BE15B
:1095700020E00D931D932D932C933ECC4CD06097FF
:10958000D801C9012A01012B29F0103F18F421301C
:10959000344010F023E603D1ECD0012BC1F08D0153
:1095A000EAD00817190741F0C2DEA08BB18B828B7D
:1095B000938BC2DE002349F5042D052931F0B20159
:1095C000AC01B4DF8D01AFD020C000E01EC029D0B7
:1095D00011F005E01AC0A1D07CDE003810F02BE8B5
:1095E000DED01BD0AA83BB8312D08E839F83888753
:1095F0009987DED092018ED011F401E006C08D0172
:10960000FEDBF8016282738202E0609656CE00E0D3
:109610000C830D8308950C945C2689DE6684778420
:1096200008959ADBFFCE0E9458266097D801490121
:10963000CA015B01012B11F0672B11F429EAAFD0AD
:10964000F0DF11F005E05FC068D08D01D3DD2801A7
:10965000012B11F403E057C0E42DF12F62807380D9
:10966000A5E1BCE06CDF93015CD00884198422245E
:10967000A40160E0480F591F621D04161506260656
:1096800010F404E040C08C829D828E839F836A86A2
:109690007B86C3DE288539850217130719F42C86CB
:1096A0002D8606C00C851D850F5F1F4F0C871D87FB
:1096B000FD018685978595012DD011F401E023C029
:1096C000F201828393830C851D85053620E01040CE
:1096D000C8F00A811B81FD01008B118B228B238B2B
:1096E00000913B0C002371F40BEA16E420E02A936E
:1096F0000ED048EB5BE060E070E021E096968D01D3
:109700000E94F85000E06096ECE00C9469261A93F1
:109710000A9308958E011EDC85CE8C01005F1F4FD9
:10972000E0CD03DD0ACF77DFD801C9012A013B0173
:10973000012B11F0672B11F42AEF31D01AD057DD2D
:1097400011F403E012C00C012224040C151C221C8D
:1097500021E0221638F47A926A92B201AC019801A3
:1097600005D011F404E001C000E0A7CDDEDC18DC78
:1097700059CE8D0127C09A938A936097C801012B17
:1097800019F42AE135E00CD01CD031DD11F479DB7D
:1097900004C0D5DE9801C5DFCCDE609649CB34E04D
:1097A00002EE1BE00C94674D6096E4E00C94712689
:1097B0000A870B870C870D87089513DD6097C80112
:1097C00008958C0158CB8C0136CB0E945F26802FE8
:1097D0000E942B4426DF11F005E026C0882339F0D3
:1097E00080E0082FA5DC83958230E8F4FACFB0E062
:1097F00040902A0CA0E00EC004E0A09FF001EF53BF
:10980000F94E808191818C01BBDA002311F4DBDFFA
:10981000B395A395A41580F3BB2329F08BDD19F430
:1098200027E835E0BDDF00E0E5E00C947026CADFF4
:10983000012B09F0B5CAB6CA00E0002311F026E4F6
:10984000ACD0C6D000501440204030400F5F1F4FB6
:109850002F4F3F4F003010442040304011F02AE499
:109860009CD008950E945A2629013A014B018DD0BF
:10987000840D951DAB1FBB1F82D010F428E58DD041
:1098800040E054E460E078D0080D191D261F361F13
:10989000401751076207630710F429E57ED0480C92
:1098A000591C01E0401600E2500610F02AE575D080
:1098B0008401FC013A2FD3010F94F437EAE00C94B1
:1098C0006B260E94592649013A012B015ED0AA2439
:1098D000880D991DA31FB31F672B11F42DE6EED041
:1098E0004ED010F42EE659D040E054E445D0040D9B
:1098F000151D2A1D3A1D40175107A206A30610F494
:109900002FE64BD0840C951C01E0801600E29006F7
:1099100010F020E742D0082F10E020E031E0281BB3
:1099200030402415350510F4490101C04201B3014E
:10993000A40105C04201B301A40100E010E020E051
:1099400030E00F94B73618D00F94383748185908BC
:10995000880D991DAA1DBA1D680C791C042D0529B6
:1099600041F001E04016500628F38824992493948E
:10997000E2CFEBE00C946A268C019D01089528D07B
:10998000081719072A073B07089580E094E0A0E034
:10999000B0E08ED0910FA21F089530E08FC00E94DA
:1099A0005F26F3DF15D0003019072A07304010F486
:1099B00020E9F3DF00E2402EDFDF0F942C378050E8
:1099C0009F4FAF4FBF4F4A94B9F7E5E00C94702614
:1099D0000FEF13E420E030E008950E9458266097CE
:1099E000002EC9015A014B0100E014E02801662451
:1099F0007724002D5DD0510E621EA0E0480E591E46
:109A0000631E731E672B11F426EA58D0E1DF04159C
:109A100015052605370510F427EABFDF40E054E4BA
:109A200082019301080D191D2A1F3A1F4017510783
:109A3000A207A30710F428EAB0DF880D991D813032
:109A4000904240F029EAA9DF05C0881A990A480E19
:109A5000591E631E082D092931F101E1801600E02D
:109A6000900618F080E190E001C0C4018C01F20181
:109A7000362DDE010F94F43720E001C0239530E04D
:109A80002817390710F70A2D0B2921F0F50101914C
:109A90005F0101C00FEFFE01E20FF31F30813017AD
:109AA00069F300E001C001E06096ECE00C946926E7
:109AB00010E020E030E04DE00C94AF250BE41CE01A
:109AC0000C94674DBA0140E050E087CFFECF089577
:109AD00008950895BA93AA932297ACECB8E1009147
:109AE000CF180023C9F09E0101E21CD09E012F5F18
:109AF0003F4F0DE117D00881023071F40981002336
:109B000059F408E91DE420E00D931D932C931A9756
:109B10008D010F94AE0C02C00F94D32B2296A99105
:109B2000B991089510E00C94BD690091CF18089583
:109B300008950D9466360E945E26502ED9016AD093
:109B4000452D64D0402E00E4501608F026D09D012B
:109B5000052DA1D00023F1F49D0100ED18E10E9434
:109B6000B94E002371F448E050E020E030E08D0170
:109B70000E5F1F4F0F9422389D0100ED18E10E94E7
:109B80005C4EA80FB91FFD0102810429028339D060
:109B900004290283E6E00C946F2603E010E8E1EE6E
:109BA000F8E1008311830C945B4F0E945E26B02F76
:109BB000290130D04B2F2AD0A02FB03408F0EDDF90
:109BC00092010B2F68D00023D9F00A2F0095480E80
:109BD000591EF201128110231283E0EDF8E107C053
:109BE000F801E80FF91F22812A2351F4F8010081BE
:109BF0001181202F212BA1F7A09503D00A230283E6
:109C0000C9CFFC01E053F74E02810895477001E08F
:109C10000C943025069506950695802F90E00895C2
:109C20000E945C26A02F3901F5DF4A2FEFDFB02F0D
:109C3000A03410F004E0B2DFE4DF0B2319F1E0ED13
:109C4000F8E11BC0F201E80FF91F02810B23A1F01C
:109C5000F20142855385648540305040604011F4E4
:109C600005E09CDF372DF201028513852485F8017C
:109C70002CBF262D0A2F1995F20140805180042D0A
:109C8000052901F7E8E00C946D260BD0F0E0E02FF9
:109C9000E053F74E0BC005D010E0200F311FF90143
:109CA00005C0402F069506950695089502814770D8
:109CB0000E943525017008950E946026C801D901CF
:109CC00058D0002300E049F010E8E1EEF8E100830D
:109CD00011830E94414F00E011C00D930C93119726
:109CE000FC0100811181012B31F0008102C0008153
:109CF000132F16D0E1F7A083B18301E0E4E00C94C8
:109D00007126BD010DD041F02081D9014D915C91AA
:109D100040835183890102C000E010E0DB01089517
:109D2000F80120813181232B0895BD01422F432B5F
:109D3000F1F0F801408151814217530731F4DA0103
:109D40002D913C912083318310C0FA0101C0F801AC
:109D50000E2F0F2B61F00081118102171307B9F745
:109D6000D8010D911C910083118301E001C000E036
:109D7000D5CFF80100811181402F412B29F0021726
:109D80001307B9F701E0089500E0089500E51CE02D
:109D90000C941D71F80102811381202F212B09F4ED
