:020000020000FC
:100000000C941A250D94C4240D94C7240D94C9246E
:100010000D94CE240D94D3240D94E1240D94E62464
:100020000D9406250D9410250D94122518951895FC
:10003000189518950D949121189518950D94BB213C
:100040001895189518951895189518951895189548
:100050001895189518951895189518951895189538
:100060000D9441270D9417240D9409240D940D240B
:10007000189518950D94E0260D94932518951895CC
:100080001895189518951895189518951895189508
:100090000D9455240D9427240D9448240D942E2559
:1000A00018951895189518950D9457230D945C285C
:1000B00018951895189518951895189518951895D8
:1000C00018951895189518951895189518951895C8
:1000D00018951895189518951895189518951895B8
:1000E00018951895189518951895189518951895A8
:1000F0000D948A2818951895189518950D948E28A2
:100100001895189518951895189518951895189587
:100110001895189518951895189518950D94BD284B
:100120001895189518951895189518951895189567
:05013000189518951858
:104400000001001740000900FE3F000B40001A4069
:10441000001A40001440000140000E40001140000E
:104420001A4000000000994E001700924E005E4EA8
:1044300000694E00994E00964E00994E006D4E0058
:10444000984E00964E007E4E00694E00994E0096A2
:104450004E00964E00594E00994E00994E00924ED5
:1044600000944E00924E00944E00964E00984E00DE
:104470000000F2520017007B52009E5200AB520027
:10448000AB52009E5200AB5200CE52009E5200CA68
:1044900052009E5200C65200EF5200BF52009E5280
:1044A000007B5200F25200F25200D252009E5200A3
:1044B000D952009E5200E052009E52000801AD5AAF
:1044C00000695A00016C5A00016F5A0001725A00CB
:1044D00001755A0001785A00017B5A00017E5A008A
:1044E00001695A0008695A00016C5A00016F5A00AC
:1044F00001725A0001755A0001785A00017B5A0076
:10450000017E5A0001685A00016B5A00016E5A0080
:1045100001715A0001745A0001775A00017A5A0059
:10452000017D5A0001685A00016B5A00016E5A0061
:1045300001715A0001745A0001775A00017A5A0039
:10454000017D5A0001695A00016C5A0010835A001B
:1045500001835A00068D5A0004A15A00048D5A00A6
:10456000018D5A0091715A00066C5A00016C5A0074
:10457000077E5A0001805A00FB004001AD7500EA39
:1045800075000140750001EC750001EC750001EC4F
:104590007500014475000148750001EC750001ECDF
:1045A0007500014F75000153750001577500015BDF
:1045B000750001EC7500015F750001667500017002
:1045C000750001EC7500017475000178750001EC4F
:1045D0007500017C7500018F7500019E750001EC6E
:1045E000750001937500019A750001EA750001EAF2
:1045F000750001EA75001289750002EC750001EC86
:10460000750001EC750001EC750001EC750001EC22
:10461000750001EC750001EC750001EC750001EC12
:10462000750001EC750001EC750001EC750001EC02
:10463000750002A9750001EA75000285750001A2E6
:104640007500FB0040015F760046760001047600AD
:104650000157760001577600015776000107760072
:10466000010B760002577600010E760001117600EC
:10467000011476000118760001577600011B7600C0
:10468000011E760001217600015776000125760093
:1046900001287600022C7600013A7600015076005F
:1046A00001577600013D7600014076000158760002
:1046B00001437600014376001234760002577600FB
:1046C00001577600015776000157760001577600B2
:1046D00001577600015776000157760001577600A2
:1046E0000157760001577600015776000157760092
:1046F00001577600025A7600015D7600023076009E
:1047000001547600FB000101438500B78400011AC3
:104710008500012785000198840003238500012777
:10472000850001298500013B850001318500033B9F
:10473000850001B18400013D8500FB000100C187B7
:10474000000E009D8700A08700A38700A38700A616
:104750008700B28700AC8700AF8700C18700A987B8
:1047600000B58700B88700BB8700BE870000010046
:104770000E88001000D08700158800158800158865
:1047800000D78700F48700E58700EC87000E8800DB
:10479000DE8700FB8700FB87000388001588001C6C
:1047A00088001F88000024013DA00053A000015A8A
:1047B000A000016CA0000343A000014FA0000482F0
:1047C000A000018CA0000199A000019DA000024161
:1047D000A0000160A0000127A000FB00000001383C
:1047E000FA002BFA00012DFA000133FA000133FA26
:1047F00000012FFA000133FA000136FA000A33FAF9
:10480000000133FA000229FA000131FA000133FAFB
:1048100000FB000001ACFA0077FA00017AFA00010F
:1048200083FA000186FA000189FA0001A6FA000164
:10483000A9FA000A8CFA0001A0FA0003A3FA000109
:104840007DFA00FB0100E21A010C002A1A01631A2A
:1048500001361A01531A01BE1A01631A019E1A0188
:10486000C21A01751A019E1A01C01A01D51A010057
:104870000A0011005808000000000B00160000029A
:10488000000000000C0016002A02000000000D00CD
:104890001600E802000000000E00160012030000DF
:1048A00000000F00160013080000000010001600A2
:1048B00042080000000001004B003A1522400000B1
:1048C00002009100AF1A000000010300D700A129E7
:1048D0000000000204000300C018000000000500F2
:1048E0001600E1230000000206000200C5180000C7
:1048F000000007003401F427000000010800180040
:10490000C9230000000109000100A61800000000F2
:0749100042550009000140BF
:10491800FF93EF933BB72BBFF80106913BBFEF9195
:10492800FF9108957F937FB7F8949D9AA5980AEF11
:104938000E94F5240AEF0E94F5249D9806E40E943F
:10494800F52401E0959900E00F9300EF0E94F5240B
:104958000F917FBF7F9108957F937FB7F8949D9AB9
:10496800A59806E00E94F5249D980AE00E94F52487
:10497800889495990894001F0F9304E60E94F524E3
:104988000F917FBF7F9108959F937F9398E00E9436
:10499800B024079577959A959923C9F7072F7F91A2
:1049A8009F9108957F937FB7F894A5989D9A0F9348
:1049B80006E00E94F5240F91079508F49D980F933F
:1049C80004E60E94F5240F919D987FBF7F9108957A
:1049D8009F9398E00E94D6249A959923D9F79F919E
:1049E800089500000000000000000A950023C9F7A0
:1049F80008955F937F937FB7F894CF93DF93C0E0D8
:104A0800D0E07F935091B2007091B2007517E1F336
:104A1800739521965091B2005717D9F77F918E015F
:104A2800DF91CF917FBF7F915F9108950F94693295
:104A38000DECA2E8C2E8BCE3D0E40D93AC17BD07C7
:104A4800E1F7A2E8C2E8B0E4D7E40D93AC17BD07DC
:104A5800E1F701E80DBF00E40EBFC2E8D7E40F9408
:104A6800BB32002311F00F94B6330E94E53C0F943B
:104A780082320C943F250D94C9374A9512F0000FE5
:104A8800E1F708954A9512F00695E1F70895002494
:104A9800E8E0EA9532F0001F001C0416D0F3041A6F
:104AA800F8CF001F402D00950895149F102D059FE5
:104AB800100D049F002D110D0895000F111F4A9528
:104AC800E2F70895169507954A95E2F70895159522
:104AD80007954A95E2F7089500241124EFE0001F96
:104AE800111F001C111C0416150610F0041A150AD3
:104AF800EA95AAF7001F111FA001009510950895C7
:104B08005195419550400895FF27552312F4F160BF
:104B1800F7DF112312F4F09507D00E947025F0FDFD
:104B280003D0F1FDEDCF089511950195104008953A
:104B38002224349F302D259F300D169F300D079F5E
:104B4800300D249F202D310D159F200D311D069FFE
:104B5800200D311D149F102D210D321D059F100DA4
:104B6800211D321D049F002D110D221D321D089597
:104B7800000F111F221F331F4A95D2F7089536954B
:104B88002795179507954A95D2F70895002411247B
:104B98001001E0E2EA9592F0001F111F221F331F57
:104BA800001C111C221C331C041615062606370689
:104BB80088F3041A150A260A370AECCF001F111FBA
:104BC800221F331FA001B101009510952095309543
:104BD800089557914791179011FA279037900790A9
:104BE8000CBE0895F7DF041B10E003C0F2DF041BBE
:104BF800150B20E030E000C028F110FC25C04791DB
:104C08000790E00FF11F0417100540E02407340750
:104C1800C8F486F412FE05C0E00FF11F0791069054
:104C280002C006910024F101E01BF0090CB7004016
:104C38000CBF1994E00FF11FE00FF11F2790379078
:104C480007900CBEF101199411F4C6F7E3CF319621
:104C580012FC31960EF0329650E060E070E0479119
:104C68004B3F48F079F34F3F29F04E3F11F07791D1
:104C7800679157914791041B150B260B370B29F3A6
:104C880008F3E5CFAF93BF93D80101900D9241503F
:104C98005040D9F7BF91AF910895AF93BF93D80112
:104CA8003BBF07900D9241505040D9F7BF91AF914B
:104CB8000895E00FF11F02900A9201501040D9F7B1
:104CC8000895FA92EA92DA92CA92BA92AA929A92BB
:104CD8008A927A926A925A924A92BA93AA939A9329
:104CE8008A930895FF84EE84DD84CC84BB84AA84EF
:104CF800998488847F806E805D804C80BB81AA8186
:104D080099818881F0E0EC0FFD1FEF010895808103
:104D1800080F8181181F8281281F8381381F848191
:104D2800481F8581581F8681681F8781781F0895CD
:104D38008081082B8181182B8281282B8381382B35
:104D48008481482B8581582B8681682B8781782B15
:104D580008958081081B8181180B8281280B83812B
:104D6800380B8481480B8581580B8681680B8781B5
:104D7800780B08951095209530954095509560953D
:104D8800709501951F4F2F4F3F4F4F4F5F4F6F4FFC
:104D98007F4F08958081081781811807828128072D
:104DA8008381380784814807858158078681680789
:104DB80087817807089500000000000000000000C7
:104DC80000000000000000000000000000000000DB
:104DD80000000000000000000000000000000000CB
:104DE80000000000000000000000000000000000BB
:104DF80000000000000000000000000000000000AB
:104E0800000000000000000000000000000000009A
:104E1800000000000000000000000000000000008A
:104E28000000000102010002020505080000FFFF62
:104E38003412000000000000000002040005010018
:104E48000000000100000000000000000000000059
:104E580000000005FF00000203AAAAAAAAAAAAAA9B
:104E6800AAFFFF00070707077F7A785A5F07070737
:104E78000707787F1F03001E000003F4008000006E
:104E880001341200030300000200000000000303C5
:104E9800581B000010270000010001E8030000046F
:104EA800E80300001041746D656C2020202020204C
:104EB8002020202020000000000000000000010148
:104EC80085006C00010000050500050602050804C0
:104ED80005000208FF140000000808030304030784
:104EE800901A00000E000000053D00000303141096
:104EF8000110270000010500014F5000032218008F
:104F080008002C18000100FA18000400FE1800011F
:104F1800000019000400AE18000100AF18000100DD
:104F2800B618000800B2180002003A180002004340
:104F380018000100AA18000100C718000100B018E5
:104F480000010007190001000819000100091900F3
:104F580001000A1900010005190002000B190001DF
:104F6800000C19000100AC18000100AB180001008A
:104F7800D718000100D81800010039190008001FCF
:104F880019000400141900040018190004001C1961
:104F98000001001D190001001E1900010028190058
:104FA8001100A718000100231900010024190004AA
:104FB80000DC18000100D9180002004119000100A6
:104FC800041900010000000000000000000000F9C2
:104FD80018000100000000000000000000000000B0
:104FE8000000000000000000DE0B00100042190065
:104FF8000100C118000100C2180001004319000196
:1050080000DD18000800E5180002000D1900050071
:10501800121900010013190001000000000000002F
:105028000000000000000000000000000000000078
:10503800000000000000000000000000002E180022
:105048000100000000000000000000000000000057
:105058000000000000000000000000000000000048
:105068000000000000000000000000000000000038
:10507800000000000000000000FF180001003418C4
:105088000001002D18000100C84E000200CC4E009F
:105098000100CF4E000100CD4E000200D24E0001AB
:1050A80000D34E000100D44E000100D54E0001008F
:1050B800D64E000100D74E000100D84E000200D0A5
:1050C8004E000200DA4E000100DB4E000100F64EF1
:1050D800000200E54E000100E64E000100E74E0028
:1050E8000100F24E000400DC4E000100DD4E000419
:1050F80000E14E000100E24E000100EC4E0001000C
:10510800ED4E000100EE4E000200F04E000100F1ED
:105118004E00010000000000000000000000000038
:105128000000000000000000F84E000100F94E00E9
:105138000400FD4E0001000000000000FE4E0002C9
:1051480000004F000100E34E000100E44E000100A2
:10515800014F000100024F000100034F000100044D
:105168004F0001000000000000E84E000400CA4E95
:105178000002004419000000AF1A000000351A00B0
:105188000000401B000000A31A00000000000000FF
:1051980000631B0000002427000000D8270000003F
:1051A8000B2300000052230000002E23000000897A
:1051B8002300000033240000004F260000000000F8
:1051C8000000000000000000C923000000F42700D0
:1051D8000000072B0000008C2D00000000000000DC
:1051E80000000000000000000000000000000000B7
:1051F800C018000000E123000000F7230000002889
:10520800290000000000000000A129000000782A01
:10521800000000962A000000D62E000000FE2E0096
:105228000000C919000000FCAF6011070120000050
:105238000000002CB8007FB60097C40033A300001C
:105248000000F19B002BA100EBA60000000000006D
:105258000010000000000003020102030302020123
:105268000101010101010101020201010102010222
:105278000202020202010202020202020103030206
:105288000203000100010000FE8A910026C60031D9
:10529800A800D69E00D4A5000000000294005D98E6
:1052A8000029A300B694004AC4003D8C00A0B200B7
:1052B80071B40042B60032B200F1A800000000ED5F
:1052C800CB00A8B200BBC5000C8B00CBC600B3B3A3
:1052D800000AB500D1C3009BB100B29100D694007A
:1052E8005F9F00AA9B00F4A3002094004C910067E4
:1052F800A800000000000000B7AC000BAE000000E2
:1053080000F8AF000278A60033A6000107E3C40046
:1053180063C5000101E3C40063C500010117A200D1
:1053280006A10001016C9C00579D0001016C9C00C6
:10533800C29C0001078CA400BFA400010182A50043
:105348005BA500010100000000000001070000004B
:10535800000000010100000000000001030000003F
:10536800B0B5000104000000B0B500010500000060
:105378000000000106000000000000010D00000010
:105388000000000101E3C40000000000010000006B
:10539800000000010E0000000000000107000000EE
:1053A800000000010A0000000000000100000000E9
:1053B80000000001010000000000000101000000E1
:1053C80000000000000000001E910000090000001D
:1053D8001E9100000C0000001E910000000000005B
:1053E8001E9100000E01000E02000E04000E0500C2
:1053F8000E06000E07000E08000E09000501000544
:10540800020005040005050005060005070005085B
:105418000005090004010004020004040004060059
:10542800040500040700040800040900060100023E
:1054380002000302000903001503002003001404FE
:1054480000140500140600100700110800120800D7
:105458001F060026090024010000005A69674265FA
:1054680065416C6C69616E63653039FFFF00AF00A0
:105478000000000000000000000000000000000024
:105488000020F50000F600E5E900CDEA00DDF000B7
:10549800000000000000000000000000E6F20040EC
:1054A8000000000100E0EE000BE00029EB002AD02C
:1054B8000074CD0000000000000097F400652A0188
:1054C800652A01652A01652A01C82A01962901FA77
:1054D80028016E2101782601212601363101562244
:1054E80001BF3001852F01522F01662A01010000FA
:1054F80000000003800000000000030A0B014C10AC
:1055080001CB07010A0D01CEF600F3FE00020302EB
:105518000201010101010202010202020102030269
:1055280001020302020E2001252001181F01952007
:1055380001101B01F61B01641D010100020003009C
:10554800040005000600070008000900112E0113D9
:105558002E01152E01172E01182E011A2E010307F0
:10556800008B55000007009155006D1501CB140103
:10557800461601595C00374E00AE4C00080000008A
:10558800000001000000010000040810FFFF00D522
:105598000A0002A55500AC2FD50C00000000002918
:1055A800330000000005000F0000000000000001AB
:1055B8000002000100291200004D95FE7F0200291B
:1055C8001200004E95FF7F03002113000000000524
:1055D800000F00000000000000000000081B012967
:1055E8001200000000FFFF1C0120120000FF1D0137
:1055F80028120000FF010000000000000000000069
:105608008230001F2041746D656C20001F204D758D
:105618006C746953656E736F72000000200200019C
:105628000020020002002002000300200200040003
:10563800420200000000000000000000000000001E
:105648000000000000000000000000000000000052
:1056580000000500420200000000000000000000F9
:105668000000000000000000000000000000000032
:1056780000000000000007003002001100300000A8
:105688000010CD300000002133000000000F001989
:1056980000000000000000010002000100211200CB
:1056A8000000000F2702002112000001001027034C
:1056B800002113000000000F001900000000000086
:1056C8000000000080000000087D0201E3020000E5
:1056D800000000000000000003000002ED0705FACA
:1056E8000700000000000000000000050B00034058
:1056F80002000000000000000000000000000000A0
:105708000000000000000000000000000000000091
:105718000000000000000000000000000000000081
:105728000000000000000000000000000000000071
:105738000000000000000000000000000000000061
:1057480000000000000000000000AB3000C3310082
:105758006A30009D33003D3000E9300074330003A7
:10576800000100000005FA0700000000000000002A
:105778000000030000000300050B0000000000000B
:10578800000006040008580800000000000000009F
:1057980000000000000604020400040002000000EB
:1057A80000000000000000000000020405040004DE
:1057B800E8020000000000000000000000000005F2
:1057C80004000400051308000000000000000000A9
:1057D80000000000000468656C7000002D3E5368EE
:1057E8006F772068656C7020796F752772652072F5
:1057F800656164696E67206E6F773A202068656C12
:10580800700D0A007265736574002D3E52657365EC
:1058180074206465766963650D0A006765744E6572
:1058280074776F726B41646472657373002D3E20E8
:1058380052657475726E73206E6574776F726B2023
:10584800616464726573733A206765744E65747732
:105858006F726B416464726573730D0A00696E76CA
:105868006F6B65455A4D6F6465002D3E53746172C8
:10587800742066696E64696E6720616E642062696F
:105888006E64696E672070726F636573730D0A00CA
:1058980073696D706C654465736352657100646407
:1058A800002D3E2053656E642053696D706C65440D
:1058B800657363726970746F72526571756573741C
:1058C800436F6D6D616E643A5B6E776B41646472B1
:1058D8005D205B64737445705D0D0A006D617463CF
:1058E8006844657363526571002D3E2053656E648C
:1058F800204D6174636844657363726970746F7274
:1059080052657175657374436F6D6D616E643A5B52
:105918006E776B416464725D205B73726345705D82
:10592800200D0A007265736574546F464E002D3E53
:10593800526573657420746F20666163746F727941
:105948002066726573682073657474696E67733A4C
:10595800207265736574546F464E0D0A006765744E
:1059680044657669636554797065002D3E205265FB
:10597800717565737420666F7220646576696365F6
:1059880020747970653A2067657444657669636543
:10599800547970650D0A00706F7765724F666600FE
:1059A8002D3E20506F77657273206F6666206465A0
:1059B800766963653A20706F7765724F66660D0A7F
:1059C80000726573746172744E776B0064002D3ECB
:1059D800205265737461727473206E6574776F7288
:1059E8006B206F6E20706172746963756C617220D0
:1059F8006368616E6E656C205B6368616E6E656C72
:105A08005D0D0A0067657441707044657669636569
:105A180054797065002D3E20526571756573742048
:105A2800666F722064657669636520747970653A7B
:105A38002067657441707044657669636554797050
:105A4800650D0A0025730D0A00436F6D6D616E6464
:105A5800733A200D0A0039043E045231003F0467AE
:105A6800043E046431006D047E043E0466310090F7
:105A780004C0043E04743100CD04F30401057931F7
:105A88000004053F0501057E31004C0587053E04ED
:105A98008831009105C0053E048C3100CE05FA0519
:105AA8003E04973100030624062F069D3100310677
:105AB80067063E04B43100780600000000000000CC
:105AC8000000253034780D0A004465766963655412
:105AD800797065203D2025640D0A004841446576AB
:105AE80069636554797065203D20307825303478B5
:105AF8000D0A0000000000000000000A000000017C
:105B08003031002D3E4964656E746966790D0A006E
:105B18002D3E4964656E74696679205175657279A0
:105B28000D0A002D3E4964656E74696679205175C9
:105B380065727920526573706F6E73652C2061648D
:105B48006472203D2025640D0A002D3E455A2D4DD6
:105B58006F646520496E766F6B650D0A002D3E55A2
:105B6800706461746520436F6D6D697373696F6EDE
:105B7800696E672053746174650D0A0000000000A7
:105B880000000000000000000000000021000000EC
:105B98000100180200000000103B320001146832B6
:105BA8000000118832000210B932000310EC3200F4
:105BB80000002133000000000F001E00000000005C
:105BC8000000010002000100211200000200FDFF98
:105BD8000200211200000100FEFF04003002000351
:105BE800002113000000000F001E0000000000004C
:105BF8000000000008000018130000000A0014004C
:105C0800000000000001010030120000FE10002119
:105C18001000000000FEFF1100211000000000FE2F
:105C2800FF120020100001FE2000211000000000DB
:105C3800FEFF2100211000000000FEFF22002010BE
:105C48000001FE000000000000000000000000004D
:105C580000000000150401FF010007D70301D50368
:105C68002803C20300000000000000000013040124
:105C780007010001F803000000E5030000FDFF0034
:105C8800009809E03400040113010000000000003E
:105C980000000000160401020300010D04000000CA
:105CA800FA030000FDFF00009A09E0340004011621
:105CB8000100000000000000000000170401FF03BD
:105CC800000122040000000F040000FDFF00009CFA
:105CD80009E0340004011701000000000000000082
:105CE8000000180401060100013704000000240424
:105CF8000000FDFF00009E09E034000401180100C7
:105D0800000000000000204E000000D83400000011
:105D18000000000000000000FF3400000000000048
:105D2800000000000008350000000000000000002E
:105D380000001935000604020405040004FFFFFFF3
:105D4800FFFFFFFFFF5A6967426565416C6C696137
:105D58006E636530395A636C436F6E6669726D3A6B
:105D680020737461747573203D2030782530327843
:105D78000D0A005A636C526573706F6E73653A2032
:105D8800737461747573203D203078253032780D36
:105D98000A00756E6B6E6F776E20636F6D6D616E46
:105DA800640D0A00571000000000000020BF020028
:105DB8000162380000000000000030750000006E2D
:105DC80038000000000000000000007438000000E7
:105DD8000000000000000000000000004E6574771D
:105DE8006F726B207570646174652073746174756B
:105DF80073202D203078253032780D0A00000000FD
:105E0800000000000000000000000000000000008A
:105E18000000000000000000000000000000010079
:105E2800000000000000000000000000000000006A
:105E3800000000000000B43C00000000000000006A
:105E4800000000E13C00FAFFFFFFFFFFFFFF0D0A23
:105E58004E6F7420656E6F75676820636F6D6D6136
:105E68006E6420627566666572730D0A00456E740D
:105E780065722076616C696420455000776C5064C7
:105E880073446174615365727665720000000000A6
:105E9800000000000000BD3E003F3E0000776C504F
:105EA80064735479706573436F6E76657274657246
:105EB80000535F4E7600526573697A696E67204EAB
:105EC80056206974656D202869643D256875292008
:105ED80066726F6D2025687520746F2025687500BF
:105EE8000600FF0F00000000000000000000000096
:105EF80000000000000000000000FF00000000009B
:105F08000000000000000000000000000000000089
:105F180000000000000000000000445F4E76000012
:105F28000000000000000100000000000000000068
:105F38000000000000E8030000014E4A00D16C0098
:105F4800742A0127880076C600610F0111F1002C20
:105F58001701BC1601F46300000000A955000000F9
:105F6800005F3B00C23F000000000000FFFF000090
:105F78000000000000000000976200CCCCCCCCCC24
:105F8800CCCCCCCCCCCCCCCCCCCCCC0B0000FFFF3C
:105F980000000000FFFFFFFFFFFFFFFFFFFF000003
:105FA8000000000000000000EF880001FFD78738DC
:105FB8000C04000000000000000000000000009237
:105FC8009100000000000000000000008EB30000F7
:105FD8000000000000000000002FA30000000000E7
:105FE8000000020000000000000000000054F00063
:105FF800FFFFFDFFFCFFFBFF0000000000000000AA
:10600800000011050100000000000000000000353C
:1060180005010000000000000000000067050120E5
:1060280000FDFFFFFFFFFFFFFFFCFFFFFFFFFFFF7C
:10603800FFFBFFFFFFFFFFFFFF0000000000008FD6
:106048001701000000000000000000006C230100A0
:1060580000FFFF00FF000000000100000001000039
:10606800000000000000000000000000686C747A66
:106078004C00E0E0F2E000E010E5048315830DE455
:1060880015E9028F138F0FEF1FE704A315A300E094
:1060980011E006A717A708959A938A93E0E0F2E023
:1060A80084819581885E9340028D138D80179107B6
:1060B8002CF404A115A10483158302C0848395835D
:1060C8008F010E94A357899199910895BA93AA9331
:1060D800A4E4B2E000E00D930C93549600934E02B2
:1060E8000093550229E532E00BE30E9423499D0104
:1060F8000CE30E942349A991B99108950B5319F013
:106108000A9561F00895022F032B01F1F90100812E
:1061180000934E020181009355020895022F032B2C
:10612800A9F0F90100811181E0E4F2E0208D222339
:1061380029F00483158300E0008F089524813581B8
:10614800200F311F3695279524833583089501E064
:106158000093810204E00093DD0200E00093E20274
:1061680002E00093860203E000938B0204E00093B0
:10617800900248E050E026E632E005E912E00F948C
:10618800E4324DE050E02FE632E009EB12E00D94E6
:10619800E4328A9380E0482F50E003E010E00E9448
:1061A8005925F801E355FC4F40815181628100E097
:1061B80040305007600719F0FA016CBF19958395B4
:1061C800873048F300E089910895E8EEF2E000E0B6
:1061D80010E104831583028F038F00E117E204A303
:1061E80015A300E011E006A717A70895E8EEF2E06E
:1061F8000481158108511C4F24A135A120173107AE
:1062080010F4028D138D048315838F010C94A3570A
:106218000C94F33709EB16E00C9494360E9472261E
:106228000333104010F022E301C0202F05ED1CE0DD
:106238000E94E837A02F80E00AC0982F990F990B89
:10624800FC01EB52F34F00810E94993683958A171F
:10625800A4F3E3E00C948326BA93AA93A6E5B7E0E7
:10626800ED91FC914ED01A930A9307EA16E0D0DF1D
:10627800229645D0075F1F4F00831183E091560790
:10628800F12F3FD0012B11F017D005C000E0E6E553
:10629800F7E000830183A991B991089530D0012BCB
:1062A80051F40CEA16E0B4DF09EB16E0E6E5F7E096
:1062B8000083118301D0089508E517E00D94032A9F
:1062C8000D94432E0E944D8A1A930A9305E217E013
:1062D8009FDF229608950A938E010E5F1F4F98CF75
:1062E80004E514E320E00C940D38F801248109D06A
:1062F8000C942F3DF801248104D00C944B3DE6E525
:10630800F7E000811181089500E00E943B3ED8CF5C
:106318006297ECE2F7E08E0142E12ED004E04A9366
:10632800DADF64960895EFECFBE00081067C0083D9
:1063380008952497F801408101E010E020E030E062
:106348000E94C025088319832A833B839E0104E0A9
:1063580010E00E94646500E00E94BA3B249608950C
:106368006897EEE3F7E08E0148E106D00FEF11E001
:106378001A93B1DF6A96089550E00C94462610E00F
:106388008ED1128B138B23E030E005E10E94F05789
:10639800202F212B39F042E653E360E0F801408BCF
:1063A800518B628B08EE13E020E079D106831783C6
:1063B80020872187228706E513E320E003871487D7
:1063C800258708950FED17E00D94282A089567D1C1
:1063D80010FB008D00F9008F08959A938A93C801E5
:1063E800980108EF17E00E94414A002329F49C0114
:1063F80008EF17E00E94E449899199910895B3D074
:10640800402EC901512E26D049F030E021E01FD09E
:1064180063E070E0352DAC01242D21D052C00E94DC
:106428006D26702EC901612E542E452E13D061F0B1
:1064380032E023E00CD02ED15082418263E070E03C
:10644800362DAC01272D0BD0E8E00C947E260A2FC0
:106458000C94EA3C0E940C3DD801012B08958D0153
:10646800025F1F4F0E94F23C8D010C9450357BD087
:106478002D972801DA01E6E6F7E08E014DE0E8D035
:106488008FED97E00D911C911197FC01028B138BF6
:106498008C019ADF0D911C911197012B19F08C0139
:1064A8000F94032AFC01818D928D05C0FC01428165
:1064B800538164817FD078D0C9F700E02D9601C060
:1064C8006396E6E00C9480264ED06397C8012A01B3
:1064D800E3E7F7E06CD0FFD019F08C01BFD013C010
:1064E800A18DB28D0CC0FD0145815681678136D0E2
:1064F80019F092018C012FD00D91BC91A02F0A2F79
:106508000B2B89F700E0DCCF2ED0A797D8012A0102
:10651800E6E8F7E08E0147E29ED0FD010181128195
:106528001A930A938E010E5F1F4F0E94F33722962B
:106538004AD00CC0FC014085518562850FD019F006
:1065480092018D0108D0FC01808191812DD091F7B5
:1065580000E0A796B6CFFA016CBF199400E040306E
:106568005007600708950C946F26FDDF6397280194
:10657800DA01EDEAF7E01BD00C9100FF0AC000E059
:106588000E943B3E0C9100FF04C001700E94BA3B80
:1065980009C019D005C0FC014385548565850AD01A
:1065A80003D0C9F700E08CCF082F092B08958E017E
:1065B80043E14EC0D3DF19F09D018201CCDFFC011D
:1065C800808191810895EFEDF7E0818D928D089596
:1065D800CADF6F972801DA01E0ECF7E08E014FE19E
:1065E80037D00C91013039F42BD023D00091F70724
:1065F8001E7F01701ED00C91023079F421D03181B8
:10660800317021E032270323017016D01E7F3181BB
:1066180031703227032301700FD0D5DF05C0FC018C
:10662800468557856089C6DFBFDFC9F700E06F96EA
:1066380048CF21812170022B102B1093F707089562
:106648002091F707122F1E7F2170022FFD01089558
:1066580002D00C94F33750E00C9446260E94712621
:10666800C801F8DE11F409E812C032E020E0EFDEDC
:1066780016D0228933890ED02083318341E09C01D2
:106688008D01025F1F4F0E94203DEEDE00E0E4E036
:106698000C948226FD0107A1F0A5E02F0895EFEDE7
:1066A800F7E00895FCDF0289138901501040028B3E
:1066B800138B012B11F48F0187DE0895413051F4BB
:1066C800232B41F40FED17E07FDE05D019F08F0181
:1066D8000F94032A0895EFEDF7E002891389BDCEE0
:1066E800E3E1F8E00FE706A70FEF10E00483158356
:1066F80002E0028F138F0EEF1FEF04A315A300E033
:1067080017E003AB14AB08950F9428334EEF5FEFF7
:106718000E94702503E118E0F801228D338D42179D
:10672800530718F42483358302C0048215820C941D
:10673800A35700E000936D0800935C08089500914A
:106748005C08002311F401E001C000E000935C083C
:1067580008E518E00C94A357BA93AA93A6EAB8E000
:1067680000EE18E00D931D9307E019E00D931D93BB
:106778000EE219E00D931D9305E519E00D931C93A6
:106788000EEA18E05ED00E94AB300E94C3310E942E
:106798006A3007EC18E055D00E949D330AE056D0C5
:1067A80011F00AE050D00EEE18E04BD00E943D30B8
:1067B8000BE04CD011F00BE046D00CE047D011F0C4
:1067C8000CE041D005E119E03CD00E94E9300DE031
:1067D8003DD011F00DE037D00EE038D011F00EE0CA
:1067E80032D00CE319E02DD00E9474330FE02ED084
:1067F80011F00FE028D000E129D011F000E123D0FA
:1068080003E619E00F94032A0E94B9370E940E315B
:106818000E9419492BE839E00CE211D02BE839E045
:106828000FE20DD02EE739E00DE209D021E739E07B
:1068380008E305D00E940C5BA991B99108950C94C6
:1068480023490C94E65A10E00C94083E10E00E948C
:10685800AA3E002308952B970E94AF4C01E00883BD
:1068680000EA19E00A831B838E010E94DE4C2B96F6
:10687800089500917E0A002339F401E000937E0A0E
:1068880002EC13E00E940638089506EA18E008951D
:1068980003E619E00F94282A0C94E63101E00895E4
:1068A80000E00093080D02D00C940C5BE7E0FDE0DB
:1068B8000181002381F00A95E1F00A9521F10A95FA
:1068C80051F10A9581F10A95B1F10A95E1F1025069
:1068D80009F441C00895008100FF0BC05AD064E15B
:1068E80070E040E050E026E043D003E144D001E00E
:1068F80007C0008102FF0FC053D040E03ED002E045
:106908000093080D0895008102FF05C049D043E0B7
:1069180034D003E0F5CF008101FF0DC037D040E04F
:1069280022D004E0EDCF008101FF05C02FD043E065
:106938001AD005E0E5CF008103FF0DC023D040E069
:106948000DD006E0DDCF008103FF05C01BD043E07A
:1069580005D008E0D5CF00E0018369C050E020E011
:1069680007D008E108C050E025E002D007E103C0E5
:1069780034E014E108950C94B93D50E022E0F8DFCA
:1069880006E1F9CF06D06EE170E0089502D069E122
:10699800FBCF07ED14E320E02A931A930A93089596
:1069A800F8DF6FE0F1CF82CF0E94A3330E9450300E
:1069B8000E94FA300C9488330050144091F0025031
:1069C800104049F00350104049F00150104061F464
:1069D8000CD0016002C009D0046029C006D0026052
:1069E800FCCF03D0086000830895E7E0FDE0008154
:1069F800089508950895BA93AA93D9010E942A3850
:106A08001C91102B1C9318CFF901028901FF0BC0B0
:106A180008E115E320E0E9E0FDE001831283238328
:106A28008F010F94AE070895089503E0F9010083DC
:106A380008950E94712640E02AD08DE09DE0800FE5
:106A4800911FDC019796FD01038D0023C1F401E03D
:106A5800038F4DE220E030E08C010F941F3345E1B5
:106A680050E020E030E08C01035D1F4F0F941F338E
:106A78008C01035D1F4F0D931C938C0105C043953A
:106A88004C30D0F200E010E0E4E00C94822650E0B4
:106A980006E410E00C94592505D00C94015B02D053
:106AA8000C94F45AF801438554856585ED5BFF4FD6
:106AB80040835183628347E655E360E0F8014387EA
:106AC8005487658708950E946F26A597D801C80145
:106AD80004972C01F8010181002361F40C91002333
:106AE800E9F19E012A5F3F4FE8EBF9E089014EE1A9
:106AF8004CD04ED0FD010181013081F59C01BE01D1
:106B08006A5F7F4FE6EDF9E08B014FE13ED0285FE9
:106B18003F4FF901048D023011F00330F1F4008188
:106B28000130D9F004E0088300810983FD01058163
:106B380016810A831B834C834D830981002371F0DE
:106B48008E010E94CE4EEC81FD81008110E01A93E7
:106B580021D000E00C830D83F0CF1AD002E4400E60
:106B680000E0501EF201418152816381403050079C
:106B7800600721F08D01FA016CBF199500E0F20160
:106B88000083A596E6E00C94802650E00C944626F7
:106B98000C914A930A938E01085F1F4F0E94F337A6
:106BA800229608950E946D262801390141E050E09F
:106BB80060E070E0ACD0B0D009F101C03196ADD042
:106BC800E9F7319714C025D0212F220F220B322F3D
:106BD8000E949C25800F911FA21FB31F31970AE0C6
:106BE80010E020E030E00E949C25A801B901E415DE
:106BF800F50530F00ED00A30104028F300E006C04A
:106C0800F30180839183A283B38301E0E8E00C94CD
:106C18007E26008110E0005310400895BA93AA938D
:106C28002497D901F80120812D3299F49E010F5F34
:106C38001F4FB8DF0023D9F01FD01095209530954D
:106C480001951F4F2F4F3F4F0D931D932D933C934D
:106C58000CC0222361F09E01A5DF002341F00CD077
:106C6800FD01008311832283338301E001C000E02A
:106C78002496A991B9910895088119812A813B81A7
:106C8800089595D0B801290142D000241124222466
:106C9800332442D089F101C031963FD0E9F73197CA
:106CA80011C02755022F10E020E030E0482F0E9445
:106CB800C025000E111E221E331E31978C5F9F4F78
:106CC800AF4FBF4FE617F707C8F0803200E09007D4
:106CD800A007B00798F42081022F0156063008F368
:106CE800022F0154063010F42753DCCF022F005333
:106CF8000A3010F42053D6CF00E006C0F20100821B
:106D080011822282338201E0E6E00C94802680E042
:106D180090E0A0E0B0E00895F80100810023089514
:106D2800E5E5F0E100831183089541D0802FA7E0C5
:106D3800BAE04D905C9011970A3031F110E00F9451
:106D48009F32012B91F007E510E1401A510A05E541
:106D5800401600E050062CF5ADD080830D911C91B3
:106D68000F5F1F4F1C930E931CC0883051F41AD02C
:106D7800C0F400E0FD01A081B1810E93A083B1832E
:106D880010C08B3171F409C00DD038F400E0ED91DA
:106D9800F52D1197008307E50CD007E510E10D9359
:106DA8001C93B2CF07E510E10415150508950C945E
:106DB8006F26BA93AA93AA979E0180D00023A1F1C7
:106DC800288139818E010E5F1F4F2017310761F12D
:106DD800E5E5F0E1A081B18101C019960D911C9102
:106DE8001197012BE9F02D91312F11970A811B8101
:106DF8000F941634012B89F79E018D0117D00023BB
:106E080021F417960D911C910DC08E010A5F1F4F3A
:106E180014964D915D916C91FA016CBF199504C05F
:106E280005EF19E00E940C31AA9623CFC0DF290193
:106E3800F80182819381D901169609C09D010D91AF
:106E48001F2F1197EBDE002389F101961496FC01A0
:106E580064DFF2010081118131F1A017B10730F52B
:106E6800FC010081035629F00A9551F0055041F0C4
:106E7800ECCF20D001810023C9F400810C93E5CF29
:106E880019D000810033D1F60181083711F0083597
:106E9800A9F69D010D9111970E5FFF4F1F2FF1DE8F
:106EA800002399F603C0A017B10711F000E001C054
:106EB80001E02ACFED91FC91119708950D01D801B9
:106EC80000E0A9014E5F5F4FF9014083518305C07F
:106ED8000C910032F9F500E01196FD0110811123A3
:106EE800B9F1102F002339F01A9519F11A9549F1C3
:106EF8001A9571F3F1CF1C91103271F3F9014081A9
:106F080051818901065D1F4F4017510718F50C91F3
:106F1800023249F402E023D0BD016F5F7F4FFA01CE
:106F280060837183D9CF01E01AD0FA01A083B183BD
:106F3800D3CF1C91123271F0103271F600E00C932D
:106F4800CBCF1C91123241F603E010E01C93C4CF62
:106F5800023011F400E001C001E0D0010895BA0147
:106F68006C5F7F4F608371830895EBE0F2E108EC7A
:106F7800038700E0048709E110E00587168706E02B
:106F88000787108B118B09ED11E1048B158B02E338
:106F980010E0068B178B0DEA10E1008F118F0CE2C1
:106FA80011E0028F138F01EF17E320E0048F158F94
:106FB800268F00E0078F00A301A302A38F010D9481
:106FC8009B2B05D00D94812C02D00D94012D422FBE
:106FD80050E098010BE012E108950C941231EF97FC
:106FE800EF97E697BE016C547F4FA80124EB30E081
:106FF8008E010F943734202F8E01E3DFEF96EF9642
:10700800E696089508950093250A06E21AE00C947E
:10701800F1310E947126D801922F0F94130F00238B
:1070280089F40091DE13002369F445EB51E020E078
:1070380030E0F0D10F941F3301E0B4D0A083B183C6
:10704800928307D0E4E00C9482263EC00091DE13C0
:1070580008950EE318E320E0E0D106E3D4D10DEF64
:107068001FEFE7E7F2E1B4D104EB0093BC12D2D1F1
:107078000D94211021970091250A002339F0EBD1B6
:1070880010D00881002339F408D005C006D000E0EC
:1070980084D009F07FD02196089504EB10E00C9479
:1070A800EA3109E01AE00ED049D00F94032A07E12B
:1070B8001AE00F94032A0FD00C94033207E11AE068
:1070C80001D002C00D94282A00E00093DE1300933B
:1070D800DF130895F0CF1FEF2FEF3FEF02E0089581
:1070E8009A938A93C8011091DE132091DF1301E06F
:1070F8002027122301F122D0E5DF01E00093DF13FE
:107108000E94493448E050E098010EE713E10F94DB
:10711800E43220E0FC014181528102E0209FF0012D
:10712800E258FC4E0081F181E02F40835183239582
:10713800243080F30AD089919991089507E11AE0E3
:107148000F94282A09E01AE008956ED00430D9F483
:1071580011E001E00E94EB3153E041E01FEF66D0FF
:1071680022E0029FF001E458FC4EA081B1812D91EC
:107178003C9102E00E94133200E00093DF130DD02F
:1071880041F008D006C000E00093DB13009387139A
:107198000ED0B1C0FA016CBF199404D0408151815E
:1071A800628194C10093DE13E0EEF3E108953CD0D0
:1071B8007BD200E0009386130DE119E320E084D030
:1071C80006E010E0A4E7B2E18FD084D001851285F3
:1071D800AEEBB2E189D005850093C01200E009C08A
:1071E8005ED1A281B3811AD0AF53BD4E2D933C938B
:1071F800039515850117A0F304850093E31200E0B9
:1072080009C04DD1A481B58109D0AC51BD4E2D9393
:107218003C93039514850117A0F369C0A00DB11D17
:107228002D913C91D0010895BA93AA9300918813A7
:1072380008959801235F3F4FF80104850D3009F444
:1072480011C1002309F026C000918613002349F4D8
:1072580001E00093861344E150E009E813E10F943C
:10726800E4320895E8E8F3E1008103950083089586
:107278004EE350E020E030E00DE913E10F941F33B6
:1072880049D1442321F054D1002309F005C000E07E
:1072980000938613E7DF59CFF5D0E5E7F3E141899D
:1072A8008FD1E00FF11F02E819E320E00DD004E0D0
:1072B800A4E7B2E10D935C930DD00281E00FF51FB6
:1072C80002810093BE1213C0A7E1B3E10D931D9391
:1072D8002C93089502E000937612B6D1A7E7B2E1A5
:1072E80003D0B2D1ACEBB2E10D931C9308950EE23A
:1072F80012E10F942110A991B99108950E946F2667
:107308002197280150D1C2010D96A5D0F20104851C
:10731800002309F04DC020E017C0028113814DD031
:10732800428553854017510749F440919D1352E017
:10733800459FB1D04DD0EDE9F3E196DF3395FD01DE
:107348000585301750F32395FC010185201710F4AB
:1073580030E0F5CF20E017C0048115812ED045A577
:1073680056A54017510749F44091BC1352E0459F78
:107378008DD02ED0ECEBF3E177DF3395FD0104855A
:10738800301750F32395FC0104A5201710F430E0C2
:10739800F5CF5DD1E7E3FAE00E94CE2611F41BD0C9
:1073A80008C00881023011F45ED003C053D001C078
:1073B80055D02196E6E00C94802642E0349F000DDB
:1073C800111DF80141D1249FFC01E00DF11D089524
:1073D800008311830895F3D0F801EB58FC4E4081E7
:1073E8005181ECEBF2E14083518300E00283038397
:1073F80006E11AE320E011D001E005D0E7E7F2E169
:107408004083518334CE10E0E4E7F2E1E1DF02E0AB
:10741800028308950EE212E10895E7E1F3E1D8DF6F
:10742800228308952FD02197D8011C960C911C9780
:10743800002369F410D01D9606E713E1FD0111D170
:107448000881023011F40FD003C004D001C006D067
:10745800219651CF3FC09E0101E212C15BD068D096
:107468000A95008305CF0ED002C014D01BD05BD084
:10747800E1F764D002C009D015D04FD0E1F75ED053
:10748800EDDF39CFBA93AA93089509D0F001E354F8
:10749800FC4E089504D0F001E256FC4E089512E027
:1074A800019F0895D1D033D093DF4CD0002339F019
:1074B80081D0FBD007D019F02AD0C6D06BDEE7E820
:1074C800F3E1D2CE46815781608500E04030500715
:1074D800600708950091DB13002331F424D079F478
:1074E80001E00093DB132AD018D059F413D020D030
:1074F8000A9500835093DB1350938713B3CFCADFE9
:1075080001C0C3DFA1D003D063DF5FD0D8CFECEDDB
:10751800F3E108954091861308950091871310911F
:10752800BC13101708950091871310919D13F9CF7C
:1075380047D0F801E958FC4E0081089500E0009317
:10754800871308959FDF6E972ED09E0198D025E768
:1075580033E135D0200F311F8E01085F1F4FFE0128
:107568002BD0FD010385088B6ED0098B1A8B03E0A5
:107578000B8BE6E7F3E18E010C5E1F4F1DD0F9017E
:107588000281200F341FF90102810C8F8E01085FE0
:107598001F4F0E948FCD0D8D002311F000E001C018
:1075A80001E06E96A8CE06D0F001E258FC4EA0810C
:1075B800B18108953BDE73CF48E00C944626AADFDC
:1075C80050E004E110E00C9459250E947126299797
:1075D800EADF85E793E1F3DF800F911F9E012F5FBC
:1075E8003F4F4DD038DFAEDF0093E31307E41BE3D2
:1075F80020E013DF01E210E0E4E7F2E135D027D024
:10760800E9E7F2E134D0ECEBF2E131D0FC010281A0
:1076180010E0800F911FFC0102810093C41213D067
:10762800E5ECF2E121D09E012F5F3F4F08EC12E11B
:10763800F90117D0FD0103850093D012EBDE0F94FA
:1076480021102996FFCC63DF008111810895E6E7B8
:10765800F3E1FADF228133814481558166817781A4
:10766800089548E050E0A9CFB3DE03E0D1CEB0DE04
:10767800228333834483558366837783089500E0A8
:1076880010E00C944565FEDE2091E313222351F0AF
:10769800F8010585002331F4C9DD06D013DF11F0A8
:1076A800D2DF78DDD7DE27CEFADED001A258BC4E75
:1076B800ED91FC910895E0E6FAE0078D002329F0AA
:1076C800025021F0025099F0089560C000A1102FD7
:1076D800139510A3033049F006E41CE320E0078B60
:1076E800108F218F8F010F94010D03E0C8C00C94F7
:1076F8003D34BA93AA93A197D801EFE3FAE08E013B
:1077080041E250E00E9446260C914A930A938E016A
:107718000E5F1F4F0E94F3372296FD010081013949
:1077280091F40091820A002349F410D100E00093FB
:10773800800A0E94293819D10AD005C000E00E94A9
:107748003B3E0F94432EA196A991B991089502E06A
:1077580000937F0A2FB7F894EDECFBE000811181CC
:107768001061118300832FBF0895089510917F0A37
:10777800153059F015E010937F0A0093810A0E9492
:107788004C3404E81AE00F94AB0A08958A932B97B7
:1077980071D0DFD00B811C812D813E814F815885AE
:1077A80069857A85E7E3FAE00E94CE2629F0E9EABE
:1077B800FAE00E94CE2638F08E010D5F1F4F0E941E
:1077C800976458D0CAD000E00A839E012E5F3F4FCD
:1077D80008E1C3D02AE73AE004E0BBD001E04FD08B
:1077E80002E008839E0101E2B8D00FEF0B830C83FF
:1077F8000D830E830F83088709870A879E012D5FF3
:107808003F4F04E3AAD000E009839CD00DE1A5D046
:107818009EDF2CE93AE005E30E9423490E94523496
:107828000E94073801E010E40E948E3E01E010E457
:107838000E94AA3E002369F001E010E40E94083E7D
:10784800002339F010E000E094D001E00093830AAF
:107858000CC006E010E00E94AA3E002321F006E0DA
:1078680010E00E94083E0E942F340E94B0332B96ED
:10787800899108959E012D5F3F4F00E00895009380
:107888007F0A0895BA93AA9329974FB7F894EDEC15
:10789800FBE0208131813061318320834FBFA0E636
:1078A800BAE0F8010785002339F54CD007E051D03C
:1078B80049D009E152D05A969D014ED000917E0AD6
:1078C800013019F000E000937E0A04E0D8DF10E0F0
:1078D80001E00E94EB311091830A2091810A01E0B6
:1078E8002027122B69F504E514E320E00E940D38E7
:1078F80000E00093810A24C002E0C1DF0091830AFE
:107908000023F1F09E0101E124D0488101E010E05C
:1079180020E030E00E94C025FD01428D538D648D2A
:10792800758D401751076207730719F45A969D0120
:1079380005C009831A832B833C8304D00DD006D05D
:10794800299602CF9E012F5F3F4F089511E001E075
:1079580010C010E00C94456504E010E00C946465D8
:1079680004D000E00093800AF3CE10E000E00C940D
:10797800EB319A938A932697902F812F9E0101E2EB
:10798800E8DF0881023041F401E00C839B830A831D
:1079980003E009838D830AC0013059F400E00C83A9
:1079A8000B8301E00A83098300E00D83CBDF06E344
:1079B800D4DF269689919991089501E00093820A6F
:1079C80008950E94A74B0E94B84BFDCFF80124A34D
:1079D80035A325E123A321E026A308950DD020E0B7
:1079E800208B00C0218B228B2091B517322F339525
:1079F8003093B517238B0895F80120834183528370
:107A080044E051E043875487358766877787089530
:107A18009A938A936F970E941D35C801012B39F4F8
:107A2800E1EBFAE08E014FE113D00E94F3378C01AD
:107A38006F968991999108957B2F2A2ED801642FEA
:107A4800F90145E105D050966C93A22DB72F089502
:107A580050E00C9446264AE45DE360E0EDECF4E186
:107A680040835183628344E050E0EAE2F4E14083DA
:107A7800518332E03283EDE2F4E173D0E2E7F4E1DE
:107A880070D0228304EE13E10D94211008950E9412
:107A98007126D801822F0E944934A80108EB1DE302
:107AA80020E0EDECF4E15DD0228306E010E0EAE2AC
:107AB800F4E157D002E00283EDE2F4E1A083B18360
:107AC800E2E7F4E1A083B18304E011E0E4E7F4E144
:107AD80048D000E012E0019FDA01A00DB11D36D0B8
:107AE8001385181749F505850093761420E009C019
:107AF80002E0209F028113812DD0E958FB4E31D03E
:107B0800239524D00585201798F3048500939914AC
:107B180020E009C002E0209F048115811BD0E656B1
:107B2800FB4E1FD0239512D00485201798F304EE3E
:107B380013E10F94211007C00395043058F200EDAB
:107B48001AE00E94F337E4E00C948226ED91FC9150
:107B580011970895000D111DF80100811181F001A0
:107B6800089500831183089508950E946B262F9726
:107B7800502E412EC9013A014B014ADFD801012B91
:107B8800F1F101E00E836F82788689869A8600E09B
:107B98000983EA2FF12F07A110A50A831B8306E0AA
:107BA80008838E010A5F1F4F0C831D838E010E947C
:107BB800A14E398126E08D0109DFFD0153A2BC01E8
:107BC800342D40E050E020E08D01025F1F4F06DFBA
:107BD80001E0FD01068F498D5A8D6B8D00E0403024
:107BE8005007600721F407E01EE320E002C08A0185
:107BF800262F0387148725878D010E9453352F96DA
:107C0800EDE00C947C26089525D041F080E0A0E0BA
:107C180012D031F019D011D177D011F400E007C09B
:107C2800A395A830A8F38395863088F301E02696BB
:107C3800E3E00C948326FE0190E0E80FF91F208111
:107C48004A2F5CD02023089508E0809F80010A0F06
:107C5800191F08950E94722626979E01FE0140E092
:107C680086E041938A95E9F722D1002308950E947E
:107C7800694700E008959A938A932A9720E060E084
:107C880030E0E4E3F5E1E20FF61F462F37D010812C
:107C9800102329F0009510811023108306C06395E6
:107CA800683098F32395263050F308E0209FC001F0
:107CB800860F931F8C0126D071F49E018C010E94BF
:107CC800E04122D051F0ADD0E3D039F0002329F0C3
:107CD80020E0A2D002C08C0182D020E0F0E0E22FA8
:107CE800EC5CFA4E0081002311F066D003C02395A6
:107CF8002630A0F32A9689919991089501E010E021
:107D08000C9463250E949B47002311F001E001C0F9
:107D180000E0ABCF0E946F262397280180E04FD068
:107D280001E0401600E4500629F009811A81041583
:107D3800150529F42FEE3AE008810E94234983951E
:107D4800873268F32396E6E00C94802683DF39F0C7
:107D580080E0A0E070DF29F077DFD4DF11F400E0E5
:107D680007C0A395A830B0F38395863090F301E05F
:107D78005ECF0E9470262397402E90E080E01FD0AF
:107D88000881041579F429811A81422FE0D0502FF7
:107D980043E0022FD6D0F801EC5CFA4E0081052BA7
:107DA800008391E08395873250F3992309F004D03A
:107DB8002396E5E00C94812600E00C94B03F03E0A4
:107DC80010E0482F50E00E945925ECEEF3E530E032
:107DD800E00FF11F03E010E0DE010D94F1329A93F9
:107DE8008A935FD0C1F00A811B81012B21F00C819D
:107DF8001D81012B11F426E70FD013D06C817D81F2
:107E08004A815B8120E030E08C010E949746002384
:107E180011F024E801D06ECF31E00FED1AE00C9498
:107E2800EB484E815F81688500E04030500760076D
:107E380019F0FA016CBF199508950E94712631D086
:107E480011F10A811B81012B21F00C811D81012B6D
:107E580011F427E9E1DFE5DF8C010E943F47D801F3
:107E680017D089F0002319F02DEAD6DF0CC0BD0128
:107E78004A815B812C813D818C010E94EE3F002369
:107E880011F001E001C000E02A96E4E00C9482269B
:107E98004C815D812A813B818C010E9442460230DF
:107EA80008952A97C8019E010E94E041DECE0E94F3
:107EB8006F262997602FC901023000E4100759F492
:107EC80046E050E02FEF30E08C010F941F33FC01A7
:107ED80000810E7F32C016FB3EF59E012E5F3F4F9C
:107EE800062F0E94FB410023E9F0442455240D810C
:107EF8001E814016510610F502E010E0409EEA810E
:107F0800FB813C81E00DF11D67DF48811CD00881B1
:107F1800198117D0FC01E00FF11F0081022B0083AB
:107F28004394E4CF00E00BC0462F0DD0062F09D0B4
:107F3800800F911FFC010081022B008301E029962C
:107F480002CF0C94682503D0202F43E00895477092
:107F580001E00C9441250895402F34D0ECEFFAE06D
:107F68001381102B13832FB7F894EDECFBE00081FD
:107F780011811062118300832FBF08953091FF0A89
:107F88003323F9F020E001C02395422F1BD0132F93
:107F98001023D1F330273093FF0A422F50E003E03B
:107FA80010E00E945925F801E450F54F0081118135
:107FB8002281F8012CBF19950091FF0A002309F0CE
:107FC800D2DF089501E010E00C9463250E94A047D9
:107FD8000C9427460E946D263801D9012A01CB014D
:107FE800AB0192019BD08301E0E0F0E0FBBFF4E439
:087FF8000C94FA258D01A3D0C1
:108000001AC00D911C9111970F3F1F4F99F400E07A
:108010000D930C930FC012D0AFD10CC00FD074D100
:1080200009C00CD08ED106C08D011AD103C02BE936
:1080300030E083D101E0E8E00C947E26AC019201AF
:108040008D010895BD01AAE3B5E1E2E2F8E18D01F9
:1080500003D10091FE1800934215E9E3F9E103E42E
:1080600015E1F4D0F0D00681178120853185FD011E
:10807000018B128B238B348B0091B018058B0091F0
:10808000A718068B00911C19078B00911D19008FF2
:1080900000911E19018FE8E2F9E104E515E141E1E3
:1080A000DDD0D1D003851485FD0103A714A700916D
:1080B0000B1905A7E2EBF8E100811181FD0106A78C
:1080C00017A70091AA1800AB0091C71801AB009147
:1080D000411902AB0091491803ABEDEDF8E10EE652
:1080E00015E1B4D0EBEDF8E102851385FD0104AF95
:1080F00015AF0091431906AFEAE3F8E10081118161
:10810000FD0107AFFF9611830091431802830CE72E
:1081100015E1E6EBF8E19AD000910A190093841575
:10812000DB0108952A972417350759F09E0148D19D
:108130002985217011E02127022319F023ED30E079
:10814000FCD02A960895BA93AA93980100E010E013
:10815000F901E00FF11F10811F3F09F46CC002E22A
:1081600018E1F90179D0B901685F7F4FFB010191F6
:108170000093FE1809E319E16BD001841284238473
:10818000348461D00682178220863186AAE3B8E162
:10819000FB0105850093B01806850093A718078595
:1081A00000931C19008900931D19018900931E1961
:1081B00008E219E1F9017A9641E14BD003A114A13B
:1081C00042D003871487FB0105A100930B1906A178
:1081D00017A1E2EBF8E100831183FB0100A50093F6
:1081E000AA1801A50093C71802A50093411903A579
:1081F00000934918BC960DED18E12AD004A915A9E1
:10820000EBEDF8E102871387FB0106A90093431900
:1082100007A910AD0D931C9301AD009343182E5B7D
:108220003F4F06EB18E1F90111D0F90100850093E9
:108230000A1901E005C003950B3408F488CF00E06B
:10824000A991B9910895EAEFF8E1089548E006C0D0
:1082500048E004D0FB01089548E050E00C94462625
:108260009A938A932497C8019E012F5F3F4F00E2A3
:1082700031D002E02FD02E5F3F4F0BE112E00E9481
:10828000326520E020C0422F50E006E110E02DD002
:10829000FC01E00FF11F00810023A1F00881118192
:1082A000019F4CE080011BD0428B538B088110E072
:1082B000418150E04F5F5F4F18D04CE050E00FD04D
:1082C000448B558B239509812017E8F224968991D8
:1082D0009991089511E00E9445659E01089505D089
:1082E0004A815B81400F511F08950C945925BA01B2
:1082F0004217530740F4241B350BA90135D0060F54
:10830000171F0F941F3308950E946F264FD089F0D6
:1083100049D078F4FC01E40DF51D08EA058B76964A
:1083200006E14AD0D0F31ED007E021D011F025E6B7
:1083300003D0E6E00C94802631E000E01BE00C94D2
:10834000EB480E947126C801D9012417350739F07E
:10835000CEDF08D008E00BD011F02BE7EDDFE4E032
:108360000C948226BC01AD0120E030E0089510E0BD
:108370000E949746002308950E946F2617D089F027
:1083800011D078F4FC01E40DF51D06E000837D9624
:108390000DE112D0D0F3E6DF02E0E9DF11F02AE9C7
:1083A000CBDFC7CFA4DF4A165B060895C801D90109
:1083B0002A01241735070895400E00E0501EF3CF20
:1083C0000E946C262A973801290180E798E409E287
:1083D000802E0AE029D0088119810615170519F4A5
:1083E0004AE028D004C00A968A9499F700E02A96B9
:1083F000E9E00C947D260E946C262797380129011C
:1084000080E199E405E0802E07E00ED00D811E8109
:108410000615170519F447E00DD004C007968A9495
:1084200099F700E02796E4CF10E0FC0130E0DE0190
:108430000D94F13250E09E0182010F94E43201E08C
:10844000089573D419F400915D0BF6D108956DD49D
:1084500029F4F4D219F422EE30E026D50895F0C2C2
:108460008A9380E0E5E8F7E1408151816281403004
:108470005807680731F0FA016CBF1995002309F419
:1084800081E0082F8991089520E032E0239FF001D8
:10849000ED5BF44F408151810417150709F404C0C6
:1084A0002395223090F302C001E0089500E0089582
:1084B0009C01F6D0800F911F0F96807F868797874B
:1084C000C9010895BA93AA9320E001C02395309181
:1084D0005C0B2317A0F434E0239F82D24D915C9172
:1084E00011974017510791F712960D911C91139710
:1084F000012B19F42CE231E0D7D48D0101C045D015
:10850000A991B991089535D019F029E331E0CCD47F
:1085100064D2003818F02AE331E0C6D45ED214E009
:10852000019F05E815E1000D111D85D225892395D0
:10853000258BF8018083918389919991089519D0B1
:1085400019F427E431E0B0D48C01D8D174D2258954
:108550002A95258B34E0239FF001EB57FA4E40819A
:10856000518162817381F8014083518362837383F7
:10857000E3CF9A938A93C801C1D1012B0895BAD150
:1085800021F0F80102811381089500E010E00895C0
:10859000792F482FF801C9010FEF1FEF13C0319158
:1085A0001327212F12951F702127522F550F550F7A
:1085B000550F550F052730E2239F0125102F022666
:1085C000002D0197282F292B51F7842F972F0895DD
:1085D0002CE030E00E5F1F4FDBCF60D0D8012901C7
:1085E000CA01BA01A901980124D10E94E547BC0142
:1085F000A2019D011ED10E94EA48E6E00C9480266B
:1086000074D1C8010FEFE82FF12F00830183082FE9
:10861000DFDFFC0106871787A5E5BBE040E150E0FE
:108620009C010D911C911F97D1D069F440E150E05D
:108630001E962D913C91FDD00E94E648002309F43E
:1086400005D000E002C002D001E033C400E110E038
:108650004EC1229720E028832983FBC01FD0D80178
:1086600029011ED062D2B1F0042D052971F0FD015F
:10867000468157819201DFD106851785A7D029F45D
:10868000FD010681178133D105C0FD0106811781E7
:10869000A0D111F400E001C001E0AFCF0C946F262F
:1086A000CAD18685978508950E946526A597088377
:1086B0002B833C835A0100E009830A8366247724D4
:1086C0000DA91EA918D129F0060F171F09831A83B7
:1086D00003C027D3660E771E8B819C817A012A0105
:1086E000460E571E11C08D0111950195104029812C
:1086F0003A81200F311F29833A83BD014981532FCD
:108700008A1A9B0A940191D3E414F50441F401E020
:10871000A596E2E10C94762678018F859889082F3A
:10872000092B09F451C08FD24B5F5F4F9C0188D257
:1087300009851A8598014B855C85040F151F241542
:10874000350558F7E016F10640F70415150520F336
:10875000840D951D4096821B930B4C01E216F30687
:10876000D20128F4A21BB30B8F85988905C0AE19DE
:10877000BF098B819C8175014A1A5B0A09811A81A4
:10878000012B09F0B0CF0A2F0B2B09F4BDCFA1317B
:1087900000E0B00728F000E1C02EDD24509703C0B0
:1087A0006D01A0E0B0E06C187D088C189D08B60142
:1087B000AE014B5E5F4F940143D2A6019E012B5E3A
:1087C0003F4F830103D0F9F600E0A2CF06DFAEC130
:1087D00078D3D90133D021F42CD02ED02FD009F169
:1087E0000FEF0883098301E40A8304E50B8303E5A3
:1087F0000C830EE40D8306E70E8301E30F83888765
:108800009987AA87BB8780959095A095B0958C870E
:108810009D87AE87BF8740E150E09E01B6DED6DF80
:1088200011F400E005C064D006D10687178701E087
:108830003FC300915B0B08950C94534840E050E215
:10884000F9D1F7DF0E94E64871C122979EDE0883C6
:10885000098342E050E09E01C0DE002311F400E0F5
:1088600001C001E02296089540D06097A7E4BBE0E4
:108870003FD0FD0106871787E6D126853785D5D2FB
:1088800080E090E0FE01E80FF91F00810F3F31F416
:108890000196803100E0900738F5F4CF8E0198DE24
:1088A0002E853F852017310711F022D018C008818E
:1088B0001981012B89F48A819B818C011BD011F4D1
:1088C0008C0121DEFD0126853785F8012283338363
:1088D000B4D1012B09F4FBD224D1005F1F4F07D084
:1088E000FD011785103240F2E3C20C947126E0CDF1
:1088F00000E14CCE03D0202F212B0895E3CD0FD2E1
:10890000A09707E4402E0BE0502E0EE51BE00E94DE
:10891000A34C00E0F20100D170905B0B94D1405F5A
:108920005F4F88D1072D8DD1888D998DAA8DBB8DF4
:1089300081509040A040B0407CDF0395023008F0A9
:1089400000E000935B0B071519F42AE433E0ACD286
:108950008C019D013DDF002379F366241EC004E0F5
:10896000609E3ED070D130D06CD1F3D0F2018685BC
:108970009785DAD0C1F000E00A930A936A857B8577
:1089800040E050E021D090DE002369F0CAD021D031
:1089900051F0FD018283938363941FD06016F8F237
:1089A00054DF002311F400E00BC070925D0B07E46C
:1089B0001BE00F94282A07E41BE00F94032A01E030
:1089C000A096E8E00C947E26FD0122813381072DDC
:1089D00008958DDF8C013DDEA9C000915C0B0895E8
:1089E000A5E8B5E1A00DB11D089520E030E223D047
:1089F00066857785261B370B2017310728F41ED094
:108A0000C9F426E933E050C22031344098F4209173
:108A10005E0B222379F447E252E460E06A935A93B2
:108A20004A9340E157E260E070E021E00EE51BE090
:108A30000E94804C0895E7E4FBE0089560DF76C073
:108A40000E946B26609771D129F005E06096EAE0FC
:108A50000C947C26F0DF82899389082F092B29F456
:108A600000891189012B21F405C040968C01DCD1CD
:108A70006AD011F400E0EACFEA2FF12F59D05FD08D
:108A8000012B59F4DAD0005F1F4FCED15CD019F41E
:108A900029EC33E009D2FD014BD0CDDF86849784E9
:108AA0006884798402891389012BE1F040E050E069
:108AB00024E030E004E11BE00E94EC4840D0ABD160
:108AC0000A851B85A8D100891189A5D109E11BE080
:108AD0000E94ED48269633D008871987061517059A
:108AE00008F4380136D020D071F000E00A930A93E0
:108AF000B30140E050E09C01BDD129F012D0F7DE77
:108B0000840169DF11F401E0A1CF00E094DF04D01B
:108B1000FD0182829382AECF008B018B028B038B8F
:108B200008950E811F8108958E016ADD0023089546
:108B30008281938160E170E0AE019C0176C17BDFB0
:108B400002891389089577DF00891189D7DED8015A
:108B500014CDE1D0088519850E831F8300E0ACC1D8
:108B60009DDD609700E000935C0B44244A948FEFF6
:108B70009FEFAFEFBFEF552466D05CD0052D61D0DD
:108B800008811981012B69F50A81013451F50B81A6
:108B9000043539F50C81033521F50D810E3409F5C5
:108BA0000E810637F1F40F810133D9F446D02A85BE
:108BB0003B854C855D856E857F85080119010426FE
:108BC0001526262637264FEF0416140624063406EB
:108BD00041F4081719072A073B0718F4452CC80168
:108BE000D901539402E0501638F20FEF4016D1F439
:108BF00000E000935B0B08C01EDF04890395048B23
:108C0000023010F020E44FD10EEF1FEF2FEF3FEFB7
:108C1000DFDD002389F319DE002371F300E0009308
:108C20005C0B03C040925B0B1FDE01E000937C0BEA
:108C30006096E3CC20E030E008950885198508951A
:108C400008810C94B64760E170E0AE010895BA93D4
:108C5000AA93A2E5BBE000917C0B002309F480DF1E
:108C600001E00093510B01E212E420E00D931D930B
:108C70002C93179708E51BE120E00D931D932D938E
:108C80002C933ECC4CD06097D801C9012A01012B0E
:108C900029F0103F18F42130344010F023E603D1BE
:108CA000ECD0012BC1F08D01EAD00817190741F073
:108CB000C2DEA08BB18B828B938BC2DE002349F581
:108CC000042D052931F0B201AC01B4DF8D01AFD024
:108CD00020C000E01EC029D011F005E01AC0A1D0CC
:108CE0007CDE003810F02BE8DED01BD0AA83BB83DB
:108CF00012D08E839F8388879987DED092018ED091
:108D000011F401E006C08D01FEDBF801628273827E
:108D100002E0609656CE00E00C830D8308950C941B
:108D20006D2689DE6684778408959ADBFFCE0E94E3
:108D300069266097D8014901CA015B01012B11F036
:108D4000672B11F429EAAFD0F0DF11F005E05FC026
:108D500068D08D01D3DD2801012B11F403E057C049
:108D6000E42DF12F62807380A7E4BBE06CDF9301F8
:108D70005CD0088419842224A40160E0480F591FA4
:108D8000621D04161506260610F404E040C08C820D
:108D90009D828E839F836A867B86C3DE2885398584
:108DA0000217130719F42C862D8606C00C851D8525
:108DB0000F5F1F4F0C871D87FD01868597859501E5
:108DC0002DD011F401E023C0F201828393830C853E
:108DD0001D85053620E01040C8F00A811B81FD0189
:108DE000008B118B228B238B00916D0B002371F470
:108DF0000FE212E420E02A930ED048EB5BE060E043
:108E000070E021E096968D010E94804C00E0609613
:108E1000ECE00C947A261A930A9308958E011EDCD6
:108E200085CE8C01005F1F4FE0CD03DD0ACF77DFD9
:108E3000D801C9012A013B01012B11F0672B11F464
:108E40002AEF31D01AD057DD11F403E012C00C0123
:108E50002224040C151C221C21E0221638F47A92DC
:108E60006A92B201AC01980105D011F404E001C08E
:108E700000E0A7CDDEDC18DC59CE8D0127C09A9327
:108E80008A936097C801012B19F42AE135E00CD0D0
:108E90001CD031DD11F479DB04C0D5DE9801C5DFCB
:108EA000CCDE609649CB34E004E11BE00C94EB4847
:108EB0006096E4E00C9482260A870B870C870D8766
:108EC000089513DD6097C80108958C0158CB8C017B
:108ED00036CB0E947026802F0E94AF3F26DF11F014
:108EE00005E026C0882339F080E0082FA5DC8395B3
:108EF0008230E8F4FACFB0E040905C0BA0E00EC006
:108F000004E0A09FF001EB57FA4E808191818C0123
:108F1000BBDA002311F4DBDFB395A395A41580F32E
:108F2000BB2329F08BDD19F427E835E0BDDF00E035
:108F3000E5E00C948126CADF012B09F0B5CAB6CA58
:108F400000E0002311F026E4ACD0C6D0005014405D
:108F5000204030400F5F1F4F2F4F3F4F00301044D5
:108F60002040304011F02AE49CD008950E946B26E6
:108F700029013A014B018DD0840D951DAB1FBB1FFC
:108F800082D010F428E58DD040E054E460E078D041
:108F9000080D191D261F361F40175107620763076A
:108FA00010F429E57ED0480C591C01E0401600E27F
:108FB000500610F02AE575D08401FC013A2FD30148
:108FC0000F94F132EAE00C947C260E946A26490153
:108FD0003A012B015ED0AA24880D991DA31FB31F4F
:108FE000672B11F42DE6EED04ED010F42EE659D0BA
:108FF00040E054E445D0040D151D2A1D3A1D4017CC
:109000005107A206A30610F42FE64BD0840C951C42
:1090100001E0801600E2900610F020E742D0082F11
:1090200010E020E031E0281B30402415350510F415
:10903000490101C04201B301A40105C04201B301CD
:10904000A40100E010E020E030E00F94B43118D02B
:109050000F94353248185908880D991DAA1DBA1D5C
:10906000680C791C042D052941F001E040165006DA
:1090700028F3882499249394E2CFEBE00C947B2688
:109080008C019D01089528D0081719072A073B076E
:10909000089580E094E0A0E0B0E08ED0910FA21F90
:1090A000089530E08FC00E947026F3DF15D00030A5
:1090B00019072A07304010F420E9F3DF00E2402EC0
:1090C000DFDF0F94293280509F4FAF4FBF4F4A943C
:1090D000B9F7E5E00C9481260FEF13E420E030E0CF
:1090E00008950E9469266097002EC9015A014B011C
:1090F00000E014E0280166247724002D5DD0510E95
:10910000621EA0E0480E591E631E731E672B11F4E9
:1091100026EA58D0E1DF041515052605370510F4B9
:1091200027EABFDF40E054E482019301080D191DD6
:109130002A1F3A1F40175107A207A30710F428EA75
:10914000B0DF880D991D8130904240F029EAA9DFF7
:1091500005C0881A990A480E591E631E082D092950
:1091600031F101E1801600E0900618F080E190E016
:1091700001C0C4018C01F201362DDE010F94F132E1
:1091800020E001C0239530E02817390710F70A2D99
:109190000B2921F0F50101915F0101C00FEFFE01E4
:1091A000E20FF31F3081301769F300E001C001E0E6
:1091B0006096ECE00C947A2610E020E030E04DE080
:1091C0000C94C0250DE71BE00C94EB48BA0140E07D
:1091D00050E087CFFECF089508950895BA93AA93DB
:1091E0002297A0E9B7E1009193170023C9F09E01EF
:1091F00001E21CD09E012F5F3F4F0DE117D0088187
:10920000023071F40981002359F400E219E420E0EE
:109210000D931D932C931A978D010F94A90702C0EB
:109220000F94D0262296A991B991089510E00C943C
:10923000456501E0009393170895009193170895F1
:1092400008950D9463310E946F26502ED9016AD083
:10925000452D64D0402E00E4501608F026D09D0124
:10926000052DA1D00023F1F49D0104E917E10E942E
:10927000414A002371F448E050E020E030E08D01E5
:109280000E5F1F4F0F941F339D0104E917E10E94E9
:10929000E449A80FB91FFD0102810429028339D0D6
:1092A00004290283E6E00C94802603E010E8E5EA56
:1092B000F7E1008311830C94E34A0E946F26B02FDC
:1092C000290130D04B2F2AD0A02FB03408F0EDDF89
:1092D00092010B2F68D00023D9F00A2F0095480E79
:1092E000591EF201128110231283E4E9F7E107C04D
:1092F000F801E80FF91F22812A2351F4F8010081B7
:109300001181202F212BA1F7A09503D00A230283DE
:10931000C9CFFC01EC56F84E02810895477001E078
:109320000C944125069506950695802F90E00895AA
:109330000E946D26A02F3901F5DF4A2FEFDFB02FF5
:10934000A03410F004E0B2DFE4DF0B2319F1E4E90C
:10935000F7E11BC0F201E80FF91F02810B23A1F016
:10936000F20142855385648540305040604011F4DD
:1093700005E09CDF372DF201028513852485F80175
:109380002CBF262D0A2F1995F20140805180042D03
:10939000052901F7E8E00C947E260BD0F0E0E02FE1
:1093A000EC56F84E0BC005D010E0200F311FF9012C
:1093B00005C0402F069506950695089502814770D1
:1093C0000E944625017008950E947126C801D901A6
:1093D00058D0002300E049F010E8E5EAF7E1008307
:1093E00011830E94C94A00E011C00D930C9311979C
:1093F000FC0100811181012B31F0008102C000814C
:10940000132F16D0E1F7A083B18301E0E4E00C94C0
:109410008226BD010DD041F02081D9014D915C9192
:1094200040835183890102C000E010E0DB01089510
:10943000F80120813181232B0895BD01422F432B58
:10944000F1F0F801408151814217530731F4DA01FC
:109450002D913C912083318310C0FA0101C0F801A5
:109460000E2F0F2B61F00081118102171307B9F73E
:10947000D8010D911C910083118301E001C000E02F
:10948000D5CFF80100811181402F412B29F002171F
:109490001307B9F701E0089500E0089502E81BE022
:1094A0000C94A56CF80102811381202F212B09F463
:1094B00025D00F94E73301E00093890B02E91BE00C
:1094C0000D94032ABA93AA93AFE8BBE00091890BED
:1094D000002389F002E91BE00F94282A02E51AE430
:1094E00020E00D931D932C931F9700E00093890BB0
:1094F0008D010E94A56CA991B99108959A938A93C0
:109500000F944B2AC8010E94867720E032E0239F07
:10951000F801E00DF11D40815181842795272395A5
:109520002430A8F38C018991999108950E946926AD
:109530002801CA01DB0138018824992409C00F944D
:109540002833F301019311933F0101E0800E9A1C2F
:10955000AA24BB248C019D01369527951795079564
:1095600080169106A206B30650F380FB4EF40F94CA
:109570002833480E591E1FEF410E511EF201008381
:1095800000E010E0ECE00C947A2602E91BE00D9478
:10959000282A02D002E003C0EEE9F7E1089510E0C6
:1095A00000831183078110850283138344815581D1
:1095B000668100E040305007600721F08F01FA011A
:1095C0006CBF19950895E8DF03E0E9CFBA93AA9339
:1095D000F801218332834F3748F001E010E8E5EAD3
:1095E000F7E1008311830E94C94A1EC010811170E7
:1095F000440F142B108351870A8100FB008100F96E
:10960000008363837483A181B28134E003C000E0EE
:1096100013960D930181128120812695239F000DC1
:10962000111DA017B10798F3A991B9912296089539
:109630000E946E26D8012901642E80E090E03FD080
:10964000FD012181328189010AC0582F592B21F057
:10965000FC015381451708F4C8010C5F1F4F4C9162
:10966000469554E0459FA90169D070F4F801438103
:10967000442359F3608171816415750531F7528176
:10968000561519F700E018C00C9100FD09C0082F0D
:10969000092B21F0FC010381002329F002E00CC01A
:1096A000082F092B41F0FC01408251826282FD01AA
:1096B0000185FC01038301E0E7E00C947F260E9412
:1096C0006F2628010F944B2AC801D901F201458168
:1096D000568167817085041B150B260B370B438160
:1096E000548160E070E00E94CA250F3F1040204086
:1096F000304020F4202F002311F41DC02FEFE42D63
:109700000181128164E005C03381341B33830C5F17
:109710001F4FF2014181528130813695369F0ED024
:1097200030F4F8014381241778F7422FEDCF858379
:109730009683A783B087E6E00C948026400D511DE8
:109740000417150708950C94624A0C94C65A0F9496
:10975000F0270E94C465002311F402E008952FB79A
:10976000F89418D0006116A705A72FBF01E008954F
:1097700016D020E030E00BE20E94984908D011F4A6
:109780000E94EE4804D009F0F1CF00E0089502D025
:10979000012B0895E0EAFBE005A516A50895BA930C
:1097A000AA9320E0E0EAFBE0422F01E010E00E94F3
:1097B000632547A550A965A576A5462357234023D1
:1097C0005123452B59F13FB7F8940095109545A5C5
:1097D00056A54023512345A756A73FBF022F10E0AF
:1097E00043E050E00E945925E00FF11FDF014D9149
:1097F0005D916C91129740305040604041F406E01A
:1098000010E8E5EAF7E1008311830E94E34A0D9135
:109810001D912C91F8012CBF199503C023952F3071
:1098200018F2A991B99108950E947026D801C90132
:109830000D911C911197012B19F44424439401C0FC
:1098400044240A2F0B2B11F0232B11F407E040D0F6
:109850009C018D010E94E449042DE5E00C948126D1
:109860000E946F26C8012901012B11F0232B11F44E
:1098700008E02ED027D011F409E004C04A165B0698
:1098800021F00AE025D000E01AC08C010E94094AAC
:1098900019D0A1F0FD0144815581668140305040CE
:1098A000604011F40BE014D0FD01228133818C0162
:1098B000448155816681FA016CBF199501E0E6E0AB
:1098C0000C948026FC01A081B1810A2F0B2B0895F6
:1098D00010E8E5EAF7E1008311830C94E34A0E9463
:1098E0007126D801C901012B11F0232B11F40CE0D2
:1098F000EFDF9C018D010E94414AE4E00C94822636
:109900000E946D263801422ECA01DB011CD000E006
:10991000F3010083438687839087A187B2870885F8
:1099200019852A85048715872687EBE00C947E2607
:10993000F8012081222331F421E020830F5F1F4FA3
:109940000F94032A0895F8012081213031F420E09A
:1099500020830F5F1F4F0F94282A08950BC000E04B
:1099600006D0008301830895A991B9910895E7EA8B
:10997000F7E10895FCDF00811181012BC9F0E0912E
:10998000A717F12F018412842384F1DF0081085F7F
:109990001F4F20E02083218302161206220629F49D
:1099A00002E017EC06D00C94E34AF0012CBE1995A6
:1099B0000895E5EAF7E1008311830895BA93AA9325
:1099C000D80100E01A960C931A970C910A9529F089
:1099D0000A95F9F0025081F019C012962D913C9130
:1099E0001197285F3F4F0D911C9113970E94C4E47B
:1099F00011237AF404E00BC020E012960D911C9123
:109A00000E941CC200E00E9458C203C006E81A96D9
:109A10000C93AACF43E061D009EA17E157D000E0E8
:109A200023D10183028308950E946D26D801290164
:109A3000F90187A190A505E0602E4ED00A2F46D0EF
:109A400082D4037E023010F000E03DC0008103703C
:109A5000FD01028378D402FB3BD0058374D403FB61
:109A600037D0038370D404FB33D0048305810023F3
:109A700031F4F20187A190A5029703E0602EFC016A
:109A800001811281FD0106831783FC010381FD0121
:109A90000087FC010481FD010187F20107A110A5E7
:109AA000FD0102871387F20107A110A57724060D97
:109AB000171DFD01048715876C92F20105A1061997
:109AC000FD010183062DE8E00C947E260D941F33E2
:109AD00000E000F9FD0108954EE050E020E030E0A4
:109AE00008953B2F4A2FF801A285B38500E00C931F
:109AF000028103700C93158110FB00E002F91C91A8
:109B0000102B1C93138110FB00E003F91C91102B08
:109B10001C932481012F20FB10E014F9012B0D93DD
:109B200005E000830581002331F4A285B3851297F7
:109B300003E0008305C0068117810D931C931297E3
:109B4000018514960C9314970085FD010383A42FBF
:109B5000B32F08951B2E2A2ED801F9010389EA2F6D
:109B6000F12F028FF9010389023029F40489158944
:109B7000FD01038F148FF9010389033049F4B90102
:109B80006A5E7F4F8D01035E1F4FFB0148E0E1D508
:109B9000F9010289FD0102A7F90100A1FD0105A358
:109BA000F90103A114A1FD0100A711A7F90101A169
:109BB00012A1FD0106A317A30FEE1DE420E001ABE7
:109BC00012AB23AB07A50F7707A7046207A700E036
:109BD00000ABB4D305A716A7A22DB12D0895045349
:109BE00010400C949E542FD42297D8019E012F5FD1
:109BF0003F4F0AE10FD59E010CD50091A91710E047
:109C0000898190E00197081719073CF50881FD014B
:109C100025A136A10217130702E000F10E941F548C
:109C2000C801012BE9F042E350E09D01082FB4D0B8
:109C3000FD0145A156A127A130A514D0ADD012D069
:109C400007A310A79C010AEA17E10E94E4491AD071
:109C50000BD000810395008303C000E013EC52D1C8
:109C60002296EEC3FC016AC3E9EAF7E10895009188
:109C7000A917002331F06AD30091A917002309F036
:109C800001D0089501E00C949755DDD32397F80196
:109C9000222321F0A481B5818DE303C0A281B38189
:109CA0008FE483500081E4E2F0E0FBBFF4E40C9425
:109CB000F625FD018281880F8D5F3BC0FD01028189
:109CC0000023A1F59D012C5F3F4F038126D10C5F3E
:109CD00002C01ED10D5F802F2CC00C91013011F4F9
:109CE00085E027C088E0AE019D01285F3F4FFD0160
:109CF000038122D0F1F48881885F1BC00C9100237E
:109D0000C1F4FD010181013011F486E012C089E047
:109D1000AE019D01275F3F4F04810ED051F4888131
:109D2000875F07C082E005C081E003C083E001C017
:109D300084E0082F239684C30E94575A0A81013079
:109D400008950E946F26280180E0012B11F48FEF07
:109D50001FC021E0042D99DFA02FF201E181F0E086
:109D6000E00FF81FFB9798F4402F50E0F201248198
:109D700035810281138110D0F20101810A0F018324
:109D8000028113810A0F181F0283138301C08DEF14
:109D9000082FE6E00C9480260D94E43254D3D801C9
