:020000020000FC
:100000000C943C250D94703F0D94733F0D94753FF7
:100010000D947A3F0D947F3F0D948D3F0D94923F48
:100020000D94B23F0D94BC3F0D94BE3F18951895AA
:10003000189518950D947F3C189518950D94A93C2A
:100040001895189518951895189518951895189548
:100050001895189518951895189518951895189538
:100060000D94ED410D94C33E0D94B53E0D94B93EF3
:10007000189518950D948C410D943F40189518953E
:100080001895189518951895189518951895189508
:100090000D94013F0D94D33E0D94F43E0D94DA3F40
:1000A00018951895189518950D94453E0D9408438C
:1000B00018951895189518951895189518951895D8
:1000C00018951895189518951895189518951895C8
:1000D00018951895189518951895189518951895B8
:1000E00018951895189518951895189518951895A8
:1000F0000D94364318951895189518950D943A4314
:100100001895189518951895189518951895189587
:100110001895189518951895189518950D94694384
:100120001895189518951895189518951895189567
:05013000189518951858
:10440000001101A43F00213F0001233F0001283F8C
:104410000001313F00013F3F0001443F0001483FA0
:1044200000014D3F0004583F00FB0001006B5800A5
:1044300009005258005F58006E58006E58006858C6
:10444000005558006258006558006E580000000082
:10445000E966001700E26600AE6600B96600E9662C
:1044600000E66600E96600BD6600E86600E66600F4
:10447000CE6600B96600E96600E66600E66600A959
:104480006600E96600E96600E26600E46600E2664E
:1044900000E46600E66600E866000000426B001774
:1044A00000CB6A00EE6A00FB6A00FB6A00EE6A005D
:1044B000FB6A001E6B00EE6A001A6B00EE6A0016C3
:1044C0006B003F6B000F6B00EE6A00CB6A00426B23
:1044D00000426B00226B00EE6A00296B00EE6A005E
:1044E000306B00EE6A000801FF7200BB720001BE73
:1044F000720001C1720001C4720001C7720001CADA
:10450000720001CD720001D0720001BB720008BBC5
:10451000720001BE720001C1720001C4720001C7C5
:10452000720001CA720001CD720001D0720001BA9E
:10453000720001BD720001C0720001C3720001C6A9
:10454000720001C9720001CC720001CF720001BA81
:10455000720001BD720001C0720001C3720001C689
:10456000720001C9720001CC720001CF720001BB60
:10457000720001BE720010D5720001D5720006DF14
:10458000720004F3720004DF720001DF720091C355
:10459000720006BE720001BE720007D0720001D226
:1045A0007200FB0040011090004D900001A38F00AD
:1045B000014F9000014F9000014F900001A78F0024
:1045C00001AB8F00014F9000014F900001B28F00AE
:1045D00001B68F0001BA8F0001BE8F00014F90001D
:1045E00001C28F0001C98F0001D38F00014F9000DD
:1045F00001D78F0001DB8F00014F900001DF8F009A
:1046000001F28F0001019000014F900001F68F0030
:1046100001FD8F00014D9000014D9000014D900073
:1046200012EC8F00024F9000014F9000014F90005C
:10463000014F9000014F9000014F9000014F9000FA
:10464000014F9000014F9000014F9000014F9000EA
:10465000014F9000014F9000014F9000020C90001C
:10466000014D900002E88F0001059000FB00400121
:10467000C29000A990000167900001BA900001BAB1
:10468000900001BA9000016A9000016E900002BA99
:104690009000017190000174900001779000017BFF
:1046A000900001BA9000017E900001819000018489
:1046B000900001BA900001889000018B9000028F59
:1046C0009000019D900001B3900001BA900001A0FC
:1046D000900001A3900001BB900001A6900001A6EC
:1046E00090001297900002BA900001BA900001BAAF
:1046F000900001BA900001BA900001BA900001BA8E
:10470000900001BA900001BA900001BA900001BA7D
:10471000900001BA900001BA900001BA900002BD69
:10472000900001C090000293900001B79000FB0040
:104730000101A69F001A9F00017D9F00018A9F0032
:1047400001FB9E0003869F00018A9F00018C9F0051
:10475000019E9F0001949F00039E9F0001149F00F3
:1047600001A09F00FB00010024A2000E0000A20097
:1047700003A20006A20006A20009A20015A2000FD3
:10478000A20012A20024A2000CA20018A2001BA2E8
:10479000001EA20021A20000010071A2001000333F
:1047A000A20078A20078A20078A2003AA20057A244
:1047B0000048A2004FA20071A20041A2005EA20028
:1047C0005EA20066A20078A2007FA20082A2000082
:1047D00024012DBB0043BB00014ABB00015CBB00B0
:1047E0000333BB00013FBB000472BB00017CBB0074
:1047F0000189BB00018DBB000231BB000150BB0031
:104800000117BB00FB000000012815011B15010169
:104810001D15010123150101231501011F150101BA
:10482000231501012615010A231501012315010293
:104830001915010121150101231501FB0000019C3F
:104840001501671501016A1501017315010176153E
:10485000010179150101961501019915010A7C15CF
:10486000010190150103931501016D1501FB010074
:10487000D035010C00183501513501243501413581
:1048800001AC35015135018C3501B035016335017D
:104890008C3501AE3501C335010011001600E1066B
:1048A0000000000012000A003E0700000000130094
:1048B0000A0048070000000014001100020900006F
:1048C0000000150016007B05000000001600160011
:1048D000A505000000001700B0001C1D000000002E
:1048E00018001600190C0000000019001600430CF7
:1048F0000000000001004B00A324765800000200D5
:1049000091001B2A000000010300D7000D390000B0
:104910000002040003002C2800000000050016001F
:104920004D330000000206000200312800000000A4
:10493000070034016037000000010800180035331B
:1049400000000001090001001228000000007A5652
:10495000000900034068560009000140FF93EF93EF
:104960003BB72BBFF80106913BBFEF91FF91089534
:104970007F937FB7F8949D9AA5980AEF0E94172518
:104980000AEF0E9417259D9806E40E94172501E072
:10499000959900E00F9300EF0E9417250F917FBFBC
:1049A0007F9108957F937FB7F8949D9AA59806E02C
:1049B0000E9417259D980AE00E94172588949599D2
:1049C0000894001F0F9304E60E9417250F917FBFE4
:1049D0007F9108959F937F9398E00E94D22407953A
:1049E00077959A959923C9F7072F7F919F910895FD
:1049F0007F937FB7F894A5989D9A0F9306E00E9445
:104A000017250F91079508F49D980F9304E60E94CF
:104A100017250F919D987FBF7F9108959F9398E0F0
:104A20000E94F8249A959923D9F79F910895000040
:104A30000000000000000A950023C9F708955F9365
:104A40007F937FB7F894CF93DF93C0E0D0E07F935C
:104A50005091B2007091B2007517E1F373952196F1
:104A60005091B2005717D9F77F918E01DF91CF9106
:104A70007FBF7F915F9108950F94194C0DECAEEEBE
:104A8000CEEEBBE4DFE40D93AC17BD07E1F7AEEE6D
:104A9000CEEEBFE4D6E50D93AC17BD07E1F70DEE02
:104AA0000DBF0FE40EBFCEEED6E50F946B4C002386
:104AB00011F00F94664D0E94B8550F94324C0C942F
:104AC00061250D9479514A9512F0000FE1F7089590
:104AD0004A9512F00695E1F708950024E8E0EA957A
:104AE00032F0001F001C0416D0F3041AF8CF001F88
:104AF000402D00950895FF27442312F4F16041955D
:104B0000002312F4F09501950E946D25F0FD0195AA
:104B1000F1FD41950895149F102D059F100D049FE0
:104B2000002D110D0895000F111F4A95E2F7089509
:104B3000169507954A95E2F70895159507954A95B4
:104B4000E2F7089500241124EFE0001F111F001C5C
:104B5000111C0416150610F0041A150AEA95AAF796
:104B6000001F111FA00100951095089551954195C2
:104B700050400895FF27552312F4F160F7DF112309
:104B800012F4F09507D00E94A225F0FD03D0F1FDAC
:104B9000EDCF089511950195104008952224349F7A
:104BA000302D259F300D169F300D079F300D249F0F
:104BB000202D310D159F200D311D069F200D311D1B
:104BC000149F102D210D321D059F100D211D321D2A
:104BD000049F002D110D221D321D0895000F111F7D
:104BE000221F331F4A95D2F70895369527951795BA
:104BF00007954A95D2F70895002411241001E0E2A8
:104C0000EA9592F0001F111F221F331F001C111C78
:104C1000221C331C041615062606370688F3041AD0
:104C2000150A260A370AECCF001F111F221F331F57
:104C3000A001B101009510952095309508955791E8
:104C40004791179011FA2790379007900CBE08955E
:104C5000F7DF041B10E003C0F2DF041B150B20E09C
:104C600030E000C028F110FC25C047910790E00F0C
:104C7000F11F0417100540E024073407C8F486F438
:104C800012FE05C0E00FF11F0791069002C00691C9
:104C90000024F101E01BF0090CB700400CBF19948F
:104CA000E00FF11FE00FF11F2790379007900CBE27
:104CB000F101199411F4C6F7E3CF319612FC319645
:104CC0000EF0329650E060E070E047914B3F48F0C4
:104CD00079F34F3F29F04E3F11F07791679157914B
:104CE0004791041B150B260B370B29F308F3E5CF6F
:104CF000AF93BF93D80101900D9241505040D9F726
:104D0000BF91AF910895AF93BF93D8013BBF079078
:104D10000D9241505040D9F7BF91AF910895E00FE7
:104D2000F11F02900A9201501040D9F70895FA92AB
:104D3000EA92DA92CA92BA92AA929A928A927A9253
:104D40006A925A924A92BA93AA939A938A9308952E
:104D5000FF84EE84DD84CC84BB84AA849984888417
:104D60007F806E805D804C80BB81AA819981888123
:104D7000F0E0EC0FFD1FEF01089502D02DD00EC022
:104D80004A928A939A93AA93BA938D914D90ED91FA
:104D9000FD910D901D902D903C90089509911991D1
:104DA000299139914991599169917991001F111F68
:104DB000221F331F441F551F661F771F0095109534
:104DC000209530954095509560957095B991A99131
:104DD00099918991499008950F931F932F933F9331
:104DE0004F935F936F937F93002711279801A8013A
:104DF000B801B7E0A8E09F91AA95DAF0991F001FCB
:104E0000111F221F331F441F551F661F771F0817CE
:104E100014052E073F07400551056205730560F331
:104E2000081B14092E0B3F0B400951096209730935
:104E3000E3CF9A93A8E0BA95EAF608958081080F27
:104E40008181181F8281281F8381381F8481481F18
:104E50008581581F8681681F8781781F089580810A
:104E6000082B8181182B8281282B8381382B848108
:104E7000482B8581582B8681682B8781782B089554
:104E80008081081B8181180B8281280B8381380B5C
:104E90008481480B8581580B8681680B8781780B4C
:104EA0000895109520953095409550956095709592
:104EB00001951F4F2F4F3F4F4F4F5F4F6F4F7F4F0A
:104EC00008958081081781811807828128078381CE
:104ED000380784814807858158078681680787815C
:104EE00078070895000000000000000000000000A6
:104EF00000000000000000000000000000000000B2
:104F000000000000000000000000000000000000A1
:104F10000000000000000000000000000000000091
:104F20000000000000000000000000000000000081
:104F30000000000000000000000000000000000071
:104F40000000000000000000000000000000000061
:104F5000000102010002020505080000FFFF3412F3
:104F60000000000000000000020400050100000035
:104F70000001000000000000000000000000000030
:104F80000005FF00000203AAAAAAAAAAAAAAAAFFC9
:104F9000FF00070707077F7A785A5F0707070707A9
:104FA000787F1F03001E000003F40080000001341E
:104FB0001200030300000200000000000303581B5E
:104FC000000010270000010001E803000004E803CE
:104FD00000001041746D656C2020202020202020CE
:104FE00020202000000000000000000001018500DA
:104FF0006C00010000050500050602050804050017
:105000000208FF1400000008080303040307901AB5
:1050100000000E000000053D000003031410011005
:10502000270000010500014F5000038E27000800F3
:10503000982700010066280004006A280001006C1F
:10504000280004001A280001001B28000100222863
:105050000008001E28000200A627000200AF27005B
:105060000100162800010033280001001C2800015F
:105070000073280001007428000100752800010059
:1050800076280001007128000200772800010078CE
:1050900028000100182800010017280001004328FB
:1050A0000001004428000100A5280008008B28000A
:1050B00004008028000400842800040088280001DF
:1050C0000089280001008A280001009428001100AE
:1050D00013280001008F28000100902800040048D8
:1050E000280001004528000200AD280001007028BA
:1050F0000001000000000000000000000065280022
:10510000010000000000000000000000000000009E
:105110000000000000008F1A001000AE28000100FF
:105120002D280001002E28000100AF2800010049B1
:1051300028000800512800020079280005007E2878
:105140000001007F280001000000000000000000B6
:10515000000000000000000000000000000000004F
:1051600000000000000000000000009A270001007D
:10517000000000000000000000000000000000002F
:10518000000000000000000000000000000000001F
:10519000000000000000000000000000000000000F
:1051A000000000000000006B28000100A0270001A3
:1051B000009927000100EE4F000200F24F000100AD
:1051C000F54F000100F34F000200F84F000100F915
:1051D0004F000100FA4F000100FB4F000100FC4F9F
:1051E000000100FD4F000100FE4F000200F64F00DD
:1051F0000200005000010001500001001C5000029C
:10520000000B500001000C500001000D5000010087
:105210001850000400025000010003500004000771
:10522000500001000850000100125000010013500E
:105230000001001450000200165000010017500039
:10524000010000000000000000000000000000005D
:105250000000000000001E500001001F500004006C
:10526000235000010000000000002450000200262E
:105270005000010009500001000A500001002750B1
:10528000000100285000010029500001002A5000B0
:10529000010000000000000E50000400F04F00026A
:1052A00000B0280000001B2A000000A12900000017
:1052B000AC2A0000000F2A0000000000000000CF10
:1052C0002A000000903600000044370000007732CA
:1052D000000000BE320000009A32000000F53200EB
:1052E00000009F33000000BB3500000000000000FC
:1052F00000000000000035330000006037000000AF
:10530000733A000000F83C000000000000000000BC
:1053100000000000000000000000000000002C2839
:105320000000004D3300000063330000009438009B
:10533000000000000000000D39000000E43900000A
:1053400000023A000000423E0000006A3E000000F9
:105350003529000000FCAF601107012000000000AB
:10536000001CD3006FD10087DF0023BE00000000C7
:10537000E1B6001BBC00DBC1000000000000001013
:105380000000000000030201020303020201010108
:1053900001010101010102020101010201020202F7
:1053A00002020201020202020202010303020203DC
:1053B000000100010000FEEDAB0016E10021C3007A
:1053C000C6B900C4C00000000065AE00C0B200193C
:1053D000BE0019AF003ADF00A0A60090CD0061CF5B
:1053E0000032D10022CD00E1C300000000DDE60064
:1053F00098CD00ABE0006FA500BBE100A3CE00FAA2
:10540000CF00C1DE008BCC0015AC0039AF004FBA25
:10541000009AB600E4BE0083AE00AFAB0057C300F5
:10542000000000000000A7C700FBC800000000E863
:10543000CA000268C10023C1000107D3DF0053E0A6
:10544000000101D3DF0053E000010107BD00F6BBFE
:105450000001015CB70047B80001015CB700B2B7BA
:105460000001077CBF00AFBF00010172C0004BC04C
:105470000001010000000000000107000000000022
:105480000001010000000000000103000000A0D0A6
:10549000000104000000A0D0000105000000000091
:1054A000000106000000000000010D0000000000E7
:1054B000000101D3DF000000000001000000000037
:1054C00000010E00000000000001070000000000C5
:1054D00000010A00000000000001000000000000C0
:1054E00000010100000000000001010000000000B8
:1054F00000000000000081AB00000900000081AB4B
:1055000000000C00000081AB00000000000081AB37
:1055100000000E01000E02000E04000E05000E0633
:10552000000E07000E08000E09000501000502002C
:10553000050400050500050600050700050800052F
:10554000090004010004020004040004060004052C
:10555000000407000408000409000601000202001C
:1055600003020009030015030020030014040014C3
:1055700005001406001007001108001208001F069D
:105580000026090024010000005A69674265654150
:105590006C6C69616E63653039FFFF00AF0000001D
:1055A00000000000000000000000000000000010EB
:1055B0001001F01001D50401BD0501CD0B01000063
:1055C00000000000000000000000D60D01400000B7
:1055D000000100D00901FBFA001906011AEB006472
:1055E000E800000000000000870F0111450111458F
:1055F00001114501114501744501424401A64301D1
:105600005C3C01244101CD4001E64A01443D016F6B
:105610004A0135490102490112450101000000001B
:10562000000380000000000003F825013A2B01B9B7
:105630002201F82701BE1101E31901020302020150
:105640000101010102020102020201020302010240
:10565000030202FC3A01133B01063A01833B01FEBF
:105660003501E43601523801010002000300040054
:1056700005000600070008000900110012001300D1
:10568000140015001600170018001900754701775F
:1056900047017947017B47017C47017E47010307AA
:1056A00000DB6D00000700E16D00AB740087660051
:1056B000FE64005B3001B92F0134310108000000A5
:1056C0000000010000000100E27E00BC7E0000043A
:1056D0000810FFFF0086190002E356006730861BA2
:1056E00000000061646447726F7570496E64282918
:1056F0003A203078253034780D0A0076696577478E
:10570000726F7570496E6428293A203078253034DC
:10571000780D0A0067657447726F75704D656D622C
:10572000657273686970496E6428290D0A00726594
:105730006D6F766547726F7570496E6428293A20DF
:105740003078253034780D0A0072656D6F766541CA
:105750006C6C47726F757073496E6428290D0A006E
:1057600061646447726F757049664964656E7469F7
:105770006679696E67496E6428293A203078253049
:1057800034780D0A000000180200001439380001B6
:10579000146F380002149F38000314C93800041035
:1057A000F33800051000390000110000000111005D
:1057B0000000021100000003110000003C2D4174A4
:1057C00074722049442030782578206576656E749F
:1057D00020307825780D0A0046616E2069732074A8
:1057E00075726E6564204F4E20617420737065651C
:1057F0006420307825780D0A0046616E2069732098
:105800007475726E6564204F46460D0A00000030C4
:10581000100000060100301000000400000000002D
:10582000000000000000E239003C2D526561642058
:1058300054696D652061747472696275746520289D
:10584000307825782920726573706F6E73653A2001
:1058500073756363657373202074203D2030782551
:10586000780D0A003C2D526561642054696D6520F5
:10587000617474726962757465202830782578299E
:1058800020726573706F6E73653A2073756363651C
:105890007373202074203D2030782530386C780DCB
:1058A0000A00202B526561642054696D6520617483
:1058B00074726962757465206661696C65643A200A
:1058C000737461747573203D2030782532780D0A29
:1058D00000203C2D57726974652054696D65206104
:1058E000747472696275746520726573706F6E731B
:1058F000653A20737563636573730D0A00202B5737
:10590000726974652054696D65206174747269628E
:10591000757465206661696C65643A20737461749E
:105920007573203D20307825780D0A003C2D487590
:105930006D6964697479204D6561737572656D6513
:105940006E742041747472205265706F72743A20C4
:1059500074203D2025750D0A00203C2D52656164A0
:105960002048756D6964697479204D65617375723D
:10597000656D656E742061747472696275746520FA
:1059800028307825782920726573706F6E73653AB8
:1059900020737563636573730D0A202074203D20A6
:1059A00025750D0A00202B526561642048756D69CC
:1059B00064697479204D6561737572656D656E7487
:1059C00020617474726962757465206661696C65C2
:1059D000643A20737461747573203D2030782578A3
:1059E0000D0A00203C2D57726974652048756D6959
:1059F00064697479204D6561737572656D656E7447
:105A00002061747472696275746520726573706F59
:105A10006E73653A20737563636573730D0A0020B6
:105A20002B57726974652048756D696469747920B3
:105A30004D6561737572656D656E74206174747205
:105A40006962757465206661696C65643A20737477
:105A500061747573203D20307825780D0A000000B0
:105A60002133000000000F001900000000000000BA
:105A70000100020001002112000000000F270200B7
:105A80002112000001001027030021130000000074
:105A90000F001900000000000000000000802D3EF3
:105AA000536574506F696E747320757064617465AA
:105AB000642062792043493A200D0A0023736574FB
:105AC000706F696E74206D6F64653A2025640D0AED
:105AD000002D3E736574706F696E7420616D6F7513
:105AE0006E7420757064617465642062793A202553
:105AF000642E256420430D0A002D3E74656D70658B
:105B0000726174757265207265706F727420636F54
:105B10006E66696775726174696F6E207570646115
:105B20007465642062792043493A0D0A002D3E6D68
:105B3000696E205265706F727420496E746572765A
:105B4000616C3A20256420736563730D0A002D3E55
:105B50006D6178205265706F727420496E74657241
:105B600076616C3A20256420736563730D0A003CEE
:105B70002D41747472204944203078257820657650
:105B8000656E7420307825780D0A002D3E746865A6
:105B9000726D6F737461745265736574416C617278
:105BA0006D3A2564200D0A002D3E746865726D6F94
:105BB000737461745265736574416C6C416C61728D
:105BC0006D0D0A0000002913000000000A001400F7
:105BD0000000000000004D95FF7F01002912000029
:105BE0004D95FF7F020018120000010300291200EA
:105BF000004D95FF7F0400291200004D95FF7F05A1
:105C000000291200004D95FF7F0600291200004D6B
:105C100095FF7F0900181000003F1000281000E7D2
:105C20001911002930000017001800120029300057
:105C3000001500160013002930000017001800148A
:105C40000029300000150016001500291000004D35
:105C500095FF7F1600291000004D95FF7F17002942
:105C60001000004D95FF7F1800291000004D95FF92
:105C70007F19002810000A191A0018100000071BCD
:105C80000030100000051C0030100000071D001837
:105C9000120000071E003012000004290019120033
:105CA0000000007F000010DE3D000000000000004A
:105CB00000000000000000000000000000000000E4
:105CC0000000EE3E003C2D4F63637570616E63799A
:105CD0002053656E736F7220417474722052657028
:105CE0006F72743A2074203D2025640D0A00203C18
:105CF0002D52656164204F63637570616E63792016
:105D000053656E73696E672061747472696275742D
:105D1000652028307825782920726573706F6E733E
:105D2000653A20737563636573732074203D202585
:105D3000750D0A00202B52656164204F63637570F6
:105D4000616E63792053656E73696E672061747448
:105D5000726962757465206661696C65643A207366
:105D60007461747573203D2030782532780D0A00F7
:105D7000203C2D5772697465204F63637570616EA6
:105D800063792053656E73696E67206174747269FC
:105D90006275746520726573706F6E73653A2073F7
:105DA0007563636573730D0A00202B577269746500
:105DB000204F63637570616E63792053656E7369FC
:105DC0006E672061747472696275746520666169BA
:105DD0006C65643A20737461747573203D2030786B
:105DE00025780D0A00000018130000000A001400B6
:105DF000000000000001010030120000FE10002130
:105E00001000000000FEFF1100211000000000FE45
:105E1000FF120020100001FE2000211000000000F1
:105E2000FEFF2100211000000000FEFF22002010D4
:105E30000001FE0000000000000000000000000063
:105E40000000000000000000000000000000000052
:105E500000000000D007000000C34000E80300007D
:105E6000000000002D3E4964656E746966790D0A74
:105E7000002D3E4964656E746966792051756572BE
:105E8000790D0A002D3E4964656E7469667920516A
:105E90007565727920526573706F6E73652C206121
:105EA000646472203D2025640D0A002D3E455A2D64
:105EB0004D6F646520496E766F6B650D0A002D3E4F
:105EC00055706461746520436F6D6D697373696E9D
:105ED000696E672053746174650D0A00000000004C
:105EE0000000000000000000000000002100000091
:105EF00001001802000000001004430001143143A7
:105F000000001157430002108843000310BB4300F8
:105F10001B01291200000000FFFF1C0120120000DD
:105F2000FF1D0128120000FF01000000000000001A
:105F30000000005744003C2D54656D70657261741B
:105F4000757265204D6561737572656D656E74203F
:105F500041747472205265706F72743A2074203DDF
:105F60002025640D0A00203C2D5265616420546593
:105F70006D7065726174757265204D6561737572BF
:105F8000656D656E742061747472696275746520E4
:105F900028307825782920726573706F6E73653AA2
:105FA00020737563636573730D0A202074203D2090
:105FB00025640D0A00202B526561642054656D70C4
:105FC00065726174757265204D6561737572656D7A
:105FD000656E74206174747269627574652066619F
:105FE000696C65643A20737461747573203D203068
:105FF000782532780D0A00202B52656164205465A3
:106000006D7065726174757265204D65617375722E
:10601000656D656E74206174747269627574652053
:106020006661696C65643A20737461747573203DB0
:106030002030782532780D0A00203C2D5772697483
:10604000652054656D7065726174757265204D656B
:1060500061737572656D656E7420617474726962C6
:1060600075746520726573706F6E73653A20737511
:1060700063636573730D0A00202B57726974652082
:1060800054656D7065726174757265204D656173DC
:106090007572656D656E7420617474726962757471
:1060A00065206661696C65643A2073746174757308
:1060B000203D20307825780D0A00202B5772697416
:1060C000652054656D7065726174757265204D65EB
:1060D00061737572656D656E742061747472696246
:1060E000757465206661696C65643A2073746174C7
:1060F0007573203D20307825780D0A000000293383
:10610000000000001E002800000000000000010048
:1061100002000100291200004D95FE7F02002912A5
:1061200000004E95FF7F03002113000000001E00B9
:10613000280000000000000000000008000000002F
:106140000000204E000000AC44001F2041746D652B
:106150006C20001F20546865726D6F737461740049
:1061600000002002000100200200020020020003C3
:1061700000200200040042020000000000000000B5
:10618000000000000000000000000000000000000F
:1061900000000000000000000500420200000000B6
:1061A00000000000000000000000000000000000EF
:1061B00000000000000000000000000007003002A6
:1061C0000011003000000010654600000000087D4E
:1061D0000C01E30C000000000000000000000300C0
:1061E0000002070A05140A00000000000000000079
:1061F0000001020018E10601C207000000000000D3
:106200000000000004020003CD17000000000000A1
:106210000000000000000006040008020900000061
:1062200000000000000000000000050B00032D0A24
:106230000000000000000000000000000009000055
:10624000015E180464180000000000000000000057
:10625000050400047B0500000000000000000000B1
:10626000000000020200022A0300000000000000FB
:1062700000000000000004000001A2020AA70200C2
:10628000000000000000000000050000056E170D72
:106290008C17000000000000000000000204000451
:1062A000190C000000000000000000000000004386
:1062B0004600B04200FE3C00CC4C001640003F447B
:1062C00000D34C00623B009C390035380072490015
:1062D00080440000000300010204020604050B09CB
:1062E0000005040202040005000204060401000087
:1062F00000000000000000000000000000000A0094
:10630000010000000000000000000000000000008C
:106310000005040100000000000000000000000073
:106320000000000002040100000000000000000066
:106330000000000000000006040A000504020468D2
:10634000656C7000002D3E53686F772068656C7037
:1063500020796F752772652072656164696E6720A8
:106360006E6F773A202068656C700D0A0072657355
:106370006574002D3E5265736574206465766963AB
:10638000650D0A006765744E6574776F726B4164C2
:106390006472657373002D3E2052657475726E735E
:1063A000206E6574776F726B2061646472657373BD
:1063B0003A206765744E6574776F726B41646472DE
:1063C0006573730D0A00696E766F6B65455A4D6F84
:1063D0006465002D3E53746172742066696E646951
:1063E0006E6720616E642062696E64696E672070FA
:1063F000726F636573730D0A007265736574546F11
:10640000464E002D3E526573657420746F206661A0
:1064100063746F7279206672657368207365747433
:10642000696E67733A207265736574546F464E0DDA
:106430000A00676574446576696365547970650020
:106440002D3E205265717565737420666F722064ED
:10645000657669636520747970653A206765744470
:106460006576696365547970650D0A00706F7765AC
:10647000724F6666002D3E20506F77657273206FF5
:106480006666206465766963653A20706F77657229
:106490004F66660D0A007365745065726D69744AC3
:1064A0006F696E0064002D3E205365747320506543
:1064B000726D6974204A6F696E3A20736574506515
:1064C000726D69744A6F696E205B6475725D0D0A46
:1064D000007365744F63637570616E6379002D3E60
:1064E0002053657473204F63637570616E63792008
:1064F0005B302D20556E4F636375706965642F3175
:106500002D204F636375706965645D0D0A00636CCF
:10651000757374657241747472496E69744465660A
:1065200061756C74002D3E20496E697469616C69F7
:106530007A657320616C6C20617474726962757421
:10654000657320746F2064656661756C7420766174
:106550006C756573205B636C757374657249445D1B
:106560000D0A00726573746172744E776B002D3E74
:10657000205265737461727473206E6574776F72E4
:106580006B206F6E20706172746963756C6172202C
:106590006368616E6E656C205B6368616E6E656CCE
:1065A0005D0D0A007265616441747472696275748C
:1065B00065007364646464002D3E5265616420412B
:1065C000747472696275746520666F722073706589
:1065D00063696669656420636C75737465723A20DB
:1065E00072656164417474726962757465205B617F
:1065F0006464724D6F64655D5B616464725D5B656C
:10660000705D5B636C757374657249645D5B617426
:10661000747249645D0D0A0077726974654174741F
:1066200072696275746500736464646464646400B0
:106630002D3E577269746520417474726962757475
:106640006520666F72207370656369666965642092
:10665000636C75737465723A2077726974654174FE
:1066600074726962757465205B616464724D6F64F5
:10667000655D5B616464725D5B65705D5B636C75D9
:106680007374657249645D5B6174747249645D5BC7
:10669000747970655D5B6174747256616C75655D6B
:1066A0005B6174747253697A655D0D0A00636F6E85
:1066B0006669677572655265706F7274696E67009E
:1066C0002D3E53656E647320636F6E6669677572E5
:1066D00065207265706F7274696E6720746F2073C5
:1066E000706563696669656420636C75737465724F
:1066F000207365727665723A20636F6E666967759E
:1067000072655265706F7274696E67205B61646454
:10671000724D6F64655D5B616464725D5B65705D45
:106720005B636C757374657249645D5B61747472EC
:1067300049645D5B747970655D5B6D696E5D5B6D11
:1067400061785D0D0A007365744F63637570616EE7
:1067500063795374617465002D3E20536574732012
:10676000746865204F63637570616E63792073741C
:10677000617465205B73746174655D2D206F636364
:106780007570696164202D20312C756E6F6363759F
:1067900070696164202D300D0A20007365744F63A9
:1067A000637570616E637953656E736F725479703F
:1067B00065002D3E205365747320746865204F6317
:1067C000637570616E637953656E736F722054796F
:1067D0007065205B73656E736F72547970655D2DA3
:1067E00020504952202D20302C556C747261736FEB
:1067F0006E69632D312C20504952202B20556C742A
:106800007261736F6E69632D32300D0A20007472ED
:106810006967676572416C61726D00646464002D24
:106820003E20547269676765727320616C61726D96
:1068300020636F6E646974696F6E3A207472696761
:10684000676572416C61726D205B636C7573746512
:106850007249645D5B616C61726D436F64655D5B21
:10686000302D726169736520312D636C6561725DD5
:106870000D0A00736574416C61726D4D61736B003C
:106880006464002D3E2053657420416C61726D205C
:106890004D61736B3A20736574416C61726D4D612B
:1068A000736B205B636C757374657249645D5B61C7
:1068B0006C61726D4D61736B5D0D0A0067657441AB
:1068C000707044657669636554797065002D3E206B
:1068D0005265717565737420666F722064657669A0
:1068E000636520747970653A2067657441707044FF
:1068F0006576696365547970650D0A0025730D0A24
:1069000000436F6D6D616E64733A200D0A005C0E7A
:10691000610EC14600620E8A0E610EDA4600900ECC
:10692000A10E610EDC4600B30EE30E610EE44600DC
:10693000F00E160F610EE94600200F4F0F610EEDAD
:1069400046005D0F890F610EFD4600920FB30FC127
:106950000F034700C30FEE0FC10F274700FB0F2B9C
:1069600010C10F3C470042108010C10F5647008BEA
:1069700010C110CF107A4700D51035114411DC47F3
:10698000004D11CA114411424800DD116312C10FBC
:106990006D47007512B812C10F764700CF122B1346
:1069A0003813A647003C1390139D13B84700A0135B
:1069B000D913610E724800EA1300000000000000C5
:1069C0000000253034780D0A00446576696365540B
:1069D000797065203D2025640D0A004F6363757052
:1069E000616E63792073657420746F203A25640D9D
:1069F0000A004F63637570616E6379206E6F742057
:106A00007365743A20496E76616C69642076616CB6
:106A100075650D0A00496E76616C696420436C757A
:106A2000737465722049440D0A0073657450657271
:106A30006D69744A6F696E5273702025640D0A0087
:106A4000556E737570706F7274656420436C696500
:106A50006E7420436C7573746572204964200D0A4E
:106A600000556E737570706F7274656420436C7539
:106A700073746572204964200D0A002D67002D6231
:106A800000556E737570706F7274656420436C6925
:106A9000656E7420436C7573746572204964200DB3
:106AA0000A00556E737570706F7274656420436C64
:106AB0007573746572204964200D0A00556E7375F4
:106AC00070706F7274656420436C69656E742043E6
:106AD0006C7573746572204964200D0A00556E73DD
:106AE0007570706F7274656420436C757374657231
:106AF000204964200D0A0048414465766963655465
:106B0000797065203D203078253034780D0A0000FA
:106B1000000000000000000A00000001A54600007F
:106B200000000000000000001904010103000CF047
:106B30000D04540EE80C080E0000000000000000D8
:106B4000000000000000CE4800000000000000200F
:106B50004E0000006E4900FFFFFFFFFFFFFFFF5ADE
:106B60006967426565416C6C69616E636530396166
:106B700064645363656E65496E6428293A203078F1
:106B8000253034782C203078253032780D0A007684
:106B90006965775363656E65496E6428293A2030CC
:106BA00078253034782C203078253032780D0A0062
:106BB00072656D6F76655363656E65496E642829ED
:106BC0003A203078253034782C20307825303278CF
:106BD0000D0A0072656D6F7665416C6C5363656E6E
:106BE0006573496E6428293A203078253034780D51
:106BF0000A0073746F72655363656E65496E64282D
:106C0000293A203078253034782C2025640D0A006C
:106C1000726563616C6C5363656E65496E642829A7
:106C20003A203078253034782C2025640D0A00670E
:106C300065745363656E654D656D626572736869F1
:106C400070496E6428293A203078253034780D0A4E
:106C500000000020020001002002000200211200BA
:106C6000000000F7FF0300100200040018020000FB
:106C7000149049000114B049000214E549000314BE
:106C8000144A000414494A000510634A000614819E
:106C90004A00001100000001110000000211000074
:106CA00000031100000004110000000611000000A4
:106CB000000030100000010100301000000502004B
:106CC00030100000013C2D7265736574416C6C419D
:106CD0006C61726D0D0A003C2D7265736574416CB8
:106CE00061726D20636C75737465724964203D2018
:106CF0003078257820616C61726D436F6465203D4A
:106D00002025640D0A003C2D676574416C61726D2D
:106D10000D0A003C2D7265736574416C61726D4C97
:106D20006F670D0A00000000000000000000000076
:106D30000000000000000000000000000000000053
:106D4000000000210200000010EF4C000110D84CA0
:106D5000000214294D000310764D005A636C436FF6
:106D60006E6669726D3A20737461747573203D208C
:106D70003078253032780D0A005A636C5265737092
:106D80006F6E73653A20737461747573203D2030A3
:106D900078253032780D0A00756E6B6E6F776E2035
:106DA000636F6D6D616E640D0A00162100000000B6
:106DB000000020BF02000149510000000000000057
:106DC0003075000000555100000000000000000078
:106DD000005B510000000000000000000000000007
:106DE00000004E6574776F726B2075706461746516
:106DF00020737461747573202D20307825303278BB
:106E00000D0A00000000000000000000000000006B
:106E10000000000000000000000000000000000072
:106E20000000000001000000000000000000000061
:106E30000000000000000000000000008755000076
:106E4000000000000000000000B45500FAFFFFFF42
:106E5000FFFFFFFF0D0A4E6F7420656E6F75676848
:106E600020636F6D6D616E64206275666665727316
:106E70000D0A00776C5064734461746153657276D7
:106E800065720000000000000000000000115700C3
:106E900093560000776C5064735479706573436F38
:106EA0006E76657274657200535F4E76005265733C
:106EB000697A696E67204E56206974656D2028696D
:106EC000643D256875292066726F6D2025687520E0
:106ED000746F20256875000600FF0F000000000099
:106EE00000000000000000000000000000000000A2
:106EF00000FF000000000000000000000000000093
:106F00000000000000000000000000000000000081
:106F100000445F4E76000000000000000001000009
:106F2000000000000000000000000000E803000076
:106F3000019E62003487002045018AA20066E100BC
:106F40004F2A01010C011A3201AA3101467C0000CE
:106F50000000F96D000000003A54001658000000CF
:106F6000000000FFFF00000000000000000000E93A
:106F70007A00CCCCCCCCCCCCCCCCCCCCCCCCCCCC6F
:106F8000CCCC0B0000FFFF00000000FFFFFFFFFF65
:106F9000FFFFFFFFFF0000000000000000000052A4
:106FA000A30001FFD787380C040000000000000098
:106FB000000000000000F5AB000000000000000031
:106FC0000000007ECE000000000000000000000075
:106FD0001FBE0000000000000002000000000000D2
:106FE00000000000440B01FFFFFDFFFCFFFBFF0062
:106FF000000000000000000000012001000000006F
:10700000000000000000252001000000000000003A
:107010000000005720012000FDFFFFFFFFFFFFFFE2
:10702000FCFFFFFFFFFFFFFFFBFFFFFFFFFFFFFF77
:107030000000000000007D320100000000000000A0
:107040000000005A3E010000FFFF00FF00000000AA
:10705000010000000100000000000000000000002E
:09706000000000686C747A4C0019
:10706A0000E00093A6020895B0D068972801DA01DB
:10707A00E0E0F2E08E0148E1AAD0DBD039F4D5D0C5
:10708A00002311F0662404C009E801C00AE8602E52
:10709A004DD039F474D011F409E804C033E020E08B
:1070AA0005D000E06896E7E00C94B1263CD02D911B
:1070BA003C91FC0107A1F0A5E02F60822183328375
:1070CA0041E092018C01025F1F4F0E94F3558C012F
:1070DA000C943B4E0E949F2669972801DA01E8E149
:1070EA00F2E08E0149E1A8D021D0C1F448D011F4D0
:1070FA0009E815C035E021E016D00D911C91D801A0
:10710A00FC0167A070A429E194D011F000E001C04D
:10711A000BE8F3010083A183B283D2DF00E0699612
:10712A00E8E00C94B026082F0C94BD55F2010489AE
:10713A00002308950E94A1266A97D8012A01E1E353
:10714A00F2E08E014AE154D0FD010489002391F452
:10715A0016D011F409E80FC09201E82FF12F07A108
:10716A0010A57AD0302F22E08C010E94BD5541E053
:10717A009D01A8DF00E06A96E6E00C94B2260E9420
:10718A00DF55C801012B089520D06B972801DA0139
:10719A00EBE4F2E08E014BE11AD00E9462B30023C5
:1071AA0031F08C010E947B4CBED0662402C00BE8F1
:1071BA00602EBCDF39F4E3DF11F409E804C033E0E0
:1071CA0023E074DF00E06B966ECF0C94A02634D0D7
:1071DA008D919C91119729E18C0108956797E6E6B4
:1071EA00F2E08E0147E104D086D000E06796089568
:1071FA0030D00C94DE500E94A326A597DA01EDE761
:10720A00F2E08E0145E218D0FD01808191810E9451
:10721A00EB42002329F029E18C010BD009F405D0B7
:10722A0000E0A596E4E00C94B42629E18C010C94C4
:10723A004AB30E94B6B37CCF0CD00D911C91119722
:10724A001A930A938E010E5F1F4F0E94DE502296F8
:10725A00089550E00C947826B8DFD801C9010E943D
:10726A00DCB30C9300E0FD010183FC0100810023E3
:10727A0031F1662413C000E0002379F0FD01018199
:10728A00102F13951183F2012181328112E0019F9F
:10729A00FD01E00DF11D228333836394FC0100811B
:1072AA00601620F502E0609E2C01400C511C29E179
:1072BA00F20101811281BDDFF1F201E0DDCF00E0D0
:1072CA0010E00FC0FD012181322F33953183F8017F
:1072DA004181528132E0239FFD01E00DF11D42837D
:1072EA0053830E94EEB3202F212B61F7FD01018108
:1072FA00000F0E5FD8CEBA93AA93A0E0B0E006C002
:10730A0011960D911C9112970E947B4C8D010E943F
:10731A00EEB3D801012BA1F709E10E9491B303D082
:10732A00A991B991089507E110E00C94845610E0F0
:10733A0022E032E009E10E944270202F212B39F02D
:10734A0047EB59E360E0F801408B518B628B05E013
:10735A0000932E0302E00093350329E333E00AE3A6
:10736A000C9473610E94A4266C97C901A42FE9EDBD
:10737A00F2E08E014CE182D04A93AA933A932A937F
:10738A008E010C5F78D02496892B99F4A13089F468
:10739A00EAE2F3E00481102F002351F0115048F083
:1073AA00135020F029F01A9521F402E0068701C053
:1073BA004BD06C96E3E00C94B526BD010A33B9F5BF
:1073CA00F901008111810130104089F5D901129625
:1073DA00ED91FC91008111810230124041F5028148
:1073EA00002329F5A681B7810C9143815481452B4D
:1073FA00F1F410913503112339F01A9539F012502E
:10740A0039F01A9541F00FC0053003C0053029F054
:10741A00023069F402C0053051F001E010E0F901D0
:10742A000483158304C000E0F90104830583DB01AA
:10743A00089510912E03163031F4002311F004E060
:10744A0003C000E001D00895A197002371F0E5EF91
:10745A00F2E08E0141E212D0009138034A930A9376
:10746A008E010E5F08D0229604C006E113E00E9446
:10747A00DE50A19608951F4F0C94DE5050E00C94F4
:10748A0078260E949F262897502EC901412E3A013C
:10749A0054D0F9F0088919892A89E6E8FBE15CD019
:1074AA0000E00B8355D00C831D8300E00A838E0114
:1074BA00CE83DF830E5F1F4F0E94F1663B8120E07F
:1074CA0041D0342DAC01252D4DD003EC1AE320E038
:1074DA004ED02896EBE00C94B0260E949D26249765
:1074EA00802EC901512E3A01962E472E26D009F137
:1074FA000E851F852889E9E8FBE12ED09A8243E0B0
:10750A0050E09E0125D0A5D0442D50E029893A8922
:10751A001FD00D5F1F4F9DD003E0400E342D22E097
:10752A0011D0352DAC01282D1DD000E31BE320E03E
:10753A001ED02496EFE00C94AE260E94DF55D801A7
:10754A00012B08958D010E94BD556AE070E00895EF
:10755A00FD0107A110A50895008311832283688283
:10756A00798208958D01025F1F4F0C94C555FD0164
:10757A000387148725878D010C943E4EBA93AA93EC
:10758A00EF972997D8010C910023F1F501E00C83BC
:10759A0014960D910D830D911C910E831F8300E0AB
:1075AA00088709878E010C5F1F4F0E941E67A885F6
:1075BA00B985E6E8FBE171D021F08D010C5F1F4F20
:1075CA0069D0FD010381083169F441E038D0E6E46D
:1075DA00F3E089014BE326D04A9327D0025F2CD0EF
:1075EA0024961BC044E02BD0E1E8F3E089014EE386
:1075FA0019D019812A813B813A932A931A9315D07B
:10760A00005F1AD0269609C09E01265F3F4FEFEB16
:10761A00F3E089014AD0045F4DD0EF962996A991EB
:10762A00B991089534D0088108950A930D911C9157
:10763A001A930A938E0108951F4F0C94DE5050E05E
:10764A009D012C5F3F4F8E0104D09E01265F3F4F64
:10765A0008950D94944CBA93AA93AF97D8010C91BC
:10766A00002369F4E9E8FBE118D009F013D0EEEE43
:10767A00F3E08E014CE20BD00E94DE5006C0EAE134
:10768A00F4E08E0112D00E5F15D0AF96C8CF50E04D
:10769A000C947826FA016CBF199440815181628159
:1076AA0000E040305007600708954FE2F0DF0C9188
:1076BA004A93BFCFC1DF22960895BA93AA9311E0E5
:1076CA002BD0202F212B39F042E65CE360E0F80151
:1076DA0042875387648710E01FD0012BB9F0AFE7C8
:1076EA00B5E000E010E10D931C9355960D930C93B1
:1076FA00199600E117E20D931C93199600E011E028
:10770A000D931C939F9705D09A9603D0A991B9918E
:10771A0008958D010C94F56F25E034E009E10C948D
:10772A004270EBE7F5E00481158108511C4F24A152
:10773A0035A12017310710F4028D138D04831583A8
:10774A008F01E8CF0F94D84C49E150E00E94BA2546
:10775A00EBE7F5E046A757A705EA15E0DBCF0E945D
:10776A009F26289795D061D0D9F0088919892A8946
:10777A00ECE8FBE14DD000E00B8346D00C831D837F
:10778A0000E00A838E01CE83DF830E5F1F4F0E94C3
:10779A00F1663B8120E081D004E71CE320E03ED083
:1077AA002896EBE00C94B0260E949D262497802E02
:1077BA00C901512E3A01962E472E37D009F10E856E
:1077CA001F852889EFE8FBE123D09A8243E050E045
:1077DA009E011AD0D1D0442D50E029893A8914D07B
:1077EA000D5F1F4FC9D003E0400E342D22E05AD05E
:1077FA00352DAC01282D5CD009EC1CE320E00ED01D
:10780A002496EFE00C94AE26FD0107A110A5089579
:10781A00008311832283688279820895FD01038798
:10782A00148725878D010C943E4E0E94DF55D8019E
:10783A00012B08950E949E262F972AD0862EF5DFC7
:10784A0019F100E00E836F8278868986088D198D7A
:10785A000A871B870A8D1B8D0C871D8700E0098309
:10786A00D3DF0A831B8306E008838E010A5F1F4F5A
:10787A000C831D838E010E94F166398126E00DD0AA
:10788A000DEF1CE320E0CADF2F96EDE00C94AF2643
:10789A00502EC901412E3A01089504D0342DAC016D
:1078AA00252D06C08D010E94BD5565E074E008953E
:1078BA008D01025F1F4F0C94C555AF979A0142E0A4
:1078CA0050E02D5F54D02E5F3F4FE9E4F4E0890188
:1078DA004DE254D08E010C5F47D0E1960895BA93D9
:1078EA00AA93EF976597D8010C91002381F501E0DF
:1078FA000A8314960D910B830D911C910C831D83A1
:10790A0000E00E830F838E010E5F1F4F0E941E67D9
:10791A00AE81BF81ECE8FBE15AD021F08D010C5F0A
:10792A001F4F52D042E050E09D012C5F20D0285FCB
:10793A003F4FE6E7F4E089014CE420D00D911C9119
:10794A001A930A938E01045F0FD024960AC09E01EF
:10795A00285F3F4FE2ECF4E089014EE343D0065F33
:10796A003ED0EF966596D2CE1F4F0C94DE503F4F15
:10797A008E0102D09E0108950D94944C22D0088164
:10798A0019811A930A930895BA93AA93EF97D80183
:10799A000C91002369F4EFE8FBE119D009F014D047
:1079AA00E0E0F5E08E014CE30CD00E94DE5007C007
:1079BA00ECE3F5E08E014FE315D00E5F10D0EF96A1
:1079CA00A5CE50E00C947826FA016CBF1994408138
:1079DA005181628100E04030500760070895C4DF9A
:1079EA0022960895EEDF0C914A930A938E01089528
:1079FA000895BA93AA9310E0E5D209E10E94427071
:107A0A00202F212B39F043E85EE360E0F801408B38
:107A1A00518B628B23D00E94837CADECB7E008E2E5
:107A2A0013E220E00D931D932D932C93129620932D
:107A3A00D1070AE91DE320E00D931D932C931D97AE
:107A4A008D010F94D4448D010F94AF441E969D016D
:107A5A000AE30E947361A991B991089507D026D0CB
:107A6A0000E0ECEBF7E000830183089500ED17E0F6
:107A7A007DD0028F138F04A10E7F04A30CEB12E0BA
:107A8A0003A714A708EB1BE005AB16AB00E416E04E
:107A9A00E0E2F7E03BD000E81CE0EAE2F7E036D0AB
:107AAA00E4E3F7E00081007C0083089500E000939E
:107ABA003B0708E21AE0E2E4F7E033D008D126D027
:107ACA0008E21AE0E6E5F7E02CD0EFD026D0EAE6A5
:107ADA00F7E01FD0E4E7F7E020D0EEE7F7E019D0AF
:107AEA00E8E8F7E013D009E10287E9E9F7E0008165
:107AFA00087F008304E0078301E00687EEEAF7E0E7
:107B0A000081087F008300E00783089500831183C2
:107B1A000895FCDF08EB1BE00895F8DF0CEB12E098
:107B2A000895F4DF00ED17E008959A938A93229757
:107B3A0000E0088309830091990700FD04C08E01C3
:107B4A000E94797C0CC00F94D84C49E199D0CA01A3
:107B5A00079604E610E0AC01CCD00883198302D260
:107B6A0005D009D02296899199910895E1EEF6E01F
:107B7A000483158308952091050720FF09C0A7D023
:107B8A0014D04CF489D0021713076CF400E004C037
:107B9A008CD00BD024F004E00093B507089579D077
:107BAA00021713079CF303E0F7CF78D020173107A9
:107BBA0008950E94A326EF976E97DA0110E01883C2
:107BCA0019830C91002339F00A9509F443C00A95E8
:107BDA0009F44BC053C057D020FF3AC069D050E0D7
:107BEA0010E0F0D188D09E01215C3F4FEBEBF5E02D
:107BFA0089014EE1D3D0015CBDD19E01265D3F4F84
:107C0A00E9EDF5E0890145E1C6D00C91A3D1BFD0D9
:107C1A00045DBAD0A3D1EEEEF5E0890148E2A5D120
:107C2A0081814AE0082F0E947B25542F550F550B5E
:107C3A005A934A93082F880F880B182F4AE020D0AE
:107C4A00A6D00A5F97D1249600E0EF966E9678C187
:107C5A0028D0C5CF18D020FF04C01ED02FD041E1B4
:107C6A00BECF17D02BD043E1BACF0DD020FF03C02F
:107C7A001FD030D0F2CF15D02DD0F3CF02E0E5CF10
:107C8A0050E00C94BA25FA012ED033D02091050782
:107C9A000895E6E5F7E002C0E2E4F7E020813181E9
:107CAA00089503D009D044E10895E0E6F7E0089585
:107CBA000ED002D042E1089520813181200F311F78
:107CCA00288339838E011A930A9369E20895ECE4B2
:107CDA00F7E0089550E010E021E032E00CD0FD0119
:107CEA0002D010E006C04181542F550F550B0AE00F
:107CFA0008950C948B2509E10C94F06F8A93EF9701
:107D0A00E797842F022F032B11F5423071F59E015C
:107D1A002E5B3F4FE6E1F6E0890144E33FD00E5B7C
:107D2A0029D19E012F5D3F4FEAE4F6E0890130D167
:107D3A00008511852CD00D5D27D0EBE6F6E08E018B
:107D4A0027D10285138523D00E5F1ED019C02B318F
:107D5A0000E0300751F4413041F41091A707F3D005
:107D6A0079F401E00093A7070BC0ECE8F6E08E0176
:107D7A004CE111D04A938A933A932A93F9D02496E4
:107D8A00EF96E79689910895F5D0229608951A9369
:107D9A000A938E01089550E00C947826FCDFF9CFFF
:107DAA00123091F0002339F00A9529F00A9541F032
:107DBA000A9531F004C0143039F0153029F005C0A5
:107DCA00133011F01630D9F702C000E0089501E02F
:107DDA0008950E94A3266F97D90120E0288329835A
:107DEA000A3309F0ACC00D911C91119701301207AA
:107DFA0009F067C0FD0182819381FC010081118134
:107E0A00013042E0124009F09AC00281002309F0D1
:107E1A0096C050E0268137818E010F94944C00E081
:107E2A00FD0104830583FC0103811481E0E0F0E095
:107E3A00FBBFF4E40C942C264ADF06C02881398162
:107E4A00E2E4F7E00DC031DF29DF82D0200F311FD5
:107E5A0089D0201731070BC028813981E6E5F7E080
:107E6A004081518175D0401B510B241735070CF402
:107E7A0066C021C077D08ED023A534A50FC08AD082
:107E8A0005A916A909C06ED0E0E2F7E007DF06C02F
:107E9A00EAE2F7E00081118128813981021713078C
:107EAA000CF04DC008C0FC010681F781E02F10815B
:107EBA004AD009F444C001E010E0FD0104831583AF
:107ECA003EC004301040D9F5FD01A281B3810C9166
:107EDA000023F1F4FD01028113810130124079F58A
:107EEA003DD0E8EAF6E089014DE13FD001814A93AD
:107EFA000A933ED02296FD0101818CD00023F9F02D
:107F0A0010E0FD0101815DD0FD01018158D017C04B
:107F1A000130A9F423D0E5ECF6E089014CE13EDF1B
:107F2A000E5F28D080E0082F75D0002329F010E0DA
:107F3A00082F47D0082F43D083958330A0F36F963C
:107F4A00E4E00C94B4260091A0072ADF00230895E8
:107F5A0000919207102F110F110B08959E012E5FA9
:107F6A003F4F089508811981089515DFFD0108958D
:107F7A008E010C5F1F4F0C94DE50013011F000236C
:107F8A0031F408D000FB04A100F904A31ECF1FCFCF
:107F9A0041E201DFE1EEF6E008959A938A93902F89
:107FAA00812F2091AE0731D0202341F0182F092FBD
:107FBA001FD0882319F006D0092F01D0D4CD0C94F4
:107FCA00814D16D021E032E00895302F0093AE079C
:107FDA0020E05091921B422F19D0132F102311F435
:107FEA000095502323952330B0F35093921B0895A4
:067FFA00212F09D0222313
:1080000011F0302B02C0009530233093921B08955D
:108010003091921B402F01E010E00C94952520E058
:10802000F7DF302309F021E0022F089511E027D077
:10803000A7D039F046E152E460E0F8014287538767
:10804000648710E01CD0012BC9F000E000931709F1
:108050000093060902E019E00E94F56F00E010E0CD
:108060001DD1048F058F06A307A301E000AB17AB5A
:1080700010AFE3E4F9E0108311830287089526E04E
:1080800034E009E10C94427010916809112321F445
:10809000002309F416C033C0109168091A9519F02D
:1080A0001A9539F005C0002319F00BD10093680927
:1080B0000BC1002321F40BE619E001D1F6CF01E05A
:1080C00008951ED2C8D001E0008FA2E0B9E000916F
:1080D0001709002321F45C9651D031F007C001301C
:1080E00051F4D7964BD011F448D008C0B7D00683CE
:1080F000178320873187BAD08F013DD0FEC100D2CF
:10810000A0E5B9E002E00093680900911709002397
:1081100079F4C4D006A117A133D021F420913209FB
:10812000222371F0FD01068B178B009132090FC0DD
:10813000013071F4E3E4F9E00081118121D011F400
:108140001CD018C0FD01068B178B00914D09028FC2
:10815000FD01018D0395018F0F94F744FD01068702
:108160001787208B318B428B538B648B758B5B967F
:108170008D0101D0C2C10D94AF4481C00D911C91FD
:10818000202F212B08950E949C26609701E084DF18
:10819000002309F457C05FD0018D0395018F8091B2
:1081A0006A0990E0877001978017904008F04AC0F4
:1081B0000BE619E081D00F94F744088719872A87C6
:1081C0003B874C875D876E877F8745D086889788F9
:1081D0008E01EEE5F9E048E08DD138D04C855D8523
:1081E0006E857F85FE010E944027AA24888299829D
:1081F000AA82AB82AC82AD82AE82AF82A9E7B9E03F
:108200000E94BD26FE010E94612710F0B6DF1AC051
:10821000840124D00801190119D0001A110A220A78
:10822000330A19D00685178520893189000E111E61
:10823000221E331E068217822086318617D000E563
:1082400019E099DF6096EBE00C94AD26088519855E
:108250002A853B850895E0E5F9E0089520E030E0C7
:1082600048EE53E060E070E00C94CE2501E0028718
:108270000FE311E420E003871487258708950ED0CB
:108280001481117001E0102714838F010E94F56F93
:1082900000E000936809009369090895E2E0F9E0BD
:1082A0000895FCDF1589101731F0058B00E0048379
:1082B0000BE619E001D0089502D003D0ECCF0D9465
:1082C000D44400E519E0FBDF00E008950E949F26FA
:1082D000289797D052D0D9F0088919892A89E3E9DB
:1082E000FBE15BD000E00B834DD00C831D8300E0ED
:1082F0000A838E01CE83DF830E5F1F4F0E94F166DB
:108300003B8120E083D006E312E420E03FD02896B2
:10831000EBE00C94B0260E949D262497802EC90184
:10832000512E3A01962E472E28D019F10E851F8521
:108330002889E6E9FBE131D09A8243E050E09E01D2
:1083400021D00F94944C442D50E029893A891AD0B9
:108350000D5F1F4F0F94944C03E0400E342D22E02C
:108360005AD0352DAC01282D5CD003E812E420E072
:108370000DD02496EFE00C94AE260E94DF55D80174
:10838000012B0895FD0107A110A50895FD010387A4
:10839000148725878D010C943E4E00831183228320
:1083A0006882798208950E949E262F972AD0862E71
:1083B000E4DF19F100E00E836F8278868986088DEC
:1083C000198D0A871B870A8D1B8D0C871D8700E07E
:1083D0000983D8DF0A831B8306E008838E010A5FC6
:1083E0001F4F0C831D838E010E94F166398126E0A8
:1083F0000DD00FEA12E420E0C9DF2F96EDE00C94D7
:10840000AF26502EC901412E3A01089504D0342DD3
:10841000AC01252D06C08D010E94BD5566E074E0BB
:1084200008958D01025F1F4F0C94C5559A938A934E
:10843000A997CA01E2EEF7E08E0149E25BD0FC01A8
:1084400003814A930A938E010DD0FC01038100231E
:1084500011F001E001C000E00E941E3AA996899146
:10846000999108950E5F43D02296089549D0EF97D1
:108470002D97D8010C91002371F501E00883149623
:108480000D9109830D911C910A831B8300E00C83DD
:108490000D838E010E941E67AC81BD81E3E9FBE183
:1084A0004FD021F08D010C5F1F4F47D09E012A5FF6
:1084B0003F4FEBE0F8E0890146E41CD0FD01048168
:1084C0004A930A93008111811A930A938E01065FE1
:1084D0000ED0249609C09E012A5F3F4FE1E5F8E0E7
:1084E000890136D0085FBFDFEF962D9606C01F4F7B
:1084F0000C94DE5050E00C947826A991B99108951F
:10850000BA93AA930895FCDFEC97D8010C9100234D
:1085100069F4E6E9FBE114D009F00FD0EDE8F8E0EA
:108520008E0149E3E7DF0E94DE5005C0E6ECF8E08B
:108530008E010ED097DFEC96E0CFFA016CBF199454
:1085400040815181628100E040305007600708950A
:108550004CE3D0DF0C914A930A938E01089508955D
:1085600010E04FD0128B138B23E030E009E10E9422
:108570004270202F212B39F042E354E460E0F801EF
:10858000408B518B628B08EE13E020E03AD00683DB
:10859000178320872187228707E214E420E00387DE
:1085A00014872587089509EF19E00D94D4449A9310
:1085B0008A93C801980102E11AE00E9491620023A7
:1085C00029F49C0102E11AE00E9434628991999198
:1085D00008950895089565D011F001E0089500E030
:1085E00008950FD0028B138B04D009EF19E00D947E
:1085F000AF448F01DACF05D010FB008D00F9008F5A
:108600000895E9EFF9E0089581D02D972801DA0166
:10861000E1E8F9E08E014DE0EED089EF99E00D91AF
:108620001C911197FC01028B138B8C01BEDF0D9105
:108630001C911197012B19F08C010F94AF44FC0190
:10864000818D928D05C0FC0142815381648182D06D
:108650007ED0C9F700E02D9601C06396E6E00C9449
:10866000B22654D06397C8012A01EEE8F9E080D021
:1086700018D019F08C01C5D013C0A18DB28D0CC0DB
:10868000FD014581568167813CD019F092018C0132
:1086900035D00D91BC91A02F0A2F0B2B89F700E04C
:1086A000DCCFE9EFF9E002891389012B08952ED080
:1086B000A797D8012A01E1EAF9E08E0147E29ED0AE
:1086C000FD01018112811A930A938E010E5F1F4FE3
:1086D0000E94DE50229647D00CC0FC014085518597
:1086E00062850FD019F092018D0108D0FC018081C4
:1086F00091812DD091F700E0A796B0CFFA016CBF21
:10870000199400E040305007600708950C94A126AA
:10871000FDDF63972801DA01E8ECF9E029D00C913C
:1087200000FF0AC000E00E948F560C9100FF04C0B9
:1087300001700E94955409C016D005C0FC01438504
:108740005485658507D003D0C9F700E086CF082F90
:10875000092B0895D6DF19F09D018201CFDFFC01BE
:10876000808191810895E9EFF9E0818D928D0895DE
:108770008E0143E140C0CADF6E972801DA01EBEDBC
:10878000F9E08E014EE137D00C91013039F42BD055
:1087900023D00091110A1E7F01701ED00C9102306F
:1087A00079F421D03181317021E032270323017027
:1087B00016D01E7F318131703227032301700FD014
:1087C000D2DF05C0FC01468557856089C3DFBFDF66
:1087D000C9F700E06E9642CF21812170022B102B49
:1087E0001093110A08952091110A122F1E7F2170F3
:1087F000022FFD01089502D00C94DE5050E00C943D
:1088000078260E94A326C8010E94DF55D801012BBB
:1088100011F409E819C032E020E00A2F0E94BD558A
:10882000F0DE22893389FD0107A1F0A5E02F208326
:10883000318341E09C018D01025F1F4F0E94F3557F
:108840008D010E943B4E00E0E4E00C94B426D9DE9A
:108850000289138901501040028B138B012B09F4FC
:10886000C8DE0895413051F4232B41F409EF19E09B
:108870009CDE17DF19F08F010F94AF440895BA936F
:10888000AA93A1E3BAE000E00D930C9354960093F1
:108890003B0A0093420A26E43AE00BE30E9473612C
:1088A0009D010CE30E947361A991B99108950B5346
:1088B00019F00A9561F00895022F032B01F1F901D7
:1088C000008100933B0A01810093420A0895022F20
:1088D000032BA9F0F90100811181EDE2FAE0208D6E
:1088E000222329F00483158300E0008F089524815A
:1088F0003581200F311F36952795248335830895C0
:1089000011E025D0202F212B39F044E755E460E019
:10891000F80142875387648710E019D0012BB1F02A
:1089200020E030E5E9E1FCE0248335832DE435E9FE
:10893000228F338F2FEF3FE724A335A320E031E0D0
:1089400026A737A709E51CE00F94AF44089522E05D
:1089500034E009E10C9442709A938A93E9E1FCE0D7
:1089600084819581885E9340028D138D80179107D5
:108970002CF404A115A10483158302C0848395837C
:108980008F010E94F56F8991999108950E949F2609
:108990002897A5D05AD0D9F0088919892A89E9E9F8
:1089A000FBE149D000E00B834CD00C831D8300E039
:1089B0000A838E01CE83DF830E5F1F4F0E94F16614
:1089C0003B8120E07CD00BE815E420E043D02896E2
:1089D000EBE00C94B0260E949D262497802EC901BE
:1089E000512E3A01962E472E30D009F10E851F8563
:1089F0002889ECE9FBE11FD09A8243E050E09E0118
:108A000020D087D0442D50E029893A891AD00D5FB3
:108A10001F4F7FD003E0400E342D22E055D0352D7E
:108A2000AC01282D57D007EE15E420E013D0249692
:108A3000EFE00C94AE260083118322836882798252
:108A40000895FD0107A110A508950E94DF55D801E2
:108A5000012B0895FD010387148725878D010C9450
:108A60003E4E0E949E262F973AD0862EEEDF19F1B9
:108A700000E00E836F8278868986088D198D0A87BB
:108A80001B870A8D1B8D0C871D8700E00983D9DFAA
:108A90000A831B8306E008838E010A5F1F4F0C8345
:108AA0001D838E010E94F166398126E008D002E420
:108AB00016E420E0CFDF2F96EDE00C94AF2604D033
:108AC000342DAC01252D06C08D010E94BD5562E0FC
:108AD00074E008958D01025F1F4F0C94C555502E10
:108AE000C901412E3A010895E2979A0142E050E00F
:108AF0002D5F0DD09E012E5F3F4FE3E5FAE0890127
:108B000040E35FD08E010C5F55D0E49608953F4F4F
:108B10008E010D94944CBA93AA93EF976897D8015D
:108B20000C910023C9F501E00A8314960D910B8383
:108B30000D911C910C831D8300E00E830F838E0129
:108B40000E5F1F4F0E941E67AE81BF81E9E9FBE106
:108B500083D021F08D010C5F1F4F7BD0FD0102817E
:108B60000023A1F442E050E09D012C5FD0DF25D02E
:108B7000E3E8FAE089014FE424D00D911C911A93A7
:108B80000A938E01045F16D024960FC016D0E2ED32
:108B9000FAE072D0028104C010D0E4E1FBE064D0BE
:108BA0004A930A938E01065F6AD0EF966896A99160
:108BB000B99108951F4F0C94DE509E01285F3F4FDE
:108BC000089557D0088119811A930A930895BA938A
:108BD000AA93EF972997D8010C91002361F504E03F
:108BE000088314960D9109830D911C910A831B83B0
:108BF00000E00C830D838E010E941E67AC81BD8155
:108C0000ECE9FBE129D009F024D00C9100239E016E
:108C100059F42A5F3F4FE6E5FBE089014FE329D095
:108C20008E010A5FC7DF12C02A5F3F4FE5E9FBE014
:108C300023D0008106C09E012A5F3F4FE7EDFBE095
:108C400013D04A930A938E01085F19D0EF962996A4
:108C5000AECFFA016CBF199440815181628100E06E
:108C6000403050076007089502D00C9108958901A3
:108C700042E450E00C947826FADFFD0108959ADF73
:108C800022960895089501E00093810C02E000937C
:108C9000DD0C00E00093E20C02E00093860C03E0A0
:108CA00000938B0C04E00093900C48E050E027E622
:108CB0003CE005E91CE00F94944C4CE050E020E7C8
:108CC0003CE009EB1CE00D94944C8A9380E0482F23
:108CD00050E003E010E00E948B25F801E453F24FCE
:108CE00040815181628100E040305007600719F0F7
:108CF000FA016CBF199583958C3048F300E0899197
:108D000008950C94DE500BE214E10C947F4F0E9406
:108D1000A4260333104010F022E301C0202F07EEF9
:108D20001CE10E94D350A02F80E00AC0982F990F19
:108D3000990BFC01E951F34E00810E94844F839509
:108D40008A17A4F3E3E00C94B526ADD0ACE2B6E10B
:108D5000ED91FC912CD08DD009E114E132D025D0D9
:108D6000075F1F4F1FD0E0912C16F12F20D0012B51
:108D700011F014D005C000E0ECE2F6E100830183BD
:108D80005FC113D0012B49F40EE114E1BADF0BE20D
:108D900014E1ECE2F6E106D001D008950EE216E10E
:108DA0000D94AF44008311830895ECE2F6E1008155
:108DB000118108950D94F3470E94B0A45AD00FED8D
:108DC00014E19FDF229608950DEC18E420E00C9446
:108DD000F75000E00E948F56EDCF6297E6EEF4E187
:108DE0008E0142E15DD003E002D0649608954A937B
:108DF0000A938E010E5F1F4F84CFE0E8FAE10081F5
:108E0000067C008308959A938A93C80103E417E4CB
:108E100020E0E8E8FCE1C6DF228306E310E0E5EEAF
:108E2000FBE1C0DF02E002830E94B0A4E8EEFBE1B8
:108E3000B9DFFC01008100932D1C01E000932E1C82
:108E40000FE91BE10F940F2B8991999108952BD075
:108E5000D8010C910E94C23F002339F40C9110E01C
:108E600008D008EF14E1ADDF03C00FE015E149DFE2
:108E7000E7C01A930A93089575D011F40C94333D0A
:108E800002E315E13ECF0FD06697D801E7E4F5E1A4
:108E90008E0146E105D01C960C91A9DF6896D0C0E2
:108EA00050E00C947826BA93AA9308952497F80179
:108EB000408101E010E020E030E00E94F2250883CC
:108EC00019832A833B839E0104E010E00E94C77F40
:108ED00000E00E94955424960895F8010081002333
:108EE00011F001E001C000E00C944440F801008161
:108EF0000C945141ABD029F4EDE5F5E18E0141E24E
:108F00001DC0A1D059F0E85FF34081F0339751F0D4
:108F1000319781F415D00E94664111C011D00E9492
:108F2000463A0DC00DD00E94B43B09C009D00E9442
:108F3000C64405C0EEE7F5E18E014AE105D07FC0E9
:108F40009FD06BD0509673C0ABDFDBCE0BD049F413
:108F50000085002311F011E001C010E004810E949F
:108F6000D23F0895F8010081118101301240089527
:108F7000F801208131812130324019F404810E94AE
:108F8000EA3F089590DFD80114D0119708E915E160
:108F90000F947D4C012B11F401E00AC00AD00BE9BB
:108FA00015E10F947D4C012B11F400E001C002E0AB
:108FB00047C042E050E040C049D029F4EEE9F5E175
:108FC0008E0141E228C03FD091F0E85FF340D9F034
:108FD0003397A9F03197D9F453D09D01285E3F4FC4
:108FE0003A932A931AD01ED00E948B4115C05496F2
:108FF0000C915497083137D00E94723A0DC033D08B
:109000000E94D93B09C02FD00E94EB4405C0EFEB72
:10901000F5E18E014AE198DF12C040E04A934A939D
:109020004A9308955C967C9118976C9114974D9192
:109030005C9119971C9114972D913C910895A196DC
:10904000A991B99108953FD03A970895BA93AA93F8
:10905000A197D80111E01C96EFDF1D9709E10E944E
:109060004270012B08950CD0002E8D01085E1F4F19
:1090700000DF00E00A930A930A93D4DF002D0895DD
:109080008D0180CFE3DF29F4E9EDF5E18E0141E2C6
:1090900018C019D0E250F44061F0339731F03197A5
:1090A00061F416D00E94D3410DC012D00E941F3C23
:1090B00009C00ED00E94314505C0EAEFF5E18E01EE
:1090C0004AE142DFBCCF1C96ED91FC911D970895BB
:1090D000D7DF5C9602D001D0A8CFAEDF15973A93C8
:1090E0002A9308956897E4E1F6E18E0148E1D8DE1D
:1090F00001E013E01A937CDE6A9608950CE316E112
:109100000E9438730E94A4500E94834605E516E130
:109110000E94D7420E9443460E94B0420E94FE3CF9
:109120000E94CC4C0E9416400E949C390E943F44F1
:109130000E94623B0E9435380E9472490E9480441E
:1091400003E010E40E94FE56002321F003E010E447
:109150000E9451560E945E7306E616E10D94AF44DC
:109160002B970E94FF6401E0088304E716E10A835D
:109170001B838E010E942E652B96089500913E1947
:10918000002319F401E000933E19089500E010E077
:1091900008950C94D34200E00895089507D099D023
:1091A0001181012B11F00E945E73089500911B1D27
:1091B000002371F00A95B9F00A9501F10A9531F191
:1091C0000A9571F10A95C1F1025009F441C0089560
:1091D00048D000FF08C056D021E032E03ED001E088
:1091E00076D00E7F09C03DD001FF08C04BD026E0ED
:1091F00033D002E06CD00D7F0083089532D002FF9F
:109200000FC036D040E026D003E013C02AD002FFC2
:1092100007C02ED043E01ED004E059D00B7FECCF26
:1092200020D003FF15C020D040E050E022E014D051
:1092300005E000931B1D089514D003FF09C014D04E
:1092400043E050E022E008D007E041D0077FD4CFD0
:1092500000E0EFCF50E025E034E014E109E10C94A8
:1092600002560091191D089506D068E270E0089535
:1092700002D069E1FBCF08E419E420E02A931A93B5
:109280000A930895F8DF64E170E040E050E008954B
:109290008DCF9D01D8011996ED91FC91E150F240DE
:1092A00041F0E150F24071F0339749F0319721F0ED
:1092B0000CC00FD0016008C00CD0026005C009D0FE
:1092C000046002C006D008600083D90108950093AD
:1092D0001B1DE9E1FDE10081089508950E94963B80
:1092E0000C94A73B22D200E00483018710E006879C
:1092F000078701E0008F158F0C944E4C9A938A9348
:10930000C8017AD249F08C010E947B4C0ED21481A4
:10931000101B148300E001C005E88991999108951C
:1093200079D0A0972801A22FCA01ECE8F6E18E01BE
:1093300040E23CD011D02A2F8C01D4D16DD039F429
:1093400058D011F409E804C034E020E057D000E020
:10935000A096E7E00C94B1260C5F10D124960895F6
:109360000E94A1262ED09E012E5F3F4FECEAF6E12F
:10937000890141E21BD00A5FF0DF52D091F439D06D
:1093800011F409E80FC09E018C01D2D1BC01402F1D
:1093900028813981FD0107A110A5F9D0302F21E0E6
:1093A000DBD000E0A396E6E00C94B226A7D0FC0147
:1093B00002814A930A93008111811A930A938E01C4
:1093C0000895A3972801CA01089524D0FADFEDEC8F
:1093D000F6E18E0143E272D0BFD11ED039F409D03C
:1093E00011F409E804C034E022E008D000E0A396BC
:1093F000B0CF0E94DF55D801012B08950A2F47D026
:10940000562DFC01428120813181FD0107A110A56B
:10941000B8D0A4C00C94A026602E002309F417D263
:10942000F2010489002308950E949F266F97380156
:10943000DA01E0EFF6E160D05BD09BD059D05EDF7F
:10944000402E002309F403D2F30104890023D1F450
:109450000E94DF55C801012B11F409E814C033E064
:1094600023E0082F14D03BD1FC0107A1F0A5E02F89
:1094700040822183328341E093018C0176D08C01BC
:109480000E943B4E00E06F96E8E00C94B0260C94EE
:10949000BD55C0DF6E9796DFEFE0F7E18E014EE13C
:1094A0000DD074D1B9DF39F4A4DF11F409E804C098
:1094B00034E024E0A3DF00E06E964BCF77DF0C5F53
:1094C0004CDF8C010895BA93AA936F97DA01EDE20D
:1094D000F7E112D0FD0102814A930A9309D06DDFB2
:1094E0003BDF8D018BD100E06F96A991B991089572
:1094F0000D911C91119708958E014FE150E00C944D
:1095000078260E94A126A2975DDFECE4F7E18E01A8
:1095100042E2F4DFBFD12DD083DF61F0BBD16CD14B
:10952000C1F0FC012081318100E010E00E94964CE6
:10953000012B79F05EDF11F409E80CC0FC012081F9
:109540003181EA2FF12F07A110A556D0302F26E048
:1095500003D000E0A29627CF8D0199DF41E0920170
:109560008D0103D08D010C943B4E025F1F4F0C9474
:10957000F35523DF0E5F02D0229608951F4F0C94FF
:10958000DE50F801508321833283438308955B2F9B
:109590000A2ED8014C93FB017AD101831283FB017F
:1095A0000281FD010383442311F004E022C0F9018C
:1095B00004811581FD010483158300E0068317965D
:1095C00001E012E00D931C93119705E0FD01028369
:1095D000F90106811781FD0103831483F9010085D8
:1095E0001185FD0105831683F9010285FD010783BD
:1095F0000FE0A02DB52F0895AAD000E110917217A9
:10960000011BFD010183228333838901F5D0D1F051
:1096100000E010E00CC0FD012481322F339534832B
:10962000F801418130E0FD01E20FF31F45839C0109
:109630000E94964C77D079F700E00C93FD010481ED
:109640000B5F03C005E80C9304E067C06BD019F012
:1096500029E10C94B6B301E0089562D0D801F90174
:1096600015962C91139730E02A5F3F4F90E0421BF4
:10967000842F930B020F131F2C91129721832FD04D
:109680001296228333832BD0248335831BC0D801C9
:1096900013964D915C9146835783D80115964D9151
:1096A0005C9140875187D80117964C914287D80129
:1096B00012962C9130E0020F131F0D5F1F4F821B7B
:1096C00090400397282F292B41F0D8014D915C91B0
:1096D00041305240E1F205E801C000E01EC02D918A
:1096E0003C9108951DD0D801822F83D0A9F0FD01AF
:1096F0002281FEDEAAD016D041F40E94564C12D030
:1097000049F013D0248123952483482F98018D019B
:10971000A4DF03C009E801C005E8E4E00C94B42626
:109720000C94A326202F212B0895EEE6F7E108954F
:109730000ED05FD051F024D0FC0100831183012BA7
:1097400011F40BE803C000E001C005E8E6CF0E9479
:10975000A326D801C9010895BA93AA93D80149D084
:1097600069F00ED0DFDF11F40BE809C00E94644CF1
:10977000DCDF04810A95048300E001C005E8B5CE72
:1097800012962C9112970D911C915FC0C9DFC801F0
:10979000F80181D031D059F1FC0155D0F801012BED
:1097A000C9F40E94564CF801012BF9F0A2E7B7E189
:1097B0002C9123952C9320E024832583DC018FDFDB
:1097C00022833383DC0112962C91218337D0ACE7BE
:1097D000B7E103C0ACE7B7E130D02D933C9301E093
:1097E000009386170E2F37D003C009E801C005E8A3
:1097F00094CF0D911C91119729DF14CEF80123D03D
:1098000091DFD1F0F80119D090DF2687378721E06A
:10981000208FF80126813781E2E4F7E0208331834D
:10982000F80120853185ECE4F7E020833183F801ED
:1098300002850093A7070BD0089521812093771705
:10984000228133810895228126D00C94694C07E14E
:1098500010E00C948456BA93AA93D80110E021E04A
:1098600032E009E10E944270012B79F0E2E4F7E076
:109870000ED006831783ECE4F7E009D00087118748
:109880000091A707028700E001C005E82ECE03D0B3
:10989000FD010895FC0100811181089540EB50E025
:1098A00020E030E00CE11DE10D94CF4C40E070D0A1
:1098B00019F401E0008303C01BD0C8F302C08F017C
:1098C000089500E010E008954BE050E020E030E023
:1098D000EBCFB80140E051D0028113810617170782
:1098E00021F40181021709F4EACF02D0A0F3E9CFF5
:1098F0004395403108950E94A326D80190E080E06E
:10990000482F41D098010CE11DE1020F131FF8010F
:10991000228133812A173B0711F4D6DF9395839573
:10992000803170F3092FE4E00C94B426B801012BC8
:1099300041F440E02DD011F01BD0B1F0D9DFB8F4E4
:10994000F9CF1DE16C31710790F001EC1DE10617B4
:10995000170768F040E011D06E177F0730F40081E0
:10996000002319F005D009F4AACFC2DFA0F3A9CFD4
:109970000281138102171307089505D0ECE1FDE180
:10998000E00FF11F089550E00BE010E00C948B25E0
:10999000F4DF008100230895EDECF7E100E004839B
:1099A0000387028B089500E012D100A301A308955C
:1099B0006C979E01265F3F4FE2EEF7E1890142E19D
:1099C00039D08E01065F33D001E0088300E010E05B
:1099D0000A830B83098304E030D06C960895BA9310
:1099E000AA93E997DA019E01265F3F4FE4EFF7E182
:1099F00089014FE21FD00C914A930A93FD01018126
:109A000012811A930A938E01025F11D0249600E00E
:109A10000883FD01018112810A831B830081098370
:109A200004E010E00AD0E996A991B99108951F4F7A
:109A30000C94DE5050E00C9478260C831D83CE836A
:109A4000DF839E012C5F3F4F0AE30E94E86100E044
:109A500008950E94A2262D97C801E3E2F8E18E0145
:109A60004DE04DD0FC0104890023D9F579D011F4E3
:109A700009E838C0EA2FF12F07A110A522E438E148
:109A8000F90140A151A1452BD1F048E0442E40E01E
:109A9000F8014083409142184183F901418152818C
:109AA000F80142835383F9014381548165817681B2
:109AB000F80144835583668377838CD005C04424A2
:109AC00043942BE8F8012083342D21E08D010E947E
:109AD000BD5541E09C018D01025F1F4F0E94F3556F
:109AE0003CD000E02D96E5E00C94B3266297E0E3CD
:109AF000F8E18E0142E103D056DF629608959ADFC5
:109B000097CF0E94A226402EC9012AD029F1EA2F20
:109B1000F12F07A1F0A5E02F40828183928333E0EB
:109B200020E00A2F0E94BD5569E070E039E140E075
:109B300050E020E08D01025F1F4F0E94C55501E0FB
:109B4000FD01068F05EB1DE420E0038714872587C0
:109B500004D09C01042D0AD0C6CF8D010C943B4E3D
:109B60000E94DF55D801012B089508950E94A32675
:109B7000A02FC90121D00430104008F02BD020D0F4
:109B8000E00FF11FA083818392830F94F744A9E72C
:109B9000B9E00E94BD26C80113D0F801EE5BF74E74
:109BA000838394832583368307D00F5F1F4F00A3E1
:109BB00011A3E4E00C94B4260AD000A111A10895E9
:109BC00006D040A151A107E010E00C948B25E2E4FF
:109BD000F8E108950E94A32680E090E00DC0AC015A
:109BE000F2DF98018F01020F131F47E09801295FF0
:109BF0003F4F0F94944C8395EADFA0A1B1A1119738
:109C00008A179B0760F300A111A101501040CFCF2C
:109C10000E94A32640E02AD08CEC9DE1800F911F8A
:109C2000DC019796FD01038D0023C1F401E0038F51
:109C30004DE220E030E08C010F94CF4C45E150E044
:109C400020E030E08C01035D1F4F0F94CF4C8C015E
:109C5000035D1F4F0D931C938C0105C043954C3041
:109C6000D0F200E010E0E4E00C94B42650E006E40A
:109C700010E00C948B2505D00C94537302D00C94F7
:109C80004673F801438554856585ED5BFF4F40833E
:109C90005183628342E55EE460E0F80143875487C4
:109CA000658708950E94A126A597D801C801049749
:109CB0002C01F8010181002361F40C910023E9F1EA
:109CC0009E012A5F3F4FE8E7F8E189014EE14CD061
:109CD0004ED0FD010181013081F59C01BE016A5F1A
:109CE0007F4FE6E9F8E18B014FE13ED0285F3F4F1F
:109CF000F901048D023011F00330F1F400810130DC
:109D0000D9F004E0088300810983FD0105811681F3
:109D10000A831B834C834D830981002371F08E01DC
:109D20000E941E67EC81FD81008110E01A9321D012
:109D300000E00C830D83F0CF1AD002E4400E00E067
:109D4000501EF2014181528163814030500760070B
:109D500021F08D01FA016CBF199500E0F20100833A
:109D6000A596E6E00C94B22650E00C9478260C916F
:109D70004A930A938E01085F1F4F0E94DE5022967D
:109D800008950E949F262801390141E050E060E0DB
:109D900070E0ACD0B0D009F101C03196ADD0E9F798
