:100000000C949F260C948BF00C94B7F00C94E3F0B6
:100010000C940FF10C943BF10C9467F10C9493F158
:100020000C94BFF10C94EBF10C9417F20C94E626AF
:100030000C94E6260C949CEC0C94E6260C94F2ECC2
:100040000C94E6260C94E6260C94E6260C94E62600
:100050000C94E6260C94E6260C94E6260C94E626F0
:100060000C9449F30C9455EF0C94F8EE0C9427EF94
:100070000C94E6260C94DAF20C94B1F20C94E62679
:100080000C94E6260C94E6260C94E6260C94E626C0
:100090000C94EFEF0C9492EF0C94C1EF0C944AF295
:1000A0000C94E6260C94E6260C9434DE0C9497E02F
:1000B0000C94E6260C94E6260C94E6260C94E62690
:1000C0000C94E6260C94E6260C94E6260C94E62680
:1000D0000C94E6260C94E6260C94E6260C94E62670
:1000E0000C94E6260C94E6260C94E6260C94E62660
:1000F0000C94F3E00C94E6260C94E6260C941BE199
:100100000C94E6260C94E6260C94E6260C94E6263F
:100110000C94E6260C94E6260C94E6260C9443E117
:100120000C94E6260C94E6260C94E6260C94E6261F
:100130000C94E62600000000000000000000000013
:1001400000000000000000000000000000000000AF
:10015000000000000000000000000000000000009F
:10016000000000000000000000000000000000008F
:10017000000000000000000000000000000000007F
:10440000260E16001900190C030018005507BD00F0
:104410001700C812010016007C13080015000913CC
:10442000010014000013020013006C1301002600A9
:104430000F1301001E00FF1201000F008613010080
:104440000E00701301000D00781302000C00C91259
:1044500001000B00C31202000A00E612110009005D
:10446000DC1201000800DB1201000700DA12010073
:1044700006006D1301000500761301000400BE1252
:1044800004000300F71208000200BC120100010042
:10449000A01208000000744712002E009847150073
:1044A0002D00C24719002C00F44704002A00FC47E5
:1044B000110029007C4F994EBA4FBA4FBA4F9E4E09
:1044C000A84EBA4FBA4FB04EB54EDD4EE64EBA4F7B
:1044D000EB4EF34EFD4EBA4F064F0B4FBA4F144FF3
:1044E0004F4F614FBA4F544F5C4F7C4F7C4F7C4FC6
:1044F000734F734F734F734F734F734F734F734FAC
:10450000734F734F734F734F734F734F734F734F9B
:10451000734F274F734FBA4FBA4FBA4FBA4FBA4F74
:10452000BA4FBA4FBA4FBA4FBA4FBA4FBA4FBA4F43
:10453000BA4F734F6E4F7C4F734F214F664F7E4F74
:104540007C4F954FA34FAA4F7C4F7C4F7C4F165109
:1045500083505D515D515D5189508E5031515D5197
:1045600091509450A550AA505D51AD50B050B350E9
:104570005D51B850BB503151C0500A511F515D516F
:104580000D51105187501351135131513151315147
:10459000315131513151315131513151315131510B
:1045A000315131513151315131513151F05031513D
:1045B0005D515D515D515D515D515D515D515D518B
:1045C0005D515D515D515D515D515D5131512751DD
:1045D0002A513151E8502251395142513C513F51F9
:1045E0005D51505155515B51625264526F52665247
:1045F00068526A526C52415272527452415277520E
:10460000CC52CF52D352D652DA52DE52E152E55258
:10461000E55241577F577F577F5748576557565741
:104620005D5790574F576C576C5773577F57875745
:104630008B57EB57EE57F157F157F357FD57F75795
:10464000FA570A58F5570058025804580758F359B2
:10465000F659175AF959FD59175A015A175A0C5A4F
:104660000F5A155A7E5D2B5E3A5E395D815E815E22
:10467000365E3A5E3F5E6D5E565E815E815E6D5E69
:104680006C5D6F5E87968F96A696189718976F96B3
:104690007C96189718971897C696D596F296FE9618
:1046A00018976C969A963896059B059B2E9A369A83
:1046B000369A439A439A609A609A609ABE9ABE9AD2
:1046C000BE9A599B059B04A956A92AA92EA92EA9D1
:1046D0002EA92EA92EA932A932A991BC94BC35BD10
:1046E00035BD99BC35BDA3BC8CBD8CBD8CBD8CBD0E
:1046F0008CBD8CBD8CBD8CBD8CBD35BD35BD8CBD20
:104700008CBC9EBC35BD0CC85AC85AC85AC85AC8B9
:104710005AC849C833C851C85AC843C85AC84DC8EE
:1047200055C830CA0BCBE8CB13CC52CC7ECDC7CD0D
:10473000A9D3A9D3A9D3A9D3A9D3A9D3A9D3A9D399
:10474000A9D3FECC0CCDA9D3A9D333CDCACBB1D537
:10475000B9D5CBD5D4D5D6D5D8D5DAD5DDD5B0D643
:1047600028D728D7D6D6DFD6EFD6F8D6FBD6FED6B2
:1047700001D707D700000100020003000400050074
:1047800006000700080009000A000B000C000D00DD
:104790000E000F001E0018000000010002000300C0
:1047A0000400050006000700080009000A000B00CD
:1047B0000C000D000E000F001E0013001400150069
:1047C00016000000010002000300040005000600BE
:1047D0000700080009000A000B000C000D000E0085
:1047E0000F001E001300140015001600170018001B
:1047F0001900260013001400150016000000010027
:10480000020003000400050006000700080009007C
:104810000A000B000C000D000E000F001E00BE056C
:10482000000055070000AF0600001208000049070D
:104830000000000000003C080000A60D0000FE0D76
:104840000000500B0000A20B00006C0B0000D90B05
:1048500000001C0C0000600D0000000000000000C3
:104860000000190C0000260E0000000000000000EF
:104870000000000000000000000000000000000038
:104880000000000000000000000000000000000028
:104890000000000000000000000000000000000018
:1048A00000003C0E0000640E000043060000A64A13
:1048B0000200AA4A0100AD4A0100AB4A0200B04A18
:1048C0000100B14A0100B24A0100B34A0100B44AF2
:1048D0000100B54A0100B64A0200AE4A0200B84AD9
:1048E0000100B94A0100D24A0200C34A0100C44A89
:1048F0000100C54A0100CE4A0400BA4A0100BB4A81
:104900000400BF4A0100C04A0100CA4A0100CB4A64
:104910000100CC4A0200000000000000000000007E
:104920000000000000000000000000000000000087
:104930000000000000000000000000000000000077
:10494000000000000000C14A0100C24A0100D44A30
:104950000100D54A0100D64A0100D74A01000000F3
:104960000000C64A0400A84A0200A0120800AA12C9
:104970000100B8120400BC120100BE12040074133E
:104980000100751301007C13080078130200001366
:104990000200091301007013010086130100761351
:1049A0000100C5120100C6120100C7120100C812A1
:1049B0000100C3120200C9120100CA1201007213E1
:1049C0000100711301007B1201007C120100F7123B
:1049D0000800DD120400D2120400D6120400DA121C
:1049E0000100DB120100DC120100E61211006D1360
:1049F0000100E1120100E21204006A1201007D12BE
:104A00000200FF120100C2120100000000000000BD
:104A100000006B1201000000000000000000000018
:104A20000000000000000000000000000000000086
:104A30000000000000000000000000000000000076
:104A40000000CB120500D0120100D11201000000BD
:104A50000000000000000000000000000000000056
:104A600000000000000000000000AC120100000087
:104A70000000000000000000000000000000000036
:104A80000000000000000000000000000000000026
:104A900000000000000000000000BD120100B21282
:104AA0000100AB12010085006C0001000007050049
:104AB00007040205040204000308FF1400000001BB
:104AC00008030303020A901A00000100000000001E
:104AD0000303141061620003001E000003F4008051
:104AE0000000013412000303000002000000000077
:104AF00003034C1D000010270000010001E8030023
:104B00000004E80300001041746D656C2020202033
:104B100020202020202020FECAAAAAAAAAAA1A0081
:104B2000020301000000000000000000000000007F
:104B3000000005FF00000000000000000000000071
:104B40000000000000000000000000000000000065
:104B50000000000000000000000000000000000055
:104B60000000000000000000000000000000000045
:104B70000000000000000000000000000000000035
:104B80000000000000000000000000000000000025
:104B90000000000000000000000000000000000015
:104BA0000000000002010002020508080000FFFFEB
:104BB000341200000000000000000202016640A262
:104BC0004500000000000000000000000002C17C61
:104BD0009F77010709984B72010109984B720101F7
:104BE000807CB28F0101057C119F0101057CE09E54
:104BF0000107BA7B3B720101627B2D850101000038
:104C00000000010700000000010100000000010396
:104C10000000356A01040000356A0105000000004B
:104C2000010600000000010D0000000001010998CC
:104C30000000000100000000010E0000000001075C
:104C400000000000010A0000000001000000000058
:104C50000101000000000101000000000000000050
:104C60002876000900002876000C00002876000055
:104C70000000287600C378957EC8958CA8C874FE7D
:104C80009BD8797E7A4E733B81848761763A9F5FA9
:104C900079CD73B6720000000080720381000000BD
:104CA00000EA67FA6A8068556879680000F167FF72
:104CB000676E68F867F06AA867EC69F369626AE48E
:104CC00069876800004A6B020102030302020101C6
:104CD00001010101010101020201010102010202BF
:104CE00002020202010202020202020103030202A4
:104CF00003C3A6EF9CA695229E000025A5A58EDCE9
:104D0000A9000000000EB729BCDEC5F1BEB9D3C3AF
:104D1000C4A7E2A7E2A7E2A7E219E4DFE1CFF36DBF
:104D2000EC48DF86DE02EBA2EDA6EA33E9AEE7A8A7
:104D3000E2FAE326E539E3F8E324E537E30011245A
:104D40008091E817823159F084B780FD04C08F71DB
:104D50008093E81707C081E08093E81703C081E1E2
:104D60008093E81714BE8091600088618093600092
:104D700010926000E9EEF7E18DEC01C0819390E7BD
:104D8000E030F907D9F3D0F311241FBEC0E0D0E71B
:104D9000DEBFCDBF00E00CBF13E0A0E0B2E0E2E375
:104DA000FCEE01E00BBF02C007900D92A032B107EC
:104DB000D9F727E1A0E2B3E001C01D92A83EB207F7
:104DC000E1F70E9454310E946A31FDCF0C9400003B
:104DD0007F937FB7F8949D9AA5988AEF4DD08AEF7C
:104DE0004BD09D9886E448D081E0959980E08F93E0
:104DF00080EF42D08F917FBF7F9108957F937FB7DF
:104E0000F8949D9AA59886E037D09D988AE034D092
:104E1000889495990894881F8F9384E62DD08F915C
:104E20007FBF7F9108959F937F9398E0E7DF8795F9
:104E300077959A959923D1F7872F7F919F91089520
:104E40007F937FB7F894A5989D9A8F9386E014D0AE
:104E50008F91879508F49D988F9384E60DD08F915C
:104E60009D987FBF7F9108959F9398E0E9DF9A9581
:104E70009923E1F79F9108950000000000000000D1
:104E80008A958823C9F708955F937F937FB7F89435
:104E9000CF93DF93C0E0D0E07F935091B200709148
:104EA000B2007517E1F3739521965091B200571730
:104EB000D9F77F91CE01DF91CF917FBF7F915F9135
:104EC000089581E0809320032FB7F89480917C04AB
:104ED00090917D04906190937D0480937C042FBF1A
:104EE000089592E090932003882381F02FB7F894DF
:104EF00080917C0490917D04906190937D048093D7
:104F00007C042FBF89E192E00C945CE60895209127
:104F10007E0530E0322F222740917F05242B4F77EA
:104F200050E095E0569547959A95E1F7220F232F8B
:104F3000221F330B319564E6629FC001639F900D81
:104F4000112469E1649F9001659F300D1124820F47
:104F5000931FA0E0B0E08093800590938105A0931B
:104F60008205B09383050895EF920F9380912003FB
:104F7000813029F118F08230B1F16BC007D180ED9A
:104F800097E0A0E0B0E08093270390932803A093DC
:104F90002903B0932A0310922B0381E697E29093A2
:104FA0002D0380932C0381E293E00E942EE283E0A4
:104FB0008093200381E293E00E942EE24AC089E1BF
:104FC00092E00E943EE6019621F46BE081EC92E0D3
:104FD0000CD189E192E00E9474E60196B9F56BE08C
:104FE0008DEC92E032C093DF609180057091810575
:104FF000809182059091830524E630E040E050E006
:105000000E94CDF4E4E0EE2E00E069E180E092E061
:1050100051D1809180059091810597FF03C09195B2
:105020008195910964E670E00E9498F49C01442700
:1050300037FD4095542F72E0E72E05E069E180E0EE
:1050400092E007D169E180E092E0CFD083E08093E5
:1050500020030F91EF9008950895089508950895FD
:10506000CF92DF92FF920F931F93CF93DF93E42FA2
:10507000F0E0F0902A042AEF30E02F1931092E17C2
:105080003F0734F15091290420E030E0EC01C60FD5
:10509000D11D0AEF10E02E173F07ACF4852F90E0EA
:1050A000BC01625D7C4F6B01BE01620F731FDB01AF
:1050B0005C91D6015C932F5F3F4F0196B8010E942F
:1050C00098F4582FE8CF50932904F40EF0922A0454
:1050D000DF91CF911F910F91FF90DF90CF900895B6
:1050E0001F93CF93DF9310925D0410925E04109192
:1050F0002A04112309F446C080912804EBE2F4E06D
:105100001333E0F4212F30E0CAEFD0E0AF014B526F
:105110005440421753075CF490E0DC01A25DBC4FA1
:105120004C9141930196BE010E9498F4EFCF809379
:10513000280410935D0410922A0418C02AEF30E06E
:1051400090E0DC01A25DBC4F4C9141930196B90106
:105150000E9498F494E0ED35F90791F780932804C4
:1051600082E380935D04125310932A0481E08093BC
:105170005E0440915D0450E06BE274E08DE595E0E3
:105180000E948FE5DF91CF911F91089588EC809365
:1051900068051092690589E190E090936B05809312
:1051A0006A0586E080936C0510926D0510926E057D
:1051B00010927D051092720510927105109274057F
:1051C000109273051092760510927505109278056D
:1051D0001092770580E798E290937C0580937B0599
:1051E0008DE595E00C9430E50895462F20915E04FE
:1051F000222319F060E034CF0895FC01ABE2B4E063
:10520000633370F4862F90E09D012B5234402817B1
:1052100039071CF421912D93F7CF40935D040CC006
:1052200021912D9324E0AD35B207D1F722E32093ED
:105230005D04425362E314DF81E080935E04409199
:105240005D0450E06BE274E08DE595E00C948FE531
:105250000895A0E0B0E0EFE2F9E20C941AF5F12C29
:10526000F701E00FF11DC62FD0E0CE17DF07ECF0FD
:10527000C0E0D0E08C010E0F1F1F6AE0862E912C3B
:10528000A12CB12C2197F701EC0FFD1F319669F08D
:105290006801CC0EDD1EB901CA01A50194010E946E
:1052A000ABF4605DF6016083EDCFCDB7DEB7ECE027
:1052B0000C9436F5A0E0B0E0E0E6F9E20C941AF5C3
:1052C000FC01C62FCA01B90110E057FD02C02BE254
:1052D00008C090958095709561957F4F8F4F9F4F37
:1052E0002DE2DF01A00FB11F2C9398012F5F3F4FDC
:1052F000F12C2E0D3F1D4C2F50E04217530704F1A7
:10530000C0E0D0E00E0D1F1D0E0F1F1FEAE08E2E15
:10531000912CA12CB12C21979E01215031092E0DE9
:105320003F1D37FD0DC06801CC0EDD1EA5019401A7
:105330000E94CDF4605DF6016083B901CA01EBCF34
:10534000CDB7DEB7ECE00C9436F5A2E0B0E0EBEAC6
:10535000F9E20C941CF56C0100918505109186050D
:10536000E12CF12C8091890590918A05E816F906C7
:10537000A8F45801B8016C5F7F4F42E050E0CE01C5
:1053800001960E94E2F50A5F1F4F29813A812C1590
:105390003D0539F08FEFE81AF80AE4CF80E090E09D
:1053A00001C0C5012296EAE00C9438F5ADE0B0E00A
:1053B000ECEDF9E20C941EF57C016B0123E096956F
:1053C00087952A95E1F7FC01EB57FA4F228D30E0E3
:1053D000B70167707727062E02C0369527950A9485
:1053E000E2F78E010F5F1F4F20FF42C027E0EFE979
:1053F000F5E0D80101900D922A95E1F7A0E020E0B8
:1054000030E04A2F50E048175907D8F4F801E40F6C
:10541000F51F4081542F569555754575540F452FEE
:105420004695469543735373450F4083E42FEF70C1
:1054300042954F7050E04E0F511D240F351FAF5F46
:10544000E0CFE0E0D801A80FB91F4E2F50E046177B
:10545000570780F44C9150E00E2E02C056954795A8
:105460000A94E2F741705527240F351FEF5FEDCF07
:105470002FEF3FEF1B870A8746E0429FC001439F03
:10548000900D112404969987888786E090E09D8787
:105490008C8768E87BE2CE01089672D18D819E816F
:1054A000E816F90639F084E090EA9093B905809304
:1054B000B805E1D589819A81F601918380832D9683
:1054C000E8E00C943AF5A6E0B0E0E9E6FAE20C94E4
:1054D00020F57C018B0180E090E0FC0133E0F69543
:1054E000E7953A95E1F7EE0DFF1D6081AC0147703D
:1054F0005527262F30E0042E02C0369527950A94B2
:10550000E2F720FF0DC021E030E001C0220F4A95F4
:10551000EAF720952623208318DF009731F431C065
:10552000019683339105C9F62CC046E050E0BC01DA
:10553000CE0101960E94E2F589819A81F801938358
:105540008283B8018D819E8131DFF8018081918154
:105550000596918380838B819C819583848382814E
:105560009381892B39F480E090EA9093B905809378
:10557000B80581D58D819E81F7019087878381E071
:1055800006C08FEF9FEFF7019087878380E0269614
:10559000E6E00C943CF5A8E0B0E0E1EDFAE20C9412
:1055A0001AF57C01A0908705B0908805FC018681E2
:1055B00082FD09C000E010E0812C76E0972ECC241B
:1055C000C394D12C0CC047E050E06FEF70E0C701EE
:1055D0000E9412F66DC0882483940F5F1F4F809144
:1055E0008B0590918C050817190708F05BC0909EF9
:1055F000B001919E700D11246A0D7B1D46E050E0B4
:10560000CE0101960E94E2F52D813E81F90163E011
:10561000F695E7956A95E1F7EE0DFF1D408127703D
:105620003327842F90E0022E02C0969587950A9426
:10563000E2F780FFD2CFC60102C0880F991F2A95DA
:10564000E2F79C01209524232083812C882D90E073
:105650002B813C818217930708F0BDCF880F991FDB
:1056600069817A81680F791F42E050E0CE01079688
:105670000E94E2F58F819885FC0153E0F695E7954D
:105680005A95E1F7EE0DFF1D87709927960102C02C
:10569000220F331F8A95E2F7C9019081982B9083DE
:1056A0008394D4CF882021F000E010E0812C97CFA4
:1056B0002896ECE00C9436F5CF93DF93EC018FEF56
:1056C0009FEF98878F8387E0FB01DE0101900D92A9
:1056D0008A95E1F7CE015FDFEFE9F5E091918881EE
:1056E0008923899385E0E63AF807C1F7DF91CF91E6
:1056F00008958091B3059091B405A7C208951092C2
:10570000B00589E79BE29093B2058093B1050895B7
:105710000895E8E9F5E0DC013D91CD012081232BDE
:105720002193B5E0EF39FB07B1F78091B5058460AF
:105730008093B50508950E942CE9882311F0DFD5E8
:10574000FACF0895A2E0B0E0E8EAFBE20C9422F57B
:105750008B0189839A83EFDFB80189819A810E9446
:105760004FE8019631F08BE20838180721F4E3DFA7
:1057700002C081E001C080E02296E4E00C943EF596
:10578000A2E0B0E0E6ECFBE20C9422F58B01898309
:105790009A83D1DFB80189819A810E94DCE7019662
:1057A00031F08BE20838180721F4C5DF02C081E030
:1057B00001C080E02296E4E00C943EF5A2E1B0E066
:1057C000E4EEFBE20C9417F58091B505982F9260FA
:1057D0009093B50582FF0AC068E975E08FE594E013
:1057E0006BDF8091B5058B7F8093B505CC24C39486
:1057F000D12C7E013DE0E30EF11C55E0A52EB12C2D
:105800004E0182E1880E911CBE01695F7F4F8FE5DA
:1058100094E059DE882309F462C0609066047090B9
:105820006704F30163E0F695E7956A95E1F7EB57B6
:10583000FA4FC30187709927960102C0220F331FC8
:105840008A95E2F7C901809593898923838BFC822D
:10585000EB82BE82AD828F81988505979A8389837A
:1058600068E87BE2CE0101968BDF4B855C8569851C
:105870007A8580E05ED0582E8D8558123AC088898E
:10588000998968167906A9F52B853C858E859F85B3
:105890002817390771F59C828B82DE82CD8200E069
:1058A00010E02B853C850217130708F0ADCF2F8140
:1058B0003885200F311F3A83298368E87BE2CE01C7
:1058C00001965EDFAB81BC81E985FA85E00FF11FAF
:1058D0009C91808198130DC00F5F1F4FE2CF809184
:1058E000B5058D7F8093B50560E070E08FE001D253
:1058F0001CC05D86798A688A8B859C859F878E8788
:10590000FC82EB8285E090E09E838D838F81988579
:1059100005979A8389836EED7BE2CE01079612DFAD
:1059200068E87BE2CE0101960DDF6296EFE00C9411
:1059300033F5FB01460F571FE417F50719F0919156
:10594000890FFACF08954F925F927F928F929F9224
:10595000AF92BF92CF92DF92EF92FF920F931F937D
:10596000CF93DF93CDB7DEB762970FB6F894DEBF63
:105970000FBECDBF80E094E49093860580938505AB
:1059800086E994E4909388058093870506E914E4FA
:1059900000501444C80166E070E00E9484F4892B32
:1059A00039F080E290EA9093B9058093B80563D30B
:1059B00026E030E0C801B9010E9484F440918905D5
:1059C00050918A05642B752B70938A056093890525
:1059D00004EB14E406591444C801B9010E9484F48C
:1059E000892B39F081E290EA9093B9058093B8054C
:1059F00042D3C80166E070E00E9484F480918B0578
:105A000090918C05682B792B70938C0560938B0596
:105A1000009185051091860510928D0510928E05D6
:105A200010928F051092900587E0EFE9F5E0DF0115
:105A30001D928A95E9F7D12CEE24E394F12C809104
:105A4000890590918A052D2D30E028173907C8F572
:105A500046E050E0B801CE0101960E94E2F52B81AC
:105A60003C812B5F3F4F80918D0590918E05A091D9
:105A70008F05B0919005820F931FA11DB11D8093DA
:105A80008D0590938E05A0938F05B09390058D8121
:105A90009E81FC0133E0F695E7953A95E1F7EB57E7
:105AA000FA4F87709927970102C0220F331F8A95FA
:105AB000E2F7C901928D982B928F0A5F1F4FD39402
:105AC000BECF26E0289F6001299FD00C112434E02E
:105AD000C30ED11CE12CF12CCE010796988B8F8739
:105AE00086E090E09A8B898BA12CB12C00E010E02D
:105AF00096E0792E22E2822E20EA922EF80183E0AF
:105B0000F695E7958A95E1F7EB57FA4F828D90E08D
:105B100098012770332702C0969587952A95E2F75A
:105B200080FF41C07A9CC0017B9C900D112404969B
:105B30009E878D8768E87BE2CE010D9621DE8B85FE
:105B40009C858017910749F48F819885A985BA852E
:105B50008C159D05AE05BF0559F01C870B87CF82BC
:105B6000D886E986FA8668E87BE2CE010D96EADD02
:105B7000C801EBDB2C01009729F49092B9058092C3
:105B8000B80579D246E050E0B201CE0101960E94FC
:105B9000E2F58B819C810596C80ED91EE11CF11C93
:105BA0008FEFA81AB80A0F5F1F4F0333110509F0D2
:105BB000A5CFA5DD62960FB6F894DEBF0FBECDBFB0
:105BC000DF91CF911F910F91FF90EF90DF90CF90D9
:105BD000BF90AF909F908F907F905F904F9008956F
:105BE00020E0FC013191CF01311105C02F5F27303A
:105BF000C1F780E0089581E0089527E0FB0111924C
:105C00002A95E9F7FC0123E0F695E7952A95E1F757
:105C1000E60FF71F8770992721E030E001C0220FBF
:105C20008A95EAF78081822B8083CB01B4CC0895DA
:105C3000AFE9B5E0FC013D9120812323219325E0CC
:105C4000A63AB207C1F7CCCF0895A7E0B0E0EBE2E7
:105C5000FEE20C9423F5BE016F5F7F4FCEDFCE01D5
:105C60000196E6DFCE010196BBDF182F882339F0BD
:105C7000CE0101964EDD8091B50581FF9FDD812F1C
:105C80002796E3E00C943FF508950895A2E0B0E074
:105C9000ECE4FEE20C9424F5809168048823E9F09A
:105CA000BE016F5F7F4F81E290E00BD4BE016E5F5B
:105CB0007F4F8DE190E005D48981823071F48A8133
:105CC00081110BC085E49EE290937104809370046F
:105CD00089E694E00E949FC102C00E949BDF229649
:105CE000E2E00C9440F58091680408950C942BEB4D
:105CF0000895A0E0B0E0EFE7FEE20C941CF5B82EAA
:105D00007B01082F10E093E0169507959A95E1F72F
:105D10008770C1E0D0E001C0CC0F8A95EAF7AC2EC5
:105D20008FE38B1538F484E090E89093B905809365
:105D3000B805A1D1F801EE58FB4F80818C2311F1F9
:105D4000C0917A04D0917B0485E0C82E80E8D82EDB
:105D50002097C1F0FE01E00FF11F82818A2171F0CE
:105D60002A853B85232B29F4D092B905C092B8052A
:105D700082D1EA85FB85B7018B2D19950990D881D1
:105D8000C02DE6CFCDB7DEB7EAE00C9438F5E82FAA
:105D9000F0E023E0F695E7952A95E1F7EE58FB4F02
:105DA000208130E0877041E050E002C0440F551F71
:105DB0008A95E2F72423352381E0232B09F480E040
:105DC0000895282F30E043E0369527954A95E1F76E
:105DD000620F731F877021E030E001C0220F8A95A7
:105DE000EAF7FB019281922381E009F480E00895B3
:105DF0001F93CF93DF93182FEB01803438F023E00B
:105E000030E83093B9052093B80535D1BE01812F14
:105E1000D8DF81112AC0BE018AE794E09AD08111AF
:105E20000BC088E0FE013296DF011D928A95E9F7EA
:105E3000BE018AE794E09DD0412F50E063E0569583
:105E400047956A95E1F7177021E030E001C0220F15
:105E50001A95EAF7C40FD51F8A81822B8A83FA012B
:105E6000EE58FB4F8081822B8083DF91CF911F9171
:105E700008951F93CF93DF93182FEB01803438F0F0
:105E800023E030E83093B9052093B805F4D0BE0183
:105E9000812F97DF882369F1212F30E073E0369559
:105EA00027957A95E1F7177041E050E0012E01C087
:105EB000440F0A94EAF7942F9095C20FD31F8A815A
:105EC00089238A83E0917A04F0917B04309759F01A
:105ED000DF01A20FB31F12968C91842351F401901D
:105EE000F081E02DF3CFF901EE58FB4F808189233B
:105EF0008083DF91CF911F910895DC01ED91FC919A
:105F00001197309721F0208131812D933C93CF015F
:105F1000089561157105A1F0DC01ED91FC911197D7
:105F2000E617F70759F4208131812D933C930FC078
:105F3000808191818617970729F0FC013097C1F77E
:105F400080E00895DB018D919C919183808381E0B5
:105F50000895DC01ED91FC91309739F0E617F707D1
:105F600031F00190F081E02DF7CF80E0089581E0DD
:105F700008950F931F93CF93DF938C01EB01E9DF1B
:105F8000882349F080E090E89093B9058093B805A4
:105F90005AD080E014C019821882D801ED91FC918A
:105FA0001197309719F4CD93DC9308C080819181CB
:105FB000009711F0FC01FACFD183C08381E0DF911B
:105FC000CF911F910F910895CF93DF93FC018281B0
:105FD0009381009781F40E9481E2C22FD32F0E9407
:105FE000625144E0FC0121913191CF01C227D327B6
:105FF0004150C1F7CE010E94D7F581E08093300275
:1060000088E392E00E942EE2DF91CF9108958AE228
:1060100092E00C94D351089580913002882369F066
:1060200088E392E00E945EE284EE9FE29093370262
:106030008093360210923002EACF089588E392E00E
:106040000C945EE2089582E090E09093BB0580930B
:10605000BA058091B8059091B9059093BD058093DC
:10606000BC05E091B605F091B705309719F08AEBC1
:1060700095E01995089583E090E09093BB05809397
:10608000BA058091B8059091B9059093BD058093AC
:10609000BC05E091B605F091B705309719F08AEB91
:1060A00095E019950895EF920F93FC016183728337
:1060B0004F3740F081E090E89093B9058093B805A0
:1060C000C2DF20C0403808F04FE7440F8081817064
:1060D0000187842BE0FA80F9808334832383CB010A
:1060E000AC016081669504962181328174E0679FDE
:1060F000200D311D11244217530720F4DC011197A4
:106100001C92EECF0F91EF900895A0E0B0E0EBE885
:10611000F0E30C941DF5EC018B01B42E0E9481E29A
:1061200069017A018D819E81AF81B885A7019601B1
:10613000281B390B4A0B5B0BCA01B9012B813C812F
:1061400040E050E00E94ABF42F3F3105410551057E
:1061500018F42223F9F001C02FEF89819A81BC0144
:1061600038813695049649815A81E4E03E9F400D7E
:10617000511D11246417750748F4FC013291432F17
:10618000231708F4422F341B3083E9CFCD82DE82FF
:10619000EF82F886A981BA814881842F86959D0176
:1061A00054E0859F200D311D1124C901E0E0F0E08D
:1061B000A817B907C0F413965C911397552359F0AB
:1061C0002D913C9111972017310729F412962C91AB
:1061D00012972B15C1F0309719F02381521708F44C
:1061E000FD011496E5CF40FD06C0309771F0838124
:1061F00081110BC002C0309751F011830083B2822D
:106200008985838304C080E003C082E001C081E00F
:10621000CDB7DEB7E9E00C9439F5FECE08950895C8
:10622000CF93DF93609145027091460280E090E049
:10623000E1E0F0E09F01082E02C0220F331F0A9414
:10624000E2F740917C0450917D044623572342237A
:106250005323452B11F16FB7F89440917C04509172
:106260007D04209530952423352330937D0420939D
:106270007C046FBFFC01EE0FFF1FE752FD4FC08192
:10628000D181209739F486E090E89093B905809306
:10629000B805F1DEFE01199504C001968F30910515
:1062A00049F6DF91CF9108950E9426E00E94EFB059
:1062B000882371F02FB7F89480917C0490917D042D
:1062C000806190937D0480937C042FBF81E00895CA
:1062D00082E00895A5DF60E070E08BE20ADD809146
:1062E0007C0490917D04892B09F4D0DC20917C04FE
:1062F00030917D0481E0232B09F480E0089590CF54
:106300000895FC012081211105C021E02193CF01D6
:106310000C942EE20895FC012081213021F4119289
:10632000CF010C945EE20895A5E0B0E0EAE9F1E364
:106330000C9420F57C012A833B834C835D83698325
:10634000EADFF7011082698163872A813B814C81F2
:106350005D8127833087418752871587048725967B
:10636000E6E00C943CF5089589E3EFE7F2E1DF0104
:106370001D928A95E9F7E0EAF2E181E080839AE0F4
:10638000918312821382148215821682178295E0FD
:106390009093AA128093B21287E08093AB1247E8E1
:1063A00050E066E37BE480E093E10E94E2F543E1A4
:1063B00050E063E27BE48CE692E10E94E2F543E088
:1063C00050E060E27BE489E692E10E94E2F548E475
:1063D00050E068ED7AE488EB92E10E94E2F58BEA06
:1063E0009CE0EEEBF5E0DF019C011D922150304076
:1063F000E1F70895A4E0B0E0E0E0F2E30C9424F5C6
:10640000BC011A8219821C821B828827811521E017
:10641000920769F0811522E09207B9F0892BE9F41F
:10642000660F771F660F771F6659764B07C0772771
:10643000660F771F660F771F6255774B44E050E079
:10644000CE0101960E94E2F50FC07727660F771FF5
:10645000660F771F625E774BF1CF8AE090E69093EC
:10646000B9058093B80507DE69817A818B819C81AB
:106470002496E2E00C9440F577DF65CA0895A4E025
:10648000B0E0E5E4F2E30C9420F57C018B01B2DF8F
:10649000EE24E11422E0F20669F026E030E63093C3
:1064A000B9052093B80569837A838B839C83E3DDE8
:1064B0007A816981F801718360832496E6E00C9407
:1064C0003CF5A4E0B0E0E7E6F2E30C9420F58C01A3
:1064D0007B0190DFE114F10479F420E030E63093A1
:1064E000B9052093B80569837A838B839C83C3DDC8
:1064F0009C818B817A81698100270115110549F002
:10650000011521E0120751F4AC01C7010E94E2F528
:106510000CC0AC01C7010E94F8F507C081E090E60D
:106520009093B9058093B805A6DD2496E6E00C9417
:106530003CF5A0E0B0E0EFE9F2E30C941EF58C012D
:10654000EB0158DF6B017C01209739F484E090E681
:106550009093B9058093B8058EDD002701151105CC
:1065600039F085E090E69093B9058093B80583DD16
:10657000A701BE01C6010E94F8F5CDB7DEB7E8E07D
:106580000C943AF5FC0195A5892F887090FF09C0FD
:10659000882379F081E021A532A52236310550F417
:1065A00008C0882331F081E021A532A524363105C9
:1065B00008F480E08170089521E030E001C0220FEE
:1065C0008A95EAF780918104822B809381042FB70A
:1065D000F89480917C0490917D04806290937D0476
:1065E00080937C042FBF0895CF93DF93E0918C13A9
:1065F000F0918D138E179F0718F482E894E446C03B
:106600008E1B9F0B6CE670E00E9484F480918713D0
:10661000681718F083E894E439C08CE6689FE00DB1
:10662000F11D11248781869590E08230910559F003
:1066300014F00397D1F580918B138823B1F1815029
:1066400080938B1332C080918A13882319F0815074
:1066500080938A13DF01AC5ABF4FCD91DC9120911A
:106660008F1330919013CE01821B930B63E270E085
:106670000E9484F4C217D30718F484E894E406C097
:1066800080918813681740F085E894E49093B905E9
:106690008093B805D8DC0CC0D90183E2689FA00DB7
:1066A000B11D11248C9181111C9287818E7F87836B
:1066B000DF91CF910895CF93DF93EC0118A68EA1BF
:1066C0009FA1892B39F484E494E49093B9058093D5
:1066D000B805D1DCEEA1FFA1CE0188961995DF9116
:1066E000CF910895EF92FF920F931F93CF93DF9373
:1066F000A091871340918C1350918D1320E030E0CE
:1067000090E09A1709F45AC0FA01E20FF31FB90199
:1067100064597F4FB781B0FD63C07F0194E5E90EF6
:10672000F11CD7011D921C928230B1F010F0833021
:10673000F1F590918B1340918913941708F03EC0A6
:106740009F5F90938B13138214821582168290851B
:106750009F709087128235C010918A139091881390
:10676000191760F500918E1340918F13509190137B
:1067700090E09017B9F0EA014D5D5F4FBA016352A6
:106780007109DB016C9161110BC01F5F10938A13BB
:1067900041E048836896D701CD93DC93428302C0E1
:1067A0009F5FE7CF40918E1349130BC007C081E86C
:1067B00094E49093B9058093B8055DDC80E090E0A7
:1067C00012C09085907F9087880F816087831182A7
:1067D000108280918C1390918D13820F931F03C0B0
:1067E0009F5F9B018ECFCDB7DEB7E6E00C943CF502
:1067F00020919204215020939204BC018CEA94E0F1
:10680000B8DB81E0D9CE0F931F93CF93DF938C0138
:10681000C0918204D091830480917E0490917F0482
:1068200080519140813F954048F4B80182E894E05E
:10683000A0DBCD2B59F480E0BFDE08C083E694E4F2
:106840009093B9058093B80516DCEFCFDF91CF9117
:106850001F910F910895BC01615171098EEA94E076
:1068600088DB81E0A9CE209192042F5F20939204CF
:106870000C9469916F927F929F92AF92BF92CF9248
:10688000DF92EF92FF920F931F93CF93DF931F92AC
:10689000CDB7DEB78C017B01FB01E25AFF4F88EFD9
:1068A00093E3918380833E9782E08083D801599659
:1068B0008D919C915A973196918380839E968C916D
:1068C0009E97379680833196108231969D968C9153
:1068D0009D978095881F8827881F8083319681E047
:1068E0008083319680839D968C919D9786FD0BC009
:1068F00021E059968D919C915A97883F9F4F08F0BF
:1069000020E0822F01C081E0F701E35AFF4F817040
:106910008083C80137DEF701ED5AFF4F6F01970101
:106920002C5A3F4F3901882309F442C09090391402
:1069300040913A14242F30E080913D1490E001976B
:106940002817390739F4D80199968C91499D8019F7
:106950001124982EA92CB12CC5014E968236910592
:1069600038F081E594E49093B9058093B80583DB12
:106970003091391420913A1480914F149091501411
:10698000F80163A574A5329F600D711D1124A50146
:106990004E960E94F8F58AE0890DD6018C9380917D
:1069A0004F14909150144496F301918380830EC04C
:1069B000D80199968C919997885F80839B968D9149
:1069C0009C919C970897D9018D939C93F301C0806B
:1069D000D180D6012C912C7F2F7E2C93F801818DB4
:1069E000928D237F883F9F4F10F02860D6012C9313
:1069F000F60180818F7D8083D8019D969C9192FDC8
:106A000003C08F7B808322C08064F6018083D7011E
:106A100018962C911897207F216018962C93C80106
:106A20002983B0DD29812F70882341F080913F14A4
:106A30008295807F822BF701808708C080916A123F
:106A40008295807F822BD70118968C93C8019ADD9E
:106A5000F60190818823A1F09068908390913A1478
:106A600080858C7F911106C08160808780913D1464
:106A7000818709C08260808780913A14818703C032
:106A80009F77F6019083D80193968C919397F601A6
:106A9000818396968D919C91979793838283949608
:106AA0008D919C9195979583848398968C918683FC
:106AB000C80168DD882331F080913E14D601179615
:106AC0008C9308C08091A90491E0980F9093A90439
:106AD000F6018783C7010996C6DE80E00F90DF913B
:106AE000CF911F910F91FF90EF90DF90CF90BF90CB
:106AF000AF909F907F906F900895E0914D14F0912A
:106B00004E14BF0180819181B5CEECE2F4E1F093A7
:106B1000FD13E093FC1392E09093F81320919F13E0
:106B20003091A0133093FA132093F9139BE09093C4
:106B3000FB13109200141092011491E09093021430
:106B400090930314109204142BEE37E33093071440
:106B50002093061490930514908190789260906829
:106B600090839091A61390932D142091A2133091AD
:106B7000A31330932F1420932E142091A41330913B
:106B8000A51330933114209330149091A113909356
:106B900032149091A7139093331492E0909334148D
:106BA00090919D139093351490919E139093361469
:106BB0009091371490931514109298131092991382
:106BC00010929A1310929B138093911381EB93E18F
:106BD0004ACEA4E0B0E0EFEEF5E30C9422F5182FD6
:106BE000BE016F5F7F4F8AE190E06BDC20919704DC
:106BF000309198044091990450919A04A12FB0E0EB
:106C00000E9404F509811A812B813C81600F711F5C
:106C1000821F931F2496E4E00C943EF50F931F937C
:106C2000CF93DF93EC018C0107551109FC013C97D0
:106C30000190F081E02D6FEF818192810E94888820
:106C4000882361F0FE01329788EF93E3918380837C
:106C500023971882C8010E94599102C0CE01C8DD55
:106C6000DF91CF911F910F9108956EE873E180E15C
:106C700091E027DC6FE873E18EE092E000DC809128
:106C80008F139091901320E030918E13231748F4C6
:106C9000FC0133E2239FE00DF11D112410822F5FD0
:106CA000F3CF67E873E18FE091E00BDC6CE873E110
:106CB0008DE092E0E4DB20918713E0918C13F0915A
:106CC0008D1380E0821739F097819E7F97838F5FC5
:106CD000E459FF4FF7CF90918E13909388138093D0
:106CE000891310928A1310928B1369E374E188E27E
:106CF00091E0E7DB67E973E189E291E0E2DB66E9D5
:106D000073E188E191E0DDDB80919613882351F0F7
:106D100062E973E18FE092E0B2DB6FE474E180E15D
:106D200092E0ADDB309196132091971380919213EE
:106D300090919313329F800D911D11249093951380
:106D40008093941310929113089563EB74E082E1A1
:106D500092E095DB62EB74E087E191E0B2DB809139
:106D6000B204E091B304F091B404882349F0309761
:106D700039F489E294E49093B9058093B80563C926
:106D80009F0146E1849F200D311D1124C90128EA8D
:106D9000E817F90718F4258B7696FACF08951F9314
:106DA000CF93DF93EC01162F0097B1F08D819E8178
:106DB000892B91F082E894E0A0D81F83ED81FE81B9
:106DC000CE01079619958091820490918304892BB6
:106DD00059F080E0F1DB08C08BE694E49093B905AC
:106DE0008093B80548D9E6CFDF91CF911F910895E0
:106DF000A1E1B0E0EEEFF6E30C9414F58C01262E41
:106E000029873A874B875C870E942ADEE0919B04A2
:106E100029853A854B855C85EE2361F13090871397
:106E2000C0909E04D0909F04E090A004F090A10434
:106E30002B013C014C185D086E087F084D825E8274
:106E40006F827886E0918C13F0918D13198A6624F5
:106E50006A94762C430169827A828B829C824601F5
:106E60005701861A970AA80AB90A8D869E86AF86A8
:106E7000B88A0BC00CE318E3A3C0A781A0FD09C02A
:106E8000A989AF5FA98BE459FF4FB989B311F5CF39
:106E900040C0B085BF70B23099F7AA7FA23081F7A9
:106EA00083809480A580B68081149104A104B104EC
:106EB00039F3E017F10721F34D805E806F8078840D
:106EC000481459046A047B0468F44D845E846F841A
:106ED0007888840C951CA61CB71C83829482A5829A
:106EE000B68204C013821482158216828380948035
:106EF000A580B68049805A806B807C80841495047C
:106F0000A604B70408F0BCCF89829A82AB82BC8207
:106F1000B7CF211046C08090981390909913A090FD
:106F20009A13B0909B1381149104A104B104C9F188
:106F30002B013C014C185D086E087F084814590469
:106F40006A047B0488F4C80CD91CEA1CFB1CC61A12
:106F5000D70AE80AF90AC0929813D0929913E092DE
:106F60009A13F0929B1308C01092981310929913E1
:106F700010929A1310929B138091981390919913E9
:106F8000A0919A13B0919B1349805A806B807C80AA
:106F900084159505A605B70520F489839A83AB83EC
:106FA000BC8389819A81AB81BC81281739074A0744
:106FB0005B0710F4DA01C9010CE318E39C01AD0191
:106FC00061E08BE994E0B0D98BE994E09AD96196BD
:106FD000E2E10C9430F58091920481508093920408
:106FE00080919113833009F43CC0823039F082E5FE
:106FF00094E49093B9058093B8053DD8E091381496
:10700000EE2379F181E080939113A0916B12B0E0AF
:1070100011972AE030E00E94FEF49B01AC018091C0
:10702000930490919404A0919504B0919604280F34
:10703000391F4A1F5B1FA0916A12B0E00E9404F53D
:107040009B01AC01609398137093991380939A13EA
:1070500090939B13E150E093381461E080E090E05E
:10706000C7CE109291131092981310929913109208
:107070009A1310929B130895A4E0B0E0E2E4F8E3C1
:107080000C941CF52FEF3FEFA90110E0AA24AA945D
:10709000B12C80918713181708F054C0E0918C131D
:1070A000F0918D138CE6189FE00DF11D112467817E
:1070B00060FF46C07085872F8F70823009F040C016
:1070C000862F8A7F8230E1F583819481A581B68104
:1070D000C090A204D090A304E090A404F090A50472
:1070E0008C199D09AE09BF0983839483A583B68358
:1070F0000097A105B105E9F4872F807F8460808720
:107100006E7F663059F4C50100906B1202C0880F83
:10711000991F0A94E2F7809580933C1481E02983BB
:107120003A834B835C8348DA29813A814B815C81C5
:1071300007C082179307A407B50710F49C01AD019F
:107140001F5FA7CF8091981390919913A0919A13E4
:10715000B0919B130097A105B10551F1C090A20415
:10716000D090A304E090A404F090A5048C199D098C
:10717000AE09BF098093981390939913A0939A1323
:10718000B0939B130097A105B10559F482E02983C0
:107190003A834B835C83B9DC29813A814B815C81E2
:1071A00007C082179307A407B50710F49C01AD012F
:1071B0002F3FEFEF3E074E075E0751F00CE318E359
:1071C00061E08BE994E0B0D88BE994E09AD803C0F1
:1071D0008BE994E0A0D82496EAE00C9438F5A0E07E
:1071E000B0E0E5EFF8E30C941BF58C01962EC0910E
:1071F000B304D091B4048091B2046E0196E1899FEA
:10720000C00CD11C1124F8018589811109C07E01AF
:10721000F6E1EF0EF11C58018CE0A80EB11C09C07C
:1072200085E294E432C08A3A89F06696F6E1EF0E80
:10723000F11CF801CC15DD0508F04AC090852185C8
:107240003285F70131978081843A69F7F7013E97DB
:1072500080819813EACF89859A852817390729F7FD
:1072600048E050E0B801CE010E94EBF5892BE9F629
:10727000F8018385F7013B9790818913D6CF813040
:1072800059F0833091F086E294E49093B9058093AD
:10729000B8050E9423301DC0F801248535858C85F2
:1072A0009D852817390709F617C0F8019489F70159
:1072B000329780819813B9CF48E050E0BE01645FF7
:1072C0007F4FC5010E94EBF5892B09F0AECF04C0BA
:1072D000958A80E090E001C0CE01CDB7DEB7EBE04B
:1072E0000C9437F5CF93DF93EC010097B1F18AEA64
:1072F0008D8B0E94625148E050E0BC01CE010E949B
:10730000EBF5892B51F582E88D8B888581508E3F76
:1073100020F58B858330C9F48C8981508E3FE8F449
:107320002C853D854E855F85688979898A899B8909
:10733000A0E00E947FF571F480E194E49093B90598
:107340008093B8050E94233008C0813019F086EA86
:107350008D8B03C01D8A81E001C080E0DF91CF9159
:107360000895CF93DF93EC01009761F169AB41156C
:10737000510551F0FA0140815181628173814AAB1C
:107380005BAB6CAB7DAB04C01AAA1BAA1CAA1DAADE
:10739000EFA5F8A9309749F484E594E49093B905F2
:1073A0008093B8050E9423300DC0CE01C196199577
:1073B000CE01E8D8882331F010924E1410924D146B
:1073C00081E0FAD8DF91CF910895A1E0B0E0EBEE33
:1073D000F9E30C9422F58C01FC012081318180912C
:1073E0008F13909190132817390740F487E494E4A1
:1073F0009093B9058093B8050E943B30F8018081D5
:10740000918120918F1330919013821B930B63E233
:1074100070E00E9484F480918813681750F088E42B
:1074200094E49093B9058093B80569830E943B303A
:10743000698180918F1390919013F3E26F9F800D7B
:10744000911D11242196E4E00C943EF5FC0120816D
:107450004597211107C0BC0180EB94E00E94B92F31
:1074600081E0AAC840E050E069EA7BCFA3E0B0E049
:10747000ECE3FAE30C9422F58C01675F7F4F7A838B
:107480006983BE016D5F7F4F8EE090E01AD88B81DB
:10749000D80199965C9199974091A904882309F4A1
:1074A00042C089819A81FC01E95BFF4F21E0208382
:1074B00059962D913C915A9731963183208332967B
:1074C000585F50839B96ED91FC919C979C01255BA6
:1074D0003F4F3897D901ED93FC938FEF8183D8010B
:1074E00096968D919C9197979383828394968D9194
:1074F0009C9195979583848398968C91868381E05F
:10750000840F8093A9044783D901ED91FC91808178
:10751000807888608F778083E981FA81EB5AFF4F0A
:1075200088EF93E344C089819A81FC01E95BFF4FB6
:1075300022E0208331962DEF3FEF31832083329676
:10754000575F5083D8019B96ED91FC919C979C01CD
:10755000255B3F4F3997D901ED93FC93D80159969C
:107560008D919C915A979283818396968D919C914F
:1075700097979483838394968D919C919597968306
:10758000858398968C91878381E0840F8093A904EA
:107590004087D901ED91FC91808180788C608F7754
:1075A0008083E981FA81EB5AFF4F8EE096E3918365
:1075B0008083E981FA81D8019E968C919E97E15B48
:1075C000FF4F8083E981FA81E05BFF4F8091691270
:1075D0008083E981FA81EF5AFF4F9D968C918095C7
:1075E000881F8827881F8083E981FA81EE5AFF4F20
:1075F00081E08083E981FA81ED5AFF4F8083E98140
:10760000FA81EC5AFF4F808389819A812CD980E0DE
:107610002396E4E00C943EF5DC01ED91FC9190930F
:107620004E1480934D1410923A1410923B14809192
:107630006A1280933F142091391430E081A592A5FD
:10764000B9010E9484F4462F60933D1481A592A550
:10765000B9010E9484F4892B19F04F5F40933D14C7
:107660008FEF90E000906B1202C0880F991F0A9470
:10767000E2F780958E7F80933C148091A90491E07D
:10768000980F9093A90480933E140895A0E0B0E071
:10769000ECE4FBE30C941BF5EC016B01942E590117
:1076A0000091B3041091B4048091B204780196E182
:1076B000899FE00CF11C1124209761F0C017D107BD
:1076C000F0F583E294E49093B9058093B8050E94A5
:1076D0003B3035C0E801CE01801B910B66E170E0C4
:1076E0000E9484F4892B79F084E294E49093B905A4
:1076F0008093B8050E943B3006C01D89143A39F0CA
:107700001A3A29F06696CE15DF05B8F313C08885BE
:107710009812F8CF89859A85C816D90699F748E056
:1077200050E0B501CE010E94EBF5892B59F7143AD0
:1077300049F703C080E090E004C0CE0102C0669625
:10774000CACFCDB7DEB7EBE00C9437F54F925F921E
:107750007F928F929F92AF92BF92CF92DF92EF92E1
:10776000FF920F931F93CF93DF931F92CDB7DEB796
:107770002C017B010E9462516C0157018AE6A80E20
:10778000B11CF501008111814114510431F0E11463
:10779000F10419F0C114D10451F484E194E49093FC
:1077A000B9058093B8050E94233088EA5EC058EA84
:1077B000F20166A177A1960140A5C801598366DF51
:1077C0008C015981009709F44FC0F201868997898D
:1077D000892B19F5F8017384F3E07F121EC048016C
:1077E0008CE0880E911CC4010E943BC1892BA9F436
:1077F000F2017286D2011D9688E0F40101900D928B
:107800008A95E1F786E49CE3F201978B868BC201AF
:1078100006960E9430C180E028C0F50111830083E4
:10782000F80183858330B1F4C8010C960E943BC1F6
:10783000009711F459EABCCFF8012489F20123A37F
:10784000FC0180819181F201928F818FB701C20189
:1078500011D80BC0F80184859585F201928F818F34
:10786000B701C20103DE01C0852F0F90DF91CF91D8
:107870001F910F91FF90EF90DF90CF90BF90AF904E
:107880009F908F907F905F904F900895FF920F93FD
:107890001F93CF93DF938C0105511109209187131A
:1078A000C0918C13D0918D13F12CF216E9F08F81D9
:1078B00080FF16C0888199818017910789F4BE01E5
:1078C000C80144DF882381F040E050E0682FC80100
:1078D00048DDCE010E94F43281E00E94DC3204C017
:1078E000F394C459DF4FE1CF80918713F81640F02D
:1078F00085E194E49093B9058093B8050E943B30EC
:10790000CDB7DEB7E5E00C943DF5EF92FF921F9303
:10791000CF93DF931F921F92CDB7DEB77B01009705
:10792000A1F06115710589F0FC01178A168AF7012B
:10793000E659FF4F11821082B70108DF182F882304
:1079400089F0C7010E94F4320DC023E134E4309382
:10795000B9052093B80589839A830E943B308981B9
:107960009A81E2CF812F0F900F90DF91CF911F91DD
:10797000FF90EF900895A1E0B0E0E1ECFCE30C94FF
:1079800020F58C01262FDC01ED90FC90009709F486
:1079900044C0E114F10409F440C02E3C61F0822F90
:1079A0008F7D803D41F0213D11F082E005C0F7015F
:1079B00085A587FFFACF83E0F801EB59FF4F40819F
:1079C000518162817381D701D2964D935D936D93FE
:1079D0007C93D597D1962C93833071F0D801ED919B
:1079E000FC91808D811108C0F701178A168AB801B1
:1079F000C701ACDE883AE1F4A7014E5C5F4FD701C6
:107A0000D1966C91F80180819181ABDCC8010E9414
:107A1000F43281E00E94DC320BC08FE494E4909356
:107A2000B9058093B80529830E943B302981B5CFE1
:107A30002196E6E00C943CF5CF93DF93EC0152DC09
:107A4000882309F454C060E0CE01C9DB892BC1F55D
:107A5000209709F43EC08D8981113BC05091B2043A
:107A60002091B3043091B40440E0451781F0C9017E
:107A70002A5E3F4FF90131976081683A31F424EA78
:107A8000FC01258B009731F432C04F5FEECF8EEAB8
:107A90008D8B2DC0209719F03D89332349F087E263
:107AA00094E49093B9058093B8050E9423301AC0DE
:107AB00036E1FE01DC0101900D923A95E1F706C036
:107AC00066EACE018CDB009791F024EAFC01258B5D
:107AD00009C080E294E49093B9058093B8050E94B0
:107AE0003B30BCCF60E070E080E10E94792EDF91F6
:107AF000CF910895CF93DF93EC010097D9F0809157
:107B0000B3049091B404C817D907A0F02091B2042F
:107B100036E1239F800D911D1124C817D90750F419
:107B20008D89843A11F08A3A71F488EA8D8BDF915D
:107B3000CF91089581E294E49093B9058093B805BC
:107B40000E943B30EDCF82E294E49093B90580939C
:107B5000B8050E943B30E9CFCF93DF93EC01C2DB45
:107B6000882359F064EACE013ADB009731F0C2DF96
:107B700060E070E080E10E94792EDF91CF9108955E
:107B80002091B3043091B404009751F0FC01769633
:107B90008091B20496E1899F200D311D112408C007
:107BA000F901F6CF8589843A49F08A3A39F0769618
:107BB000E217F307B8F380E090E00895CF0108954D
:107BC000CF93DF93EC01BC0180EB94E00E94B92FCE
:107BD0001F8A1E8A81E00E94DC32DF91CF910895D6
:107BE000CF93DF93EC01BC018EEA94E00E94B92FA1
:107BF0001B8A1A8A81E00E94DC32DF91CF910895BE
:107C0000AAE0B0E0E6E0FEE30C941AF51091AA12A7
:107C1000BE01665F7F4F87E091E00E946132BE0146
:107C20006F5F7F4F8AE190E00E946132C980DA8005
:107C3000EB80FC80812F90E0A0E0B0E08C159D05EA
:107C4000AE05BF0578F0CC0CDD1CEE1CFF1CC98214
:107C5000DA82EB82FC82BE016F5F7F4F8AE190E0A7
:107C60000E949932C12ED12C87E0C80ED11CEE247F
:107C7000D7FCE094FE2CC0929704D0929804E09236
:107C80009904F0929A042A8530E0A3E0B0E00E94C3
:107C9000EFF49B01AC01C701B6010E9469F40981B0
:107CA0001A812B813C81600F711F821F931F60938B
:107CB000930470939404809395049093960481E0C8
:107CC0008887BE01675F7F4F87E091E00E94613245
:107CD000BE01685F7F4F84E290E00E946132898537
:107CE00090E0A0E0B0E0880F991FAA1FBB1F8F3F54
:107CF0009105A105B10529F020F08FEF90E0A0E0FB
:107D0000B0E00E94E935E885EE2309F45AC0812CE1
:107D1000912C54018B019C0101501E4F2F4F3F4F5E
:107D2000800E911EA21EB31E660F771F881F991F1B
:107D3000E15081F718867501640129E0F694E79413
:107D4000D794C7942A95D1F7D501C4019170AA2779
:107D5000BB2741E050E060E070E0892B8A2B8B2B41
:107D600019F440E050E0BA01C40ED51EE61EF71E1D
:107D70001E821D821F82BE01695F7F4F81E191E0FB
:107D80000E946132BE016B5F7F4F88E092E00E94EB
:107D90003F32970186010F3F11052105310529F07A
:107DA00020F00FEF10E020E030E06D817E81C12CEB
:107DB000EE24E39420E032E04F8184E894E00E94D6
:107DC00053302A96ECE00C9436F5882331F00E946B
:107DD000D4F58093A904109292041092B1041092E9
:107DE000B0041092AF041092AE041092AD04109241
:107DF000AC041092AB041092AA048AE090E0A0E0D8
:107E0000B0E08093461490934714A0934814B09325
:107E100049148DE795E390934C1480934B1481E0C3
:107E200080934A1410929E131092A71310929C13E1
:107E30001092A3131092A21310929D131092A113EB
:107E40001092A5131092A4131092A01310929F13D6
:107E50001092A613109291131092981310929913E6
:107E600010929A1310929B138CE6E8EAF3E1DF017B
:107E70001D928A95E9F783E2E4E1F4E1DF011D92C6
:107E80008A95E9F78091971390E0019620919613D7
:107E9000289FA001299F500D112460E070E080917F
:107EA0009213909193130E9412F68CE294E19093B6
:107EB000FD138093FC13A4CE4F925F927F928F921A
:107EC0009F92AF92BF92CF92DF92EF92FF920F9369
:107ED0001F93CF93DF931F92CDB7DEB77C0100973E
:107EE00081F02C0127E0421A510880918204909180
:107EF00083048415950529F4D20112968C91893159
:107F000049F086E694E49093B9058093B8050E9401
:107F10002330CBC080917E0490917F048115B7E01F
:107F20009B0709F07FC00091B0041091B1040115C6
:107F3000110551F080EB94E00E947D2F40E050E06D
:107F400063EAC8010EDAEFCF6CE6C62ED12C7CE6D0
:107F5000772EE2E4AE2EE4E4BE2EF3E48F2EF4E4BA
:107F60009F2E0091AC041091AD040115110509F488
:107F700044C0B8018CEA94E00E94892F80918C1350
:107F800090918D13F801E81BF90BCF01B6010E9407
:107F900084F480918713681740F0B092B905A092DD
:107FA000B80569830E943B306981E0918C13F091A0
:107FB0008D13679DE00DF11D112480819181278132
:107FC000269530E02130310561F02230310549F24B
:107FD000232B61F4A8014B5F5F4FD80112966C917F
:107FE00003C040E050E067EABCD9BBCF9092B9052E
:107FF0008092B8050E943B30B4CF10E08091871387
:108000001817D8F480918C1390918D13BCE61B9FA8
:10801000800D911D1124FC01278120FD0E94F43266
:108020001F5FECCF8115924041F087E694E4909376
:10803000B9058093B8050E943B30109281041092DC
:10804000800481E0C2DE0E9435360E94A53682E3BC
:1080500093E090937F0480937E04D7018C91F2018A
:10806000828782E894E00E947D2FD20118968D913C
:108070009C911997892B41F489E694E49093B90572
:108080008093B8050E943B30D2011896ED91FC9187
:108090001997C701039619958091820490918304E2
:1080A000892B19F080E00E94DC320F90DF91CF9194
:1080B0001F910F91FF90EF90DF90CF90BF90AF9006
:1080C0009F908F907F905F904F900895CF93DF9314
:1080D000C0918204D0918304209741F484E694E413
:1080E0009093B9058093B8050E943B308A818A3805
:1080F000F9F0853C09F44FC0893109F06CC08091DA
:108100007E0490917F048031914019F480E092E0E8
:1081100002C080E097E090937F0480937E048CE51A
:108120009FE39E838D83CE0103960E9446A85BC089
:1081300080917E0490917F04823323E0920719F0AE
:108140008031964049F48FE394E090937F048093CC
:108150007E0456DD1D8202C083EA8D8382E894E0AE
:108160000E947D2F8B819C81892B41F48AE694E4C7
:108170009093B9058093B8050E943B30EB81FC8158
:10818000CE01059619958091820490918304892BE4
:1081900051F180E018C080917E0490917F048F336C
:1081A0009440A1F480E095E090937F0480937E0456
:1081B00082E090E09C838B838BE994E00E948B317A
:1081C0001092920481E00E94DC320DC063EACE017D
:1081D0000E94CF3608C085E694E49093B905809359
:1081E000B8050E943B30DF91CF910895AAE0B0E03E
:1081F000ECEFF0E40C9424F5DC011396ED91FC9186
:1082000014972181328140E450E05A834983AE01C2
:10821000495F5F4F5C834B8341E050E05E834D8359
:108220006F3FBFEF7B0719F437FF15C003C0261758
:10823000370789F098878F837A876987BE016F5FD8
:108240007F4F8EE10E94792E81E02D813E81232B8C
:1082500019F080E001C081E02A96E2E00C9440F53C
:10826000009729F480919004909191040895FC0165
:10827000808191810895CF93C82FE0E0F0E0CF0195
:10828000EFDFFC01009739F0A381B4818C91C81312
:10829000F6CFCF0102C080E090E0CF910895DF9249
:1082A000EF92FF920F931F93CF93DF938C01009770
:1082B00041F480E394E49093B9058093B8050E945B
:1082C0003B30C0E0D0E0A1E3EA2EA4E4FA2ECE01D8
:1082D000C7DFEC01009789F18A818111F8CF8B818A
:1082E0009C81892B31F4F092B905E092B8050E9487
:1082F0003B30F80160A171A1CE0178DF882339F30A
:10830000EB81FC81D0806D2DF801878190850E94E2
:1083100088888823E1F2F801D18AED81FE813097C7
:1083200049F482E394E49093B9058093B8050E94E0
:10833000233003C0C8011995CACFCDB7DEB7E7E037
:108340000C943BF5A1E3B0E0E8EAF1E40C941AF5F3
:108350008C01B62EDC015C96ED90FC905D975796F3
:108360006D917C915897F701478184E894E00E94D1
:108370008530882309F414C1D70111968C919FEFA1
:10838000980F9E3F28F477DF6C01009719F408C11D
:10839000C12CD12CF801248985899689213009F0D6
:1083A00022E02F8399878887D70111968C918A8B39
:1083B000F8018789908D0E943EC1FC01009799F0D9
:1083C00083E08B8B7081618152814381348125816F
:1083D000968187817E8B6F8B588F498F3A8F2B8F39
:1083E0009C8F8D8F02C082E08B8BD80157968D9128
:1083F0009C9158979D8B8C8B59968D919C915A97F7
:108400009F8F8E8FF701868188A3848195819AA39F
:1084100089A3828193819CA38BA35B968C9190E02E
:108420009C012A5031093EA32DA319A6208127FDC6
:1084300004C09C012850310906C02085237029F40E
:108440009C01295031093EA32DA32DA13EA1821BE1
:10845000930BF801248D358D280F391F38A72FA3D2
:10846000BAA684A18BA7868D8CA740A151A162A139
:1084700073A14DA75EA76FA778AB878D89ABD70196
:108480008C9187FF48C018968C918370823009F0D8
:1084900042C0E0919413F0919513808190E09EA3E7
:1084A0008DA38080912CAA24A394B12C20919C139D
:1084B00030E08091921390919313A216B3064CF57D
:1084C000E0919413F0919513EA0DFB1D408150E06B
:1084D000209197132A9DB0012B9D700D1124680FD8
:1084E000791F880D991D0E94F8F5E0919413F09181
:1084F0009513EA0DFB1D20818DA19EA1820F911D78
:108500009EA38DA3BFEFAB1ABB0A8081880E911C7E
:10851000CDCF98A78FA3C114D10449F0D6011596E9
:10852000ED91FC911697CE010196199539C0F8018D
:108530008489813021F4CE010196B1DE31C0D701AA
:1085400011968C918F3F41F5E12CF12CC70188DE0B
:108550007C01009729F1D7011396ED91FC911497B6
:108560008081882399F312968C918111EFCF69A1B4
:108570007AA1C7013BDE882349F3D7011396ED9119
:10858000FC91149780818A8B1596ED91FC9116973A
:10859000CE0101961995DACFCE0101960E94ACC8A2
:1085A000C8010E945B33E196ECE00C9436F5A1E043
:1085B000B0E0EDEDF2E40C941CF55C01DC015C969E
:1085C0000D911C915D97F80181812FEF280F2E3FAF
:1085D00080F4298350DE7C012981009751F0D80175
:1085E00014966D917C91159701DE882309F405C1DD
:1085F00005C02E3F08F401C1E12CF12CF801808167
:1086000087FF04C09085937009F0F7C086FFF7C01C
:108610008C70883009F4F1C0D50157968D919C91EA
:108620005897883FBFEF9B0708F0E7C0E114F104BB
:1086300021F0F70122812111E0C0D5015C960D9156
:108640001C915D97F801208126FD02C090E0D2C008
:108650002370213009F027E0F0908713E0918C130C
:10866000F0918D1330E0422F50E0B801640F751F78
:108670003F15E9F0A781A530B1F4DF01AF5ABF4F34
:108680000D90BC91A02D8A179B0769F4DF01AC5AAD
:10869000BF4FCD90DC90C40ED51EDB01EC90D6010F
:1086A000DC90ED1499F23F5FE459FF4FE1CF82E097
:1086B00029830E9472332981009741F2FC01EC5A10
:1086C000FF4F0190F081E02DDF0158973FEA1196AE
:1086D0003C9311971396BC92AE92129762E0DC0124
:1086E000A05BBF4F6C93D50157964D915C91589705
:1086F000DC01AF5ABF4F11965C934E9317961C92B4
:1087000011961C9231E011963C9311963C93119670
:108710001C9248EF53E3129611965C934E93119777
:108720003C9330813C7F32603083D8014C914C7057
:10873000337F342B30834C914295417040FB34F9A8
:108740003E7D3F7B30834C9147FB442740F940FB03
:1087500037F930834C9130E0DC01AD5ABF4F7D01D9
:1087600044FF0DC0D5015C964D915C915D97420F21
:10877000531FDA012C912183F701608337C048E051
:108780004C93D80116964C911697418312964D91B1
:108790005C9113975383428314964D915C91159786
:1087A0005583448311964C914683D5015C964D9137
:1087B0005C915D97420F531FDA012C912783D801FA
:1087C0002C9127FF13C018962C91237031F410863A
:1087D000F70120812F5F208309C0D7012C912D5FE5
:1087E0002C93D80118962C912370208709960E940B
:1087F000333491E081E08927A1C190E001C091E08C
:10880000F801808187FF92C18085837009F48EC151
:10881000D5015C960D911C915D975B968C91F8014A
:10882000F18420919613222309F487C196EFE92E53
:10883000E80E80919113813009F456C030F08430F5
:1088400008F06BC180E494E46AC1D084B1E0DB122B
:1088500074C12F1508F471C1809197138E1508F417
:108860006CC190E00196289FA001299F500D112412
:1088700060E070E080919213909193130E9412F641
:108880008FEA80933714D0929113F0929C13F501E4
:108890008789908D9093A01380939F13D801119690
:1088A0008C9111978093A11312968D919C9113979F
:1088B0009093A3138093A21314968D919C91159776
:1088C0009093A5138093A41316968C91169780937A
:1088D000A61317968C918093A71380916A128093A8
:1088E000381410929D13F12CF8018085982F937005
:1088F000923011F0F11021C18C7F09F01EC18091DE
:108900009C138F1508F419C120919F133091A01367
:10891000D50157968D919C9158972817390709F0E2
:108920000CC19091A113F8018181981306C1209187
:10893000A2133091A313828193812817390709F07C
:10894000FCC02091A4133091A51384819581281730
:10895000390709F0F2C09091A61386819813EDC0F3
:108960009091A71387819813E8C020919D1340919F
:108970006B120F2D10E0822F90E0840F911D0817CD
:1089800019070CF0DAC08F2D642F0E9478F4D92ECD
:10899000F21668F48F2D891B80939D1321E030E03F
:1089A00001C0220F4A95EAF7219520939E1320914A
:1089B000971380919213909193134E2D50E0D5010F
:1089C0005C966D917C915D97665F7F4FF29E800D06
:1089D000911D11240E94F8F5E0919413F0919513E4
:1089E000E00FF11FE08270919D1320919C137F1185
:1089F00011C090916B12822F8F19981708F4892F4C
:108A000041E050E0082E01C0440F0A94EAF7419576
:108A100040939E1341E050E00D2C01C0440F0A9496
:108A2000EAF760919E13642B60939E136F3F79F475
:108A3000FF24FA94F70E822F90E040916B1250E0E1
:108A4000871B9109481759070CF4CA01F80E8F2D9E
:108A500090E030E0215031098217930751F46F3FC5
:108A600021F483E00E94853563C082E00E94853551
:108A700064C0A0916B12B0E011979D01270F311DCA
:108A80008217930711F06F3F09F582E00E94853548
:108A900080919E138F3F09F050C080916B1290918E
:108AA0009D13980F90939D1320919C1321502F1983
:108AB000821708F4282F81E090E0022E01C0880F71
:108AC0000A94EAF7819580939E1337C02AE030E03C
:108AD0000E94FEF49B01AC01809193049091940458
:108AE000A0919504B0919604280F391F4A1F5B1F6F
:108AF000A0916A12B0E00E9404F59B01AC01609362
:108B000098137093991380939A1390939B1361E039
:108B100080E090E00E94F83610C083E594E49093E2
:108B2000B9058093B8050E943B3007C0992329F00E
:108B30006FEAC50107DC80E001C081E02196EAE030
:108B40000C9438F5A4E3B0E0E8EAF5E40C9414F5ED
:108B5000C0907E04D0907F0420E1C21621E0D206AE
:108B600009F46CC12EE4222E24E4322EAA24A3940C
:108B7000B12C8CEA94E00E947D2F7C01009709F4CF
:108B80005DC100918C1310918D13C701801B910B57
:108B90006CE670E00E9484F480918713681748F0B7
:108BA00089E494E49093B9058093B8050E9423303A
:108BB00045C13CE6639F000D111D1124D801179695
:108BC0008C91B0E1CB16B6E0DB0621F0C114E5E0F4
:108BD000DE0699F58E7F843019F5C8018C5A9F4FB7
:108BE0000E94E5394C01DC0111966C9111971296A7
:108BF0008D919C911397892B51F4EAE4F4E4F0935E
:108C0000B905E093B8056CAB0E943B306CA9D70165
:108C100012968C91811104C0F4018281938192DBC0
:108C2000A7014B5F5F4F63EAD8018D919C910E9431
:108C3000B139C7010E94F4329CCF8695482E512C41
:108C4000B1E04B165104B1F054F4452809F0EFC0DF
:108C5000D70112966C91C8010E94BB3C8ACFF2E00A
:108C60004F16510409F4BCC023E04216510409F424
:108C70007CC0DDC0F80180858F70813009F079CF2C
:108C800080809180D70119968C910E94E9359B01D3
:108C9000AC01A0916A12F801808582958F70A81BA3
:108CA000C20102C0880F991FAA95E2F7DC010E9459
:108CB0000EF52B013C01D70112966C91611115C084
:108CC00043825482658276820E94D4F59170B3010A
:108CD000A201480F591F611D711DD80113964D93B4
:108CE0005D936D937C9316972EC06E3C51F0603F60
:108CF00041F0603D31F0613D89F4F40195A597FFA5
:108D00000DC0A7014B5F5F4FC4010E94B139C7017D
:108D10000E94F43281E00E94DC3290C0D8011396A8
:108D20004D925D926D927C9216970E94D4F591704F
:108D3000B301A201480F591F611D711DF801438342
:108D4000548365837683D80118968C911897807F19
:108D5000826018968C93189713962D913D914D91A2
:108D60005C91169760E0C80104C2F80180858F709D
:108D7000813009F0FECE20913A1430E080913D140C
:108D800090E001972817390709F4B5C1E0916B12FB
:108D900070913C14272F30E080E090E0682F8E1710
:108DA00008F0A9C10196A901062E02C05595479564
:108DB0000A94E2F740FFF2CFC501062E01C0880FEA
:108DC0000A94EAF78095872380933C1480913B14A2
:108DD000860F80933A1480E494E10E942EE2C9CE7B
:108DE000C8018C5A9F4F0E94E5398C01DC01119615
:108DF0006C91119712968D919C911397892B51F438
:108E0000EDE4F4E4F093B905E093B8056CAB0E948F
:108E10003B306CA9D80112968D919C91139792DAF0
:108E2000C7010E94F43281E00E94DC32A2CE30926F
:108E3000B9052092B8050E943B309BCE1BAA1AAA06
:108E4000ABE24A2EA4E35A2EBFEA2B2E13E0312EBA
:108E5000AA24A394B12C66246A94712C95E4892EDB
:108E600094E4992E8EEA94E00E947D2F8C01C090AC
:108E70007E04D0907F04009751F1F8018289938994
:108E8000892B09F079C1048CF58DE02D80818370E8
:108E9000813009F071C18281853009F46DC1D8013A
:108EA00057968D919C9158970E943EC1892B09F04D
:108EB00063C122E0F80126838789908D908787839C
:108EC000538A428AC80102960E9430C1CBCFC1FEAC
:108ED00011C050E5C52E54E4D52E62E0462E72E155
:108EE000A72E74E4B72EE8E05E2EF6E28F2EFAE3AA
:108EF0009F2E3BC00091B0041091B10401151105E3
:108F000009F458C0B80180EB94E00E94892F40E03A
:108F100050E063EAC8010E94B139ECCF808D833004
:108F200081F57801FBE1EF0EF11CC7010E943BC106
:108F3000892B39F5D8011D96F701852D01900D92E9
:108F40008A95E1F7D80158968C9158971A968C9388
:108F50001A9757969C928E925697C80106960E9431
:108F600030C180EB94E00E947D2F0091B0041091FD
:108F7000B10401151105F1F0F80186899789892B53
:108F800069F280914D1490914E14892B09F4BEC260
:108F9000C8010E94C232882309F4B8C2C8010E94E5
:108FA000C232882309F4B2C2F8010081118101158F
:108FB0001105A1F780917E0490917F048115B5E0A1
:108FC0009B0721F08031F6E09F0769F5F12C0EC078
:108FD0002CE6F29E80011124E0918C13F0918D1308
:108FE000E00FF11F8781833031F0F3948091871374
:108FF000F81670F320C080858F70843011F08230B5
:10900000A1F740E050E063EA808191810E94B1398C
:1090100080918C1390918D13800F911F805A9F4FD8
:109020000E94F432E2CF8F33944029F4F12C8091E6
:109030008713F81648F080917E0490917F04811583
:10904000954009F080C351C000918C1310918D138D
:109050008CE6F89E000D111D1124D80117968C91F5
:10906000179780FF40C018969C911897292F2F7052
:109070002430C9F5282F2A7F2230A9F5907F79F175
:109080009160905118969C938E7F823071F4C80144
:1090900009960E943334F801238134814581568139
:1090A00060E0C8010E94F8361EC08630E1F480916D
:1090B0003C148E7F80933C1480913B1480933A142F
:1090C00080913F14815080933F14E0914D14F091B2
:1090D0004E14BF01808191810E943A3404C067EA36
:1090E000C8010E94BB3CF394A2CF809192048823D4
:1090F00009F4AAC228C3F70181850E94E9359B01C2
:10910000AC01A0916A12F801808582958F70A81B2E
:10911000C50102C0880F991FAA95E2F7DC010E94E1
:109120000EF52B013C0100914D1410914E140E943C
:10913000D4F59170B301A201480F591F611D711D33
:10914000D80113964D935D936D937C931697E091A0
:109150004D14F0914E148085807F826080878091CD
:109160004D1490914E14FC01238134814581568128
:1091700060E00E94F836FDCCD8015C96ED90FC9042
:109180005D97BFE3CB16B4E0DB0669F0D7018C91A5
:109190008370813041F0F80185A1811104C0C801BC
:1091A0000E945B33A4C1D7014C91642F607446FFC9
:1091B00011C050918A132091871330E080918B1356
:1091C00090E0850F911D821793074CF780918813CB
:1091D000581728F7242F2C70243009F3662331F018
:1091E000842F83708230D9F243FDD9CF45FDD7CF8C
:1091F000F801D488F1E0DF1671F032E0D312CFCF5E
:109200004370842F90E0009721F0029709F47AC010
:10921000C6CF2C3031F0C801CAD9882309F467C100
:10922000BECFD80157966D917C915897F701408534
:1092300084E894E00E948530882309F4B0CFD801F7
:109240005B968C91893008F4AACFB1E0BF83F70117
:109250008181928199878887D80157968D919C91B9
:1092600058970E943EC1FC01009791F03B8A7081A3
:1092700061815281438134812581968187817E8BF2
:109280006F8B588F498F3A8F2B8F9C8F8D8F01C09A
:10929000DB8AF8018789908D9D8B8C8B818D928DD7
:1092A0009F8F8E8FD70117968C91179788A315964D
:1092B0008D919C9116979AA389A313968D919C9159
:1092C00014979CA38BA3838D90E009979EA38DA3F5
:1092D000848D958D099698A78FA319A62AA684A197
:1092E0008BA7868D8CA780A191A1A2A1B3A18DA7E8
:1092F0009EA7AFA7B8AB878D89ABCE0101960E9420
:109300004F414DCF423031F09092B9058092B8056F
:109310000E943B30C0908C13D0908D1380918713A6
:10932000F6012CE6829FE00DF11D1124CF01C81635
:10933000D90608F034CFD60117966C91179760FFC5
:10934000D2C018962C9118972F70223009F0CBC0FC
:10935000F601EC5AFF4F0190F081E02D2D913C91E8
:10936000D80157964D915C915897D90159962D91F6
:109370003C915A974217530709F0B5C0D701179689
:109380003C91179727813213AEC014964D915C9192
:109390001597248135814217530709F0A4C012960E
:1093A0004D915C911397228133814217530709F045
:1093B0009AC011963C9111972681321394C016964B
:1093C0003C91218132138FC06E7F623031F4F601FF
:1093D0008085807F836080873FC0663009F083C0CE
:1093E000D70119969C91199780913B149813D7CE69
:1093F00060916B12262F30E0C501062E01C0880F48
:109400000A94EAF781951A969C911A97982B1A96C6
:109410009C931A97F6018085807F836080871A96D7
:10942000EC91EF3F99F540913D1450E070913B1461
:10943000E70FCA01871B9109281739070CF4C901E6
:109440008E0F80933A1490E041505109841795078C
:1094500041F4C6010E940C3B60E0C6010E94BB3C87
:109460009ECE760F70933B1480916A1280933F14C6
:1094700070933A14930102C0220F331F6A95E2F7EA
:10948000B90160956E7F60933C1423C0E095E09332
:109490003C1480E090E02E2F30E0782F8617C8F43F
:1094A0000196A901072E02C0559547950A94E2F747
:1094B00040FFF3CFC501072E01C0880F0A94EAF7D9
:1094C00080958E2380933C1480913B14870F80936A
:1094D0003A14E0914D14F0914E14BF0180819181B6
:1094E0000E943A345CCE3CE6C30ED11C20CFD8019A
:1094F0005E968C915E978AAB5F968C918BABBE012A
:109500006E5C7F4F8BE30E94792EACCCC8010E9429
:10951000C232882361F080914F1490915014892BAE
:1095200009F4BDC0D8019D968C9182FFB8C0F801A6
:1095300081A592A58536910518F085A583FFB1C058
:10954000D80198963C90332031F0832D0E943B4106
:10955000892B09F448C0F80185A5208D382F347077
:1095600082FF0AC0223031F4818D928D883F9F4F57
:10957000D0F502C02130B9F18EEF820F823038F47D
:10958000D80193968C91815F8E3068F18CC0211147
:109590008AC0332309F487C0F80166A077A092D669
:1095A0007C01009719F080E090E00CC0B092B90502
:1095B000A092B8050E94233076C0DC011B962C9146
:1095C000213089F09701432DB3010E94463B00975B
:1095D000A1F769C0813008F475C0823009F49AC0DF
:1095E000833009F48AC026EAE12CF12C612C712C1D
:1095F000B80180EB94E02CAB0E94892F2CA921119B
:109600001CC0E114F10431F4D092B905C092B80540
:109610000E943B30F30111830083C8010E94C232D3
:10962000882319F0C3010E940C3BB301C801F70164
:109630001995282F882309F498CC40E050E0622F38
:10964000C8010E94B13991CC009182041091830429
:10965000F8018281853C41F08DE694E49093B90550
:109660008093B8050E943B30D80113968D919C9150
:1096700014978D7F14969C938E931397892B09F0E2
:1096800062C080E00E94E53E80E196E090937F0416
:1096900080937E0460E0C8010E94CF3654C02AEA5D
:1096A000A3CF20EAA1CFD80158968C91813009F040
:1096B00091CF80E00E9472333C0136E3E32E3AE31F
:1096C000F32E0DC0C8010E94C232882371F083E0DE
:1096D0000E9472333C0145E8E42E4CE3F42E611401
:1096E000710409F467CC20E083CFF80185A582FFDF
:1096F00002C081E0EDCF80E0EBCFC8014B960E9425
:109700003BC10097F1F0DC018D919C91F801928FA3
:10971000818F408EC8010E94C232882311F083E0FD
:1097200008C0D8019D968C9182FF02C081E001C0E3
:1097300080E00E9472333C012AE3E22E24E3F22E01
:10974000CECF29EA51CFE496E2E10C9430F5AFE1B7
:10975000B0E0EDEAFBE40C9421F5009749F485E4D0
:1097600095E49093B9058093B8050E94233082C098
:10977000FC012081233009F07DC0218132813A83B0
:10978000298328E03396DE01139601900D922A95E5
:10979000E1F7FC0123852B87248535853D872C87C0
:1097A00028E03E96DE011E9601900D922A95E1F783
:1097B000FC01218D2D8F238D2E8F0789108DF6882A
:1097C000F6E0FF1508F056C0F8018081982F9370DD
:1097D000933009F04FC0807E09F04CC08181811127
:1097E00049C0BE01615E7F4F85E190E00E94613219
:1097F000F801208126952695277030E08F8D90E026
:1098000028173907B9F58281982F9370933091F515
:10981000982F907F79F58C708C3091F481E08B8754
:10982000F8E0FF1538F5F801838194819F878E87D2
:109830006FEF0E9488888823E9F0F80129E003C0CF
:10984000F801329727E085819681998F888F8781EB
:1098500090859F8B8E8BF21AFA8E020F111D1C8F32
:109860000B8FE0918E04F0918F04309719F0CE01A8
:10987000019619956F96E5E00C943DF580E191E035
:1098800090937F0480937E0410928304109282044C
:10989000109281041092800410929104109290040E
:1098A0000E9435360C9465A8CF93DF93EC0167E4F2
:1098B00072E085E20E94F82E67E472E088E30E947D
:1098C000F82E209749F480E694E49093B9058093AC
:1098D000B8050E94233005C089E18A83CE010E9429
:1098E0000334DF91CF910895009741F481E694E429
:1098F0009093B9058093B8050C9423302AE8FC01B5
:1099000022830C940334009741F482E694E490930C
:10991000B9058093B8050C94233025ECFC01228313
:109920000C940334CF9330918E1380918F139091C8
:10993000901320E0231751F08396FC01B3974081E8
:10994000442311F081E029C02F5FF4CFC0E0809163
:109950008713C817E0F40E94732E9CE6C99F9001FC
:10996000112440918C1350918D13FA01E20FF31FD3
:10997000882341F0878180FF08C080858F70823006
:1099800021F0E0CF878180FDDDCFCF5FE0CF81E0A8
:1099900090919113911101C080E0CF9108951F9390
:1099A000CF93DF93EB01853239F41881BBDF91E06F
:1099B0009827912398831FC08833E9F43881409118
:1099C0008713E0918C13F0918D1380E0841771F070
:1099D000278120FF07C090859F70923019F42A7F5D
:1099E000223031F08F5FE459FF4FF0CF80E001C0AB
:1099F00081E0832B8883DF91CF911F910895FC0133
:109A0000808184FD0C94A5360895A2E0B0E0EBE0DF
:109A1000FDE40C9424F5E0918004F09181042F2F53
:109A200030E09E2F9F5F983008F090E0692F70E043
:109A3000A901092E02C0569547950A94E2F740FF06
:109A400026C09093800481E090E0062E01C0880F2C
:109A50000A94EAF78F2780938104660F771F635477
:109A6000744B42E050E0CE0101960E94E2F58981FC
:109A70009A81892B41F480E094E49093B905809316
:109A8000B8050E943B30E981FA81199504C0E913B9
:109A9000C9CFE093800480918104882361F02FB7BF
:109AA000F89480917C0490917D04806290937D0471
:109AB00080937C042FBF2296E2E00C9440F58091C5
:109AC000B312853091F028F4882349F0823069F090
:109AD00004C0843141F0863141F080E008958091E6
:109AE000AC128B3010F488E0089582E00895833042
:109AF00014F083E01BC096E0980F923010F48BEFC7
:109B000015C098E0980F923010F489EF0FC09AE0DA
:109B1000980F923010F487EF09C09EE0980F9430B0
:109B200010F484EF03C0823F0CF48FEE8093B112E7
:109B30000895C5DF282F220F220F280F30E0A9013A
:109B400060E8869F400D511D1124CA01089580913F
:109B5000B3128530E9F028F4882349F0823079F097
:109B600004C0843189F0863189F080E008958091C5
:109B7000AC12882349F08B3058F489E10895809124
:109B8000AC12811105C002C082E3089588E20895F5
:109B900080E10895CF93DF93EC01D9DFE82F9E0198
:109BA000A0ECB3E00E94EFF49B01AC01AE2FB0E05B
:109BB0000E9404F528EE33E040E050E00E94ABF450
:109BC000CA01B901DF91CF910895CF93DF93B1DF3F
:109BD000EC01BDDF282F2C9FC0012D9F900D11247B
:109BE000BC0180E090E028EE33E040E050E00E94CD
:109BF000ABF42F5F2093AA12DF91CF910895CF93FA
:109C0000DF938BE08093AC1280E098EFAFEFB7E08A
:109C10008093AD129093AE12A093AF12B093B01296
:109C200061EB72E183E090E00E9461328091B112B9
:109C30005EDF61EB72E183E090E00E949932109266
:109C4000B31277DF9093B5128093B41238DF94E0AB
:109C5000899F800D11248093B61231DF8093B71253
:109C600086E390E0A0E0B0E080937F1290938012B2
:109C7000A0938112B09382121092831210928412D8
:109C800081E08093851210928712109286121092B2
:109C900088120E94D4F580938912EAE8F2E18FEFEE
:109CA0008083818382838383848385838683878380
:109CB000CFEFDFEFD0939312C09392120E94D4F5AE
:109CC0008093941285E08093951284E0809396129D
:109CD00083E08093971280939812D0939A12C09346
:109CE000991280E280939B1210929C1210929D1206
:109CF000D0939F12C0939E121092A8121092A91294
:109D000064DFDF91CF910895A4E0B0E0EAE8FEE4DB
:109D10000C9424F5DC014C9150E0CA018054910967
:109D20008534910508F0DFC0865A9D4DFC010C94E6
:109D3000E9F411968C918093841208C011968D914C
:109D40009C911297909387128093861280E015C1A0
:109D500011968C91853308F00FC180938812F6CF4D
