:020000020000FC
:100000000C94CD250D946E6D0D94716D0D94736DE2
:100010000D94786D0D947D6D0D948B6D0D94906D98
:100020000D94B06D0D94BA6D0D94BC6D1895189526
:10003000189518950D943B6A189518950D94656A56
:100040001895189518951895189518951895189548
:100050001895189518951895189518951895189538
:100060000D94EB6F0D94C16C0D94B36C0D94B76C43
:10007000189518950D948A6F0D943D6E18951895E6
:100080001895189518951895189518951895189508
:100090000D94FF6C0D94D16C0D94F26C0D94D86D91
:1000A00018951895189518950D94016C0D94067176
:1000B00018951895189518951895189518951895D8
:1000C00018951895189518951895189518951895C8
:1000D00018951895189518951895189518951895B8
:1000E00018951895189518951895189518951895A8
:1000F0000D94347118951895189518950D943871BC
:100100001895189518951895189518951895189587
:100110001895189518951895189518950D94677158
:100120000C949E761895189518951895189518950D
:05013000189518951858
:1044000000001642001D001142009741009A410031
:104410009E4100CA4100A24100A74100AA4100AF4D
:104420004100B84100B54100BC4100C54100C9414F
:1044300000DA4100CF4100E14100E94100EB4100D9
:10444000EE4100F04100F24100B34100F84100FCB0
:104450004100FF41000542000B42001342000001F1
:104460006173000D73000114730001197300011FC3
:10447000730003247300012A7300093073000136AE
:104480007300013E730001447300014B730001513E
:104490007300015C7300FB0000003582001200D83D
:1044A0008100DA8100E38100EE8100F08100F28179
:1044B00000198200F48100F681000682001082005B
:1044C0001282001482001682001882001C820022D0
:1044D00082003182000000002A8B0024006F8A00D5
:1044E0007A8A00858A00878A00028B008A8A00897E
:1044F0008A00928A00948A00968A009F8A00B08A75
:1045000000B28A00BF8A00C18A00C58A00C38A003F
:10451000C78A00D68A00EE8A00E18A00E38A00E5B5
:104520008A00EC8A00F08A00F28A00FF8A00FE8A84
:1045300000018B00058B00078B00098B00138B009B
:10454000208B00268B00D28A00000000118D001005
:1045500000C98C00CC8C00CF8C00D28C00D78C0092
:10456000DA8C00E58C00E78C00EC8C00F98C00FE06
:104570008C00008D00038D00058D00078D000E8DD1
:1045800000000000D594001700CE94009A9400A576
:104590009400D59400D29400D59400A99400D494AA
:1045A00000D29400BA9400A59400D59400D294004F
:1045B000D29400959400D59400D59400CE9400D068
:1045C0009400CE9400D09400D29400D494000000C3
:1045D00006990017008F9800B29800BF9800BF9806
:1045E00000B29800BF9800E29800B29800DE9800F0
:1045F000B29800DA9800039900D39800B298008F1F
:104600009800069900069900E69800B29800ED9887
:1046100000B29800F49800B298000801AEA0006AB9
:10462000A000016DA0000170A0000173A000017640
:10463000A0000179A000017CA000017FA000016A18
:10464000A000086AA000016DA0000170A000017325
:10465000A0000176A0000179A000017CA000017FEC
:10466000A0000169A000016CA000016FA000017210
:10467000A0000175A0000178A000017BA000017ED0
:10468000A0000169A000016CA000016FA0000172F0
:10469000A0000175A0000178A000017BA000017EB0
:1046A000A000016AA000016DA0001084A000018498
:1046B000A000068EA00004A2A000048EA000018E1F
:1046C000A0009172A000066DA000016DA000077F00
:1046D000A0000181A000FB000000F9AF000F00E185
:1046E000AF00E1AF00E3AF00E3AF00E5AF00E5AF3F
:1046F00000E7AF00E9AF00EBAF00EDAF00EFAF00B8
:10470000F1AF00F3AF00F5AF00F7AF00400158BDC7
:104710000095BD0001EBBC000197BD000197BD00F5
:104720000197BD0001EFBC0001F3BC000197BD0083
:104730000197BD0001FABC0001FEBC000102BD00F2
:104740000106BD000197BD00010ABD000111BD00B9
:10475000011BBD000197BD00011FBD000123BD006D
:104760000197BD000127BD00013ABD000149BD0010
:104770000197BD00013EBD000145BD000195BD0092
:104780000195BD000195BD001234BD000297BD002A
:104790000197BD000197BD000197BD000197BD00C5
:1047A0000197BD000197BD000197BD000197BD00B5
:1047B0000197BD000197BD000197BD000197BD00A5
:1047C0000197BD000254BD000195BD000230BD003F
:1047D000014DBD00FB0040010ABE00F1BD0001AF6C
:1047E000BD000102BE000102BE000102BE0001B216
:1047F000BD0001B6BD000202BE0001B9BD0001BC92
:10480000BD0001BFBD0001C3BD000102BE0001C665
:10481000BD0001C9BD0001CCBD000102BE0001D038
:10482000BD0001D3BD0002D7BD0001E5BD0001FB05
:10483000BD000102BE0001E8BD0001EBBD000103A7
:10484000BE0001EEBD0001EEBD0012DFBD000202A0
:10485000BE000102BE000102BE000102BE00010254
:10486000BE000102BE000102BE000102BE00010244
:10487000BE000102BE000102BE000102BE00010234
:10488000BE000102BE000205BE000108BE0002DB40
:10489000BD0001FFBD00FB000101EECC0062CC00B9
:1048A00001C5CC0001D2CC000143CC0003CECC002A
:1048B00001D2CC0001D4CC0001E6CC0001DCCC005C
:1048C00003E6CC00015CCC0001E8CC00FB00010059
:1048D0006CCF000E0048CF004BCF004ECF004ECF24
:1048E0000051CF005DCF0057CF005ACF006CCF00F2
:1048F00054CF0060CF0063CF0066CF0069CF0000C7
:104900000100B9CF0010007BCF00C0CF00C0CF00A6
:10491000C0CF0082CF009FCF0090CF0097CF00B9CB
:10492000CF0089CF00A6CF00A6CF00AECF00C0CF6A
:1049300000C7CF00CACF00002401FDE70013E80044
:10494000011AE800012CE8000303E800010FE80069
:104950000442E800014CE8000159E800015DE8006C
:104960000201E8000120E80001E7E700FB00000089
:1049700001D64201C9420101CB420101D1420101EC
:10498000D1420101CD420101D1420101D442010ACB
:10499000D1420101D1420102C7420101CF420101CE
:1049A000D14201FB0000014A4301154301011843B4
:1049B0000101214301012443010127430101444333
:1049C00001014743010A2A4301013E4301034143D8
:1049D00001011B4301FB01008C63010C00D4620147
:1049E0000D6301E06201FD62016863010D6301482E
:1049F00063016C63011F63014863016A63017F63A4
:104A000001000B000500070C000000000C00A100D5
:104A1000210B0000000001004B00732297510000A1
:104A200002002201543900000001030081003246D7
:104A300000000002040003005036000000000500E2
:104A40002C00144100000002060002005536000050
:104A5000000007001600A3450000000108001E002A
:104A6000F640000000010900010036360000000099
:104A7000405C0002000540E65B0009000140FF9336
:104A8000EF933BB72BBFF80106913BBFEF91FF912E
:104A900008957F937FB7F8949D9AA5980AEF0E9496
:104AA000A8250AEF0E94A8259D9806E40E94A82543
:104AB00001E0959900E00F9300EF0E94A8250F9167
:104AC0007FBF7F9108957F937FB7F8949D9AA598B3
:104AD00006E00E94A8259D980AE00E94A8258894D7
:104AE00095990894001F0F9304E60E94A8250F9142
:104AF0007FBF7F9108959F937F9398E00E946325E5
:104B0000079577959A959923C9F7072F7F919F91DC
:104B100008957F937FB7F894A5989D9A0F9306E028
:104B20000E94A8250F91079508F49D980F9304E61D
:104B30000E94A8250F919D987FBF7F9108959F9314
:104B400098E00E9489259A959923D9F79F91089515
:104B500000000000000000000A950023C9F7089536
:104B60005F937F937FB7F894CF93DF93C0E0D0E05B
:104B70007F935091B2007091B2007517E1F3739575
:104B800021965091B2005717D9F77F918E01DF918E
:104B9000CF917FBF7F915F9108950F945F7B0DEC64
:104BA000A7ECC7ECB8E5DCE50D93AC17BD07E1F762
:104BB000A7ECC7ECBCE5D3E60D93AC17BD07E1F756
:104BC00006EC0DBF0CE50EBFC7ECD3E60F94B17B2E
:104BD000002311F00F94AC7C0E94A3490F94787BC2
:104BE0000C94F2250D94D2804A9512F0000FE1F753
:104BF00008954A9512F00695E1F708950024E8E03B
:104C0000EA9532F0001F001C0416D0F3041AF8CF06
:104C1000001F402D00950895149F102D059F100D25
:104C2000049F002D110D0895000F111F4A95E2F702
:104C30000895169507954A95E2F7089515950795F5
:104C40004A95E2F7089500241124EFE0001F111F98
:104C5000001C111C0416150610F0041A150AEA951A
:104C6000AAF7001F111FA0010095109508955195F6
:104C7000419550400895FF27552312F4F160F7DF66
:104C8000112312F4F09507D00E942326F0FD03D0E3
:104C9000F1FDEDCF0895119501951040089522245E
:104CA000349F302D259F300D169F300D079F300DFE
:104CB000249F202D310D159F200D311D069F200DA5
:104CC000311D149F102D210D321D059F100D211D2A
:104CD000321D049F002D110D221D321D0895000F5D
:104CE000111F221F331F4A95D2F708953695279535
:104CF000179507954A95D2F70895002411241001BD
:104D0000E0E2EA9592F0001F111F221F331F001CE2
:104D1000111C221C331C041615062606370688F3C0
:104D2000041A150A260A370AECCF001F111F221F8A
:104D3000331FA001B101009510952095309508957D
:104D400057914791179011FA2790379007900CBE12
:104D50000895F7DF041B10E003C0F2DF041B150BFE
:104D600020E030E000C028F110FC25C047910790FA
:104D7000E00FF11F0417100540E024073407C8F4C2
:104D800086F412FE05C0E00FF11F0791069002C0E5
:104D900006910024F101E01BF0090CB700400CBFA4
:104DA0001994E00FF11FE00FF11F27903790079043
:104DB0000CBEF101199411F4C6F7E3CF319612FC41
:104DC00031960EF0329650E060E070E047914B3F34
:104DD00048F079F34F3F29F04E3F11F077916791FA
:104DE00057914791041B150B260B370B29F308F33A
:104DF000E5CFAF93BF93D80101900D924150504041
:104E0000D9F7BF91AF910895AF93BF93D8013BBF3E
:104E100007900D9241505040D9F7BF91AF9108953E
:104E2000E00FF11F02900A9201501040D9F7089547
:104E3000FA92EA92DA92CA92BA92AA929A928A92D2
:104E40007A926A925A924A92BA93AA939A938A93BE
:104E50000895FF84EE84DD84CC84BB84AA84998485
:104E600088847F806E805D804C80BB81AA8199811F
:104E70008881F0E0EC0FFD1FEF0108958081080F9D
:104E80008181181F8281281F8381381F8481481FD8
:104E90008581581F8681681F8781781F08958081CA
:104EA000082B8181182B8281282B8381382B8481C8
:104EB000482B8581582B8681682B8781782B089514
:104EC0008081081B8181180B8281280B8381380B1C
:104ED0008481480B8581580B8681680B8781780B0C
:104EE0000895109520953095409550956095709552
:104EF00001951F4F2F4F3F4F4F4F5F4F6F4F7F4FCA
:104F0000089580810817818118078281280783818D
:104F1000380784814807858158078681680787811B
:104F20007807089500000000000000000000000065
:104F30000000000000000000000000000000000071
:104F40000000000000000000000000000000000061
:104F50000000000000000000000000000000000051
:104F60000000000000000000000000000000000041
:104F70000000000000000000000000000000000031
:104F80000000000000000000000000000000000021
:104F9000000102010002020505080000FFFF3412B3
:104FA00000000000000000000204000501000000F5
:104FB00000010000000000000000000000000000F0
:104FC00000050000000201AAAAAAAAAAAAAAAAFF8A
:104FD000FF00070707077F7A785A5F070707070769
:104FE000787F1F03001E000000F400000100013460
:104FF0001200030400000200000000000303000090
:10500000000010270000010001F401000001E80386
:1050100000001041746D656C20202020202020208D
:1050200020202000000000000000000001012C01F1
:105030006C000100000A05000A06020505020A00CC
:105040000A08FF140000000A08FFFF04030A901A70
:10505000000001000000053D0000030314100220C1
:105060004E0000010300014F500003B2350008005C
:10507000BC350001008A360004008E360001009025
:10508000360004003E360001003F3600010046367F
:105090000008004236000200CA35000200D3350085
:1050A00001003A3600010057360001004036000189
:1050B0000097360001009836000100993600010083
:1050C0009A3600010095360002009B360001009CD4
:1050D000360001003C360001003B36000100673617
:1050E0000001006836000100C936000800AF360034
:1050F0000400A436000400A836000400AC36000109
:1051000000AD36000100AE36000100B836001100D7
:105110003736000100B336000100B4360004006CDD
:10512000360001006936000200D1360001009436D5
:1051300000010000000000000000000000893600AF
:10514000010000000000000000000000000000005E
:10515000000000000000B34F001000D23600010034
:1051600051360001005236000100D3360001006DB7
:105170003600080075360002009D36000500A23694
:10518000000100A336000100000000000000000044
:10519000000000000000000000000000000000000F
:1051A0000000000000000000000000BE350001000B
:1051B00000000000000000000000000000000000EF
:1051C00000000000000000000000000000000000DF
:1051D00000000000000000000000000000000000CF
:1051E000000000000000008F36000100C4350001FF
:1051F00000BD350001002E500002003250000100B9
:1052000035500001003350000200385000010039D1
:10521000500001003A500001003B500001003C509A
:105220000001003D500001003E50000200365000D9
:105230000200405000010041500001005C5000029B
:10524000004B500001004C500001004D5000010087
:105250005850000400425000010043500004004731
:10526000500001004850000100525000010053500E
:105270000001005450000200565000010057500039
:10528000010000000000000000000000000000001D
:105290000000000000005E500001005F50000400AC
:1052A000635000010000000000006450000200662E
:1052B0005000010049500001004A500001006750B1
:1052C000000100685000010069500001006A5000B0
:1052D000010000000000004E5000040030500002A9
:1052E00000D43600000054390000006C3800000083
:1052F000763A00000048390000000000000000BCC1
:105300003A00000021450000007B45000000853F79
:105310000000007F40000000CB3F000000B64000CE
:10532000000030420000004C44000000000000007B
:10533000000000000000F640000000A3450000004F
:105340003647000000BB49000000000000000000DC
:1053500000000000000000000000000000005036C7
:1053600000000014410000004041000000B9450069
:10537000000000000000003246000000B3460000BC
:1053800000C546000000054B0000002D4B0000004A
:105390000038000000000000000000005F00000076
:1053A00007000700147F147F14242A7F2A12231376
:1053B00008646236495522500005030000001C2293
:1053C00041000041221C00082A1C2A0808083E0847
:1053D000080050300000080808080800606000005D
:1053E00020100804023E5149453E00427F400042E1
:1053F000615149462141454B311814127F10274510
:105400004545393C4A494930017109050336494946
:105410004936064949291E00363600000056360036
:10542000000008142241141414141441221408001A
:105430000201510906324979413E7E1111117E7FE8
:10544000494949363E414141227F4141221C7F4921
:105450004949417F090901013E414151327F080814
:10546000087F00417F41002040413F017F08142216
:10547000417F404040407F0204027F7F0408107F4C
:105480003E4141413E7F090909063E4151215E7F6F
:1054900009192946464949493101017F01013F4027
:1054A00040403F1F2040201F7F2018207F631408AA
:1054B00014630304780403615149454300007F41AC
:1054C00041020408102041417F000004020102044F
:1054D0004040404040000102040020545454787F72
:1054E000484444383844444420384444487F38547D
:1054F000545418087E090102081454543C7F0804CF
:10550000047800447D40002040443D00007F102886
:105510004400417F40007C041804787C080404782F
:1055200038444444387C14141408081414187C7C3F
:10553000080404084854545420043F4440203C408C
:1055400040207C1C2040201C3C4030403C44281023
:1055500028440C5050503C4464544C44000836419C
:105560000000007F00000041360800020102040232
:105570007844424478FCAF6011070120000000002D
:1055800000ECFF003FFE00600C01F3EA00000000A9
:10559000B1E300EBE800ABEE0000000000000010FB
:1055A00000000000000302010203030202010101E6
:1055B00001010101010102020101010201020202D5
:1055C00002020201020202020202010303020203BA
:1055D000000100010000FE35D900EF0D01F1EF00E0
:1055E00096E60094ED00000000ADDB0008E000E965
:1055F000EA0061DC00130C01E8D30060FA0031FC22
:105600000002FE00F2F900B1F000000000B6130144
:1056100068FA00840D01B7D200940E0173FB00CA32
:10562000FC009A0B015BF9005DD90081DC001FE7EB
:10563000006AE300B4EB00CBDB00F7D80027F000F2
:1056400000000000000077F400CBF500000000B877
:10565000F7000238EE00F3ED000107AC0C012C0D51
:10566000010101AC0C012C0D010101D7E900C6E8D4
:105670000001012CE40017E50001012CE40082E4A4
:105680000001074CEC007FEC00010142ED001BED36
:105690000001010000000000000107000000000000
:1056A000000101000000000000010300000070FD87
:1056B00000010400000070FD000105000000000072
:1056C000000106000000000000010D0000000000C5
:1056D000000101AC0C01000000000100000000000E
:1056E00000010E00000000000001070000000000A3
:1056F00000010A000000000000010000000000009E
:105700000001010000000000000101000000000095
:10571000000000000000C9D8000009000000C9D83E
:1057200000000C000000C9D8000000000000C9D82B
:1057300000008000000001FF000106FF010407FFD8
:1057400001070207210D02FF010B11FF011A810061
:10575000000003FF077F0000050200FF027F040135
:10576000087F05FF06038200000003FF0900830095
:10577000000003FF0A008400000003FF0B05850002
:10578000000000FF03068600000003FF0C009A00E3
:10579000000003FF1F1B9B00000000FF031C9C0078
:1057A000000003FF20008700000003FF1A088800A4
:1057B0000000100C0409100D1C0A10FF1B7F00FFD5
:1057C00003098A00000003FF1D008900000003FF99
:1057D0001E008B00000003060E100309181703FFBC
:1057E0000D0F8D00000012FF0F0E8E0000000AFF4B
:1057F000010B0BFF120000FF12009700000000FFDA
:1058000003188F0000000802FF7F0803041608FF3A
:10581000041500FF0316900000000904FF7F09052E
:10582000041609FF140C00FF031698000000030A79
:10583000191903FF2213990000000C0F17000CFF29
:1058400016148C00000003FF22119100000000FFDD
:105850001012920000000A0F17000AFF16140BFF27
:10586000120093000000000F170000FF16149400B0
:1058700000000D0E11000DFF237F0008157F00FFB3
:1058800013009500000003FF22139600000003FFA1
:1058900012008000000001FF030500FF007F0DFFE4
:1058A0001A11910000000DFF1A7F00FF1B008500F8
:1058B000000002FF040000FF05068600000002FF52
:1058C000FF070500060805FF07088800000002FF23
:1058D000080F0701140107FF0A04060415038100DD
:1058E00000000BFF090902FFFF028900000002FF10
:1058F000FF0405FF0B0A8A00000002FFFF0B08FFF0
:105900000C0C8C00000002FF0D0D00030E0000FFC8
:105910000F0E8E000000090518100902160009FF7D
:1059200010009000000000FF17000C0619120CFF79
:1059300017008300000003FF011204FF011200FFA3
:1059400002048700000005FF09048400000005FF31
:10595000FF008F0000000AFF09048B00000008FF11
:10596000110D8D00000008FF0000820000000BFFF9
:1059700009049200000000FF1C000100000000006C
:105980000000000000000001000000000000000016
:105990000000000002000000000000000000000005
:1059A00001800000000100027F01FF000181000072
:1059B0000002FF02028200000001000C0301FF0050
:1059C000010301107F0EFF037F00FF007F02FF0134
:1059D0007F0402047F0502057F07050F0907FF0EFC
:1059E0000A08FF060A0AFF0C0606FF0D7F89000061
:1059F000000DFF0E0A8A00000000FF0B0484000067
:105A00000002FF07058500000009FF08008600006E
:105A10000002FF0907870000000BFF0A0083000057
:105A20000002FF02000E01000E02000E04000E052F
:105A3000000E06000E07000E08000E09000501000A
:105A40000502000504000505000506000507000520
:105A50000800050900040100040200040400040613
:105A60000004050004070004080004090006010002
:105A700002020003020009030015030020030014C2
:105A80000400140500140600100700110800120895
:105A9000001F060026090024010000005A69674221
:105AA0006565416C6C69616E63653039FFFF00AFFD
:105AB00000000000000000000000000000000000E6
:105AC0000000B83D01983E017D3201653301753912
:105AD000010000000000000000000000007E3B010B
:105AE000400000000100783701D42701C13301F3E1
:105AF00017013D15010000000000002F3D0180004E
:105B0000000000FF01018100000002FF030301000B
:105B1000027F01FF00028200000002FF030301FF79
:105B200006008300000003FF05000401040404FFD5
:105B300006008400000003FF050004FF06000F7349
:105B4000010F73010F73010F730172730140720132
:105B5000A47101186A01226F01CB6E012C7A010039
:105B60006B01B579017B7801487801107301010060
:105B7000000000000380000000000003A85301F1B2
:105B80005801695001AC55016C3F0191470101007A
:105B90000000000000000000000000FDFF00000009
:105BA0000000000FFF0000020302020101010101D9
:105BB000020201020202010203020102030202B810
:105BC0006801CF6801C267013F6901BA6301A0643F
:105BD000010E6601BB7601BD7601BF7601C176017B
:105BE000C27601C476010100020003000400050032
:105BF0000600070008000900FFFF00030100010084
:105C0000020100010000000000000000000200008E
:105C100000030700FF9B00000700059C00175E01C2
:105C2000755D01F05E01EFA100739400199300010E
:105C30000000000100080000000000000100010059
:105C40000B000C0000040810FFFF00B11C000259FB
:105C50005C00153AB11E0000005363616E2052656E
:105C600073706F6E73652072656365697665640D28
:105C70000A0044657669636520496E666F20726527
:105C800071756573742072656365697665640D0A64
:105C90000044657669636520496E666F207265739E
:105CA000706F6E73652072656365697665640D0A51
:105CB000004964656E7469667920726571756573F3
:105CC000742072656365697665640D0A004E6574BB
:105CD000776F726B20537461727420726571756591
:105CE00073742072656365697665640D0A004E659C
:105CF00074776F726B205374617274207265737065
:105D00006F6E73652072656365697665640D0A0060
:105D10004E6574776F726B204A6F696E20526F7593
:105D20007465722072657175657374207265636540
:105D3000697665640D0A004E6574776F726B204A50
:105D40006F696E20526F7574657220726573706F23
:105D50006E73652072656365697665640D0A004E31
:105D60006574776F726B204A6F696E20456E642090
:105D70004465766963652072657175657374207218
:105D8000656365697665640D0A004E6574776F72A8
:105D90006B204A6F696E20456E64204465766963A6
:105DA0006520726573706F6E7365207265636569D7
:105DB0007665640D0A00436F6E6E65637465640DED
:105DC0000A004A6F696E696E672073756363656464
:105DD00065640D0A000000008D3C00953C009D3C70
:105DE00000A53C00AD3C00B53C00BD3C00CA3C00F9
:105DF000D23C00DA3C00000000000000000000FF80
:105E0000E23C00000000EA3C00000000000000FF4F
:105E1000656E64706F696E74496E666F726D6174E1
:105E2000696F6E496E6428293A2065704964203D87
:105E3000203078253032780D0A0067657447726F1C
:105E400075704964656E74696669657273526573CD
:105E50007028290D0A00746F74616C203D20256440
:105E60000D0A0067726F75704964203D20307825F7
:105E70003034780D0A00476574456E64706F696E42
:105E8000744C6973745265737028290D0A004114AB
:105E9000F93C004214343D0040119B3D004111ADDE
:105EA0003D004211EE3D0000100000000110000016
:105EB00000021000000003100000000410000000A9
:105EC0000510000000061000000007100000000888
:105ED0001000000009100000000A1000000040102F
:105EE00000000041100000004210000000431000BC
:105EF0000000441000000047100000004B1000009C
:105F0000004C100000005363616E6E696E672E2EA8
:105F10002E2E2E2E2E2E2E004964656E7469667903
:105F2000696E672E2E2E0053746F7070696E672E27
:105F30002E2E004A6F696E696E672E2E2E2020204D
:105F40002020202020200057616974696E67466F09
:105F5000724A6F696E2E2E2E005A4C4C2052656D7F
:105F60006F74652020202020200054677420477221
:105F70006F75703A202530347820004C696E6B655F
:105F80006421202020202020202020004572726FD4
:105F9000723A206E6F206A6F696E2020004E6F206B
:105FA0006465766963657320666F756E640045721B
:105FB000726F723A20256864004164642047726FF2
:105FC0007570204661696C656400416464204772A5
:105FD0006F7570204F4B20202020006564007220D8
:105FE00000257300464E2020206325750049646516
:105FF0006E74696679212020202020202000253021
:106000003458206325687520702530345800446961
:1060100073636F6E6E65637465640D0A0054677414
:10602000204465766963653A2025303478200092F3
:1060300058003A1006068A4100364200000000006F
:106040000000000000000000000000000000000050
:1060500000FFFF0000000000000000000000000042
:10606000B80B000001514500FF006F410000000027
:10607000087641000000000C7941000000000F7C10
:1060800041000000000E7F41000000000385410038
:10609000000000F44300BE4300000000154400006F
:1060A0000000FF734300FF6843005E43006143004C
:1060B000000000624300644300FF4E6F7420656E71
:1060C0006F75676820636F6D6D616E6420627566C1
:1060D000666572730D0A00001001000000053504AA
:1060E00000000000000000000000030001000000AC
:1060F00004B81300000000000000000000060001CA
:10610000000000066507000000000000000000001D
:1061100008000100000008E807000000000000007F
:106120000000000400010000000AB60700000000A3
:1061300000000000000005000100000013C20A007A
:106140000000000000000000000003010000001338
:106150004E040000000000000000000000000100EC
:10616000000000000000000000000000000000002F
:10617000FF0107210B01C20B00000000000000001E
:1061800000000010030006000800040005000003E2
:10619000000000FF00000009810C0000000000006A
:1061A00000000000000000001000000000053504A1
:1061B00000000000000000000000000000100100CE
:1061C000000000000000000002000000004000008D
:1061D00000004100000000420000000061646447CC
:1061E000726F7570526573706F6E7365496E642857
:1061F000290D0A0072656D6F766547726F75705272
:106200006573706F6E7365496E6428290D0A00000E
:106210001400000001140000000214000000031428
:10622000000000041000000005100000000011ED47
:106230004500011100000002110000000311174683
:10624000000010000000011000000002100000001B
:1062500003100000000410000000051000000006FC
:1062600010000000071000000041646420736365A3
:106270006E6520726573706F6E73653A207374611A
:10628000747573203D203078253032780D0A006710
:10629000726F75704964203D203078253034780D58
:1062A0000A007363656E654964203D2030782530AF
:1062B00032780D0A0056696577207363656E652034
:1062C000726573706F6E73653A2073746174757361
:1062D000203D203078253032780D0A0067726F75C6
:1062E000704964203D203078253034780D0A0073E1
:1062F00063656E654964203D203078253032780D25
:106300000A007472616E736974696F6E54696D65A9
:10631000203D203078253034780D0A0052656D6FAD
:106320007665207363656E6520726573706F6E733A
:10633000653A20737461747573203D203078253080
:1063400032780D0A0067726F75704964203D203005
:1063500078253034780D0A007363656E65496420D2
:106360003D203078253032780D0A0052656D6F7609
:106370006520616C6C207363656E65732072657354
:10638000706F6E73653A20737461747573203D206D
:106390003078253032780D0A0067726F7570496465
:1063A000203D203078253034780D0A0053746F7208
:1063B00065207363656E6520726573706F6E7365BB
:1063C0003A20737461747573203D20307825303223
:1063D000780D0A00476574207363656E65206D65EE
:1063E0006D6265727368697020726573706F6E7329
:1063F000653A20737461747573203D2030782530C0
:1064000032780D0A0067726F75704964203D203044
:1064100078253034780D0A007363656E65436F75B7
:106420006E74203D203078253032780D0A00736379
:10643000656E654964203D203078253032780D0A3C
:1064400000416464207363656E6520726573706FCC
:106450006E73653A20737461747573203D203078D3
:10646000253032780D0A0067726F75704964203DDF
:10647000203078253034780D0A007363656E6549E5
:1064800064203D203078253032780D0A0056696549
:1064900077207363656E6520726573706F6E7365C8
:1064A0003A20737461747573203D20307825303242
:1064B000780D0A0067726F75704964203D2030784E
:1064C000253034780D0A007363656E654964203D9C
:1064D000203078253032780D0A007472616E73694D
:1064E00074696F6E54696D65203D203078253034B5
:1064F000780D0A00436F7079207363656E652072B2
:106500006573706F6E73653A207374617475732070
:106510003D203078253032780D0A00000000000060
:10652000000000000000000000000000000000006B
:10653000000000000000000000000000000000005B
:1065400000000000000000000000000000001176C4
:10655000460001117A460002117E4600031195465D
:10656000000411B646000611C34600401100470062
:106570004111204700421151470000004102000034
:10658000000000000000000000000000000000000B
:1065900000010041020000000000000000000000B7
:1065A00000000000000000000200410200000000A6
:1065B00000000000000000000000000000000003D8
:1065C0000041020000000000000000000000000088
:1065D0000000000000000400410200000000000074
:1065E0000000000000000000000000000005004165
:1065F0000200000000000000000000000000000099
:106600000000000006004102000000000000000041
:10661000000000000000000000000000100000006A
:106620004E6574776F726B2075706461746520734A
:106630007461747573202D203078253032780D0AFE
:106640000062746E203D2025642C206576203D205C
:1066500025642C2064617461203D2025640D0A00AE
:10666000000000000000000000000000000000002A
:10667000005E4900000000000000000000006E49BC
:1066800000000000000000000000007249001744F4
:10669000005B6600A28D00957500258500A97C0031
:1066A000B877000000000000000000FAFFFFFFFFC5
:1066B000FFFFFF072041746D656C200007205265C5
:1066C0006D6F746500092032303131313232330060
:1066D000082050686F656E69780000002002000194
:1066E000002002000200200200030020020004003B
:1066F000420200000000000000000500420200000D
:10670000000000000000060042020000000000003F
:1067100000000000070030020000404202000000BC
:1067200000000000000068656C7000002D3E53689A
:106730006F772068656C7020796F7527726520729D
:10674000656164696E67206E6F773A2068656C706A
:106750000D0A007265736574002D3E526573657491
:10676000206465766963650D0A00746F7563686CF3
:10677000696E6B00506572666F726D20746F756321
:10678000686C696E6B3A20746F7563686C696E6BC8
:106790000D0A0061646447726F7570006464640080
:1067A00053656E6473204164642047726F75702076
:1067B000636F6D6D616E643A2061646447726F75DA
:1067C00070205B616464725D5B65705D5B67726FB6
:1067D00075705D0D0A007472616E736D69744C6939
:1067E0006E6B496E666F006464005472616E736D07
:1067F0006974204C696E6B20496E666F3A20747222
:10680000616E736D69744C696E6B496E666F205B67
:10681000616464725D5B65705D0D0A00726573652D
:1068200074546F464E00526573657420746F204631
:106830006163746F7279204E65772C207065727376
:10684000697374616E74206974656D732072657408
:1068500061696E65643A207265736574546F464E63
:106860000D0A007265736574546F46440052657377
:10687000657420746F20466163746F72792044657B
:106880006661756C742C2064656C65746573206535
:10689000766572797468696E6720696E636C756479
:1068A000696E672070657273697374616E742069B4
:1068B00074656D733A207265736574546F46440D48
:1068C0000A00646576496E666F4765744578744161
:1068D000646472002D3E20476574732045787441CE
:1068E0006464723A20646576496E666F47657445E4
:1068F0007874416464720D0A00706572666F726D1F
:106900005363616E0064002D3E20537461727420E5
:106910007363616E3A20706572666F726D53636166
:106920006E203C7363616E547970653E0D0A00728F
:1069300065736574446576696365546F464E0052AD
:10694000657365742064657669636520746F20469D
:106950004E3A207265736574446576696365546F59
:10696000464E0D0A006964656E7469667944657601
:1069700069636500506572666F726D206964656E4B
:106980007469667920726571756573743A206964FB
:10699000656E74696679446576696365203C7469DF
:1069A0006D656F7574496E5365633E0D0A00706FB7
:1069B0007765724F6666002D3E20506F7765727363
:1069C000206F6666206465766963653A20706F772C
:1069D00065724F66660D0A0073746F704F7461754F
:1069E0000053746F70204F5441552070726F63656F
:1069F00073730D0A0073746172744F746175005380
:106A000074617274204F5441552070726F636573C6
:106A1000732061667465722073746F700D0A007361
:106A2000657441646472657373696E67006464645D
:106A30006464002D3E205365742061646472657344
:106A400073696E673A207365744164647265737329
:106A5000696E67203C6D6F64653E3C616464723EA4
:106A60003C64737445703E3C6D616E537065634366
:106A70006F64653E3C64656661756C7452657370E5
:106A80003E0D0A00736574436F6C6F72007364642B
:106A9000646464005365747320636F6C6F723A2092
:106AA000736574436F6C6F72205B616464724D6FC9
:106AB00064655D5B616464725D5B65705D5B687598
:106AC000655D5B7361745D5B74696D655D0D0A0086
:106AD0006F6E4F666600736464730053656E647313
:106AE000204F6E2F4F666620636F6D6D616E643A46
:106AF000206F6E4F6666205B616464724D6F6465E3
:106B00005D5B616464725D5B65705D5B6F6E4F665B
:106B1000663A202D6F6E20666F72204F6E2C202DEE
:106B20006F666620666F72204F66665D0D0A0069AB
:106B300064656E74696679007364640053656E649D
:106B400073206964656E7469667920726571756514
:106B500073743A206964656E74696679205B616458
:106B600064724D6F64655D5B616464725D5B6570EA
:106B70005D0D0A007363656E65007364647364641D
:106B80000053656E64732073746F72652F72656352
:106B9000616C6C2F72656D6F7665207363656E65D1
:106BA0003A207363656E65205B616464724D6F6447
:106BB000655D5B616464725D5B65705D5B636D64A4
:106BC0005D5B67726F75705D5B7363656E655D0DB0
:106BD0000A0072656D6F766547726F757000536558
:106BE0006E6473204164642047726F757020636F18
:106BF0006D6D616E643A2072656D6F766547726F78
:106C00007570205B616464725D5B65705D5B67726B
:106C10006F75705D0D0A0073657442726967687400
:106C20006E657373007364646464005365747320E9
:106C30006272696768746E6573733A207365744233
:106C400072696768746E657373205B616464724D0A
:106C50006F64655D5B616464725D5B65705D5B6CF8
:106C60006576656C5D5B74696D655D0D0A00257305
:106C70000D0A00436F6D6D616E64733A200D0A005A
:106C8000CD0CD20C184A00D30CFA0CD20C2F4A00AF
:106C9000000D110DD20C304A001B0D3A0D430D3280
:106CA0004A00470D7D0D8E0D6A4A00910DC30DD22D
:106CB0000C6F4A00CD0D0A0ED20C734A00140E69F7
:106CC0000ED20C7A4A007B0EA00EAC0E954A00AE96
:106CD0000ED60ED20CB14A00E60E0C0FAC0EB84A1E
:106CE000001B0F550FD20CC24A005E0F7F0FD20C53
:106CF000E04A00880F9C0FD20CE64A00A60FC60F90
:106D0000D40FFE4A00DA0F2B1034102C4B003B102E
:106D100077107D104B4B008210D610DF10654B00B2
:106D2000E3101B112111754B0028117911430D9EA1
:106D30004B008511BE11CC11414B00D21100000057
:106D4000000000000000456E7465722076616C6979
:106D5000642067726F757049640D0A004D696E207A
:106D60002D2025642026204D6178202D2025750DAD
:106D70000A0025303278000D0A005363616E2069E5
:106D80007320446F6E650D0A5374617475732069C6
:106D9000732025640D0A44657669636520616D6F13
:106DA000756E742069732025640D0A004F54415597
:106DB000206973206E6F7420737570706F727465C4
:106DC000640D0A004F544155206973206E6F742082
:106DD000737570706F727465640D0A00446F6E6530
:106DE00020203078253032780D0A002D67002D6F75
:106DF0006E002D73746F7265002D72656D6F766510
:106E00000000000000000000000A00000001F84936
:106E1000000000000000011400000040000000001D
:106E200000110000005A636C436F6E6669726D3A20
:106E300020737461747573203D203078253032786A
:106E40000D0A005A636C526573706F6E73653A2059
:106E5000737461747573203D203078253032780D5D
:106E60000A00756E6B6E6F776E20636F6D6D616E6D
:106E7000640D0A0083204E5F5061636B6574446942
:106E8000737472696275746F720000000000000014
:106E900000000000F84F00464154414C3A436F64F3
:106EA000653A30782578200A004552524F523A43CD
:106EB0006F64653A30782578200A00496E76616CF7
:106EC00069642061737365727420706172616D0A08
:106ED00000000000000000000000000000000000B2
:106EE00000FF446973636F7665727920646F6E6525
:106EF0000D0A00446973636F766572792066616973
:106F00006C65640D0A004173736F63696174696F26
:106F10006E2073756363656465640D0A00476F7462
:106F2000204E574B2061646472657373203078255E
:106F3000780D0A004173736F63696174696F6E2025
:106F40006661696C65640D0A00776C5064735479EE
:106F5000706573436F6E76657274657200776C50FE
:106F60006473446174615365727665720000000059
:106F70000000000000000056540070776C506473ED
:106F8000496E697400D8530000535F4E7600526515
:106F900073697A696E67204E56206974656D202882
:106FA00069643D256875292066726F6D20256875B6
:106FB00020746F20256875000600FF0F0000000098
:106FC00000000000000000000000000000000000C1
:106FD0000000FF00000000000000000000000000B2
:106FE00000000000000000000000000000000000A1
:106FF0000000445F4E760000000000000000010029
:1070000000000000000000000000000000E8030095
:107010000001DD5D007CB4001E7301D2CF003F0E85
:1070200001035801A93901D65F01665F018AA900F1
:10703000000000459A00A490009A49008B5500007A
:1070400000000000FFFF4E5F436F6E6E6563746962
:107050006F6E5F5265636F6E6E65637448616E64D8
:107060006C657200000000000000000000000000DD
:107070000000000000000000000000000000000010
:107080000000000000000000000000000000000000
:1070900000000000000098610000000000000000F7
:1070A00000000000000000000000000000000000E0
:1070B000000000000000000000001162000000005D
:1070C00000000000000000000000000000000000C0
:1070D00000000000000000000000000000000000B0
:1070E00000000000000000000000000000000000A0
:1070F0000000000000000000000000000000000090
:107100000000003400030000000000000000000048
:10711000000000000000000000000000000000006F
:10712000000000000000000000000000000000005F
:10713000000000000000000000000000000000004F
:10714000000000000000000000000000000000003F
:10715000000000000000000000000000000000002F
:10716000000000000000000000000000000000001F
:10717000000000000000000000000000000000000F
:1071800000000000000000000000000000000000FF
:1071900000000000000000000000000000000000EF
:1071A0000000000000000662000000000000000077
:1071B00000000000000000000000000000000000CF
:1071C00000000000000000000000000000000000BF
:1071D00000000000000000000000000000000000AF
:1071E000000000000000000000000000000000009F
:1071F000000000000000000000000000000000008F
:1072000000000000004E5F436F6E6E656374696F2F
:107210006E4173736F63696174696F6E0000000083
:10722000000000000000000000000000002C010031
:107230000001B26200000000000000000100000038
:1072400001B9630000000000000000000000C80059
:107250000000019763004E5F436F6E6E6563746953
:107260006F6E436F6D6D6F6E0000000000000000D8
:10727000000000000000000000000000000000000E
:1072800000000000000000000000000000000000FE
:1072900000000000000000000000000000000000EE
:1072A00000FF0001000000000000000000000000DE
:1072B00000000000000000196500000000004E5FA3
:1072C000436F6E6E656374696F6E00F4010000F4C5
:1072D00001000000000000000000000000000000AD
:1072E000000000000000000000000000000000009E
:1072F000000000000000000000000000000000008E
:1073000000000000003E67000301010101000000D1
:1073100000000000000000E968000000000000001C
:1073200000000000E2670000000000000000000014
:10733000000000000000000000000000000000004D
:10734000000000000000000000000000000000003D
:10735000000000000000000000000000000000002D
:1073600000000000000000000000000000340003E6
:10737000000000000000000000000000000000000D
:1073800000000000000000000000000000000000FD
:1073900000000000000000000000000000000000ED
:1073A00000000000000000000000000000000000DD
:1073B00000000000000000000000000000000000CD
:1073C00000000000000000000000000000000000BD
:1073D00000000000000000000000000000000000AD
:1073E000000000000000000000000000000000009D
:1073F000000000000000000000000000000000008D
:10740000000000000000000000000000000000007C
:1074100053670000000000000000000000000000B2
:10742000000000000000000000000000000000005C
:10743000000000000000000000000000000000004C
:10744000000000000000000000000000000000003C
:10745000000000000000000000000000000000002C
:10746000000000000000000000000000000000001C
:10747000000000000000000000D4670000000000D1
:1074800000000000000000000000000000000000FC
:1074900000000000000000000000000000000000EC
:1074A0000000000100000000AA68000000000000C9
:1074B0000000FFFFFFFFFFFFFFFF4E5F456E6444CC
:1074C0006576696365526F627573746E6573730078
:1074D00000000000000000000000000000000000AC
:1074E000000000256B00000000000000D007000035
:1074F000014F6B00A16B00C86B0000000000000092
:10750000000000FF4E5F436D6900000000000000B6
:107510000000000001416E000000000000000000BB
:10752000000000000000000000000000000000005B
:10753000000000000000000000000000000000004B
:107540000000D46F000000000000000000000000F8
:107550000000000000000000000000B06E004E5F60
:10756000496E74657250616E00FA7000FA7000FA2C
:107570007000FA7000FA70000000000000000000C7
:1075800000FFFFFFFFFFFFFFFF0000000000000003
:10759000004E5F446576696365496E666F00000062
:1075A00000000000000000000000000000000000DB
:1075B00000000001000000000000000000000000CA
:1075C00000000100000000000000000000000000BA
:1075D00000000000000000000000000000000000AB
:1075E000000000001376004E5F526164696F004E28
:1075F0005F5A6470004E5F53656375726974795F9A
:1076000043616C6300D0D1D2D3D4D5D6D7D8D9DAE0
:10761000DBDCDDDEDF00C0C1C2C3C4C5C6C7C8C96C
:10762000CACBCCCDCECF004E5F5365637572697403
:1076300079004B65794269744D61736B2C30782504
:1076400030345800FE5A00100000003C7C00E27B01
:1076500000717C00FF4E5F416464726573734D611D
:107660006E61676572000100F7FF0100FFFE010017
:10767000FFFE00000000000000000000B37E004E8E
:107680005F4C696E6B5461726765740000000000A6
:1076900000000000000000000000000000000000EA
:1076A00000000000000000000000000000000000DA
:1076B00000000000000000000000000000000000CA
:1076C00000000000000000010000000000000000B9
:1076D000000002000000097F00A1590021791C016F
:1076E000D181003E82008A8200000000B582000045
:1076F0000000CD8200A78300000000D382009884A0
:1077000000F48200988400B08400E584000000004A
:10771000FF4E5F4C696E6B496E69746961746F727C
:1077200000325700580000005D8A00B58C00000050
:10773000003C8D000000005B8D0000000000000098
:10774000758D00868D006A8D008A8D006A8D00001F
:107750000000000000000000FF0000000000009892
:107760008D0000000000000000000000000000008C
:107770000000000000000000000000000000000009
:10778000000000FF4E5F46736D00526563757273B3
:107790006976652046534D206661696C7572652E69
:1077A000207461626C6553697A653D2568752C208B
:1077B00066726F6D53746174653D2568752C206524
:1077C00076656E743D256875004E5F4D656D6F7210
:1077D00079004E5F5461736B004576656E742025A9
:1077E0006875206F66207461736B20256875206E44
:1077F0006F742068616E646C6564000000000000B6
:10780000000000020000000000000000000000FF77
:10781000FFFFFFFFFFFFFF4E5F4572724800000051
:1078200000000000000000002DA8000B0000FFFF7A
:1078300000000000FFFF000000000000000000004A
:107840009AD00001FFD787380C0400000000000028
:10785000000000000000003DD90000000000000012
:10786000000000004EFB00000000000000000000CF
:1078700000EFEA000000000000000200000000002D
:107880000000000000EC3801FFFFFDFFFCFFFBFFE4
:1078900000000000000000000000AF4D01000000EB
:1078A00000000000000000D34D01000000000000B7
:1078B00000000000054E012000FDFFFFFFFFFFFF5D
:1078C000FFFCFFFFFFFFFFFFFFFBFFFFFFFFFFFFCF
:1078D000FF0000000000003960010000000000000F
:1078E00000000000166C010000FFFF00FF00000018
:1078F0000001000000010000000000000000000086
:1079000000000000686C747A4C000CE713E00E94E1
:107910008F7307EA13E00C9435666997E0E0F2E0B4
:107920008E0149E132D0699608956F97E9E1F2E05E
:107930008E014FE12AD06F960895A097E8E3F2E018
:107940008E0140E222D0A09608956C97E8E5F2E01F
:107950008E014CE11AD06C960895A197E4E7F2E00D
:107960008E0141E212D0A1960895A297E5E9F2E0D6
:107970008E0142E20AD0A2960895A797E7EBF2E0C3
:107980008E0147E202D0A796089550E00E94F926A2
:107990000C945A4FA897EEEDF2E08E0148E2F5DF25
:1079A000A8960895AB97E6E0F3E08E014BE2EDDF99
:1079B000AB960895AC97E1E3F3E08E014CE2E5DF8E
:1079C000AC9608952C97EDE5F3E08E014CE0DDDFF9
:1079D0002C9608956397E9E6F3E08E0143E1D5DF45
:1079E000639608950895E4E00C943527D801012B9F
:1079F00008950E941F273801CA018AD089F103E047
:107A0000802E4424552400E010E01AC0FC010081BF
:107A10005016A0F005E0401688F4442DDAD0A801F5
:107A20008D01040F151FF90141815281F80145A311
:107A300056A340E047A3439403E0800E539489018A
:107A40000E94BBE09801022F032B01F76BD001E4E9
:107A5000048352A2FC010081FD0103A344A25BD078
:107A600000E0E9E00C9430270E941F273801CA018A
:107A700003E0802E4DD009F44AC04424EA2FF12FB0
:107A800044A242A2FC010081EA2FF12F03A3552456
:107A9000052D0E94A547F801208531852F3F3F4FD6
:107AA00071F1FD0122A1239522A3FC01208125155E
:107AB00030F128E0429E9D01200D311DF8014085E6
:107AC0005185F90145A356A3F8014285F90147A361
:107AD000F80144855585F90140A751A7F80146856D
:107AE0005785F90142A753A7F8010089F90104A7B6
:107AF00008E0800EFD0104A1039504A34394539470
:107B000007E0501628F20ED002E4048304D0A8CF78
:107B10000E94274C6BCF81A201E0048F93018D015D
:107B20000C944F4C01E0F301008B00E010E1FD01EB
:107B3000028313830895BA93AA93AA97DA01E7EB15
:107B4000F3E08E014AE242D01A960C914A9338D063
:107B5000AC960AEAA991B99108950E942427EC975E
:107B6000DA019E01205E3F4FE1EEF3E089014CE136
:107B70002DD09E018E014DE02AD0235F3F4F890119
:107B800043E125D08E01005E1ED00C9110E01A93C7
:107B900017D0229680E00DC0482F1BD0E00FF11FB8
:107BA000038114811A930A938E01015F0CD02296EF
:107BB0008395FD010281801778F300E0EC9613CFE6
:107BC0000A938E010E5F1F4F0C945A4F50E00C9495
:107BD000F92650E003E010E00C940C266897EDE1E4
:107BE000F4E08E0148E1F2DF0E945A4F00E068960F
:107BF00008950E941E276597902F412E822F0E9484
:107C0000274CD801012B59F000E0EA2FF12F058F06
:107C10009430D9F4882339F40E942645B0D2659671
:107C2000EAE00C942F27813019F40E942845F6CF02
:107C3000823029F403E0A0D205E002A303C283301E
:107C400069F7B1D202E0A8D247C208F076C0882313
:107C5000C1F4992319F400E61AEE0CC0913019F41E
:107C600000E315E707C0923019F408E91AE302C0EF
:107C700008EC1FEA60D220E424838ED200E004A343
:107C800021C28130A9F4992311F400EF09C0913089
:107C900011F408E705C0923011F40CE301C004EBC5
:107CA0004AD2248302A323A305E004A325A3FAC197
:107CB000823021F5992329F420E43CE900E21EE416
:107CC0000FC0913029F420E137E200E41CE908C03C
:107CD000923019F420E335E702C020E137E2890150
:107CE00040E053E04283538347E0448322A333A31D
:107CF00004A315A305E010E006A33AC0833009F001
:107D00008DCF0E94F64BF801992319F448EE53E009
:107D10000BC0913011F448EA06C0923019F44DE4DA
:107D200051E002C042E450E065E070E0118521813D
:107D3000328100810E94FA4071CF092F095003302F
:107D400008F048C0993011F491E005C09A3011F460
:107D500092E001C093E0882331F40EE1401607D28F
:107D6000A8F104E033C0813031F405E005D20AD235
:107D700017A306E0B1C1823021F505E015D202D289
:107D800017A306E000A711A701E002A703A708E0D8
:107D900004A715A701E006A700E807A700E013E085
:107DA00000AB11AB09E002AB00E003AB04AB05ABE9
:107DB00006AB00E315E707AB10AF00E801AF0CE13D
:107DC0008BC1833009F089C1D2D102E00483E1D1B3
:107DD00094A381C109F053C0813059F400E00283BB
:107DE0000383048302A303A302E001A301E0058F40
:107DF00074C1882309F012CFE5E0FCE530E08E0184
:107E00004CE050E00E9404270E94A174802F0E9441
:107E1000B87408011901482F01E010E020E030E0BB
:107E20000E94732628013901409450946094709404
:107E300079D139F40E94C4740801190173D109F48D
:107E4000EECEA001B10100E00E94EA74802F0DEF98
:107E50001FEF088319830E94D8E19E0160D120E0C2
:107E600030E02A932A930395602F50E0482F01E0D9
:107E700010E00E9473264EEF0E940079CFCE9D3015
:107E800091F491D113A302E001A3882311F401E03E
:107E900008C0813011F40EEF04C0823009F01DC11A
:107EA0000FEF02A31AC19E3059F50E94F64B48010C
:107EB00066D1F401018012801185882339F440D104
:107EC00041E0900100810E941041A9CE813019F457
:107ED00037D143E0F6CF823028E93AE320D128EECB
:107EE00033E01DD125E030E01AD164E170E031F4D7
:107EF00041E0900100810E943D4191CE43E0F9CFE5
:107F0000092F0F50033070F5882311F08130C1F430
:107F10009F3011F401E005C0903111F400E801C078
:107F20000EEF28E030E022833383882311F410E041
:107F300001C014E0148302A305E003A334A3CBC063
:107F4000823009F0CEC09F3011F420E005C090319E
:107F500011F420E801C02FEF2BD1148322A305E0F8
:107F600010E0B7C0953009F046C08823C9F58E01EE
:107F70000E94F94B0881023009F050CE01E0088BD5
:107F800000E010E10E871F87098B0A8B0B8BFD0128
:107F9000038F0283138300E404830E94A774980173
:107FA0008D010E5D1F4FF90148E050E00E94F92657
:107FB0000E949874FD0102A713A701E004A70EE533
:107FC00010EC05A716A700E018E007A710AB02E029
:107FD00001AB00E101A39E018D010E944F4C1FCE19
:107FE000813021F401E00E94BC4818CE823009F0B3
:107FF00015CE00E0F8CF9731C9F4D1D011F401E0EB
:1080000078C0813011F401E474C0823051F402E48C
:10801000048312A304E603A314A305A316A305E097
:108020005BC0833009F059C002E063C0983161F44D
:10803000B6D011F4148351C0813009F0EFCD00E4C3
:10804000048312A313A336C0923141F09631D9F4C0
:1080500021E008E0A5D021F402E009C020E0F9CF3A
:10806000813011F401E00CC0823039F406E0048361
:1080700022A304E103A305E013C0833071F505E0FA
:10808000048322A315C0933111F0953151F590D09E
:10809000882351F405E05FD004E103A305E010E07C
:1080A00004A315A304E018C0813031F404E053D0D8
:1080B0000EE103A302E010C0823039F402E453D091
:1080C00003A314A305E061D007C0833031F401E4B9
:1080D0004AD003A314A303E001A38D010E94434CE3
:1080E0009ECD943109F09ACD882329F408E040D040
:1080F00003E00483F2CF813019F45AD007E4F9CFBA
:10810000823009F48BCD833009F088CD51D001E461
:10811000048300E002A303A304A311A3DECF3A93D8
:108120002A9308950420152026203720002D0129A8
:1081300002290329089520E033E022833383089540
:1081400028E93AE33A932A9328EE33E03A932A93C4
:108150006EE170E008950483933111F403E001C0EF
:1081600001E002A30895F7DF00E014E1089505E0BF
:1081700010E0028313830895FBDF148308958D01BB
:108180000C943E4C06D094A308E010E005A316A37F
:1081900008950E944545FD0102A313A3089506E03A
:1081A000E7DF8823089503E0E3DF00E40483089514
:1081B00000E013E0DECF08950E941E276597902E01
:1081C0002901812E742E652E48D061F00FD026E053
:1081D0003CD0FC0163A272A2A4A3B5A3382DA201D6
:1081E000292D44D06596EAE00C942F2734E040E036
:1081F00053E008950E941E276597902E3901812E25
:108200002A012BD061F0F2DF2AE01FD0FC0142A24C
:1082100053A2A4A3B5A3382DA301292D27D0E2CFC3
:108220000E941F2715D069F037E0E1DF2BE40DD065
:1082300008A119A11A930A9368A179A135D03AD05F
:1082400012D06596EDE00C943027082F0C94684509
:108250006597802E2901712E642EDB010E947245E4
:10826000C801012B0895372DA201282D8E010E94EF
:1082700053459E018C010C944F4C0E941F27E8DF50
:1082800059F039E0B4DF2CE4E0DF09D008D06AA16E
:108290007BA10AD012D0E7DF6596EFE0D4CF0AA128
:1082A0001BA11A930A930895AD01262D8C010E5D32
:1082B0001F4F089509D02296089506D02A813B8148
:1082C0002783308724960895F801208341835283C1
:1082D0006383748328813981258336830895BDD0D3
:1082E0002CEE35E008EB1BE00C94DD922DEA34E037
:1082F0000EC02FEB34E00BC02EEC34E008C02AEDAA
:1083000034E005C011E000E008952EEE34E0FADF1D
:108310000C94A5AB00D22D97A3EEB5E0FD018389A7
:108320009489E0E0F0E0FBBFF4E40C94A92697D038
:1083300093D069C094D023E335E05CC07AD004EFD9
:1083400011E066C046E653E460E002E012C07AD075
:1083500002E002C077D00AE00E94FB8D67C0B1D175
:108360000E94208E63C03DD139C024E435E0DED0C8
:1083700079D00E940C855AC043EA53E460E02FEFA5
:108380003FEF8C010E94228E51C053D000ED17E0C8
:108390003FC052D019968D010E94E19247C05DD036
:1083A00044EB53E460E020E0FD01038914890E945E
:1083B000A08E3CC04AEA53E460E08C010E94D68E55
:1083C00035C00091FD05B2D125E535E0AFD022964C
:1083D0002DC032D02BC024E435E00CC03DD026C0E7
:1083E000E1D024C00E94208E24D000E117E210C00A
:1083F00020E635E09BD01AC02FD02CD117C021E742
:1084000035E094D0EED052D111C013D008E813E17A
:108410000E94DD920BC0E7E8F9E530E037D30DD3D9
:1084200042D14FD103C000E000930B0C2D96E8E041
:1084300016C319969D01089543EA53E460E08C0148
:108440000C94328E05E094D04AE953E460E015E0E4
:10845000FD012389348908956CC00C94BB4802D077
:108460000C940C8546E653E460E04DCF002369F0A0
:108470000A95B9F00A9581F00A9549F10A95B1F08B
:108480000A9519F10A95D9F025C04AD119F50E942B
:1084900009750130F9F017C00091FB05002399F42C
:1084A00019C00091FC05002371F014C00E94B5743E
:1084B0002091EB05217011E0212702230CC00091CF
:1084C000FF05002339F000E006C007D004C000918A
:1084D000FE0501C001E0249608955B2F2A2F30D1BC
:1084E000008D002311F401E001C000E0A189B289F0
:1084F0001A2F1B2B31F01C963C91343010F411E0F4
:1085000001C010E00123A22FB52F089520E035E02F
:108510000DD011D2002329F0BAD209D121E135E0E2
:1085200001D0089512E003D02296089511E000E0F2
:10853000EFCE22E235E0FADF01E016E00D94AD72F5
:108540000E946A76002319F002E815E002C005E8EF
:1085500015E0EDD028E835E010E0E5CFE1D039F0C6
:108560000E94A174E3D02BE835E0DED02296089576
:108570008A93802FE5D00389148936D231F00E9486
:10858000979000E0DDD0038B048B482F50E000E390
:1085900010E00E940C260E948790D2D0038B148B8F
:1085A00089910895BAD0A6EFB5E0ED91FC9154976A
:1085B00007A110E1019F80010E948790FD01018BBE
:1085C000128BA389B48940EB53E460E06A935A9319
:1085D0004A9397964C91979798018D010E944B8EE4
:1085E00021C29BD0A3EEB5E0FD01018912898ED195
:1085F000FBD151F1FD0125893689F80120873187AA
:10860000FD0121893289F90148E06AD0F9014085EC
:10861000F8014287F90141855285F8014487558761
:10862000F90143855485F80146875787F901458547
:10863000F801408BF9012685F801218B20E0238782
:1086400005E010E40E94C953FD01018912890E94CE
:108650009790E8C162D02D97EAE7F9E530E016D2AD
:10866000012B19F48F010E94207E11D220E0098392
:108670001A832B832C832D832E832F83288760D00E
:108680000AEB13E420E02A9352D0A7E0BCE04D911E
:108690005C91A189B28918962C91058916890E944E
:1086A000AA4501D0BEC18E010C94EE4B01E00093AF
:1086B0000B0C2CEE35E008E51BE116CE24E935E085
:1086C00026CE24CF14E049C015E047C017E045C0CE
:1086D000B80103EE15E0FB0149E002D046E011C10C
:1086E00050E00C94F92617D01BD011F004D112C021
:1086F0000E949174D8010E94A174802F0E949874E6
:108700000CD090E09A938A9312D025EA35E010E0DD
:108710000BD02696A3C10C942427BA93AA9308954C
:108720000E94B5740023089502E0F2CD10E01A9380
:108730000A93089505D0028F118F11E007890EC0AA
:10874000E3EEF5E008950093FD0513E006C0009107
:10875000FA0508950093FD051FE0F9DF0C9462917E
:108760000093FD0518E0F9CFEBDF028F258B368BE8
:1087700012E0E4CF0093FF054CE0C3C063979E0175
:108780002C5F3F4FE5EBF5E089014FE0A9DF8E015B
:108790000C5F1F4F0E945A4F0E94D46B002301F1BF
:1087A00001E00093B51E9E010BE110E00E94C3ACF6
:1087B000088119812A813B81012B022B032B81F037
:1087C0000881E1EBFEE1008311832283338310E013
:1087D000188319831A831B839E010BE10E94E2AC6C
:1087E0000E9455606396089598DFA1EBBEE1009169
:1087F000B51E0023B9F00D911D912D913C91139759
:10880000012B022B032B51F09D010BE110E00E9484
:10881000E2AC00E00D930D930D930C9300E00093F8
:10882000B51E1BDE0E94F23CFDC00C94E34888DFBD
:10883000128D002399F00A95D1F00A9501F10A955D
:1088400009F10A9509F10A9509F1025009F10A9511
:1088500009F1065008F1035040F01EC040E07D963B
:108860009F0106ED15E00E94209001E0089511237C
:1088700021F01250D1F74AE0F2CF47E0F0CF108F4D
:1088800049E0EDCF48E0EBCF43E0E9CF44E0E7CF6C
:1088900045E0E5CF4BE0E3CF36CDAA938A9307E1DD
:1088A00014E420E00E94B3910093FA050093F205CE
:1088B00000E00093F3050AE316E00E9435660AE43F
:1088C00016E00E946B740EE416E00E94EA840E9497
:1088D0008CAB11D0F6DE55D006DF22DF49F080E008
:1088E000AFEF26D0F801A087A18783958730C8F322
:1088F0008991A991089524DE31CE00E096D002C07E
:1089000042E096D00C94209001E0F8CFBAD0A9D0E4
:1089100041F093959730D8F380E00AD0080117D042
:1089200011F4800104C083958730B8F32AD096C033
:10893000082F0C94A5478A9380E0FADF08D011F045
:1089400001E004C083958730C0F300E029CEF80130
:10895000008511850F3F1F4F089528D0839597E01C
:10896000873009F480E03FD029F025D019F08093BA
:108970000F0604C083959A9599F703D08991999130
:10898000089500E010E0089511D08A9597E08F3F98
:1089900009F486E028D029F00ED019F080930F0654
:1089A00004C08A959A9599F7ECDFE8CF9A938A9359
:1089B00080910F060895F801208531852F3F3F4FA4
:1089C00008950E94274C10D069F023E030E0F801B0
:1089D00022833383348324E022A333A322E021A320
:1089E0000E94434C0895A4DF202F212B089595DE8B
:1089F0002D97D801E4E9F9E530E04ED0FD0100857E
:108A000011851BD0028509874EDEDBDFFD01008565
:108A100011858DDE24EC35E085DD4DE009D00E9426
:108A200020902D96A991B99108950093FE0541E0FB
:108A300020E036E006ED15E0089509831A834B83A4
:108A40004C834D834E834F834887089586DF01C052
:108A50009BDF202F212B09F0CADF0895E4E00C945E
:108A60003527092F0E94A5470801F80100811181CF
:108A7000228133814481558166817781FD010C9487
:108A8000812749DED80190E0089501C005D0E7E0D4
:108A9000FCE00081118108958E014DE050E00C94BE
:108AA000042708950895F8012083418352834EE5F9
:108AB00050EC4387548720E0208B3587218B228B15
:108AC0002091CB34322F33953093CB34238B0895C0
:108AD000F80142835383248321E0238F20E0258300
:108AE00031A308956D970E94274C202F212B59F414
:108AF000E1E6F6E08E014DE150E00E94F9260E9489
:108B00005A4F00E010E06D9608950E942127659766
:108B1000402EC901512E642E0E947245D801012BAE
:108B2000A9F030E046E050E0252D0A2F0E9468456C
:108B3000362DAC01242D8E010E94534506E010E035
:108B40000E871F879E018D010E944F4C6596E7E0BE
:108B50000C9432270E9421272DD0A1F062D0403002
:108B60005040604079F40C8D1D8D2E8D0083118353
:108B7000228333E044E050E020E08C0115D000E097
:108B800004A321D06596EAE00C9432270E942127A5
:108B900011D039F032E044E050E023E0082F04D057
:108BA00012D06596E7E0F0CF0E946845FC01A2A3D1
:108BB000B3A3089565972801622EDA010E947245D9
:108BC000C801012B0895362DA20122E08E010E94DA
:108BD00053459E018C010C944F4CBA93AA9368970D
:108BE000DA01E3E8F7E08E0148E12CD01AD000E08A
:108BF00040305007600769F0FD012181328100811A
:108C0000FA016CBF199500E0E6EBFEE100830183F9
:108C100002838E010E945A4F00E06896A991B99193
:108C20000895E6EBFEE140815181628108956B97E2
:108C3000EBE9F7E08E014BE105D00E945A4F00E0CE
:108C40006B96089550E00C94F9260E941F276597B3
:108C5000802E2901712EDA01662E0E947245C8010C
:108C6000012BC9F033E048E050E020E0082F0E94DB
:108C70006845FC0172A2A3A3B4A3362DA201282D3E
:108C80008E010E94534508E010E00E871F879E0169
:108C90008C010E944F4C6596E9E00C9430270E94AD
:108CA0001E276597902E2901812E742EDB01652EDB
:108CB0000E947245C801012BA9F033E045E050E065
:108CC000272D082F0E946845FC01A2A3B3A364A22C
:108CD000382DA201292D8E010E9453459E018C0141
:108CE0000E944F4C6596EAE00C942F278DD0E0E16E
:108CF000F8E094C0A9D0ECE5F8E0ADC041D0EF9722
:108D0000609786D0E3ECF8E0890149E270D008D0A2
:108D100027D0085D1BD06FD08FD01CD0609689C043
:108D20002D5E3F4F890143E108952AD0EF972297A6
:108D300073D02D5E3F4FE2E1F9E089014EE250E051
:108D40000FD00B5E03D006D0229673C04DD00181A8
:108D5000128108951A93B7D0229600E0EF960895F5
:108D600094D08E019CD00C914A9392C009D0A897C0
:108D7000DA01E3E5F9E08E0148E29ED0AA969AC0B6
:108D8000BA93AA9308950E942427EF97AE9744D0F0
:108D9000245C3F4FEBE7F9E0890141E328D0275DF0
:108DA0007AD02D5E3F4F890146E1DADF025C1CD0AC
:108DB000028113816CD0055D17D0048110E01BD0B7
:108DC00080E090E007C0E80FF91F05819A937BD0FF
:108DD00022968395FD0104818017A8F300E0EF96A9
:108DE000AE96E4E00C94352708D0FD01089550E0DC
:108DF0004CD09E0108954BD00B5E68D0229608950A
:108E000003D0E8EEF9E00AC0BA93AA93EF972D9742
:108E100003D02A5D3F4F0895DA01EBCF890146E286
:108E2000E6DF7EDF9DDF085D91DFE5DF05D092DFC5
:108E30002D96A991B9910895FD01038110E008953F
:108E400003D0E4E3FAE007C0BA93AA93EF97A89798
:108E5000E3DF205CDFCF890147E2C9DF235D1BD060
:108E6000265E5FDF12D08E014AE129D011D00E5B61
:108E70006DDF0DD0015DC1DFDFDF09D0045EB4DF3F
:108E80000481158167DFA896D4CF0C94F9261A9334
:108E90000A938E0108953F4F890101D0AACF43E183
:108EA000F4CF6EDFA797DA01EBE9FAE08E0147E233
:108EB00003D0A99600E0BDCF50E001D004C0E5DFAB
:108EC0000C914A9308950A938E010E5F1F4F0C94E4
:108ED0005A4F0E9420276597C801522E442401E270
:108EE000602E0BE0702E0E947245D801012B49F1D3
:108EF00007E0F301258536852F3F3F4F09F0439466
:108F000017E1610E10E0711E0A9599F731E040E01B
:108F10005FEF20E08D010E946845352DAC0122E015
:108F20008E010E94534504E110E1098B1A8B00E089
:108F30001FEF0E871F87FD0142A29E018D010E9437
:108F40004F4C6596E8E00C943127073018F000E0AC
:108F500010E00895402F50E007E110E00E940C2639
:108F6000980101E21BE0020F131F0B5F1F4F0895D2
:108F70008A9328979E0100E010E00E94C3AC08810C
:108F800019812A813B814C815D816E817F81EAE478
:108F9000FCE00E94812729F0E2E5FCE00E948127A5
:108FA00040F08E010E9415AC9E0100E010E00E948E
:108FB000E2AC05E010E40E944354002321F005E0F8
:108FC00010E40E9496530E94C2AB0E94144F0E946C
:108FD000D9490BEE18E420E00E94BDA91AE006E092
:108FE0000E9417AA1EE104E00E9417AA0E9452459F
:108FF00009EB1EE121E02093C51E2EE530ECF801BF
:109000002587368720E038E02787308B2189227F2B
:10901000218B2260218B22E0228B21E637E0238BFB
:10902000348B29E0258B29E237E0268B378B2BE325
:1090300037E0208F318F2EE736E0228F338F20E00C
:109040000E946B4F25E33CE007E00E94D5910E940F
:1090500021920E94535046E031E021E014EC0AE0F6
:109060000E94C77500E018E820E132E00E94BE745B
:1090700000E010E72FEE35E00E94CA740E948F7660
:109080000E9419660E9487730E9442850E944D4487
:109090000E94D76B02E518E420E00E94B46C289689
:1090A00089910895BA93AA932D97EEE8FBE530E0F5
:1090B0008E014DE074D0A7E0BCE00D911C9111979A
:1090C00009831A834B834C834D834E834F83488798
:1090D0000E94467E0E94DD8D0E9460690E94BE7CD7
:1090E0000E94853C0E94D34B0E94AB490E94A94B31
:1090F0000E94DB400D911C91909620E009831A8319
:109100002B832C832D832E832F8328878E010E940F
:10911000EE4B0E94A85C2BE13CE00CE223D02BE15B
:109120003CE00FE21FD02EE03CE00DE21BD028E235
:109130003CE005E217D09D0108E314D001E0009364
:109140000C0C00E000930B0C0E94B574002331F46A
:109150000E94B066002311F40E9405692D96A99122
:10916000B99108950C94B25CDDD0013011F401E0A6
:10917000089500E0089508952C97202FEBE9FBE572
:1091800030E08E014CE00BD0222311F00FEF01C034
:1091900000E09E0111E00E94BE782C96089550E0F8
:1091A0000C940427BA93AA93A197D801E7ECFBE0AB
:1091B0008E0141E280D00C914A930A938E010E5F9A
:1091C00077D0A396CCCF00E00E94D45301E00E9458
:1091D00020750D9439770E9423276F97802FA12F38
:1091E000422EE8EEFBE08E014FE165D04A932A93D0
:1091F0004A938A934A93AA938E010A5F59D026967E
:1092000010910D0CAA3139F4823011F4126003C0B0
:10921000833009F41D7F10930D0CA630F9F482D031
:109220008230B1F40130D1F400910D0C037069F07B
:109230000A9549F00A9529F00A9581F40E94844420
:109240000DC0C1DF0BC058D009C00E947D4406C0CC
:10925000833021F4013011F40E94804400910D0C00
:10926000A93141F4823011F401600DC0833059F40A
:109270000E7F09C0AA3139F4823011F4026003C0B4
:10928000833009F40D7F00930D0C833069F44AD0CC
:10929000013051F40E949B44002331F020910D0CC9
:1092A000142D0A2F0E94F93D6F96E5E00C943427A7
:1092B0001F4F0C945A4F50E00C94F926F901028983
:1092C00001FF0BC00BE719E420E0E5EDFEE10183AF
:1092D000128323838F010F944C50089503E0F9010A
:1092E00000830895083331F400910B0CF9011081CB
:1092F000102B10830895089502E000930C0C05E9EB
:1093000019E420E00C94B3500DD0023051F42FB783
:10931000F894E9EEF5E10081118110611183008379
:109320002FBF089500910C0C089501E000930C0CE0
:109330000C94F23CF7DF002319F0025011F008956D
:1093400017CE0C94CE500E94405F0E94515FFDCF1B
:1093500008950895089501E00093850C02E00093BC
:109360008A0C03E000938F0C04E00093940C03E05C
:109370000093BF0C48E050E02AE53CE009E91CE01E
:1093800014D048E050E023E63CE005EA1CE00DD0B4
:109390004AE050E02CE63CE001EB1CE006D049E05E
:1093A00050E027E73CE004EC1CE00D94DA7B0C94E1
:1093B0005A4F07E212E10C94E64D85D10333104079
:1093C00010F022E301C0202F09ED1EE10E944F4F53
:1093D000A02FB0E080E090E007C0FC01E752F14E22
:1093E00000810E94EB4D01968A179B07B4F364C17C
:1093F000BA93AA93A8EAB3E1ED91FC912DD01A9308
:109400000A9305E112E1D3DF229624D0075F1F4FB4
:1094100000831183E091A813F12F1ED0012B11F0CE
:1094200015D005C000E0E8EAF3E10083018321C123
:1094300011D0012B51F40AE112E1B9DF07E212E188
:10944000E8EAF3E10083118301D008950AEA13E109
:109450000D94AD72E8EAF3E100811181089541C0F5
:109460000C947D44BA93AA932497D8019E018E014F
:109470000E5F1F4F0E94EE7E02D118964D915C91B7
:1094800019970A811B814017510768F008811981DB
:109490000417150740F000E00A930A930A9314D0CA
:1094A0000E94AA450FC00DEE12E181DF08811981EB
:1094B0001A930A930C811D811A930A9303E013E116
:1094C00076DF24962496D5C014962C9114970D918E
:1094D0001C910895D1D0F8DF0E946947CAC000E00E
:1094E00004D00D94397701E0FBCF0E94D45301E002
:1094F0000C942075E8D00E94A774D80180E090E019
:10950000FD01E80FF91F00819A930A9309E113E125
:109510004EDF22968395883098F30EE113E147DF02
:10952000CBC08E0148E167D042CFF8014FE95AE441
:1095300060E011E02BE03FE100810C94FB8D8A9309
:10954000E297802F212EE1E2F3E18E0142E34FD03A
:109550004A938A938E010C5F1F4F29DFE69689910B
:1095600008954AEE5AE460E00BE01FE10C94D68EB9
:109570004AEE5AE460E0F801208131810BE01FE1FE
:109580000C94228EEBE3FFE147815085618500E07A
:1095900040305040604069F40383048305830683B0
:1095A0000AED1AE420E00783108721878F010E94CB
:1095B00050D00895EBEEF5E10081067C008308951C
:1095C0006897E3E5F3E1ADDF689608956897EBE609
:1095D000F3E1F9CF2F97202EE3E8F3E18E014FE07E
:1095E00006D08E010E5F1F4FE2DE6196089503D014
:1095F0004A932A92089550E00C94F9262D97F80189
:10960000008108830481158120E009831A832B835C
:109610002C832D832E832F8328870085098704853B
:1096200015850A871B870089002319F001E00C8744
:1096300001C02C878E010E94EE4B2D96089542E0CA
:1096400050E0F8012081318102E913E138D011F4B2
:1096500001E0089502E008950FD045D054966D9131
:109660007C9115975C9114974C91149733D00E947C
:10967000DC40A991B9910895BA93AA93D8010C94AA
:10968000BB482DD06C9160D01C9118972D913C91C6
:109690000E942546EECF17D0D80180E043E045D0A8
:1096A00005E913E10CD009F481E044D04085182F7E
:1096B000248135810E948545E4E00C9435270F9480
:1096C000C37B012B08950C94242709D003D00E945A
:1096D000AA4BCFCF1C9114972D913C910895CCDFCC
:1096E00002D0189608958D01AACFEDDFD80185E04C
:1096F00045E01BD009E913E1E2DF11F484E00AC080
:1097000045E050E0FD012485358500EA13E1D7DF0F
:1097100009F482E00FD0548960897189482F10853F
:10972000248135810E944F46C7CF50E0F80124853F
:1097300035850895A4DFD7DFFD0108959DDF04D0AE
:10974000C4DE0E94C64595CF18964D915C91159741
:10975000089508950E9422276597402EC901512E31
:109760000E947245D801012BD1F032E043E050E075
:1097700020E00A2F0E94684505E010E0FD0102A3E9
:1097800013A3352DAC01242D8E010E94534503E017
:1097900010E00E871F879E018D010E944F4C659639
:1097A000E6E00C9433278A9300E04ED005870687C5
:1097B0000787008B80E0482F50E00FE310E00E9405
:1097C0000C2626E43FE1200F311F36D183958430EB
:1097D00090F301E000937B2089910895B8010FE692
:1097E00010E2FB014DE050E00C94F9260FE610E288
:1097F0000895180100916F20E22DF12F00830130B0
:1098000011F0023039F420D001811281F10101837D
:10981000128309C0033039F4022D0D5F1F4FE0E7BA
:10982000F0E248E0E0DF00917820F10105870CD0FC
:1098300002851385F101018B128B0EE510EC038775
:10984000148700E0008B0895EFE6F0E20895BA93E4
:10985000AA930CE710E2E5D0D801012B59F04FE3B1
:1098600050E020E030E00A2F0F94157C01E05B9679
:109870000C935B978D01A991B991089598010CE71C
:1098800010E20C94735D9A938A93C8010A5F1F4F8C
:10989000B0DF9C010ED010D08991999108951801E4
:1098A000B8016A5F7F4F8B01F901C9D0910101D0E6
:1098B00003C00EE710E2E5CFBA93AA93009180208F
:1098C000002309F04EC0C0DF27853089A2E4B0E252
:1098D000F9010481009366201581112311F0012FF5
:1098E00001C001E00093652000917B200093682077
:1098F000369600E510E2A3D0F90102811381FD0143
:10990000048F158F89010E5D1F4F07A310A7F90162
:1099100001A10093672040ED57E060E0FD0141A701
:1099200052A763A764A742EB5CE460E043875487D7
:109930006587F901058D002321F08D010E94E7A0C4
:109940000DC0048D002339F40091CB3400936320C3
:1099500003950093CB348D010E94F4A001E00093A5
:10996000802089CF0E942427A597D80158D0C8010C
:1099700062D067D0FD010181002361F40C910023C6
:10998000E9F19E012A5F3F4FECECF3E189014EE1E2
:109990002ADF31C0013091F59D0124503040BE01D5
:1099A0006A5F7F4FEAEEF3E18B014FE11CDFF901C3
:1099B00004A1023011F00330F1F400850130D9F038
:1099C00004E00883FD0104810983058116810A836F
:1099D0001B834C834D830981002381F08E010E94FB
:1099E000E294EC81FD81008110E01A931CD000E02C
:1099F0000C830D83F0CF0C914A9315D0FC01468D5A
:109A0000578D60A100E040305007600721F08D01C4
:109A1000FA016CBF1995A596E4E00C9435270EE782
:109A200010E20C94985D0A938E01085F1F4F0E940C
:109A30005A4F2296089598010CE710E222CF45E193
:109A4000D2CE00E000938020EFE6F0E20785108997
:109A5000012B09F031DF08950E94202728013901E8
:109A600041E050E060E070E0A8D0ACD009F101C066
:109A70003196A9D0E9F7319714C025D0212F220FB4
:109A8000220B322F0E944F26800F911FA21FB31F5F
:109A900031970AE010E020E030E00E944F26A80154
:109AA000B901E415F50530F00ED00A30104028F366
:109AB00000E006C0F30180839183A283B38301E0B9
:109AC000E8E00C943127008110E000531040089525
:109AD000BA93AA932497D901F80120812D3299F4E1
:109AE0009E010F5F1F4FB8DF0023D9F01FD01095E4
:109AF0002095309501951F4F2F4F3F4F0D931D938C
:109B00002D933C930CC0222361F09E01A5DF00231E
:109B100041F00CD0FD01008311832283338301E0E7
:109B200001C000E02496A991B99108950881198196
:109B30002A813B8108950E942427B8013ED0002449
:109B4000112440D061F101C031963DD0E9F7319741
:109B50000CC0075510E0482F0E941626000E111E5B
:109B600031978C5F9F4FAF4FBF4FE617F707C8F095
:109B7000803200E09007A007B00798F40081102F12
:109B80001156163030F3102F1154163010F40753BD
:109B9000E1CF102F10531A3010F40053DBCF00E048
:109BA00009C0212C220C2208F90100821182228294
:109BB000238201E0E4E00C94352780E090E0A0E00F
:109BC000B0E00895F801008100230895E1E8F0E293
:109BD0000083118308950E942227802FABE1B4E116
:109BE0004D905C9011970A3031F110E00F94957B05
:109BF000012B91F003E810E2401A510A00E44016EC
:109C000000E050062CF5AED080830D911C910F5FC3
:109C10001F4F1C930E931CC0883051F41CD0C0F40D
:109C200000E0FD01A081B1810E93A083B18310C03B
:109C30008B3171F409C00FD038F400E0ED91F52DAF
:109C40001197008303E80CD003E810E20D931C93F6
:109C5000E6E00C94332703E810E204151505089597
:109C6000BA93AA93A2979E0181D00023A1F12881E3
:109C700039818E010E5F1F4F2017310761F1E1E836
:109C8000F0E2A081B18101C019960D911C9111974C
:109C9000012BE9F02D91312F11970A811B810F942F
:109CA0000C7D012B89F79E018D0117D0002321F433
:109CB00017960D911C910DC08E010A5F1F4F1496CF
:109CC0004D915D916C91FA016CBF199504C009E04A
:109CD00014E10E94D749A29626CF0E94222729018B
:109CE000F80182819381D901169609C09D010D91D9
:109CF0001F2F1197EDDE002389F101961496FC01C8
:109D000062DFF2010081118131F1A017B10730F556
:109D1000FC010081035629F00A9551F0055041F0ED
:109D2000ECCF20D001810023C9F400810C93E5CF52
:109D300019D000810033D1F60181083711F00835C0
:109D4000A9F69D010D9111970E5FFF4F1F2FF3DEB6
:109D5000002399F603C0A017B10711F000E001C07D
:109D600001E076CFED91FC91119708950D01D80196
:109D700000E0A9014E5F5F4FF9014083518305C0A8
:109D80000C910032F9F500E01196FD0110811123CC
:109D9000B9F1102F002339F01A9519F11A9549F1EC
