:020000020000FC
:100000000C9491250D9427550D942A550D942C553B
:100010000D9431550D9436550D9444550D94495514
:100020000D9469550D9473550D9475551895189543
:10003000189518950D943652189518950D94605290
:100040001895189518951895189518951895189548
:100050001895189518951895189518951895189538
:100060000D94A4570D947A540D946C540D947054BF
:10007000189518950D9443570D94F65518951895A5
:100080001895189518951895189518951895189508
:100090000D94B8540D948A540D94AB540D9491550D
:1000A00018951895189518950D94FC530D94BF58F4
:1000B00018951895189518951895189518951895D8
:1000C00018951895189518951895189518951895C8
:1000D00018951895189518951895189518951895B8
:1000E00018951895189518951895189518951895A8
:1000F0000D94ED5818951895189518950D94F1587C
:100100001895189518951895189518951895189587
:100110001895189518951895189518950D942059B7
:100120000C94D160189518951895189518951895F0
:05013000189518951858
:104400000001BA5D00665D00016D5D0001725D0036
:1044100001785D00037D5D0001835D0009895D0019
:10442000018F5D0001975D00019D5D0001A45D00AD
:1044300001AA5D0001B55D00FB000000126B0012D7
:1044400000B56A00B76A00C06A00CB6A00CD6A0096
:10445000CF6A00F66A00D16A00D36A00E36A00ED11
:104460006A00EF6A00F16A00F36A00F56A00F96A0F
:1044700000FF6A000E6B0000000007740024004C6F
:104480007300577300627300647300DF7300677317
:10449000006673006F73007173007373007C7300A8
:1044A0008D73008F73009C73009E7300A27300A035
:1044B0007300A47300B37300CB7300BE7300C073AA
:1044C00000C27300C97300CD7300CF7300DC7300AA
:1044D000DB7300DE7300E27300E47300E67300F048
:1044E0007300FD7300037400AF7300000000ED75EE
:1044F000001000A57500A87500AB7500AE7500B37F
:104500007500B67500C17500C37500C87500D57516
:1045100000DA7500DC7500DF7500E17500E37500F9
:10452000EA7500000000CE7C001700C77C00937C79
:10453000009E7C00CE7C00CB7C00CE7C00A27C0068
:10454000CD7C00CB7C00B37C009E7C00CE7C00CB7D
:104550007C00CB7C008E7C00CE7C00CE7C00C77CB7
:1045600000C97C00C77C00C97C00CB7C00CD7C00EE
:104570000000FF80001700888000AB8000B880003A
:10458000B88000AB8000B88000DB8000AB8000D733
:104590008000AB8000D38000FC8000CC8000AB802A
:1045A00000888000FF8000FF8000DF8000AB80007B
:1045B000E68000AB8000ED8000AB80000801A7889A
:1045C000006388000166880001698800016C88002A
:1045D000016F8800017288000175880001788800E9
:1045E000016388000863880001668800016988000B
:1045F000016C8800016F88000172880001758800D5
:1046000001788800016288000165880001688800DF
:10461000016B8800016E88000171880001748800B8
:1046200001778800016288000165880001688800C0
:10463000016B8800016E8800017188000174880098
:10464000017788000163880001668800107D88007A
:10465000017D880006878800049B88000487880005
:1046600001878800916B88000666880001668800D3
:1046700007788800017A8800FB0000001098000F7E
:1046800000F89700F89700FA9700FA9700FC970057
:10469000FC9700FE9700009800029800049800061E
:1046A00098000898000A98000C98000E98004001A5
:1046B0006FA500ACA5000102A50001AEA50001AEEA
:1046C000A50001AEA5000106A500010AA50001AEE6
:1046D000A50001AEA5000111A5000115A500011955
:1046E000A500011DA50001AEA5000121A50001281E
:1046F000A5000132A50001AEA5000136A500013AD2
:10470000A50001AEA500013EA5000151A500016074
:10471000A50001AEA5000155A500015CA50001ACF6
:10472000A50001ACA50001ACA500124BA50002AE8E
:10473000A50001AEA50001AEA50001AEA50001AE29
:10474000A50001AEA50001AEA50001AEA50001AE19
:10475000A50001AEA50001AEA50001AEA50001AE09
:10476000A50001AEA500026BA50001ACA5000247A3
:10477000A5000164A500FB00400121A60008A600D9
:1047800001C6A5000119A6000119A6000119A6007D
:1047900001C9A50001CDA5000219A60001D0A50000
:1047A00001D3A50001D6A50001DAA5000119A600D4
:1047B00001DDA50001E0A50001E3A5000119A600A7
:1047C00001E7A50001EAA50002EEA50001FCA50095
:1047D0000112A6000119A60001FFA5000102A60012
:1047E000011AA6000105A6000105A60012F6A50003
:1047F0000219A6000119A6000119A6000119A600B8
:104800000119A6000119A6000119A6000119A600A8
:104810000119A6000119A6000119A6000119A60098
:104820000119A6000119A600021CA600011FA6007E
:1048300002F2A5000116A600FB00010105B50079F2
:10484000B40001DCB40001E9B400015AB40003E58E
:10485000B40001E9B40001EBB40001FDB40001F3C0
:10486000B40003FDB4000173B40001FFB400FB0009
:10487000010083B7000E005FB70062B70065B700A4
:1048800065B70068B70074B7006EB70071B70083F2
:10489000B7006BB70077B7007AB7007DB70080B775
:1048A00000000100D0B700100092B700D7B700D7C2
:1048B000B700D7B70099B700B6B700A7B700AEB733
:1048C00000D0B700A0B700BDB700BDB700C5B700A6
:1048D000D7B700DEB700E1B7000024010ED00024F6
:1048E000D000012BD000013DD0000314D0000120E6
:1048F000D0000453D000015DD000016AD000016EE9
:10490000D0000212D0000131D00001F8CF00FB002E
:10491000000001DC2A01CF2A0101D12A0101D72A96
:104920000101D72A0101D32A0101D72A0101DA2A7C
:10493000010AD72A0101D72A0102CD2A0101D52A6D
:104940000101D72A01FB000001502B011B2B0101A3
:104950001E2B0101272B01012A2B01012D2B010107
:104960004A2B01014D2B010A302B0101442B01037D
:10497000472B0101212B01FB0100874B010C00CFCC
:104980004A01084B01DB4A01F84A01634B01084B1D
:1049900001434B01674B011A4B01434B01654B012E
:1049A0007A4B010001004B007D1A07410000020014
:1049B00022018930000000010300810066410000EF
:1049C000000204000300852D0000000005002C00FB
:1049D000283B00000002060002008A2D00000000B3
:1049E0000700DC0011400000000108001E000A3B27
:1049F00000000001090001006B2D000000001458A8
:054A0000000900014067
:104A0600FF93EF933BB72BBFF80106913BBFEF91A6
:104A1600FF9108957F937FB7F8949D9AA5980AEF22
:104A26000E946C250AEF0E946C259D9806E40E9460
:104A36006C2501E0959900E00F9300EF0E946C252C
:104A46000F917FBF7F9108957F937FB7F8949D9ACA
:104A5600A59806E00E946C259D980AE00E946C25A8
:104A6600889495990894001F0F9304E60E946C257C
:104A76000F917FBF7F9108959F937F9398E00E9447
:104A86002725079577959A959923C9F7072F7F913B
:104A96009F9108957F937FB7F894A5989D9A0F9359
:104AA60006E00E946C250F91079508F49D980F93D8
:104AB60004E60E946C250F919D987FBF7F91089513
:104AC6009F9398E00E944D259A959923D9F79F9137
:104AD600089500000000000000000A950023C9F7B1
:104AE60008955F937F937FB7F894CF93DF93C0E0E9
:104AF600D0E07F935091B2007091B2007517E1F348
:104B0600739521965091B2005717D9F77F918E0170
:104B1600DF91CF917FBF7F915F9108950F94D06110
:104B26000DECABEFCBEFB3E5D7E50D93AC17BD07B7
:104B3600E1F7ABEFCBEFB7E5DEE50D93AC17BD07BD
:104B4600E1F70AEF0DBF07E50EBFCBEFDEE50F94E9
:104B56002262002311F00F941D630E940A390F94FC
:104B6600E9610C94B6250D9443674A9512F0000F3F
:104B7600E1F708954A9512F00695E1F708950024A5
:104B8600E8E0EA9532F0001F001C0416D0F3041A80
:104B9600F8CF001F402D00950895149F102D059FF6
:104BA600100D049F002D110D0895000F111F4A9539
:104BB600E2F70895169507954A95E2F70895159533
:104BC60007954A95E2F7089500241124EFE0001FA7
:104BD600111F001C111C0416150610F0041A150AE4
:104BE600EA95AAF7001F111FA001009510950895D8
:104BF6005195419550400895FF27552312F4F160D1
:104C0600F7DF112312F4F09507D00E94E725F0FD97
:104C160003D0F1FDEDCF089511950195104008954B
:104C26002224349F302D259F300D169F300D079F6F
:104C3600300D249F202D310D159F200D311D069F0F
:104C4600200D311D149F102D210D321D059F100DB5
:104C5600211D321D049F002D110D221D321D0895A8
:104C6600000F111F221F331F4A95D2F7089536955C
:104C76002795179507954A95D2F70895002411248C
:104C86001001E0E2EA9592F0001F111F221F331F68
:104C9600001C111C221C331C04161506260637069A
:104CA60088F3041A150A260A370AECCF001F111FCB
:104CB600221F331FA001B101009510952095309554
:104CC600089557914791179011FA279037900790BA
:104CD6000CBE0895F7DF041B10E003C0F2DF041BCF
:104CE600150B20E030E000C028F110FC25C04791EC
:104CF6000790E00FF11F0417100540E02407340762
:104D0600C8F486F412FE05C0E00FF11F0791069065
:104D160002C006910024F101E01BF0090CB7004027
:104D26000CBF1994E00FF11FE00FF11F2790379089
:104D360007900CBEF101199411F4C6F7E3CF319632
:104D460012FC31960EF0329650E060E070E047912A
:104D56004B3F48F079F34F3F29F04E3F11F07791E2
:104D6600679157914791041B150B260B370B29F3B7
:104D760008F3E5CFAF93BF93D80101900D92415050
:104D86005040D9F7BF91AF910895AF93BF93D80123
:104D96003BBF07900D9241505040D9F7BF91AF915C
:104DA6000895E00FF11F02900A9201501040D9F7C2
:104DB6000895FA92EA92DA92CA92BA92AA929A92CC
:104DC6008A927A926A925A924A92BA93AA939A933A
:104DD6008A930895FF84EE84DD84CC84BB84AA8400
:104DE600998488847F806E805D804C80BB81AA8197
:104DF60099818881F0E0EC0FFD1FEF010895808115
:104E0600080F8181181F8281281F8381381F8481A2
:104E1600481F8581581F8681681F8781781F0895DE
:104E26008081082B8181182B8281282B8381382B46
:104E36008481482B8581582B8681682B8781782B26
:104E460008958081081B8181180B8281280B83813C
:104E5600380B8481480B8581580B8681680B8781C6
:104E6600780B08951095209530954095509560954E
:104E7600709501951F4F2F4F3F4F4F4F5F4F6F4F0D
:104E86007F4F08958081081781811807828128073E
:104E9600838138078481480785815807868168079A
:104EA60087817807089500000000000000000000D8
:104EB60000000000000000000000000000000000EC
:104EC60000000000000000000000000000000000DC
:104ED60000000000000000000000000000000000CC
:104EE60000000000000000000000000000000000BC
:104EF60000000000000000000000000000000000AC
:104F0600000000000000000000000000000000009B
:104F16000000000102010002020505080000FFFF73
:104F26003412000000000000000002040005010029
:104F3600000000010000000000000000000000006A
:104F4600000000050000000201AAAAAAAAAAAAAAAD
:104F5600AAFFFF00070707077F7A785A5F07070748
:104F66000707787F1F03001E000000F40000010001
:104F760001341200030400000200000000000303D5
:104F860080EE360010270000010001F40100000148
:104F9600E80300001041746D656C2020202020205D
:104FA6002020202020000000000000000000010159
:104FB6002C016C000100000A05000A06020508041F
:104FC6000A000A08FF140000000A08FFFF04030A8B
:104FD600901A00000A000000053D000003031410AB
:104FE60002204E0000010300014F500003E72C0091
:104FF6000800F12C000100BF2D000400C32D0001A4
:1050060000C52D000400732D000100742D00010061
:105016007B2D000800772D000200FF2C00020008FF
:105026002D0001006F2D0001008C2D000100752D53
:10503600000100CC2D000100CD2D000100CE2D0079
:105046000100CF2D000100CA2D000200D02D000165
:1050560000D12D000100712D000100702D0001000E
:105066009C2D0001009D2D000100FE2D000800E48E
:105076002D000400D92D000400DD2D000400E12DD3
:10508600000100E22D000100E32D000100ED2D00DE
:1050960011006C2D000100E82D000100E92D00042F
:1050A60000A12D0001009E2D000200062E00010029
:1050B600C92D00010000000000000000000000BE35
:1050C6002D000100000000000000000000000000AC
:1050D6000000000000000000E74A001000072E0054
:1050E6000100862D000100872D000100082E000119
:1050F60000A22D000800AA2D000200D22D000500F6
:10510600D72D000100D82D0001000000000000008E
:105116000000000000000000000000000000000089
:1051260000000000000000000000000000F32C005A
:105136000100000000000000000000000000000068
:105146000000000000000000000000000000000059
:105156000000000000000000000000000000000049
:10516600000000000000000000C42D000100F92C22
:10517600000100F22C000100B64F000200BA4F00F9
:105186000100BD4F000100BB4F000200C04F0001EF
:1051960000C14F000100C24F000100C34F000100D3
:1051A600C44F000100C54F000100C64F000200BEFB
:1051B6004F000200C84F000100C94F000100E44F34
:1051C600000200D34F000100D44F000100D54F006C
:1051D6000100E04F000400CA4F000100CB4F00045D
:1051E60000CF4F000100D04F000100DA4F00010050
:1051F600DB4F000100DC4F000200DE4F000100DF44
:105206004F00010000000000000000000000000048
:105216000000000000000000E64F000100E74F001C
:105226000400EB4F0001000000000000EC4F0002FC
:1052360000EE4F000100D14F000100D24F000100E7
:10524600EF4F000100F04F000100F14F000100F2A6
:105256004F0001000000000000D64F000400B84FC8
:10526600000200092E0000008930000000A12F0076
:105276000000AB310000007D30000000000000009F
:1052860000F131000000353F000000E93F0000005A
:105296009939000000933A000000DF39000000CA87
:1052A6003A000000443C000000603E0000000000A0
:1052B60000000000000000000A3B00000011400052
:1052C60000006A42000000EF4400000000000000F9
:1052D60000000000000000000000000000000000C8
:1052E600852D000000283B000000543B000000ED27
:1052F6004000000000000000006641000000E74199
:10530600000000F941000000394600000061460037
:105316000000352F000000FCAF60110701200000DF
:10532600000000FDE70050E60068F40004D300002A
:105336000000C2CB00FCD000BCD60000000000007C
:105346000010000000000003020102030302020134
:105356000101010101010101020201010102010233
:105366000202020202010202020202020103030217
:105376000203000100010000FE4CC100F7F5000227
:10538600D800A7CE00A5D500000000C4C3001FC8E2
:1053960000FAD20078C4001BF400FFBB0071E200E3
:1053A60042E40013E60003E200C2D800000000BE9B
:1053B600FB0079E2008CF500CEBA009CF60084E38F
:1053C60000DBE400A2F3006CE10074C10098C400A5
:1053D60030CF007BCB00C5D300E2C3000EC100383E
:1053E600D80000000000000088DC00DCDD000000C2
:1053F60000C9DF000249D60004D6000107B4F40054
:1054060034F5000101B4F40034F5000101E8D100DF
:10541600D7D00001013DCC0028CD0001013DCC00D4
:1054260093CC0001075DD40090D400010153D50050
:105436002CD500010100000000000001070000005B
:105446000000000101000000000000010300000050
:1054560081E500010400000081E50001050000006F
:105466000000000106000000000000010D00000021
:105476000000000101B4F40000000000010000007B
:10548600000000010E0000000000000107000000FF
:10549600000000010A0000000000000100000000FA
:1054A60000000001010000000000000101000000F2
:1054B6000000000000000000E0C00000090000003D
:1054C600E0C000000C000000E0C00000000000008A
:1054D600E0C000008000000001FF000106FF01049B
:1054E60007FF01070207210D02FF010B11FF011A39
:1054F6008100000003FF077F0000050200FF027F16
:105506000401087F05FF06038200000003FF09006F
:105516008300000003FF0A008400000003FF0B0560
:105526008500000000FF03068600000003FF0C0054
:105536009A00000003FF1F1B9B00000000FF031CD6
:105546009C00000003FF20008700000003FF1A08EC
:1055560088000000100C0409100D1C0A10FF1B7FA8
:1055660000FF03098A00000003FF1D0089000000F8
:1055760003FF1E008B00000003060E100309181718
:1055860003FF0D0F8D00000012FF0F0E8E000000AE
:105596000AFF010B0BFF120000FF1200970000002C
:1055A60000FF03188F0000000802FF7F080304169F
:1055B60008FF041500FF0316900000000904FF7F92
:1055C6000905041609FF140C00FF031698000000D5
:1055D600030A191903FF2213990000000C0F170084
:1055E6000CFF16148C00000003FF2211910000002E
:1055F60000FF1012920000000A0F17000AFF16148F
:105606000BFF120093000000000F170000FF161496
:10561600940000000D0E11000DFF237F0008157F7A
:1056260000FF13009500000003FF22139600000000
:1056360003FF1200800000000100027F01FF00014D
:105646008100000002FF02028200000001000C033C
:1056560001FF00010301107F0EFF037F00FF007FA3
:1056660002FF017F0402047F0502057F07050F097B
:1056760007FF0E0A08FF060A0AFF0C0606FF0D7F43
:10568600890000000DFF0E0A8A00000000FF0B04CF
:105696008400000002FF07058500000009FF0800DE
:1056A6008600000002FF0907870000000BFF0A00C2
:1056B6008300000002FF02000E01000E02000E042D
:1056C600000E05000E06000E07000E08000E09006B
:1056D6000501000502000504000505000506000594
:1056E600070005080005090004010004020004047F
:1056F600000406000405000407000408000409006D
:10570600060100020200030200090300150300203F
:105716000300140400140500140600100700110805
:10572600001208001F060026090024010000005A86
:105736006967426565416C6C69616E63653039FF06
:10574600FF00AF00000000000000000000000000A5
:105756000000000000BE25019E2601831A016B1B76
:10576600017B210100000000000000000000000095
:105776008423014000000001007E1F01DC0F01C7E9
:105786001B01FBFF0045FD00000000000000352561
:1057960001C85A01C85A01C85A01C85A012B5B01EF
:1057A600F959015D5901135201DB56018456019DD9
:1057B6006001FB5201266001EC5E01B95E01C95A27
:1057C600010100000000000380000000000003AC9F
:1057D6003B01F140016D3801AC3D01722701972F65
:1057E6000102030202010101010102020102020299
:1057F600010203020102030202B35001CA5001BDB5
:105806004F013A5101B54B019B4C01094E01010074
:105816000200030004000500060007000800090056
:105826002C5D012E5D01305D01325D01335D013578
:105836005D01FFFF000101000000020100010003FD
:105846000700F88300000700FE8300FDFF0000004C
:105856000000000FFF0000E889006C7C00127B004E
:10586600124601704501EB460108000000000001E8
:105876000000000100149400EE930000040810FFDD
:10588600FF00A7130002965800533EA7150000001C
:1058960000000000000114000000400000000000AD
:1058A600110000000D0A4C696768747320646973FF
:1058B600636F7665727920697320636F6D706C65AE
:1058C60074650D0A000D0A4C696768747320646973
:1058D60073636F76657279206661696C65640D0A1B
:1058E600000D0A4C6967687420646973636F766596
:1058F6007265643A20307825782030782530327801
:10590600000D0A4E6F7420656E6F75676820636FB1
:105916006D6D616E6420627566666572730D0A0050
:1059260000100100000005620300000000000000F6
:105936000000000300010000000400020000000057
:10594600000000000000060001000000069E0C009A
:105956000000000000000000000800010000000830
:10596600AD0300000000000000000000040001007C
:1059760000000A7B03000000000000000000000594
:10598600000100000013AE0400000000000000004B
:105996000000000301000000130D050000000000D8
:1059A60000000000000010030006000800040005C7
:1059B600000003000000096204000000000000006F
:1059C6000000000000000010000000000562030057
:1059D60000000000000000000000FF0000000001C1
:1059E600F3030000000000000000000000000010AB
:1059F60000FF4114E936004214EA36004011EB3646
:105A0600004111ED36004211EE3600001400000090
:105A1600011400000002140000000314000000043A
:105A260010000000051000000000112537000111CC
:105A360000000002110000000311273700001000CB
:105A4600000001100000000210000000031000001A
:105A56000004100000000510000000061000000001
:105A660007100000000D0A4C696768743A20256427
:105A760020256420307825782025640020256400C0
:105A86000D0A0000106E37002938004453007E7658
:105A960000CF5F00026E00EB61000000000F3900CE
:105AA600000000000000000000000000FF000000F1
:105AB6000000001027000001183900000000000057
:105AC600000000FAFFFFFFFFFFFFFF072041746D94
:105AD600656C200007204272696467650009203200
:105AE6003031313132323300082050686F656E69CB
:105AF60078000000200200010020020002002002BF
:105B06000003002002000400420200000000000022
:105B16000000050042020000000000000000060030
:105B260042020000000000000000000007003002F2
:105B360000004042020000000000000000000000DB
:105B4600000000000000000000000000000000004F
:105B5600000000000000000000000000000000003F
:105B6600000000000000000000000000000000002F
:105B760000116F39000111703900021171390003EB
:105B8600117239000411733900061175390040117C
:105B9600763900411177390042117839000010003A
:105BA60000000110000000021000000003100000B9
:105BB60000041000000005100000000610000000A0
:105BC6000710000000081000000009100000000A7D
:105BD60010000000401000000041100000004210BC
:105BE60000000043100000004410000000471000B1
:105BF60000004B100000004C1000000068656C703F
:105C060000002D3E53686F772068656C7020796FB1
:105C1600752772652072656164696E67206E6F779D
:105C26003A2068656C700D0A007265736574002D04
:105C36003E5265736574206465766963650D0A0076
:105C460073746172744E6574776F726B002D3E5378
:105C560074617274206173736F63696174696F6EC6
:105C66003A2073746172744E6574776F726B0D0AA5
:105C7600007374617274446973636F766572790038
:105C86002D3E5374617274206C6967687473206466
:105C96006973636F766572793A20737461727444BE
:105CA6006973636F766572790D0A00736574427263
:105CB600696768746E657373007364646464005323
:105CC600657473206272696768746E6573733A20CF
:105CD6007365744272696768746E657373205B617D
:105CE6006464724D6F64655D5B616464725D5B657F
:105CF600705D5B6C6576656C5D5B74696D655D0D8D
:105D06000A006F6E4F666600736464730053656EB7
:105D16006473204F6E2F4F666620636F6D6D616EE4
:105D2600643A206F6E4F6666205B616464724D6FE5
:105D360064655D5B616464725D5B65705D5B6F6E1F
:105D46004F66663A202D6F6E20666F72204F6E2C5E
:105D5600202D6F666620666F72204F66665D0D0A9F
:105D66000061646447726F75700073646464005305
:105D7600656E6473204164642047726F757020639A
:105D86006F6D6D616E643A2061646447726F757001
:105D9600205B616464724D6F64655D5B616464720F
:105DA6005D5B65705D5B67726F75705D0D0A007295
:105DB600656D6F766547726F75700053656E6473B7
:105DC600204164642047726F757020636F6D6D614A
:105DD6006E643A2072656D6F766547726F757020D6
:105DE6005B616464724D6F64655D205B61646472BF
:105DF6005D5B65705D5B67726F75705D0D0A007344
:105E06006574436F6C6F72007364646464640053FA
:105E160065747320636F6C6F723A20736574436F99
:105E26006C6F72205B616464724D6F64655D5B616B
:105E36006464725D5B65705D5B6875655D5B73610F
:105E4600745D5B74696D655D0D0A006964656E74E9
:105E5600696679007364640053656E6473206964CF
:105E6600656E7469667920726571756573743A201A
:105E76006964656E74696679205B616464724D6FEE
:105E860064655D5B616464725D5B65705D0D0A00EF
:105E96007363656E65007364647364640053656E52
:105EA60064732073746F72652F726563616C6C2FF7
:105EB60072656D6F7665207363656E653A207363F0
:105EC600656E65205B616464724D6F64655D5B61E0
:105ED6006464725D5B65705D5B636D645D5B677278
:105EE6006F75705D5B7363656E655D0D0A00737437
:105EF600657053617475726174696F6E0053656E77
:105F0600647320737465702073617475726174694B
:105F16006F6E20636F6D6D616E643A207374657089
:105F260053617475726174696F6E205B616464722B
:105F36004D6F64655D5B616464725D5B65705D5B3E
:105F46006D6F64655D5B73697A655D5B74696D65CC
:105F56005D0D0A00737465704272696768746E65D8
:105F660073730053656E6473207374657020627278
:105F7600696768746E65737320636F6D6D616E64B7
:105F86003A20737465704272696768746E657373DC
:105F9600205B616464724D6F64655D5B616464720D
:105FA6005D5B65705D5B6D6F64655D5B73697A658E
:105FB6005D5B74696D655D0D0A006372656174658C
:105FC6004E6574776F726B00646464646464004346
:105FD600726561746573206E6574776F726B3A20B3
:105FE6006372656174654E6574776F726B205B656D
:105FF60050616E4964486967685D5B6550616E49CA
:10600600644C6F775D5B63685D5B70616E49645D70
:106016005B616464725D5B75706461746549645D3F
:106026000D0A0073656E645065726D69744A6F6916
:106036006E00640053656E6473207065726D6974DA
:10604600206A6F696E20636F6D6D616E6420746F78
:1060560020616C6C20726F75746572733A2073657B
:106066006E645065726D69744A6F696E205B706507
:10607600726D69745D0D0A007265736574546F46BE
:106086004E00526573657420746F20466163746FA9
:106096007279204E65772C2070657273697374610E
:1060A6006E74206974656D732072657461696E65BE
:1060B600643A207265736574546F464E0D0A007219
:1060C60065736574546F4644005265736574207435
:1060D6006F20466163746F72792044656661756CE2
:1060E600742C2064656C65746573206576657279B9
:1060F6007468696E6720696E636C7564696E672083
:1061060070657273697374616E74206974656D73FA
:106116003A207265736574546F46440D0A00706FB9
:106126007765724F6666002D3E20506F77657273F5
:10613600206F6666206465766963653A20706F77BE
:1061460065724F66660D0A00696D6167654E6F740C
:106156006966790053656E647320496D61676520D1
:106166004E6F7469667920636D643A20696D616764
:10617600654E6F74696679207563617374466C61E8
:10618600672064737445702073686F727441646429
:1061960072657373205B7061796C6F61645479709A
:1061A600655D205B667756657273696F6E686931E7
:1061B600365D205B667756657273696F6E4C6F311C
:1061C600365D0D0A0025730D0A00436F6D6D616E15
:1061D60064733A200D0A006C057105F339007205E7
:1061E600990571050A3A009F05B00571050B3A003D
:1061F600BD05E10571050F3A00F0051B06290611DC
:106206003A002F06720678061A3A007D06D106DA9B
:10621600062C3A00DF061F07DA066E3A002B076FD8
:106226000778077A3A007F07BB07C407803A00C899
:1062360007000806088C3A000D085E087807B63A8B
:10624600006D08C4087807C83A00D3082A09380937
:10625600CC3A003F099309A209443B00A409E80986
:1062660071054D3B00F2092F0A7105513B00390AB1
:106276008E0A7105583B00970AB80A3809B53A00E4
:10628600C40A0000000000000000002D6F6E0045EB
:106296006E7465722076616C69642067726F7570C2
:1062A60049640D0A004D696E202D202564202620A4
:1062B6004D6178202D2025640D0A002D73746F72B0
:1062C60065002D72656D6F7665000D0A4B65792048
:1062D6006973202D2000252E3278000D0A000D0A44
:1062E6004372656174696F6E206F66206E657477A0
:1062F6006F726B20697320646F6E65202D20256494
:106306000D0A002D670000000000000000000000DC
:106316000000000000000000000000763B000000C6
:106326000000000000000A00000001D4390001004E
:106336000000000000000000020000000040000015
:106346000000410000000042000000005A636C4358
:106356006F6E6669726D3A20737461747573203D51
:10636600203078253032780D0A005A636C526573F6
:10637600706F6E73653A20737461747573203D2077
:106386003078253032780D0A00756E6B6E6F776E39
:1063960020636F6D6D616E640D0A008D184E5F503F
:1063A60061636B65744469737472696275746F7244
:1063B60000000000000000000000006A3F004641A7
:1063C60054414C3A436F64653A30782578200A0088
:1063D6004552524F523A436F64653A3078257820D9
:1063E6000A00496E76616C69642061737365727424
:1063F60020706172616D0A0000000000000000005C
:106406000000000000000000FF446973636F7665BA
:10641600727920646F6E650D0A00446973636F7646
:10642600657279206661696C65640D0A0041737353
:106436006F63696174696F6E207375636365646504
:10644600640D0A00476F74204E574B2061646472D6
:1064560065737320307825780D0A004173736F6376
:10646600696174696F6E206661696C65640D0A0006
:10647600776C5064735479706573436F6E7665728A
:1064860074657200776C506473446174615365720D
:106496007665720000000000000000000000BB43AB
:1064A6000070776C506473496E6974003D43000058
:1064B600535F4E7600526573697A696E67204E5651
:1064C600206974656D202869643D256875292066F4
:1064D600726F6D2025687520746F2025687500061B
:1064E60000FF0F0000000000000000000000000098
:1064F600000000000000000000FF00000000000097
:106506000000000000000000000000000000000085
:10651600000000000000000000445F4E760000000E
:106526000000000000010000000000000000000064
:1065360000000000E8030000013E4D00939C00D7D8
:106546005A01E9B70047F600034001AF2101D147E0
:10655600016147018391000000003E82009D7800A2
:10656600003900F044000000000000FFFF4E5F43CA
:106576006F6E6E656374696F6E4173736F63696185
:1065860074696F6E0000000000000000000000004B
:1065960000000000002C0100000140500000000037
:1065A600000000000100000001475100000000004B
:1065B600000000000000C8000000012551004E5FE9
:1065C600436F6E6E656374696F6E436F6D6D6F6E4C
:1065D60000000000000000000000000000000000B5
:1065E600000000000000FF000000000000000000A6
:1065F6000000004E5F436F6E6E656374696F6E00D8
:106606005374617274696E6720646973636F76652B
:10661600727920666F722075706461746564206E8D
:106626006574776F726B7300446973636F76657216
:106636007920666F722075706461746564206E657A
:1066460074776F726B7320636F6D706C65746564BD
:106656000000000000000000000000000000000034
:1066660000000000000000002254000101000101AA
:106676000000000000000000000000000000000014
:106686000000000000000000000000000000000004
:1066960000000000000000000000000000000000F4
:1066A60000000000000000000000000000000000E4
:1066B600000000000000340003000000000000009D
:1066C60000000000000000000000000000000000C4
:1066D60000000000000000000000000000000000B4
:1066E60000000000000000000000000000000000A4
:1066F6000000000000000000000000000000000094
:106706000000000000000000000000000000000083
:106716000000000000000000000000000000000073
:106726000000000000000000000000000000000063
:106736000000000000000000000000000000000053
:106746000000000000000000000000000000000043
:106756000000000000000000004754000000000098
:106766000000000000000000000000000000000023
:106776000000000000000000000000000000000013
:106786000000000000000000000000000000000003
:1067960000000000000000000000000000000000F3
:1067A60000000000000000000000000000000000E3
:1067B60000000000000000000000000000000000D3
:1067C60000000000000000000000000000000000C3
:1067D60000000000000000000000000000000001B2
:1067E600000000004055000000000000000000000E
:1067F600000000000000000000009C5400000000A3
:10680600000000000000008C5400000000000000A2
:1068160000000000595500000000000000E80300D9
:106826000001A85500000000000000000000000064
:106836000000000000000000000000000000000052
:10684600DC050000013F5600FFFFFFFFFFFFFFFFD3
:106856004E5F436D6900000000000000000000006C
:106866000000000000000000000000000000000022
:106876000000000000000000000000000000000012
:10688600255A000000000000000000000000000083
:10689600000000000000000000D058004E5F496E66
:1068A60074657250616E00535B00535B00535B006E
:1068B600535B00535B00000000000000000000FF77
:1068C600FFFFFFFFFFFFFF00000000000000004E7B
:1068D6005F446576696365496E666F000000000077
:1068E60000000000000000000000000000000000A2
:1068F6000001000000000000000000000000000091
:106906000100000000000000000000000000000080
:106916000000000000000000000000000000000071
:1069260000004C60004E5F526164696F004E5F5A12
:106936006470004E5F53656375726974795F436175
:106946006C6300D0D1D2D3D4D5D6D7D8D9DADBDC94
:10695600DDDEDF00C0C1C2C3C4C5C6C7C8C9CACB55
:10696600CCCDCECF004E5F536563757269747900E6
:106976004B65794269744D61736B2C3078253034E0
:1069860058004E5F416464726573734D616E616752
:106996006572000100F7FF0100FFFE0100FFFE0027
:1069A6000000000000000000009067004E5F4C6988
:1069B6006E6B546172676574000000000000000091
:1069C60000000000000000000000000000000000C1
:1069D60000000000000000000000000000000000B1
:1069E60000000000000000000000000000000000A1
:1069F600000000000100000000000000000000028E
:106A0600000000E667003A5600216F1301AE6A00E7
:106A16001B6B00676B00000000926B00000000AA71
:106A26006B00846C00000000B06B00756D00D16BCC
:106A360000756D008D6D00C26D00000000FF4E5F99
:106A46004C696E6B496E69746961746F7200DA54D1
:106A560000580000003A7300917500000000187697
:106A660000000000377600000000000000517600AC
:106A760062760046760066760046760000000000E4
:106A86000000000000FF0000000000007476000017
:106A960000000000000000000000000000000000F0
:106AA60000000000000000000000000000000000E0
:106AB600FF4E5F46736D0052656375727369766546
:106AC6002046534D206661696C7572652E2074618F
:106AD600626C6553697A653D2568752C2066726F10
:106AE6006D53746174653D2568752C206576656EF9
:106AF600743D256875004E5F4D656D6F7279004E69
:106B06005F5461736B004576656E74202568752049
:106B16006F66207461736B20256875206E6F742014
:106B260068616E646C65640000000000000000008F
:106B3600020000000000000000000000FFFFFFFF51
:106B4600FFFFFFFF4E5F4572724800000000000025
:106B560000000000002690000B0000FFFF00000070
:106B660000FFFF00000000000000000000B1B800B8
:106B760001FFD787380C0400000000000000000069
:106B86000000000054C100000000000000000000EA
:106B9600005FE3000000000000000000000000D3DA
:106BA60000000000000000020000000000000000DD
:106BB6000000F22001FFFFFDFFFCFFFBFF000000CD
:106BC60000000000000000B53501000000000000D4
:106BD60000000000D93501000000000000000000A0
:106BE600000B36012000FDFFFFFFFFFFFFFFFCFF4C
:106BF600FFFFFFFFFFFFFBFFFFFFFFFFFFFF0000A1
:106C06000000000034480100000000000000000001
:106C1600001154010000FFFF00FF0000000001000A
:106C2600000001000000000000000000000000005D
:076C360000686C747A4C0049
:106C3E000E94E6266597402EC901512E0E94D63637
:106C4E00D801012BB1F032E043E050E020E00A2FF2
:106C5E000E94CC3605E010E0FD0102A313A3352DF2
:106C6E00AC01242D8E010E94B7369E018D010E942B
:106C7E00D43B6596E6E00C94F7260091EF160023C0
:106C8E0051F501E00093EF1606E716E320E0E0E988
:106C9E00F6E122D0228306E010E0EDEEF5E11CD005
:106CAE0002E002830DEF1FEFE0EFF5E115D0E5E313
:106CBE00F6E112D00EE510ECE7E3F6E10DD001E0BF
:106CCE00028300E005A310E1EAE3F6E105D007EA4E
:106CDE0015E10F94C6400895008311830895BA9369
:106CEE00AA93A197D8011D96F80104850D3041F4A1
:106CFE0000E00093EF16E4E1F2E08E0141E209C0FC
:106D0E00002359F000E00093EF16E5E3F2E08E0168
:106D1E004CE122D00E94CC3E1BC00E940FBA2D9196
:106D2E003C9111972017310799F0E1E5F2E08E01C1
:106D3E0040E212D0FD0103814A930A930081118132
:106D4E001A930A938E010C5F1F4F0E94CC3E24961D
:106D5E00A196A991B991089550E00C94BD2608957D
:106D6E00F8012083418352834EE550EC43875487CC
:106D7E0020E0208B3587218B228B2091772C322F90
:106D8E0033953093772C238B0895F80142835383E8
:106D9E00248321E0238F2BE0258331A308956F9761
:106DAE000E94BB3B202F212B59F4E1E7F2E08E012C
:106DBE004FE150E00E94BD260E94CC3E00E010E064
:106DCE006F96089501C000C000E00895FDCFFCCF7E
:106DDE000E94E4261FD041F033E044E050E020E072
:106DEE0012D000E004A320D06596E8E00C94F526BE
:106DFE000E94E4260FD031F032E044E050E023E070
:106E0E0002D012D0F1CF082F0E94CC36FC01A2A3E3
:106E1E00B3A308956597702E2901612EDA010E94A1
:106E2E00D636C801012B0895362DA201272D8E01CD
:106E3E000E94B7369E018C010C94D43B00E008955D
:106E4E00FDCF0E94E3266597802E2901712EDA016F
:106E5E00662E2BD059F033E048E050E020E02AD0E7
:106E6E00A3A3B4A3362DA201282D2AD06596E9E05E
:106E7E000C94F4260E94E2266597902E2901812E0D
:106E8E00742E652EDB0111D061F034E048E050E045
:106E9E0022E010D063A2A4A3B5A3382DA201292D00
:106EAE000FD06596EAE00C94F3260E94D636C80100
:106EBE00012B0895082F0E94CC36FC0172A2089572
:106ECE008E010E94B7369E018C010C94D43BBA936E
:106EDE00AA93E0EFF6E1DA012C9130E020833183C2
:106EEE00222351F02481222339F421E0248320E04F
:106EFE002283238370D001C000E0A991B991089537
:106F0E000E94E8266E97C801F8010081002309F05F
:106F1E0043C0A581B68115969E01295F3F4FE5EDD1
:106F2E00F3E0890147E150E00E94BD26E5EDF3E074
:106F3E000789108D218D328D0B831C832D833E830B
:106F4E00038D148D258D088319832A830D911D9130
:106F5E0012964D915D911697FD01028411241A929D
:106F6E000A92008411841A920A921A930A935A93DF
:106F7E004A938E01015F2CD02896FD0103850023D4
:106F8E0041F0018910E01A930A938E010B5F20D015
:106F9E0022968E010E94CC3EE0EFF6E10081118137
:106FAE000150104000831183012B19F400E004837B
:106FBE000BC0028113810F5F1F4F02831383980151
:106FCE00FC010281138107D06E96E4E00C94F92641
:106FDE001F4F0C94CC3E0E94E6266597D8012901DE
:106FEE000E94D636C801012B11F409E827C001E032
:106FFE00E82FF12F058F32E040E05FEF20E0082F01
:10700E000E94CC36FD0135854181528122E08E01F0
:10701E000E94B7360DEC1BEA098B1A8B01E0088B28
:10702E00FC0142A253A207E817E320E0068F178F58
:10703E0020A39E018C010E94D43B00E06596E6E001
:10704E000C94F72601E008958A9328979E0100E09C
:10705E0010E00E94DA94088119812A813B814C81CB
:10706E005D816E817F81EBE2F4E00E94452729F07D
:10707E00E3E3F4E00E94452740F08E010E942B923C
:10708E009E0100E010E00E94F9940E94B63607EFD0
:10709E0016E12BE0209303172EE530ECF80125873F
:1070AE0036872189227F218B2260218B20E438E0D4
:1070BE002787308B23E0228B2CE533E0238B348B18
:1070CE0027E0258B25E133E0268B378B23E233E057
:1070DE00208F318F20E932E0228F338F20E00E9403
:1070EE00DD3E0E94993B0E949A3B0E941C390E94F1
:1070FE00923E0E94B53928EF33E006E00E94CE7929
:10710E000E941A7A0E94C53F46E031E021E014EC5D
:10711E000AE00E9401600E94C2600E94415600E097
:10712E000E94685801EA18E320E00E941E57289634
:10713E008991089500E018E820E132E00E94EF5EA8
:10714E0000E010E72FEE35E00E94FB5E0E94236701
:10715E000E94FF520E94E05D0E94B9760E941F6E4F
:10716E0001E00093F6160AE014E00E94C76D0E943B
:10717E00E65E002309F01CC033D00C94E96D08952F
:10718E000091F61608952C97202FE1E5F8E530E0F2
:10719E008E014CE050E00E94C826222311F00FEF22
:1071AE0001C000E09E0111E00E94F1622C9608954C
:1071BE0003E00093F51606EF18E320E00C9425404B
:1071CE000091F516033051F42FB7F894E9EDFEE077
:1071DE00008111811061118300832FBF0895CCCFE0
:1071EE0005E00093F51646EC58E360E002E00895E2
:1071FE0008950091F516002319F0035011F008952B
:10720E0023CF0C9440400E94A14E0E94B24EFDCF5F
:10721E000DE114E00F948B5A0DE114E00D94665AB3
:10722E000895E1DFAACF0895089501E00093660462
:10723E0002E000936B0403E00093700404E00093FB
:10724E00750403E00093A00448E050E02BE334E023
:10725E000AE714E014D048E050E024E434E006E8F5
:10726E0014E00DD04AE050E02DE434E002E914E0E1
:10727E0006D049E050E028E534E005EA14E00D942C
:10728E004B620E94E2266597902E2901812E742E64
:10729E00DB01652E0E94D636C801012BA9F033E022
:1072AE0045E050E0272D082F0E94CC36FC01A2A30A
:1072BE00B3A364A2382DA201292D8E010E94B736E8
:1072CE009E018C010E94D43B6596EAE00C94F32655
:1072DE0003C002C001C000C000E00895FDCFFCCF86
:1072EE00FBCFFACF0E94E2261FD041F034E040E0FF
:1072FE0053E026E014D063A272A222D06596EAE093
:10730E000C94F3260E94E2260FD041F034E040E0C8
:10731E0053E025E004D072A263A212D0EFCF082F63
:10732E000E94CC36FC0108956597902E2901812E7E
:10733E00742E652EDB010E94D636C801012B0895EE
:10734E00A4A3B5A3382DA201292D8E010E94B73614
:10735E009E018C010C94D43B0C94CC3E07E41BE0B4
:10736E000C946B3DB2D00333104010F022E301C0F9
:10737E00202F03E117E10E94C13EA02FB0E080E074
:10738E0090E007C0FC01ED5EF84E00810E94703D5A
:10739E0001968A179B07B4F38EC0BA93AA93AEE8F0
:1073AE00BCE0ED91FC912CD08DD005E31BE0D4DF39
:1073BE00229624D0075F1F4F00831183E0918E0C1D
:1073CE00F12F1ED0012B11F015D005C000E0EEE814
:1073DE00FCE0008301838AC011D0012B51F40AE333
:1073EE001BE0BADF07E41BE0EEE8FCE0008311834C
:1073FE0001D0089500E91CE00D94665AEEE8FCE019
:10740E0000811181089544C106E71CE00D944D3BA7
:10741E000C94443673D06C91189660D01897AED0F9
:10742E000E94283763C051D0D80180E043E091D04C
:10743E000BEF1BE08AD009F481E040D04085182F75
:10744E00248135810E94783B36C03FD02497D801E5
:10745E009E018E010E5F1F4F0E94CB678A819B811A
:10746E00019708811981080F191F08831983FD01DF
:10747E00048515852A813B810217130770F0288138
:10748E0039812017310748F019D04485558510856C
:10749E00248135810E94EF360DC00FEF1BE05CDFBB
:1074AE00088119810FD00C811D810CD005E11CE0E3
:1074BE0053DF24962496E4E00C94F9268D01D0D067
:1074CE00FD0108951A930A9308950C94E82619D095
:1074DE001C9604D052D00E94FF3608C04D915C918C
:1074EE0015971C9108953FD00E947939A991B991B1
:1074FE00089504D041D00E941F36F8CF02D01896BE
:10750E000895BA93AA93D801ABC0DFDFD80185E006
:10751E0045E01FD00BE21CE018D011F484E00AC045
:10752E0045E050E0FD012485358502E31CE00DD0D9
:10753E0009F482E0C3DF548960897189482F108570
:10754E00248135810E944839B6CF0F943462012BC5
:10755E00089550E0F801248535850895089503D0E7
:10756E000E948939C3CFCDDF54966D917C911597CA
:10757E005C9114974C9114971C9114972D913C91FA
:10758E000895F1DF0E944137B1CF9FDF6897D80190
:10759E00F801048115812681378140E00883198323
:1075AE002A833B834C834D834E834F830D911D91D4
:1075BE002D917C911397622FA80130E020E010E00E
:1075CE0000E0FE010E940227088B198B2A8B3B8B51
:1075DE004C8B5D8B6E8B7F8B40E150E060E070E0FA
:1075EE008E010E94864D0AE31CE0B6DE80E090E03C
:1075FE00FE01E80FF91F00819A930A9306E41CE03E
:10760E00ABDE22968395803198F30BE41CE0A4DE6A
:10761E0006E21BE320E02A9355DF8E010D5F1F4F1C
:10762E0051DFFD0134896089718944855585208536
:10763E008E010B5E1F4F0E94465368963CCFA59756
:10764E00202EEEE4FCE08E0145E250E00E94BD26C5
:10765E004A932A928E010E5F1F4F7EDEA7960895E3
:10766E0042E050E0F8012081318103E71CE06DDF3C
:10767E0011F401E0089502E00895F801008100235D
:10768E0011F001E001C000E00C94CA3800E004D013
:10769E000D94AA5D01E0FBCF0E94394301E00C94EA
:1076AE00525FE5E4F7E147815085618500E04030A7
:1076BE005040604069F4038304830583068300E72A
:1076CE001BE320E00783108721878F010E9467B894
:1076DE000895EBEDFEE00081067C008308950C9486
:1076EE00DF380E94E5266597402EC901512E642E83
:1076FE000E94D636D801012B89F030E046E050E0EA
:10770E00252D0A2F0E94CC36362DAC01242D8E014C
:10771E000E94B7369E018D010E94D43B6596E7E02C
:10772E000C94F62608958A9300E01BD005870687F1
:10773E000787008B80E0482F50E00FE310E00E9497
:10774E00D02520E537E1200F311FF4D0839584300A
:10775E0090F301E0009385188991089550E00C9400
:10776E00BD26E9E7F8E10895BA93AA9306E818E171
:10777E00D6D0D801012B59F04FE350E020E030E095
:10778E000A2F0F94866201E05B960C935B978D0136
:10779E00A991B99108950C94D44C1801B8016A5F5F
:1077AE007F4F8B01F901C9D0910101D003C008E8C8
:1077BE0018E1F1CFBA93AA9300918A18002309F029
:1077CE004EC0CFDF27853089ACE4B8E1F9010481E2
:1077DE00009370181581112311F0012F01C001E0E3
:1077EE0000936F18009185180093721836960AE56B
:1077FE0018E1A3D0F90102811381FD01048F158FC9
:10780E0089010E5D1F4F07A310A7F90101A1009377
:10781E00711840ED57E060E0FD0141A752A763A744
:10782E0064A747E35CE360E0438754876587F9010B
:10783E00058D002321F08D010E94E0880DC0048D7E
:10784E00002339F40091772C00936D180395009363
:10785E00772C8D010E94ED8801E000938A1898CF55
:10786E000E94E826A597D80158D0C80162D067D0EB
:10787E00FD010181002361F40C910023E9F19E01C9
:10788E002A5F3F4FECEBFCE089014EE167DF31C030
:10789E00013091F59D0124503040BE016A5F7F4F4B
:1078AE00EAEDFCE08B014FE159DFF90104A1023052
:1078BE0011F00330F1F400850130D9F004E00883B3
:1078CE00FD0104810983058116810A831B834C8384
:1078DE004D830981002381F08E010E94DB7CEC81B7
:1078EE00FD81008110E01A931CD000E00C830D8303
:1078FE00F0CF0C914A9315D0FC01468D578D60A1A7
:10790E0000E040305007600721F08D01FA016CBF96
:10791E001995A596E4E00C94F92608E818E10C9464
:10792E00F94C0A938E01085F1F4F0E94CC3E22969F
:10793E000895980106E818E12ECF45E10FCF00E03B
:10794E0000938A18E9E7F8E107851089012B09F001
:10795E0031DF08950E94E4262801390141E050E00C
:10796E0060E070E0A8D0ACD009F101C03196A9D08A
:10797E00E9F7319714C025D0212F220F220B322F79
:10798E000E941326800F911FA21FB31F31970AE08A
:10799E0010E020E030E00E941326A801B901E415A2
:1079AE00F50530F00ED00A30104028F300E006C086
:1079BE00F30180839183A283B38301E0E8E00C940A
:1079CE00F526008110E0005310400895BA93AA9353
:1079DE002497D901F80120812D3299F49E010F5F71
:1079EE001F4FB8DF0023D9F01FD01095209530958A
:1079FE0001951F4F2F4F3F4F0D931D932D933C938A
:107A0E000CC0222361F09E01A5DF002341F00CD0B3
:107A1E00FD01008311832283338301E001C000E066
:107A2E002496A991B9910895088119812A813B81E3
:107A3E0008950E94E826B8013ED00024112440D0BB
:107A4E0061F101C031963DD0E9F731970CC0075571
:107A5E0010E0482F0E94DA25000E111E31978C5F20
:107A6E009F4FAF4FBF4FE617F707C8F0803200E0C9
:107A7E009007A007B00798F40081102F115616300A
:107A8E0030F3102F1154163010F40753E1CF102F8E
:107A9E0010531A3010F40053DBCF00E009C0212C34
:107AAE00220C2208F901008211822282238201E037
:107ABE00E4E00C94F92680E090E0A0E0B0E00895B8
:107ACE00F801008100230895EBE8F8E100831183AB
:107ADE0008950E94E626802FABE0BDE04D905C90AD
:107AEE0011970A3031F110E00F940662012B91F0DC
:107AFE000DE818E1401A510A00E4401600E0500665
:107B0E002CF5AED080830D911C910F5F1F4F1C93EF
:107B1E000E931CC0883051F41CD0C0F400E0FD015F
:107B2E00A081B1810E93A083B18310C08B3171F40B
:107B3E0009C00FD038F400E0ED91F52D11970083B8
:107B4E000DE80CD00DE818E10D931C93E6E00C94B3
:107B5E00F7260DE818E1041515050895BA93AA93B2
:107B6E00A2979E0181D00023A1F1288139818E0137
:107B7E000E5F1F4F2017310761F1EBE8F8E1A0818E
:107B8E00B18101C019960D911C911197012BE9F04D
:107B9E002D91312F11970A811B810F947D63012B3B
:107BAE0089F79E018D0117D0002321F417960D91B0
:107BBE001C910DC08E010A5F1F4F14964D915D9161
:107BCE006C91FA016CBF199504C009EF1CE00E947C
:107BDE00B339A29626CF0E94E6262901F8018281AA
:107BEE009381D901169609C09D010D911F2F1197F2
:107BFE00EDDE002389F101961496FC0162DFF2019D
:107C0E000081118131F1A017B10730F5FC0100811F
:107C1E00035629F00A9551F0055041F0ECCF20D0D3
:107C2E0001810023C9F400810C93E5CF19D00081A6
:107C3E000033D1F60181083711F00835A9F69D0100
:107C4E000D9111970E5FFF4F1F2FF3DE002399F654
:107C5E0003C0A017B10711F000E001C001E076CF1C
:107C6E00ED91FC91119708950D01D80100E0A90145
:107C7E004E5F5F4FF9014083518305C00C91003276
:107C8E00F9F500E01196FD0110811123B9F1102FC5
:107C9E00002339F01A9519F11A9549F11A9571F3D5
:107CAE00F1CF1C91103271F3F9014081518189019C
:107CBE000E5D1F4F4017510718F50C91023249F413
:107CCE0002E023D0BD016F5F7F4FFA0160837183A5
:107CDE00D9CF01E01AD0FA01A083B183D3CF1C9182
:107CEE00123271F0103271F600E00C93CBCF1C9172
:107CFE00123241F603E010E01C93C4CF023011F4AF
:107D0E0000E001C001E0D0010895BA016C5F7F4F21
:107D1E00608371830895ECE2FAE106E0038700E0E8
:107D2E00048709E110E00587168706E00787108BA8
:107D3E00118B0AEF19E1048B158B02E310E0068B11
:107D4E00178B0EEC18E1008F118F0CE211E0028FF1
:107D5E00138F0AEC1EE320E0048F158F268F00E0B0
:107D6E00078F00A301A302A38F010C94789205D074
:107D7E000C94B19202D00C940793422F50E09801CC
:107D8E000CE21AE108950C94B939EF97A597BE014C
:107D9E006C597F4FA80124E630E08E010F949E634C
:107DAE00202F8E01E4DFEF96A5960895BA93AA933D
:107DBE00D801045F1F4F0D931C931197FD01228371
:107DCE000D911C9111970683178308E21CE720E0A2
:107DDE000087118722878D010D5F1F4F0F948D1124
:107DEE00ED91FC91119701811281043021E012076F
:107DFE0019F00E35104C39F48D01A1D021E23DE081
:107E0E000EE10E94134CA991B99108951FD001C0A3
:107E1E00839525D0E9F720C052D002C04AD029F070
:107E2E001ED0E1F724EA06D004C001501040F8013C
:107E3E00008127C030E09ED000E0089507D003C037
:107E4E00F8012291820F0BD0D9F706C08A9380E0F9
:107E5E0000E010E00895DACF082F899108950F946D
:107E6E00B411202F212B0895E9CF13D0F0DF03C0DA
:107E7E00891730F48395F3DFD9F721EFDBDF01C0EB
:107E8E0003D0E4E00C94F926F801A381B4810C919F
:107E9E0008950E94E826902F089511D002C009D0AF
:107EAE0029F0DDDFE1F700E010E002C003501040E2
:107EBE00E8CFF801A381B4812C91281708950E9470
:107ECE00E826802FC5CFBD01F9010E3191F5008155
:107EDE0011810034104069F50281138121E030E0F8
:107EEE002483358340E022E0429FD001A15BB54E52
:107EFE002D913C91522F532BE1F0D9011CD05C9166
:107F0E00D80119D0139617D02C91521779F4D801A5
:107F1E0012962D913C91243051E0350719F02F3FE8
:107F2E003F4F21F400E00483058303C043954A309C
:107F3E00D0F2DB0108952D91BC91A22F08959A9352
:107F4E008A93C8010091631A0A3010F026E511D009
:107F5E000091631A12E0019FF001E15BF54E808300
:107F6E009183EFE4FAE104890395048B8991999149
:107F7E00089531E00DE01DE00C94047B0FEC1FE33F
:107F8E0020E00E94EA7A01EF1FE320E00C94B94D45
:107F9E000E94E826D801C90111C0402F0A9500930E
:107FAE00780D392F12D0F801E859F24F0081118166
:107FBE002281F8012CBF282F8D0119950091780D83
:107FCE0000235AF70F94AA5DFFCF50E003E010E0B4
:107FDE000C94D025BA93AA936697D801012B89F0F9
:107FEE00ED91FC911197329741F0319789F4EEE2C1
:027FFE00FDE0A4
:1080000012D014D013D0FFCFE0E4FDE00CD007C0B5
:10801000E2E5FDE08E0146E115D00E94CC3E669679
:10802000A991B99108958E0142E10CD0FD01028120
:1080300013811A930A938E010E5F1F4F0E94CC3E4C
:108040002296089550E00C94BD260E94E826D8019F
:10805000922F01E038D006E610E420E02A931A932C
:108060000A9340E050E020E008E61AE10E94A84FA1
:10807000E4E6FAE1A083B1839283E4E00C94F9266C
:10808000BA93AA93A4E6BAE10091671A025019F0D4
:108090000A9549F015C04DE750E460E014968D0153
:1080A0000E94C6500DC000E00ED00D911D912C9184
:1080B0001297F8012CBF199500E00D930D930C93C6
:1080C000A991B99108950093671A089563970023C1
:1080D00039F402E0F8DFE9E7FDE08E0141E106C096
:1080E00003E0F1DFEAE8FDE08E0143E156D00E94B3
:1080F000CC3E0E94E738639608958A93EE9713E08A
:108100001093671A00239E0189F5295D3F4FEDE921
:10811000FDE041D08E01095D3BD09E01205F3F4FC5
:10812000E4EBFDE038D00E94D75E1A930A938E01EB
:108130000E5E2ED022969E01285F3F4F09E125D08A
:10814000088519852A853B854C855D856E857F85EB
:10815000EBE2F4E00E94452799F49E0107E015D078
:108160009E0109E110E00E94F9940AC0205F3F4F90
:10817000EBECFDE0890145E110D08E01005F08D0F5
:108180000E94E738EE968991089510E00C94DA94F5
:108190001F4F0C94CC3E890147E150E00C94BD2662
:1081A0000E94E42638012901DA01CB01AB019D01CF
:1081B0009ED0F301319759F03197B1F03397E9F040
:1081C000319741F0319799F03197A1F018C08201B1
:1081D0009FD016C0F201008111810F3F1F4F79F42B
:1081E00000E0008301830BC00ED0ABD108C00BD0E0
:1081F00070D105C008D085D102C0820116D101E03E
:10820000E8E00C94F526AC019D0182010895BD01C2
:10821000ADE7BAE1E7EEFCE28D0103D10091C32D99
:108220000093851AEEEFFDE206E81AE1F4D0F0D0F3
:108230000681178120853185FD01018B128B238BEF
:10824000348B0091752D058B00916C2D068B009160
:10825000E12D078B0091E22D008F0091E32D018F1E
:10826000EDEEFDE207E91AE141E1DDD0D1D0038571
:108270001485FD0103A714A70091D02D05A7E7E7FA
:10828000FDE200811181FD0106A717A700916F2D66
:1082900000AB00918C2D01AB0091062E02AB00913A
:1082A0000E2D03ABE2EAFDE201EB1AE1B4D0E0EA05
:1082B000FDE202851385FD0104AF15AF0091082E84
:1082C00006AFEFEFFCE200811181FD0107AFFF96E1
:1082D00011830091082D02830FEB1AE1EBE7FDE219
:1082E0009AD00091CF2D0093C71ADB0108952A97E9
:1082F0002417350759F09E0148D12985217011E0D6
:108300002127022319F023ED30E017D12A96089592
:10831000BA93AA93980100E010E0F901E00FF11F71
:1083200010811F3F09F46CC007EE1CE2F90179D0FF
:10833000B901685F7F4FFB0101910093C32D0EEFE0
:108340001DE26BD0018412842384348461D00682C0
:10835000178220863186AFEFBCE2FB0105850093D2
:10836000752D068500936C2D07850093E12D0089FE
:108370000093E22D01890093E32D0DEE1DE2F9013A
:108380007A9641E14BD003A114A142D00387148710
:10839000FB0105A10093D02D06A117A1E7E7FDE29F
:1083A00000831183FB0100A500936F2D01A50093AD
:1083B0008C2D02A50093062E03A500930E2DBC96CE
:1083C00002EA1DE22AD004A915A9E0EAFDE202872B
:1083D0001387FB0106A90093082E07A910AD0D9382
:1083E0001C9301AD0093082D2E5B3F4F0BE71DE260
:1083F000F90111D0F90100850093CF2D01E005C0EE
:1084000003950B3408F488CF00E0A991B991089541
:10841000EFEBFDE2089548E006C048E004D0FB0120
:10842000089548E050E00C94BD269A938A932497CF
:10843000C8019E012F5F3F4F00E231D002E02FD0F4
:108440002E5F3F4F0BE112E00E94C79420E020C056
:10845000422F50E006E110E02DD0FC01E00FF11FAB
:1084600000810023A1F008811181019F4CE080016F
:108470001BD0428B538B088110E0418150E04F5F4D
:108480005F4F18D04CE050E00FD0448B558B2395B4
:1084900009812017E8F2249689919991089511E0B5
:1084A0000E94DA949E01089505D04A815B81400FB5
:1084B000511F08950C94D025BA014217530740F478
:1084C000241B350BA90130D0060F171F0F948662AD
:1084D00008950E94E6264FD089F049D078F4FC0137
:1084E000E40DF51D08EA058B769606E14AD0D0F337
:1084F00019D007E01CD011F025E61ED0E6E00C9460
:10850000F7260E94E826C801D9012417350739F05B
:10851000D3DF08D008E00BD011F02BE70DD0E4E05A
:108520000C94F926BC01AD0120E030E0089510E084
:108530000E948E490023089531E000EE1DE00C9466
:10854000047B0E94E62617D089F011D078F4FC0154
:10855000E40DF51D06E000837D960DE112D0D0F309
:10856000E1DF02E0E4DF11F02AE9E6DFC7CFA4DFB4
:108570004A165B060895C801D9012A012417350758
:108580000895400E00E0501EF3CF0E94E3262A9784
:108590003801290184EA99E409E2802E0AE029D011
:1085A000088119810615170519F44AE028D004C07E
:1085B0000A968A9499F700E02A96E9E00C94F4264A
:1085C0000E94E3262797380129018EEF99E405E000
:1085D000802E07E00ED00D811E810615170519F4B7
:1085E00047E00DD004C007968A9499F700E02796DB
:1085F000E4CF10E0FC0130E0DE010D94586250E061
:108600009E0182010F944B6201E0089525D041F054
:1086100080E0A0E012D031F019D011D177D011F460
:1086200000E007C0A395A830A8F38395863088F3AF
:1086300001E02696E3E00C94FA26FE0190E0E80FB4
:10864000F91F20814A2F5CD02023089508E0809FE5
:1086500080010A0F191F08950E94E92626979E019E
:10866000FE0140E086E041938A95E9F722D100239C
:1086700008950E94604A00E008959A938A932A9789
:1086800020E060E030E0E8ECFAE1E20FF61F462F70
:1086900037D01081102329F000951081102310830A
:1086A00006C06395683098F32395263050F308E0B0
:1086B000209FC001860F931F8C0126D071F49E016C
:1086C0008C010E94C54222D051F0ADD0E3D039F0E8
:1086D000002329F020E0A2D002C08C0182D020E04B
:1086E000F0E0E22FE853F54E0081002311F066D050
:1086F00003C023952630A0F32A9689919991089575
:1087000001E010E00C94DA250E94924A002311F057
:1087100001E001C000E0ABCF0E94E62623972801CC
:1087200080E04FD001E0401600E4500629F00981B6
:108730001A810415150529F424E03EE008810E9401
:10874000134C8395873268F32396E6E00C94F72662
:1087500083DF39F080E0A0E070DF29F077DFD4DF3D
:1087600011F400E007C0A395A830B0F383958630DC
:1087700090F301E05ECF0E94E7262397402E90E021
:1087800080E01FD00881041579F429811A81422FD5
:10879000E0D0502F43E0022FD6D0F801E853F54E39
:1087A0000081052B008391E08395873250F3992354
:1087B00009F004D02396E5E00C94F82600E00C9430
:1087C000DE4403E010E0482F50E00E94D025EEEB9D
:1087D000F6E530E0E00FF11F03E010E0DE010D945C
:1087E00058629A938A935FD0C1F00A811B81012B52
:1087F00021F00C811D81012B11F426E70FD013D03D
:108800006C817D814A815B8120E030E08C010E9497
:108810008E49002311F024E801D06ECF31E004EF3F
:108820001DE00C94047B4E815F81688500E0403040
:108830005007600719F0FA016CBF199508950E945E
:10884000E82631D011F10A811B81012B21F00C8126
:108850001D81012B11F427E9E1DFE5DF8C010E9486
:10886000364AD80117D089F0002319F02DEAD6DF57
:108870000CC0BD014A815B812C813D818C010E942D
:10888000D040002311F001E001C000E02A96E4E0AE
:108890000C94F9264C815D812A813B818C010E94D8
:1088A0003949023008952A97C8019E010E94C542A5
:1088B000DECE0E94E6262997602FC901023000E42F
:1088C000100759F446E050E02FEF30E08C010F9490
:1088D0008662FC0100810E7F32C016FB3EF59E01D0
:1088E0002E5F3F4F062F0E94E0420023E9F0442410
:1088F00055240D811E814016510610F502E010E04E
:10890000409EEA81FB813C81E00DF11D67DF4881DB
:108910001CD00881198117D0FC01E00FF11F0081E4
:10892000022B00834394E4CF00E00BC0462F0DD010
:10893000062F09D0800F911FFC010081022B0083BC
:1089400001E0299602CF0C94DF2503D0202F43E0CD
:108950000895477001E00C94B82508950E94974A45
:108960000C941E499A938A932A9781E090E09E0185
:108970008C010E94C542002399F00A811B81012BC2
:1089800011F42AE516D040E050E02A813B818C01A9
:108990000E943949023021F0002311F025E609D068
:1089A00001968A3000E0900710F32A9689919991F8
:1089B000089530E001E11EE00C94047B402F34D098
:1089C000ECE1FEE01381102B13832FB7F894E9ED4F
:1089D000FEE0008111811062118300832FBF089592
:1089E00030911F0E3323F9F020E001C02395422F70
:1089F0001BD0132F1023D1F3302730931F0E422F9B
:108A000050E003E010E00E94D025F801E45EF14F51
:108A1000008111812281F8012CBF199500911F0E50
:108A2000002309F0D2DF089501E010E00C94DA256C
:108A300073D419F40091690EF6D108956DD429F418
:108A4000F4D219F422EE30E026D50895F0C28A93CC
:108A500080E0EEECFCE140815181628140305807BA
:108A6000680731F0FA016CBF1995002309F481E021
:108A7000082F8991089520E032E0239FF001E15B07
:108A8000F14F408151810417150709F404C0239563
:108A9000223090F302C001E0089500E008959C01A7
:108AA000F6D0800F911F0F96807F86879787C90128
:108AB0000895BA93AA9320E001C023953091680EDF
:108AC0002317A0F434E0239F82D24D915C9111973B
:108AD0004017510791F712960D911C911397012B96
:108AE00019F42CE231E0D7D48D0101C045D0A99111
:108AF000B991089535D019F029E331E0CCD464D28E
:108B0000003818F02AE331E0C6D45ED214E0019FA9
:108B10000EEC1AE1000D111D85D225892395258BB8
:108B2000F8018083918389919991089519D019F45E
:108B300027E431E0B0D48C01D8D174D225892A95AC
:108B4000258B34E0239FF001E253F54E40815181A3
:108B500062817381F8014083518362837383E3CF21
:108B60009A938A93C801C1D1012B0895BAD121F0FB
:108B7000F80102811381089500E010E00895792F33
:108B8000482FF801C9010FEF1FEF13C031911327D0
:108B9000212F12951F702127522F550F550F550F5A
:108BA000550F052730E2239F0125102F0226002DA7
:108BB0000197282F292B51F7842F972F08952CE008
:108BC00030E00E5F1F4FDBCF60D0D8012901CA0112
:108BD000BA01A901980124D10E94DC4ABC01A2017A
:108BE0009D011ED10E94E14BE6E00C94F72674D162
:108BF000C8010FEFE82FF12F00830183082FDFDF7B
:108C0000FC0106871787A1E6BEE040E150E09C0129
:108C10000D911C911F97D1D069F440E150E01E9650
:108C20002D913C91FDD00E94DD4B002309F405D02D
:108C300000E002C002D001E033C400E110E04EC108
:108C4000229720E028832983FBC01FD0D801290167
:108C50001ED062D2B1F0042D052971F0FD014681CC
:108C600057819201DFD106851785A7D029F4FD0130
:108C70000681178133D105C0FD0106811781A0D17E
:108C800011F400E001C001E0AFCF0C94E626CAD198
:108C90008685978508950E94DC26A59708832B83F7
:108CA0003C835A0100E009830A83662477240DA9D6
:108CB0001EA918D129F0060F171F09831A8303C0B4
:108CC00027D3660E771E8B819C817A012A01460E7E
:108CD000571E11C08D0111950195104029813A81CF
:108CE000200F311F29833A83BD014981532F8A1AEE
:108CF0009B0A940191D3E414F50441F401E0A59694
:108D0000E2E10C94ED2678018F859889082F092BD4
:108D100009F451C08FD24B5F5F4F9C0188D2098507
:108D20001A8598014B855C85040F151F24153505A0
:108D300058F7E016F10640F70415150520F3840DE9
:108D4000951D4096821B930B4C01E216F306D2014F
:108D500028F4A21BB30B8F85988905C0AE19BF09F3
:108D60008B819C8175014A1A5B0A09811A81012B4A
:108D700009F0B0CF0A2F0B2B09F4BDCFA13100E0D1
:108D8000B00728F000E1C02EDD24509703C06D012C
:108D9000A0E0B0E06C187D088C189D08B601AE010B
:108DA0004B5E5F4F940143D2A6019E012B5E3F4F65
:108DB000830103D0F9F600E0A2CF06DFAEC178D37D
:108DC000D90133D021F42CD02ED02FD009F10FEFC0
:108DD0000883098301E40A8304E50B8303E50C831C
:108DE0000EE40D8306E70E8301E30F8388879987DE
:108DF000AA87BB8780959095A095B0958C879D8715
:108E0000AE87BF8740E150E09E01B6DED6DF11F4A9
:108E100000E005C064D006D10687178701E03FC394
:108E20000091670E08950C944A4B40E050E2F9D14E
:108E3000F7DF0E94DD4B71C122979EDE0883098314
:108E400042E050E09E01C0DE002311F400E001C0CA
:108E500001E02296089540D06097A3E5BEE03FD0A0
:108E6000FD0106871787E6D126853785D5D280E0B4
:108E700090E0FE01E80FF91F00810F3F31F40196E9
:108E8000803100E0900738F5F4CF8E0198DE2E8512
:108E90003F852017310711F022D018C008811981B1
:108EA000012B89F48A819B818C011BD011F48C01E8
:108EB00021DEFD0126853785F80122833383B4D175
:108EC000012B09F4FBD224D1005F1F4F07D0FD0115
:108ED0001785103240F2E3C20C94E826E0CD00E1A1
:108EE0004CCE03D0202F212B0895E3CD0FD2A09795
:108EF00003E5402E0EE0502E0AE61EE00E94314FA0
:108F000000E0F20100D17090670E94D1405F5F4F96
:108F100088D1072D8DD1888D998DAA8DBB8D8150DB
:108F20009040A040B0407CDF0395023008F000E0A4
:108F30000093670E071519F42AE433E0ACD28C01D4
:108F40009D013DDF002379F366241EC004E0609E8E
:108F50003ED070D130D06CD1F3D0F20186859785A8
:108F6000DAD0C1F000E00A930A936A857B8540E07D
:108F700050E021D090DE002369F0CAD021D051F01A
:108F8000FD018283938363941FD06016F8F254DF4F
:108F9000002311F400E00BC07092690E03E51EE09F
:108FA0000F948B5A03E51EE00F94665A01E0A096D9
:108FB000E8E00C94F526FD0122813381072D089508
:108FC0008DDF8C013DDEA9C00091680E0895AEECE6
:108FD000BAE1A00DB11D089520E030E223D06685EE
:108FE0007785261B370B2017310728F41ED0C9F4CC
:108FF00026E933E050C22031344098F420916A0EC3
:10900000222379F44EE155E460E06A935A934A933F
:1090100040E157E260E070E021E00AE61EE00E94D5
:109020000E4F0895E3E5FEE0089560DF76C00E94EC
:10903000E226609771D129F005E06096EAE00C9491
:10904000F326F0DF82899389082F092B29F4008900
:109050001189012B21F405C040968C01DCD16AD026
:1090600011F400E0EACFEA2FF12F59D05FD0012BA5
:1090700059F4DAD0005F1F4FCED15CD019F429EC3F
:1090800033E009D2FD014BD0CDDF8684978468841C
:10909000798402891389012BE1F040E050E024E05B
:1090A00030E000E21EE00E942A7840D0ABD10A8571
:1090B0001B85A8D100891189A5D105E21EE00E9477
:1090C0003378269633D0088719870615170508F4D4
:1090D000380136D020D071F000E00A930A93B30132
:1090E00040E050E09C01BDD129F012D0F7DE8401B0
:1090F00069DF11F401E0A1CF00E094DF04D0FD01AD
:1091000082829382AECF008B018B028B038B0895FA
:109110000E811F8108958E016ADD002308958281EA
:10912000938160E170E0AE019C0176C17BDF028932
:109130001389089577DF00891189D7DED80114CD0E
:10914000E1D0088519850E831F8300E0ACC19DDD49
:10915000609700E00093680E44244A948FEF9FEFDD
:10916000AFEFBFEF552466D05CD0052D61D00881EC
:109170001981012B69F50A81013451F50B81043500
:1091800039F50C81033521F50D810E3409F50E8179
:109190000637F1F40F810133D9F446D02A853B8597
:1091A0004C855D856E857F8508011901042615268D
:1091B000262637264FEF041614062406340641F4FB
:1091C000081719072A073B0718F4452CC801D901CD
:1091D000539402E0501638F20FEF4016D1F400E03D
:1091E0000093670E08C01EDF04890395048B0230CC
:1091F00010F020E44FD10EEF1FEF2FEF3FEFDFDD38
:10920000002389F319DE002371F300E00093680E58
:1092100003C04092670E1FDE01E00093880E609647
:10922000E3CC20E030E00895088519850895088191
:109230000C94AD4A60E170E0AE010895BA93AA9330
:10924000AEE5BEE00091880E002309F480DF01E066
:1092500000935D0E08E115E420E00D931D932C931F
:10926000179708E51BE120E00D931D932D932C9398
:109270003ECC4CD06097D801C9012A01012B29F0BE
:10928000103F18F42130344010F023E603D1ECD025
:10929000012BC1F08D01EAD00817190741F0C2DE99
:1092A000A08BB18B828B938BC2DE002349F5042DFA
:1092B000052931F0B201AC01B4DF8D01AFD020C07F
:1092C00000E01EC029D011F005E01AC0A1D07CDE5C
:1092D000003810F02BE8DED01BD0AA83BB8312D05D
:1092E0008E839F8388879987DED092018ED011F478
:1092F00001E006C08D01FEDBF8016282738202E0AC
:10930000609656CE00E00C830D8308950C94E426FD
:1093100089DE6684778408959ADBFFCE0E94E0267A
:109320006097D8014901CA015B01012B11F0672B3D
:1093300011F429EAAFD0F0DF11F005E05FC068D08A
:109340008D01D3DD2801012B11F403E057C0E42D7A
:10935000F12F62807380A3E5BEE06CDF93015CD0E7
:10936000088419842224A40160E0480F591F621D5B
:1093700004161506260610F404E040C08C829D8277
:109380008E839F836A867B86C3DE28853985021794
:10939000130719F42C862D8606C00C851D850F5FDA
:1093A0001F4F0C871D87FD018685978595012DD060
:1093B00011F401E023C0F201828393830C851D85A3
:1093C000053620E01040C8F00A811B81FD01008BAA
:1093D000118B228B238B0091790E002371F406E20E
:1093E00015E420E02A930ED048EB5BE060E070E0EB
:1093F00021E096968D010E940E4F00E06096ECE011
:109400000C94F1261A930A9308958E011EDC85CEE2
:109410008C01005F1F4FE0CD03DD0ACF77DFD8015D
:10942000C9012A013B01012B11F0672B11F42AEF2E
:1094300031D01AD057DD11F403E012C00C01222400
:10944000040C151C221C21E0221638F47A926A9230
:10945000B201AC01980105D011F404E001C000E0B4
:10946000A7CDDEDC18DC59CE8D0127C09A938A93F4
:109470006097C801012B19F42AE135E00CD01CD00B
:1094800031DD11F479DB04C0D5DE9801C5DFCCDE17
:10949000609649CB34E000E21EE00C94047B6096B9
:1094A000E4E00C94F9260A870B870C870D87089552
:1094B00013DD6097C80108958C0158CB8C0136CB21
:1094C0000E94E726802F0E94AD4426DF11F005E0C0
:1094D00026C0882339F080E0082FA5DC83958230F0
:1094E000E8F4FACFB0E04090680EA0E00EC004E0CF
:1094F000A09FF001E253F54E808191818C01BBDA8F
:10950000002311F4DBDFB395A395A41580F3BB23EF
:1095100029F08BDD19F427E835E0BDDF00E0E5E058
:109520000C94F826CADF012B09F0B5CAB6CA00E0D0
:10953000002311F026E4ACD0C6D0005014402040E7
:1095400030400F5F1F4F2F4F3F4F003010442040DF
:10955000304011F02AE49CD008950E94E2262901AF
:109560003A014B018DD0840D951DAB1FBB1F82D0DE
:1095700010F428E58DD040E054E460E078D0080D88
:10958000191D261F361F401751076207630710F485
:1095900029E57ED0480C591C01E0401600E2500637
:1095A00010F02AE575D08401FC013A2FD3010F9405
:1095B0005862EAE00C94F3260E94E12649013A0140
:1095C0002B015ED0AA24880D991DA31FB31F672B02
:1095D00011F42DE6EED04ED010F42EE659D040E036
:1095E00054E445D0040D151D2A1D3A1D401751079E
:1095F000A206A30610F42FE64BD0840C951C01E0C4
:10960000801600E2900610F020E742D0082F10E00C
:1096100020E031E0281B30402415350510F44901C5
:1096200001C04201B301A40105C04201B301A4017C
:1096300000E010E020E030E00F941B6118D00F94A0
:109640009C6148185908880D991DAA1DBA1D680CFF
:10965000791C042D052941F001E04016500628F33D
:10966000882499249394E2CFEBE00C94F2268C01A9
:109670009D01089528D0081719072A073B07089568
:1096800080E094E0A0E0B0E08ED0910FA21F08959A
:1096900030E08FC00E94E726F3DF15D000301907B5
:1096A0002A07304010F420E9F3DF00E2402EDFDF2C
:1096B0000F94906180509F4FAF4FBF4F4A94B9F7BE
:1096C000E5E00C94F8260FEF13E420E030E0089575
:1096D0000E94E0266097002EC9015A014B0100E06C
:1096E00014E0280166247724002D5DD0510E621EFF
:1096F000A0E0480E591E631E731E672B11F426EA64
:1097000058D0E1DF041515052605370510F427EAC2
:10971000BFDF40E054E482019301080D191D2A1FA8
:109720003A1F40175107A207A30710F428EAB0DF39
:10973000880D991D8130904240F029EAA9DF05C0CB
:10974000881A990A480E591E631E082D092931F1FD
:1097500001E1801600E0900618F080E190E001C081
:10976000C4018C01F201362DDE010F94586220E015
:1097700001C0239530E02817390710F70A2D0B296F
:1097800021F0F50101915F0101C00FEFFE01E20F31
:10979000F31F3081301769F300E001C001E06096EB
:1097A000ECE00C94F12610E020E030E04DE00C9469
:1097B000372609E81EE00C94047BBA0140E050E033
:1097C00087CFFECFBA93AA932297A9EDBCE100916F
:1097D000DC1C0023C9F09E0101E21CD09E012F5F1A
:1097E0003F4F0DE117D00881023071F40981002349
:1097F00059F400E11CE420E00D931D932C931A977B
:109800008D010F944D3802C00F9433572296A991C1
:10981000B991089510E00C94DA940091DC1C08953D
:1098200008950D94CA600E94E626502ED9016AD090
:10983000452D64D0402E00E4501608F026D09D013E
:10984000052DA1D00023F1F49D010DED1CE10E9436
:10985000314D002371F448E050E020E030E08D010C
:109860000E5F1F4F0F9486629D010DED1CE10E945B
:10987000D44CA80FB91FFD0102810429028339D0FD
:1098800004290283E6E00C94F72603E010E8EEEEEC
:10989000FCE1008311830C94DD4D0E94E626B02F7D
:1098A000290130D04B2F2AD0A02FB03408F0EDDFA3
:1098B00092010B2F68D00023D9F00A2F0095480E93
:1098C000591EF201128110231283EDEDFCE107C055
:1098D000F801E80FF91F22812A2351F4F8010081D1
:1098E0001181202F212BA1F7A09503D00A230283F9
:1098F000C9CFFC01E352F34E02810895477001E0A5
:109900000C94B825069506950695802F90E008954D
:109910000E94E426A02F3901F5DF4A2FEFDFB02F98
:10992000A03410F004E0B2DFE4DF0B2319F1EDED19
:10993000FCE11BC0F201E80FF91F02810B23A1F02B
:10994000F20142855385648540305040604011F4F7
:1099500005E09CDF372DF201028513852485F8018F
:109960002CBF262D0A2F1995F20140805180042D1D
:10997000052901F7E8E00C94F5260BD0F0E0E02F84
:10998000E352F34E0BC005D010E0200F311FF90158
:1099900005C0402F069506950695089502814770EB
:1099A0000E94BD25017008950E94E826C801D901D2
:1099B00058D0002300E049F010E8EEEEFCE100830F
:1099C00011830E94C34D00E011C00D930C931197B9
:1099D000FC0100811181012B31F0008102C0008166
:1099E000132F16D0E1F7A083B18301E0E4E00C94DB
:1099F000F926BD010DD041F02081D9014D915C9136
:109A000040835183890102C000E010E0DB0108952A
:109A1000F80120813181232B0895BD01422F432B72
:109A2000F1F0F801408151814217530731F4DA0116
:109A30002D913C912083318310C0FA0101C0F801BF
:109A40000E2F0F2B61F00081118102171307B9F758
:109A5000D8010D911C910083118301E001C000E049
:109A6000D5CFF80100811181402F412B29F0021739
:109A70001307B9F701E0089500E008950EE81EE02D
:109A80000C94679CF80102811381202F212B09F48B
:109A900025D00F944E6301E00093950E0EE91EE071
:109AA0000D94665ABA93AA93ABE9BEE00091950E65
:109AB000002389F00EE91EE00F948B5A02E41DE4A6
:109AC00020E00D931D932C931F9700E00093950EBB
:109AD0008D010E94679CA991B99108959A938A93E8
:109AE0000F94AE5AC8010E9448A720E032E0239F9D
:109AF000F801E00DF11D40815181842795272395C0
:109B00002430A8F38C018991999108950E94E02650
:109B10002801CA01DB0138018824992409C00F9467
:109B20008F62F301019311933F0101E0800E9A1CB3
:109B3000AA24BB248C019D0136952795179507957E
:109B400080169106A206B30650F380FB4EF40F94E4
:109B50008F62480E591E1FEF410E511EF201008305
:109B600000E010E0ECE00C94F1260EE91EE00D940C
:109B70008B5A40E000301407240721F007D00483FB
:109B800015832683089502D002E003C0E7EEFCE1CE
:109B9000089510E0008311830781108502831383E9
:109BA00044815581668100E040305007600721F014
:109BB0008F01FA016CBF19950895E8DF03E0E9CF42
:109BC000BA93AA93F801218332834F3748F001E01A
:109BD00010E8EEEEFCE1008311830E94C34D1EC02D
:109BE00010811170440F142B108351870A8100FBE0
:109BF000008100F9008363837483A181B28134E022
:109C000003C000E013960D930181128120812695F7
:109C1000239F000D111DA017B10798F3A991B991C9
:109C2000229608950E94E526D8012901642E80E03D
:109C300090E03FD0FD012181328189010AC0582F77
:109C4000592B21F0FC015381451708F4C8010C5F22
:109C50001F4F4C91469554E0459FA90169D070F47F
:109C6000F8014381442359F36081718164157505BE
:109C700031F75281561519F700E018C00C9100FD1C
:109C800009C0082F092B21F0FC010381002329F0D2
:109C900002E00CC0082F092B41F0FC0140825182E8
:109CA0006282FD010185FC01038301E0E7E00C9481
:109CB000F6260E94E62628010F94AE5AC801D90163
:109CC000F2014581568167817085041B150B260BB7
:109CD000370B4381548160E070E00E9441260F3FC2
:109CE00010402040304020F4202F002311F41DC0EC
:109CF0002FEFE42D0181128164E005C03381341B14
:109D000033830C5F1F4FF2014181528130813695C0
:109D1000369F0ED030F4F8014381241778F7422F94
:109D2000EDCF85839683A783B087E6E00C94F72672
:109D3000400D511D0417150708950C94524D0C94B5
:109D4000C0880F9453580E945995002311F402E0E3
:109D500008952FB7F89418D0006116A705A72FBF54
:109D600001E0089516D020E030E00BE20E94884C1C
:109D700008D011F40E94E24B04D009F0F1CF00E0CA
:109D8000089502D0012B0895ECEAFEE005A516A582
:109D90000895BA93AA9320E0ECEAFEE0422F01E096
