S02B0000416C6C5F4D65676152665F41746D656761323536726672325F384D687A5F4763632F4578652F417000
S2840000000C949F260C9473F00C949FF00C94CBF00C94F7F00C9423F10C944FF10C947BF10C94A7F10C94D3F10C94FFF10C94E6260C94E6260C9484EC0C94E6260C94DAEC0C94E6260C94E6260C94E6260C94E6260C94E6260C94E6260C94E6260C94E6260C942AF30C943DEF0C94E0EE0C940FEF0C94E6260C94BBF20C9492F20C94E626FE
S2840000800C94E6260C94E6260C94E6260C94E6260C94D7EF0C947AEF0C94A9EF0C942BF20C94E6260C94E6260C947CDE0C94DFE00C94E6260C94E6260C94E6260C94E6260C94E6260C94E6260C94E6260C94E6260C94E6260C94E6260C94E6260C94E6260C94E6260C94E6260C94E6260C94E6260C943BE10C94E6260C94E6260C9463E17E
S2840001000C94E6260C94E6260C94E6260C94E6260C94E6260C94E6260C94E6260C948BE10C94E6260C94E6260C94E6260C94E6260C94E626000000000000000000000000000000000000000000000000000000000000000000000000000000000000000000000000000000000000000000000000000000000000000000000000000000005E
S2840001800000000000000000000000000000000000000000000000000000000000000000000000000000000000000000000000000000000000000000000000000000000000000000000000000000000000000000000000000000000000000000000000000000000000000000000000000000000000000000000000000000000000000000FA
S284000200000000000000000000000000000000000000000000000000000000000000000000000000000000000000000000000000000000000000000000000000000000000000000000000000000000000000000000000000000000000000000000000000000000000000000000000000000000000000000000000000000000000000000079
S2840002800000000000000000000000000000000000000000000000000000000000000000000000000000000000000000000000000000000000000000000000000000000000000000000000000000000000000000000000000000000000000000000000000000000000000000000000000000000000000000000000000000000000000000F9
S284000300000000000000000000000000000000000000000000000000000000000000000000000000000000000000000000000000000000000000000000000000000000000000000000000000000000000000000000000000000000000000000000000000000000000000000000000000000000000000000000000000000000000000000078
S284004400940E16001900870C03001800C307BD001700361301001600EA13080015007713010014006E1302001300DA13010026007D1301001E006D1301000F00F41301000E00DE1301000D00E61302000C00371301000B00311302000A005413110009004A1301000800491301000700481301000600DB1301000500E413010004002C137A
S284004480040003006513080002002A13010001000E1308000000744712002E00984715002D00C24719002C00F44704002A00FC4711002900BE4FDB4EFC4FFC4FFC4FE04EEA4EFC4FFC4FF24EF74E1F4F284FFC4F2D4F354F3F4FFC4F484F4D4FFC4F564F914FA34FFC4F964F9E4FBE4FBE4FBE4FB54FB54FB54FB54FB54FB54FB54FB54F7C
S284004500B54FB54FB54FB54FB54FB54FB54FB54FB54F694FB54FFC4FFC4FFC4FFC4FFC4FFC4FFC4FFC4FFC4FFC4FFC4FFC4FFC4FFC4FB54FB04FBE4FB54F634FA84FC04FBE4FD74FE54FEC4FBE4FBE4FBE4F5851C5509F519F519F51CB50D05073519F51D350D650E750EC509F51EF50F250F5509F51FA50FD50735102514C5161519F51DB
S2840045804F515251C9505551555173517351735173517351735173517351735173517351735173517351735173517351325173519F519F519F519F519F519F519F519F519F519F519F519F519F519F51735169516C5173512A5164517B5184517E5181519F51925197519D51A452A652B152A852AA52AC52AE528352B452B6528352B952E1
S2840046000E531153155318531C5320532353275327538357C157C157C1578A57A75798579F57D2579157AE57AE57B557C157C957CD572D5830583358335835583F5839583C584C5837584258445846584958355A385A595A3B5A3F5A595A435A595A4E5A515A575AC05D6D5E7C5E7B5DC35EC35E785E7C5E815EAF5E985EC35EC35EAF5E0E
S284004680AE5DB15EC996D196E8965A975A97B196BE965A975A975A9708971797349740975A97AE96DC967A96479B479B709A789A789A859A859AA29AA29AA29A009B009B009B9B9B479B46A998A96CA970A970A970A970A970A974A974A9D3BCD6BC77BD77BDDBBC77BDE5BCCEBDCEBDCEBDCEBDCEBDCEBDCEBDCEBDCEBD77BD77BDCEBDCD
S284004700CEBCE0BC77BD54C8A2C8A2C8A2C8A2C8A2C891C87BC899C8A2C88BC8A2C895C89DC878CA53CB30CC5BCC9ACCC6CD0FCEF1D3F1D3F1D3F1D3F1D3F1D3F1D3F1D3F1D346CD54CDF1D3F1D37BCD12CCF9D501D613D61CD61ED620D622D625D6F8D670D770D71ED727D737D740D743D746D749D74FD70000010002000300040005004A
S28400478006000700080009000A000B000C000D000E000F001E00180000000100020003000400050006000700080009000A000B000C000D000E000F001E00130014001500160000000100020003000400050006000700080009000A000B000C000D000E000F001E001300140015001600170018001900260013001400150016000000010084
S284004800020003000400050006000700080009000A000B000C000D000E000F001E002C060000C30700001D07000080080000B707000000000000AA080000140E00006C0E0000BE0B0000100C0000DA0B0000470C00008A0C0000CE0D00000000000000000000870C0000940E00000000000000000000000000000000000000000000000027
S28400488000000000000000000000000000000000000000000000000000000000000000000000AA0E0000D20E0000B1060000A64A0200AA4A0100AD4A0100AB4A0200B04A0100B14A0100B24A0100B34A0100B44A0100B54A0100B64A0200AE4A0200B84A0100B94A0100D24A0200C34A0100C44A0100C54A0100CE4A0400BA4A0100BB4A29
S2840049000400BF4A0100C04A0100CA4A0100CB4A0100CC4A0200000000000000000000000000000000000000000000000000000000000000000000000000000000000000000000000000C14A0100C24A0100D44A0100D54A0100D64A0100D74A010000000000C64A0400A84A02000E13080018130100261304002A1301002C130400E2132B
S2840049800100E3130100EA130800E61302006E13020077130100DE130100F4130100E413010033130100341301003513010036130100311302003713010038130100E0130100DF130100E9120100EA120100651308004B130400401304004413040048130100491301004A13010054131100DB1301004F13010050130400D8120100EB1217
S284004A0002006D130100301301000000000000000000D91201000000000000000000000000000000000000000000000000000000000000000000000000000000000000000000391305003E1301003F130100000000000000000000000000000000000000000000000000000000001A1301000000000000000000000000000000000000005A
S284004A8000000000000000000000000000000000000000000000000000002B130100201301001913010085006C0001000007050007040205040204000308FF140000000108030303020A901A00000100000000000303141061620003001E000003F400800000013412000303000002000000000003034C1D000010270000010001E80300A9
S284004B000004E80300001041746D656C202020202020202020202007CAAAAAAAAAAA1A0002030100000000000000000000000000000005FF0000000000000000000000000000000000000000000000000000000000000000000000000000000000000000000000000000000000000000000000000000000000000000000000000000000097
S284004B8000000000000000000000000000000000000000000000000000000000000000000000000002010002020508080000FFFF341200000000000000000202018540E44500000000000000000000000002037DE17701074B988D7201014B988D720101C27CF48F0101477C539F0101477C229F0107FC7B7D720101A47B6F850101000030
S284004C00000001070000000001010000000001030000776A01040000776A010500000000010600000000010D0000000001014B980000000100000000010E00000000010700000000010A00000000010000000000010100000000010100000000000000006A76000900006A76000C00006A76000000006A76000579D77E0A96CEA80A7540F5
S284004C809C1A7AC07A90737D81C687A3767C9FA1790F74F87200000000C2724581000000002C683C6BC2689768BB68000033684168B0683A68326BEA672E6A356AA46A266AC96800008C6B02010203030202010101010101010101020201010102010202020202020102020202020201030302020305A7319DE895649E000067A5E78E1E71
S284004D00AA0000000050B76BBC26C633BF01D405C5EDE2EDE2EDE2EDE25FE427E2B0F355EC90DFCEDEEAEA8AED8EEA1BE996E7EEE240E46CE57FE33EE46AE57DE300112480915618823159F084B780FD04C08F718093561807C081E08093561803C081E18093561814BE8091600088618093600010926000E7E5F8E18DEC01C0819390E78F
S284004D80E030F907D9F3D0F311241FBEC0E0D0E7DEBFCDBF00E00CBF12E0A0E0B2E0E4EFFBEE01E00BBF02C007900D92A43FB107D9F728E1A4EFB2E001C01D92A635B207E1F70E9451310E946731FDCF0C9400007F937FB7F8949D9AA5988AEF4DD08AEF4BD09D9886E448D081E0959980E08F9380EF42D08F917FBF7F9108957F937FB722
S284004E00F8949D9AA59886E037D09D988AE034D0889495990894881F8F9384E62DD08F917FBF7F9108959F937F9398E0E7DF879577959A959923D1F7872F7F919F9108957F937FB7F894A5989D9A8F9386E014D08F91879508F49D988F9384E60DD08F919D987FBF7F9108959F9398E0E9DF9A959923E1F79F910895000000000000000040
S284004E808A958823C9F708955F937F937FB7F894CF93DF93C0E0D0E07F935091B2007091B2007517E1F3739521965091B2005717D9F77F91CE01DF91CF917FBF7F915F91089582E0809345032FB7F8948091940490919504906190939504809394042FBF0895FC018785811112C064E473E081E290E00E94803280914403811104C06DE02B
S284004F0087E992E0EBD181E00E94B13104C067E085EA92E0E3D12FB7F8948091940490919504906190939504809394042FBF0895CF93DF93EC0180E00E94B13183EA95E00E9475E26CA18EA19FA1C8D162E08AEA92E0C4D1DF91CF91089580E00C94BD31089581E00C94BD310895FC018081811116C081E00E94B13185E795E00E9475E256
S284004F8085E0809345032FB7F8948091940490919504906190939504809394042FBF0895CF9380914503823009F4B8C0A0F4882309F443C0813009F0C6C081E797E290934303809342038CE293E00E944DC583E080934503B8C0833009F46EC0843009F0B2C081E090E09093E2058093E10582E08093D5051092D7051092D60521E02093A7
S284005000E00582E193E09093E9058093E80586E090E09093E7058093E6052093E50585EB97E29093ED058093EC0585E08093450380EB95E00E9475E264C021D184EF91E0A0E0B0E080937B0590937C05A0937D05B0937E05C1E0C0937F0521EB37E230938105209380058093A9059093AA05A093AB05B093AC05C093AD058DEA97E29093E8
S284005080AF058093AE0588EB9BE0A0E0B0E08093B6059093B705A093B805B093B9051092BA0581E697E29093BC058093BB050E94C931C093450325C081E090E0909324038093230390932203809321038093200380912503807F81608093250380E293E090931C0380931B0388E997E290931E0380931D0388E193E00E946E4185E08093D6
S28400510045032FB7F8948091940490919504906190939504809394042FBF15C08AE58093120389E68093130387E68093140382E48093150385E680931603809317038DEB95E00E94FF3DCF9108950895089508950895CF92DF92FF920F931F93CF93DF93E42FF0E0F09042042AEF30E02F1931092E173F0734F15091410420E030E0EC01E9
S284005180C60FD11D0AEF10E02E173F07ACF4852F90E0BC016A5B7C4F6B01BE01620F731FDB015C91D6015C932F5F3F4F0196B8010E9479F4582FE8CF50934104F40EF0924204DF91CF911F910F91FF90DF90CF9008951F93CF93DF93109275041092760410914204112309F446C080914004E3E4F4E01333E0F4212F30E0CAEFD0E0AF0182
S28400520043545440421753075CF490E0DC01AA5BBC4F4C9141930196BE010E9479F4EFCF80934004109375041092420418C02AEF30E090E0DC01AA5BBC4F4C9141930196B9010E9479F494E0E537F90791F78093400482E38093750412531093420481E0809376044091750450E063E474E082E895E00E94D5E5DF91CF911F91089588EC83
S28400528080938D0510928E0589E190E09093900580938F0586E08093910510929205109293051092A2051092970510929605109299051092980510929B0510929A0510929D0510929C0589EE98E29093A1058093A00582E895E00C9476E50895462F20917604222319F060E034CF0895FC01A3E4B4E0633370F4862F90E09D012354344050
S284005300281739071CF421912D93F7CF409375040CC021912D9324E0A537B207D1F722E320937504425362E314DF81E0809376044091750450E063E474E082E895E00C94D5E50895A2E0B0E0E8EAF9E20C94FDF46C010091F3051091F405E12CF12C8091F7059091F805E816F906A8F45801B8016C5F7F4F42E050E0CE0101960E94C3F514
S2840053800A5F1F4F29813A812C153D0539F08FEFE81AF80AE4CF80E090E001C0C5012296EAE00C9419F5ADE0B0E0E9EDF9E20C94FFF47C016B0123E0969587952A95E1F7FC01ED50FA4F228D30E0B70167707727062E02C0369527950A94E2F78E010F5F1F4F20FF42C027E0EDE0F6E0D80101900D922A95E1F7A0E020E030E04A2F50E067
S28400540048175907D8F4F801E40FF51F4081542F569555754575540F452F4695469543735373450F4083E42FEF7042954F7050E04E0F511D240F351FAF5FE0CFE0E0D801A80FB91F4E2F50E04617570780F44C9150E00E2E02C0569547950A94E2F741705527240F351FEF5FEDCF2FEF3FEF1B870A8746E0429FC001439F900D11240496E2
S2840054809987888786E090E09D878C8765E87BE2CE01089672D18D819E81E816F90639F084E090EA9093270680932606E1D589819A81F601918380832D96E8E00C941BF5A6E0B0E0E6E6FAE20C9401F57C018B0180E090E0FC0133E0F695E7953A95E1F7EE0DFF1D6081AC0147705527262F30E0042E02C0369527950A94E2F720FF0DC027
S28400550021E030E001C0220F4A95EAF720952623208318DF009731F431C0019683339105C9F62CC046E050E0BC01CE0101960E94C3F589819A81F80193838283B8018D819E8131DFF801808191810596918380838B819C819583848382819381892B39F480E090EA909327068093260681D58D819E81F7019087878381E006C08FEF9FEF58
S284005580F7019087878380E02696E6E00C941DF5A8E0B0E0EEECFAE20C94FBF47C01A090F505B090F605FC01868182FD09C000E010E0812C76E0972ECC24C394D12C0CC047E050E06FEF70E0C7010E94F3F56DC0882483940F5F1F4F8091F9059091FA050817190708F05BC0909EB001919E700D11246A0D7B1D46E050E0CE0101960E94F5
S284005600C3F52D813E81F90163E0F695E7956A95E1F7EE0DFF1D408127703327842F90E0022E02C0969587950A94E2F780FFD2CFC60102C0880F991F2A95E2F79C01209524232083812C882D90E02B813C818217930708F0BDCF880F991F69817A81680F791F42E050E0CE0107960E94C3F58F819885FC0153E0F695E7955A95E1F7EE0D0A
S284005680FF1D87709927960102C0220F331F8A95E2F7C9019081982B90838394D4CF882021F000E010E0812C97CF2896ECE00C9417F5CF93DF93EC018FEF9FEF98878F8387E0FB01DE0101900D928A95E1F7CE015FDFEDE0F6E0919188818923899386E0E431F807C1F7DF91CF9108958091210690912206A7C2089510921E0686E79BE2E1
S2840057009093200680931F0608950895E6E0F6E0DC013D91CD012081232B2193B6E0ED30FB07B1F78091230684608093230608950E9414E9882311F0DFD5FACF0895A2E0B0E0E5EAFBE20C9403F58B0189839A83EFDFB80189819A810E9437E8019631F08BE20538180721F4E3DF02C081E001C080E02296E4E00C941FF5A2E0B0E0E3ECD3
S284005780FBE20C9403F58B0189839A83D1DFB80189819A810E94C4E7019631F08BE20538180721F4C5DF02C081E001C080E02296E4E00C941FF5A2E1B0E0E1EEFBE20C94F8F480912306982F92609093230682FF0AC066E076E087E794E06BDF809123068B7F80932306CC24C394D12C7E013DE0E30EF11C55E0A52EB12C4E0182E1880EC9
S284005800911CBE01695F7F4F87E794E059DE882309F462C060907E0470907F04F30163E0F695E7956A95E1F7ED50FA4FC30187709927960102C0220F331F8A95E2F7C901809593898923838BFC82EB82BE82AD828F81988505979A83898365E87BE2CE0101968BDF4B855C8569857A8580E05ED0582E8D8558123AC088899989681679068C
S284005880A9F52B853C858E859F852817390771F59C828B82DE82CD8200E010E02B853C850217130708F0ADCF2F813885200F311F3A83298365E87BE2CE0101965EDFAB81BC81E985FA85E00FF11F9C91808198130DC00F5F1F4FE2CF809123068D7F8093230660E070E08FE001D21CC05D86798A688A8B859C859F878E87FC82EB8285E0C8
S28400590090E09E838D838F81988505979A8389836BED7BE2CE01079612DF65E87BE2CE0101960DDF6296EFE00C9414F5FB01460F571FE417F50719F09191890FFACF08954F925F927F928F929F92AF92BF92CF92DF92EF92FF920F931F93CF93DF93CDB7DEB762970FB6F894DEBF0FBECDBF80E094E49093F4058093F30586E994E49093F5
S284005980F6058093F50506E914E400501444C80166E070E00E9465F4892B39F080E290EA909327068093260663D326E030E0C801B9010E9465F44091F7055091F805642B752B7093F8056093F70504EB14E406591444C801B9010E9465F4892B39F081E290EA909327068093260642D3C80166E070E00E9465F48091F9059091FA05682B40
S284005A00792B7093FA056093F9050091F3051091F4051092FB051092FC051092FD051092FE0587E0EDE0F6E0DF011D928A95E9F7D12CEE24E394F12C8091F7059091F8052D2D30E028173907C8F546E050E0B801CE0101960E94C3F52B813C812B5F3F4F8091FB059091FC05A091FD05B091FE05820F931FA11DB11D8093FB059093FC05CD
S284005A80A093FD05B093FE058D819E81FC0133E0F695E7953A95E1F7ED50FA4F87709927970102C0220F331F8A95E2F7C901928D982B928F0A5F1F4FD394BECF26E0289F6001299FD00C112434E0C30ED11CE12CF12CCE010796988B8F8786E090E09A8B898BA12CB12C00E010E096E0792E22E2822E20EA922EF80183E0F695E7958A9543
S284005B00E1F7ED50FA4F828D90E098012770332702C0969587952A95E2F780FF41C07A9CC0017B9C900D112404969E878D8765E87BE2CE010D9621DE8B859C858017910749F48F819885A985BA858C159D05AE05BF0559F01C870B87CF82D886E986FA8665E87BE2CE010D96EADDC801EBDB2C01009729F4909227068092260679D246E08C
S284005B8050E0B201CE0101960E94C3F58B819C810596C80ED91EE11CF11C8FEFA81AB80A0F5F1F4F0333110509F0A5CFA5DD62960FB6F894DEBF0FBECDBFDF91CF911F910F91FF90EF90DF90CF90BF90AF909F908F907F905F904F90089520E0FC013191CF01311105C02F5F2730C1F780E0089581E0089527E0FB0111922A95E9F7FC0148
S284005C0023E0F695E7952A95E1F7E60FF71F8770992721E030E001C0220F8A95EAF78081822B8083CB01B4CC0895ADE0B6E0FC013D9120812323219326E0A431B207C1F7CCCF0895A7E0B0E0E8E2FEE20C9404F5BE016F5F7F4FCEDFCE010196E6DFCE010196BBDF182F882339F0CE0101964EDD8091230681FF9FDD812F2796E3E00C94D3
S284005C8020F508950895A2E0B0E0E9E4FEE20C9405F5809180048823E9F0BE016F5F7F4F81E290E02DD4BE016E5F7F4F8DE190E027D48981823071F48A8181110BC082E49EE2909389048093880481E894E00E94E1C102C00E94E3DF2296E2E00C9421F58091800408950C9413EB0895A0E0B0E0ECE7FEE20C94FDF4B82E7B01082F10E0FD
S284005D0093E0169507959A95E1F78770C1E0D0E001C0CC0F8A95EAF7AC2E8FE38B1538F484E090E89093270680932606A1D1F801E657FB4F80818C2311F1C0919204D091930485E0C82E80E8D82E2097C1F0FE01E00FF11F82818A2171F02A853B85232B29F4D0922706C092260682D1EA85FB85B7018B2D19950990D881C02DE6CFCDB7D6
S284005D80DEB7EAE00C9419F5E82FF0E023E0F695E7952A95E1F7E657FB4F208130E0877041E050E002C0440F551F8A95E2F72423352381E0232B09F480E00895282F30E043E0369527954A95E1F7620F731F877021E030E001C0220F8A95EAF7FB019281922381E009F480E008951F93CF93DF93182FEB01803438F023E030E8309327063C
S284005E002093260635D1BE01812FD8DF81112AC0BE0182E994E09AD081110BC088E0FE013296DF011D928A95E9F7BE0182E994E09DD0412F50E063E0569547956A95E1F7177021E030E001C0220F1A95EAF7C40FD51F8A81822B8A83FA01E657FB4F8081822B8083DF91CF911F9108951F93CF93DF93182FEB01803438F023E030E830937F
S284005E80270620932606F4D0BE01812F97DF882369F1212F30E073E0369527957A95E1F7177041E050E0012E01C0440F0A94EAF7942F9095C20FD31F8A8189238A83E0919204F0919304309759F0DF01A20FB31F12968C91842351F40190F081E02DF3CFF901E657FB4F808189238083DF91CF911F910895DC01ED91FC911197309721F0EF
S284005F00208131812D933C93CF01089561157105A1F0DC01ED91FC911197E617F70759F4208131812D933C930FC0808191818617970729F0FC013097C1F780E00895DB018D919C919183808381E00895DC01ED91FC91309739F0E617F70731F00190F081E02DF7CF80E0089581E008950F931F93CF93DF938C01EB01E9DF882349F080E03A
S284005F8090E890932706809326065AD080E014C019821882D801ED91FC911197309719F4CD93DC9308C080819181009711F0FC01FACFD183C08381E0DF91CF911F910F910895CF93DF93FC0182819381009781F40E94C7E2C22FD32F0E94A45144E0FC0121913191CF01C227D3274150C1F7CE010E94B8F581E0809306028EE092E00E946F
S28400600075E2DF91CF91089580E092E00C941552089580910602882369F08EE092E00E94A5E281EE9FE290930D0280930C0210920602EACF08958EE092E00C94A5E2089582E090E09093290680932806809126069091270690932B0680932A06E0912406F0912506309719F088E296E01995089583E090E090932906809328068091260668
S2840060809091270690932B0680932A06E0912406F0912506309719F088E296E019950895EF920F93FC01618372834F3740F081E090E89093270680932606C2DF20C0403808F04FE7440F808181700187842BE0FA80F9808334832383CB01AC016081669504962181328174E0679F200D311D11244217530720F4DC0111971C92EECF0F9162
S284006100EF900895A0E0B0E0E8E8F0E30C94FEF4EC018B01B42E0E94C7E269017A018D819E81AF81B885A7019601281B390B4A0B5B0BCA01B9012B813C8140E050E00E948CF42F3F31054105510518F42223F9F001C02FEF89819A81BC0138813695049649815A81E4E03E9F400D511D11246417750748F4FC013291432F231708F4422F18
S284006180341B3083E9CFCD82DE82EF82F886A981BA814881842F86959D0154E0859F200D311D1124C901E0E0F0E0A817B907C0F413965C911397552359F02D913C9111972017310729F412962C9112972B15C1F0309719F02381521708F4FD011496E5CF40FD06C0309771F0838181110BC002C0309751F011830083B2828985838304C0A6
S28400620080E003C082E001C081E0CDB7DEB7E9E00C941AF5FECE08950895CF93DF9360911B0270911C0280E090E0E1E0F0E09F01082E02C0220F331F0A94E2F740919404509195044623572342235323452B11F16FB7F8944091940450919504209530952423352330939504209394046FBFFC01EE0FFF1FE355FD4FC081D181209739F43E
S28400628086E090E89093270680932606F1DEFE01199504C001968F30910549F6DF91CF9108950E946EE00E9431B1882371F02FB7F8948091940490919504806190939504809394042FBF81E0089582E00895A5DF60E070E08BE20ADD8091940490919504892B09F4D0DC209194043091950481E0232B09F480E0089590CF0895FC012081BE
S284006300211105C021E02193CF010C9475E20895FC012081213021F41192CF010C94A5E20895A5E0B0E0E7E9F1E30C9401F57C012A833B834C835D836983EADFF7011082698163872A813B814C815D812783308741875287158704872596E6E00C941DF50895813031F018F0823029F008952F9A08952E9A08952C9A0895813031F018F07F
S284006380823029F008952F9808952E9808952C980895279A269A249A2F9881E0EEDF82E0ECDF80E0089589E3EDEEF2E1DF011D928A95E9F7EEE0F3E191E090838AE081831282138287E0848315821682178225E020931813909320138093191347E850E066E37BE48EE693E10E94C3F543E150E063E27BE48AED92E10E94C3F543E050E0BF
S28400640060E27BE487ED92E10E94C3F548E450E068ED7AE486E293E10E94C3F58BEA9CE0ECE2F6E0DF019C011D9221503040E1F70895A4E0B0E0EFE1F2E30C9405F5BC011A8219821C821B828827811521E0920769F0811522E09207B9F0892BE9F4660F771F660F771F6659764B07C07727660F771F660F771F6255774B44E050E0CE0107
S28400648001960E94C3F50FC07727660F771F660F771F625E774BF1CF8AE090E69093270680932606E5DD69817A818B819C812496E2E00C9421F577DF43CA0895A4E0B0E0E4E6F2E30C9401F57C018B01B2DFEE24E11422E0F20669F026E030E6309327062093260669837A838B839C83C1DD7A816981F801718360832496E6E00C941DF5AD
S284006500A4E0B0E0E6E8F2E30C9401F58C017B0190DFE114F10479F420E030E6309327062093260669837A838B839C83A1DD9C818B817A81698100270115110549F0011521E0120751F4AC01C7010E94C3F50CC0AC01C7010E94D9F507C081E090E6909327068093260684DD2496E6E00C941DF5A0E0B0E0EEEBF2E30C94FFF48C01EB0168
S28400658058DF6B017C01209739F484E090E690932706809326066CDD00270115110539F085E090E6909327068093260661DDA701BE01C6010E94D9F5CDB7DEB7E8E00C941BF5FC0195A5892F887090FF09C0882379F081E021A532A52236310550F408C0882331F081E021A532A52436310508F480E08170089521E030E001C0220F8A953C
S284006600EAF780919904822B809399042FB7F8948091940490919504806290939504809394042FBF0895CF93DF93E091FA13F091FB138E179F0718F482E894E446C08E1B9F0B6CE670E00E9465F48091F513681718F083E894E439C08CE6689FE00DF11D11248781869590E08230910559F014F00397D1F58091F9138823B1F18150809375
S284006680F91332C08091F813882319F081508093F813DF01AC5ABF4FCD91DC912091FD133091FE13CE01821B930B63E270E00E9465F4C217D30718F484E894E406C08091F613681740F085E894E49093270680932606B6DC0CC0D90183E2689FA00DB11D11248C9181111C9287818E7F8783DF91CF910895CF93DF93EC0118A68EA19FA11B
S284006700892B39F484E494E49093270680932606AFDCEEA1FFA1CE0188961995DF91CF910895EF92FF920F931F93CF93DF93A091F5134091FA135091FB1320E030E090E09A1709F45AC0FA01E20FF31FB90164597F4FB781B0FD63C07F0194E5E90EF11CD7011D921C928230B1F010F08330F1F59091F9134091F713941708F03EC09F5F6A
S2840067809093F913138214821582168290859F709087128235C01091F8139091F613191760F50091FC134091FD135091FE1390E09017B9F0EA014D5D5F4FBA0163527109DB016C9161110BC01F5F1093F81341E048836896D701CD93DC93428302C09F5FE7CF4091FC1349130BC007C081E894E490932706809326063BDC80E090E012C087
S2840068009085907F9087880F81608783118210828091FA139091FB13820F931F03C09F5F9B018ECFCDB7DEB7E6E00C941DF52091AA0421502093AA04BC0184EC94E096DB81E0D9CE0F931F93CF93DF938C01C0919A04D0919B04809196049091970480519140813F954048F4B8018AE994E07EDBCD2B59F480E0BFDE08C083E694E4909386
S284006880270680932606F4DBEFCFDF91CF911F910F910895BC016151710986EC94E066DB81E0A9CE2091AA042F5F2093AA040C94AB916F927F929F92AF92BF92CF92DF92EF92FF920F931F93CF93DF931F92CDB7DEB78C017B01FB01E25AFF4F87E194E3918380833E9782E08083D80159968D919C915A973196918380839E968C919E97F9
S284006900379680833196108231969D968C919D978095881F8827881F8083319681E08083319680839D968C919D9786FD0BC021E059968D919C915A97883F9F4F08F020E0822F01C081E0F701E35AFF4F81708083C80137DEF701ED5AFF4F6F0197012C5A3F4F3901882309F442C09090A7144091A814242F30E08091AB1490E00197281752
S284006980390739F4D80199968C91499D80191124982EA92CB12CC5014E968236910538F081E594E4909327068093260661DB3091A7142091A8148091BD149091BE14F80163A574A5329F600D711D1124A5014E960E94D9F58AE0890DD6018C938091BD149091BE144496F301918380830EC0D80199968C919997885F80839B968D919C91FF
S284006A009C970897D9018D939C93F301C080D180D6012C912C7F2F7E2C93F801818D928D237F883F9F4F10F02860D6012C93F60180818F7D8083D8019D969C9192FD03C08F7B808322C08064F6018083D70118962C911897207F216018962C93C8012983B0DD29812F70882341F08091AD148295807F822BF701808708C08091D8128295D8
S284006A80807F822BD70118968C93C8019ADDF60190818823A1F0906890839091A81480858C7F911106C0816080878091AB14818709C0826080878091A814818703C09F77F6019083D80193968C919397F601818396968D919C9197979383828394968D919C9195979583848398968C918683C80168DD882331F08091AC14D60117968C93CC
S284006B0008C08091C10491E0980F9093C104F6018783C7010996C6DE80E00F90DF91CF911F910F91FF90EF90DF90CF90BF90AF909F907F906F900895E091BB14F091BC14BF0180819181B5CEEAE9F4E1F0936B14E0936A1492E09093661420910D1430910E1430936814209367149BE09093691410926E1410926F1491E0909370149093B1
S284006B807114109272142AE038E3309375142093741490937314908190789260906890839091141490939B14209110143091111430939D1420939C14209112143091131430939F1420939E1490910F149093A014909115149093A11492E09093A21490910B149093A31490910C149093A4149091A5149093831410920614109207141092C3
S284006C000814109209148093FF138FE194E14ACEA4E0B0E0EEE0F6E30C9403F5182FBE016F5F7F4F8AE190E06BDC2091AF043091B0044091B1045091B204A12FB0E00E94E5F409811A812B813C81600F711F821F931F2496E4E00C941FF50F931F93CF93DF93EC018C0107551109FC013C970190F081E02D6FEF818192810E94CA8888230F
S284006C8061F0FE01329787E194E39183808323971882C8010E949B9102C0CE01C8DDDF91CF911F910F9108956CEF73E180E191E027DC6DEF73E18EE092E000DC8091FD139091FE1320E03091FC13231748F4FC0133E2239FE00DF11D112410822F5FF3CF65EF73E18FE091E00BDC6AEF73E18DE092E0E4DB2091F513E091FA13F091FB13B3
S284006D0080E0821739F097819E7F97838F5FE459FF4FF7CF9091FC139093F6138093F7131092F8131092F91367EA74E188E291E0E7DB65E074E189E291E0E2DB64E074E188E191E0DDDB80910414882351F060E074E18FE092E0B2DB6DEB74E180E192E0ADDB30910414209105148091001490910114329F800D911D11249093031480933D
S284006D8002141092FF1308956BEC74E082E192E095DB6AEC74E087E191E0B2DB8091CA04E091CB04F091CC04882349F0309739F489E294E4909327068093260641C99F0146E1849F200D311D1124C90128EAE817F90718F4258B7696FACF08951F93CF93DF93EC01162F0097B1F08D819E81892B91F08AE994E07ED81F83ED81FE81CE01D3
S284006E000796199580919A0490919B04892B59F080E0F1DB08C08BE694E4909327068093260626D9E6CFDF91CF911F910895A1E1B0E0EDE1F7E30C94F5F48C01262E29873A874B875C870E9472DEE091B30429853A854B855C85EE2361F13090F513C090B604D090B704E090B804F090B9042B013C014C185D086E087F084D825E826F820F
S284006E807886E091FA13F091FB13198A66246A94762C430169827A828B829C8246015701861A970AA80AB90A8D869E86AF86B88A0BC00BE518E3A3C0A781A0FD09C0A989AF5FA98BE459FF4FB989B311F5CF40C0B085BF70B23099F7AA7FA23081F783809480A580B68081149104A104B10439F3E017F10721F34D805E806F80788448148C
S284006F0059046A047B0468F44D845E846F847888840C951CA61CB71C83829482A582B68204C0138214821582168283809480A580B68049805A806B807C8084149504A604B70408F0BCCF89829A82AB82BC82B7CF211046C08090061490900714A0900814B090091481149104A104B104C9F12B013C014C185D086E087F08481459046A044C
S284006F807B0488F4C80CD91CEA1CFB1CC61AD70AE80AF90AC0920614D0920714E0920814F092091408C0109206141092071410920814109209148091061490910714A0910814B091091449805A806B807C8084159505A605B70520F489839A83AB83BC8389819A81AB81BC81281739074A075B0710F4DA01C9010BE518E39C01AD0161E061
S28400700083EB94E08ED983EB94E078D96196E2E10C9411F58091AA0481508093AA048091FF13833009F43CC0823039F082E594E490932706809326061BD8E091A614EE2379F181E08093FF13A091D912B0E011972AE030E00E94DFF49B01AC018091AB049091AC04A091AD04B091AE04280F391F4A1F5B1FA091D812B0E00E94E5F49B01E1
S284007080AC0160930614709307148093081490930914E150E093A61461E080E090E0C7CE1092FF13109206141092071410920814109209140895A4E0B0E0E1E6F8E30C94FDF42FEF3FEFA90110E0AA24AA94B12C8091F513181708F054C0E091FA13F091FB138CE6189FE00DF11D1124678160FF46C07085872F8F70823009F040C0862FD2
S2840071008A7F8230E1F583819481A581B681C090BA04D090BB04E090BC04F090BD048C199D09AE09BF0983839483A583B6830097A105B105E9F4872F807F846080876E7F663059F4C5010090D91202C0880F991F0A94E2F780958093AA1481E029833A834B835C8348DA29813A814B815C8107C082179307A407B50710F49C01AD011F5F59
S284007180A7CF8091061490910714A0910814B09109140097A105B10551F1C090BA04D090BB04E090BC04F090BD048C199D09AE09BF098093061490930714A0930814B09309140097A105B10559F482E029833A834B835C83B9DC29813A814B815C8107C082179307A407B50710F49C01AD012F3FEFEF3E074E075E0751F00BE518E361E088
S28400720083EB94E08ED883EB94E078D803C083EB94E07ED82496EAE00C9419F5A0E0B0E0E4E1F9E30C94FCF48C01962EC091CB04D091CC048091CA046E0196E1899FC00CD11C1124F8018589811109C07E01F6E1EF0EF11C58018CE0A80EB11C09C085E294E432C08A3A89F06696F6E1EF0EF11CF801CC15DD0508F04AC0908521853285B6
S284007280F70131978081843A69F7F7013E9780819813EACF89859A852817390729F748E050E0B801CE010E94CCF5892BE9F6F8018385F7013B9790818913D6CF813059F0833091F086E294E490932706809326060E9420301DC0F801248535858C859D852817390709F617C0F8019489F701329780819813B9CF48E050E0BE01645F7F4FB6
S284007300C5010E94CCF5892B09F0AECF04C0958A80E090E001C0CE01CDB7DEB7EBE00C9418F5CF93DF93EC010097B1F18AEA8D8B0E94A45148E050E0BC01CE010E94CCF5892B51F582E88D8B888581508E3F20F58B858330C9F48C8981508E3FE8F42C853D854E855F85688979898A899B89A0E00E9460F571F480E194E4909327068093C6
S28400738026060E94203008C0813019F086EA8D8B03C01D8A81E001C080E0DF91CF910895CF93DF93EC01009761F169AB4115510551F0FA0140815181628173814AAB5BAB6CAB7DAB04C01AAA1BAA1CAA1DAAEFA5F8A9309749F484E594E490932706809326060E9420300DC0CE01C1961995CE01E8D8882331F01092BC141092BB1481E008
S284007400FAD8DF91CF910895A1E0B0E0EAE0FAE30C9403F58C01FC01208131818091FD139091FE132817390740F487E494E490932706809326060E943830F801808191812091FD133091FE13821B930B63E270E00E9465F48091F613681750F088E494E4909327068093260669830E94383069818091FD139091FE13F3E26F9F800D911D12
S28400748011242196E4E00C941FF5FC0120814597211107C0BC0188EC94E00E94B62F81E0AAC840E050E069EA7BCFA3E0B0E0EBE5FAE30C9403F58C01675F7F4F7A836983BE016D5F7F4F8EE090E01AD88B81D80199965C9199974091C104882309F442C089819A81FC01E95BFF4F21E0208359962D913C915A973196318320833296585F68
S28400750050839B96ED91FC919C979C01255B3F4F3897D901ED93FC938FEF8183D80196968D919C9197979383828394968D919C9195979583848398968C91868381E0840F8093C1044783D901ED91FC918081807888608F778083E981FA81EB5AFF4F87E194E344C089819A81FC01E95BFF4F22E0208331962DEF3FEF318320833296575F33
S2840075805083D8019B96ED91FC919C979C01255B3F4F3997D901ED93FC93D80159968D919C915A979283818396968D919C9197979483838394968D919C9195979683858398968C91878381E0840F8093C1044087D901ED91FC91808180788C608F778083E981FA81EB5AFF4F8DE296E391838083E981FA81D8019E968C919E97E15BFF4F66
S2840076008083E981FA81E05BFF4F8091D7128083E981FA81EF5AFF4F9D968C918095881F8827881F8083E981FA81EE5AFF4F81E08083E981FA81ED5AFF4F8083E981FA81EC5AFF4F808389819A812CD980E02396E4E00C941FF5DC01ED91FC919093BC148093BB141092A8141092A9148091D8128093AD142091A71430E081A592A5B90147
S2840076800E9465F4462F6093AB1481A592A5B9010E9465F4892B19F04F5F4093AB148FEF90E00090D91202C0880F991F0A94E2F780958E7F8093AA148091C10491E0980F9093C1048093AC140895A0E0B0E0EBE6FBE30C94FCF4EC016B01942E59010091CB041091CC048091CA04780196E1899FE00CF11C1124209761F0C017D107F0F5D4
S28400770083E294E490932706809326060E94383035C0E801CE01801B910B66E170E00E9465F4892B79F084E294E490932706809326060E94383006C01D89143A39F01A3A29F06696CE15DF05B8F313C088859812F8CF89859A85C816D90699F748E050E0B501CE010E94CCF5892B59F7143A49F703C080E090E004C0CE0102C06696CACFAC
S284007780CDB7DEB7EBE00C9418F54F925F927F928F929F92AF92BF92CF92DF92EF92FF920F931F93CF93DF931F92CDB7DEB72C017B010E94A4516C0157018AE6A80EB11CF501008111814114510431F0E114F10419F0C114D10451F484E194E490932706809326060E94203088EA5EC058EAF20166A177A1960140A5C801598366DF8C0173
S2840078005981009709F44FC0F20186899789892B19F5F8017384F3E07F121EC048018CE0880E911CC4010E947DC1892BA9F4F2017286D2011D9688E0F40101900D928A95E1F785E69CE3F201978B868BC20106960E9472C180E028C0F50111830083F80183858330B1F4C8010C960E947DC1009711F459EABCCFF8012489F20123A3FC018A
S28400788080819181F201928F818FB701C20111D80BC0F80184859585F201928F818FB701C20103DE01C0852F0F90DF91CF911F910F91FF90EF90DF90CF90BF90AF909F908F907F905F904F900895FF920F931F93CF93DF938C01055111092091F513C091FA13D091FB13F12CF216E9F08F8180FF16C0888199818017910789F4BE01C80125
S28400790044DF882381F040E050E0682FC80148DDCE010E94133381E00E94FB3204C0F394C459DF4FE1CF8091F513F81640F085E194E490932706809326060E943830CDB7DEB7E5E00C941EF5EF92FF921F93CF93DF931F921F92CDB7DEB77B010097A1F06115710589F0FC01178A168AF701E659FF4F11821082B70108DF182F882389F054
S284007980C7010E9413330DC023E134E4309327062093260689839A830E94383089819A81E2CF812F0F900F90DF91CF911F91FF90EF900895A1E0B0E0E0EEFCE30C9401F58C01262FDC01ED90FC90009709F444C0E114F10409F440C02E3C61F0822F8F7D803D41F0213D11F082E005C0F70185A587FFFACF83E0F801EB59FF4F408151817F
S284007A0062817381D701D2964D935D936D937C93D597D1962C93833071F0D801ED91FC91808D811108C0F701178A168AB801C701ACDE883AE1F4A7014E5C5F4FD701D1966C91F80180819181ABDCC8010E94133381E00E94FB320BC08FE494E4909327068093260629830E9438302981B5CF2196E6E00C941DF5CF93DF93EC0152DC88239D
S284007A8009F454C060E0CE01C9DB892BC1F5209709F43EC08D8981113BC05091CA042091CB043091CC0440E0451781F0C9012A5E3F4FF90131976081683A31F424EAFC01258B009731F432C04F5FEECF8EEA8D8B2DC0209719F03D89332349F087E294E490932706809326060E9420301AC036E1FE01DC0101900D923A95E1F706C066EA85
S284007B00CE018CDB009791F024EAFC01258B09C080E294E490932706809326060E943830BCCF60E070E080E10E94762EDF91CF910895CF93DF93EC010097D9F08091CB049091CC04C817D907A0F02091CA0436E1239F800D911D1124C817D90750F48D89843A11F08A3A71F488EA8D8BDF91CF91089581E294E490932706809326060E947F
S284007B803830EDCF82E294E490932706809326060E943830E9CFCF93DF93EC01C2DB882359F064EACE013ADB009731F0C2DF60E070E080E10E94762EDF91CF9108952091CB043091CC04009751F0FC0176968091CA0496E1899F200D311D112408C0F901F6CF8589843A49F08A3A39F07696E217F307B8F380E090E00895CF010895CF932F
S284007C00DF93EC01BC0188EC94E00E94B62F1F8A1E8A81E00E94FB32DF91CF910895CF93DF93EC01BC0186EC94E00E94B62F1B8A1A8A81E00E94FB32DF91CF910895AAE0B0E0E5E2FEE30C94FBF410911813BE01665F7F4F87E091E00E948032BE016F5F7F4F8AE190E00E948032C980DA80EB80FC80812F90E0A0E0B0E08C159D05AE05E0
S284007C80BF0578F0CC0CDD1CEE1CFF1CC982DA82EB82FC82BE016F5F7F4F8AE190E00E94B832C12ED12C87E0C80ED11CEE24D7FCE094FE2CC092AF04D092B004E092B104F092B2042A8530E0A3E0B0E00E94D0F49B01AC01C701B6010E944AF409811A812B813C81600F711F821F931F6093AB047093AC048093AD049093AE0481E08887D8
S284007D00BE01675F7F4F87E091E00E948032BE01685F7F4F84E290E00E948032898590E0A0E0B0E0880F991FAA1FBB1F8F3F9105A105B10529F020F08FEF90E0A0E0B0E00E940836E885EE2309F45AC0812C912C54018B019C0101501E4F2F4F3F4F800E911EA21EB31E660F771F881F991FE15081F718867501640129E0F694E794D794A0
S284007D80C7942A95D1F7D501C4019170AA27BB2741E050E060E070E0892B8A2B8B2B19F440E050E0BA01C40ED51EE61EF71E1E821D821F82BE01695F7F4F81E191E00E948032BE016B5F7F4F88E092E00E945E32970186010F3F11052105310529F020F00FEF10E020E030E06D817E81C12CEE24E39420E032E04F818CE994E00E94503042
S284007E002A96ECE00C9417F5882331F00E94B5F58093C1041092AA041092C9041092C8041092C7041092C6041092C5041092C4041092C3041092C2048AE090E0A0E0B0E08093B4149093B514A093B614B093B7148CE995E39093BA148093B91481E08093B81410920C141092151410920A14109211141092101410920B1410920F1410926D
S284007E8013141092121410920E1410920D14109214141092FF13109206141092071410920814109209148CE6E6E1F4E1DF011D928A95E9F783E2E2E8F4E1DF011D928A95E9F78091051490E0019620910414289FA001299F500D112460E070E080910014909101140E94F3F58AE994E190936B1480936A14A4CE4F925F927F928F929F9272
S284007F00AF92BF92CF92DF92EF92FF920F931F93CF93DF931F92CDB7DEB77C01009781F02C0127E0421A510880919A0490919B048415950529F4D20112968C91893149F086E694E490932706809326060E942030CBC080919604909197048115B7E09B0709F07FC00091C8041091C9040115110551F088EC94E00E947A2F40E050E063EA76
S284007F80C8010EDAEFCF6CE6C62ED12C7CE6772EE2E4AE2EE4E4BE2EF3E48F2EF4E49F2E0091C4041091C5040115110509F444C0B80184EC94E00E94862F8091FA139091FB13F801E81BF90BCF01B6010E9465F48091F513681740F0B0922706A092260669830E9438306981E091FA13F091FB13679DE00DF11D1124808191812781269555
S28400800030E02130310561F02230310549F2232B61F4A8014B5F5F4FD80112966C9103C040E050E067EABCD9BBCF90922706809226060E943830B4CF10E08091F5131817D8F48091FA139091FB13BCE61B9F800D911D1124FC01278120FD0E9413331F5FECCF8115924041F087E694E490932706809326060E9438301092990410929804FD
S28400808081E0C2DE0E9454360E94C43682E393E09093970480939604D7018C91F20182878AE994E00E947A2FD20118968D919C911997892B41F489E694E490932706809326060E943830D2011896ED91FC911997C7010396199580919A0490919B04892B19F080E00E94FB320F90DF91CF911F910F91FF90EF90DF90CF90BF90AF909F9069
S2840081008F907F905F904F900895CF93DF93C0919A04D0919B04209741F484E694E490932706809326060E9438308A818A38F9F0853C09F44FC0893109F06CC080919604909197048031914019F480E092E002C080E097E090939704809396048BE79FE39E838D83CE0103960E9488A85BC08091960490919704823323E0920719F080311D
S284008180964049F48FE394E0909397048093960456DD1D8202C083EA8D838AE994E00E947A2F8B819C81892B41F48AE694E490932706809326060E943830EB81FC81CE010596199580919A0490919B04892B51F180E018C080919604909197048F339440A1F480E095E0909397048093960482E090E09C838B8383EB94E00E9488311092F2
S284008200AA0481E00E94FB320DC063EACE010E94EE3608C085E694E490932706809326060E943830DF91CF910895AAE0B0E0EBE1F1E40C9405F5DC011396ED91FC9114972181328140E450E05A834983AE01495F5F4F5C834B8341E050E05E834D836F3FBFEF7B0719F437FF15C003C02617370789F098878F837A876987BE016F5F7F4FFA
S2840082808EE10E94762E81E02D813E81232B19F080E001C081E02A96E2E00C9421F5009729F48091A8049091A9040895FC01808191810895CF93C82FE0E0F0E0CF01EFDFFC01009739F0A381B4818C91C813F6CFCF0102C080E090E0CF910895CF93DF93EC010097D9F086EA8F83EB81FC813097A9F080819FEF980F903F80F4DBDF892BD0
S28400830069F421E08D819E81892B09F020E02A83BE0188EA94E00E94B62F1F82DF91CF910895DF92EF92FF920F931F93CF93DF938C01009741F480E394E490932706809326060E943830C0E0D0E0A1E3EA2EA4E4FA2ECE01A4DFEC01009789F18A818111F8CF8B819C81892B31F4F0922706E09226060E943830F80160A171A1CE0155DFA9
S284008380882339F3EB81FC81D0806D2DF801878190850E94CA888823E1F2F801D18AED81FE81309749F482E394E490932706809326060E94203003C0C8011995CACFCDB7DEB7E7E00C941CF5A1E3B0E0EAEEF1E40C94FBF48C01B62EDC015C96ED90FC905D9757966D917C915897F70147818CE994E00E948230882309F414C1D7011196D2
S2840084008C919FEF980F9E3F28F454DF6C01009719F408C1C12CD12CF801248985899689213009F022E02F8399878887D70111968C918A8BF8018789908D0E9480C1FC01009799F083E08B8B708161815281438134812581968187817E8B6F8B588F498F3A8F2B8F9C8F8D8F02C082E08B8BD80157968D919C9158979D8B8C8B59968D916F
S2840084809C915A979F8F8E8FF701868188A3848195819AA389A3828193819CA38BA35B968C9190E09C012A5031093EA32DA319A6208127FD04C09C012850310906C02085237029F49C01295031093EA32DA32DA13EA1821B930BF801248D358D280F391F38A72FA3BAA684A18BA7868D8CA740A151A162A173A14DA75EA76FA778AB878DE8
S28400850089ABD7018C9187FF48C018968C918370823009F042C0E0910214F0910314808190E09EA38DA38080912CAA24A394B12C20910A1430E08091001490910114A216B3064CF5E0910214F0910314EA0DFB1D408150E0209105142A9DB0012B9D700D1124680F791F880D991D0E94D9F5E0910214F0910314EA0DFB1D20818DA19EA167
S284008580820F911D9EA38DA3BFEFAB1ABB0A8081880E911CCDCF98A78FA3C114D10449F0D6011596ED91FC911697CE010196199539C0F8018489813021F4CE010196B1DE31C0D70111968C918F3F41F5E12CF12CC70165DE7C01009729F1D7011396ED91FC9114978081882399F312968C918111EFCF69A17AA1C70118DE882349F3D70138
S2840086001396ED91FC91149780818A8B1596ED91FC911697CE0101961995DACFCE0101960E94F4C8C8010E947A33E196ECE00C9417F5A1E0B0E0EFE1F3E40C94FDF45C01DC015C960D911C915D97F80181812FEF280F2E3F80F429832DDE7C012981009751F0D80114966D917C911597DEDD882309F405C105C02E3F08F401C1E12CF12C7D
S284008680F801808187FF04C09085937009F0F7C086FFF7C08C70883009F4F1C0D50157968D919C915897883FBFEF9B0708F0E7C0E114F10421F0F70122812111E0C0D5015C960D911C915D97F801208126FD02C090E0D2C02370213009F027E0F090F513E091FA13F091FB1330E0422F50E0B801640F751F3F15E9F0A781A530B1F4DF018F
S284008700AF5ABF4F0D90BC91A02D8A179B0769F4DF01AC5ABF4FCD90DC90C40ED51EDB01EC90D601DC90ED1499F23F5FE459FF4FE1CF82E029830E9491332981009741F2FC01EC5AFF4F0190F081E02DDF0158973FEA11963C9311971396BC92AE92129762E0DC01A05BBF4F6C93D50157964D915C915897DC01AF5ABF4F11965C934E9377
S28400878017961C9211961C9231E011963C9311963C9311961C9247E154E3129611965C934E9311973C9330813C7F32603083D8014C914C70337F342B30834C914295417040FB34F93E7D3F7B30834C9147FB442740F940FB37F930834C9130E0DC01AD5ABF4F7D0144FF0DC0D5015C964D915C915D97420F531FDA012C912183F7016083F2
S28400880037C048E04C93D80116964C911697418312964D915C9113975383428314964D915C9115975583448311964C914683D5015C964D915C915D97420F531FDA012C912783D8012C9127FF13C018962C91237031F41086F70120812F5F208309C0D7012C912D5F2C93D80118962C912370208709960E94523491E081E08927A1C190E07D
S28400888001C091E0F801808187FF92C18085837009F48EC1D5015C960D911C915D975B968C91F801F18420910414222309F487C196EFE92EE80E8091FF13813009F456C030F0843008F06BC180E494E46AC1D084B1E0DB1274C12F1508F471C1809105148E1508F46CC190E00196289FA001299F500D112460E070E08091001490910114B9
S2840089000E94F3F58FEA8093A514D092FF13F0920A14F5018789908D90930E1480930D14D80111968C91119780930F1412968D919C911397909311148093101414968D919C911597909313148093121416968C9116978093141417968C91809315148091D8128093A61410920B14F12CF8018085982F9370923011F0F11021C18C7F09F0E9
S2840089801EC180910A148F1508F419C120910D1430910E14D50157968D919C9158972817390709F00CC190910F14F8018181981306C12091101430911114828193812817390709F0FCC02091121430911314848195812817390709F0F2C09091141486819813EDC09091151487819813E8C020910B144091D9120F2D10E0822F90E0840F7F
S284008A00911D081719070CF0DAC08F2D642F0E9459F4D92EF21668F48F2D891B80930B1421E030E001C0220F4A95EAF7219520930C142091051480910014909101144E2D50E0D5015C966D917C915D97665F7F4FF29E800D911D11240E94D9F5E0910214F0910314E00FF11FE08270910B1420910A147F1111C09091D912822F8F19981769
S284008A8008F4892F41E050E0082E01C0440F0A94EAF7419540930C1441E050E00D2C01C0440F0A94EAF760910C14642B60930C146F3F79F4FF24FA94F70E822F90E04091D91250E0871B9109481759070CF4CA01F80E8F2D90E030E0215031098217930751F46F3F21F483E00E94A43563C082E00E94A43564C0A091D912B0E011979D014A
S284008B00270F311D8217930711F06F3F09F582E00E94A43580910C148F3F09F050C08091D91290910B14980F90930B1420910A1421502F19821708F4282F81E090E0022E01C0880F0A94EAF7819580930C1437C02AE030E00E94DFF49B01AC018091AB049091AC04A091AD04B091AE04280F391F4A1F5B1FA091D812B0E00E94E5F49B0184
S284008B80AC016093061470930714809308149093091461E080E090E00E94173710C083E594E490932706809326060E94383007C0992329F06FEAC50107DC80E001C081E02196EAE00C9419F5A4E3B0E0EAEEF5E40C94F5F4C0909604D090970420E1C21621E0D20609F46CC12EE4222E24E4322EAA24A394B12C84EC94E00E947A2F7C0126
S284008C00009709F45DC10091FA131091FB13C701801B910B6CE670E00E9465F48091F513681748F089E494E490932706809326060E94203045C13CE6639F000D111D1124D80117968C91B0E1CB16B6E0DB0621F0C114E5E0DE0699F58E7F843019F5C8018C5A9F4F0E94043A4C01DC0111966C91119712968D919C911397892B51F4EAE4B5
S284008C80F4E4F0932706E09326066CAB0E9438306CA9D70112968C91811104C0F4018281938192DBA7014B5F5F4F63EAD8018D919C910E94D039C7010E9413339CCF8695482E512CB1E04B165104B1F054F4452809F0EFC0D70112966C91C8010E94DA3C8ACFF2E04F16510409F4BCC023E04216510409F47CC0DDC0F80180858F7081308C
S284008D0009F079CF80809180D70119968C910E9408369B01AC01A091D812F801808582958F70A81BC20102C0880F991FAA95E2F7DC010E94EFF42B013C01D70112966C91611115C043825482658276820E94B5F59170B301A201480F591F611D711DD80113964D935D936D937C9316972EC06E3C51F0603F41F0603D31F0613D89F4F401E4
S284008D8095A597FF0DC0A7014B5F5F4FC4010E94D039C7010E94133381E00E94FB3290C0D80113964D925D926D927C9216970E94B5F59170B301A201480F591F611D711DF8014383548365837683D80118968C911897807F826018968C93189713962D913D914D915C91169760E0C80104C2F80180858F70813009F0FECE2091A81430E015
S284008E008091AB1490E001972817390709F4B5C1E091D9127091AA14272F30E080E090E0682F8E1708F0A9C10196A901062E02C0559547950A94E2F740FFF2CFC501062E01C0880F0A94EAF7809587238093AA148091A914860F8093A8148EEA94E10E9475E2C9CEC8018C5A9F4F0E94043A8C01DC0111966C91119712968D919C911397E0
S284008E80892B51F4EDE4F4E4F0932706E09326066CAB0E9438306CA9D80112968D919C91139792DAC7010E94133381E00E94FB32A2CE30922706209226060E9438309BCE1BAA1AAAAAE44A2EA4E35A2EBFEA2B2E13E0312EAA24A394B12C66246A94712C95E4892E94E4992E86EC94E00E947A2F8C01C0909604D0909704009751F1F801F7
S284008F0082899389892B09F079C1048CF58DE02D80818370813009F071C18281853009F46DC1D80157968D919C9158970E9480C1892B09F063C122E0F80126838789908D90878783538A428AC80102960E9472C1CBCFC1FE11C050E5C52E54E4D52E62E0462E72E1A72E74E4B72EE8E05E2EF5E48F2EFAE39F2E3BC00091C8041091C90485
S284008F800115110509F458C0B80188EC94E00E94862F40E050E063EAC8010E94D039ECCF808D833081F57801FBE1EF0EF11CC7010E947DC1892B39F5D8011D96F701852D01900D928A95E1F7D80158968C9158971A968C931A9757969C928E925697C80106960E9472C188EC94E00E947A2F0091C8041091C90401151105F1F0F801868923
S2840090009789892B69F28091BB149091BC14892B09F4BEC2C8010E94E132882309F4B8C2C8010E94E132882309F4B2C2F8010081118101151105A1F780919604909197048115B5E09B0721F08031F6E09F0769F5F12C0EC02CE6F29E80011124E091FA13F091FB13E00FF11F8781833031F0F3948091F513F81670F320C080858F7084300C
S28400908011F08230A1F740E050E063EA808191810E94D0398091FA139091FB13800F911F805A9F4F0E941333E2CF8F33944029F4F12C8091F513F81648F080919604909197048115954009F080C351C00091FA131091FB138CE6F89E000D111D1124D80117968C91179780FF40C018969C911897292F2F702430C9F5282F2A7F2230A9F572
S284009100907F79F19160905118969C938E7F823071F4C80109960E945234F801238134814581568160E0C8010E9417371EC08630E1F48091AA148E7F8093AA148091A9148093A8148091AD1481508093AD14E091BB14F091BC14BF01808191810E94593404C067EAC8010E94DA3CF394A2CF8091AA04882309F4AAC228C3F70181850E947D
S28400918008369B01AC01A091D812F801808582958F70A81BC50102C0880F991FAA95E2F7DC010E94EFF42B013C010091BB141091BC140E94B5F59170B301A201480F591F611D711DD80113964D935D936D937C931697E091BB14F091BC148085807F826080878091BB149091BC14FC01238134814581568160E00E941737FDCCD8015C96D3
S284009200ED90FC905D97BFE3CB16B4E0DB0669F0D7018C918370813041F0F80185A1811104C0C8010E947A33A4C1D7014C91642F607446FF11C05091F8132091F51330E08091F91390E0850F911D821793074CF78091F613581728F7242F2C70243009F3662331F0842F83708230D9F243FDD9CF45FDD7CFF801D488F1E0DF1671F032E0A1
S284009280D312CFCF4370842F90E0009721F0029709F47AC0C6CF2C3031F0C801CAD9882309F467C1BECFD80157966D917C915897F70140858CE994E00E948230882309F4B0CFD8015B968C91893008F4AACFB1E0BF83F7018181928199878887D80157968D919C9158970E9480C1FC01009791F03B8A70816181528143813481258196811F
S28400930087817E8B6F8B588F498F3A8F2B8F9C8F8D8F01C0DB8AF8018789908D9D8B8C8B818D928D9F8F8E8FD70117968C91179788A315968D919C9116979AA389A313968D919C9114979CA38BA3838D90E009979EA38DA3848D958D099698A78FA319A62AA684A18BA7868D8CA780A191A1A2A1B3A18DA79EA7AFA7B8AB878D89ABCE018B
S28400938001960E9491414DCF423031F090922706809226060E943830C090FA13D090FB138091F513F6012CE6829FE00DF11D1124CF01C816D90608F034CFD60117966C91179760FFD2C018962C9118972F70223009F0CBC0F601EC5AFF4F0190F081E02D2D913C91D80157964D915C915897D90159962D913C915A974217530709F0B5C097
S284009400D70117963C91179727813213AEC014964D915C911597248135814217530709F0A4C012964D915C911397228133814217530709F09AC011963C9111972681321394C016963C91218132138FC06E7F623031F4F6018085807F836080873FC0663009F083C0D70119969C9119978091A9149813D7CE6091D912262F30E0C501062E64
S28400948001C0880F0A94EAF781951A969C911A97982B1A969C931A97F6018085807F836080871A96EC91EF3F99F54091AB1450E07091A914E70FCA01871B9109281739070CF4C9018E0F8093A81490E0415051098417950741F4C6010E942B3B60E0C6010E94DA3C9ECE760F7093A9148091D8128093AD147093A814930102C0220F331F2E
S2840095006A95E2F7B90160956E7F6093AA1423C0E095E093AA1480E090E02E2F30E0782F8617C8F40196A901072E02C0559547950A94E2F740FFF3CFC501072E01C0880F0A94EAF780958E238093AA148091A914870F8093A814E091BB14F091BC14BF01808191810E9459345CCE3CE6C30ED11C20CFD8015E968C915E978AAB5F968C9137
S2840095808BABBE016E5C7F4F8BE30E94762EACCCC8010E94E132882361F08091BD149091BE14892B09F4BDC0D8019D968C9182FFB8C0F80181A592A58536910518F085A583FFB1C0D80198963C90332031F0832D0E945A41892B09F448C0F80185A5208D382F347082FF0AC0223031F4818D928D883F9F4FD0F502C02130B9F18EEF820F46
S284009600823038F4D80193968C91815F8E3068F18CC021118AC0332309F487C0F80166A077A092D67C01009719F080E090E00CC0B0922706A09226060E94203076C0DC011B962C91213089F09701432DB3010E94653B0097A1F769C0813008F475C0823009F49AC0833009F48AC026EAE12CF12C612C712CB80188EC94E02CAB0E94862FE0
S2840096802CA921111CC0E114F10431F4D0922706C09226060E943830F30111830083C8010E94E132882319F0C3010E942B3BB301C801F7011995282F882309F498CC40E050E0622FC8010E94D03991CC00919A0410919B04F8018281853C41F08DE694E490932706809326060E943830D80113968D919C9114978D7F14969C938E93139712
S284009700892B09F062C080E00E94043F80E196E0909397048093960460E0C8010E94EE3654C02AEAA3CF20EAA1CFD80158968C91813009F091CF80E00E9491333C0135E5E32E3AE3F32E0DC0C8010E94E132882371F083E00E9491333C0144EAE42E4CE3F42E6114710409F467CC20E083CFF80185A582FF02C081E0EDCF80E0EBCFC80191
S2840097804B960E947DC10097F1F0DC018D919C91F801928F818F408EC8010E94E132882311F083E008C0D8019D968C9182FF02C081E001C080E00E9491333C0129E5E22E24E3F22ECECF29EA51CFE496E2E10C9411F5AFE1B0E0EFEEFBE40C9402F5009749F485E495E490932706809326060E94203082C0FC012081233009F07DC0218178
S28400980032813A83298328E03396DE01139601900D922A95E1F7FC0123852B87248535853D872C8728E03E96DE011E9601900D922A95E1F7FC01218D2D8F238D2E8F0789108DF688F6E0FF1508F056C0F8018081982F9370933009F04FC0807E09F04CC08181811149C0BE01615E7F4F85E190E00E948032F801208126952695277030E06D
S2840098808F8D90E028173907B9F58281982F9370933091F5982F907F79F58C708C3091F481E08B87F8E0FF1538F5F801838194819F878E876FEF0E94CA888823E9F0F80129E003C0F801329727E085819681998F888F878190859F8B8E8BF21AFA8E020F111D1C8F0B8FE091A604F091A704309719F0CE01019619956F96E5E00C941EF55A
S28400990080E191E0909397048093960410929B0410929A0410929904109298041092A9041092A8040E9454360C94A7A8CF93DF93EC016DE172E085E20E94F52E6DE172E088E30E94F52E209749F480E694E490932706809326060E94203005C089E18A83CE010E942234DF91CF910895009741F481E694E490932706809326060C942030A5
S2840099802AE8FC0122830C942234009741F482E694E490932706809326060C94203025ECFC0122830C942234CF933091FC138091FD139091FE1320E0231751F08396FC01B3974081442311F081E029C02F5FF4CFC0E08091F513C817E0F40E94702E9CE6C99F900111244091FA135091FB13FA01E20FF31F882341F0878180FF08C0808569
S284009A008F70823021F0E0CF878180FDDDCFCF5FE0CF81E09091FF13911101C080E0CF9108951F93CF93DF93EB01853239F41881BBDF91E09827912398831FC08833E9F438814091F513E091FA13F091FB1380E0841771F0278120FF07C090859F70923019F42A7F223031F08F5FE459FF4FF0CF80E001C081E0832B8883DF91CF911F9184
S284009A800895FC01808184FD0C94C4360895A2E0B0E0EDE4FDE40C9405F5E0919804F09199042F2F30E09E2F9F5F983008F090E0692F70E0A901092E02C0569547950A94E2F740FF26C09093980481E090E0062E01C0880F0A94EAF78F2780939904660F771F6354744B42E050E0CE0101960E94C3F589819A81892B41F480E094E4909391
S284009B002706809326060E943830E981FA81199504C0E913C9CFE093980480919904882361F02FB7F8948091940490919504806290939504809394042FBF2296E2E00C9421F580912113853091F028F4882349F0823069F004C0843141F0863141F080E0089580911A138B3010F488E0089582E00895833014F083E01BC096E0980F9230A0
S284009B8010F48BEF15C098E0980F923010F489EF0FC09AE0980F923010F487EF09C09EE0980F943010F484EF03C0823F0CF48FEE80931F130895C5DF282F220F220F280F30E0A90160E8869F400D511D1124CA010895809121138530E9F028F4882349F0823079F004C0843189F0863189F080E0089580911A13882349F08B3058F489E1C5
S284009C00089580911A13811105C002C082E3089588E2089580E10895CF93DF93EC01D9DFE82F9E01A0ECB3E00E94D0F49B01AC01AE2FB0E00E94E5F428EE33E040E050E00E948CF4CA01B901DF91CF910895CF93DF93B1DFEC01BDDF282F2C9FC0012D9F900D1124BC0180E090E028EE33E040E050E00E948CF42F5F20931813DF91CF91A0
S284009C800895CF93DF938BE080931A1380E098EFAFEFB7E080931B1390931C13A0931D13B0931E136FE173E183E090E00E94803280911F135EDF6FE173E183E090E00E94B8321092211377DF909323138093221338DF94E0899F800D11248093241331DF8093251386E390E0A0E0B0E08093ED129093EE12A093EF12B093F0121092F1124C
S284009D001092F21281E08093F3121092F5121092F4121092F6120E94B5F58093F712E8EFF2E18FEF80838183828383838483858386838783CFEFDFEFD0930113C09300130E94B5F58093021385E08093031384E08093041383E08093051380930613D0930813C093071380E28093091310920A1310920B13D0930D13C0930C131092161392
S284009D801092171364DFDF91CF910895A4E0B0E0ECECFEE40C9405F5DC014C9150E0CA01805491098534910508F0DFC0865A9D4DFC010C94CAF411968C918093F21208C011968D919C9112979093F5128093F41280E015C111968C91853308F00FC18093F612F6CF11968C918093F712F1CF11968C9111978093F81212968C9112978093C7
S284009E00F91213968C9113978093FA1214968C9114978093FB1215968C9115978093FC1216968C9116978093FD1217968C9117978093FE1218968C918093FF12C9CF11968D919C9112979093011380930013C0CF11968C9180930213BBCF11968C91863008F0CCC080930413B3CF11968C9190910313981708F4C2C080930613A9CF119648
S284009E808D919C9112979093081380930713A0CF11968C9180930A139BCF11968D919C91129790930D1380930C1392CF11968D919C911297B1DE69837A838B839C83BE016F5F7F4F03C0BD016F5F7F4F82E090E079C011967C91119712966C91129713965C91139714964C91149715963C91159716962C91169717969C91179718968C9154
S284009F0070930E1360930F1350931013409311133093121320931313909314138093151357CF11968C918093F11252CF11968C91883008F063C0809305134ACF11968C918093091345CF11968C918093031340CF11968C91803108F051C08093191338CF11968C918093171333CF4830510508F043C041565D4DFA010C94CAF48BEF3FC0BE
S284009F8011962C9180911B1390911C13A0911D13B0911E13022E04C0B695A795979587950A94D2F780FF2AC020931A1323C011968C9190E2980F903408F5DBDD6FE173E183E090E00E94B83203CF11968C918430A8F480932013FCCE11968C91853041F018F4833058F404C0843111F0863131F4809321132CDEECCE84EF01C088EE249677
S28400A000E2E00C9421F5A4E0B0E0E9E0F0E50C94F7F4609004136091031370E0E0910613F0E0262D30E0CB018E1B9F0B281739070CF4C901AA2797FDA095BA2F0097A105B10521F481E090E0A0E0B0E0712CC12CD12C76018C019D01015011092109310942E0442E512C872C912CA12CB12C081519052A053B05B0F0AF01470D511D4150C7
S28400A0805109520102C0AA0CBB1C4A95E2F74501AA2497FCA094BA2CC80CD91CEA1CFB1C7394E1CF262D30E040E050E0281B390B4A0B5B0B61507109A2E0B0E002C0AA0FBB1F6A95E2F711970E94EFF49B01AC012C0D3D1D4E1D5F1DA4E1B0E00E94E5F49B01AC0169833A834B835C8364DD29813A814B815C81280F391F411D511D298375
S28400A1003A834B835C8365DDA82FB0E029813A814B815C810E94E5F428EE33E040E050E00E948CF4CA01B9012496E0E10C9413F550DDE82F2091091330E0A0ECB3E00E94D0F49B01AC01AE2FB0E00E94E5F428EE33E040E050E00E948CF4CA01B9010895A4E0B0E0E6EBF0E50C94FFF48C01FC01408150E0FA01E054F109E534F10508F06F
S28400A180B2C0E955FD4D0C94CAF48091F212F801818380E0D5C08091F4129091F512C3C08091F612F4CF8091F712F1CF7091F8126091F9125091FA124091FB123091FC122091FD129091FE128091FF125BC08091001390910113A7C080910213D8CF80910413D5CF80910613D2CF809107139091081399C080910A13CACF80910C139091B8
S28400A2000D1391C0BE016F5F7F4F82E090E00E948032C980DA80EB80FC80C114D104E104F10491F0D6DC282F30E0A0ECB3E00E94D0F428EE33E040E050E00E948CF4C701B6010E948CF402C024EF31E0F801328321839FCFBC016F5F7F4F82E090E00E94803297CF70910E1360910F135091101340911113309112132091131390911413C0
S28400A28080911513F801718362835383448335832683978380877DCF8091F11278CF8091051375CF8091091372CFFC01118271CF8091ED129091EE12A091EF12B091F0122BC08091031363CF80911913F801818336C0809117135BCF2BDFF801618372838383948356CF4830510548F5FA01E451FD4D0C94CAF480911A1349CF80911F13C4
S28400A30046CF8091201343CF80911B1390911C13A0911D13B0911E13F80181839283A383B48337CF48DCF8019283818332CF09DCF4E08F9F800D11242ACF03DC28CF84EF2496E8E00C941BF58EE093E1089548E050E0BC018EE093E10E94CCF521E0892B09F020E0822F0895CF92DF92EF92FF92CF936B017C01E5DBC82F2BDC2C2F30E015
S28400A380A82FB0E00E94D0F49B01AC01C701B6010E944AF428EE33E040E050E00E948CF4CA01B901CF91FF90EF90DF90CF9008952FB7F8948091120590911305946090931305809312053FB7F8948091CD0481110FC04FB7F8948091940490919504816090939504809394044FBF81E08093CD043FBF2FBF0895BC018FEC94E00E94B62FAD
S28400A4008091CE04811101C0D3CF0895FC011282F2CF21E0FC012283EECF22E0FC012283EACF23E0FC012283E6CF25E0FC0122831186108622E02783DECFA1E0B0E0E3E2F2E50C9404F51092D0041092CF045AD11FB7F894CE0101960E94A8D7811104C082E08093CE0402C01092CE0410921305109212051FBF2196E3E00C9420F5A2E0B2
S28400A480B0E0E5E4F2E50C9403F51FB7F8941092CD04CE0102960E94A8D7882339F08091CE048230C9F41092CE0416C081E090E00A8002C0880F991F0A94E2F780959095209112053091130528233923309313052093120580E001C081E01FBF8111BAC081E08093CE048A818A3029F50091CF041091D0042091290230912A0241E050E030
S28400A5000115110539F4CE0101960E94A8D781114BC033C0CA01F801028002C0880F991F0A94E2F782239323892B09F065C0F80100811181E5CF90E08C30910520F7FC01EC50FD4D0C94CAF4B0D214C0B7D212C02AD410C0C5D30EC05ED30CC00E942DD509C00E94B1D406C03DD104C00E94FCD401C0A5D0811127C0C6CF2FB7F8948091AA
S28400A580CD0481110FC03FB7F8948091940490919504816090939504809394043FBF81E08093CD042FBF56C08091D804811152C08091CF049091D004892B11F0F9DE4AC01092CE0447C0813009F044C04FB7F89421E030E00A8002C0220F331F0A94E2F78091120590911305822B932B90931305809312054FBF2EC0B8018FEC94E00E9427
S28400A600862FF801428150E04930510508F07BCFFA01E050FD4DC8010C94CAF497D393E002C040D394E09A83A5CF87D295E0FBCF0E9419D596E0F7CF0E948ED492E0F3CFB5D098E0F0CF0E94DCD499E0ECCF06D09BE0E9CF2296E4E00C941FF5CF93DF93EC0118868B819C819C01215031092F333105C8F4805C9E4F9C838B838A818730DD
S28400A68031F0883081F4CE010E9463B103C0CE010E9449B1882339F0813061F4D0931105C093100507C01886EE81FF81CE010896199580E08093D104DF91CF910895CF93DF93C0911005D09111058A81873031F0883041F4CE010E9463B107C0CE010E9449B103C081E0888702C0811106C0EE81FF81CE010896199580E08093D104DF912E
S28400A700CF910895AEE0B0E0E8E8F3E50C9403F50E947DB182E088871E861D861A86198681E08F83CE0101960E94B3B48B859C850E94B8F573D00E9441D589D2F0D26ED30E94D7D468D00E9416D58EE48983809104138A83CE0101960E9478B58FE48983809106138A83CE0101960E9478B589E58983809105138A83CE0101960E9478B52D
S28400A78080E589830FEF1FEF1B830A83CE0101960E9478B583E589831B830A83CE0101960E9478B52E96E4E00C941FF51F93CF93DF93EC010E94B3B4182F882339F0813051F4D0931105C093100505C0EC85FD85CE01089619951093D204812FDF91CF911F9108951F93CF93DF93C0911005D0911105CE010E94B3B4182F811105C0EC8596
S28400A800FD85CE01089619951093D204812FDF91CF911F9108951092D2040895A2E0B0E0E4E1F4E50C9405F569ED77E180E092E00E945E32BE016F5F7F4F80E091E00E94803229813A818091D9179091DA179093DE178093DD179093E0178093DF179093E2178093E117280F391F3093E4172093E3171092DC171092DB1765EE77E183E24B
S28400A88092E00E945E32BE016F5F7F4F8EE291E00E94803229813A818091E5179091E6179093EA178093E9179093EC178093EB179093EE178093ED17280F391F3093F0172093EF171092E8171092E7172296E2E00C9421F59CE0899FF0011124E752F84E86819781019608959CE0899FF0011124E752F84E4FB7F894A681B7818C9190E0F8
S28400A90001968A0F9B1F978386831C9226813781808591852817390751F484819581918780878081918195838483978386834FBF08959CE0899FF0011124E752F84EA681B78182819381A817B90721F081E09C91911101C080E0089581E0EBDF8823F9F08091120590911305816090931305809312052FB7F8948091CD0481110FC03FB751
S28400A980F8948091940490919504816090939504809394043FBF81E08093CD042FBF80E0C8DF8823F9F08091120590911305826090931305809312052FB7F8948091CD0481110FC03FB7F8948091940490919504816090939504809394043FBF81E08093CD042FBF0895A6E3B0E0E9EFF4E50C9404F5182F6FDFFC01208130E0DC01A20FC3
S28400AA00B31F12968C912F5F3F4F2E0F3F1FD9016C91813220F4811103C081E001C080E26295669566956370689FB00111248FEF869FA001879F500D1124CA0160E670E00E9465F4D9016C93BF01CE0101960E9490D5882319F18A81982F977029F4807619F48B818C70B1F020911B0230911C022E7F30931C0220931B02CE010196BED4A7
S28400AA8020911B0230911C02216030931C0220931B0204C080911A13898FE6CF812F24DF80E0E696E3E00C9420F581E042DF882311F081E098DF50DF80E0089580E039DF882311F080E08FDF47DF80E00895A9E0B0E0EDE6F5E50C9402F58C018091D50465E0813029F4C4D0F82E811121C01EC080E0BED0F82E81111BC0F80183818983D9
S28400AB0088E03496DE01129601900D928A95E1F7CE0101960E9478B5F82E8091D504823039F48091D404B3D065E0A2D01092D5048F2D2996E5E00C941EF5A9E0B0E0E3EAF5E50C9403F58C01DC0113968C91833511F148F4853028F4823088F4811124C01AC092EB09C08438B1F028F4893579F08F36D1F410C090E1980F9330A8F4813FF7
S28400AB8041F4F80194812091D304921339C091E00CC08935E1F39091F5179093D404963119F492E09093D50490E02091D504211111C0911113C0898388E0F8013496DE01129601900D928A95E1F7CE0101960E9478B502C0C8017BDF811108C0D8011C96ED91FC911D97199580E004C010931105009310058093D6042996E4E00C941FF542
S28400AC009093D3049091F5179093D404963109F0BECF91E0C7CFA1E0B0E0E1E1F6E50C9403F50091100510911105C80150DF811108C0D8011C96ED91FC911D978983199589818093D6042196E4E00C941FF51092D6041092D5041092D3040895882331F0813011F083E0089586E1089589E108956093BF14F3DF0C947DB6882331F08130BC
S28400AC8011F088E0089586E1089589E108958850823130F4E82FF0E0E553FD4F8081089588E008951F93CF93DF93EC011091F5178B81E3DF181729F064E08B81D9DF811105C0EC81FD81199580E004C0D0931105C09310058093D704DF91CF911F910895A1E0B0E0E6E7F6E50C9403F5009110051091110564E0D80113968C91B9DF811188
S28400AD0008C0D8011496ED91FC9115978983199589818093D7042196E4E00C941FF51092D7040895CF93DF93EC0163E080E0A0DF811109C082E08093D804CE0103960E94D2D60E94DBB6DF91CF910895CF93DF93EC0189AD83DF8093F317D0931105C0931005809105138093C0140E94B5F59093C2148093C1148091F517893151F482E0DE
S28400AD808093D804CE0103960E94D2D60E94DBB605C081E08093D804CE01C4DF8093D904DF91CF910895A2E0B0E0E9EDF6E50C9403F500911005109111058091D804813021F4C801AFDF811123C00E9414B10E94EBB01A8219820E94A7B4D801DC968C93DC97DA96ED91FC91DB97C801CC9619958091051390E02091C014821B91099A8372
S28400AE008983BE016F5F7F4F8DE30E94762E80E08093D9042296E4E00C941FF51092D9041092D8040895A9E0B0E0E9E1F7E50C9405F583E08983CE01019692D98A81833021F40E94A7B4813029F08091C01481508093C0140E9491E063E080E009DF81110DC0809110059091110522E02093D80403960E94D2D60E94DBB60EC081E0809383
S28400AE80D9048093D8048091120590911305886090931305809312052996E2E00C9421F52FB7F8948091940490919504846090939504809394042FBF0895BC0182E797E10E94B62F8091611781110CC02FB7F8948091940490919504846090939504809394042FBF0895CF93DF93DC0112964C9150E0FA013197E031F10508F053C0E75FB9
S28400AF00FC4D0C94CAF4DC011C96ED91FC911D970E963DC0DC011B96ED91FC911C970D9636C0DC011796ED91FC91189709962FC0DC015196ED91FC915297439628C0DC015396ED91FC9154974596199543C0DC011996ED91FC911A970B9619C0DC011E96ED91FC911F97409612C0FC01C08DC470D0E0018CF28DE02D4B961995CD2B51F5EE
S28400AF8011C0DC011496ED91FC9115970696199509C08091D2178E7F03C08091D2178D7F8093D217109261172091D2178091721790917317892B11F4222361F02FB7F8948091940490919504846090939504809394042FBFDF91CF910895CF93DF9380916117882319F0833009F06AC08091D217882389F080FF09C08FE0809361170E94B2
S28400B000766661EF0E94CE645BC080E1809361170E944EDB55C080912B02882309F450C0C0917217D0917317209709F449C082E797E10E947A2F8A8180936117D0936417C09363178A8190E0FC013197EE30F10518F5E75EFC4D0C94CAF40E94BD621AC00E94976217C05CD415C0C7D713C0AAD411C00E94AED90EC00E94F5D90BC00E940C
S28400B0808C6408C0EED006C052D304C00E945ADC01C01ED4811114C0109261178091721790917317892B61F02FB7F8948091940490919504846090939504809394042FBFDF91CF91089527E0FC012283F6CE28E0FC012283F2CE2BE0FC012283EECE22E0FC012283EACECF93DF93EC018B81882331F183E08A838093611710927317109257
S28400B10072171092D2176CE272E085E20E94F52EBE0182E797E10E94B62F8FD985E697E10E94A5E22FB7F8948091940490919504846090939504809394042FBF04C084E08A83CE01BADEDF91CF9108952AE0FC012283B3CE25E0FC012283AFCE21E0FC012283ABCE26E0FC012283A7CE2CE0FC012283A3CE2DE0FC0122839FCE209161174A
S28400B180233011F00C9449A4089520916117233011F00C94EEAC089520916117233011F00C946BA0089520916117233011F00C943EB0089520916117233011F00C9436A8089520916117233011F00C9416B008958091D21781608093D21780916117811101C05ECE08958091D21782608093D21780916117811101C053CE089520916117DC
S28400B200211104C021E1209361171DC308958091D217811105C00E94E16791E0982701C091E0892F08951F93CF93DF93EB011881EEDF91E0982791239883DF91CF911F910895CF93DF93C0916317D0916417FC0180810E94BDDB8CA3CE0145DEDF91CF9108951F93CF93DF93C0916317D09164178091071390910813998B888B13E01A8B9F
S28400B28063D8DE01539628E0FC0101900D922A95E1F71B8F8B818C8F8C818D8F8D818E8F8E818F8F8F8188A3888589A389858AA38A858BA38D85811105C01CA2CE0113DE80E077C08BE0809381178091021391E0980F9093021380938417809182178078209183172C6083628F77809382172C7C209383178FEF9FEF909386178093851704
S28400B300EB817C816D815E814F81388599858A85E0938717709388176093891750938A1740938B1730938C1790938D1780938E17206C2093831780910713909108139093901780938F1700D828E0FC01A1E9B7E101900D922A95E1F7809107139091081390939A178093991780910C1390910D1390939C1780939B178B859C8590939F1717
S28400B38080939E1780911A1380939D1781E299E59093B9178093B81780910A13882311F081E001C082E08093B7178EE797E12ED881E0DF91CF911F910895A8E0B0E0E3EEF9E50C9405F5FC018281807C81F08089898381898A8382898B8383898C8384898D8385898E8386898F8387898887CE010196E0DE2896E2E00C9421F5EF92FF92FF
S28400B4000F931F93CF93DF93EC018A81807C8038C1F4AE014C5C5F4FBE016D5C7F4F888999890E948BDA811144C0488150E0FA013197EB30F10508F03CC0E95DFC4D0C94CAF4803C91F7288939894A895B896C897D897E0184E3E80EF11C8E010D5C1F4F8E899F890E94C9DADECFCE018DD621C0CE01ADD01EC0CE010E9485D91AC0CE01C7
S28400B4800E9405DA16C08DA980FD05C0CE010E94846681119DDECE0173D00BC0CE018DDF08C080911713882321F09DDE02C0CE01A7D7CDB7DEB7E6E00C941DF581E080931713089510921713089583E0809362171092CE1762E77AE58EE797E10C94B564F4CF08958091631790916417FCDC109262170895A3E0B0E0E0E8FAE50C9405F54B
S28400B50081E18B83CE010196EEDC2396E2E00C9421F5CF93DF93C0916317D0916417FC018081833028F4813048F00E94BDDB03C0833001F58BEE888BC8DF1CC08BEE888B81E080936F1780E79AE590937117809370170E94035060936B1770936C1780936D1790936E1782E08093621785E697E10E9475E2DF91CF91089510926217089540
S28400B580AEE0B0E0E6ECFAE50C9405F5FC01228122952695269523702983268537853B832A8328E07096DE01149601900D922A95E1F7FC0123A92C8723812D8784A98E87CE010196FEDD2E96E2E00C9421F5ACE1B0E0EDEEFAE50C94F9F4FC01428142954695469543704983268537853B832A8328E07096DE01149601900D922A95E1F7AE
S28400B600FC01628066946694F62DF3706F2EFC87FC01248135813E872D8728E03696DE011F9601900D922A95E1F7FC0172A87F8A20A931A9398F288F23A92A8F23812B8F84A98C8F80916217882309F44CC080906317909064178EEF840F823008F063C0F4018381481320C0423029F42C813D818681978127C0433009F055C02C813D817F
S28400B6804E815F8168857985F401A680B780C084D184E284F384048515858A859B850E9457F509F040C023C0823091F0833021F0811139C0423051F42C813D8180910013909101132817390771F511C0433059F548E050E068EF72E1CE0104960E94CCF5892B29F020C0CE0101964FDD1CC0F2E06F1209C02F85388980910C1390910D1368
