S02B0000416C6C5F4D65676152665F41746D656761323536726672325F384D687A5F4763632F4578652F417000
S2840000000C949F260C949CF00C94C8F00C94F4F00C9420F10C944CF10C9478F10C94A4F10C94D0F10C94FCF10C9428F20C94E6260C94E6260C94ADEC0C94E6260C9403ED0C94E6260C94E6260C94E6260C94E6260C94E6260C94E6260C94E6260C94E6260C945AF30C9466EF0C9409EF0C9438EF0C94E6260C94EBF20C94C2F20C94E62603
S2840000800C94E6260C94E6260C94E6260C94E6260C9400F00C94A3EF0C94D2EF0C945BF20C94E6260C94E6260C941CDE0C947FE00C94E6260C94E6260C94E6260C94E6260C94E6260C94E6260C94E6260C94E6260C94E6260C94E6260C94E6260C94E6260C94E6260C94E6260C94E6260C94E6260C94DBE00C94E6260C94E6260C9403E153
S2840001000C94E6260C94E6260C94E6260C94E6260C94E6260C94E6260C94E6260C942BE10C94E6260C94E6260C94E6260C94E6260C94E62600000000000000000000000000000000000000000000000000000000000000000000000000000000000000000000000000000000000000000000000000000000000000000000000000000000BE
S2840001800000000000000000000000000000000000000000000000000000000000000000000000000000000000000000000000000000000000000000000000000000000000000000000000000000000000000000000000000000000000000000000000000000000000000000000000000000000000000000000000000000000000000000FA
S284000200000000000000000000000000000000000000000000000000000000000000000000000000000000000000000000000000000000000000000000000000000000000000000000000000000000000000000000000000000000000000000000000000000000000000000000000000000000000000000000000000000000000000000079
S2840002800000000000000000000000000000000000000000000000000000000000000000000000000000000000000000000000000000000000000000000000000000000000000000000000000000000000000000000000000000000000000000000000000000000000000000000000000000000000000000000000000000000000000000F9
S284000300000000000000000000000000000000000000000000000000000000000000000000000000000000000000000000000000000000000000000000000000000000000000000000000000000000000000000000000000000000000000000000000000000000000000000000000000000000000000000000000000000000000000000078
S284004400760F16001900690D03001800A508BD001700181401001600CC1408001500591401001400501402001300BC14010026005F1401001E004F1401000F00D61401000E00C01401000D00C81402000C00191401000B00131402000A003614110009002C14010008002B14010007002A1401000600BD1401000500C614010004000E14F8
S284004480040003004714080002000C1401000100F01308000000744712002E00984715002D00C24719002C00F44704002A00FC4711002900644F814EA24FA24FA24F864E904EA24FA24F984E9D4EC54ECE4EA24FD34EDB4EE54EA24FEE4EF34EA24FFC4E374F494FA24F3C4F444F644F644F644F5B4F5B4F5B4F5B4F5B4F5B4F5B4F5B4F38
S2840045005B4F5B4F5B4F5B4F5B4F5B4F5B4F5B4F5B4F0F4F5B4FA24FA24FA24FA24FA24FA24FA24FA24FA24FA24FA24FA24FA24FA24F5B4F564F644F5B4F094F4E4F664F644F7D4F8B4F924F644F644F644FFE506B50455145514551715076501951455179507C508D5092504551955098509B504551A050A3501951A850F250075145515E
S284004580F550F8506F50FB50FB5019511951195119511951195119511951195119511951195119511951195119511951D85019514551455145514551455145514551455145514551455145514551455119510F5112511951D0500A5121512A5124512751455138513D5143514A524C5257524E5250525252545229525A525C5229525F5267
S284004600B452B752BB52BE52C252C652C952CD52CD52295767576757675730574D573E57455778573757545754575B5767576F577357D357D657D957D957DB57E557DF57E257F257DD57E857EA57EC57EF57DB59DE59FF59E159E559FF59E959FF59F459F759FD59665D135E225E215D695E695E1E5E225E275E555E3E5E695E695E555EB0
S284004680545D575E6F9677968E960097009757966496009700970097AE96BD96DA96E6960097549682962096ED9AED9A169A1E9A1E9A2B9A2B9A489A489A489AA69AA69AA69A419BED9AECA83EA912A916A916A916A916A916A91AA91AA979BC7CBC1DBD1DBD81BC1DBD8BBC74BD74BD74BD74BD74BD74BD74BD74BD74BD1DBD1DBD74BD58
S28400470074BC86BC1DBDF4C742C842C842C842C842C831C81BC839C842C82BC842C835C83DC818CAF3CAD0CBFBCB3ACC66CDAFCD91D391D391D391D391D391D391D391D391D3E6CCF4CC91D391D31BCDB2CB99D5A1D5B3D5BCD5BED5C0D5C2D5C5D598D610D710D7BED6C7D6D7D6E0D6E3D6E6D6E9D6EFD60000010002000300040005000F
S28400478006000700080009000A000B000C000D000E000F001E00180000000100020003000400050006000700080009000A000B000C000D000E000F001E00130014001500160000000100020003000400050006000700080009000A000B000C000D000E000F001E001300140015001600170018001900260013001400150016000000010084
S284004800020003000400050006000700080009000A000B000C000D000E000F001E000E070000A5080000FF0700006209000099080000000000008C090000F60E00004E0F0000A00C0000F20C0000BC0C0000290D00006C0D0000B00E00000000000000000000690D0000760F000000000000000000000000000000000000000000000000FA
S284004880000000000000000000000000000000000000000000000000000000000000000000008C0F0000B40F000093070000A64A0200AA4A0100AD4A0100AB4A0200B04A0100B14A0100B24A0100B34A0100B44A0100B54A0100B64A0200AE4A0200B84A0100B94A0100D24A0200C34A0100C44A0100C54A0100CE4A0400BA4A0100BB4A80
S2840049000400BF4A0100C04A0100CA4A0100CB4A0100CC4A0200000000000000000000000000000000000000000000000000000000000000000000000000000000000000000000000000C14A0100C24A0100D44A0100D54A0100D64A0100D74A010000000000C64A0400A84A0200F0130800FA130100081404000C1401000E140400C414DB
S2840049800100C5140100CC140800C81402005014020059140100C0140100D6140100C61401001514010016140100171401001814010013140200191401001A140100C2140100C1140100CB130100CC130100471408002D14040022140400261404002A1401002B1401002C14010036141100BD1401003114010032140400BA130100CD13B7
S284004A0002004F140100121401000000000000000000BB13010000000000000000000000000000000000000000000000000000000000000000000000000000000000000000001B140500201401002114010000000000000000000000000000000000000000000000000000000000FC13010000000000000000000000000000000000000026
S284004A8000000000000000000000000000000000000000000000000000000D14010002140100FB13010085006C0001000007050007040205040204000308FF140000000108030303020A901A00000100000000000303141061620003001E000003F400800000013412000303000002000000000003034C1D000010270000010001E8030001
S284004B000004E80300001041746D656C2020202020202020202020FECAAAAAAAAAAA1A0002030100000000000000000000000000000005FF00000000000000000000000000000000000000000000000000000000000000000000000000000000000000000000000000000000000000000000000000000000000000000000000000000000A0
S284004B8000000000000000000000000000000000000000000000000000000000000000000000000002010002020508080000FFFF341200000000000000000202014E408A4500000000000000000000000002A97C87770107F19733720101F19733720101687C9A8F0101ED7BF99E0101ED7BC89E0107A27B237201014A7B15850101000068
S284004C000000010700000000010100000000010300001D6A010400001D6A010500000000010600000000010D000000000101F1970000000100000000010E00000000010700000000010A00000000010000000000010100000000010100000000000000001076000900001076000C0000107600000000107600AB787D7EB09574A8B074E68B
S284004C809BC079667A367323816C874976229F4779B5739E72000000006872EB8000000000D267E26A68683D6861680000D967E7675668E067D86A9067D469DB694A6ACC696F680000326B020102030302020101010101010101010202010101020102020202020201020202020202010303020203ABA6D79C8E950A9E00000DA58D8EC428
S284004D00A900000000F6B611BCC6C5D9BEA1D3ABC490E290E290E290E202E4C7E1E0F37EEC30DF6EDE13EBB3EDB7EA44E9BFE791E2E3E30FE522E3E1E30DE520E300112480913819823159F084B780FD04C08F718093381907C081E08093381903C081E18093381914BE8091600088618093600010926000E9E3F9E18DEC01C0819390E788
S284004D80E030F907D9F3D0F311241FBEC0E0D0E7DEBFCDBF00E00CBF14E0A0E0B2E0E4E5FCEE01E00BBF02C007900D92A036B107D9F729E1A0E6B4E001C01D92A833B207E1F70E943C310E945231FDCF0C9400007F937FB7F8949D9AA5988AEF4DD08AEF4BD09D9886E448D081E0959980E08F9380EF42D08F917FBF7F9108957F937FB76A
S284004E00F8949D9AA59886E037D09D988AE034D0889495990894881F8F9384E62DD08F917FBF7F9108959F937F9398E0E7DF879577959A959923D1F7872F7F919F9108957F937FB7F894A5989D9A8F9386E014D08F91879508F49D988F9384E60DD08F919D987FBF7F9108959F9398E0E9DF9A959923E1F79F910895000000000000000040
S284004E808A958823C9F708955F937F937FB7F894CF93DF93C0E0D0E07F935091B2007091B2007517E1F3739521965091B2005717D9F77F91CE01DF91CF917FBF7F915F910895811104C06FE18AEC92E0C1C10895811104C065E28AEE92E0BAC10895EF920F932091C30630E0322F22278091C406282B3093CF062093CE068091C60690E08D
S284004F00982F88274091C706842B9093CD068093CC068091C90690E0982F88274091CA06842B9093D1068093D00640E050E065E0E62E01E061E180E092E0BED10F91EF90089581E28093D30681EB8093D40682E292E00E9427E6019621F464E189E093E077D182E292E00E945DE6019621F465E18EE193E003C062E184E393E069D182E25D
S284004F8092E00E9445E685E694E00C9416E2089584EE8093D30688EB8093D40660E287E493E056D182E292E00E9427E6019621F463E188E693E04CD182E292E00E945DE6019621F464E18CE793E042D181E192E00E9485E6019621F464E181E993E038D18091C3068295880F807E90916104892B8093600480936104882341F081E0809385
S284005000630464E183E593E023D106C068E186EA93E01ED11092630482E292E00C9445E6089560E18FEB93E013D1B2DF80916304882321F081E08093640407C083E08093640460E180ED93E003D12FB7F8948091C0059091C10590619093C1058093C0052FBF0895809164048130D9F018F08230E9F00895BED08CE795E1A0E0B0E0809312
S2840050806B0490936C04A0936D04B0936E0410926F0481E198E2909371048093700451DF0AC065E183E094E0D3C0089518DF61E180E092E0CDD083E08093640408950895089508950895CF92DF92FF920F931F93CF93DF93E42FF0E0F0906E052AEF30E02F1931092E173F0734F150916D0520E030E0EC01C60FD11D0AEF10E02E173F071F
S284005100ACF4852F90E0BC016E587B4F6B01BE01620F731FDB015C91D6015C932F5F3F4F0196B8010E94A9F4582FE8CF50936D05F40EF0926E05DF91CF911F910F91FF90DF90CF9008951F93CF93DF931092A1051092A20510916E05112309F446C080916C05EFE6F5E01333E0F4212F30E0CAEFD0E0AF014F565540421753075CF490E03F
S284005180DC01AE58BB4F4C9141930196BE010E94A9F4EFCF80936C051093A10510926E0518C02AEF30E090E0DC01AE58BB4F4C9141930196B9010E94A9F495E0E13AF90791F780936C0582E38093A105125310936E0581E08093A2054091A10550E06FE675E081EA96E00E9478E5DF91CF911F91089588EC8093AC061092AD0689E190E032
S2840052009093AF068093AE0686E08093B0061092B1061092B2061092C1061092B6061092B5061092B8061092B7061092BA061092B9061092BC061092BB0683EA98E29093C0068093BF0681EA96E00C9419E50895462F2091A205222319F060E034CF0895FC01AFE6B5E0633370F4862F90E09D012F563540281739071CF421912D93F7CFD7
S2840052804093A1050CC021912D9325E0A13AB207D1F722E32093A105425362E314DF81E08093A2054091A10550E06FE675E081EA96E00C9478E50895A0E0B0E0E2E6F9E20C942BF5F12CF701E00FF11DC62FD0E0CE17DF07ECF0C0E0D0E08C010E0F1F1F6AE0862E912CA12CB12C2197F701EC0FFD1F319669F06801CC0EDD1EB901CA0167
S284005300A50194010E94BCF4605DF6016083EDCFCDB7DEB7ECE00C9447F5A2E0B0E0E3E9F9E20C942DF56C010091D5061091D606E12CF12C8091D9069091DA06E816F906A8F45801B8016C5F7F4F42E050E0CE0101960E94F3F50A5F1F4F29813A812C153D0539F08FEFE81AF80AE4CF80E090E001C0C5012296EAE00C9449F5ADE0B0E024
S284005380E4ECF9E20C942FF57C016B0123E0969587952A95E1F7FC01EB52F94F228D30E0B70167707727062E02C0369527950A94E2F78E010F5F1F4F20FF42C027E0EFEEF6E0D80101900D922A95E1F7A0E020E030E04A2F50E048175907D8F4F801E40FF51F4081542F569555754575540F452F4695469543735373450F4083E42FEF701E
S28400540042954F7050E04E0F511D240F351FAF5FE0CFE0E0D801A80FB91F4E2F50E04617570780F44C9150E00E2E02C0569547950A94E2F741705527240F351FEF5FEDCF2FEF3FEF1B870A8746E0429FC001439F900D112404969987888786E090E09D878C8760E77BE2CE01089672D18D819E81E816F90639F084E090EA909309078093AB
S2840054800807E1D589819A81F601918380832D96E8E00C944BF5A6E0B0E0E1E5FAE20C9431F57C018B0180E090E0FC0133E0F695E7953A95E1F7EE0DFF1D6081AC0147705527262F30E0042E02C0369527950A94E2F720FF0DC021E030E001C0220F4A95EAF720952623208318DF009731F431C0019683339105C9F62CC046E050E0BC016B
S284005500CE0101960E94F3F589819A81F80193838283B8018D819E8131DFF801808191810596918380838B819C819583848382819381892B39F480E090EA909309078093080781D58D819E81F7019087878381E006C08FEF9FEFF7019087878380E02696E6E00C944DF5A8E0B0E0E9EBFAE20C942BF57C01A090D706B090D806FC018681FA
S28400558082FD09C000E010E0812C76E0972ECC24C394D12C0CC047E050E06FEF70E0C7010E9423F66DC0882483940F5F1F4F8091DB069091DC060817190708F05BC0909EB001919E700D11246A0D7B1D46E050E0CE0101960E94F3F52D813E81F90163E0F695E7956A95E1F7EE0DFF1D408127703327842F90E0022E02C0969587950A94BB
S284005600E2F780FFD2CFC60102C0880F991F2A95E2F79C01209524232083812C882D90E02B813C818217930708F0BDCF880F991F69817A81680F791F42E050E0CE0107960E94F3F58F819885FC0153E0F695E7955A95E1F7EE0DFF1D87709927960102C0220F331F8A95E2F7C9019081982B90838394D4CF882021F000E010E0812C97CF2F
S2840056802896ECE00C9447F5CF93DF93EC018FEF9FEF98878F8387E0FB01DE0101900D928A95E1F7CE015FDFEFEEF6E0919188818923899386E0E63FF807C1F7DF91CF9108958091030790910407A7C208951092000781E69BE2909302078093010708950895E8EEF6E0DC013D91CD012081232B2193B6E0EF3EFB07B1F7809105078460E5
S2840057008093050708950E943DE9882311F0DFD5FACF0895A2E0B0E0E0E9FBE20C9433F58B0189839A83EFDFB80189819A810E9460E8019631F08BE20037180721F4E3DF02C081E001C080E02296E4E00C944FF5A2E0B0E0EEEAFBE20C9433F58B0189839A83D1DFB80189819A810E94EDE7019631F08BE20037180721F4C5DF02C081E07A
S28400578001C080E02296E4E00C944FF5A2E1B0E0ECECFBE20C9428F580910507982F92609093050782FF0AC068EE76E083EA95E06BDF809105078B7F80930507CC24C394D12C7E013DE0E30EF11C55E0A52EB12C4E0182E1880E911CBE01695F7F4F83EA95E059DE882309F462C06090AA057090AB05F30163E0F695E7956A95E1F7EB529F
S284005800F94FC30187709927960102C0220F331F8A95E2F7C901809593898923838BFC82EB82BE82AD828F81988505979A83898360E77BE2CE0101968BDF4B855C8569857A8580E05ED0582E8D8558123AC08889998968167906A9F52B853C858E859F852817390771F59C828B82DE82CD8200E010E02B853C850217130708F0ADCF2F8122
S2840058803885200F311F3A83298360E77BE2CE0101965EDFAB81BC81E985FA85E00FF11F9C91808198130DC00F5F1F4FE2CF809105078D7F8093050760E070E08FE001D21CC05D86798A688A8B859C859F878E87FC82EB8285E090E09E838D838F81988505979A83898366EC7BE2CE01079612DF60E77BE2CE0101960DDF6296EFE00C94A9
S28400590044F5FB01460F571FE417F50719F09191890FFACF08954F925F927F928F929F92AF92BF92CF92DF92EF92FF920F931F93CF93DF93CDB7DEB762970FB6F894DEBF0FBECDBF80E094E49093D6068093D50686E994E49093D8068093D70606E914E400501444C80166E070E00E9495F4892B39F080E290EA909309078093080763D3DC
S28400598026E030E0C801B9010E9495F44091D9065091DA06642B752B7093DA066093D90604EB14E406591444C801B9010E9495F4892B39F081E290EA909309078093080742D3C80166E070E00E9495F48091DB069091DC06682B792B7093DC066093DB060091D5061091D6061092DD061092DE061092DF061092E00687E0EFEEF6E0DF01AD
S284005A001D928A95E9F7D12CEE24E394F12C8091D9069091DA062D2D30E028173907C8F546E050E0B801CE0101960E94F3F52B813C812B5F3F4F8091DD069091DE06A091DF06B091E006820F931FA11DB11D8093DD069093DE06A093DF06B093E0068D819E81FC0133E0F695E7953A95E1F7EB52F94F87709927970102C0220F331F8A9553
S284005A80E2F7C901928D982B928F0A5F1F4FD394BECF26E0289F6001299FD00C112434E0C30ED11CE12CF12CCE010796988B8F8786E090E09A8B898BA12CB12C00E010E096E0792E22E2822E20EA922EF80183E0F695E7958A95E1F7EB52F94F828D90E098012770332702C0969587952A95E2F780FF41C07A9CC0017B9C900D1124049601
S284005B009E878D8760E77BE2CE010D9621DE8B859C858017910749F48F819885A985BA858C159D05AE05BF0559F01C870B87CF82D886E986FA8660E77BE2CE010D96EADDC801EBDB2C01009729F4909209078092080779D246E050E0B201CE0101960E94F3F58B819C810596C80ED91EE11CF11C8FEFA81AB80A0F5F1F4F0333110509F023
S284005B80A5CFA5DD62960FB6F894DEBF0FBECDBFDF91CF911F910F91FF90EF90DF90CF90BF90AF909F908F907F905F904F90089520E0FC013191CF01311105C02F5F2730C1F780E0089581E0089527E0FB0111922A95E9F7FC0123E0F695E7952A95E1F7E60FF71F8770992721E030E001C0220F8A95EAF78081822B8083CB01B4CC0895A9
S284005C00AFEEB6E0FC013D9120812323219326E0A63FB207C1F7CCCF0895A7E0B0E0E3E1FEE20C9434F5BE016F5F7F4FCEDFCE010196E6DFCE010196BBDF182F882339F0CE0101964EDD8091050781FF9FDD812F2796E3E00C9450F508950895A2E0B0E0E4E3FEE20C9435F58091AC058823E9F0BE016F5F7F4F81E290E00BD4BE016E5FC5
S284005C807F4F8DE190E005D48981823071F48A8181110BC08DE29EE29093B5058093B4058DEA95E00E9487C102C00E9483DF2296E2E00C9451F58091AC0508950C943CEB0895A0E0B0E0E7E6FEE20C942DF5B82E7B01082F10E093E0169507959A95E1F78770C1E0D0E001C0CC0F8A95EAF7AC2E8FE38B1538F484E090E890930907809353
S284005D000807A1D1F801EA54FA4F80818C2311F1C091BE05D091BF0585E0C82E80E8D82E2097C1F0FE01E00FF11F82818A2171F02A853B85232B29F4D0920907C092080782D1EA85FB85B7018B2D19950990D881C02DE6CFCDB7DEB7EAE00C9449F5E82FF0E023E0F695E7952A95E1F7EA54FA4F208130E0877041E050E002C0440F551F01
S284005D808A95E2F72423352381E0232B09F480E00895282F30E043E0369527954A95E1F7620F731F877021E030E001C0220F8A95EAF7FB019281922381E009F480E008951F93CF93DF93182FEB01803438F023E030E8309309072093080735D1BE01812FD8DF81112AC0BE018EEB95E09AD081110BC088E0FE013296DF011D928A95E9F75C
S284005E00BE018EEB95E09DD0412F50E063E0569547956A95E1F7177021E030E001C0220F1A95EAF7C40FD51F8A81822B8A83FA01EA54FA4F8081822B8083DF91CF911F9108951F93CF93DF93182FEB01803438F023E030E83093090720930807F4D0BE01812F97DF882369F1212F30E073E0369527957A95E1F7177041E050E0012E01C0B0
S284005E80440F0A94EAF7942F9095C20FD31F8A8189238A83E091BE05F091BF05309759F0DF01A20FB31F12968C91842351F40190F081E02DF3CFF901EA54FA4F808189238083DF91CF911F910895DC01ED91FC911197309721F0208131812D933C93CF01089561157105A1F0DC01ED91FC911197E617F70759F4208131812D933C930FC0E3
S284005F00808191818617970729F0FC013097C1F780E00895DB018D919C919183808381E00895DC01ED91FC91309739F0E617F70731F00190F081E02DF7CF80E0089581E008950F931F93CF93DF938C01EB01E9DF882349F080E090E890930907809308075AD080E014C019821882D801ED91FC911197309719F4CD93DC9308C08081918125
S284005F80009711F0FC01FACFD183C08381E0DF91CF911F910F910895CF93DF93FC0182819381009781F40E946AE2C22FD32F0E944A5144E0FC0121913191CF01C227D3274150C1F7CE010E94E8F581E08093390281E492E00E9416E2DF91CF91089583E392E00C94BB51089580913902882369F081E492E00E9446E28CEC9FE2909340029B
S28400600080933F0210923902EACF089581E492E00C9446E2089582E090E090930B0780930A07809108079091090790930D0780930C07E0910607F0910707309719F08AE097E01995089583E090E090930B0780930A07809108079091090790930D0780930C07E0910607F0910707309719F08AE097E019950895EF920F93FC01618372839A
S2840060804F3740F081E090E89093090780930807C2DF20C0403808F04FE7440F808181700187842BE0FA80F9808334832383CB01AC016081669504962181328174E0679F200D311D11244217530720F4DC0111971C92EECF0F91EF900895A0E0B0E0E3E7F0E30C942EF5EC018B01B42E0E946AE269017A018D819E81AF81B885A701960129
S284006100281B390B4A0B5B0BCA01B9012B813C8140E050E00E94BCF42F3F31054105510518F42223F9F001C02FEF89819A81BC0138813695049649815A81E4E03E9F400D511D11246417750748F4FC013291432F231708F4422F341B3083E9CFCD82DE82EF82F886A981BA814881842F86959D0154E0859F200D311D1124C901E0E0F0E059
S284006180A817B907C0F413965C911397552359F02D913C9111972017310729F412962C9112972B15C1F0309719F02381521708F4FD011496E5CF40FD06C0309771F0838181110BC002C0309751F011830083B2828985838304C080E003C082E001C081E0CDB7DEB7E9E00C944AF5FECE08950895CF93DF9360914E0270914F0280E090E055
S284006200E1E0F0E09F01082E02C0220F331F0A94E2F74091C0055091C1054623572342235323452B11F16FB7F8944091C0055091C10520953095242335233093C1052093C0056FBFFC01EE0FFF1FE75EFB4FC081D181209739F486E090E89093090780930807F1DEFE01199504C001968F30910549F6DF91CF9108950E940EE00E94D7B070
S284006280882371F02FB7F8948091C0059091C10580619093C1058093C0052FBF81E0089582E00895A5DF60E070E08BE20ADD8091C0059091C105892B09F4D0DC2091C0053091C10581E0232B09F480E0089590CF0895FC012081211105C021E02193CF010C9416E20895FC012081213021F41192CF010C9446E20895A5E0B0E0E2E8F1E3CF
S2840063000C9431F57C012A833B834C835D836983EADFF7011082698163872A813B814C815D812783308741875287158704872596E6E00C944DF5089589E3EFECF3E1DF011D928A95E9F7E0EFF3E181E080839AE0918312821382148215821682178295E09093FA138093021487E08093FB1347E850E066E37BE480E594E10E94F3F543E1C3
S28400638050E063E27BE48CEB93E10E94F3F543E050E060E27BE489EB93E10E94F3F548E450E068ED7AE488E094E10E94F3F58BEA9CE0EEE0F7E0DF019C011D9221503040E1F70895A4E0B0E0E8EEF1E30C9435F5BC011A8219821C821B828827811521E0920769F0811522E09207B9F0892BE9F4660F771F660F771F6659764B07C0772706
S284006400660F771F660F771F6255774B44E050E0CE0101960E94F3F50FC07727660F771F660F771F625E774BF1CF8AE090E6909309078093080707DE69817A818B819C812496E2E00C9451F577DF65CA0895A4E0B0E0EDE2F2E30C9431F57C018B01B2DFEE24E11422E0F20669F026E030E6309309072093080769837A838B839C83E3DDDA
S2840064807A816981F801718360832496E6E00C944DF5A4E0B0E0EFE4F2E30C9431F58C017B0190DFE114F10479F420E030E6309309072093080769837A838B839C83C3DD9C818B817A81698100270115110549F0011521E0120751F4AC01C7010E94F3F50CC0AC01C7010E9409F607C081E090E69093090780930807A6DD2496E6E00C9448
S2840065004DF5A0E0B0E0E7E8F2E30C942FF58C01EB0158DF6B017C01209739F484E090E690930907809308078EDD00270115110539F085E090E6909309078093080783DDA701BE01C6010E9409F6CDB7DEB7E8E00C944BF5FC0195A5892F887090FF09C0882379F081E021A532A52236310550F408C0882331F081E021A532A52436310564
S28400658008F480E08170089521E030E001C0220F8A95EAF78091C505822B8093C5052FB7F8948091C0059091C10580629093C1058093C0052FBF0895CF93DF93E091DC14F091DD148E179F0718F482E894E446C08E1B9F0B6CE670E00E9495F48091D714681718F083E894E439C08CE6689FE00DF11D11248781869590E08230910559F0B5
S28400660014F00397D1F58091DB148823B1F181508093DB1432C08091DA14882319F081508093DA14DF01AC5ABF4FCD91DC912091DF143091E014CE01821B930B63E270E00E9495F4C217D30718F484E894E406C08091D814681740F085E894E49093090780930807D8DC0CC0D90183E2689FA00DB11D11248C9181111C9287818E7F8783F7
S284006680DF91CF910895CF93DF93EC0118A68EA19FA1892B39F484E494E49093090780930807D1DCEEA1FFA1CE0188961995DF91CF910895EF92FF920F931F93CF93DF93A091D7144091DC145091DD1420E030E090E09A1709F45AC0FA01E20FF31FB90164597F4FB781B0FD63C07F0194E5E90EF11CD7011D921C928230B1F010F083308C
S284006700F1F59091DB144091D914941708F03EC09F5F9093DB14138214821582168290859F709087128235C01091DA149091D814191760F50091DE144091DF145091E01490E09017B9F0EA014D5D5F4FBA0163527109DB016C9161110BC01F5F1093DA1441E048836896D701CD93DC93428302C09F5FE7CF4091DE1449130BC007C081E85C
S28400678094E490930907809308075DDC80E090E012C09085907F9087880F81608783118210828091DC149091DD14820F931F03C09F5F9B018ECFCDB7DEB7E6E00C944DF52091D60521502093D605BC0180EF95E0B8DB81E0D9CE0F931F93CF93DF938C01C091C605D091C7058091C2059091C30580519140813F954048F4B80186EC95E0A0
S284006800A0DBCD2B59F480E0BFDE08C083E694E4909309078093080716DCEFCFDF91CF911F910F910895BC016151710982EF95E088DB81E0A9CE2091D6052F5F2093D6050C9451916F927F929F92AF92BF92CF92DF92EF92FF920F931F93CF93DF931F92CDB7DEB78C017B01FB01E25AFF4F80EE93E3918380833E9782E08083D801599680
S2840068808D919C915A973196918380839E968C919E97379680833196108231969D968C919D978095881F8827881F8083319681E08083319680839D968C919D9786FD0BC021E059968D919C915A97883F9F4F08F020E0822F01C081E0F701E35AFF4F81708083C80137DEF701ED5AFF4F6F0197012C5A3F4F3901882309F442C09090891557
S28400690040918A15242F30E080918D1590E001972817390739F4D80199968C91499D80191124982EA92CB12CC5014E968236910538F081E594E4909309078093080783DB3091891520918A1580919F159091A015F80163A574A5329F600D711D1124A5014E960E9409F68AE0890DD6018C9380919F159091A0154496F301918380830EC002
S284006980D80199968C919997885F80839B968D919C919C970897D9018D939C93F301C080D180D6012C912C7F2F7E2C93F801818D928D237F883F9F4F10F02860D6012C93F60180818F7D8083D8019D969C9192FD03C08F7B808322C08064F6018083D70118962C911897207F216018962C93C8012983B0DD29812F70882341F080918F1557
S284006A008295807F822BF701808708C08091BA138295807F822BD70118968C93C8019ADDF60190818823A1F09068908390918A1580858C7F911106C08160808780918D15818709C08260808780918A15818703C09F77F6019083D80193968C919397F601818396968D919C9197979383828394968D919C9195979583848398968C91868372
S284006A80C80168DD882331F080918E15D60117968C9308C08091ED0591E0980F9093ED05F6018783C7010996C6DE80E00F90DF91CF911F910F91FF90EF90DF90CF90BF90AF909F907F906F900895E0919D15F0919E15BF0180819181B5CEECE7F5E1F0934D15E0934C1592E0909348152091EF143091F01430934A15209349159BE09093AE
S284006B004B15109250151092511591E090935215909353151092541523ED37E3309357152093561590935515908190789260906890839091F61490937D152091F2143091F31430937F1520937E152091F4143091F51430938115209380159091F114909382159091F7149093831592E0909384159091ED14909385159091EE149093861521
S284006B8090918715909365151092E8141092E9141092EA141092EB148093E11481E095E14ACEA4E0B0E0E7EDF5E30C9433F5182FBE016F5F7F4F8AE190E06BDC2091DB053091DC054091DD055091DE05A12FB0E00E9415F509811A812B813C81600F711F821F931F2496E4E00C944FF50F931F93CF93DF93EC018C0107551109FC013C9795
S284006C000190F081E02D6FEF818192810E947088882361F0FE01329780EE93E39183808323971882C8010E94419102C0CE01C8DDDF91CF911F910F9108956EED74E180E191E027DC6FED74E18EE092E000DC8091DF149091E01420E03091DE14231748F4FC0133E2239FE00DF11D112410822F5FF3CF67ED74E18FE091E00BDC6CED74E178
S284006C808DE092E0E4DB2091D714E091DC14F091DD1480E0821739F097819E7F97838F5FE459FF4FF7CF9091DE149093D8148093D9141092DA141092DB1469E875E188E291E0E7DB67EE74E189E291E0E2DB66EE74E188E191E0DDDB8091E614882351F062EE74E18FE092E0B2DB6FE975E180E192E0ADDB3091E6142091E7148091E2144C
S284006D009091E314329F800D911D11249093E5148093E4141092E114089567EF75E082E192E095DB66EF75E087E191E0B2DB8091F605E091F705F091F805882349F0309739F489E294E4909309078093080763C99F0146E1849F200D311D1124C90128EAE817F90718F4258B7696FACF08951F93CF93DF93EC01162F0097B1F08D819E8167
S284006D80892B91F086EC95E0A0D81F83ED81FE81CE01079619958091C6059091C705892B59F080E0F1DB08C08BE694E4909309078093080748D9E6CFDF91CF911F910895A1E1B0E0E6EEF6E30C9425F58C01262E29873A874B875C870E9412DEE091DF0529853A854B855C85EE2361F13090D714C090E205D090E305E090E405F090E50591
S284006E002B013C014C185D086E087F084D825E826F827886E091DC14F091DD14198A66246A94762C430169827A828B829C8246015701861A970AA80AB90A8D869E86AF86B88A0BC004E218E3A3C0A781A0FD09C0A989AF5FA98BE459FF4FB989B311F5CF40C0B085BF70B23099F7AA7FA23081F783809480A580B68081149104A104B104A2
S284006E8039F3E017F10721F34D805E806F807884481459046A047B0468F44D845E846F847888840C951CA61CB71C83829482A582B68204C0138214821582168283809480A580B68049805A806B807C8084149504A604B70408F0BCCF89829A82AB82BC82B7CF211046C08090E8149090E914A090EA14B090EB1481149104A104B104C9F17A
S284006F002B013C014C185D086E087F08481459046A047B0488F4C80CD91CEA1CFB1CC61AD70AE80AF90AC092E814D092E914E092EA14F092EB1408C01092E8141092E9141092EA141092EB148091E8149091E914A091EA14B091EB1449805A806B807C8084159505A605B70520F489839A83AB83BC8389819A81AB81BC81281739074A0775
S284006F805B0710F4DA01C90104E218E39C01AD0161E08FED95E0B0D98FED95E09AD96196E2E10C9441F58091D60581508093D6058091E114833009F43CC0823039F082E594E490930907809308073DD8E0918815EE2379F181E08093E114A091BB13B0E011972AE030E00E940FF59B01AC018091D7059091D805A091D905B091DA05280FA2
S284007000391F4A1F5B1FA091BA13B0E00E9415F59B01AC016093E8147093E9148093EA149093EB14E150E093881561E080E090E0C7CE1092E1141092E8141092E9141092EA141092EB140895A4E0B0E0EAE2F8E30C942DF52FEF3FEFA90110E0AA24AA94B12C8091D714181708F054C0E091DC14F091DD148CE6189FE00DF11D11246781FB
S28400708060FF46C07085872F8F70823009F040C0862F8A7F8230E1F583819481A581B681C090E605D090E705E090E805F090E9058C199D09AE09BF0983839483A583B6830097A105B105E9F4872F807F846080876E7F663059F4C5010090BB1302C0880F991F0A94E2F7809580938C1581E029833A834B835C8348DA29813A814B815C811F
S28400710007C082179307A407B50710F49C01AD011F5FA7CF8091E8149091E914A091EA14B091EB140097A105B10551F1C090E605D090E705E090E805F090E9058C199D09AE09BF098093E8149093E914A093EA14B093EB140097A105B10559F482E029833A834B835C83B9DC29813A814B815C8107C082179307A407B50710F49C01AD01CE
S2840071802F3FEFEF3E074E075E0751F004E218E361E08FED95E0B0D88FED95E09AD803C08FED95E0A0D82496EAE00C9449F5A0E0B0E0EDEDF8E30C942CF58C01962EC091F705D091F8058091F6056E0196E1899FC00CD11C1124F8018589811109C07E01F6E1EF0EF11C58018CE0A80EB11C09C085E294E432C08A3A89F06696F6E1EF0E37
S284007200F11CF801CC15DD0508F04AC0908521853285F70131978081843A69F7F7013E9780819813EACF89859A852817390729F748E050E0B801CE010E94FCF5892BE9F6F8018385F7013B9790818913D6CF813059F0833091F086E294E490930907809308070E940B301DC0F801248535858C859D852817390709F617C0F8019489F701BD
S284007280329780819813B9CF48E050E0BE01645F7F4FC5010E94FCF5892B09F0AECF04C0958A80E090E001C0CE01CDB7DEB7EBE00C9448F5CF93DF93EC010097B1F18AEA8D8B0E944A5148E050E0BC01CE010E94FCF5892B51F582E88D8B888581508E3F20F58B858330C9F48C8981508E3FE8F42C853D854E855F85688979898A899B8984
S284007300A0E00E9490F571F480E194E490930907809308070E940B3008C0813019F086EA8D8B03C01D8A81E001C080E0DF91CF910895CF93DF93EC01009761F169AB4115510551F0FA0140815181628173814AAB5BAB6CAB7DAB04C01AAA1BAA1CAA1DAAEFA5F8A9309749F484E594E490930907809308070E940B300DC0CE01C19619957D
S284007380CE01E8D8882331F010929E1510929D1581E0FAD8DF91CF910895A1E0B0E0E3EDF9E30C9433F58C01FC01208131818091DF149091E0142817390740F487E494E490930907809308070E942330F801808191812091DF143091E014821B930B63E270E00E9495F48091D814681750F088E494E4909309078093080769830E94233053
S28400740069818091DF149091E014F3E26F9F800D911D11242196E4E00C944FF5FC0120814597211107C0BC0184EF95E00E94A12F81E0AAC840E050E069EA7BCFA3E0B0E0E4E2FAE30C9433F58C01675F7F4F7A836983BE016D5F7F4F8EE090E01AD88B81D80199965C9199974091ED05882309F442C089819A81FC01E95BFF4F21E0208361
S28400748059962D913C915A973196318320833296585F50839B96ED91FC919C979C01255B3F4F3897D901ED93FC938FEF8183D80196968D919C9197979383828394968D919C9195979583848398968C91868381E0840F8093ED054783D901ED91FC918081807888608F778083E981FA81EB5AFF4F80EE93E344C089819A81FC01E95BFF4F05
S28400750022E0208331962DEF3FEF318320833296575F5083D8019B96ED91FC919C979C01255B3F4F3997D901ED93FC93D80159968D919C915A979283818396968D919C9197979483838394968D919C9195979683858398968C91878381E0840F8093ED054087D901ED91FC91808180788C608F778083E981FA81EB5AFF4F86EF95E39183FA
S2840075808083E981FA81D8019E968C919E97E15BFF4F8083E981FA81E05BFF4F8091B9138083E981FA81EF5AFF4F9D968C918095881F8827881F8083E981FA81EE5AFF4F81E08083E981FA81ED5AFF4F8083E981FA81EC5AFF4F808389819A812CD980E02396E4E00C944FF5DC01ED91FC9190939E1580939D1510928A1510928B158091A9
S284007600BA1380938F152091891530E081A592A5B9010E9495F4462F60938D1581A592A5B9010E9495F4892B19F04F5F40938D158FEF90E00090BB1302C0880F991F0A94E2F780958E7F80938C158091ED0591E0980F9093ED0580938E150895A0E0B0E0E4E3FBE30C942CF5EC016B01942E59010091F7051091F8058091F605780196E175
S284007680899FE00CF11C1124209761F0C017D107F0F583E294E490930907809308070E94233035C0E801CE01801B910B66E170E00E9495F4892B79F084E294E490930907809308070E94233006C01D89143A39F01A3A29F06696CE15DF05B8F313C088859812F8CF89859A85C816D90699F748E050E0B501CE010E94FCF5892B59F7143A36
S28400770049F703C080E090E004C0CE0102C06696CACFCDB7DEB7EBE00C9448F54F925F927F928F929F92AF92BF92CF92DF92EF92FF920F931F93CF93DF931F92CDB7DEB72C017B010E944A516C0157018AE6A80EB11CF501008111814114510431F0E114F10419F0C114D10451F484E194E490930907809308070E940B3088EA5EC058EAB4
S284007780F20166A177A1960140A5C801598366DF8C015981009709F44FC0F20186899789892B19F5F8017384F3E07F121EC048018CE0880E911CC4010E9423C1892BA9F4F2017286D2011D9688E0F40101900D928A95E1F78EE29CE3F201978B868BC20106960E9418C180E028C0F50111830083F80183858330B1F4C8010C960E9423C1D5
S284007800009711F459EABCCFF8012489F20123A3FC0180819181F201928F818FB701C20111D80BC0F80184859585F201928F818FB701C20103DE01C0852F0F90DF91CF911F910F91FF90EF90DF90CF90BF90AF909F908F907F905F904F900895FF920F931F93CF93DF938C01055111092091D714C091DC14D091DD14F12CF216E9F08F81E2
S28400788080FF16C0888199818017910789F4BE01C80144DF882381F040E050E0682FC80148DDCE010E94DC3281E00E94C43204C0F394C459DF4FE1CF8091D714F81640F085E194E490930907809308070E942330CDB7DEB7E5E00C944EF5EF92FF921F93CF93DF931F921F92CDB7DEB77B010097A1F06115710589F0FC01178A168AF70190
S284007900E659FF4F11821082B70108DF182F882389F0C7010E94DC320DC023E134E4309309072093080789839A830E94233089819A81E2CF812F0F900F90DF91CF911F91FF90EF900895A1E0B0E0E9EAFCE30C9431F58C01262FDC01ED90FC90009709F444C0E114F10409F440C02E3C61F0822F8F7D803D41F0213D11F082E005C0F7018F
S28400798085A587FFFACF83E0F801EB59FF4F4081518162817381D701D2964D935D936D937C93D597D1962C93833071F0D801ED91FC91808D811108C0F701178A168AB801C701ACDE883AE1F4A7014E5C5F4FD701D1966C91F80180819181ABDCC8010E94DC3281E00E94C4320BC08FE494E4909309078093080729830E9423302981B5CFAB
S284007A002196E6E00C944DF5CF93DF93EC0152DC882309F454C060E0CE01C9DB892BC1F5209709F43EC08D8981113BC05091F6052091F7053091F80540E0451781F0C9012A5E3F4FF90131976081683A31F424EAFC01258B009731F432C04F5FEECF8EEA8D8B2DC0209719F03D89332349F087E294E490930907809308070E940B301AC0B4
S284007A8036E1FE01DC0101900D923A95E1F706C066EACE018CDB009791F024EAFC01258B09C080E294E490930907809308070E942330BCCF60E070E080E10E94612EDF91CF910895CF93DF93EC010097D9F08091F7059091F805C817D907A0F02091F60536E1239F800D911D1124C817D90750F48D89843A11F08A3A71F488EA8D8BDF9106
S284007B00CF91089581E294E490930907809308070E942330EDCF82E294E490930907809308070E942330E9CFCF93DF93EC01C2DB882359F064EACE013ADB009731F0C2DF60E070E080E10E94612EDF91CF9108952091F7053091F805009751F0FC0176968091F60596E1899F200D311D112408C0F901F6CF8589843A49F08A3A39F07696AC
S284007B80E217F307B8F380E090E00895CF010895CF93DF93EC01BC0184EF95E00E94A12F1F8A1E8A81E00E94C432DF91CF910895CF93DF93EC01BC0182EF95E00E94A12F1B8A1A8A81E00E94C432DF91CF910895AAE0B0E0EEEEFDE30C942BF51091FA13BE01665F7F4F87E091E00E944932BE016F5F7F4F8AE190E00E944932C980DA8073
S284007C00EB80FC80812F90E0A0E0B0E08C159D05AE05BF0578F0CC0CDD1CEE1CFF1CC982DA82EB82FC82BE016F5F7F4F8AE190E00E948132C12ED12C87E0C80ED11CEE24D7FCE094FE2CC092DB05D092DC05E092DD05F092DE052A8530E0A3E0B0E00E9400F59B01AC01C701B6010E947AF409811A812B813C81600F711F821F931F6093D8
S284007C80D7057093D8058093D9059093DA0581E08887BE01675F7F4F87E091E00E944932BE01685F7F4F84E290E00E944932898590E0A0E0B0E0880F991FAA1FBB1F8F3F9105A105B10529F020F08FEF90E0A0E0B0E00E94D135E885EE2309F45AC0812C912C54018B019C0101501E4F2F4F3F4F800E911EA21EB31E660F771F881F991F43
S284007D00E15081F718867501640129E0F694E794D794C7942A95D1F7D501C4019170AA27BB2741E050E060E070E0892B8A2B8B2B19F440E050E0BA01C40ED51EE61EF71E1E821D821F82BE01695F7F4F81E191E00E944932BE016B5F7F4F88E092E00E942732970186010F3F11052105310529F020F00FEF10E020E030E06D817E81C12C0B
S284007D80EE24E39420E032E04F8188EC95E00E943B302A96ECE00C9447F5882331F00E94E5F58093ED051092D6051092F5051092F4051092F3051092F2051092F1051092F0051092EF051092EE058AE090E0A0E0B0E08093961590939715A0939815B093991585E695E390939C1580939B1581E080939A151092EE141092F7141092EC144F
S284007E001092F3141092F2141092ED141092F1141092F5141092F4141092F0141092EF141092F6141092E1141092E8141092E9141092EA141092EB148CE6E8EFF4E1DF011D928A95E9F783E2E4E6F5E1DF011D928A95E9F78091E71490E001962091E614289FA001299F500D112460E070E08091E2149091E3140E9423F68CE795E19093CC
S284007E804D1580934C15A4CE4F925F927F928F929F92AF92BF92CF92DF92EF92FF920F931F93CF93DF931F92CDB7DEB77C01009781F02C0127E0421A51088091C6059091C7058415950529F4D20112968C91893149F086E694E490930907809308070E940B30CBC08091C2059091C3058115B7E09B0709F07FC00091F4051091F5050115E2
S284007F00110551F084EF95E00E94652F40E050E063EAC8010EDAEFCF6CE6C62ED12C7CE6772EE2E4AE2EE4E4BE2EF3E48F2EF4E49F2E0091F0051091F1050115110509F444C0B80180EF95E00E94712F8091DC149091DD14F801E81BF90BCF01B6010E9495F48091D714681740F0B0920907A092080769830E9423306981E091DC14F091C9
S284007F80DD14679DE00DF11D1124808191812781269530E02130310561F02230310549F2232B61F4A8014B5F5F4FD80112966C9103C040E050E067EABCD9BBCF90920907809208070E942330B4CF10E08091D7141817D8F48091DC149091DD14BCE61B9F800D911D1124FC01278120FD0E94DC321F5FECCF8115924041F087E694E49093B4
S2840080000907809308070E9423301092C5051092C40581E0C2DE0E941D360E948D3682E393E09093C3058093C205D7018C91F201828786EC95E00E94652FD20118968D919C911997892B41F489E694E490930907809308070E942330D2011896ED91FC911997C701039619958091C6059091C705892B19F080E00E94C4320F90DF91CF9129
S2840080801F910F91FF90EF90DF90CF90BF90AF909F908F907F905F904F900895CF93DF93C091C605D091C705209741F484E694E490930907809308070E9423308A818A38F9F0853C09F44FC0893109F06CC08091C2059091C3058031914019F480E092E002C080E097E09093C3058093C20584E49FE39E838D83CE0103960E942EA85BC0CC
S2840081008091C2059091C305823323E0920719F08031964049F48FE394E09093C3058093C20556DD1D8202C083EA8D8386EC95E00E94652F8B819C81892B41F48AE694E490930907809308070E942330EB81FC81CE01059619958091C6059091C705892B51F180E018C08091C2059091C3058F339440A1F480E095E09093C3058093C20580
S28400818082E090E09C838B838FED95E00E9473311092D60581E00E94C4320DC063EACE010E94B73608C085E694E490930907809308070E942330DF91CF910895AAE0B0E0E4EEF0E40C9435F5DC011396ED91FC9114972181328140E450E05A834983AE01495F5F4F5C834B8341E050E05E834D836F3FBFEF7B0719F437FF15C003C0261732
S284008200370789F098878F837A876987BE016F5F7F4F8EE10E94612E81E02D813E81232B19F080E001C081E02A96E2E00C9451F5009729F48091D4059091D5050895FC01808191810895CF93C82FE0E0F0E0CF01EFDFFC01009739F0A381B4818C91C813F6CFCF0102C080E090E0CF910895DF92EF92FF920F931F93CF93DF938C010097AB
S28400828041F480E394E490930907809308070E942330C0E0D0E0A1E3EA2EA4E4FA2ECE01C7DFEC01009789F18A818111F8CF8B819C81892B31F4F0920907E09208070E942330F80160A171A1CE0178DF882339F3EB81FC81D0806D2DF801878190850E9470888823E1F2F801D18AED81FE81309749F482E394E490930907809308070E947F
S2840083000B3003C0C8011995CACFCDB7DEB7E7E00C944CF5A1E3B0E0E0E9F1E40C942BF58C01B62EDC015C96ED90FC905D9757966D917C915897F701478188EC95E00E946D30882309F414C1D70111968C919FEF980F9E3F28F477DF6C01009719F408C1C12CD12CF801248985899689213009F022E02F8399878887D70111968C918A8B99
S284008380F8018789908D0E9426C1FC01009799F083E08B8B708161815281438134812581968187817E8B6F8B588F498F3A8F2B8F9C8F8D8F02C082E08B8BD80157968D919C9158979D8B8C8B59968D919C915A979F8F8E8FF701868188A3848195819AA389A3828193819CA38BA35B968C9190E09C012A5031093EA32DA319A6208127FD9E
S28400840004C09C012850310906C02085237029F49C01295031093EA32DA32DA13EA1821B930BF801248D358D280F391F38A72FA3BAA684A18BA7868D8CA740A151A162A173A14DA75EA76FA778AB878D89ABD7018C9187FF48C018968C918370823009F042C0E091E414F091E514808190E09EA38DA38080912CAA24A394B12C2091EC14D0
S28400848030E08091E2149091E314A216B3064CF5E091E414F091E514EA0DFB1D408150E02091E7142A9DB0012B9D700D1124680F791F880D991D0E9409F6E091E414F091E514EA0DFB1D20818DA19EA1820F911D9EA38DA3BFEFAB1ABB0A8081880E911CCDCF98A78FA3C114D10449F0D6011596ED91FC911697CE010196199539C0F801BE
S2840085008489813021F4CE010196B1DE31C0D70111968C918F3F41F5E12CF12CC70188DE7C01009729F1D7011396ED91FC9114978081882399F312968C918111EFCF69A17AA1C7013BDE882349F3D7011396ED91FC91149780818A8B1596ED91FC911697CE0101961995DACFCE0101960E9494C8C8010E944333E196ECE00C9447F5A1E054
S284008580B0E0E5ECF2E40C942DF55C01DC015C960D911C915D97F80181812FEF280F2E3F80F4298350DE7C012981009751F0D80114966D917C91159701DE882309F405C105C02E3F08F401C1E12CF12CF801808187FF04C09085937009F0F7C086FFF7C08C70883009F4F1C0D50157968D919C915897883FBFEF9B0708F0E7C0E114F10420
S28400860021F0F70122812111E0C0D5015C960D911C915D97F801208126FD02C090E0D2C02370213009F027E0F090D714E091DC14F091DD1430E0422F50E0B801640F751F3F15E9F0A781A530B1F4DF01AF5ABF4F0D90BC91A02D8A179B0769F4DF01AC5ABF4FCD90DC90C40ED51EDB01EC90D601DC90ED1499F23F5FE459FF4FE1CF82E05B
S28400868029830E945A332981009741F2FC01EC5AFF4F0190F081E02DDF0158973FEA11963C9311971396BC92AE92129762E0DC01A05BBF4F6C93D50157964D915C915897DC01AF5ABF4F11965C934E9317961C9211961C9231E011963C9311963C9311961C9240EE53E3129611965C934E9311973C9330813C7F32603083D8014C914C7062
S284008700337F342B30834C914295417040FB34F93E7D3F7B30834C9147FB442740F940FB37F930834C9130E0DC01AD5ABF4F7D0144FF0DC0D5015C964D915C915D97420F531FDA012C912183F701608337C048E04C93D80116964C911697418312964D915C9113975383428314964D915C9115975583448311964C914683D5015C964D9150
S2840087805C915D97420F531FDA012C912783D8012C9127FF13C018962C91237031F41086F70120812F5F208309C0D7012C912D5F2C93D80118962C912370208709960E941B3491E081E08927A1C190E001C091E0F801808187FF92C18085837009F48EC1D5015C960D911C915D975B968C91F801F1842091E614222309F487C196EFE92ED4
S284008800E80E8091E114813009F456C030F0843008F06BC180E494E46AC1D084B1E0DB1274C12F1508F471C18091E7148E1508F46CC190E00196289FA001299F500D112460E070E08091E2149091E3140E9423F68FEA80938715D092E114F092EC14F5018789908D9093F0148093EF14D80111968C9111978093F11412968D919C91139755
S2840088809093F3148093F21414968D919C9115979093F5148093F41416968C9116978093F61417968C918093F7148091BA13809388151092ED14F12CF8018085982F9370923011F0F11021C18C7F09F01EC18091EC148F1508F419C12091EF143091F014D50157968D919C9158972817390709F00CC19091F114F8018181981306C12091A4
S284008900F2143091F314828193812817390709F0FCC02091F4143091F514848195812817390709F0F2C09091F61486819813EDC09091F71487819813E8C02091ED144091BB130F2D10E0822F90E0840F911D081719070CF0DAC08F2D642F0E9489F4D92EF21668F48F2D891B8093ED1421E030E001C0220F4A95EAF721952093EE14209120
S284008980E7148091E2149091E3144E2D50E0D5015C966D917C915D97665F7F4FF29E800D911D11240E9409F6E091E414F091E514E00FF11FE0827091ED142091EC147F1111C09091BB13822F8F19981708F4892F41E050E0082E01C0440F0A94EAF741954093EE1441E050E00D2C01C0440F0A94EAF76091EE14642B6093EE146F3F79F43B
S284008A00FF24FA94F70E822F90E04091BB1350E0871B9109481759070CF4CA01F80E8F2D90E030E0215031098217930751F46F3F21F483E00E946D3563C082E00E946D3564C0A091BB13B0E011979D01270F311D8217930711F06F3F09F582E00E946D358091EE148F3F09F050C08091BB139091ED14980F9093ED142091EC1421502F19CA
S284008A80821708F4282F81E090E0022E01C0880F0A94EAF781958093EE1437C02AE030E00E940FF59B01AC018091D7059091D805A091D905B091DA05280F391F4A1F5B1FA091BA13B0E00E9415F59B01AC016093E8147093E9148093EA149093EB1461E080E090E00E94E03610C083E594E490930907809308070E94233007C0992329F0F2
S284008B006FEAC50107DC80E001C081E02196EAE00C9449F5A4E3B0E0E0E9F5E40C9425F5C090C205D090C30520E1C21621E0D20609F46CC12EE4222E24E4322EAA24A394B12C80EF95E00E94652F7C01009709F45DC10091DC141091DD14C701801B910B6CE670E00E9495F48091D714681748F089E494E490930907809308070E940B30E1
S284008B8045C13CE6639F000D111D1124D80117968C91B0E1CB16B6E0DB0621F0C114E5E0DE0699F58E7F843019F5C8018C5A9F4F0E94CD394C01DC0111966C91119712968D919C911397892B51F4EAE4F4E4F0930907E09308076CAB0E9423306CA9D70112968C91811104C0F4018281938192DBA7014B5F5F4F63EAD8018D919C910E94B2
S284008C009939C7010E94DC329CCF8695482E512CB1E04B165104B1F054F4452809F0EFC0D70112966C91C8010E94A33C8ACFF2E04F16510409F4BCC023E04216510409F47CC0DDC0F80180858F70813009F079CF80809180D70119968C910E94D1359B01AC01A091BA13F801808582958F70A81BC20102C0880F991FAA95E2F7DC010E9467
S284008C801FF52B013C01D70112966C91611115C043825482658276820E94E5F59170B301A201480F591F611D711DD80113964D935D936D937C9316972EC06E3C51F0603F41F0603D31F0613D89F4F40195A597FF0DC0A7014B5F5F4FC4010E949939C7010E94DC3281E00E94C43290C0D80113964D925D926D927C9216970E94E5F5917062
S284008D00B301A201480F591F611D711DF8014383548365837683D80118968C911897807F826018968C93189713962D913D914D915C91169760E0C80104C2F80180858F70813009F0FECE20918A1530E080918D1590E001972817390709F4B5C1E091BB1370918C15272F30E080E090E0682F8E1708F0A9C10196A901062E02C055954795E7
S284008D800A94E2F740FFF2CFC501062E01C0880F0A94EAF78095872380938C1580918B15860F80938A1580E995E10E9416E2C9CEC8018C5A9F4F0E94CD398C01DC0111966C91119712968D919C911397892B51F4EDE4F4E4F0930907E09308076CAB0E9423306CA9D80112968D919C91139792DAC7010E94DC3281E00E94C432A2CE3092B6
S284008E000907209208070E9423309BCE1BAA1AAAA3E14A2EA4E35A2EBFEA2B2E13E0312EAA24A394B12C66246A94712C95E4892E94E4992E82EF95E00E94652F8C01C090C205D090C305009751F1F80182899389892B09F079C1048CF58DE02D80818370813009F071C18281853009F46DC1D80157968D919C9158970E9426C1892B09F090
S284008E8063C122E0F80126838789908D90878783538A428AC80102960E9418C1CBCFC1FE11C050E5C52E54E4D52E62E0462E72E1A72E74E4B72EE8E05E2EFEE08F2EFAE39F2E3BC00091F4051091F5050115110509F458C0B80184EF95E00E94712F40E050E063EAC8010E949939ECCF808D833081F57801FBE1EF0EF11CC7010E9423C1D5
S284008F00892B39F5D8011D96F701852D01900D928A95E1F7D80158968C9158971A968C931A9757969C928E925697C80106960E9418C184EF95E00E94652F0091F4051091F50501151105F1F0F80186899789892B69F280919D1590919E15892B09F4BEC2C8010E94AA32882309F4B8C2C8010E94AA32882309F4B2C2F80100811181011515
S284008F801105A1F78091C2059091C3058115B5E09B0721F08031F6E09F0769F5F12C0EC02CE6F29E80011124E091DC14F091DD14E00FF11F8781833031F0F3948091D714F81670F320C080858F70843011F08230A1F740E050E063EA808191810E9499398091DC149091DD14800F911F805A9F4F0E94DC32E2CF8F33944029F4F12C80914C
S284009000D714F81648F08091C2059091C3058115954009F080C351C00091DC141091DD148CE6F89E000D111D1124D80117968C91179780FF40C018969C911897292F2F702430C9F5282F2A7F2230A9F5907F79F19160905118969C938E7F823071F4C80109960E941B34F801238134814581568160E0C8010E94E0361EC08630E1F4809194
S2840090808C158E7F80938C1580918B1580938A1580918F15815080938F15E0919D15F0919E15BF01808191810E94223404C067EAC8010E94A33CF394A2CF8091D605882309F4AAC228C3F70181850E94D1359B01AC01A091BA13F801808582958F70A81BC50102C0880F991FAA95E2F7DC010E941FF52B013C0100919D1510919E150E941D
S284009100E5F59170B301A201480F591F611D711DD80113964D935D936D937C931697E0919D15F0919E158085807F8260808780919D1590919E15FC01238134814581568160E00E94E036FDCCD8015C96ED90FC905D97BFE3CB16B4E0DB0669F0D7018C918370813041F0F80185A1811104C0C8010E944333A4C1D7014C91642F607446FF41
S28400918011C05091DA142091D71430E08091DB1490E0850F911D821793074CF78091D814581728F7242F2C70243009F3662331F0842F83708230D9F243FDD9CF45FDD7CFF801D488F1E0DF1671F032E0D312CFCF4370842F90E0009721F0029709F47AC0C6CF2C3031F0C801CAD9882309F467C1BECFD80157966D917C915897F7014085D8
S28400920088EC95E00E946D30882309F4B0CFD8015B968C91893008F4AACFB1E0BF83F7018181928199878887D80157968D919C9158970E9426C1FC01009791F03B8A708161815281438134812581968187817E8B6F8B588F498F3A8F2B8F9C8F8D8F01C0DB8AF8018789908D9D8B8C8B818D928D9F8F8E8FD70117968C91179788A315967A
S2840092808D919C9116979AA389A313968D919C9114979CA38BA3838D90E009979EA38DA3848D958D099698A78FA319A62AA684A18BA7868D8CA780A191A1A2A1B3A18DA79EA7AFA7B8AB878D89ABCE0101960E9437414DCF423031F090920907809208070E942330C090DC14D090DD148091D714F6012CE6829FE00DF11D1124CF01C8168C
S284009300D90608F034CFD60117966C91179760FFD2C018962C9118972F70223009F0CBC0F601EC5AFF4F0190F081E02D2D913C91D80157964D915C915897D90159962D913C915A974217530709F0B5C0D70117963C91179727813213AEC014964D915C911597248135814217530709F0A4C012964D915C911397228133814217530709F04D
S2840093809AC011963C9111972681321394C016963C91218132138FC06E7F623031F4F6018085807F836080873FC0663009F083C0D70119969C91199780918B159813D7CE6091BB13262F30E0C501062E01C0880F0A94EAF781951A969C911A97982B1A969C931A97F6018085807F836080871A96EC91EF3F99F540918D1550E070918B1546
S284009400E70FCA01871B9109281739070CF4C9018E0F80938A1590E0415051098417950741F4C6010E94F43A60E0C6010E94A33C9ECE760F70938B158091BA1380938F1570938A15930102C0220F331F6A95E2F7B90160956E7F60938C1523C0E095E0938C1580E090E02E2F30E0782F8617C8F40196A901072E02C0559547950A94E2F7A2
S28400948040FFF3CFC501072E01C0880F0A94EAF780958E2380938C1580918B15870F80938A15E0919D15F0919E15BF01808191810E9422345CCE3CE6C30ED11C20CFD8015E968C915E978AAB5F968C918BABBE016E5C7F4F8BE30E94612EACCCC8010E94AA32882361F080919F159091A015892B09F4BDC0D8019D968C9182FFB8C0F80115
S28400950081A592A58536910518F085A583FFB1C0D80198963C90332031F0832D0E942341892B09F448C0F80185A5208D382F347082FF0AC0223031F4818D928D883F9F4FD0F502C02130B9F18EEF820F823038F4D80193968C91815F8E3068F18CC021118AC0332309F487C0F80166A077A092D67C01009719F080E090E00CC0B09209076F
S284009580A09208070E940B3076C0DC011B962C91213089F09701432DB3010E942E3B0097A1F769C0813008F475C0823009F49AC0833009F48AC026EAE12CF12C612C712CB80184EF95E02CAB0E94712F2CA921111CC0E114F10431F4D0920907C09208070E942330F30111830083C8010E94AA32882319F0C3010E94F43AB301C801F70112
S2840096001995282F882309F498CC40E050E0622FC8010E94993991CC0091C6051091C705F8018281853C41F08DE694E490930907809308070E942330D80113968D919C9114978D7F14969C938E931397892B09F062C080E00E94CD3E80E196E09093C3058093C20560E0C8010E94B73654C02AEAA3CF20EAA1CFD80158968C91813009F093
S28400968091CF80E00E945A333C013EE1E32E3AE3F32E0DC0C8010E94AA32882371F083E00E945A333C014DE6E42E4CE3F42E6114710409F467CC20E083CFF80185A582FF02C081E0EDCF80E0EBCFC8014B960E9423C10097F1F0DC018D919C91F801928F818F408EC8010E94AA32882311F083E008C0D8019D968C9182FF02C081E001C0C9
S28400970080E00E945A333C0122E2E22E24E3F22ECECF29EA51CFE496E2E10C9441F5AFE1B0E0E5E9FBE40C9432F5009749F485E495E490930907809308070E940B3082C0FC012081233009F07DC0218132813A83298328E03396DE01139601900D922A95E1F7FC0123852B87248535853D872C8728E03E96DE011E9601900D922A95E1F7D0
S284009780FC01218D2D8F238D2E8F0789108DF688F6E0FF1508F056C0F8018081982F9370933009F04FC0807E09F04CC08181811149C0BE01615E7F4F85E190E00E944932F801208126952695277030E08F8D90E028173907B9F58281982F9370933091F5982F907F79F58C708C3091F481E08B87F8E0FF1538F5F801838194819F878E879F
S2840098006FEF0E9470888823E9F0F80129E003C0F801329727E085819681998F888F878190859F8B8E8BF21AFA8E020F111D1C8F0B8FE091D205F091D305309719F0CE01019619956F96E5E00C944EF580E191E09093C3058093C2051092C7051092C6051092C5051092C4051092D5051092D4050E941D360C944DA8CF93DF93EC0160E503
S28400988072E085E20E94E02E60E572E088E30E94E02E209749F480E694E490930907809308070E940B3005C089E18A83CE010E94EB33DF91CF910895009741F481E694E490930907809308070C940B302AE8FC0122830C94EB33009741F482E694E490930907809308070C940B3025ECFC0122830C94EB33CF933091DE148091DF14909138
S284009900E01420E0231751F08396FC01B3974081442311F081E029C02F5FF4CFC0E08091D714C817E0F40E945B2E9CE6C99F900111244091DC145091DD14FA01E20FF31F882341F0878180FF08C080858F70823021F0E0CF878180FDDDCFCF5FE0CF81E09091E114911101C080E0CF9108951F93CF93DF93EB01853239F41881BBDF91E0B4
S2840099809827912398831FC08833E9F438814091D714E091DC14F091DD1480E0841771F0278120FF07C090859F70923019F42A7F223031F08F5FE459FF4FF0CF80E001C081E0832B8883DF91CF911F910895FC01808184FD0C948D360895A2E0B0E0E3EFFCE40C9435F5E091C405F091C5052F2F30E09E2F9F5F983008F090E0692F70E0A9
S284009A00A901092E02C0569547950A94E2F740FF26C09093C40581E090E0062E01C0880F0A94EAF78F278093C505660F771F6354744B42E050E0CE0101960E94F3F589819A81892B41F480E094E490930907809308070E942330E981FA81199504C0E913C9CFE093C4058091C505882361F02FB7F8948091C0059091C10580629093C10595
S284009A808093C0052FBF2296E2E00C9451F580910314853091F028F4882349F0823069F004C0843141F0863141F080E008958091FC138B3010F488E0089582E00895833014F083E01BC096E0980F923010F48BEF15C098E0980F923010F489EF0FC09AE0980F923010F487EF09C09EE0980F943010F484EF03C0823F0CF48FEE809301145E
S284009B000895C5DF282F220F220F280F30E0A90160E8869F400D511D1124CA010895809103148530E9F028F4882349F0823079F004C0843189F0863189F080E008958091FC13882349F08B3058F489E108958091FC13811105C002C082E3089588E2089580E10895CF93DF93EC01D9DFE82F9E01A0ECB3E00E9400F59B01AC01AE2FB0E053
S284009B800E9415F528EE33E040E050E00E94BCF4CA01B901DF91CF910895CF93DF93B1DFEC01BDDF282F2C9FC0012D9F900D1124BC0180E090E028EE33E040E050E00E94BCF42F5F2093FA13DF91CF910895CF93DF938BE08093FC1380E098EFAFEFB7E08093FD139093FE13A093FF13B093001461E074E183E090E00E944932809101145A
S284009C005EDF61E074E183E090E00E9481321092031477DF909305148093041438DF94E0899F800D11248093061431DF8093071486E390E0A0E0B0E08093CF139093D013A093D113B093D2131092D3131092D41381E08093D5131092D7131092D6131092D8130E94E5F58093D913EAEDF3E18FEF8083818382838383848385838683878382
S284009C80CFEFDFEFD093E313C093E2130E94E5F58093E41385E08093E51384E08093E61383E08093E7138093E813D093EA13C093E91380E28093EB131092EC131092ED13D093EF13C093EE131092F8131092F91364DFDF91CF910895A4E0B0E0E2E7FEE40C9435F5DC014C9150E0CA01805491098534910508F0DFC0865A9D4DFC010C942C
S284009D00FAF411968C918093D41308C011968D919C9112979093D7138093D61380E015C111968C91853308F00FC18093D813F6CF11968C918093D913F1CF11968C9111978093DA1312968C9112978093DB1313968C9113978093DC1314968C9114978093DD1315968C9115978093DE1316968C9116978093DF1317968C9117978093E013D3
S284009D8018968C918093E113C9CF11968D919C9112979093E3138093E213C0CF11968C918093E413BBCF11968C91863008F0CCC08093E613B3CF11968C919091E513981708F4C2C08093E813A9CF11968D919C9112979093EA138093E913A0CF11968C918093EC139BCF11968D919C9112979093EF138093EE1392CF11968D919C911297EC
S284009E00B1DE69837A838B839C83BE016F5F7F4F03C0BD016F5F7F4F82E090E079C011967C91119712966C91129713965C91139714964C91149715963C91159716962C91169717969C91179718968C917093F0136093F1135093F2134093F3133093F4132093F5139093F6138093F71357CF11968C918093D31352CF11968C91883008F008
S284009E8063C08093E7134ACF11968C918093EB1345CF11968C918093E51340CF11968C91803108F051C08093FB1338CF11968C918093F91333CF4830510508F043C041565D4DFA010C94FAF48BEF3FC011962C918091FD139091FE13A091FF13B0910014022E04C0B695A795979587950A94D2F780FF2AC02093FC1323C011968C9190E2F9
S284009F00980F903408F5DBDD61E074E183E090E00E94813203CF11968C918430A8F480930214FCCE11968C91853041F018F4833058F404C0843111F0863131F4809303142CDEECCE84EF01C088EE2496E2E00C9451F5A4E0B0E0EFEAFFE40C9427F56090E6136091E51370E0E091E813F0E0262D30E0CB018E1B9F0B281739070CF4C9016B
S284009F80AA2797FDA095BA2F0097A105B10521F481E090E0A0E0B0E0712CC12CD12C76018C019D01015011092109310942E0442E512C872C912CA12CB12C081519052A053B05B0F0AF01470D511D41505109520102C0AA0CBB1C4A95E2F74501AA2497FCA094BA2CC80CD91CEA1CFB1C7394E1CF262D30E040E050E0281B390B4A0B5B0B79
S28400A00061507109A2E0B0E002C0AA0FBB1F6A95E2F711970E941FF59B01AC012C0D3D1D4E1D5F1DA4E1B0E00E9415F59B01AC0169833A834B835C8364DD29813A814B815C81280F391F411D511D29833A834B835C8365DDA82FB0E029813A814B815C810E9415F528EE33E040E050E00E94BCF4CA01B9012496E0E10C9443F550DDE82FE6
S28400A0802091EB1330E0A0ECB3E00E9400F59B01AC01AE2FB0E00E9415F528EE33E040E050E00E94BCF4CA01B9010895A4E0B0E0ECE5F0E50C942FF58C01FC01408150E0FA01E054F109E534F10508F0B2C0E955FD4D0C94FAF48091D413F801818380E0D5C08091D6139091D713C3C08091D813F4CF8091D913F1CF7091DA136091DB132B
S28400A1005091DC134091DD133091DE132091DF139091E0138091E1135BC08091E2139091E313A7C08091E413D8CF8091E613D5CF8091E813D2CF8091E9139091EA1399C08091EC13CACF8091EE139091EF1391C0BE016F5F7F4F82E090E00E944932C980DA80EB80FC80C114D104E104F10491F0D6DC282F30E0A0ECB3E00E9400F528EEC1
S28400A18033E040E050E00E94BCF4C701B6010E94BCF402C024EF31E0F801328321839FCFBC016F5F7F4F82E090E00E94493297CF7091F0136091F1135091F2134091F3133091F4132091F5139091F6138091F713F801718362835383448335832683978380877DCF8091D31378CF8091E71375CF8091EB1372CFFC01118271CF8091CF1327
S28400A2009091D013A091D113B091D2132BC08091E51363CF8091FB13F801818336C08091F9135BCF2BDFF801618372838383948356CF4830510548F5FA01E451FD4D0C94FAF48091FC1349CF8091011446CF8091021443CF8091FD139091FE13A091FF13B0910014F80181839283A383B48337CF48DCF8019283818332CF09DCF4E08F9FC0
S28400A280800D11242ACF03DC28CF84EF2496E8E00C944BF580EF93E1089548E050E0BC0180EF93E10E94FCF521E0892B09F020E0822F0895CF92DF92EF92FF92CF936B017C01E5DBC82F2BDC2C2F30E0A82FB0E00E9400F59B01AC01C701B6010E947AF428EE33E040E050E00E94BCF4CA01B901CF91FF90EF90DF90CF9008952FB7F89423
S28400A30080913E0690913F06946090933F0680933E063FB7F8948091F90581110FC04FB7F8948091C0059091C10581609093C1058093C0054FBF81E08093F9053FBF2FBF0895BC018BEF95E00E94A12F8091FA05811101C0D3CF0895FC011282F2CF21E0FC012283EECF22E0FC012283EACF23E0FC012283E6CF25E0FC0122831186108681
S28400A38022E02783DECFA1E0B0E0E9ECF1E50C9434F51092FC051092FB055AD11FB7F894CE0101960E9448D7811104C082E08093FA0502C01092FA0510923F0610923E061FBF2196E3E00C9450F5A2E0B0E0EBEEF1E50C9433F51FB7F8941092F905CE0102960E9448D7882339F08091FA058230C9F41092FA0516C081E090E00A8002C0B0
S28400A400880F991F0A94E2F78095909520913E0630913F062823392330933F0620933E0680E001C081E01FBF8111BAC081E08093FA058A818A3029F50091FB051091FC0520915C0230915D0241E050E00115110539F4CE0101960E9448D781114BC033C0CA01F801028002C0880F991F0A94E2F782239323892B09F065C0F80100811181AA
S28400A480E5CF90E08C30910520F7FC01EC50FD4D0C94FAF4B0D214C0B7D212C02AD410C0C5D30EC05ED30CC00E94CDD409C00E9451D406C03DD104C00E949CD401C0A5D0811127C0C6CF2FB7F8948091F90581110FC03FB7F8948091C0059091C10581609093C1058093C0053FBF81E08093F9052FBF56C080910406811152C08091FB050F
S28400A5009091FC05892B11F0F9DE4AC01092FA0547C0813009F044C04FB7F89421E030E00A8002C0220F331F0A94E2F780913E0690913F06822B932B90933F0680933E064FBF2EC0B8018BEF95E00E94712FF801428150E04930510508F07BCFFA01E050FD4DC8010C94FAF497D393E002C040D394E09A83A5CF87D295E0FBCF0E94B9D4CD
S28400A58096E0F7CF0E942ED492E0F3CFB5D098E0F0CF0E947CD499E0ECCF06D09BE0E9CF2296E4E00C944FF5CF93DF93EC0118868B819C819C01215031092F333105C8F4805C9E4F9C838B838A81873031F0883081F4CE010E9409B103C0CE010E94EFB0882339F0813061F4D0933D06C0933C0607C01886EE81FF81CE010896199580E0EB
S28400A6008093FD05DF91CF910895CF93DF93C0913C06D0913D068A81873031F0883041F4CE010E9409B107C0CE010E94EFB003C081E0888702C0811106C0EE81FF81CE010896199580E08093FD05DF91CF910895AEE0B0E0EEE2F3E50C9433F50E9423B182E088871E861D861A86198681E08F83CE0101960E9459B48B859C850E94E8F50A
S28400A68073D00E94E1D489D2F0D26ED30E9477D468D00E94B6D48EE489838091E6138A83CE0101960E941EB58FE489838091E8138A83CE0101960E941EB589E589838091E7138A83CE0101960E941EB580E589830FEF1FEF1B830A83CE0101960E941EB583E589831B830A83CE0101960E941EB52E96E4E00C944FF51F93CF93DF93EC01E0
S28400A7000E9459B4182F882339F0813051F4D0933D06C0933C0605C0EC85FD85CE01089619951093FE05812FDF91CF911F9108951F93CF93DF93C0913C06D0913D06CE010E9459B4182F811105C0EC85FD85CE01089619951093FE05812FDF91CF911F9108951092FE050895A2E0B0E0EAEBF3E50C9435F56BEB78E180E092E00E942732F2
S28400A780BE016F5F7F4F80E091E00E94493229813A818091BB189091BC189093C0188093BF189093C2188093C1189093C4188093C318280F391F3093C6182093C5181092BE181092BD1867EC78E183E292E00E942732BE016F5F7F4F8EE291E00E94493229813A818091C7189091C8189093CC188093CB189093CE188093CD189093D0182D
S28400A8008093CF18280F391F3093D2182093D1181092CA181092C9182296E2E00C9451F59CE0899FF0011124E554F74E86819781019608959CE0899FF0011124E554F74E4FB7F894A681B7818C9190E001968A0F9B1F978386831C9226813781808591852817390751F484819581918780878081918195838483978386834FBF08959CE08A
S28400A880899FF0011124E554F74EA681B78182819381A817B90721F081E09C91911101C080E0089581E0EBDF8823F9F080913E0690913F06816090933F0680933E062FB7F8948091F90581110FC03FB7F8948091C0059091C10581609093C1058093C0053FBF81E08093F9052FBF80E0C8DF8823F9F080913E0690913F06826090933F06B8
S28400A90080933E062FB7F8948091F90581110FC03FB7F8948091C0059091C10581609093C1058093C0053FBF81E08093F9052FBF0895A6E3B0E0EFE9F4E50C9434F5182F6FDFFC01208130E0DC01A20FB31F12968C912F5F3F4F2E0F3F1FD9016C91813220F4811103C081E001C080E26295669566956370689FB00111248FEF869FA001A3
S28400A980879F500D1124CA0160E670E00E9495F4D9016C93BF01CE0101960E9430D5882319F18A81982F977029F4807619F48B818C70B1F020914E0230914F022E7F30934F0220934E02CE010196BED420914E0230914F02216030934F0220934E0204C08091FC13898FE6CF812F24DF80E0E696E3E00C9450F581E042DF882311F081E020
S28400AA0098DF50DF80E0089580E039DF882311F080E08FDF47DF80E00895A9E0B0E0E3E1F5E50C9432F58C018091010665E0813029F4C4D0F82E811121C01EC080E0BED0F82E81111BC0F8018381898388E03496DE01129601900D928A95E1F7CE0101960E941EB5F82E80910106823039F480910006B3D065E0A2D0109201068F2D299601
S28400AA80E5E00C944EF5A9E0B0E0E9E4F5E50C9433F58C01DC0113968C91833511F148F4853028F4823088F4811124C01AC092EB09C08438B1F028F4893579F08F36D1F410C090E1980F9330A8F4813F41F4F80194812091FF05921339C091E00CC08935E1F39091D71890930006963119F492E09093010690E020910106211111C091115A
S28400AB0013C0898388E0F8013496DE01129601900D928A95E1F7CE0101960E941EB502C0C8017BDF811108C0D8011C96ED91FC911D97199580E004C010933D0600933C06809302062996E4E00C944FF59093FF059091D71890930006963109F0BECF91E0C7CFA1E0B0E0E7EBF5E50C9433F500913C0610913D06C80150DF811108C0D8018A
S28400AB801C96ED91FC911D97898319958981809302062196E4E00C944FF510920206109201061092FF050895882331F0813011F083E0089586E1089589E108956093A115F3DF0C9423B6882331F0813011F088E0089586E1089589E108958850823130F4E82FF0E0E95CFB4F8081089588E008951F93CF93DF93EC011091D7188B81E3DF67
S28400AC00181729F064E08B81D9DF811105C0EC81FD81199580E004C0D0933D06C0933C0680930306DF91CF911F910895A1E0B0E0ECE1F6E50C9433F500913C0610913D0664E0D80113968C91B9DF811108C0D8011496ED91FC911597898319958981809303062196E4E00C944FF5109203060895CF93DF93EC0163E080E0A0DF811109C0EB
S28400AC8082E080930406CE0103960E9472D60E9481B6DF91CF910895CF93DF93EC0189AD83DF8093D518D0933D06C0933C068091E7138093A2150E94E5F59093A4158093A3158091D718893151F482E080930406CE0103960E9472D60E9481B605C081E080930406CE01C4DF80930506DF91CF910895A2E0B0E0EFE7F6E50C9433F50091A7
S28400AD003C0610913D0680910406813021F4C801AFDF811123C00E94BAB00E9491B01A8219820E944DB4D801DC968C93DC97DA96ED91FC91DB97C801CC9619958091E71390E02091A215821B91099A838983BE016F5F7F4F8DE30E94612E80E0809305062296E4E00C944FF510920506109204060895A9E0B0E0EFEBF6E50C9435F583E081
S28400AD808983CE01019692D98A81833021F40E944DB4813029F08091A21581508093A2150E9431E063E080E009DF81110DC080913C0690913D0622E02093040603960E9472D60E9481B60EC081E0809305068093040680913E0690913F06886090933F0680933E062996E2E00C9451F52FB7F8948091C0059091C10584609093C10580931D
S28400AE00C0052FBF0895BC0184E598E10E94A12F8091431881110CC02FB7F8948091C0059091C10584609093C1058093C0052FBF0895CF93DF93DC0112964C9150E0FA013197E031F10508F053C0E75FFC4D0C94FAF4DC011C96ED91FC911D970E963DC0DC011B96ED91FC911C970D9636C0DC011796ED91FC91189709962FC0DC01519681
S28400AE80ED91FC915297439628C0DC015396ED91FC9154974596199543C0DC011996ED91FC911A970B9619C0DC011E96ED91FC911F97409612C0FC01C08DC470D0E0018CF28DE02D4B961995CD2B51F511C0DC011496ED91FC9115970696199509C08091B4188E7F03C08091B4188D7F8093B418109243182091B418809154189091551864
S28400AF00892B11F4222361F02FB7F8948091C0059091C10584609093C1058093C0052FBFDF91CF910895CF93DF9380914318882319F0833009F06AC08091B418882389F080FF09C08FE0809343180E941C6661EF0E9474645BC080E1809343180E94EEDA55C080915E02882309F450C0C0915418D0915518209709F449C084E598E10E9412
S28400AF80652F8A8180934318D0934618C09345188A8190E0FC013197EE30F10518F5E75EFC4D0C94FAF40E9463621AC00E943D6217C05CD415C0C7D713C0AAD411C00E944ED90EC00E9495D90BC00E94326408C0EED006C052D304C00E94FADB01C01ED4811114C0109243188091541890915518892B61F02FB7F8948091C0059091C10588
S28400B00084609093C1058093C0052FBFDF91CF91089527E0FC012283F6CE28E0FC012283F2CE2BE0FC012283EECE22E0FC012283EACECF93DF93EC018B81882331F183E08A838093431810925518109254181092B4186FE572E085E20E94E02EBE0184E598E10E94A12F8FD987E498E10E9446E22FB7F8948091C0059091C1058460909310
S28400B080C1058093C0052FBF04C084E08A83CE01BADEDF91CF9108952AE0FC012283B3CE25E0FC012283AFCE21E0FC012283ABCE26E0FC012283A7CE2CE0FC012283A3CE2DE0FC0122839FCE20914318233011F00C94EFA3089520914318233011F00C9494AC089520914318233011F00C9411A0089520914318233011F00C94E4AF089567
S28400B10020914318233011F00C94DCA7089520914318233011F00C94BCAF08958091B41881608093B41880914318811101C05ECE08958091B41882608093B41880914318811101C053CE089520914318211104C021E1209343181DC308958091B418811105C00E94876791E0982701C091E0892F08951F93CF93DF93EB011881EEDF91E00F
S28400B180982791239883DF91CF911F910895CF93DF93C0914518D0914618FC0180810E945DDB8CA3CE0145DEDF91CF9108951F93CF93DF93C0914518D09146188091E9139091EA13998B888B13E01A8B63D8DE01539628E0FC0101900D922A95E1F71B8F8B818C8F8C818D8F8D818E8F8E818F8F8F8188A3888589A389858AA38A858BA3FE
S28400B2008D85811105C01CA2CE0113DE80E077C08BE0809363188091E41391E0980F9093E41380936618809164188078209165182C6083628F77809364182C7C209365188FEF9FEF9093681880936718EB817C816D815E814F81388599858A85E093691870936A1860936B1850936C1840936D1830936E1890936F1880937018206C20934A
S28400B28065188091E9139091EA13909372188093711800D828E0FC01A3E7B8E101900D922A95E1F78091E9139091EA1390937C1880937B188091EE139091EF1390937E1880937D188B859C8590938118809380188091FC1380937F1887EC98E590939B1880939A188091EC13882311F081E001C082E08093991880E698E12ED881E0DF91CC
S28400B300CF911F910895A8E0B0E0E9E8F9E50C9435F5FC018281807C81F08089898381898A8382898B8383898C8384898D8385898E8386898F8387898887CE010196E0DE2896E2E00C9451F5EF92FF920F931F93CF93DF93EC018A81807C8038C1F4AE014C5C5F4FBE016D5C7F4F888999890E942BDA811144C0488150E0FA013197EB307A
S28400B380F10508F03CC0E95DFC4D0C94FAF4803C91F7288939894A895B896C897D897E0184E3E80EF11C8E010D5C1F4F8E899F890E9469DADECFCE018DD621C0CE01ADD01EC0CE010E9425D91AC0CE010E94A5D916C08DA980FD05C0CE010E942A6681119DDECE0173D00BC0CE018DDF08C08091F913882321F09DDE02C0CE01A7D7CDB720
S28400B400DEB7E6E00C944DF581E08093F91308951092F913089583E0809344181092B01868E17AE580E698E10C945B64F4CF08958091451890914618FCDC109244180895A3E0B0E0E6E2FAE50C9435F581E18B83CE010196EEDC2396E2E00C9451F5CF93DF93C0914518D0914618FC018081833028F4813048F00E945DDB03C0833001F57E
S28400B4808BEE888BC8DF1CC08BEE888B81E08093511886E19AE590935318809352180E94A94F60934D1870934E1880934F189093501882E08093441887E498E10E9416E2DF91CF910895109244180895AEE0B0E0ECE6FAE50C9435F5FC01228122952695269523702983268537853B832A8328E07096DE01149601900D922A95E1F7FC0155
S28400B50023A92C8723812D8784A98E87CE010196FEDD2E96E2E00C9451F5ACE1B0E0E3E9FAE50C9429F5FC01428142954695469543704983268537853B832A8328E07096DE01149601900D922A95E1F7FC01628066946694F62DF3706F2EFC87FC01248135813E872D8728E03696DE011F9601900D922A95E1F7FC0172A87F8A20A931A942
S28400B580398F288F23A92A8F23812B8F84A98C8F80914418882309F44CC080904518909046188EEF840F823008F063C0F4018381481320C0423029F42C813D818681978127C0433009F055C02C813D814E815F8168857985F401A680B780C084D184E284F384048515858A859B850E9487F509F040C023C0823091F0833021F0811139C063
S28400B600423051F42C813D818091E2139091E3132817390771F511C0433059F548E050E06AED73E1CE0104960E94FCF5892B29F020C0CE0101964FDD1CC0F2E06F1209C02F8538898091EE139091EF132817390781F4772029F0CE0101963DDDF401108A80914418823029F487E498E10E9446E2D2DE6C96EEE00C9445F5CF93E091451808
S28400B680F09146188381882349F08250823030F088EE808BCF01CDDB80E079C087E0809363188091E41391E0980F9093E4138093661820916418207E236020622093641884819581909368188093671893819370990F990F80916518837F892B809365188381811102C02F7B01C0206420936418809164188F7780936418809165188C7CD0
