:100000000C949F260C9497F00C94C3F00C94EFF092
:100010000C941BF10C9447F10C9473F10C949FF128
:100020000C94CBF10C94F7F10C9423F20C94E6268B
:100030000C94E6260C94A8EC0C94E6260C94FEECAA
:100040000C94E6260C94E6260C94E6260C94E62600
:100050000C94E6260C94E6260C94E6260C94E626F0
:100060000C9455F30C9461EF0C9404EF0C9433EF63
:100070000C94E6260C94E6F20C94BDF20C94E62661
:100080000C94E6260C94E6260C94E6260C94E626C0
:100090000C94FBEF0C949EEF0C94CDEF0C9456F265
:1000A0000C94E6260C94E6260C9417DE0C947AE069
:1000B0000C94E6260C94E6260C94E6260C94E62690
:1000C0000C94E6260C94E6260C94E6260C94E62680
:1000D0000C94E6260C94E6260C94E6260C94E62670
:1000E0000C94E6260C94E6260C94E6260C94E62660
:1000F0000C94D6E00C94E6260C94E6260C94FEE0D4
:100100000C94E6260C94E6260C94E6260C94E6263F
:100110000C94E6260C94E6260C94E6260C9426E134
:100120000C94E6260C94E6260C94E6260C94E6261F
:100130000C94E62600000000000000000000000013
:1001400000000000000000000000000000000000AF
:10015000000000000000000000000000000000009F
:10016000000000000000000000000000000000008F
:10017000000000000000000000000000000000007F
:10440000580F160019004B0D030018008708BD0057
:104410001700FA1301001600AE14080015003B1433
:10442000010014003214020013009E140100260043
:10443000411401001E00311401000F00B8140100E6
:104440000E00A21401000D00AA1402000C00FB13C0
:1044500001000B00F51302000A00181411000900F6
:104460000E14010008000D14010007000C140100D7
:1044700006009F1401000500A81401000400F013B9
:1044800004000300291408000200EE1301000100DB
:10449000D21308000000744712002E009847150040
:1044A0002D00C24719002C00F44704002A00FC47E5
:1044B000110029005F4F7C4E9D4F9D4F9D4F814EB7
:1044C0008B4E9D4F9D4F934E984EC04EC94E9D4F63
:1044D000CE4ED64EE04E9D4FE94EEE4E9D4FF74EDE
:1044E000324F444F9D4F374F3F4F5F4F5F4F5F4FAE
:1044F000564F564F564F564F564F564F564F564F94
:10450000564F564F564F564F564F564F564F564F83
:10451000564F0A4F564F9D4F9D4F9D4F9D4F9D4F5C
:104520009D4F9D4F9D4F9D4F9D4F9D4F9D4F9D4F2B
:104530009D4F564F514F5F4F564F044F494F614F5C
:104540005F4F784F864F8D4F5F4F5F4F5F4FF950F2
:1045500066504051405140516C507150145140517F
:104560007450775088508D504051905093509650D1
:1045700040519B509E501451A350ED500251405158
:10458000F050F3506A50F650F65014511451145133
:1045900014511451145114511451145114511451F3
:1045A000145114511451145114511451D350145125
:1045B0004051405140514051405140514051405173
:1045C00040514051405140514051405114510A51C5
:1045D0000D511451CB5005511C5125511F512251E1
:1045E0004051335138513E5145524752525249522F
:1045F0004B524D524F5224525552575224525A52F6
:10460000AF52B252B652B952BD52C152C452C85240
:10461000C85224576257625762572B574857395729
:104620004057735732574F574F57565762576A572D
:104630006E57CE57D157D457D457D657E057DA577D
:10464000DD57ED57D857E357E557E757EA57D6599F
:10465000D959FA59DC59E059FA59E459FA59EF593C
:10466000F259F859615D0E5E1D5E1C5D645E645E0C
:10467000195E1D5E225E505E395E645E645E505E51
:104680004F5D525E6A9672968996FB96FB9652969D
:104690005F96FB96FB96FB96A996B896D596E19603
:1046A000FB964F967D961B96E89AE89A119A199A6E
:1046B000199A269A269A439A439A439AA19AA19ABA
:1046C000A19A3C9BE89AE7A839A90DA911A911A9BB
:1046D00011A911A911A915A915A974BC77BC18BDF8
:1046E00018BD7CBC18BD86BC6FBD6FBD6FBD6FBDF6
:1046F0006FBD6FBD6FBD6FBD6FBD18BD18BD6FBD08
:104700006FBC81BC18BDEFC73DC83DC83DC83DC8A2
:104710003DC82CC816C834C83DC826C83DC830C8D6
:1047200038C813CAEECACBCBF6CB35CC61CDAACDF7
:104730008CD38CD38CD38CD38CD38CD38CD38CD381
:104740008CD3E1CCEFCC8CD38CD316CDADCB94D520
:104750009CD5AED5B7D5B9D5BBD5BDD5C0D593D62B
:104760000BD70BD7B9D6C2D6D2D6DBD6DED6E1D69A
:10477000E4D6EAD6000001000200030004000500B0
:1047800006000700080009000A000B000C000D00DD
:104790000E000F001E0018000000010002000300C0
:1047A0000400050006000700080009000A000B00CD
:1047B0000C000D000E000F001E0013001400150069
:1047C00016000000010002000300040005000600BE
:1047D0000700080009000A000B000C000D000E0085
:1047E0000F001E001300140015001600170018001B
:1047F0001900260013001400150016000000010027
:10480000020003000400050006000700080009007C
:104810000A000B000C000D000E000F001E00F00639
:10482000000087080000E1070000440900007B0841
:104830000000000000006E090000D80E0000300FDC
:104840000000820C0000D40C00009E0C00000B0D38
:1048500000004E0D0000920E00000000000000005D
:1048600000004B0D0000580F000000000000000089
:104870000000000000000000000000000000000038
:104880000000000000000000000000000000000028
:104890000000000000000000000000000000000018
:1048A00000006E0F0000960F000075070000A64A7A
:1048B0000200AA4A0100AD4A0100AB4A0200B04A18
:1048C0000100B14A0100B24A0100B34A0100B44AF2
:1048D0000100B54A0100B64A0200AE4A0200B84AD9
:1048E0000100B94A0100D24A0200C34A0100C44A89
:1048F0000100C54A0100CE4A0400BA4A0100BB4A81
:104900000400BF4A0100C04A0100CA4A0100CB4A64
:104910000100CC4A0200000000000000000000007E
:104920000000000000000000000000000000000087
:104930000000000000000000000000000000000077
:10494000000000000000C14A0100C24A0100D44A30
:104950000100D54A0100D64A0100D74A01000000F3
:104960000000C64A0400A84A0200D2130800DC1363
:104970000100EA130400EE130100F0130400A61472
:104980000100A7140100AE140800AA14020032149A
:1049900002003B140100A2140100B8140100A81485
:1049A0000100F7130100F8130100F9130100FA13D5
:1049B0000100F5130200FB130100FC130100A41415
:1049C0000100A3140100AD130100AE13010029146E
:1049D00008000F14040004140400081404000C144C
:1049E00001000D1401000E140100181411009F1491
:1049F000010013140100141404009C130100AF13F0
:104A0000020031140100F413010000000000000056
:104A100000009D13010000000000000000000000E5
:104A20000000000000000000000000000000000086
:104A30000000000000000000000000000000000076
:104A40000000FD1305000214010003140100000022
:104A50000000000000000000000000000000000056
:104A600000000000000000000000DE130100000054
:104A70000000000000000000000000000000000036
:104A80000000000000000000000000000000000026
:104A900000000000000000000000EF130100E4131C
:104AA0000100DD13010085006C0001000007050016
:104AB00007040205040204000308FF1400000001BB
:104AC00008030303020A901A00000100000000001E
:104AD0000303141061620003001E000003F4008051
:104AE0000000013412000303000002000000000077
:104AF00003034C1D000010270000010001E8030023
:104B00000004E80300001041746D656C2020202033
:104B100020202020202020FECAAAAAAAAAAA1A0081
:104B2000020301000000000000000000000000007F
:104B3000000005FF00000000000000000000000071
:104B40000000000000000000000000000000000065
:104B50000000000000000000000000000000000055
:104B60000000000000000000000000000000000045
:104B70000000000000000000000000000000000035
:104B80000000000000000000000000000000000025
:104B90000000000000000000000000000000000015
:104BA0000000000002010002020508080000FFFFEB
:104BB000341200000000000000000202014940859C
:104BC0004500000000000000000000000002A47C7E
:104BD00082770107EC972E720101EC972E7201018A
:104BE000637C958F0101E87BF49E0101E87BC39E05
:104BF00001079D7B1E720101457B108501010000AC
:104C00000000010700000000010100000000010396
:104C10000000186A01040000186A01050000000085
:104C2000010600000000010D000000000101EC97EA
:104C30000000000100000000010E0000000001075C
:104C400000000000010A0000000001000000000058
:104C50000101000000000101000000000000000050
:104C60000B76000900000B76000C00000B760000AC
:104C700000000B7600A678787EAB956FA8AB74E148
:104C80009BBB79617A31731E81678744761D9F4291
:104C900079B0739972000000006372E68000000032
:104CA00000CD67DD6A636838685C680000D467E23D
:104CB000675168DB67D36A8B67CF69D669456AC776
:104CC000696A6800002D6B02010203030202010100
:104CD00001010101010101020201010102010202BF
:104CE00002020202010202020202020103030202A4
:104CF00003A6A6D29C8995059E000008A5888EBFB4
:104D0000A900000000F1B60CBCC1C5D4BE9CD3A65E
:104D1000C48BE28BE28BE28BE2FDE3C2E1DBF37951
:104D2000EC2BDF69DE0EEBAEEDB2EA3FE9BAE78CC1
:104D3000E2DEE30AE51DE3DCE308E51BE300112402
:104D400080911A19823159F084B780FD04C08F71A7
:104D500080931A1907C081E080931A1903C081E17A
:104D600080931A1914BE809160008861809360005E
:104D700010926000EBE1F9E18DEC01C0819390E7C6
:104D8000E030F907D9F3D0F311241FBEC0E0D0E71B
:104D9000DEBFCDBF00E00CBF14E0A0E0B2E0EAE46B
:104DA000FCEE01E00BBF02C007900D92A234B107E8
:104DB000D9F729E1A2E4B4E001C01D92AA31B207FB
:104DC000E1F70E9437310E944D31FDCF0C94000075
:104DD0007F937FB7F8949D9AA5988AEF4DD08AEF7C
:104DE0004BD09D9886E448D081E0959980E08F93E0
:104DF00080EF42D08F917FBF7F9108957F937FB7DF
:104E0000F8949D9AA59886E037D09D988AE034D092
:104E1000889495990894881F8F9384E62DD08F915C
:104E20007FBF7F9108959F937F9398E0E7DF8795F9
:104E300077959A959923D1F7872F7F919F91089520
:104E40007F937FB7F894A5989D9A8F9386E014D0AE
:104E50008F91879508F49D988F9384E60DD08F915C
:104E60009D987FBF7F9108959F9398E0E9DF9A9581
:104E70009923E1F79F9108950000000000000000D1
:104E80008A958823C9F708955F937F937FB7F89435
:104E9000CF93DF93C0E0D0E07F935091B200709148
:104EA000B2007517E1F3739521965091B200571730
:104EB000D9F77F91CE01DF91CF917FBF7F915F9135
:104EC0000895811104C06FE18AEC92E0BCC108959D
:104ED000811104C065E28AEE92E0B5C10895EF92B7
:104EE0000F932091A50630E0322F22278091A6064D
:104EF000282B3093B1062093B0068091A80690E04D
:104F0000982F88274091A906842B9093AF06809311
:104F1000AE068091AB0690E0982F88274091AC06B2
:104F2000842B9093B3068093B20640E050E065E096
:104F3000E62E01E061E180E092E0B9D10F91EF90BF
:104F4000089581E28093B50681EB8093B60682E2F4
:104F500092E00E9422E6019621F464E189E093E068
:104F600072D182E292E00E9458E6019621F465E156
:104F70008EE193E003C062E184E393E064D182E2D6
:104F800092E00E9440E687E494E00C9411E20895D8
:104F900084EE8093B50688EB8093B60682E292E0B9
:104FA0000E9422E6019621F463E187E493E04BD16D
:104FB00082E292E00E9458E6019621F464E18BE5DA
:104FC00093E041D168E180E793E03DD168E180E77B
:104FD00093E039D181E192E00E9480E6019621F4CC
:104FE00064E189E893E02FD18091A5068295880F2E
:104FF000807E90914304892B8093420480934304E4
:10500000882339F081E08093450464E18EE993E0E0
:1050100003C068E180E793E016D182E292E00C944D
:1050200040E6089560E183EB93E00DD1B1DF80911C
:105030004504882311F081E001C083E08093460499
:105040002FB7F8948091A2059091A3059061909359
:10505000A3058093A2052FBF089580914604813057
:10506000D9F018F08230E9F00895BED08CE795E1D0
:10507000A0E0B0E080934D0490934E04A0934F04C1
:10508000B09350041092510482E198E2909353043B
:105090008093520456DF0AC065E186EE93E0D3C0E8
:1050A00008951DDF61E180E092E0CDD083E0809340
:1050B000460408950895089508950895CF92DF92C3
:1050C000FF920F931F93CF93DF93E42FF0E0F090C4
:1050D00050052AEF30E02F1931092E173F0734F120
:1050E00050914F0520E030E0EC01C60FD11D0AEFD2
:1050F00010E02E173F07ACF4852F90E0BC016C5AEE
:105100007B4F6B01BE01620F731FDB015C91D60107
:105110005C932F5F3F4F0196B8010E94A4F4582F73
:10512000E8CF50934F05F40EF0925005DF91CF91E8
:105130001F910F91FF90DF90CF9008951F93CF9311
:10514000DF9310928305109284051091500511236E
:1051500009F446C080914E05E1E5F5E01333E0F433
:10516000212F30E0CAEFD0E0AF0141555540421742
:1051700053075CF490E0DC01AC5ABB4F4C91419377
:105180000196BE010E94A4F4EFCF80934E051093C8
:1051900083051092500518C02AEF30E090E0DC0142
:1051A000AC5ABB4F4C9141930196B9010E94A4F4B3
:1051B00095E0E338F90791F780934E0582E38093F9
:1051C000830512531093500581E08093840540912C
:1051D000830550E061E575E083E896E00E9473E5A1
:1051E000DF91CF911F91089588EC80938E061092E5
:1051F0008F0689E190E0909391068093900686E077
:105200008093920610929306109294061092A30631
:10521000109298061092970610929A06109299068C
:1052200010929C0610929B0610929E0610929D066C
:105230008EE998E29093A2068093A10683E896E017
:105240000C9414E50895462F20918405222319F02B
:1052500060E034CF0895FC01A1E5B5E0633370F45C
:10526000862F90E09D0121553540281739071CF401
:1052700021912D93F7CF409383050CC021912D935D
:1052800025E0A338B207D1F722E3209383054253E8
:1052900062E314DF81E0809384054091830550E050
:1052A00061E575E083E896E00C9473E50895A0E06D
:1052B000B0E0EDE5F9E20C9426F5F12CF701E00FF2
:1052C000F11DC62FD0E0CE17DF07ECF0C0E0D0E034
:1052D0008C010E0F1F1F6AE0862E912CA12CB12C81
:1052E0002197F701EC0FFD1F319669F06801CC0E94
:1052F000DD1EB901CA01A50194010E94B7F4605DE9
:10530000F6016083EDCFCDB7DEB7ECE00C9442F54B
:10531000A2E0B0E0EEE8F9E20C9428F56C0100910F
:10532000B7061091B806E12CF12C8091BB06909144
:10533000BC06E816F906A8F45801B8016C5F7F4F67
:1053400042E050E0CE0101960E94EEF50A5F1F4F49
:1053500029813A812C153D0539F08FEFE81AF80ABA
:10536000E4CF80E090E001C0C5012296EAE00C9411
:1053700044F5ADE0B0E0EFEBF9E20C942AF57C01E6
:105380006B0123E0969587952A95E1F7FC01E95496
:10539000F94F228D30E0B70167707727062E02C0E3
:1053A000369527950A94E2F78E010F5F1F4F20FF75
:1053B00042C027E0E1EDF6E0D80101900D922A9578
:1053C000E1F7A0E020E030E04A2F50E0481759070D
:1053D000D8F4F801E40FF51F4081542F5695557508
:1053E0004575540F452F4695469543735373450FA6
:1053F0004083E42FEF7042954F7050E04E0F511DE7
:10540000240F351FAF5FE0CFE0E0D801A80FB91F30
:105410004E2F50E04617570780F44C9150E00E2E67
:1054200002C0569547950A94E2F741705527240F1C
:10543000351FEF5FEDCF2FEF3FEF1B870A8746E069
:10544000429FC001439F900D11240496998788873D
:1054500086E090E09D878C876BE67BE2CE01089624
:1054600072D18D819E81E816F90639F084E090EAC8
:105470009093EB068093EA06E1D589819A81F60143
:10548000918380832D96E8E00C9446F5A6E0B0E089
:10549000ECE4FAE20C942CF57C018B0180E090E0C6
:1054A000FC0133E0F695E7953A95E1F7EE0DFF1D27
:1054B0006081AC0147705527262F30E0042E02C0D2
:1054C000369527950A94E2F720FF0DC021E030E0E1
:1054D00001C0220F4A95EAF720952623208318DF82
:1054E000009731F431C0019683339105C9F62CC081
:1054F00046E050E0BC01CE0101960E94EEF58981A4
:105500009A81F80193838283B8018D819E8131DF76
:10551000F801808191810596918380838B819C81A4
:105520009583848382819381892B39F480E090EA8A
:105530009093EB068093EA0681D58D819E81F701D9
:105540009087878381E006C08FEF9FEFF7019087F8
:10555000878380E02696E6E00C9448F5A8E0B0E06A
:10556000E4EBFAE20C9426F57C01A090B906B09029
:10557000BA06FC01868182FD09C000E010E0812CA2
:1055800076E0972ECC24C394D12C0CC047E050E099
:105590006FEF70E0C7010E941EF66DC088248394EF
:1055A0000F5F1F4F8091BD069091BE060817190727
:1055B00008F05BC0909EB001919E700D11246A0DA1
:1055C0007B1D46E050E0CE0101960E94EEF52D8154
:1055D0003E81F90163E0F695E7956A95E1F7EE0DF6
:1055E000FF1D408127703327842F90E0022E02C0D8
:1055F000969587950A94E2F780FFD2CFC60102C044
:10560000880F991F2A95E2F79C0120952423208377
:10561000812C882D90E02B813C818217930708F024
:10562000BDCF880F991F69817A81680F791F42E089
:1056300050E0CE0107960E94EEF58F819885FC011F
:1056400053E0F695E7955A95E1F7EE0DFF1D87704B
:105650009927960102C0220F331F8A95E2F7C901EC
:105660009081982B90838394D4CF882021F000E000
:1056700010E0812C97CF2896ECE00C9442F5CF9364
:10568000DF93EC018FEF9FEF98878F8387E0FB011B
:10569000DE0101900D928A95E1F7CE015FDFE1ED29
:1056A000F6E0919188818923899386E0E83DF807A7
:1056B000C1F7DF91CF9108958091E5069091E606BC
:1056C000A7C208951092E2068CE59BE29093E4064F
:1056D0008093E30608950895EAECF6E0DC013D913D
:1056E000CD012081232B2193B6E0E13DFB07B1F7EB
:1056F0008091E70684608093E70608950E9438E968
:10570000882311F0DFD5FACF0895A2E0B0E0EBE8EE
:10571000FBE20C942EF58B0189839A83EFDFB801AD
:1057200089819A810E945BE8019631F08BE20B3609
:10573000180721F4E3DF02C081E001C080E0229677
:10574000E4E00C944AF5A2E0B0E0E9EAFBE20C9454
:105750002EF58B0189839A83D1DFB80189819A81E3
:105760000E94E8E7019631F08BE20B36180721F42E
:10577000C5DF02C081E001C080E02296E4E00C9425
:105780004AF5A2E1B0E0E7ECFBE20C9423F580914E
:10579000E706982F92609093E70682FF0AC06AECB2
:1057A00076E085E895E06BDF8091E7068B7F80935C
:1057B000E706CC24C394D12C7E013DE0E30EF11C1E
:1057C00055E0A52EB12C4E0182E1880E911CBE0140
:1057D000695F7F4F85E895E059DE882309F462C050
:1057E00060908C0570908D05F30163E0F695E79568
:1057F0006A95E1F7E954F94FC3018770992796013B
:1058000002C0220F331F8A95E2F7C9018095938960
:105810008923838BFC82EB82BE82AD828F81988547
:1058200005979A8389836BE67BE2CE0101968BDF35
:105830004B855C8569857A8580E05ED0582E8D85A4
:1058400058123AC08889998968167906A9F52B8576
:105850003C858E859F852817390771F59C828B8240
:10586000DE82CD8200E010E02B853C850217130715
:1058700008F0ADCF2F813885200F311F3A8329835F
:105880006BE67BE2CE0101965EDFAB81BC81E985F0
:10589000FA85E00FF11F9C91808198130DC00F5F76
:1058A0001F4FE2CF8091E7068D7F8093E70660E08F
:1058B00070E08FE001D21CC05D86798A688A8B8592
:1058C0009C859F878E87FC82EB8285E090E09E839B
:1058D0008D838F81988505979A83898361EC7BE21C
:1058E000CE01079612DF6BE67BE2CE0101960DDF5B
:1058F0006296EFE00C943FF5FB01460F571FE4174B
:10590000F50719F09191890FFACF08954F925F92A0
:105910007F928F929F92AF92BF92CF92DF92EF923F
:10592000FF920F931F93CF93DF93CDB7DEB76297AC
:105930000FB6F894DEBF0FBECDBF80E094E4909325
:10594000B8068093B70686E994E49093BA068093EC
:10595000B90606E914E400501444C80166E070E09A
:105960000E9490F4892B39F080E290EA9093EB0644
:105970008093EA0663D326E030E0C801B9010E94B3
:1059800090F44091BB065091BC06642B752B70932C
:10599000BC066093BB0604EB14E406591444C8012A
:1059A000B9010E9490F4892B39F081E290EA90933A
:1059B000EB068093EA0642D3C80166E070E00E94DD
:1059C00090F48091BD069091BE06682B792B709360
:1059D000BE066093BD060091B7061091B8061092FE
:1059E000BF061092C0061092C1061092C20687E050
:1059F000E1EDF6E0DF011D928A95E9F7D12CEE2466
:105A0000E394F12C8091BB069091BC062D2D30E0E3
:105A100028173907C8F546E050E0B801CE010196D5
:105A20000E94EEF52B813C812B5F3F4F8091BF069A
:105A30009091C006A091C106B091C206820F931F3B
:105A4000A11DB11D8093BF069093C006A093C1060F
:105A5000B093C2068D819E81FC0133E0F695E795F7
:105A60003A95E1F7E954F94F87709927970102C0F9
:105A7000220F331F8A95E2F7C901928D982B928FDE
:105A80000A5F1F4FD394BECF26E0289F6001299F55
:105A9000D00C112434E0C30ED11CE12CF12CCE012A
:105AA0000796988B8F8786E090E09A8B898BA12C44
:105AB000B12C00E010E096E0792E22E2822E20EA5E
:105AC000922EF80183E0F695E7958A95E1F7E9547F
:105AD000F94F828D90E098012770332702C0969588
:105AE00087952A95E2F780FF41C07A9CC0017B9C94
:105AF000900D112404969E878D876BE67BE2CE0184
:105B00000D9621DE8B859C858017910749F48F8146
:105B10009885A985BA858C159D05AE05BF0559F0F8
:105B20001C870B87CF82D886E986FA866BE67BE2F4
:105B3000CE010D96EADDC801EBDB2C01009729F4BC
:105B40009092EB068092EA0679D246E050E0B201EC
:105B5000CE0101960E94EEF58B819C810596C80EC0
:105B6000D91EE11CF11C8FEFA81AB80A0F5F1F4F56
:105B70000333110509F0A5CFA5DD62960FB6F894A1
:105B8000DEBF0FBECDBFDF91CF911F910F91FF9070
:105B9000EF90DF90CF90BF90AF909F908F907F90CD
:105BA0005F904F90089520E0FC013191CF013111B9
:105BB00005C02F5F2730C1F780E0089581E0089588
:105BC00027E0FB0111922A95E9F7FC0123E0F69505
:105BD000E7952A95E1F7E60FF71F8770992721E0EF
:105BE00030E001C0220F8A95EAF78081822B808302
:105BF000CB01B4CC0895A1EDB6E0FC013D9120812C
:105C00002323219326E0A83DB207C1F7CCCF089506
:105C1000A7E0B0E0EEE0FEE20C942FF5BE016F5F6E
:105C20007F4FCEDFCE010196E6DFCE010196BBDFCE
:105C3000182F882339F0CE0101964EDD8091E706BA
:105C400081FF9FDD812F2796E3E00C944BF50895AB
:105C50000895A2E0B0E0EFE2FEE20C9430F580910E
:105C60008E058823E9F0BE016F5F7F4F81E290E0EF
:105C70000BD4BE016E5F7F4F8DE190E005D489812A
:105C8000823071F48A8181110BC088E29EE2909388
:105C90009705809396058FE895E00E9482C102C027
:105CA0000E947EDF2296E2E00C944CF580918E05F6
:105CB00008950C9437EB0895A0E0B0E0E2E6FEE230
:105CC0000C9428F5B82E7B01082F10E093E0169570
:105CD00007959A95E1F78770C1E0D0E001C0CC0F3D
:105CE0008A95EAF7AC2E8FE38B1538F484E090E8C0
:105CF0009093EB068093EA06A1D1F801E856FA4F9B
:105D000080818C2311F1C091A005D091A10585E07F
:105D1000C82E80E8D82E2097C1F0FE01E00FF11FB9
:105D200082818A2171F02A853B85232B29F4D09228
:105D3000EB06C092EA0682D1EA85FB85B7018B2D7E
:105D400019950990D881C02DE6CFCDB7DEB7EAE02E
:105D50000C9444F5E82FF0E023E0F695E7952A95BA
:105D6000E1F7E856FA4F208130E0877041E050E0DB
:105D700002C0440F551F8A95E2F72423352381E0A2
:105D8000232B09F480E00895282F30E043E0369576
:105D900027954A95E1F7620F731F877021E030E085
:105DA00001C0220F8A95EAF7FB019281922381E0DC
:105DB00009F480E008951F93CF93DF93182FEB0130
:105DC000803438F023E030E83093EB062093EA0685
:105DD00035D1BE01812FD8DF81112AC0BE0180EAF2
:105DE00095E09AD081110BC088E0FE013296DF0168
:105DF0001D928A95E9F7BE0180EA95E09DD0412F7A
:105E000050E063E0569547956A95E1F7177021E0F9
:105E100030E001C0220F1A95EAF7C40FD51F8A811E
:105E2000822B8A83FA01E856FA4F8081822B808385
:105E3000DF91CF911F9108951F93CF93DF93182F78
:105E4000EB01803438F023E030E83093EB06209308
:105E5000EA06F4D0BE01812F97DF882369F1212F54
:105E600030E073E0369527957A95E1F7177041E0B9
:105E700050E0012E01C0440F0A94EAF7942F909548
:105E8000C20FD31F8A8189238A83E091A005F091F4
:105E9000A105309759F0DF01A20FB31F12968C9124
:105EA000842351F40190F081E02DF3CFF901E856FD
:105EB000FA4F808189238083DF91CF911F910895CC
:105EC000DC01ED91FC911197309721F02081318117
:105ED0002D933C93CF01089561157105A1F0DC016C
:105EE000ED91FC911197E617F70759F42081318164
:105EF0002D933C930FC0808191818617970729F0DD
:105F0000FC013097C1F780E00895DB018D919C91F1
:105F10009183808381E00895DC01ED91FC913097BD
:105F200039F0E617F70731F00190F081E02DF7CF57
:105F300080E0089581E008950F931F93CF93DF933E
:105F40008C01EB01E9DF882349F080E090E8909331
:105F5000EB068093EA065AD080E014C019821882BA
:105F6000D801ED91FC911197309719F4CD93DC9302
:105F700008C080819181009711F0FC01FACFD18394
:105F8000C08381E0DF91CF911F910F910895CF934E
:105F9000DF93FC0182819381009781F40E9465E286
:105FA000C22FD32F0E94455144E0FC012191319131
:105FB000CF01C227D3274150C1F7CE010E94E3F59C
:105FC00081E08093390281E492E00E9411E2DF9146
:105FD000CF91089583E392E00C94B6510895809197
:105FE0003902882369F081E492E00E9441E287EC63
:105FF0009FE29093400280933F0210923902EACFD1
:10600000089581E492E00C9441E2089582E090E0EA
:106010009093ED068093EC068091EA069091EB0652
:106020009093EF068093EE06E091E806F091E90682
:10603000309719F08CEE96E01995089583E090E082
:106040009093ED068093EC068091EA069091EB0622
:106050009093EF068093EE06E091E806F091E90652
:10606000309719F08CEE96E019950895EF920F9302
:10607000FC01618372834F3740F081E090E8909398
:10608000EB068093EA06C2DF20C0403808F04FE7F5
:10609000440F808181700187842BE0FA80F980832E
:1060A00034832383CB01AC01608166950496218102
:1060B000328174E0679F200D311D11244217530770
:1060C00020F4DC0111971C92EECF0F91EF90089510
:1060D000A0E0B0E0EEE6F0E30C9429F5EC018B01D2
:1060E000B42E0E9465E269017A018D819E81AF81A3
:1060F000B885A7019601281B390B4A0B5B0BCA0117
:10610000B9012B813C8140E050E00E94B7F42F3F61
:1061100031054105510518F42223F9F001C02FEF94
:1061200089819A81BC0138813695049649815A81CA
:10613000E4E03E9F400D511D11246417750748F49B
:10614000FC013291432F231708F4422F341B308374
:10615000E9CFCD82DE82EF82F886A981BA814881BB
:10616000842F86959D0154E0859F200D311D1124BB
:10617000C901E0E0F0E0A817B907C0F413965C91FC
:106180001397552359F02D913C9111972017310702
:1061900029F412962C9112972B15C1F0309719F013
:1061A0002381521708F4FD011496E5CF40FD06C087
:1061B000309771F0838181110BC002C0309751F08C
:1061C00011830083B2828985838304C080E003C089
:1061D00082E001C081E0CDB7DEB7E9E00C9445F57F
:1061E000FECE08950895CF93DF9360914E02709193
:1061F0004F0280E090E0E1E0F0E09F01082E02C055
:10620000220F331F0A94E2F74091A2055091A30593
:106210004623572342235323452B11F16FB7F8949C
:106220004091A2055091A305209530952423352354
:106230003093A3052093A2056FBFFC01EE0FFF1F53
:10624000E450FC4FC081D181209739F486E090E87A
:106250009093EB068093EA06F1DEFE01199504C0E7
:1062600001968F30910549F6DF91CF9108950E94F4
:1062700009E00E94D2B0882371F02FB7F894809182
:10628000A2059091A30580619093A3058093A20538
:106290002FBF81E0089582E00895A5DF60E070E0FF
:1062A0008BE20ADD8091A2059091A305892B09F468
:1062B000D0DC2091A2053091A30581E0232B09F4C5
:1062C00080E0089590CF0895FC012081211105C040
:1062D00021E02193CF010C9411E20895FC0120816B
:1062E000213021F41192CF010C9441E20895A5E0F0
:1062F000B0E0EDE7F1E30C942CF57C012A833B83BD
:106300004C835D836983EADFF701108269816387CB
:106310002A813B814C815D81278330874187528769
:10632000158704872596E6E00C9448F5089589E3DF
:10633000E1EBF3E1DF011D928A95E9F7E2EDF3E18C
:1063400081E080839AE09183128213821482158205
:106350001682178295E09093DC138093E41387E014
:106360008093DD1347E850E066E37BE482E394E149
:106370000E94EEF543E150E063E27BE48EE993E1B5
:106380000E94EEF543E050E060E27BE48BE993E1AC
:106390000E94EEF548E450E068ED7AE48AEE93E17D
:1063A0000E94EEF58BEA9CE0E0EFF6E0DF019C0155
:1063B0001D9221503040E1F70895A4E0B0E0E3EEF3
:1063C000F1E30C9430F5BC011A8219821C821B8205
:1063D0008827811521E0920769F0811522E0920754
:1063E000B9F0892BE9F4660F771F660F771F66599E
:1063F000764B07C07727660F771F660F771F6255AA
:10640000774B44E050E0CE0101960E94EEF50FC0BC
:106410007727660F771F660F771F625E774BF1CF86
:106420008AE090E69093EB068093EA0607DE6981A6
:106430007A818B819C812496E2E00C944CF577DF85
:1064400065CA0895A4E0B0E0E8E2F2E30C942CF50C
:106450007C018B01B2DFEE24E11422E0F20669F048
:1064600026E030E63093EB062093EA0669837A83D0
:106470008B839C83E3DD7A816981F801718360837A
:106480002496E6E00C9448F5A4E0B0E0EAE4F2E3F8
:106490000C942CF58C017B0190DFE114F10479F46C
:1064A00020E030E63093EB062093EA0669837A8396
:1064B0008B839C83C3DD9C818B817A8169810027DA
:1064C0000115110549F0011521E0120751F4AC0145
:1064D000C7010E94EEF50CC0AC01C7010E9404F692
:1064E00007C081E090E69093EB068093EA06A6DD74
:1064F0002496E6E00C9448F5A0E0B0E0E2E8F2E390
:106500000C942AF58C01EB0158DF6B017C0120977C
:1065100039F484E090E69093EB068093EA068EDDF2
:1065200000270115110539F085E090E69093EB0600
:106530008093EA0683DDA701BE01C6010E9404F62E
:10654000CDB7DEB7E8E00C9446F5FC0195A5892FA0
:10655000887090FF09C0882379F081E021A532A5D9
:106560002236310550F408C0882331F081E021A59E
:1065700032A52436310508F480E08170089521E0C9
:1065800030E001C0220F8A95EAF78091A705822B9F
:106590008093A7052FB7F8948091A2059091A30549
:1065A00080629093A3058093A2052FBF0895CF9397
:1065B000DF93E091BE14F091BF148E179F0718F47B
:1065C00082E894E446C08E1B9F0B6CE670E00E944C
:1065D00090F48091B914681718F083E894E439C0F6
:1065E0008CE6689FE00DF11D11248781869590E06F
:1065F0008230910559F014F00397D1F58091BD14C4
:106600008823B1F181508093BD1432C08091BC14B5
:10661000882319F081508093BC14DF01AC5ABF4F1E
:10662000CD91DC912091C1143091C214CE01821B16
:10663000930B63E270E00E9490F4C217D30718F442
:1066400084E894E406C08091BA14681740F085E8A5
:1066500094E49093EB068093EA06D8DC0CC0D90151
:1066600083E2689FA00DB11D11248C9181111C92B1
:1066700087818E7F8783DF91CF910895CF93DF93BA
:10668000EC0118A68EA19FA1892B39F484E494E42F
:106690009093EB068093EA06D1DCEEA1FFA1CE0138
:1066A00088961995DF91CF910895EF92FF920F93FD
:1066B0001F93CF93DF93A091B9144091BE145091D2
:1066C000BF1420E030E090E09A1709F45AC0FA01B4
:1066D000E20FF31FB90164597F4FB781B0FD63C06A
:1066E0007F0194E5E90EF11CD7011D921C928230C6
:1066F000B1F010F08330F1F59091BD144091BB14CE
:10670000941708F03EC09F5F9093BD1413821482CB
:106710001582168290859F709087128235C01091E5
:10672000BC149091BA14191760F50091C0144091EF
:10673000C1145091C21490E09017B9F0EA014D5D78
:106740005F4FBA0163527109DB016C9161110BC09B
:106750001F5F1093BC1441E048836896D701CD9326
:10676000DC93428302C09F5FE7CF4091C01449137E
:106770000BC007C081E894E49093EB068093EA068F
:106780005DDC80E090E012C09085907F9087880F5C
:1067900081608783118210828091BE149091BF1412
:1067A000820F931F03C09F5F9B018ECFCDB7DEB7D3
:1067B000E6E00C9448F52091B80521502093B805E7
:1067C000BC0182ED95E0B8DB81E0D9CE0F931F9339
:1067D000CF93DF938C01C091A805D091A90580913A
:1067E000A4059091A50580519140813F954048F4C2
:1067F000B80188EA95E0A0DBCD2B59F480E0BFDE3C
:1068000008C083E694E49093EB068093EA0616DCD6
:10681000EFCFDF91CF911F910F910895BC0161518E
:10682000710984ED95E088DB81E0A9CE2091B8055F
:106830002F5F2093B8050C944C916F927F929F929A
:10684000AF92BF92CF92DF92EF92FF920F931F937E
:10685000CF93DF931F92CDB7DEB78C017B01FB0195
:10686000E25AFF4F8BED93E3918380833E9782E062
:106870008083D80159968D919C915A973196918336
:1068800080839E968C919E97379680833196108256
:1068900031969D968C919D978095881F8827881F9B
:1068A0008083319681E08083319680839D968C91A0
:1068B0009D9786FD0BC021E059968D919C915A972A
:1068C000883F9F4F08F020E0822F01C081E0F70150
:1068D000E35AFF4F81708083C80137DEF701ED5A1C
:1068E000FF4F6F0197012C5A3F4F3901882309F45C
:1068F00042C090906B1540916C15242F30E0809130
:106900006F1590E001972817390739F4D801999647
:106910008C91499D80191124982EA92CB12CC50168
:106920004E968236910538F081E594E49093EB061B
:106930008093EA0683DB30916B1520916C15809172
:10694000811590918215F80163A574A5329F600DA1
:10695000711D1124A5014E960E9404F68AE0890D4E
:10696000D6018C9380918115909182154496F30104
:10697000918380830EC0D80199968C919997885FF6
:1069800080839B968D919C919C970897D9018D93BC
:106990009C93F301C080D180D6012C912C7F2F7E57
:1069A0002C93F801818D928D237F883F9F4F10F0AB
:1069B0002860D6012C93F60180818F7D8083D801D9
:1069C0009D969C9192FD03C08F7B808322C0806442
:1069D000F6018083D70118962C911897207F2160AB
:1069E00018962C93C8012983B0DD29812F70882344
:1069F00041F0809171158295807F822BF70180870D
:106A000008C080919C138295807F822BD7011896B5
:106A10008C93C8019ADDF60190818823A1F09068DB
:106A2000908390916C1580858C7F911106C0816058
:106A3000808780916F15818709C0826080878091EF
:106A40006C15818703C09F77F6019083D8019396D8
:106A50008C919397F601818396968D919C9197974F
:106A60009383828394968D919C919597958384834B
:106A700098968C918683C80168DD882331F08091D7
:106A80007015D60117968C9308C08091CF0591E0C0
:106A9000980F9093CF05F6018783C7010996C6DE4C
:106AA00080E00F90DF91CF911F910F91FF90EF90B9
:106AB000DF90CF90BF90AF909F907F906F900895A0
:106AC000E0917F15F0918015BF0180819181B5CE55
:106AD000EEE5F5E1F0932F15E0932E1592E09093FB
:106AE0002A152091D1143091D21430932C15209373
:106AF0002B159BE090932D151092321510923315A3
:106B000091E09093341590933515109236152EEC34
:106B100037E33093391520933815909337159081CA
:106B200090789260906890839091D81490935F15BC
:106B30002091D4143091D5143093611520936015B1
:106B40002091D6143091D714309363152093621599
:106B50009091D314909364159091D91490936515E6
:106B600092E0909366159091CF1490936715909151
:106B7000D0149093681590916915909347151092D1
:106B8000CA141092CB141092CC141092CD1480938E
:106B9000C31483EE94E14ACEA4E0B0E0E2EDF5E365
:106BA0000C942EF5182FBE016F5F7F4F8AE190E0A5
:106BB0006BDC2091BD053091BE054091BF05509121
:106BC000C005A12FB0E00E9410F509811A812B8128
:106BD0003C81600F711F821F931F2496E4E00C9488
:106BE0004AF50F931F93CF93DF93EC018C01075568
:106BF0001109FC013C970190F081E02D6FEF81813C
:106C000092810E946B88882361F0FE0132978BEDA0
:106C100093E39183808323971882C8010E943C915B
:106C200002C0CE01C8DDDF91CF911F910F91089571
:106C300060EC74E180E191E027DC61EC74E18EE0CE
:106C400092E000DC8091C1149091C21420E0309158
:106C5000C014231748F4FC0133E2239FE00DF11D1B
:106C6000112410822F5FF3CF69EB74E18FE091E084
:106C70000BDC6EEB74E18DE092E0E4DB2091B91463
:106C8000E091BE14F091BF1480E0821739F0978133
:106C90009E7F97838F5FE459FF4FF7CF9091C01489
:106CA0009093BA148093BB141092BC141092BD142C
:106CB0006BE675E188E291E0E7DB69EC74E189E27B
:106CC00091E0E2DB68EC74E188E191E0DDDB80914A
:106CD000C814882351F064EC74E18FE092E0B2DBD9
:106CE00061E875E180E192E0ADDB3091C81420915C
:106CF000C9148091C4149091C514329F800D911DC8
:106D000011249093C7148093C6141092C31408954D
:106D100069ED75E082E192E095DB68ED75E087E171
:106D200091E0B2DB8091D805E091D905F091DA05C8
:106D3000882349F0309739F489E294E49093EB0684
:106D40008093EA0663C99F0146E1849F200D311DAF
:106D50001124C90128EAE817F90718F4258B76965B
:106D6000FACF08951F93CF93DF93EC01162F00976E
:106D7000B1F08D819E81892B91F088EA95E0A0D8B1
:106D80001F83ED81FE81CE01079619958091A8059C
:106D90009091A905892B59F080E0F1DB08C08BE6C2
:106DA00094E49093EB068093EA0648D9E6CFDF910E
:106DB000CF911F910895A1E1B0E0E1EEF6E30C94CC
:106DC00020F58C01262E29873A874B875C870E9405
:106DD0000DDEE091C10529853A854B855C85EE2362
:106DE00061F13090B914C090C405D090C505E09011
:106DF000C605F090C7052B013C014C185D086E08D4
:106E00007F084D825E826F827886E091BE14F09199
:106E1000BF14198A66246A94762C430169827A82A7
:106E20008B829C8246015701861A970AA80AB90AE2
:106E30008D869E86AF86B88A0BC00FE118E3A3C08B
:106E4000A781A0FD09C0A989AF5FA98BE459FF4FB5
:106E5000B989B311F5CF40C0B085BF70B23099F792
:106E6000AA7FA23081F783809480A580B6808114A8
:106E70009104A104B10439F3E017F10721F34D8027
:106E80005E806F807884481459046A047B0468F437
:106E90004D845E846F847888840C951CA61CB71C76
:106EA00083829482A582B68204C0138214821582E2
:106EB000168283809480A580B68049805A806B803A
:106EC0007C8084149504A604B70408F0BCCF8982A2
:106ED0009A82AB82BC82B7CF211046C08090CA1480
:106EE0009090CB14A090CC14B090CD148114910448
:106EF000A104B104C9F12B013C014C185D086E08D6
:106F00007F08481459046A047B0488F4C80CD91C0F
:106F1000EA1CFB1CC61AD70AE80AF90AC092CA146E
:106F2000D092CB14E092CC14F092CD1408C0109201
:106F3000CA141092CB141092CC141092CD148091DC
:106F4000CA149091CB14A091CC14B091CD14498067
:106F50005A806B807C8084159505A605B70520F4C2
:106F600089839A83AB83BC8389819A81AB81BC81FD
:106F7000281739074A075B0710F4DA01C9010FE146
:106F800018E39C01AD0161E081EC95E0B0D981ECA2
:106F900095E09AD96196E2E10C943CF58091B805B0
:106FA00081508093B8058091C314833009F43CC0AC
:106FB000823039F082E594E49093EB068093EA0600
:106FC0003DD8E0916A15EE2379F181E08093C314F6
:106FD000A0919D13B0E011972AE030E00E940AF5DD
:106FE0009B01AC018091B9059091BA05A091BB05B8
:106FF000B091BC05280F391F4A1F5B1FA0919C133D
:10700000B0E00E9410F59B01AC016093CA1470932C
:10701000CB148093CC149093CD14E150E0936A1577
:1070200061E080E090E0C7CE1092C3141092CA14C1
:107030001092CB141092CC141092CD140895A4E0A9
:10704000B0E0E5E2F8E30C9428F52FEF3FEFA9015B
:1070500010E0AA24AA94B12C8091B914181708F052
:1070600054C0E091BE14F091BF148CE6189FE00D5F
:10707000F11D1124678160FF46C07085872F8F70D6
:10708000823009F040C0862F8A7F8230E1F583810B
:107090009481A581B681C090C805D090C905E090C3
:1070A000CA05F090CB058C199D09AE09BF098383F1
:1070B0009483A583B6830097A105B105E9F4872FD2
:1070C000807F846080876E7F663059F4C5010090B0
:1070D0009D1302C0880F991F0A94E2F78095809350
:1070E0006E1581E029833A834B835C8348DA2981DA
:1070F0003A814B815C8107C082179307A407B507CB
:1071000010F49C01AD011F5FA7CF8091CA1490912C
:10711000CB14A091CC14B091CD140097A105B1056A
:1071200051F1C090C805D090C905E090CA05F09013
:10713000CB058C199D09AE09BF098093CA149093A1
:10714000CB14A093CC14B093CD140097A105B10536
:1071500059F482E029833A834B835C83B9DC29812B
:107160003A814B815C8107C082179307A407B5075A
:1071700010F49C01AD012F3FEFEF3E074E075E0775
:1071800051F00FE118E361E081EC95E0B0D881ECBB
:1071900095E09AD803C081EC95E0A0D82496EAE067
:1071A0000C9444F5A0E0B0E0E8EDF8E30C9427F58A
:1071B0008C01962EC091D905D091DA058091D80521
:1071C0006E0196E1899FC00CD11C1124F8018589BC
:1071D000811109C07E01F6E1EF0EF11C58018CE02F
:1071E000A80EB11C09C085E294E432C08A3A89F045
:1071F0006696F6E1EF0EF11CF801CC15DD0508F0FE
:107200004AC0908521853285F70131978081843A83
:1072100069F7F7013E9780819813EACF89859A85AF
:107220002817390729F748E050E0B801CE010E943D
:10723000F7F5892BE9F6F8018385F7013B979081F3
:107240008913D6CF813059F0833091F086E294E4EF
:107250009093EB068093EA060E9406301DC0F80169
:10726000248535858C859D852817390709F617C033
:10727000F8019489F701329780819813B9CF48E0DB
:1072800050E0BE01645F7F4FC5010E94F7F5892B76
:1072900009F0AECF04C0958A80E090E001C0CE0135
:1072A000CDB7DEB7EBE00C9443F5CF93DF93EC0161
:1072B0000097B1F18AEA8D8B0E94455148E050E079
:1072C000BC01CE010E94F7F5892B51F582E88D8B28
:1072D000888581508E3F20F58B858330C9F48C8959
:1072E00081508E3FE8F42C853D854E855F85688909
:1072F00079898A899B89A0E00E948BF571F480E1ED
:1073000094E49093EB068093EA060E94063008C04E
:10731000813019F086EA8D8B03C01D8A81E001C09F
:1073200080E0DF91CF910895CF93DF93EC01009738
:1073300061F169AB4115510551F0FA01408151816C
:10734000628173814AAB5BAB6CAB7DAB04C01AAAA4
:107350001BAA1CAA1DAAEFA5F8A9309749F484E539
:1073600094E49093EB068093EA060E9406300DC0E9
:10737000CE01C1961995CE01E8D8882331F010923C
:10738000801510927F1581E0FAD8DF91CF91089592
:10739000A1E0B0E0EEECF9E30C942EF58C01FC01D9
:1073A000208131818091C1149091C214281739072E
:1073B00040F487E494E49093EB068093EA060E94FD
:1073C0001E30F801808191812091C1143091C21446
:1073D000821B930B63E270E00E9490F48091BA14D8
:1073E000681750F088E494E49093EB068093EA06E3
:1073F00069830E941E3069818091C1149091C214EA
:10740000F3E26F9F800D911D11242196E4E00C940E
:107410004AF5FC0120814597211107C0BC0186ED8A
:1074200095E00E949C2F81E0AAC840E050E069EA04
:107430007BCFA3E0B0E0EFE1FAE30C942EF58C01F2
:10744000675F7F4F7A836983BE016D5F7F4F8EE0F8
:1074500090E01AD88B81D80199965C9199974091C8
:10746000CF05882309F442C089819A81FC01E95B38
:10747000FF4F21E0208359962D913C915A973196E8
:10748000318320833296585F50839B96ED91FC9117
:107490009C979C01255B3F4F3897D901ED93FC9356
:1074A0008FEF8183D80196968D919C9197979383C6
:1074B000828394968D919C919597958384839896D9
:1074C0008C91868381E0840F8093CF054783D90117
:1074D000ED91FC918081807888608F778083E9814D
:1074E000FA81EB5AFF4F8BED93E344C089819A8177
:1074F000FC01E95BFF4F22E0208331962DEF3FEF47
:10750000318320833296575F5083D8019B96ED914B
:10751000FC919C979C01255B3F4F3997D901ED93D6
:10752000FC93D80159968D919C915A9792838183AF
:1075300096968D919C9197979483838394968D9141
:107540009C9195979683858398968C91878381E00B
:10755000840F8093CF054087D901ED91FC91808104
:1075600080788C608F778083E981FA81EB5AFF4FB6
:1075700081EF95E391838083E981FA81D8019E961A
:107580008C919E97E15BFF4F8083E981FA81E05BFC
:10759000FF4F80919B138083E981FA81EF5AFF4F5F
:1075A0009D968C918095881F8827881F8083E9810C
:1075B000FA81EE5AFF4F81E08083E981FA81ED5A2A
:1075C000FF4F8083E981FA81EC5AFF4F80838981E4
:1075D0009A812CD980E02396E4E00C944AF5DC01F2
:1075E000ED91FC919093801580937F1510926C150E
:1075F00010926D1580919C138093711520916B15DD
:1076000030E081A592A5B9010E9490F4462F6093C5
:107610006F1581A592A5B9010E9490F4892B19F0EC
:107620004F5F40936F158FEF90E000909D1302C065
:10763000880F991F0A94E2F780958E7F80936E15CC
:107640008091CF0591E0980F9093CF0580937015AE
:107650000895A0E0B0E0EFE2FBE30C9427F5EC0125
:107660006B01942E59010091D9051091DA05809192
:10767000D805780196E1899FE00CF11C1124209730
:1076800061F0C017D107F0F583E294E49093EB0624
:107690008093EA060E941E3035C0E801CE01801BAF
:1076A000910B66E170E00E9490F4892B79F084E2FE
:1076B00094E49093EB068093EA060E941E3006C085
:1076C0001D89143A39F01A3A29F06696CE15DF056D
:1076D000B8F313C088859812F8CF89859A85C816A3
:1076E000D90699F748E050E0B501CE010E94F7F5C0
:1076F000892B59F7143A49F703C080E090E004C0A1
:10770000CE0102C06696CACFCDB7DEB7EBE00C94CF
:1077100043F54F925F927F928F929F92AF92BF926A
:10772000CF92DF92EF92FF920F931F93CF93DF934D
:107730001F92CDB7DEB72C017B010E9445516C0131
:1077400057018AE6A80EB11CF50100811181411490
:10775000510431F0E114F10419F0C114D10451F4D1
:1077600084E194E49093EB068093EA060E9406304D
:1077700088EA5EC058EAF20166A177A1960140A5A9
:10778000C801598366DF8C015981009709F44FC005
:10779000F20186899789892B19F5F8017384F3E042
:1077A0007F121EC048018CE0880E911CC4010E940B
:1077B0001EC1892BA9F4F2017286D2011D9688E0C0
:1077C000F40101900D928A95E1F789E29CE3F201C0
:1077D000978B868BC20106960E9413C180E028C059
:1077E000F50111830083F80183858330B1F4C8016A
:1077F0000C960E941EC1009711F459EABCCFF80103
:107800002489F20123A3FC0180819181F201928FEE
:10781000818FB701C20111D80BC0F801848595850D
:10782000F201928F818FB701C20103DE01C0852F63
:107830000F90DF91CF911F910F91FF90EF90DF900C
:10784000CF90BF90AF909F908F907F905F904F9020
:107850000895FF920F931F93CF93DF938C010551EF
:1078600011092091B914C091BE14D091BF14F12C0C
:10787000F216E9F08F8180FF16C088819981801708
:10788000910789F4BE01C80144DF882381F040E0FC
:1078900050E0682FC80148DDCE010E94D73281E058
:1078A0000E94BF3204C0F394C459DF4FE1CF8091EE
:1078B000B914F81640F085E194E49093EB068093B8
:1078C000EA060E941E30CDB7DEB7E5E00C9449F51C
:1078D000EF92FF921F93CF93DF931F921F92CDB72A
:1078E000DEB77B010097A1F06115710589F0FC01FD
:1078F000178A168AF701E659FF4F11821082B701E5
:1079000008DF182F882389F0C7010E94D7320DC0E5
:1079100023E134E43093EB062093EA0689839A83CB
:107920000E941E3089819A81E2CF812F0F900F90A3
:10793000DF91CF911F91FF90EF900895A1E0B0E00B
:10794000E4EAFCE30C942CF58C01262FDC01ED908D
:10795000FC90009709F444C0E114F10409F440C01C
:107960002E3C61F0822F8F7D803D41F0213D11F052
:1079700082E005C0F70185A587FFFACF83E0F80113
:10798000EB59FF4F4081518162817381D701D296BB
:107990004D935D936D937C93D597D1962C938330C3
:1079A00071F0D801ED91FC91808D811108C0F70133
:1079B000178A168AB801C701ACDE883AE1F4A7013C
:1079C0004E5C5F4FD701D1966C91F8018081918117
:1079D000ABDCC8010E94D73281E00E94BF320BC0ED
:1079E0008FE494E49093EB068093EA0629830E9447
:1079F0001E302981B5CF2196E6E00C9448F5CF934F
:107A0000DF93EC0152DC882309F454C060E0CE011E
:107A1000C9DB892BC1F5209709F43EC08D898111FE
:107A20003BC05091D8052091D9053091DA0540E04E
:107A3000451781F0C9012A5E3F4FF90131976081F6
:107A4000683A31F424EAFC01258B009731F432C006
:107A50004F5FEECF8EEA8D8B2DC0209719F03D89B8
:107A6000332349F087E294E49093EB068093EA068F
:107A70000E9406301AC036E1FE01DC0101900D9231
:107A80003A95E1F706C066EACE018CDB009791F0EB
:107A900024EAFC01258B09C080E294E49093EB0674
:107AA0008093EA060E941E30BCCF60E070E080E167
:107AB0000E945C2EDF91CF910895CF93DF93EC016C
:107AC0000097D9F08091D9059091DA05C817D907A8
:107AD000A0F02091D80536E1239F800D911D11243F
:107AE000C817D90750F48D89843A11F08A3A71F495
:107AF00088EA8D8BDF91CF91089581E294E4909391
:107B0000EB068093EA060E941E30EDCF82E294E4F9
:107B10009093EB068093EA060E941E30E9CFCF9344
:107B2000DF93EC01C2DB882359F064EACE013ADB33
:107B3000009731F0C2DF60E070E080E10E945C2ECF
:107B4000DF91CF9108952091D9053091DA05009702
:107B500051F0FC0176968091D80596E1899F200D21
:107B6000311D112408C0F901F6CF8589843A49F006
:107B70008A3A39F07696E217F307B8F380E090E09E
:107B80000895CF010895CF93DF93EC01BC0186EDFA
:107B900095E00E949C2F1F8A1E8A81E00E94BF32BE
:107BA000DF91CF910895CF93DF93EC01BC0184ED79
:107BB00095E00E949C2F1B8A1A8A81E00E94BF32A6
:107BC000DF91CF910895AAE0B0E0E9EEFDE30C94D7
:107BD00026F51091DC13BE01665F7F4F87E091E0D0
:107BE0000E944432BE016F5F7F4F8AE190E00E94A5
:107BF0004432C980DA80EB80FC80812F90E0A0E0E5
:107C0000B0E08C159D05AE05BF0578F0CC0CDD1CF1
:107C1000EE1CFF1CC982DA82EB82FC82BE016F5F20
:107C20007F4F8AE190E00E947C32C12ED12C87E008
:107C3000C80ED11CEE24D7FCE094FE2CC092BD05EA
:107C4000D092BE05E092BF05F092C0052A8530E0D3
:107C5000A3E0B0E00E94FBF49B01AC01C701B601B8
:107C60000E9475F409811A812B813C81600F711F7C
:107C7000821F931F6093B9057093BA058093BB056B
:107C80009093BC0581E08887BE01675F7F4F87E0E6
:107C900091E00E944432BE01685F7F4F84E290E031
:107CA0000E944432898590E0A0E0B0E0880F991FDF
:107CB000AA1FBB1F8F3F9105A105B10529F020F038
:107CC0008FEF90E0A0E0B0E00E94CC35E885EE2395
:107CD00009F45AC0812C912C54018B019C01015054
:107CE0001E4F2F4F3F4F800E911EA21EB31E660FD8
:107CF000771F881F991FE15081F71886750164016D
:107D000029E0F694E794D794C7942A95D1F7D50142
:107D1000C4019170AA27BB2741E050E060E070E009
:107D2000892B8A2B8B2B19F440E050E0BA01C40E4A
:107D3000D51EE61EF71E1E821D821F82BE01695FD0
:107D40007F4F81E191E00E944432BE016B5F7F4F23
:107D500088E092E00E942232970186010F3F1105D0
:107D60002105310529F020F00FEF10E020E030E090
:107D70006D817E81C12CEE24E39420E032E04F81BE
:107D80008AEA95E00E9436302A96ECE00C9442F59F
:107D9000882331F00E94E0F58093CF051092B8055A
:107DA0001092D7051092D6051092D5051092D405E1
:107DB0001092D3051092D2051092D1051092D005E1
:107DC0008AE090E0A0E0B0E0809378159093791578
:107DD000A0937A15B0937B1580E695E390937E157A
:107DE00080937D1581E080937C151092D0141092C1
:107DF000D9141092CE141092D5141092D41410925B
:107E0000CF141092D3141092D7141092D61410924B
:107E1000D2141092D1141092D8141092C31410924C
:107E2000CA141092CB141092CC141092CD148CE67C
:107E3000EAEDF4E1DF011D928A95E9F783E2E6E4D9
:107E4000F5E1DF011D928A95E9F78091C91490E070
:107E500001962091C814289FA001299F500D11243C
:107E600060E070E08091C4149091C5140E941EF6E9
:107E70008EE595E190932F1580932E15A4CE4F9209
:107E80005F927F928F929F92AF92BF92CF92DF923A
:107E9000EF92FF920F931F93CF93DF931F92CDB773
:107EA000DEB77C01009781F02C0127E0421A5108CF
:107EB0008091A8059091A9058415950529F4D20112
:107EC00012968C91893149F086E694E49093EB0602
:107ED0008093EA060E940630CBC08091A405909161
:107EE000A5058115B7E09B0709F07FC00091D60575
:107EF0001091D7050115110551F086ED95E00E940E
:107F0000602F40E050E063EAC8010EDAEFCF6CE684
:107F1000C62ED12C7CE6772EE2E4AE2EE4E4BE2E13
:107F2000F3E48F2EF4E49F2E0091D2051091D30537
:107F30000115110509F444C0B80182ED95E00E94D5
:107F40006C2F8091BE149091BF14F801E81BF90BBF
:107F5000CF01B6010E9490F48091B914681740F0E7
:107F6000B092EB06A092EA0669830E941E306981F6
:107F7000E091BE14F091BF14679DE00DF11D112436
:107F8000808191812781269530E02130310561F093
:107F90002230310549F2232B61F4A8014B5F5F4F7A
:107FA000D80112966C9103C040E050E067EABCD95A
:107FB000BBCF9092EB068092EA060E941E30B4CFAF
:107FC00010E08091B9141817D8F48091BE149091E4
:107FD000BF14BCE61B9F800D911D1124FC0127815D
:107FE00020FD0E94D7321F5FECCF8115924041F0F7
:107FF00087E694E49093EB068093EA060E941E3095
:108000001092A7051092A60581E0C2DE0E941836E4
:108010000E94883682E393E09093A5058093A4059F
:10802000D7018C91F201828788EA95E00E94602F47
:10803000D20118968D919C911997892B41F489E66C
:1080400094E49093EB068093EA060E941E30D201DE
:108050001896ED91FC911997C70103961995809197
:10806000A8059091A905892B19F080E00E94BF32E4
:108070000F90DF91CF911F910F91FF90EF90DF90C4
:10808000CF90BF90AF909F908F907F905F904F90D8
:108090000895CF93DF93C091A805D091A9052097AB
:1080A00041F484E694E49093EB068093EA060E9400
:1080B0001E308A818A38F9F0853C09F44FC0893135
:1080C00009F06CC08091A4059091A5058031914084
:1080D00019F480E092E002C080E097E09093A5055B
:1080E0008093A4058FE39FE39E838D83CE01039647
:1080F0000E9429A85BC08091A4059091A5058233B8
:1081000023E0920719F08031964049F48FE394E020
:108110009093A5058093A40556DD1D8202C083EAD5
:108120008D8388EA95E00E94602F8B819C81892B4A
:1081300041F48AE694E49093EB068093EA060E9469
:108140001E30EB81FC81CE01059619958091A80522
:108150009091A905892B51F180E018C08091A40568
:108160009091A5058F339440A1F480E095E0909321
:10817000A5058093A40582E090E09C838B8381EC2D
:1081800095E00E946E311092B80581E00E94BF32E6
:108190000DC063EACE010E94B23608C085E694E4C1
:1081A0009093EB068093EA060E941E30DF91CF91F8
:1081B0000895AAE0B0E0EFEDF0E40C9430F5DC01B6
:1081C0001396ED91FC9114972181328140E450E0A7
:1081D0005A834983AE01495F5F4F5C834B8341E023
:1081E00050E05E834D836F3FBFEF7B0719F437FF8D
:1081F00015C003C02617370789F098878F837A87C1
:108200006987BE016F5F7F4F8EE10E945C2E81E027
:108210002D813E81232B19F080E001C081E02A9658
:10822000E2E00C944CF5009729F48091B60590910A
:10823000B7050895FC01808191810895CF93C82FDF
:10824000E0E0F0E0CF01EFDFFC01009739F0A3811F
:10825000B4818C91C813F6CFCF0102C080E090E0CA
:10826000CF910895DF92EF92FF920F931F93CF93D8
:10827000DF938C01009741F480E394E49093EB0644
:108280008093EA060E941E30C0E0D0E0A1E3EA2E0F
:10829000A4E4FA2ECE01C7DFEC01009789F18A81B0
:1082A0008111F8CF8B819C81892B31F4F092EB0600
:1082B000E092EA060E941E30F80160A171A1CE0191
:1082C00078DF882339F3EB81FC81D0806D2DF801B4
:1082D000878190850E946B888823E1F2F801D18A1A
:1082E000ED81FE81309749F482E394E49093EB06AC
:1082F0008093EA060E94063003C0C8011995CACFD0
:10830000CDB7DEB7E7E00C9447F5A1E3B0E0EBE8CA
:10831000F1E40C9426F58C01B62EDC015C96ED9010
:10832000FC905D9757966D917C915897F701478126
:108330008AEA95E00E946830882309F414C1D701C5
:1083400011968C919FEF980F9E3F28F477DF6C0178
:10835000009719F408C1C12CD12CF8012489858912
:108360009689213009F022E02F8399878887D701E9
:1083700011968C918A8BF8018789908D0E9421C17A
:10838000FC01009799F083E08B8B708161815281B1
:10839000438134812581968187817E8B6F8B588FB5
:1083A000498F3A8F2B8F9C8F8D8F02C082E08B8BF1
:1083B000D80157968D919C9158979D8B8C8B59968F
:1083C0008D919C915A979F8F8E8FF701868188A3FC
:1083D000848195819AA389A3828193819CA38BA395
:1083E0005B968C9190E09C012A5031093EA32DA30D
:1083F00019A6208127FD04C09C012850310906C020
:108400002085237029F49C01295031093EA32DA316
:108410002DA13EA1821B930BF801248D358D280FD1
:10842000391F38A72FA3BAA684A18BA7868D8CA746
:1084300040A151A162A173A14DA75EA76FA778AB20
:10844000878D89ABD7018C9187FF48C018968C9196
:108450008370823009F042C0E091C614F091C714D5
:10846000808190E09EA38DA38080912CAA24A39468
:10847000B12C2091CE1430E08091C4149091C51499
:10848000A216B3064CF5E091C614F091C714EA0D9C
:10849000FB1D408150E02091C9142A9DB0012B9D05
:1084A000700D1124680F791F880D991D0E9404F624
:1084B000E091C614F091C714EA0DFB1D20818DA137
:1084C0009EA1820F911D9EA38DA3BFEFAB1ABB0A85
:1084D0008081880E911CCDCF98A78FA3C114D104A1
:1084E00049F0D6011596ED91FC911697CE010196B3
:1084F000199539C0F8018489813021F4CE010196A3
:10850000B1DE31C0D70111968C918F3F41F5E12C3E
:10851000F12CC70188DE7C01009729F1D701139661
:10852000ED91FC9114978081882399F312968C9198
:108530008111EFCF69A17AA1C7013BDE882349F3FE
:10854000D7011396ED91FC91149780818A8B159633
:10855000ED91FC911697CE0101961995DACFCE01D7
:1085600001960E948FC8C8010E943E33E196ECE05C
:108570000C9442F5A1E0B0E0E0ECF2E40C9428F5B4
:108580005C01DC015C960D911C915D97F801818185
:108590002FEF280F2E3F80F4298350DE7C012981A4
:1085A000009751F0D80114966D917C91159701DEDA
:1085B000882309F405C105C02E3F08F401C1E12C50
:1085C000F12CF801808187FF04C09085937009F039
:1085D000F7C086FFF7C08C70883009F4F1C0D50170
:1085E00057968D919C915897883FBFEF9B0708F055
:1085F000E7C0E114F10421F0F70122812111E0C06C
:10860000D5015C960D911C915D97F801208126FDA6
:1086100002C090E0D2C02370213009F027E0F09032
:10862000B914E091BE14F091BF1430E0422F50E035
:10863000B801640F751F3F15E9F0A781A530B1F4AB
:10864000DF01AF5ABF4F0D90BC91A02D8A179B0739
:1086500069F4DF01AC5ABF4FCD90DC90C40ED51E3B
:10866000DB01EC90D601DC90ED1499F23F5FE45908
:10867000FF4FE1CF82E029830E9455332981009783
:1086800041F2FC01EC5AFF4F0190F081E02DDF0137
:1086900058973FEA11963C9311971396BC92AE926D
:1086A000129762E0DC01A05BBF4F6C93D501579637
:1086B0004D915C915897DC01AF5ABF4F11965C9376
:1086C0004E9317961C9211961C9231E011963C9392
:1086D00011963C9311961C924BED53E31296119612
:1086E0005C934E9311973C9330813C7F3260308392
:1086F000D8014C914C70337F342B30834C91429590
:10870000417040FB34F93E7D3F7B30834C9147FB09
:10871000442740F940FB37F930834C9130E0DC01CD
:10872000AD5ABF4F7D0144FF0DC0D5015C964D9100
:108730005C915D97420F531FDA012C912183F70161
:10874000608337C048E04C93D80116964C91169739
:10875000418312964D915C911397538342831496F3
:108760004D915C9115975583448311964C914683A6
:10877000D5015C964D915C915D97420F531FDA01D4
:108780002C912783D8012C9127FF13C018962C9188
:10879000237031F41086F70120812F5F208309C0F8
:1087A000D7012C912D5F2C93D80118962C91237012
:1087B000208709960E94163491E081E08927A1C1A3
:1087C00090E001C091E0F801808187FF92C180852F
:1087D000837009F48EC1D5015C960D911C915D9753
:1087E0005B968C91F801F1842091C814222309F43E
:1087F00087C196EFE92EE80E8091C314813009F409
:1088000056C030F0843008F06BC180E494E46AC153
:10881000D084B1E0DB1274C12F1508F471C18091CE
:10882000C9148E1508F46CC190E00196289FA00130
:10883000299F500D112460E070E08091C414909144
:10884000C5140E941EF68FEA80936915D092C31456
:10885000F092CE14F5018789908D9093D214809375
:10886000D114D80111968C9111978093D31412963C
:108870008D919C9113979093D5148093D414149652
:108880008D919C9115979093D7148093D61416963A
:108890008C9116978093D81417968C918093D91445
:1088A00080919C1380936A151092CF14F12CF801DB
:1088B0008085982F9370923011F0F11021C18C7F38
:1088C00009F01EC18091CE148F1508F419C12091B2
:1088D000D1143091D214D50157968D919C9158970F
:1088E0002817390709F00CC19091D314F801818140
:1088F000981306C12091D4143091D51482819381AC
:108900002817390709F0FCC02091D6143091D714EC
:10891000848195812817390709F0F2C09091D81405
:1089200086819813EDC09091D91487819813E8C07F
:108930002091CF1440919D130F2D10E0822F90E0D5
:10894000840F911D081719070CF0DAC08F2D642FC2
:108950000E9484F4D92EF21668F48F2D891B80931F
:10896000CF1421E030E001C0220F4A95EAF72195AB
:108970002093D0142091C9148091C4149091C514EF
:108980004E2D50E0D5015C966D917C915D97665FB0
:108990007F4FF29E800D911D11240E9404F6E091FC
:1089A000C614F091C714E00FF11FE0827091CF144C
:1089B0002091CE147F1111C090919D13822F8F1999
:1089C000981708F4892F41E050E0082E01C0440FA9
:1089D0000A94EAF741954093D01441E050E00D2C01
:1089E00001C0440F0A94EAF76091D014642B60939D
:1089F000D0146F3F79F4FF24FA94F70E822F90E0A1
:108A000040919D1350E0871B9109481759070CF4BA
:108A1000CA01F80E8F2D90E030E021503109821705
:108A2000930751F46F3F21F483E00E94683563C0DF
:108A300082E00E94683564C0A0919D13B0E0119758
:108A40009D01270F311D8217930711F06F3F09F524
:108A500082E00E9468358091D0148F3F09F050C0A9
:108A600080919D139091CF14980F9093CF142091E3
:108A7000CE1421502F19821708F4282F81E090E09E
:108A8000022E01C0880F0A94EAF781958093D014D2
:108A900037C02AE030E00E940AF59B01AC018091CA
:108AA000B9059091BA05A091BB05B091BC05280FFE
:108AB000391F4A1F5B1FA0919C13B0E00E9410F564
:108AC0009B01AC016093CA147093CB148093CC14B7
:108AD0009093CD1461E080E090E00E94DB3610C0FE
:108AE00083E594E49093EB068093EA060E941E309F
:108AF00007C0992329F06FEAC50107DC80E001C0B7
:108B000081E02196EAE00C9444F5A4E3B0E0EBE8C0
:108B1000F5E40C9420F5C090A405D090A50520E1C3
:108B2000C21621E0D20609F46CC12EE4222E24E400
:108B3000322EAA24A394B12C82ED95E00E94602FDE
:108B40007C01009709F45DC10091BE141091BF141F
:108B5000C701801B910B6CE670E00E9490F480913D
:108B6000B914681748F089E494E49093EB06809375
:108B7000EA060E94063045C13CE6639F000D111DC8
:108B80001124D80117968C91B0E1CB16B6E0DB0624
:108B900021F0C114E5E0DE0699F58E7F843019F5E9
:108BA000C8018C5A9F4F0E94C8394C01DC011196B4
:108BB0006C91119712968D919C911397892B51F47A
:108BC000EAE4F4E4F093EB06E093EA066CAB0E946F
:108BD0001E306CA9D70112968C91811104C0F4014A
:108BE0008281938192DBA7014B5F5F4F63EAD801DB
:108BF0008D919C910E949439C7010E94D7329CCFDD
:108C00008695482E512CB1E04B165104B1F054F426
:108C1000452809F0EFC0D70112966C91C8010E9457
:108C20009E3C8ACFF2E04F16510409F4BCC023E009
:108C30004216510409F47CC0DDC0F80180858F70B4
:108C4000813009F079CF80809180D70119968C917D
:108C50000E94CC359B01AC01A0919C13F80180854A
:108C600082958F70A81BC20102C0880F991FAA9518
:108C7000E2F7DC010E941AF52B013C01D7011296A4
:108C80006C91611115C043825482658276820E9484
:108C9000E0F59170B301A201480F591F611D711DCC
:108CA000D80113964D935D936D937C9316972EC0C8
:108CB0006E3C51F0603F41F0603D31F0613D89F420
:108CC000F40195A597FF0DC0A7014B5F5F4FC4014D
:108CD0000E949439C7010E94D73281E00E94BF32BE
:108CE00090C0D80113964D925D926D927C9216972A
:108CF0000E94E0F59170B301A201480F591F611D58
:108D0000711DF8014383548365837683D8011896D7
:108D10008C911897807F826018968C931897139681
:108D20002D913D914D915C91169760E0C80104C270
:108D3000F80180858F70813009F0FECE20916C158E
:108D400030E080916F1590E001972817390709F4FA
:108D5000B5C1E0919D1370916E15272F30E080E032
:108D600090E0682F8E1708F0A9C10196A901062E80
:108D700002C0559547950A94E2F740FFF2CFC5012E
:108D8000062E01C0880F0A94EAF780958723809306
:108D90006E1580916D15860F80936C1582E795E1B5
:108DA0000E9411E2C9CEC8018C5A9F4F0E94C83957
:108DB0008C01DC0111966C91119712968D919C910A
:108DC0001397892B51F4EDE4F4E4F093EB06E09370
:108DD000EA066CAB0E941E306CA9D80112968D91E8
:108DE0009C91139792DAC7010E94D73281E00E94CA
:108DF000BF32A2CE3092EB062092EA060E941E30CD
:108E00009BCE1BAA1AAAAEE04A2EA4E35A2EBFEAB2
:108E10002B2E13E0312EAA24A394B12C66246A943D
:108E2000712C95E4892E94E4992E84ED95E00E94AE
:108E3000602F8C01C090A405D090A505009751F13A
:108E4000F80182899389892B09F079C1048CF58D09
:108E5000E02D80818370813009F071C1828185307D
:108E600009F46DC1D80157968D919C9158970E9435
:108E700021C1892B09F063C122E0F801268387898B
:108E8000908D90878783538A428AC80102960E94F8
:108E900013C1CBCFC1FE11C050E5C52E54E4D52E71
:108EA00062E0462E72E1A72E74E4B72EE8E05E2E53
:108EB000F9E08F2EFAE39F2E3BC00091D60510916A
:108EC000D7050115110509F458C0B80186ED95E0E4
:108ED0000E946C2F40E050E063EAC8010E94943980
:108EE000ECCF808D833081F57801FBE1EF0EF11C32
:108EF000C7010E941EC1892B39F5D8011D96F701C3
:108F0000852D01900D928A95E1F7D80158968C91A4
:108F100058971A968C931A9757969C928E925697BA
:108F2000C80106960E9413C186ED95E00E94602F4D
:108F30000091D6051091D70501151105F1F0F80142
:108F400086899789892B69F280917F159091801588
:108F5000892B09F4BEC2C8010E94A532882309F4F6
:108F6000B8C2C8010E94A532882309F4B2C2F80130
:108F70000081118101151105A1F78091A40590913F
:108F8000A5058115B5E09B0721F08031F6E09F072C
:108F900069F5F12C0EC02CE6F29E80011124E091BF
:108FA000BE14F091BF14E00FF11F8781833031F0C0
:108FB000F3948091B914F81670F320C080858F70F7
:108FC000843011F08230A1F740E050E063EA808104
:108FD00091810E9494398091BE149091BF14800FAA
:108FE000911F805A9F4F0E94D732E2CF8F33944017
:108FF00029F4F12C8091B914F81648F08091A40559
:109000009091A5058115954009F080C351C000914C
:10901000BE141091BF148CE6F89E000D111D112492
:10902000D80117968C91179780FF40C018969C9195
:109030001897292F2F702430C9F5282F2A7F223026
:10904000A9F5907F79F19160905118969C938E7F4D
:10905000823071F4C80109960E941634F801238108
:1090600034814581568160E0C8010E94DB361EC014
:109070008630E1F480916E158E7F80936E1580911D
:109080006D1580936C1580917115815080937115C9
:10909000E0917F15F0918015BF01808191810E9440
:1090A0001D3404C067EAC8010E949E3CF394A2CF1D
:1090B0008091B805882309F4AAC228C3F7018185E5
:1090C0000E94CC359B01AC01A0919C13F8018085D6
:1090D00082958F70A81BC50102C0880F991FAA95A1
:1090E000E2F7DC010E941AF52B013C0100917F158B
:1090F000109180150E94E0F59170B301A201480F14
:10910000591F611D711DD80113964D935D936D9389
:109110007C931697E0917F15F09180158085807F74
:109120008260808780917F1590918015FC0123815A
:1091300034814581568160E00E94DB36FDCCD80148
:109140005C96ED90FC905D97BFE3CB16B4E0DB0638
:1091500069F0D7018C918370813041F0F80185A1CD
:10916000811104C0C8010E943E33A4C1D7014C91B3
:10917000642F607446FF11C05091BC142091B91443
:1091800030E08091BD1490E0850F911D8217930708
:109190004CF78091BA14581728F7242F2C702430DC
:1091A00009F3662331F0842F83708230D9F243FDB6
:1091B000D9CF45FDD7CFF801D488F1E0DF1671F0A3
:1091C00032E0D312CFCF4370842F90E0009721F08C
:1091D000029709F47AC0C6CF2C3031F0C801CAD941
:1091E000882309F467C1BECFD80157966D917C9151
:1091F0005897F70140858AEA95E00E9468308823F5
:1092000009F4B0CFD8015B968C91893008F4AACFCD
:10921000B1E0BF83F7018181928199878887D80166
:1092200057968D919C9158970E9421C1FC010097FF
:1092300091F03B8A70816181528143813481258123
:10924000968187817E8B6F8B588F498F3A8F2B8FBA
:109250009C8F8D8F01C0DB8AF8018789908D9D8B53
:109260008C8B818D928D9F8F8E8FD70117968C91CD
:10927000179788A315968D919C9116979AA389A309
:1092800013968D919C9114979CA38BA3838D90E052
:1092900009979EA38DA3848D958D099698A78FA37A
:1092A00019A62AA684A18BA7868D8CA780A191A13F
:1092B000A2A1B3A18DA79EA7AFA7B8AB878D89AB9D
:1092C000CE0101960E9432414DCF423031F0909252
:1092D000EB068092EA060E941E30C090BE14D09029
:1092E000BF148091B914F6012CE6829FE00DF11DA8
:1092F0001124CF01C816D90608F034CFD60117962D
:109300006C91179760FFD2C018962C9118972F7008
:10931000223009F0CBC0F601EC5AFF4F0190F081EA
:10932000E02D2D913C91D80157964D915C91589725
:10933000D90159962D913C915A974217530709F03C
:10934000B5C0D70117963C91179727813213AEC04D
:1093500014964D915C9115972481358142175307DE
:1093600009F0A4C012964D915C911397228133812C
:109370004217530709F09AC011963C911197268124
:10938000321394C016963C91218132138FC06E7FA8
:10939000623031F4F6018085807F836080873FC032
:1093A000663009F083C0D70119969C911997809176
:1093B0006D159813D7CE60919D13262F30E0C5010F
:1093C000062E01C0880F0A94EAF781951A969C919F
:1093D0001A97982B1A969C931A97F6018085807F8E
:1093E000836080871A96EC91EF3F99F540916F1555
:1093F00050E070916D15E70FCA01871B910928177E
:1094000039070CF4C9018E0F80936C1590E0415020
:1094100051098417950741F4C6010E94EF3A60E0B4
:10942000C6010E949E3C9ECE760F70936D15809172
:109430009C138093711570936C15930102C0220FD9
:10944000331F6A95E2F7B90160956E7F60936E15E0
:1094500023C0E095E0936E1580E090E02E2F30E081
:10946000782F8617C8F40196A901072E02C05595DA
:1094700047950A94E2F740FFF3CFC501072E01C0DC
:10948000880F0A94EAF780958E2380936E15809159
:109490006D15870F80936C15E0917F15F091801505
:1094A000BF01808191810E941D345CCE3CE6C30ED9
:1094B000D11C20CFD8015E968C915E978AAB5F96C7
:1094C0008C918BABBE016E5C7F4F8BE30E945C2E58
:1094D000ACCCC8010E94A532882361F0809181152F
:1094E00090918215892B09F4BDC0D8019D968C916D
:1094F00082FFB8C0F80181A592A58536910518F0C4
:1095000085A583FFB1C0D80198963C90332031F0F7
:10951000832D0E941E41892B09F448C0F80185A5BE
:10952000208D382F347082FF0AC0223031F4818DB3
:10953000928D883F9F4FD0F502C02130B9F18EEF58
:10954000820F823038F4D80193968C91815F8E30EF
:1095500068F18CC021118AC0332309F487C0F80157
:1095600066A077A092D67C01009719F080E090E089
:109570000CC0B092EB06A092EA060E94063076C0BC
:10958000DC011B962C91213089F09701432DB3010A
:109590000E94293B0097A1F769C0813008F475C08B
:1095A000823009F49AC0833009F48AC026EAE12C9B
:1095B000F12C612C712CB80186ED95E02CAB0E944A
:1095C0006C2F2CA921111CC0E114F10431F4D092AC
:1095D000EB06C092EA060E941E30F301118300835D
:1095E000C8010E94A532882319F0C3010E94EF3AF6
:1095F000B301C801F7011995282F882309F498CCE5
:1096000040E050E0622FC8010E94943991CC009153
:10961000A8051091A905F8018281853C41F08DE6ED
:1096200094E49093EB068093EA060E941E30D801E2
:1096300013968D919C9114978D7F14969C938E9385
:109640001397892B09F062C080E00E94C83E80E138
:1096500096E09093A5058093A40560E0C8010E9460
:10966000B23654C02AEAA3CF20EAA1CFD801589637
:109670008C91813009F091CF80E00E9455333C01FC
:1096800039E1E32E3AE3F32E0DC0C8010E94A53262
:10969000882371F083E00E9455333C0148E6E42EB4
:1096A0004CE3F42E6114710409F467CC20E083CFFD
:1096B000F80185A582FF02C081E0EDCF80E0EBCF0D
:1096C000C8014B960E941EC10097F1F0DC018D91FC
:1096D0009C91F801928F818F408EC8010E94A53223
:1096E000882311F083E008C0D8019D968C9182FFF9
:1096F00002C081E001C080E00E9455333C012DE1B1
:10970000E22E24E3F22ECECF29EA51CFE496E2E115
:109710000C943CF5AFE1B0E0E0E9FBE40C942DF5EE
:10972000009749F485E495E49093EB068093EA066C
:109730000E94063082C0FC012081233009F07DC0E8
:10974000218132813A83298328E03396DE01139602
:1097500001900D922A95E1F7FC0123852B87248542
:1097600035853D872C8728E03E96DE011E960190C8
:109770000D922A95E1F7FC01218D2D8F238D2E8FDF
:109780000789108DF688F6E0FF1508F056C0F8013D
:109790008081982F9370933009F04FC0807E09F03C
:1097A0004CC08181811149C0BE01615E7F4F85E15E
:1097B00090E00E944432F80120812695269527707A
:1097C00030E08F8D90E028173907B9F58281982F06
:1097D0009370933091F5982F907F79F58C708C3041
:1097E00091F481E08B87F8E0FF1538F5F80183816B
:1097F00094819F878E876FEF0E946B888823E9F0A2
:10980000F80129E003C0F801329727E085819681AD
:10981000998F888F878190859F8B8E8BF21AFA8E15
:10982000020F111D1C8F0B8FE091B405F091B5054F
:10983000309719F0CE01019619956F96E5E00C94DA
:1098400049F580E191E09093A5058093A4051092DD
:10985000A9051092A8051092A7051092A6051092CE
:10986000B7051092B6050E9418360C9448A8CF93FD
:10987000DF93EC0160E572E085E20E94DB2E60E59B
:1098800072E088E30E94DB2E209749F480E694E49E
:109890009093EB068093EA060E94063005C089E1AA
:1098A0008A83CE010E94E633DF91CF91089500971D
:1098B00041F481E694E49093EB068093EA060C94DD
:1098C00006302AE8FC0122830C94E633009741F429
:1098D00082E694E49093EB068093EA060C940630BB
:1098E00025ECFC0122830C94E633CF933091C01415
:1098F0008091C1149091C21420E0231751F08396F7
:10990000FC01B3974081442311F081E029C02F5F0F
:10991000F4CFC0E08091B914C817E0F40E94562E2D
:109920009CE6C99F900111244091BE145091BF1430
:10993000FA01E20FF31F882341F0878180FF08C0FE
:1099400080858F70823021F0E0CF878180FDDDCF70
:10995000CF5FE0CF81E09091C314911101C080E00E
:10996000CF9108951F93CF93DF93EB01853239F4A4
:109970001881BBDF91E09827912398831FC088331B
:10998000E9F438814091B914E091BE14F091BF140C
:1099900080E0841771F0278120FF07C090859F70B9
:1099A000923019F42A7F223031F08F5FE459FF4F53
:1099B000F0CF80E001C081E0832B8883DF91CF91DD
:1099C0001F910895FC01808184FD0C9488360895D0
:1099D000A2E0B0E0EEEEFCE40C9430F5E091A605D8
:1099E000F091A7052F2F30E09E2F9F5F983008F051
:1099F00090E0692F70E0A901092E02C056954795A5
:109A00000A94E2F740FF26C09093A60581E090E01B
:109A1000062E01C0880F0A94EAF78F278093A705C6
:109A2000660F771F6354744B42E050E0CE010196FD
:109A30000E94EEF589819A81892B41F480E094E4BB
:109A40009093EB068093EA060E941E30E981FA812A
:109A5000199504C0E913C9CFE093A6058091A70525
:109A6000882361F02FB7F8948091A2059091A30507
:109A700080629093A3058093A2052FBF2296E2E017
:109A80000C944CF58091E513853091F028F48823EF
:109A900049F0823069F004C0843141F0863141F0F0
:109AA00080E008958091DE138B3010F488E00895F3
:109AB00082E00895833014F083E01BC096E0980F95
:109AC000923010F48BEF15C098E0980F923010F49C
:109AD00089EF0FC09AE0980F923010F487EF09C019
:109AE0009EE0980F943010F484EF03C0823F0CF492
:109AF0008FEE8093E3130895C5DF282F220F220FE6
:109B0000280F30E0A90160E8869F400D511D112407
:109B1000CA0108958091E5138530E9F028F488237F
:109B200049F0823079F004C0843189F0863189F0BF
:109B300080E008958091DE13882349F08B3058F43B
:109B400089E108958091DE13811105C002C082E38E
:109B5000089588E2089580E10895CF93DF93EC01A2
:109B6000D9DFE82F9E01A0ECB3E00E94FBF49B013B
:109B7000AC01AE2FB0E00E9410F528EE33E040E0DB
:109B800050E00E94B7F4CA01B901DF91CF91089566
:109B9000CF93DF93B1DFEC01BDDF282F2C9FC001F5
:109BA0002D9F900D1124BC0180E090E028EE33E061
:109BB00040E050E00E94B7F42F5F2093DC13DF9168
:109BC000CF910895CF93DF938BE08093DE1380E0F5
:109BD00098EFAFEFB7E08093DF139093E013A0937B
:109BE000E113B093E21363EE73E183E090E00E942F
:109BF00044328091E3135EDF63EE73E183E090E033
:109C00000E947C321092E51377DF9093E7138093E4
:109C1000E61338DF94E0899F800D11248093E813C8
:109C200031DF8093E91386E390E0A0E0B0E0809319
:109C3000B1139093B213A093B313B093B4131092D3
:109C4000B5131092B61381E08093B7131092B91335
:109C50001092B8131092BA130E94E0F58093BB13D0
:109C6000ECEBF3E18FEF80838183828383838483B2
:109C7000858386838783CFEFDFEFD093C513C093AF
:109C8000C4130E94E0F58093C61385E08093C71348
:109C900084E08093C81383E08093C9138093CA1330
:109CA000D093CC13C093CB1380E28093CD1310924A
:109CB000CE131092CF13D093D113C093D013109220
:109CC000DA131092DB1364DFDF91CF910895A4E0E3
:109CD000B0E0EDE6FEE40C9430F5DC014C9150E090
:109CE000CA01805491098534910508F0DFC0865A75
:109CF0009D4DFC010C94F5F411968C918093B61354
:109D000008C011968D919C9112979093B9138093EE
:109D1000B81380E015C111968C91853308F00FC1FE
:109D20008093BA13F6CF11968C918093BB13F1CF29
:109D300011968C9111978093BC1312968C91129767
:109D40008093BD1313968C9113978093BE13149632
:109D50008C9114978093BF1315968C9115978093CF
