S02B0000416C6C5F4D65676152665F41746D656761323536726672325F384D687A5F4763632F4578652F417000
S2840000000C94B6260C943AF60C9466F60C9492F60C94BEF60C94EAF60C9416F70C9442F70C946EF70C949AF70C94C6F70C94FD260C94FD260C944AF20C94FD260C94A0F20C94FD260C94FD260C94FD260C94FD260C94FD260C94FD260C94FD260C94FD260C94F8F80C9404F50C94A7F40C94D6F40C94FD260C9489F80C9460F80C94FD2642
S2840000800C94FD260C94FD260C94FD260C94FD260C949EF50C9441F50C9470F50C94F9F70C94FD260C94FD260C94B9E30C941CE60C94FD260C94FD260C94FD260C94FD260C94FD260C94FD260C94FD260C94FD260C94FD260C94FD260C94FD260C94FD260C94FD260C94FD260C94FD260C94FD260C9478E60C94FD260C94FD260C94A0E613
S2840001000C94FD260C94FD260C94FD260C94FD260C94FD260C94FD260C94FD260C94C8E60C94FD260C94FD260C94FD260C94FD260C94FD260000000000000000000000000000000000000000000000000000000000000000000000000000000000000000000000000000000000000000000000000000000000000000000000000000000008
S2840001800000000000000000000000000000000000000000000000000000000000000000000000000000000000000000000000000000000000000000000000000000000000000000000000000000000000000000000000000000000000000000000000000000000000000000000000000000000000000000000000000000000000000000FA
S284000200000000000000000000000000000000000000000000000000000000000000000000000000000000000000000000000000000000000000000000000000000000000000000000000000000000000000000000000000000000000000000000000000000000000000000000000000000000000000000000000000000000000000000079
S2840002800000000000000000000000000000000000000000000000000000000000000000000000000000000000000000000000000000000000000000000000000000000000000000000000000000000000000000000000000000000000000000000000000000000000000000000000000000000000000000000000000000000000000000F9
S284000300000000000000000000000000000000000000000000000000000000000000000000000000000000000000000000000000000000000000000000000000000000000000000000000000000000000000000000000000000000000000000000000000000000000000000000000000000000000000000000000000000000000000000078
S284004400CC1316001900BF1103001800FB0CBD0017006E1801001600221908001500AF1801001400A61802001300121901002600B51801001E00A51801000F002C1901000E00161901000D001E1902000C006F1801000B00691802000A008C18110009008218010008008118010007008018010006001319010005001C1901000400641835
S284004480040003009D1808000200621801000100461808000000A24712002E00C64715002D00F04719002C00224804002A002A4811002900CA281A2B3A2B5B2B912B9D2B792B972BA32BAB2B1E293B295F2989291A2A412A5C2A772A922AB22ACC2AE72A022BFB5418543955395539551D542754395539552F5434545C54655439556A5473
S28400450072547C54395585548A5439559354CE54E0543955D354DB54FB54FB54FB54F254F254F254F254F254F254F254F254F254F254F254F254F254F254F254F254F254A654F25439553955395539553955395539553955395539553955395539553955F254ED54FB54F254A054E554FD54FB54145522552955FB54FB54FB54955602569E
S284004580DC56DC56DC5608560D56B056DC561056135624562956DC562C562F563256DC5637563A56B0563F5689569E56DC568C568F56065692569256B056B056B056B056B056B056B056B056B056B056B056B056B056B056B056B056B0566F56B056DC56DC56DC56DC56DC56DC56DC56DC56DC56DC56DC56DC56DC56DC56B056A656A956CE
S284004600B0566756A156B856C156BB56BE56DC56CF56D456DA56E157E357EE57E557E757E957EB57C057F157F357C057F6574B584E585258555859585D58605864586458C05CFE5CFE5CFE5CC75CE45CD55CDC5C0F5DCE5CEB5CEB5CF25CFE5C065D0A5D6A5D6D5D705D705D725D7C5D765D795D895D745D7F5D815D835D865D725F755FA9
S284004680965F785F7C5F965F805F965F8B5F8E5F945FFD62AA63B963B86200640064B563B963BE63EC63D56300640064EC63EB62EE63069C0E9C259C979C979CEE9BFB9B979C979C979C459C549C719C7D9C979CEB9B199CB79B84A084A0AD9FB59FB59FC29FC29FDF9FDF9FDF9F3DA03DA03DA0D8A084A083AED5AEA9AEADAEADAEADAED7
S284004700ADAEADAEB1AEB1AE10C213C2B4C2B4C218C2B4C222C20BC30BC30BC30BC30BC30BC30BC30BC30BC3B4C2B4C20BC30BC21DC2B4C291CDDFCDDFCDDFCDDFCDDFCDCECDB8CDD6CDDFCDC8CDDFCDD2CDDACDB5CF90D06DD198D1D7D103D34CD32ED92ED92ED92ED92ED92ED92ED92ED92ED983D291D22ED92ED9B8D24FD136DB3EDB2E
S28400478050DB59DB5BDB5DDB5FDB62DB35DCADDCADDC5BDC64DC74DC7DDC80DC83DC86DC8CDC00000100020003000400050006000700080009000A000B000C000D000E000F001E00180000000100020003000400050006000700080009000A000B000C000D000E000F001E00130014001500160000000100020003000400050006000700F6
S284004800080009000A000B000C000D000E000F001E0013001400150016001700180019002600130014001500160000000100020003000400050006000700080009000A000B000C000D000E000F001E00640B0000FB0C0000550C0000B80D0000EF0C000000000000E20D00004C130000A4130000F610000048110000121100007F11000063
S284004880C2110000061300000000000000000000BF110000CC1300000000000000000000000000000000000000000000000000000000000000000000000000000000000000000000000000000000000000000000E21300000A140000E90B0000D44A0200D84A0100DB4A0100D94A0200DE4A0100DF4A0100E04A0100E14A0100E24A0100AC
S284004900E34A0100E44A0200DC4A0200E64A0100E74A0100004B0200F14A0100F24A0100F34A0100FC4A0400E84A0100E94A0400ED4A0100EE4A0100F84A0100F94A0100FA4A0200000000000000000000000000000000000000000000000000000000000000000000000000000000000000000000000000EF4A0100F04A0100024B010090
S284004980034B0100044B0100054B010000000000F44A0400D64A020046180800501801005E18040062180100641804001A1901001B190100221908001E190200A6180200AF180100161901002C1901001C1901006B1801006C1801006D1801006E180100691802006F18010070180100181901001719010021180100221801009D180800C2
S284004A0083180400781804007C1804008018010081180100821801008C1811001319010087180100881804001018010023180200A518010068180100000000000000000011180100000000000000000000000000000000000000000000000000000000000000000000000000000000000000000071180500761801007718010000000000F6
S284004A8000000000000000000000000000000000000000000000000052180100000000000000000000000000000000000000000000000000000000000000000000000000000000000000000063180100581801005118010085006C0001000007050007040205040204000308FF140000000108030303020A901A00000100000000000303E8
S284004B00141061620003001E000003F400800000013412000303000002000000000003034C1D000010270000000001E803000004E80300001041746D656C202020202020202020202007CAAAAAAAAAAA1A0002030100000000000000000000000000000005FF00000000000000000000000000000000000000000000000000000000000037
S284004B800000000000000000000000000000000000000000000000000000000000000000000000000000000000000000000000000000000000000000000000000000000000000000000000000000000000000000000202010002020508080000FFFF34120000000000000000020201C245214B0000000000000000000000000240821E7D77
S284004C000107889DCA770101889DCA770101FF8131950101848190A4010184815FA401073981BA770101E180AC8A01010000000001070000000001010000000001030000B46F01040000B46F010500000000010600000000010D000000000101889D0000000100000000010E00000000010700000000010A0000000001000000000001017D
S284004C800000000001010000000000000000A77B00090000A77B000C0000A77B00000000A77B00427E1484479B0BAE477A7DA1577FFD7FCD78BA86038DE07BB9A4DE7E4C79357800000000FF77828600000000696D7970FF6DD46DF86D0000706D7E6DED6D776D6F70276D6B6F726FE16F636F066E0000C9700201020303020201010101EC
S284004D000101010101020201010102010202020202020102020202020201030302020342AC6EA2259BA1A30000A4AA24945BAF000000008DBCA8C163CB70C43ED942CA2DE82DE82DE82DE89FE964E77EF91BF2CDE40BE4B0F050F354F0E1EE5CED2EE880E9ACEABFE87EE9AAEABDE800112480918E1D823159F084B780FD04C08F7180934D
S284004D808E1D07C081E080938E1D03C081E180938E1D14BE8091600088618093600010926000EFE8FDE18DEC01C0819390E7E030F907D9F3D0F311241FBEC0E0D0E7DEBFCDBF00E00CBF17E0A0E0B2E0ECEFFBEF01E00BBF02C007900D92A63AB107D9F72DE1A6EAB7E001C01D92AE38B207E1F70E948D360E94A336FDCF0C9400007F93F0
S284004E007FB7F8949D9AA5988AEF4DD08AEF4BD09D9886E448D081E0959980E08F9380EF42D08F917FBF7F9108957F937FB7F8949D9AA59886E037D09D988AE034D0889495990894881F8F9384E62DD08F917FBF7F9108959F937F9398E0E7DF879577959A959923D1F7872F7F919F9108957F937FB7F894A5989D9A8F9386E014D08F913C
S284004E80879508F49D988F9384E60DD08F919D987FBF7F9108959F9398E0E9DF9A959923E1F79F91089500000000000000008A958823C9F708955F937F937FB7F894CF93DF93C0E0D0E07F935091B2007091B2007517E1F3739521965091B2005717D9F77F91CE01DF91CF917FBF7F915F91089584E08093A3032FB7F8948091AD0990915B
S284004F00AE0990619093AE098093AD092FBF08958091A8078093A3032FB7F8948091AD099091AE0990619093AE098093AD092FBF0895A0E0B0E08093AF079093B007A093B107B093B2076093A80789EA97E00C94B3E70895CF93DF93EC0180E00E94ED3680ED97E00E94B3E76CA18EA19FA153D662E08AEE94E04FD6DF91CF910895FC0148
S284004F80878581110AC06EE578E081E290E00E94BD3781E00E94ED3604C067E08BE394E03AD62FB7F8948091AD099091AE0990619093AE098093AD092FBF089580E00C94F936089581E00C94F9360895811104C060E283E494E01FD68FE593E00C94E2EB0895811104C062E286E694E014D682E993E00E94E2EB8091A707882331F080919E
S284005000D00A813811F01092A7071092A6070895811104C062E289E894E0FDD581E893E00C94E2EB0895811104C060E28CEA94E0F2D580E793E00C94E2EB0895811104C06FE18DEC94E0E7D58EE493E00C94E2EB0895811104C065E28DEE94E0DCD58DE393E00C94E2EB0895811104C06BE181ED94E0D1D58CE293E00C94E2EB08958111E8
S28400508004C06AE181EF94E0C6D58BE193E00C94E2EB0895FC018081811115C081E00E94ED3683EC97E00E94B3E71092A3032FB7F8948091AD099091AE0990619093AE098093AD092FBF0895813011F483EF03C0823019F485EF80932A0B8CE293E00E94C4EB019621F46BE08CE095E094D58CE293E00E94FAEB019621F46CE088E195E0F8
S2840051008AC50895CF93C82F8BE193E00E94C4EB019621F46BE08CE095E07DD58BE193E00E9422EC019621F46BE085E295E073D5C13069F48091070B90E0982F88272091080B822B90930A0B8093090B0EC0C23061F48091070B90E0982F88272091080B822B9093B40A8093B30ACF910895A0E0B0E0EDEBF8E20C9474FB8091A30390E085
S284005180FC013197E731F10508F077C4E65AFD4D0C9498FA1092A3030FD580E197E2A0E0B0E08093BC079093BD07A093BE07B093BF071092C00788E797E29093C2078093C10784E690E0A0E0B0E08093AF079093B007A093B107B093B20741E04093B30788E897E29093B5078093B40784EF91E0A0E0B0E08093C9079093CA07A093CB0774
S284005200B093CC074093CD0722EE37E23093CF072093CE078093D6079093D707A093D807B093D9074093DA078EED97E29093DC078093DB070E9405378BE00EC082E00E94ED368FEB97E290935D0880935C0886E498E00E948ACA8CE08093A3032FB7F8948091AD099091AE0990619093AE098093AD092FBF02C481E090E090933E08809386
S2840052803D0890933C0880933B0880933A0880913F08807F816080933F088AE398E090933608809335088AEA97E2909338088093370882E398E00E94AB468DE0CDCF81E090E09093F60A8093F50A82E08093E90A1092EB0A1092EA0A21E02093F40A8BEF97E09093FD0A8093FC0A87E390E09093FB0A8093FA0A2093F90A8AE498E29093B4
S284005300010B8093000B1092A3036FE080ED97E0B3C32091260B3091270B4091280B5091290B02E0E02E03E068E283EF92E0CAD420911A0B30911B0B40911C0B50911D0B05E068E283EF92E0BDD42091160B3091170B4091180B5091190B08E068E283EF92E0B0D42091AF0A3091B00A4091B10A5091B20A0AE068E283EF92E0A3D4809128
S284005380150B882311F08DE201C08BE28093F5022091200B3091210B4091220B5091230BD5E0ED2E0DE068E283EF92E0BCD42091B70A3091B80A4091B90A5091BA0A14E0E12E03E168E283EF92E07CD42091CE0A3091CF0A40E050E008E168E283EF92E071D42091BF0A3091C00A40E050E00DE168E283EF92E066D42091240B3091250B06
S28400540040E050E002E268E283EF92E05BD4E3EFF2E0ABEFB7E081918D9313E0EB31F107D1F781ED9AE00E943C4367E283EF92E0F2D323C31092A3038FEF8093100B81E18093110B85EE8093120B82E78093130B8AE88093140B8FE593E00E94C4EB019621F465E181E395E0D6D38FE593E00E94FAEB019621F466E187E495E0CCD360E1AC
S284005480F9C21092A30380E28093D00A82E993E00E94C4EB019621F464E18EE595E0BBD382E993E00E94FAEB019621F465E183E795E0B1D361E1DEC21092A30381E08093A70782E993E00E94C4EB019621F464E18EE595E0A0D382E993E00E9422EC019621F465E189E895E096D362E1C3C21092A30384EF8093D00A82E993E00E94C4EBD0
S284005500019621F46AE18EE995E085D382E993E00E94FAEB019621F46BE189EB95E07BD363E1A8C21092A30381E08093B50A80E18093B60A81E893E00E94C4EB019621F468E185ED95E067D381E893E00E94FAEB019621F469E18EEE95E05DD364E188EE93E08AC21092A3031092D00A82E993E00E94C4EB019621F46AE188E096E04BD3DD
S28400558082E993E00E94FAEB019621F46BE183E296E041D365E16EC21092A30381E08093A60782E993E00E94C4EB019621F46AE188E096E030D382E993E00E9422EC019621F46BE183E296E026D362E053C21092A30382E08093D00A82E993E00E94C4EB019621F46AE18FE396E015D382E993E00E94FAEB019621F46BE18AE596E00BD316
S28400560067E138C21092A30380E793E00E94C4EB019621F469E186E796E0FDD280E793E00E9422EC019621F46BE180E996E0F3D26AE020C21092A3038FE380931E0B86E880931F0B8EE493E00E94C4EB019621F465E18BEA96E0DFD28EE493E00E94FAEB019621F466E181EC96E0D5D263E084EF91E002C21092A30381E280931E0B81EBEA
S28400568080931F0B8EE493E00E94C4EB019621F464E188ED96E0BFD28EE493E00E94FAEB019621F465E18DEE96E0B5D286EB97E00E94B3E7E2C11092A3038CEE80931E0B85E080931F0B8EE493E00E94C4EB019621F468E183E097E09ED28EE493E00E94FAEB019621F469E18CE197E094D267E02FC01092A3038DE393E00E94C4EB01961E
S28400570021F464E186E397E086D28DE393E00E9422EC019621F464E18BE497E07CD265E017C01092A30381E0CFDC68E011C01092A30381E0E7DC66E00BC01092A30382E0C3DC69E005C01092A30382E0DBDC66E184E690E091C11092A303C091C10AD0E0DC2FCC278091C20AC82BD093CF0AC093CE0A6091C40A862F90E0A0E0B0E06627DF
S284005780782F892F9A2F2091C50A622B6093CA0A7093CB0A8093CC0A9093CD0A0E9481FC20E030E040E857E30E940DFD20E038EB48E856E40E940DFD20E030EA4CE855E40E94E9FB0E944EFC6093200B7093210B8093220B9093230B6091C70A862F90E0A0E0B0E06627782F892F9A2F2091C80A622B60930B0B70930C0B80930D0B909373
S2840058000E0B0E947FFC20E030E040E857E30E940DFD20E030E44CE156E40E940DFD0E9453FC6093B70A7093B80A8093B90A9093BA0A9E0140E050E065E0E62E01E065E187E692E03FD22091200B3091210B4091220B5091230B6CE18BE492E064D22091B70A3091B80A4091B90A5091BA0A60E28BE292E027D28091B30A9091B40A7DE393
S284005880A72EE1E9BE2EF0E6CF2EA4EEDA2EB8E5EB2EC1E1FC2E00E010E09C0140E050E060E070E080E090E00E94C3FA2F3F1FEF310715E841071EE951071EEA610719E2710715ED8107910569F060F046585E496E4A7942854D910929013A014B01D82FC92F08C0412C512C612C712C812C912CD0E0C0E0A12CB12C41ECC42E5FE6D52E2E
S28400590062EFE62E76E8F72E03E210E09201A301B4018D2F9C2F0E9416FB2093160B3093170B4093180B5093190B9201A301B4018D2F9C2F0E9414FB2093AF0A3093B00A4093B10A5093B20A6091090B70910A0B80E090E00E947FFC20E038E449E85EE30E940DFD20E038EE4EE955E40E94E9FB0E944EFC24E630E040E050E00E947CFA83
S2840059802093260B3093270B4093280B5093290B60931A0B70931B0B80931C0B90931D0BE3E0EE2E01E06EE185ED92E08BD120911A0B30911B0B40911C0B50911D0BF2E0EF2E05E06EE185ED92E07CD14091090B50910A0B22E06AE18BEB92E050D12091160B3091170B4091180B5091190B01E068E283E992E066D12091AF0A3091B00A81
S284005A004091B10A5091B20A04E068E283E992E059D14091B30A5091B40A22E067E18CE792E02DD12091BB0A30E0322F22278091BC0A282B3093C00A2093BF0A40E050E0B5E0EB2E01E065E180E092E03BD12091BD0A30E0322F22278091BE0A282B3093250B2093240B40E050E066E185E192E029D16EE081E090E05CDACDB7DEB7E0E137
S284005A800C9490FB0895089508950895CF92DF92FF920F931F93CF93DF93E42FF0E0F0905B092AEF30E02F1931092E173F0734F150915A0920E030E0EC01C60FD11D0AEF10E02E173F07ACF4852F90E0BC01615A774F6B01BE01620F731FDB015C91D6015C932F5F3F4F0196B8010E9447FA582FE8CF50935A09F40EF0925B09DF91CF9193
S284005B001F910F91FF90DF90CF9008951F93CF93DF9310928E0910928F0910915B09112309F446C080915909ECE5F9E01333E0F4212F30E0CAEFD0E0AF014C555940421753075CF490E0DC01A15AB74F4C9141930196BE010E9447FAEFCF8093590910938E0910925B0918C02AEF30E090E0DC01A15AB74F4C9141930196B9010E9447FAD5
S284005B8099E0EE38F90791F78093590982E380938E09125310935B0981E080938F0940918E0950E06CE579E08EE89AE00E9415EBDF91CF911F91089588EC8093990A10929A0A89E190E090939C0A80939B0A86E080939D0A10929E0A10929F0A1092AE0A1092A30A1092A20A1092A50A1092A40A1092A70A1092A60A1092A90A1092A80A26
S284005C0086E89DE29093AD0A8093AC0A8EE89AE00C94B6EA0895462F20918F09222319F060E034CF0895FC01ACE5B9E0633370F4862F90E09D012C553940281739071CF421912D93F7CF40938E090CC021912D9329E0AE38B207D1F722E320938E09425362E314DF81E080938F0940918E0950E06CE579E08EE89AE00C9415EB089570E032
S284005C8030E0F9013396E617F707DCF463E070E0280F391FE42FEF70CA018F7099270A9710F480E301C087E38E0FF901E60FF71F808384E0569547958A95E1F76150710948F70895A0E0B0E0E8E6FEE20C9478FBF12CF701E00FF11DC62FD0E0CE17DF07ECF0C0E0D0E08C010E0F1F1F6AE0862E912CA12CB12C2197F701EC0FFD1F319688
S284005D0069F06801CC0EDD1EB901CA01A50194010E945AFA605DF6016083EDCFCDB7DEB7ECE00C9494FBA0E0B0E0E9E9FEE20C9478FBFC01C62FCA01B90110E057FD02C02BE208C090958095709561957F4F8F4F9F4F2DE2DF01A00FB11F2C9398012F5F3F4FF12C2E0D3F1D4C2F50E04217530704F1C0E0D0E00E0D1F1D0E0F1F1FEAE0BF
S284005D808E2E912CA12CB12C21979E01215031092E0D3F1D37FD0DC06801CC0EDD1EA50194010E947CFA605DF6016083B901CA01EBCFCDB7DEB7ECE00C9494FBA2E0B0E0E4EEFEE20C947AFB6C0100912B0B10912C0BE12CF12C80912F0B9091300BE816F906A8F45801B8016C5F7F4F42E050E0CE0101960E94C7FD0A5F1F4F29813A8112
S284005E002C153D0539F08FEFE81AF80AE4CF80E090E001C0C5012296EAE00C9496FBADE0B0E0E5E1FFE20C947CFB7C016B0123E0969587952A95E1F7FC01E55DF44F228D30E0B70167707727062E02C0369527950A94E2F78E010F5F1F4F20FF42C027E0E5E4FBE0D80101900D922A95E1F7A0E020E030E04A2F50E048175907D8F4F80197
S284005E80E40FF51F4081542F569555754575540F452F4695469543735373450F4083E42FEF7042954F7050E04E0F511D240F351FAF5FE0CFE0E0D801A80FB91F4E2F50E04617570780F44C9150E00E2E02C0569547950A94E2F741705527240F351FEF5FEDCF2FEF3FEF1B870A8746E0429FC001439F900D112404969987888786E090E0D7
S284005F009D878C8761EC70E3CE01089672D18D819E81E816F90639F084E090EA90935F0B80935E0BE1D589819A81F601918380832D96E8E00C9498FBA6E0B0E0E2EAFFE20C947EFB7C018B0180E090E0FC0133E0F695E7953A95E1F7EE0DFF1D6081AC0147705527262F30E0042E02C0369527950A94E2F720FF0DC021E030E001C0220F23
S284005F804A95EAF720952623208318DF009731F431C0019683339105C9F62CC046E050E0BC01CE0101960E94C7FD89819A81F80193838283B8018D819E8131DFF801808191810596918380838B819C819583848382819381892B39F480E090EA90935F0B80935E0B81D58D819E81F7019087878381E006C08FEF9FEFF7019087878380E0D2
S2840060002696E6E00C949AFBA8E0B0E0EAE0F0E30C9478FB7C01A0902D0BB0902E0BFC01868182FD09C000E010E0812C76E0972ECC24C394D12C0CC047E050E06FEF70E0C7010E94F7FD6DC0882483940F5F1F4F8091310B9091320B0817190708F05BC0909EB001919E700D11246A0D7B1D46E050E0CE0101960E94C7FD2D813E81F901C6
S28400608063E0F695E7956A95E1F7EE0DFF1D408127703327842F90E0022E02C0969587950A94E2F780FFD2CFC60102C0880F991F2A95E2F79C01209524232083812C882D90E02B813C818217930708F0BDCF880F991F69817A81680F791F42E050E0CE0107960E94C7FD8F819885FC0153E0F695E7955A95E1F7EE0DFF1D87709927960129
S28400610002C0220F331F8A95E2F7C9019081982B90838394D4CF882021F000E010E0812C97CF2896ECE00C9494FBCF93DF93EC018FEF9FEF98878F8387E0FB01DE0101900D928A95E1F7CE015FDFE5E4FBE091918881892389938BE0EC34F807C1F7DF91CF9108958091590B90915A0BA7C208951092560B82EB90E39093580B8093570B84
S28400618008950895EEE3FBE0DC013D91CD012081232B2193BBE0E534FB07B1F780915B0B846080935B0B08950E94DAEE882311F0DFD5FACF0895A2E0B0E0E1EEF0E30C9480FB8B0189839A83EFDFB80189819A810E94FDED019631F080E3013C180721F4E3DF02C081E001C080E02296E4E00C949CFBA2E0B0E0EFEFF0E30C9480FB8B012E
S28400620089839A83D1DFB80189819A810E948AED019631F080E3013C180721F4C5DF02C081E001C080E02296E4E00C949CFBA2E1B0E0EDE1F1E30C9475FB80915B0B982F926090935B0B82FF0AC06EE37BE080E999E06BDF80915B0B8B7F80935B0BCC24C394D12C7E013DE0E30EF11C55E0A52EB12C4E0182E1880E911CBE01695F7F4F7A
S28400628080E999E059DE882309F462C06090970970909809F30163E0F695E7956A95E1F7E55DF44FC30187709927960102C0220F331F8A95E2F7C901809593898923838BFC82EB82BE82AD828F81988505979A83898361EC70E3CE0101968BDF4B855C8569857A8580E05ED0582E8D8558123AC08889998968167906A9F52B853C858E85B1
S2840063009F852817390771F59C828B82DE82CD8200E010E02B853C850217130708F0ADCF2F813885200F311F3A83298361EC70E3CE0101965EDFAB81BC81E985FA85E00FF11F9C91808198130DC00F5F1F4FE2CF80915B0B8D7F80935B0B60E070E08FE001D21CC05D86798A688A8B859C859F878E87FC82EB8285E090E09E838D838F813E
S284006380988505979A83898367E171E3CE01079612DF61EC70E3CE0101960DDF6296EFE00C9491FBFB01460F571FE417F50719F09191890FFACF08954F925F927F928F929F92AF92BF92CF92DF92EF92FF920F931F93CF93DF93CDB7DEB762970FB6F894DEBF0FBECDBF80E094E490932C0B80932B0B86E994E490932E0B80932D0B06E9CD
S28400640014E400501444C80166E070E00E9433FA892B39F080E290EA90935F0B80935E0B63D326E030E0C801B9010E9433FA40912F0B5091300B642B752B7093300B60932F0B04EB14E406591444C801B9010E9433FA892B39F081E290EA90935F0B80935E0B42D3C80166E070E00E9433FA8091310B9091320B682B792B7093320B60931D
S284006480310B00912B0B10912C0B1092330B1092340B1092350B1092360B87E0E5E4FBE0DF011D928A95E9F7D12CEE24E394F12C80912F0B9091300B2D2D30E028173907C8F546E050E0B801CE0101960E94C7FD2B813C812B5F3F4F8091330B9091340BA091350BB091360B820F931FA11DB11D8093330B9093340BA093350BB093360B36
S2840065008D819E81FC0133E0F695E7953A95E1F7E55DF44F87709927970102C0220F331F8A95E2F7C901928D982B928F0A5F1F4FD394BECF26E0289F6001299FD00C112434E0C30ED11CE12CF12CCE010796988B8F8786E090E09A8B898BA12CB12C00E010E096E0792E22E2822E20EA922EF80183E0F695E7958A95E1F7E55DF44F828DC8
S28400658090E098012770332702C0969587952A95E2F780FF41C07A9CC0017B9C900D112404969E878D8761EC70E3CE010D9621DE8B859C858017910749F48F819885A985BA858C159D05AE05BF0559F01C870B87CF82D886E986FA8661EC70E3CE010D96EADDC801EBDB2C01009729F490925F0B80925E0B79D246E050E0B201CE010196C0
S2840066000E94C7FD8B819C810596C80ED91EE11CF11C8FEFA81AB80A0F5F1F4F0333110509F0A5CFA5DD62960FB6F894DEBF0FBECDBFDF91CF911F910F91FF90EF90DF90CF90BF90AF909F908F907F905F904F90089520E0FC013191CF01311105C02F5F2730C1F780E0089581E0089527E0FB0111922A95E9F7FC0123E0F695E7952A9531
S284006680E1F7E60FF71F8770992721E030E001C0220F8A95EAF78081822B8083CB01B4CC0895A5E4BBE0FC013D912081232321932BE0AC34B207C1F7CCCF0895A7E0B0E0E4E6F3E30C9481FBBE016F5F7F4FCEDFCE010196E6DFCE010196BBDF182F882339F0CE0101964EDD80915B0B81FF9FDD812F2796E3E00C949DFB08950895A2E0F7
S284006700B0E0E5E8F3E30C9482FB809199098823E9F0BE016F5F7F4F81E290E02ED4BE016E5F7F4F8DE190E028D48981823071F48A8181110BC08EE793E39093A2098093A1098AE999E00E941EC702C00E9420E52296E2E00C949EFB8091990908950C94D9F00895A0E0B0E0E8EBF3E30C947AFBB82E7B01082F10E093E0169507959A9505
S284006780E1F78770C1E0D0E001C0CC0F8A95EAF7AC2E8FE38B1538F484E090E890935F0B80935E0BA1D1F801ED55F64F80818C2311F1C091AB09D091AC0985E0C82E80E8D82E2097C1F0FE01E00FF11F82818A2171F02A853B85232B29F4D0925F0BC0925E0B82D1EA85FB85B7018B2D19950990D881C02DE6CFCDB7DEB7EAE00C9496FB75
S284006800E82FF0E023E0F695E7952A95E1F7ED55F64F208130E0877041E050E002C0440F551F8A95E2F72423352381E0232B09F480E00895282F30E043E0369527954A95E1F7620F731F877021E030E001C0220F8A95EAF7FB019281922381E009F480E008951F93CF93DF93182FEB01803438F023E030E830935F0B20935E0B35D1BE01A0
S284006880812FD8DF81112AC0BE018BEA99E09AD081110BC088E0FE013296DF011D928A95E9F7BE018BEA99E09DD0412F50E063E0569547956A95E1F7177021E030E001C0220F1A95EAF7C40FD51F8A81822B8A83FA01ED55F64F8081822B8083DF91CF911F9108951F93CF93DF93182FEB01803438F023E030E830935F0B20935E0BF4D031
S284006900BE01812F97DF882369F1212F30E073E0369527957A95E1F7177041E050E0012E01C0440F0A94EAF7942F9095C20FD31F8A8189238A83E091AB09F091AC09309759F0DF01A20FB31F12968C91842351F40190F081E02DF3CFF901ED55F64F808189238083DF91CF911F910895DC01ED91FC911197309721F0208131812D933C9316
S284006980CF01089561157105A1F0DC01ED91FC911197E617F70759F4208131812D933C930FC0808191818617970729F0FC013097C1F780E00895DB018D919C919183808381E00895DC01ED91FC91309739F0E617F70731F00190F081E02DF7CF80E0089581E008950F931F93CF93DF938C01EB01E9DF882349F080E090E890935F0B80937A
S284006A005E0B5AD080E014C019821882D801ED91FC911197309719F4CD93DC9308C080819181009711F0FC01FACFD183C08381E0DF91CF911F910F910895CF93DF93FC0182819381009781F40E9407E8C22FD32F0E94E15644E0FC0121913191CF01C227D3274150C1F7CE010E94BCFD81E08093AA0382EB93E00E94B3E7DF91CF91089542
S284006A8084EA93E00C94525708958091AA03882369F082EB93E00E94E3E78DE195E39093B1038093B0031092AA03EACF089582EB93E00C94E3E7089582E090E09093610B8093600B80915E0B90915F0B9093630B8093620BE0915C0BF0915D0B309719F080E69BE01995089583E090E09093610B8093600B80915E0B90915F0B9093630B85
S284006B008093620BE0915C0BF0915D0B309719F080E69BE019950895EF920F93FC01618372834F3740F081E090E890935F0B80935E0BC2DF20C0403808F04FE7440F808181700187842BE0FA80F9808334832383CB01AC016081669504962181328174E0679F200D311D11244217530720F4DC0111971C92EECF0F91EF900895A0E0B0E01B
S284006B80E4ECF5E30C947BFBEC018B01B42E0E9407E869017A018D819E81AF81B885A7019601281B390B4A0B5B0BCA01B9012B813C8140E050E00E945AFA2F3F31054105510518F42223F9F001C02FEF89819A81BC0138813695049649815A81E4E03E9F400D511D11246417750748F4FC013291432F231708F4422F341B3083E9CFCD820E
S284006C00DE82EF82F886A981BA814881842F86959D0154E0859F200D311D1124C901E0E0F0E0A817B907C0F413965C911397552359F02D913C9111972017310729F412962C9112972B15C1F0309719F02381521708F4FD011496E5CF40FD06C0309771F0838181110BC002C0309751F011830083B2828985838304C080E003C082E001C0DE
S284006C8081E0CDB7DEB7E9E00C9497FBFECE08950895CF93DF936091BF037091C00380E090E0E1E0F0E09F01082E02C0220F331F0A94E2F74091AD095091AE094623572342235323452B11F16FB7F8944091AD095091AE0920953095242335233093AE092093AD096FBFFC01EE0FFF1FE05AF84FC081D181209739F486E090E890935F0B11
S284006D0080935E0BF1DEFE01199504C001968F30910549F6DF91CF9108950E94ABE50E946EB6882371F02FB7F8948091AD099091AE0980619093AE098093AD092FBF81E0089582E00895A5DF60E070E08BE20ADD8091AD099091AE09892B09F4D0DC2091AD093091AE0981E0232B09F480E0089590CF0895FC012081211105C021E0219304
S284006D80CF010C94B3E70895FC012081213021F41192CF010C94E3E70895A5E0B0E0E3EDF6E30C947EFB7C012A833B834C835D836983EADFF7011082698163872A813B814C815D812783308741875287158704872596E6E00C949AFB0895813031F018F0823029F008952F9A08952E9A08952C9A0895813031F018F0823029F008952F98E1
S284006E0008952E9808952C980895279A269A249A2F9881E0EEDF82E0ECDF80E0089589E3E5E2F8E1DF011D928A95E9F7E6E4F8E184E080838AE081831282138287E0848315821682178295E09093501891E0909358188093511847E850E064E67BE486EA98E10E94C7FD43E150E061E57BE482E198E10E94C7FD43E050E06EE47BE48FE058
S284006E8098E10E94C7FD48E450E066E07BE48EE598E10E94C7FD8BEA9CE0E4E6FBE0DF019C011D9221503040E1F70895A4E0B0E0ECE5F7E30C9482FBBC011A8219821C821B828827811521E0920769F0811522E09207B9F0892BE9F4660F771F660F771F6856764B07C07727660F771F660F771F6452774B44E050E0CE0101960E94C7FDED
S284006F000FC07727660F771F660F771F645B774BF1CF8AE090E690935F0B80935E0BE4DD69817A818B819C812496E2E00C949EFB76DF42CA0895A4E0B0E0E1EAF7E30C947EFB7C018B01B2DFEE24E11422E0F20669F026E030E630935F0B20935E0B69837A838B839C83C0DD7A816981F801718360832496E6E00C949AFBA4E0B0E0E3ECB2
S284006F80F7E30C947EFB8C017B0190DFE114F10479F420E030E630935F0B20935E0B69837A838B839C83A0DD9C818B817A81698100270115110549F0011521E0120751F4AC01C7010E94C7FD0CC0AC01C7010E94DDFD07C081E090E690935F0B80935E0B83DD2496E6E00C949AFBA0E0B0E0EBEFF7E30C947CFB8C01EB0158DF6B017C0101
S284007000209739F484E090E690935F0B80935E0B6BDD00270115110539F085E090E690935F0B80935E0B60DDA701BE01C6010E94DDFDCDB7DEB7E8E00C9498FBFC0195A5892F887090FF09C0882379F081E021A532A52236310550F408C0882331F081E021A532A52436310508F480E08170089521E030E001C0220F8A95EAF78091B209A3
S284007080822B8093B2092FB7F8948091AD099091AE0980629093AE098093AD092FBF0895CF93DF93E0913219F09133198E179F0718F482E894E446C08E1B9F0B6CE670E00E9433FA80912D19681718F083E894E439C08CE6689FE00DF11D11248781869590E08230910559F014F00397D1F5809131198823B1F181508093311932C08091CB
S2840071003019882319F0815080933019DF01AC5ABF4FCD91DC912091351930913619CE01821B930B63E270E00E9433FAC217D30718F484E894E406C080912E19681740F085E894E490935F0B80935E0BB5DC0CC0D90183E2689FA00DB11D11248C9181111C9287818E7F8783DF91CF910895CF93DF93EC0118A68EA19FA1892B39F484E4D3
S28400718094E490935F0B80935E0BAEDCEEA1FFA1CE0188961995DF91CF910895EF92FF920F931F93CF93DF93A0912D19409132195091331920E030E090E09A1709F45AC0FA01E20FF31FB90164597F4FB781B0FD63C07F0194E5E90EF11CD7011D921C928230B1F010F08330F1F59091311940912F19941708F03EC09F5F90933119138278
S28400720014821582168290859F709087128235C01091301990912E19191760F500913419409135195091361990E09017B9F0EA014D5D5F4FBA0163527109DB016C9161110BC01F5F1093301941E048836896D701CD93DC93428302C09F5FE7CF4091341949130BC007C081E894E490935F0B80935E0B3ADC80E090E012C09085907F90875A
S284007280880F81608783118210828091321990913319820F931F03C09F5F9B018ECFCDB7DEB7E6E00C949AFB2091C30921502093C309BC018DED99E095DB81E0D9CE0F931F93CF93DF938C01C091B309D091B4098091AF099091B00980519140813F954048F4B80183EB99E07DDBCD2B59F480E0BFDE08C083E694E490935F0B80935E0B91
S284007300F3DBEFCFDF91CF911F910F910895BC01615171098FED99E065DB81E0A9CE2091C3092F5F2093C3090C94E8966F927F929F92AF92BF92CF92DF92EF92FF920F931F93CF93DF931F92CDB7DEB78C017B01FB01E25AFF4F84E599E3918380833E9782E08083D80159968D919C915A973196918380839E968C919E97379680833196B2
S284007380108231969D968C919D978095881F8827881F8083319681E08083319680839D968C919D9786FD0BC021E059968D919C915A97883F9F4F08F020E0822F01C081E0F701E35AFF4F81708083C80137DEF701ED5AFF4F6F0197012C5A3F4F3901882309F442C09090DF194091E019242F30E08091E31990E001972817390739F4D80162
S28400740099968C91499D80191124982EA92CB12CC5014E968236910538F081E594E490935F0B80935E0B60DB3091DF192091E0198091F5199091F619F80163A574A5329F600D711D1124A5014E960E94DDFD8AE0890DD6018C938091F5199091F6194496F301918380830EC0D80199968C919997885F80839B968D919C919C970897D9011B
S2840074808D939C93F301C080D180D6012C912C7F2F7E2C93F801818D928D237F883F9F4F10F02860D6012C93F60180818F7D8083D8019D969C9192FD03C08F7B808322C08064F6018083D70118962C911897207F216018962C93C8012983B0DD29812F70882341F08091E5198295807F822BF701808708C0809110188295807F822BD701FB
S28400750018968C93C8019ADDF60190818823A1F0906890839091E01980858C7F911106C0816080878091E319818709C0826080878091E019818703C09F77F6019083D80193968C919397F601818396968D919C9197979383828394968D919C9195979583848398968C918683C80168DD882331F08091E419D60117968C9308C08091DA0915
S28400758091E0980F9093DA09F6018783C7010996C6DE80E00F90DF91CF911F910F91FF90EF90DF90CF90BF90AF909F907F906F900895E091F319F091F419BF0180819181B5CEE2EDF9E1F093A319E093A21992E090939E1920914519309146193093A01920939F199BE09093A1191092A6191092A71991E09093A8199093A9191092AA1966
S28400760027E43DE33093AD192093AC199093AB199081907892609068908390914C199093D31920914819309149193093D5192093D41920914A1930914B193093D7192093D619909147199093D81990914D199093D91992E09093DA19909143199093DB19909144199093DC199091DD199093BB1910923E1910923F19109240191092411958
S2840076808093371987E599E14ACEA4E0B0E0EBE4FBE30C9480FB182FBE016F5F7F4F8AE190E06BDC2091C8093091C9094091CA095091CB09A12FB0E00E94B3FA09811A812B813C81600F711F821F931F2496E4E00C949CFB0F931F93CF93DF93EC018C0107551109FC013C970190F081E02D6FEF818192810E94078E882361F0FE0132976D
S28400770084E599E39183808323971882C8010E94D89602C0CE01C8DDDF91CF911F910F91089564E379E180E191E027DC65E379E18EE092E000DC809135199091361920E030913419231748F4FC0133E2239FE00DF11D112410822F5FF3CF6DE279E18FE091E00BDC62E379E18DE092E0E4DB20912D19E0913219F091331980E0821739F08C
S28400778097819E7F97838F5FE459FF4FF7CF9091341990932E1980932F1910923019109231196FED79E188E291E0E7DB6DE379E189E291E0E2DB6CE379E188E191E0DDDB80913C19882351F068E379E18FE092E0B2DB65EF79E180E192E0ADDB30913C1920913D198091381990913919329F800D911D112490933B1980933A1910923719AB
S284007800089564EE79E082E192E095DB63EE79E087E191E0B2DB8091E309E091E409F091E509882349F0309739F489E294E490935F0B80935E0B40C99F0146E1849F200D311D1124C90128EAE817F90718F4258B7696FACF08951F93CF93DF93EC01162F0097B1F08D819E81892B91F083EB99E07DD81F83ED81FE81CE01079619958091E4
S284007880B3099091B409892B59F080E0F1DB08C08BE694E490935F0B80935E0B25D9E6CFDF91CF911F910895A1E1B0E0EAE5FCE30C9472FB8C01262E29873A874B875C870E94AFE3E091CC0929853A854B855C85EE2361F130902D19C090CF09D090D009E090D109F090D2092B013C014C185D086E087F084D825E826F827886E0913219D2
S284007900F0913319198A66246A94762C430169827A828B829C8246015701861A970AA80AB90A8D869E86AF86B88A0BC008E91DE3A3C0A781A0FD09C0A989AF5FA98BE459FF4FB989B311F5CF40C0B085BF70B23099F7AA7FA23081F783809480A580B68081149104A104B10439F3E017F10721F34D805E806F807884481459046A047B04EF
S28400798068F44D845E846F847888840C951CA61CB71C83829482A582B68204C0138214821582168283809480A580B68049805A806B807C8084149504A604B70408F0BCCF89829A82AB82BC82B7CF211046C080903E1990903F19A0904019B090411981149104A104B104C9F12B013C014C185D086E087F08481459046A047B0488F4C80C49
S284007A00D91CEA1CFB1CC61AD70AE80AF90AC0923E19D0923F19E0924019F092411908C010923E1910923F19109240191092411980913E1990913F19A0914019B091411949805A806B807C8084159505A605B70520F489839A83AB83BC8389819A81AB81BC81281739074A075B0710F4DA01C90108E91DE39C01AD0161E08CEC99E08DD96C
S284007A808CEC99E077D96196E2E10C948EFB8091C30981508093C30980913719833009F43CC0823039F082E594E490935F0B80935E0B1AD8E091DE19EE2379F181E080933719A0911118B0E011972AE030E00E94ADFA9B01AC018091C4099091C509A091C609B091C709280F391F4A1F5B1FA0911018B0E00E94B3FA9B01AC0160933E190E
S284007B0070933F198093401990934119E150E093DE1961E080E090E0C7CE1092371910923E1910923F1910924019109241190895A4E0B0E0EEE9FDE30C947AFB2FEF3FEFA90110E0AA24AA94B12C80912D19181708F054C0E0913219F09133198CE6189FE00DF11D1124678160FF46C07085872F8F70823009F040C0862F8A7F8230E1F5F7
S284007B8083819481A581B681C090D309D090D409E090D509F090D6098C199D09AE09BF0983839483A583B6830097A105B105E9F4872F807F846080876E7F663059F4C5010090111802C0880F991F0A94E2F780958093E21981E029833A834B835C8348DA29813A814B815C8107C082179307A407B50710F49C01AD011F5FA7CF80913E198F
S284007C0090913F19A0914019B09141190097A105B10551F1C090D309D090D409E090D509F090D6098C199D09AE09BF0980933E1990933F19A0934019B09341190097A105B10559F482E029833A834B835C83B9DC29813A814B815C8107C082179307A407B50710F49C01AD012F3FEFEF3E074E075E0751F008E91DE361E08CEC99E08DD81F
S284007C808CEC99E077D803C08CEC99E07DD82496EAE00C9496FBA0E0B0E0E1E5FEE30C9479FB8C01962EC091E409D091E5098091E3096E0196E1899FC00CD11C1124F8018589811109C07E01F6E1EF0EF11C58018CE0A80EB11C09C085E294E432C08A3A89F06696F6E1EF0EF11CF801CC15DD0508F04AC0908521853285F7013197808130
S284007D00843A69F7F7013E9780819813EACF89859A852817390729F748E050E0B801CE010E94D0FD892BE9F6F8018385F7013B9790818913D6CF813059F0833091F086E294E490935F0B80935E0B0E945C351DC0F801248535858C859D852817390709F617C0F8019489F701329780819813B9CF48E050E0BE01645F7F4FC5010E94D0FDF0
S284007D80892B09F0AECF04C0958A80E090E001C0CE01CDB7DEB7EBE00C9495FBCF93DF93EC010097B1F18AEA8D8B0E94E15648E050E0BC01CE010E94D0FD892B51F582E88D8B888581508E3F20F58B858330C9F48C8981508E3FE8F42C853D854E855F85688979898A899B89A0E00E94DDFB71F480E194E490935F0B80935E0B0E945C3538
S284007E0008C0813019F086EA8D8B03C01D8A81E001C080E0DF91CF910895CF93DF93EC01009761F169AB4115510551F0FA0140815181628173814AAB5BAB6CAB7DAB04C01AAA1BAA1CAA1DAAEFA5F8A9309749F484E594E490935F0B80935E0B0E945C350DC0CE01C1961995CE01E8D8882331F01092F4191092F31981E0FAD8DF91CF91C4
S284007E800895A1E0B0E0E7E4FFE30C9480FB8C01FC012081318180913519909136192817390740F487E494E490935F0B80935E0B0E947435F801808191812091351930913619821B930B63E270E00E9433FA80912E19681750F088E494E490935F0B80935E0B69830E94743569818091351990913619F3E26F9F800D911D11242196E4E0F5
S284007F000C949CFBFC0120814597211107C0BC0181EE99E00E94F23481E0AAC840E050E069EA7BCFA3E0B0E0E8E9FFE30C9480FB8C01675F7F4F7A836983BE016D5F7F4F8EE090E01AD88B81D80199965C9199974091DA09882309F442C089819A81FC01E95BFF4F21E0208359962D913C915A973196318320833296585F50839B96ED91A0
S284007F80FC919C979C01255B3F4F3897D901ED93FC938FEF8183D80196968D919C9197979383828394968D919C9195979583848398968C91868381E0840F8093DA094783D901ED91FC918081807888608F778083E981FA81EB5AFF4F84E599E344C089819A81FC01E95BFF4F22E0208331962DEF3FEF318320833296575F5083D8019B962A
S284008000ED91FC919C979C01255B3F4F3997D901ED93FC93D80159968D919C915A979283818396968D919C9197979483838394968D919C9195979683858398968C91878381E0840F8093DA094087D901ED91FC91808180788C608F778083E981FA81EB5AFF4F8AE69BE391838083E981FA81D8019E968C919E97E15BFF4F8083E981FA81AC
S284008080E05BFF4F80910F188083E981FA81EF5AFF4F9D968C918095881F8827881F8083E981FA81EE5AFF4F81E08083E981FA81ED5AFF4F8083E981FA81EC5AFF4F808389819A812CD980E02396E4E00C949CFBDC01ED91FC919093F4198093F3191092E0191092E119809110188093E5192091DF1930E081A592A5B9010E9433FA462FF4
S2840081006093E31981A592A5B9010E9433FA892B19F04F5F4093E3198FEF90E00090111802C0880F991F0A94E2F780958E7F8093E2198091DA0991E0980F9093DA098093E4190895A0E0B0E0E8EAF0E40C9479FBEC016B01942E59010091E4091091E5098091E309780196E1899FE00CF11C1124209761F0C017D107F0F583E294E49093A2
S2840081805F0B80935E0B0E94743535C0E801CE01801B910B66E170E00E9433FA892B79F084E294E490935F0B80935E0B0E94743506C01D89143A39F01A3A29F06696CE15DF05B8F313C088859812F8CF89859A85C816D90699F748E050E0B501CE010E94D0FD892B59F7143A49F703C080E090E004C0CE0102C06696CACFCDB7DEB7EBE0E8
S2840082000C9495FB4F925F927F928F929F92AF92BF92CF92DF92EF92FF920F931F93CF93DF931F92CDB7DEB72C017B010E94E1566C0157018AE6A80EB11CF501008111814114510431F0E114F10419F0C114D10451F484E194E490935F0B80935E0B0E945C3588EA5EC058EAF20166A177A1960140A5C801598366DF8C015981009709F4DE
S2840082804FC0F20186899789892B19F5F8017384F3E07F121EC048018CE0880E911CC4010E94BAC6892BA9F4F2017286D2011D9688E0F40101900D928A95E1F782EA91E4F201978B868BC20106960E94AFC680E028C0F50111830083F80183858330B1F4C8010C960E94BAC6009711F459EABCCFF8012489F20123A3FC0180819181F201AB
S284008300928F818FB701C20111D80BC0F80184859585F201928F818FB701C20103DE01C0852F0F90DF91CF911F910F91FF90EF90DF90CF90BF90AF909F908F907F905F904F900895FF920F931F93CF93DF938C010551110920912D19C0913219D0913319F12CF216E9F08F8180FF16C0888199818017910789F4BE01C80144DF882381F0A7
S28400838040E050E0682FC80148DDCE010E94503881E00E94383804C0F394C459DF4FE1CF80912D19F81640F085E194E490935F0B80935E0B0E947435CDB7DEB7E5E00C949BFBEF92FF921F93CF93DF931F921F92CDB7DEB77B010097A1F06115710589F0FC01178A168AF701E659FF4F11821082B70108DF182F882389F0C7010E94503816
S2840084000DC023E134E430935F0B20935E0B89839A830E94743589819A81E2CF812F0F900F90DF91CF911F91FF90EF900895A1E0B0E0EDE1F2E40C947EFB8C01262FDC01ED90FC90009709F444C0E114F10409F440C02E3C61F0822F8F7D803D41F0213D11F082E005C0F70185A587FFFACF83E0F801EB59FF4F4081518162817381D701C0
S284008480D2964D935D936D937C93D597D1962C93833071F0D801ED91FC91808D811108C0F701178A168AB801C701ACDE883AE1F4A7014E5C5F4FD701D1966C91F80180819181ABDCC8010E94503881E00E9438380BC08FE494E490935F0B80935E0B29830E9474352981B5CF2196E6E00C949AFBCF93DF93EC0152DC882309F454C060E0AE
S284008500CE01C9DB892BC1F5209709F43EC08D8981113BC05091E3092091E4093091E50940E0451781F0C9012A5E3F4FF90131976081683A31F424EAFC01258B009731F432C04F5FEECF8EEA8D8B2DC0209719F03D89332349F087E294E490935F0B80935E0B0E945C351AC036E1FE01DC0101900D923A95E1F706C066EACE018CDB009769
S28400858091F024EAFC01258B09C080E294E490935F0B80935E0B0E947435BCCF60E070E080E10E94B233DF91CF910895CF93DF93EC010097D9F08091E4099091E509C817D907A0F02091E30936E1239F800D911D1124C817D90750F48D89843A11F08A3A71F488EA8D8BDF91CF91089581E294E490935F0B80935E0B0E947435EDCF82E229
S28400860094E490935F0B80935E0B0E947435E9CFCF93DF93EC01C2DB882359F064EACE013ADB009731F0C2DF60E070E080E10E94B233DF91CF9108952091E4093091E509009751F0FC0176968091E30996E1899F200D311D112408C0F901F6CF8589843A49F08A3A39F07696E217F307B8F380E090E00895CF010895CF93DF93EC01BC01BA
S28400868081EE99E00E94F2341F8A1E8A81E00E943838DF91CF910895CF93DF93EC01BC018FED99E00E94F2341B8A1A8A81E00E943838DF91CF910895AAE0B0E0E2E6F3E40C9478FB10915018BE01665F7F4F87E091E00E94BD37BE016F5F7F4F8AE190E00E94BD37C980DA80EB80FC80812F90E0A0E0B0E08C159D05AE05BF0578F0CC0C1B
S284008700DD1CEE1CFF1CC982DA82EB82FC82BE016F5F7F4F8AE190E00E94F537C12ED12C87E0C80ED11CEE24D7FCE094FE2CC092C809D092C909E092CA09F092CB092A8530E0A3E0B0E00E949EFA9B01AC01C701B6010E9418FA09811A812B813C81600F711F821F931F6093C4097093C5098093C6099093C70981E08887BE01675F7F4F24
S28400878087E091E00E94BD37BE01685F7F4F84E290E00E94BD37898590E0A0E0B0E0880F991FAA1FBB1F8F3F9105A105B10529F020F08FEF90E0A0E0B0E00E94453BE885EE2309F45AC0812C912C54018B019C0101501E4F2F4F3F4F800E911EA21EB31E660F771F881F991FE15081F718867501640129E0F694E794D794C7942A95D1F7C1
S284008800D501C4019170AA27BB2741E050E060E070E0892B8A2B8B2B19F440E050E0BA01C40ED51EE61EF71E1E821D821F82BE01695F7F4F81E191E00E94BD37BE016B5F7F4F88E092E00E949B37970186010F3F11052105310529F020F00FEF10E020E030E06D817E81C12CEE24E39420E032E04F8185EB99E00E948C352A96ECE00C94A8
S28400888094FB882331F00E94B9FD8093DA091092C3091092E2091092E1091092E0091092DF091092DE091092DD091092DC091092DB098AE090E0A0E0B0E08093EC199093ED19A093EE19B093EF1989ED9AE39093F2198093F11981E08093F0191092441910924D19109242191092491910924819109243191092471910924B1910924A198F
S284008900109246191092451910924C191092371910923E1910923F1910924019109241198CE6EEE4F9E1DF011D928A95E9F783E2EAEBF9E1DF011D928A95E9F780913D1990E0019620913C19289FA001299F500D112460E070E080913819909139190E94F7FD82ED99E19093A3198093A219A4CE4F925F927F928F929F92AF92BF92CF925F
S284008980DF92EF92FF920F931F93CF93DF931F92CDB7DEB77C01009781F02C0127E0421A51088091B3099091B4098415950529F4D20112968C91893149F086E694E490935F0B80935E0B0E945C35CBC08091AF099091B0098115B7E09B0709F07FC00091E1091091E2090115110551F081EE99E00E94B63440E050E063EAC8010EDAEFCFC0
S284008A006CE6C62ED12C7CE6772EE2E4AE2EE4E4BE2EF3E48F2EF4E49F2E0091DD091091DE090115110509F444C0B8018DED99E00E94C2348091321990913319F801E81BF90BCF01B6010E9433FA80912D19681740F0B0925F0BA0925E0B69830E9474356981E0913219F0913319679DE00DF11D1124808191812781269530E02130310551
S284008A8061F02230310549F2232B61F4A8014B5F5F4FD80112966C9103C040E050E067EABCD9BBCF90925F0B80925E0B0E947435B4CF10E080912D191817D8F48091321990913319BCE61B9F800D911D1124FC01278120FD0E9450381F5FECCF8115924041F087E694E490935F0B80935E0B0E9474351092B2091092B10981E0C2DE0E94B9
S284008B00913B0E94013C82E393E09093B0098093AF09D7018C91F201828783EB99E00E94B634D20118968D919C911997892B41F489E694E490935F0B80935E0B0E947435D2011896ED91FC911997C701039619958091B3099091B409892B19F080E00E9438380F90DF91CF911F910F91FF90EF90DF90CF90BF90AF909F908F907F905F9028
S284008B804F900895CF93DF93C091B309D091B409209741F484E694E490935F0B80935E0B0E9474358A818A38F9F0853C09F44FC0893109F06CC08091AF099091B0098031914019F480E092E002C080E097E09093B0098093AF0988EB94E49E838D83CE0103960E94C5AD5BC08091AF099091B009823323E0920719F08031964049F48FE347
S284008C0094E09093B0098093AF0956DD1D8202C083EA8D8383EB99E00E94B6348B819C81892B41F48AE694E490935F0B80935E0B0E947435EB81FC81CE01059619958091B3099091B409892B51F180E018C08091AF099091B0098F339440A1F480E095E09093B0098093AF0982E090E09C838B838CEC99E00E94C4361092C30981E00E94E1
S284008C8038380DC063EACE010E942B3C08C085E694E490935F0B80935E0B0E947435DF91CF910895AAE0B0E0E8E5F6E40C9482FBDC011396ED91FC9114972181328140E450E05A834983AE01495F5F4F5C834B8341E050E05E834D836F3FBFEF7B0719F437FF15C003C02617370789F098878F837A876987BE016F5F7F4F8EE10E94B23361
S284008D0081E02D813E81232B19F080E001C081E02A96E2E00C949EFB009729F48091C1099091C2090895FC01808191810895CF93C82FE0E0F0E0CF01EFDFFC01009739F0A381B4818C91C813F6CFCF0102C080E090E0CF910895CF93DF93EC010097D9F086EA8F83EB81FC813097A9F080819FEF980F903F80F4DBDF892B69F421E08D81CF
S284008D809E81892B09F020E02A83BE0181EC99E00E94F2341F82DF91CF910895DF92EF92FF920F931F93CF93DF938C01009741F480E394E490935F0B80935E0B0E947435C0E0D0E0A1E3EA2EA4E4FA2ECE01A4DFEC01009789F18A818111F8CF8B819C81892B31F4F0925F0BE0925E0B0E947435F80160A171A1CE0155DF882339F3EB8191
S284008E00FC81D0806D2DF801878190850E94078E8823E1F2F801D18AED81FE81309749F482E394E490935F0B80935E0B0E945C3503C0C8011995CACFCDB7DEB7E7E00C9499FBA1E3B0E0E7E2F7E40C9478FB8C01B62EDC015C96ED90FC905D9757966D917C915897F701478185EB99E00E94BE35882309F414C1D70111968C919FEF980FFB
S284008E809E3F28F454DF6C01009719F408C1C12CD12CF801248985899689213009F022E02F8399878887D70111968C918A8BF8018789908D0E94BDC6FC01009799F083E08B8B708161815281438134812581968187817E8B6F8B588F498F3A8F2B8F9C8F8D8F02C082E08B8BD80157968D919C9158979D8B8C8B59968D919C915A979F8FA9
S284008F008E8FF701868188A3848195819AA389A3828193819CA38BA35B968C9190E09C012A5031093EA32DA319A6208127FD04C09C012850310906C02085237029F49C01295031093EA32DA32DA13EA1821B930BF801248D358D280F391F38A72FA3BAA684A18BA7868D8CA740A151A162A173A14DA75EA76FA778AB878D89ABD7018C9180
S284008F8087FF48C018968C918370823009F042C0E0913A19F0913B19808190E09EA38DA38080912CAA24A394B12C2091421930E08091381990913919A216B3064CF5E0913A19F0913B19EA0DFB1D408150E020913D192A9DB0012B9D700D1124680F791F880D991D0E94DDFDE0913A19F0913B19EA0DFB1D20818DA19EA1820F911D9EA318
S2840090008DA3BFEFAB1ABB0A8081880E911CCDCF98A78FA3C114D10449F0D6011596ED91FC911697CE010196199539C0F8018489813021F4CE010196B1DE31C0D70111968C918F3F41F5E12CF12CC70165DE7C01009729F1D7011396ED91FC9114978081882399F312968C918111EFCF69A17AA1C70118DE882349F3D7011396ED91FC9179
S284009080149780818A8B1596ED91FC911697CE0101961995DACFCE0101960E9431CEC8010E94B738E196ECE00C9494FBA1E0B0E0ECE5F8E40C947AFB5C01DC015C960D911C915D97F80181812FEF280F2E3F80F429832DDE7C012981009751F0D80114966D917C911597DEDD882309F405C105C02E3F08F401C1E12CF12CF801808187FF95
S28400910004C09085937009F0F7C086FFF7C08C70883009F4F1C0D50157968D919C915897883FBFEF9B0708F0E7C0E114F10421F0F70122812111E0C0D5015C960D911C915D97F801208126FD02C090E0D2C02370213009F027E0F0902D19E0913219F091331930E0422F50E0B801640F751F3F15E9F0A781A530B1F4DF01AF5ABF4F0D9016
S284009180BC91A02D8A179B0769F4DF01AC5ABF4FCD90DC90C40ED51EDB01EC90D601DC90ED1499F23F5FE459FF4FE1CF82E029830E94CE382981009741F2FC01EC5AFF4F0190F081E02DDF0158973FEA11963C9311971396BC92AE92129762E0DC01A05BBF4F6C93D50157964D915C915897DC01AF5ABF4F11965C934E9317961C9211965D
S2840092001C9231E011963C9311963C9311961C9244E559E3129611965C934E9311973C9330813C7F32603083D8014C914C70337F342B30834C914295417040FB34F93E7D3F7B30834C9147FB442740F940FB37F930834C9130E0DC01AD5ABF4F7D0144FF0DC0D5015C964D915C915D97420F531FDA012C912183F701608337C048E04C9365
S284009280D80116964C911697418312964D915C9113975383428314964D915C9115975583448311964C914683D5015C964D915C915D97420F531FDA012C912783D8012C9127FF13C018962C91237031F41086F70120812F5F208309C0D7012C912D5F2C93D80118962C912370208709960E948F3991E081E08927A1C190E001C091E0F80184
S284009300808187FF92C18085837009F48EC1D5015C960D911C915D975B968C91F801F18420913C19222309F487C196EFE92EE80E80913719813009F456C030F0843008F06BC180E494E46AC1D084B1E0DB1274C12F1508F471C180913D198E1508F46CC190E00196289FA001299F500D112460E070E080913819909139190E94F7FD8FEA18
S2840093808093DD19D0923719F0924219F5018789908D9093461980934519D80111968C9111978093471912968D919C911397909349198093481914968D919C91159790934B1980934A1916968C91169780934C1917968C9180934D19809110188093DE1910924319F12CF8018085982F9370923011F0F11021C18C7F09F01EC18091421982
S2840094008F1508F419C12091451930914619D50157968D919C9158972817390709F00CC190914719F8018181981306C12091481930914919828193812817390709F0FCC020914A1930914B19848195812817390709F0F2C090914C1986819813EDC090914D1987819813E8C020914319409111180F2D10E0822F90E0840F911D0817190775
S2840094800CF0DAC08F2D642F0E9427FAD92EF21668F48F2D891B8093431921E030E001C0220F4A95EAF721952093441920913D1980913819909139194E2D50E0D5015C966D917C915D97665F7F4FF29E800D911D11240E94DDFDE0913A19F0913B19E00FF11FE08270914319209142197F1111C090911118822F8F19981708F4892F41E0B4
S28400950050E0082E01C0440F0A94EAF741954093441941E050E00D2C01C0440F0A94EAF760914419642B609344196F3F79F4FF24FA94F70E822F90E04091111850E0871B9109481759070CF4CA01F80E8F2D90E030E0215031098217930751F46F3F21F483E00E94E13A63C082E00E94E13A64C0A0911118B0E011979D01270F311D8217C0
S284009580930711F06F3F09F582E00E94E13A809144198F3F09F050C08091111890914319980F909343192091421921502F19821708F4282F81E090E0022E01C0880F0A94EAF781958093441937C02AE030E00E94ADFA9B01AC018091C4099091C509A091C609B091C709280F391F4A1F5B1FA0911018B0E00E94B3FA9B01AC0160933E1911
S28400960070933F19809340199093411961E080E090E00E94543C10C083E594E490935F0B80935E0B0E94743507C0992329F06FEAC50107DC80E001C081E02196EAE00C9496FBA4E3B0E0E7E2FBE40C9472FBC090AF09D090B00920E1C21621E0D20609F46CC12EE4222E24E4322EAA24A394B12C8DED99E00E94B6347C01009709F45DC165
S2840096800091321910913319C701801B910B6CE670E00E9433FA80912D19681748F089E494E490935F0B80935E0B0E945C3545C13CE6639F000D111D1124D80117968C91B0E1CB16B6E0DB0621F0C114E5E0DE0699F58E7F843019F5C8018C5A9F4F0E94413F4C01DC0111966C91119712968D919C911397892B51F4EAE4F4E4F0935F0B8D
S284009700E0935E0B6CAB0E9474356CA9D70112968C91811104C0F4018281938192DBA7014B5F5F4F63EAD8018D919C910E940D3FC7010E9450389CCF8695482E512CB1E04B165104B1F054F4452809F0EFC0D70112966C91C8010E9417428ACFF2E04F16510409F4BCC023E04216510409F47CC0DDC0F80180858F70813009F079CF808002
S2840097809180D70119968C910E94453B9B01AC01A0911018F801808582958F70A81BC20102C0880F991FAA95E2F7DC010E94BDFA2B013C01D70112966C91611115C043825482658276820E94B9FD9170B301A201480F591F611D711DD80113964D935D936D937C9316972EC06E3C51F0603F41F0603D31F0613D89F4F40195A597FF0DC09E
S284009800A7014B5F5F4FC4010E940D3FC7010E94503881E00E94383890C0D80113964D925D926D927C9216970E94B9FD9170B301A201480F591F611D711DF8014383548365837683D80118968C911897807F826018968C93189713962D913D914D915C91169760E0C80104C2F80180858F70813009F0FECE2091E01930E08091E31990E099
S28400988001972817390709F4B5C1E09111187091E219272F30E080E090E0682F8E1708F0A9C10196A901062E02C0559547950A94E2F740FFF2CFC501062E01C0880F0A94EAF7809587238093E2198091E119860F8093E01986EE99E10E94B3E7C9CEC8018C5A9F4F0E94413F8C01DC0111966C91119712968D919C911397892B51F4EDE414
S284009900F4E4F0935F0BE0935E0B6CAB0E9474356CA9D80112968D919C91139792DAC7010E94503881E00E943838A2CE30925F0B20925E0B0E9474359BCE1BAA1AAAA7E84A2EA9E35A2EBFEA2B2E13E0312EAA24A394B12C66246A94712C95E4892E94E4992E8FED99E00E94B6348C01C090AF09D090B009009751F1F80182899389892BCE
S28400998009F079C1048CF58DE02D80818370813009F071C18281853009F46DC1D80157968D919C9158970E94BDC6892B09F063C122E0F80126838789908D90878783538A428AC80102960E94AFC6CBCFC1FE11C050E5C52E54E4D52E62E0462E72E1A72E74E4B72EE8E05E2EF2E88F2EFFE39F2E3BC00091E1091091E2090115110509F4E7
S284009A0058C0B80181EE99E00E94C23440E050E063EAC8010E940D3FECCF808D833081F57801FBE1EF0EF11CC7010E94BAC6892B39F5D8011D96F701852D01900D928A95E1F7D80158968C9158971A968C931A9757969C928E925697C80106960E94AFC681EE99E00E94B6340091E1091091E20901151105F1F0F80186899789892B69F20D
S284009A808091F3199091F419892B09F4BEC2C8010E941E38882309F4B8C2C8010E941E38882309F4B2C2F8010081118101151105A1F78091AF099091B0098115B5E09B0721F08031F6E09F0769F5F12C0EC02CE6F29E80011124E0913219F0913319E00FF11F8781833031F0F39480912D19F81670F320C080858F70843011F08230A1F770
S284009B0040E050E063EA808191810E940D3F8091321990913319800F911F805A9F4F0E945038E2CF8F33944029F4F12C80912D19F81648F08091AF099091B0098115954009F080C351C000913219109133198CE6F89E000D111D1124D80117968C91179780FF40C018969C911897292F2F702430C9F5282F2A7F2230A9F5907F79F19160D1
S284009B80905118969C938E7F823071F4C80109960E948F39F801238134814581568160E0C8010E94543C1EC08630E1F48091E2198E7F8093E2198091E1198093E0198091E51981508093E519E091F319F091F419BF01808191810E94963904C067EAC8010E941742F394A2CF8091C309882309F4AAC228C3F70181850E94453B9B01AC0185
S284009C00A0911018F801808582958F70A81BC50102C0880F991FAA95E2F7DC010E94BDFA2B013C010091F3191091F4190E94B9FD9170B301A201480F591F611D711DD80113964D935D936D937C931697E091F319F091F4198085807F826080878091F3199091F419FC01238134814581568160E00E94543CFDCCD8015C96ED90FC905D9704
S284009C80BFE3CB16B4E0DB0669F0D7018C918370813041F0F80185A1811104C0C8010E94B738A4C1D7014C91642F607446FF11C05091301920912D1930E08091311990E0850F911D821793074CF780912E19581728F7242F2C70243009F3662331F0842F83708230D9F243FDD9CF45FDD7CFF801D488F1E0DF1671F032E0D312CFCF4370A4
S284009D00842F90E0009721F0029709F47AC0C6CF2C3031F0C801CAD9882309F467C1BECFD80157966D917C915897F701408585EB99E00E94BE35882309F4B0CFD8015B968C91893008F4AACFB1E0BF83F7018181928199878887D80157968D919C9158970E94BDC6FC01009791F03B8A708161815281438134812581968187817E8B6F8B3C
S284009D80588F498F3A8F2B8F9C8F8D8F01C0DB8AF8018789908D9D8B8C8B818D928D9F8F8E8FD70117968C91179788A315968D919C9116979AA389A313968D919C9114979CA38BA3838D90E009979EA38DA3848D958D099698A78FA319A62AA684A18BA7868D8CA780A191A1A2A1B3A18DA79EA7AFA7B8AB878D89ABCE0101960E94CE46BF
S284009E004DCF423031F090925F0B80925E0B0E947435C0903219D090331980912D19F6012CE6829FE00DF11D1124CF01C816D90608F034CFD60117966C91179760FFD2C018962C9118972F70223009F0CBC0F601EC5AFF4F0190F081E02D2D913C91D80157964D915C915897D90159962D913C915A974217530709F0B5C0D70117963C9150
S284009E80179727813213AEC014964D915C911597248135814217530709F0A4C012964D915C911397228133814217530709F09AC011963C9111972681321394C016963C91218132138FC06E7F623031F4F6018085807F836080873FC0663009F083C0D70119969C9119978091E1199813D7CE60911118262F30E0C501062E01C0880F0A94BB
S284009F00EAF781951A969C911A97982B1A969C931A97F6018085807F836080871A96EC91EF3F99F54091E31950E07091E119E70FCA01871B9109281739070CF4C9018E0F8093E01990E0415051098417950741F4C6010E94684060E0C6010E9417429ECE760F7093E119809110188093E5197093E019930102C0220F331F6A95E2F7B901D6
S284009F8060956E7F6093E21923C0E095E093E21980E090E02E2F30E0782F8617C8F40196A901072E02C0559547950A94E2F740FFF3CFC501072E01C0880F0A94EAF780958E238093E2198091E119870F8093E019E091F319F091F419BF01808191810E9496395CCE3CE6C30ED11C20CFD8015E968C915E978AAB5F968C918BABBE016E5C93
S28400A0007F4F8BE30E94B233ACCCC8010E941E38882361F08091F5199091F619892B09F4BDC0D8019D968C9182FFB8C0F80181A592A58536910518F085A583FFB1C0D80198963C90332031F0832D0E949746892B09F448C0F80185A5208D382F347082FF0AC0223031F4818D928D883F9F4FD0F502C02130B9F18EEF820F823038F4D80183
S28400A08093968C91815F8E3068F18CC021118AC0332309F487C0F80166A077A092D67C01009719F080E090E00CC0B0925F0BA0925E0B0E945C3576C0DC011B962C91213089F09701432DB3010E94A2400097A1F769C0813008F475C0823009F49AC0833009F48AC026EAE12CF12C612C712CB80181EE99E02CAB0E94C2342CA921111CC0EC
S28400A100E114F10431F4D0925F0BC0925E0B0E947435F30111830083C8010E941E38882319F0C3010E946840B301C801F7011995282F882309F498CC40E050E0622FC8010E940D3F91CC0091B3091091B409F8018281853C41F08DE694E490935F0B80935E0B0E947435D80113968D919C9114978D7F14969C938E931397892B09F062C021
S28400A18080E00E94414480E196E09093B0098093AF0960E0C8010E942B3C54C02AEAA3CF20EAA1CFD80158968C91813009F091CF80E00E94CE383C0132E9E32E3FE3F32E0DC0C8010E941E38882371F083E00E94CE383C0141EEE42E41E4F42E6114710409F467CC20E083CFF80185A582FF02C081E0EDCF80E0EBCFC8014B960E94BAC64E
S28400A2000097F1F0DC018D919C91F801928F818F408EC8010E941E38882311F083E008C0D8019D968C9182FF02C081E001C080E00E94CE383C0126E9E22E29E3F22ECECF29EA51CFE496E2E10C948EFBAFE1B0E0ECE2F1E50C947FFB009749F485E495E490935F0B80935E0B0E945C3582C0FC012081233009F07DC0218132813A8329835E
S28400A28028E03396DE01139601900D922A95E1F7FC0123852B87248535853D872C8728E03E96DE011E9601900D922A95E1F7FC01218D2D8F238D2E8F0789108DF688F6E0FF1508F056C0F8018081982F9370933009F04FC0807E09F04CC08181811149C0BE01615E7F4F85E190E00E94BD37F801208126952695277030E08F8D90E02817F2
S28400A3003907B9F58281982F9370933091F5982F907F79F58C708C3091F481E08B87F8E0FF1538F5F801838194819F878E876FEF0E94078E8823E9F0F80129E003C0F801329727E085819681998F888F878190859F8B8E8BF21AFA8E020F111D1C8F0B8FE091BF09F091C009309719F0CE01019619956F96E5E00C949BFB80E191E09093A3
S28400A380B0098093AF091092B4091092B3091092B2091092B1091092C2091092C1090E94913B0C94E4ADCF93DF93EC0161EC73E085E20E94313461EC73E088E30E943134209749F480E694E490935F0B80935E0B0E945C3505C089E18A83CE010E945F39DF91CF910895009741F481E694E490935F0B80935E0B0C945C352AE8FC012283AC
S28400A4000C945F39009741F482E694E490935F0B80935E0B0C945C3525ECFC0122830C945F39CF9330913419809135199091361920E0231751F08396FC01B3974081442311F081E029C02F5FF4CFC0E080912D19C817E0F40E94AC339CE6C99F900111244091321950913319FA01E20FF31F882341F0878180FF08C080858F70823021F0DC
S28400A480E0CF878180FDDDCFCF5FE0CF81E090913719911101C080E0CF9108951F93CF93DF93EB01853239F41881BBDF91E09827912398831FC08833E9F4388140912D19E0913219F091331980E0841771F0278120FF07C090859F70923019F42A7F223031F08F5FE459FF4FF0CF80E001C081E0832B8883DF91CF911F910895FC01808129
S28400A50084FD0C94013C0895A2E0B0E0EAE8F2E50C9482FBE091B109F091B2092F2F30E09E2F9F5F983008F090E0692F70E0A901092E02C0569547950A94E2F740FF26C09093B10981E090E0062E01C0880F0A94EAF78F278093B209660F771F6551744B42E050E0CE0101960E94C7FD89819A81892B41F480E094E490935F0B80935E0B7B
S28400A5800E947435E981FA81199504C0E913C9CFE093B1098091B209882361F02FB7F8948091AD099091AE0980629093AE098093AD092FBF2296E2E00C949EFB80915918853091F028F4882349F0823069F004C0843141F0863141F080E00895809152188B3010F488E0089582E00895833014F083E01BC096E0980F923010F48BEF15C03D
S28400A60098E0980F923010F489EF0FC09AE0980F923010F487EF09C09EE0980F943010F484EF03C0823F0CF48FEE809357180895C5DF282F220F220F280F30E0A90160E8869F400D511D1124CA010895809159188530E9F028F4882349F0823079F004C0843189F0863189F080E0089580915218882349F08B3058F489E1089580915218BE
S28400A680811105C002C082E3089588E2089580E10895CF93DF93EC01D9DFE82F9E01A0ECB3E00E949EFA9B01AC01AE2FB0E00E94B3FA28EE33E040E050E00E945AFACA01B901DF91CF910895CF93DF93B1DFEC01BDDF282F2C9FC0012D9F900D1124BC0180E090E028EE33E040E050E00E945AFA2F5F20935018DF91CF910895CF93DF93F3
S28400A7008BE08093521880E098EFAFEFB7E08093531890935418A0935518B093561867E578E183E090E00E94BD37809157185EDF67E578E183E090E00E94F5371092591877DF90935B1880935A1838DF94E0899F800D112480935C1831DF80935D1886E390E0A0E0B0E08093251890932618A0932718B09328181092291810922A1881E092
S28400A78080932B1810922D1810922C1810922E180E94B9FD80932F18E0E3F8E18FEF80838183828383838483858386838783CFEFDFEFD0933918C09338180E94B9FD80933A1885E080933B1884E080933C1883E080933D1880933E18D0934018C0933F1880E2809341181092421810924318D0934518C093441810924E1810924F1864DFF0
S28400A800DF91CF910895A4E0B0E0E9E0F4E50C9482FBDC014C9150E0CA01805491098534910508F0DFC08F589D4DFC010C9498FA11968C9180932A1808C011968D919C91129790932D1880932C1880E015C111968C91853308F00FC180932E18F6CF11968C9180932F18F1CF11968C9111978093301812968C9112978093311813968C9182
S28400A88013978093321814968C9114978093331815968C9115978093341816968C9116978093351817968C9117978093361818968C9180933718C9CF11968D919C9112979093391880933818C0CF11968C9180933A18BBCF11968C91863008F0CCC080933C18B3CF11968C9190913B18981708F4C2C080933E18A9CF11968D919C911297B9
S28400A9009093401880933F18A0CF11968C91809342189BCF11968D919C911297909345188093441892CF11968D919C911297B1DE69837A838B839C83BE016F5F7F4F03C0BD016F5F7F4F82E090E079C011967C91119712966C91129713965C91139714964C91149715963C91159716962C91169717969C91179718968C9170934618609338
S28400A9804718509348184093491830934A1820934B1890934C1880934D1857CF11968C918093291852CF11968C91883008F063C080933D184ACF11968C918093411845CF11968C9180933B1840CF11968C91803108F051C08093511838CF11968C9180934F1833CF4830510508F043C04A545D4DFA010C9498FA8BEF3FC011962C918091E1
S28400AA00531890915418A0915518B0915618022E04C0B695A795979587950A94D2F780FF2AC02093521823C011968C9190E2980F903408F5DBDD67E578E183E090E00E94F53703CF11968C918430A8F480935818FCCE11968C91853041F018F4833058F404C0843111F0863131F4809359182CDEECCE84EF01C088EE2496E2E00C949EFB78
S28400AA80A4E0B0E0E6E4F5E50C9474FB60903C1860913B1870E0E0913E18F0E0262D30E0CB018E1B9F0B281739070CF4C901AA2797FDA095BA2F0097A105B10521F481E090E0A0E0B0E0712CC12CD12C76018C019D01015011092109310942E0442E512C872C912CA12CB12C081519052A053B05B0F0AF01470D511D41505109520102C005
S28400AB00AA0CBB1C4A95E2F74501AA2497FCA094BA2CC80CD91CEA1CFB1C7394E1CF262D30E040E050E0281B390B4A0B5B0B61507109A2E0B0E002C0AA0FBB1F6A95E2F711970E94BDFA9B01AC012C0D3D1D4E1D5F1DA4E1B0E00E94B3FA9B01AC0169833A834B835C8364DD29813A814B815C81280F391F411D511D29833A834B835C8347
S28400AB8065DDA82FB0E029813A814B815C810E94B3FA28EE33E040E050E00E945AFACA01B9012496E0E10C9490FB50DDE82F2091411830E0A0ECB3E00E949EFA9B01AC01AE2FB0E00E94B3FA28EE33E040E050E00E945AFACA01B9010895A4E0B0E0E3EFF5E50C947CFB8C01FC01408150E0FA01E054F109E534F10508F0B2C0E254FD4DEF
S28400AC000C9498FA80912A18F801818380E0D5C080912C1890912D18C3C080912E18F4CF80912F18F1CF70913018609131185091321840913318309134182091351890913618809137185BC08091381890913918A7C080913A18D8CF80913C18D5CF80913E18D2CF80913F189091401899C080914218CACF809144189091451891C0BE019B
S28400AC806F5F7F4F82E090E00E94BD37C980DA80EB80FC80C114D104E104F10491F0D6DC282F30E0A0ECB3E00E949EFA28EE33E040E050E00E945AFAC701B6010E945AFA02C024EF31E0F801328321839FCFBC016F5F7F4F82E090E00E94BD3797CF7091461860914718509148184091491830914A1820914B1890914C1880914D18F8014C
S28400AD00718362835383448335832683978380877DCF8091291878CF80913D1875CF8091411872CFFC01118271CF8091251890912618A0912718B09128182BC080913B1863CF80915118F801818336C080914F185BCF2BDFF801618372838383948356CF4830510548F5FA01ED5FFC4D0C9498FA8091521849CF8091571846CF809158180A
S28400AD8043CF8091531890915418A0915518B0915618F80181839283A383B48337CF48DCF8019283818332CF09DCF4E08F9F800D11242ACF03DC28CF84EF2496E8E00C9498FB86E498E1089548E050E0BC0186E498E10E94D0FD21E0892B09F020E0822F0895CF92DF92EF92FF92CF936B017C01E5DBC82F2BDC2C2F30E0A82FB0E00E9456
S28400AE009EFA9B01AC01C701B6010E9418FA28EE33E040E050E00E945AFACA01B901CF91FF90EF90DF90CF9008952FB7F89480912B0A90912C0A946090932C0A80932B0A3FB7F8948091E60981110FC04FB7F8948091AD099091AE0981609093AE098093AD094FBF81E08093E6093FBF2FBF0895BC0188EE99E00E94F2348091E7098111AF
S28400AE8001C0D3CF0895FC011282F2CF21E0FC012283EECF22E0FC012283EACF23E0FC012283E6CF25E0FC0122831186108622E02783DECFA1E0B0E0E0E6F7E50C9481FB1092E9091092E8095AD11FB7F894CE0101960E94E5DC811104C082E08093E70902C01092E70910922C0A10922B0A1FBF2196E3E00C949DFBA2E0B0E0E2E8F7E565
S28400AF000C9480FB1FB7F8941092E609CE0102960E94E5DC882339F08091E7098230C9F41092E70916C081E090E00A8002C0880F991F0A94E2F78095909520912B0A30912C0A2823392330932C0A20932B0A80E001C081E01FBF8111BAC081E08093E7098A818A3029F50091E8091091E9092091CD033091CE0341E050E00115110539F441
S28400AF80CE0101960E94E5DC81114BC033C0CA01F801028002C0880F991F0A94E2F782239323892B09F065C0F80100811181E5CF90E08C30910520F7FC01E55FFC4D0C9498FAB0D214C0B7D212C02AD410C0C5D30EC05ED30CC00E946ADA09C00E94EED906C03DD104C00E9439DA01C0A5D0811127C0C6CF2FB7F8948091E60981110FC045
S28400B0003FB7F8948091AD099091AE0981609093AE098093AD093FBF81E08093E6092FBF56C08091F109811152C08091E8099091E909892B11F0F9DE4AC01092E70947C0813009F044C04FB7F89421E030E00A8002C0220F331F0A94E2F780912B0A90912C0A822B932B90932C0A80932B0A4FBF2EC0B80188EE99E00E94C234F801428196
S28400B08050E04930510508F07BCFFA01E95EFC4DC8010C9498FA97D393E002C040D394E09A83A5CF87D295E0FBCF0E9456DA96E0F7CF0E94CBD992E0F3CFB5D098E0F0CF0E9419DA99E0ECCF06D09BE0E9CF2296E4E00C949CFBCF93DF93EC0118868B819C819C01215031092F333105C8F4805C9E4F9C838B838A81873031F0883081F442
S28400B100CE010E94A0B603C0CE010E9486B6882339F0813061F4D0932A0AC093290A07C01886EE81FF81CE010896199580E08093EA09DF91CF910895CF93DF93C091290AD0912A0A8A81873031F0883041F4CE010E94A0B607C0CE010E9486B603C081E0888702C0811106C0EE81FF81CE010896199580E08093EA09DF91CF910895AEE0AA
S28400B180B0E0E5ECF8E50C9480FB0E94BAB682E088871E861D861A86198681E08F83CE0101960E94F0B98B859C850E94BCFD73D00E947EDA89D2F0D26ED30E9414DA68D00E9453DA8EE4898380913C188A83CE0101960E94B5BA8FE4898380913E188A83CE0101960E94B5BA89E5898380913D188A83CE0101960E94B5BA80E589830FEF62
S28400B2001FEF1B830A83CE0101960E94B5BA83E589831B830A83CE0101960E94B5BA2E96E4E00C949CFB1F93CF93DF93EC010E94F0B9182F882339F0813051F4D0932A0AC093290A05C0EC85FD85CE01089619951093EB09812FDF91CF911F9108951F93CF93DF93C091290AD0912A0ACE010E94F0B9182F811105C0EC85FD85CE0108966A
S28400B28019951093EB09812FDF91CF911F9108951092EB090895A2E0B0E0E1E5F9E50C9482FB61E17DE180E092E00E949B37BE016F5F7F4F80E091E00E94BD3729813A818091111D9091121D9093161D8093151D9093181D8093171D90931A1D8093191D280F391F30931C1D20931B1D1092141D1092131D6DE17DE183E292E00E949B37A6
S28400B300BE016F5F7F4F8EE291E00E94BD3729813A8180911D1D90911E1D9093221D8093211D9093241D8093231D9093261D8093251D280F391F3093281D2093271D1092201D10921F1D2296E2E00C949EFB9CE0899FF0011124EF5EF24E86819781019608959CE0899FF0011124EF5EF24E4FB7F894A681B7818C9190E001968A0F9B1F5E
S28400B380978386831C9226813781808591852817390751F484819581918780878081918195838483978386834FBF08959CE0899FF0011124EF5EF24EA681B78182819381A817B90721F081E09C91911101C080E0089581E0EBDF8823F9F080912B0A90912C0A816090932C0A80932B0A2FB7F8948091E60981110FC03FB7F8948091AD09BA
S28400B4009091AE0981609093AE098093AD093FBF81E08093E6092FBF80E0C8DF8823F9F080912B0A90912C0A826090932C0A80932B0A2FB7F8948091E60981110FC03FB7F8948091AD099091AE0981609093AE098093AD093FBF81E08093E6092FBF0895A6E3B0E0E6E3FAE50C9481FB182F6FDFFC01208130E0DC01A20FB31F12968C91B8
S28400B4802F5F3F4F2E0F3F1FD9016C91813220F4811103C081E001C080E26295669566956370689FB00111248FEF869FA001879F500D1124CA0160E670E00E9433FAD9016C93BF01CE0101960E94CDDA882319F18A81982F977029F4807619F48B818C70B1F02091BF033091C0032E7F3093C0032093BF03CE010196BED42091BF033091D6
S28400B500C00321603093C0032093BF0304C080915218898FE6CF812F24DF80E0E696E3E00C949DFB81E042DF882311F081E098DF50DF80E0089580E039DF882311F080E08FDF47DF80E00895A9E0B0E0EAEAFAE50C947FFB8C018091EE0965E0813029F4C4D0F82E811121C01EC080E0BED0F82E81111BC0F8018381898388E03496DE0176
S28400B580129601900D928A95E1F7CE0101960E94B5BAF82E8091EE09823039F48091ED09B3D065E0A2D01092EE098F2D2996E5E00C949BFBA9E0B0E0E0EEFAE50C9480FB8C01DC0113968C91833511F148F4853028F4823088F4811124C01AC092EB09C08438B1F028F4893579F08F36D1F410C090E1980F9330A8F4813F41F4F801948193
S28400B6002091EC09921339C091E00CC08935E1F390912D1D9093ED09963119F492E09093EE0990E02091EE09211111C0911113C0898388E0F8013496DE01129601900D928A95E1F7CE0101960E94B5BA02C0C8017BDF811108C0D8011C96ED91FC911D97199580E004C010932A0A0093290A8093EF092996E4E00C949CFB9093EC099091EC
S28400B6802D1D9093ED09963109F0BECF91E0C7CFA1E0B0E0EEE4FBE50C9480FB0091290A10912A0AC80150DF811108C0D8011C96ED91FC911D978983199589818093EF092196E4E00C949CFB1092EF091092EE091092EC090895882331F0813011F083E0089586E1089589E108956093F719F3DF0C94BABB882331F0813011F088E008959D
