:020000020000FC
:100000000C947E240D94040A0D94070A0D94090A99
:100010000D940E0A0D94130A0D94210A0D94260ACC
:100020000D94460A0D94500A0D94520A189518958D
:10003000189518950D94D106189518950D94FB06F2
:100040001895189518951895189518951895189548
:100050001895189518951895189518951895189538
:100060000D94810C0D9457090D9449090D944D0977
:10007000189518950D94200C0D94D30A1895189581
:100080001895189518951895189518950C94D330BF
:100090000D9495090D9467090D9488090D946E0AC5
:1000A00018951895189518950D9497080D947D0D31
:1000B00018951895189518951895189518951895D8
:1000C00018951895189518951895189518951895C8
:1000D00018951895189518951895189518951895B8
:1000E00018951895189518951895189518951895A8
:1000F0000D94AB0D18951895189518950D94AF0D96
:100100001895189518951895189518951895189587
:100110001895189518951895189518950D94DE0D45
:100120001895189518951895189518951895189567
:05013000189518951858
:104400004001CA5A00075B00015D5A0001095B00C8
:1044100001095B0001095B0001615A0001655A0056
:1044200001095B0001095B00016C5A0001705A0030
:1044300001745A0001785A0001095B00017C5A009E
:1044400001835A00018D5A0001095B0001915A0055
:1044500001955A0001095B0001995A0001AC5A000C
:1044600001BB5A0001095B0001B05A0001B75A00B4
:1044700001075B0001075B0001075B0012A65A0001
:1044800002095B0001095B0001095B0001095B0097
:1044900001095B0001095B0001095B0001095B0088
:1044A00001095B0001095B0001095B0001095B0078
:1044B00001095B0001095B0002C65A0001075B00AD
:1044C00002A25A0001BF5A00FB0040017C5B00635E
:1044D0005B0001215B0001745B0001745B000174EF
:1044E0005B0001245B0001285B0002745B00012B70
:1044F0005B00012E5B0001315B0001355B00017444
:104500005B0001385B00013B5B00013E5B00017416
:104510005B0001425B0001455B0002495B00015703
:104520005B00016D5B0001745B00015A5B00015D83
:104530005B0001755B0001605B0001605B00125174
:104540005B0002745B0001745B0001745B0001742A
:104550005B0001745B0001745B0001745B0001741B
:104560005B0001745B0001745B0001745B0001740B
:104570005B0001745B0001745B0002775B00017AF1
:104580005B00024D5B0001715B00FB000101606A92
:1045900000D4690001376A0001446A0001B569006E
:1045A00003406A0001446A0001466A0001586A003B
:1045B000014E6A0003586A0001CE6900015A6A0080
:1045C000FB000100DE6C000E00BA6C00BD6C00C088
:1045D0006C00C06C00C36C00CF6C00C96C00CC6C6C
:1045E00000DE6C00C66C00D26C00D56C00D86C008C
:1045F000DB6C000001002B6D001000ED6C00326DD3
:1046000000326D00326D00F46C00116D00026D001F
:10461000096D002B6D00FB6C00186D00186D0020FB
:104620006D00326D00396D003C6D000024015A852B
:104630000070850001778500018985000360850091
:10464000016C8500049F850001A9850001B68500E5
:1046500001BA8500025E8500017D85000144850068
:10466000FB0000000167DF005ADF00015CDF000192
:1046700062DF000162DF00015EDF000162DF000136
:1046800065DF000A62DF000162DF000258DF00011F
:1046900060DF000162DF00FB000001DBDF00A6DF5E
:1046A0000001A9DF0001B2DF0001B5DF0001B8DFC2
:1046B0000001D5DF0001D8DF000ABBDF0001CFDF3A
:1046C0000003D2DF0001ACDF00FB01002200010C7F
:1046D000006AFF00A3FF0076FF0093FF00FEFF00CB
:1046E000A3FF00DEFF00020001B5FF00DEFF0000B7
:1046F0000001150001003F0D080000001B0E010025
:104700000100560E080002001D0E04000300CD0D2E
:1047100001000400C40D01000500390E010006006F
:104720003A0E010007003B0E01000800450E110083
:104730000900220E02000A00280E01000B00CF0D16
:1047400002000C00C70D01000D00E40D01000E0079
:104750005E0E01000F00660D01001E00C30D01007A
:104760002600FA0D08001000020E02001100600E73
:1047700001001200570D02001300600D010014002B
:10478000D30D08001500270E01001600F80FCB000E
:104790001700911503001800A3184A011900DD0D38
:1047A00003001A00941516001B00E20D02002700FA
:1047B000661A02011C0092520014002900BA52002D
:1047C00004002A00C2520003002B00C8520020003F
:1047D0002C0008530018002D0038530018002E003C
:1047E000FF93EF933BB72BBFF80106913BBFEF91CF
:1047F000FF9108957F937FB7F8949D9AA5980AEF4B
:104800000E9459240AEF0E9459249D9806E40E94B0
:10481000592401E0959900E00F9300EF0E9459247C
:104820000F917FBF7F9108957F937FB7F8949D9AF2
:10483000A59806E00E9459249D980AE00E945924F8
:10484000889495990894001F0F9304E60E945924B8
:104850000F917FBF7F9108959F937F9398E00E946F
:104860001424079577959A959923C9F7072F7F9177
:104870009F9108957F937FB7F894A5989D9A0F9381
:1048800006E00E9459240F91079508F49D980F9314
:1048900004E60E9459240F919D987FBF7F9108954F
:1048A0009F9398E00E943A249A959923D9F79F9173
:1048B000089500000000000000000A950023C9F7D9
:1048C00008955F937F937FB7F894CF93DF93C0E011
:1048D000D0E07F935091B2007091B2007517E1F370
:1048E000739521965091B2005717D9F77F918E0199
:1048F000DF91CF917FBF7F915F9108950F94E31770
:104900000DECA7E9C7E9B9E2DDE20D93AC17BD07ED
:10491000E1F7A7E9C7E9BDE2D4E30D93AC17BD0702
:10492000E1F706E90DBF0DE20EBFC7E9D4E30F942E
:10493000FE17002311F00F94E9180E94F72B0F9433
:10494000FC170C94A3240D943F194A9512F0000F04
:10495000E1F708954A9512F00695E1F708950024CD
:10496000E8E0EA9532F0001F001C0416D0F3041AA8
:10497000F8CF001F402D00950895149F102D059F1E
:10498000100D049F002D110D0895000F111F4A9561
:10499000E2F70895169507954A95E2F7089515955B
:1049A00007954A95E2F7089500241124EFE0001FCF
:1049B000111F001C111C0416150610F0041A150A0C
:1049C000EA95AAF7001F111FA00100951095089500
:1049D0005195419550400895FF27552312F4F160F9
:1049E000F7DF112312F4F09507D00E94D424F0FDD4
:1049F00003D0F1FDEDCF0895119501951040089574
:104A00002224349F302D259F300D169F300D079F97
:104A1000300D249F202D310D159F200D311D069F37
:104A2000200D311D149F102D210D321D059F100DDD
:104A3000211D321D049F002D110D221D321D0895D0
:104A4000000F111F221F331F4A95D2F70895369584
:104A50002795179507954A95D2F7089500241124B4
:104A60001001E0E2EA9592F0001F111F221F331F90
:104A7000001C111C221C331C0416150626063706C2
:104A800088F3041A150A260A370AECCF001F111FF3
:104A9000221F331FA001B10100951095209530957C
:104AA000089557914791179011FA279037900790E2
:104AB0000CBE0895F7DF041B10E003C0F2DF041BF7
:104AC000150B20E030E000C028F110FC25C0479114
:104AD0000790E00FF11F0417100540E0240734078A
:104AE000C8F486F412FE05C0E00FF11F079106908E
:104AF00002C006910024F101E01BF0090CB7004050
:104B00000CBF1994E00FF11FE00FF11F27903790B1
:104B100007900CBEF101199411F4C6F7E3CF31965A
:104B200012FC31960EF0329650E060E070E0479152
:104B30004B3F48F079F34F3F29F04E3F11F077910A
:104B4000679157914791041B150B260B370B29F3DF
:104B500008F3E5CFAF93BF93D80101900D92415078
:104B60005040D9F7BF91AF910895AF93BF93D8014B
:104B70003BBF07900D9241505040D9F7BF91AF9184
:104B80000895E00FF11F02900A9201501040D9F7EA
:104B90000895FA92EA92DA92CA92BA92AA929A92F4
:104BA0008A927A926A925A924A92BA93AA939A9362
:104BB0008A930895FF84EE84DD84CC84BB84AA8428
:104BC000998488847F806E805D804C80BB81AA81BF
:104BD00099818881F0E0EC0FFD1FEF01089580813D
:104BE000080F8181181F8281281F8381381F8481CB
:104BF000481F8581581F8681681F8781781F089507
:104C00008081082B8181182B8281282B8381382B6E
:104C10008481482B8581582B8681682B8781782B4E
:104C200008958081081B8181180B8281280B838164
:104C3000380B8481480B8581580B8681680B8781EE
:104C4000780B0895808108178181180782812807D1
:104C500083813807848148078581580786816807E2
:104C60008781780708950000000000000000000020
:104C70000000000000000000000000000000000034
:104C80000000000000000000000000000000000024
:104C90000000000000000000000000000000000014
:104CA0000000000000000000000000000000000004
:104CB00000000000000000000000000000000000F4
:104CC00000000000000000000000000000000000E4
:104CD0000000000002010002020505080000FFFFBD
:104CE0003412000000000000000002020005010074
:104CF00000000001000000000000000000000000B3
:104D000000000005FF00000203AAAAAAAAAAAAAAF4
:104D1000AAFFFF00070707077F7A785A5F07070790
:104D20000707787F1F03001E000003F400800000C7
:104D3000013412000303000002000000000003031E
:104D4000581B000010270000010001E803000004C8
:104D5000E80300001041746D656C202020202020A5
:104D600020202020200000000000000000000101A1
:104D700085006C000100000705000704020504021D
:104D800004000308FF140000000108030303020AE3
:104D9000901A00000F00000000000303141001101F
:104DA000270000010600014F5000033F0D000800DE
:104DB000490D000100170E0004001B0E0001001D2C
:104DC0000E000400CB0D000100CC0D000100D30D3E
:104DD000000800CF0D000200570D000200600D001A
:104DE0000100C70D000100E40D000100CD0D000120
:104DF00000240E000100250E000100260E00010017
:104E0000270E000100220E000200280E00010029DA
:104E10000E000100C90D000100C80D000100F40DD5
:104E2000000100F50D000100560E0008003C0E00C8
:104E30000400310E000400350E000400390E00019C
:104E4000003A0E0001003B0E000100450E0011006B
:104E5000C40D000100400E000100410E000400F9E5
:104E60000D000100F60D0002005E0E000100210E93
:104E700000010000000000000000000000160E000D
:104E80000100000000000000000000000000000021
:104E9000000000000000A4020010005F0E000100EE
:104EA000DE0D000100DF0D000100600E000100FAC0
:104EB0000D000800020E0002002A0E0005002F0E51
:104EC000000100300E0001000000000000000000A2
:104ED00000000000000000000000000000000000D2
:104EE00000000000000000000000004B0D00010069
:104EF00000000000000000000000000000000000B2
:104F000000000000000000000000000000000000A1
:104F10000000000000000000000000000000000091
:104F2000000000000000001C0E000100510D0001F7
:104F3000004A0D000100704D000200744D00010098
:104F4000774D000100754D0002007A4D0001007B95
:104F50004D0001007C4D0001007D4D0001007E4DA3
:104F60000001007F4D000100804D000200784D00DF
:104F70000200824D000100834D0001009C4D0002A3
:104F8000008D4D0001008E4D0001008F4D0001008D
:104F9000984D000400844D000100854D00040089F7
:104FA0004D0001008A4D000100944D000100954D17
:104FB000000100964D00020000000000000000000B
:104FC00000000000000000000000000000000000E1
:104FD0000000000000009E4D0001009F4D000400F5
:104FE000A34D0001000000000000A44D000200A637
:104FF0004D0001008B4D0001008C4D000100A74DBC
:10500000000100A84D000100A94D000100AA4D00BB
:1050100001000000000000904D000400724D0002ED
:1050200000610E000000F80F000000520F000000A9
:10503000C310000000EC0F0000000000000000F4AE
:105040001000000021180000007B18000000C814A8
:105050000000001A15000000E414000000511500C3
:105060000000FE1500000093170000000000000083
:105070000000000000009115000000A318000000CF
:105080000000000000000000000000000000000020
:105090000000000000000000000000000000DD0D26
:1050A0000000009415000000AA15000000ED190092
:1050B00000000000000000661A000000681B0000ED
:1050C000008C1B000000FD1B000000251C000000E0
:1050D000E60E000000FCAF60110701200000000098
:1050E000004C9D009F9B00B7A90050880000000065
:1050F0000E8100488600088C0000000000000010AF
:10510000000000000003020102030302020101018A
:105110000101010101010202010101020102020279
:10512000020202010202020202020103030202035E
:10513000000100010000FEA7760046AB004E8D0086
:10514000F38300F18A000000001F79007A7D004699
:105150008800D379006AA9005A7100C0970091991C
:1051600000629B005297000E8E000000000DB100FF
:10517000C89700DBAA00297000EBAB00D398002A87
:105180009A00F1A800BB9600CF7600F379007C84EA
:1051900000C780001189003D7900697600848D0088
:1051A000000000000000D791002B930000000018C1
:1051B000950002958B00508B00010703AA0083AA7B
:1051C00000010103AA0083AA00010134870023869D
:1051D0000001018981007482000101898100DF8161
:1051E000000107A98900DC890001019F8A00788AF3
:1051F00000010100000000000001070000000000A5
:105200000001010000000000000103000000D09A2E
:10521000000104000000D09A000105000000000019
:10522000000106000000000000010D000000000069
:1052300000010103AA0000000000010000000000BE
:1052400000010E0000000000000107000000000047
:1052500000010A0000000000000100000000000042
:10526000000101000000000000010100000000003A
:105270000000000000003B760000090000003B76C3
:1052800000000C0000003B760000000000003B76B0
:1052900000000000010002000300040005000600F9
:1052A0000700080009000A000B000C000D000E00AA
:1052B0000F001E0010001100120013001400150052
:1052C00016001A001B002700000001000200030066
:1052D0000400050006000700080009000A000B0092
:1052E0000C000D000E000F001E0010001100120037
:1052F00013001400150016001700180019001A00FA
:105300001B0027001C002600000001000200030013
:105310000400050006000700080009000A000B0051
:105320000C000D000E000F001E00100011001200F6
:105330001300140015001600000001000200030015
:105340000400050006000700080009000A000B0021
:105350000C000D000E000F001E00100011001200C6
:1053600018001A001B00270000005A696742656593
:10537000416C6C69616E63653039FFFF00AF0000FE
:10538000000000000000000000000000000000001D
:105390004FDA002FDB0014CF00FCCF000CD600004A
:1053A000000000000000000000000015D8004000D0
:1053B000000001000FD4002BC50058D0004AB500F2
:1053C00094B200000000000000C6D900793E000041
:1053D0000000000000BF3D000000008F3F00000003
:1053E00000B23F00000000F13F000000004B3F0012
:1053F000000000174000000000294000000000509D
:1054000040000000006F4000000000A040000000CD
:1054100000B34000000000D640000000000E3F0036
:105420000000000100000000000001000000000179
:10543000000000000000010000000001000000006A
:105440000000010000000001000000000001010058
:105450000000000100000000000001000000001B2F
:105460003600000000283600000000000000D037A1
:105470000000000070360000000000000000000086
:105480000000002F38000000002F38000000000F3F
:1054900038000000000100010000010000000000D1
:1054A00001000000000100000100000000010101F6
:1054B00001000000000101000000000101000000E7
:1054C00000000100000001860F01860F01860F0118
:1054D000860F01E90F01B70E011B0E01AE0601B8E0
:1054E0000B01610B01771701960701001701C61523
:1054F000018F1401870F010101000000000100006D
:105500000000000001000000000001000100010097
:105510000100010001000100010000000000000086
:1055200000000000000000054100000000054100EF
:10553000000000194100000000ED40000000003FA5
:1055400041000000006741000000008D41000000A4
:10555000005A4300A64300304400B34900813A009A
:105560007838006C42000000000000008743000013
:105570000001000000000003800000000000034A5A
:10558000F0008CF5000BED004AF200FDDB0022E498
:10559000001D3C00000000E13A00000000D13C008A
:1055A0000000003A3B000000008D3B000000004E70
:1055B0000501650501580401D505015000013601BA
:1055C00001A402014E13015013015213015413019F
:1055D0005513015713018B4200000000B042000038
:1055E0000000DF420000000000000000000000009A
:1055F00000000000A941000000000C420000000073
:10560000ADFA000BFA0086FB00000001010100006A
:10561000010000000100000000513A000000002CD1
:10562000430000000008000000000000040810FF14
:10563000FF0000010001F125A503000000A5010005
:1056400002445600000000000000000100000000BD
:1056500000000000000000000000E803000001C995
:105660003200EE5100950F01446D0096AB00A1F49D
:105670000040D6006CFC00FCFB002B35000544000C
:10568000000000000000F52B00D0300000000000FA
:1056900000FFFF00000000000000000000A938002B
:1056A00000000000000032000000017F3A00794352
:1056B00000644600CB38000000000000000000003D
:1056C0000000014F4400000000000000A63600006A
:1056D00000000000000000000000000000000000CA
:1056E0002C01000001EF4400CCCCCCCCCCCCCCCCF9
:1056F000CCCCCCCCCCCCCCCC0B0000FFFF00000041
:1057000000FFFF0000000000000000FFFFFFFFFFA0
:10571000FFFFFF000000000000000000000C6E0012
:1057200001FFD787380C04000000000000000000D3
:1057300000000000AF760000000000000000000044
:1057400000AE9800000000000000000000004C883F
:105750000000000000000002000000000000000047
:10576000000083D500FAFFFFFFFFFFFFFFFFFFFDF3
:10577000FFFCFFFBFF0000000000000000000040F5
:10578000EA000000000000000000000064EA0000E1
:1057900000000000000000000096EA002000FDFF6D
:1057A000FFFFFFFFFFFFFCFFFFFFFFFFFFFFFBFF10
:1057B000FFFFFFFFFFFF000000000000CFFC000024
:1057C000000000000000000000AC08010000FFFF26
:1057D00000FF0000000001000000010000000000C8
:0957E000000000000000000000C0
:1057EA00089508950E9423340E943434FDCF0E9404
:1057FA00C925229778018ED180809180A280CC24FD
:10580A00DD2401C015D086D106811781C016D106C4
:10581A0040F406E018D0349610D0A1F782012A2D60
:10582A0003C000E010E020E02296E0E10C94DA25C3
:10583A0001E0C00E00E0D01E089565D108811981EB
:10584A000E151F05089510E0A60183D02401400E0D
:10585A00511E02E010E0F2013A2D08950E94D3256C
:10586A00279744245524A02FA77043E0DFD0C8010E
:10587A00F801EB55FC4F048D4A2FE2D019F40FEFD3
:10588A001FEF3AC047E050E021EC33E08E010F945D
:10589A00171860E070E019C0FE01E60FF71F0081DB
:1058AA00102F157506950575100F1083012F0373B8
:1058BA00169516951373010F0083202F2F700295EA
:1058CA000F70200F420E571E63956817790720F351
:1058DA0060E00FC0FE01E80FF91F2081462F01E0AA
:1058EA0010E00E94C724202319F001E0400E571E41
:1058FA0063956A1778F382012796E6E00C94E4250B
:10590A000E94D5252C97C801D901A8DF9E012A5FDC
:10591A003F4F2A833B8346E050E01BD0F801349680
:10592A00E883F9834C835D8348EB5EE260E08E0195
:10593A000E94952E0A851B858017910711F004E0B5
:10594A0077D00E811F810D931C932C96E4E00C9462
:10595A00E6250C94BD249A938A93C8010FEFE82F89
:10596A00F12F0783008747E050E0082F0F9417189C
:10597A008C016AD000E010E0F801EB55FC4F248D51
:10598A00FC01BED01081122310830395073098F3CF
:10599A008991999108950E94D32526972801C901D2
:1059AA0020E030E043E0890141D0F201A9D0122F72
:1059BA001770412F44D069F1412FB4D0890117DF04
:1059CA00F801322F012B022B51F106E010E09BD097
:1059DA0008811981FC01028313839C010C811D81BA
:1059EA008FDFFC01008111810B5F1F4F0083118340
:1059FA000A811B810483158302811381012B11F40F
:105A0A0000E016D00C811D81F2010783108701E0A6
:105A1A000BC02F5F3F4F233300E0300718F20FEF20
:105A2A00F2010783008700E0269667CF0C94CC2406
:105A3A0010EAE3E3F4E0008311830C945E330081FF
:105A4A000E94AA24017008950E94CB252997680113
:105A5A0064D0F801068102FF08C047E050E02FEF4A
:105A6A0030E00C2D0F94521845C055246624772433
:105A7A001EC002E0409EEA81FB813C81E00DF11DDF
:105A8A0042D04881477054D0202F43E008811981C1
:105A9A0035D00081022B0083439410E02D813E8192
:105AAA004216130730F301E0600E00E0701E2ED09C
:105ABA0060167106E0F407E010E0A3014ADFF40182
:105ACA003A2D1ED007E010E0DE0112960F9424183A
:105ADA002F81188543E0022F11D02770422FAFDFA4
:105AEA0011F3422F1FD0552453944424D6CF552066
:105AFA0009F0BBCF2996EEE00C94DC2597DFF6017E
:105B0A00E00FF11F0895DE010D94241803D00085DB
:105B1A0011850895E5EAF3E00895FCDF8380948017
:105B2A00A580089505D0009510811023108308954B
:105B3A0001E00C94A5240ED000E005A70AEA1DE2B4
:105B4A0020E006A717A720AB089504D001A912A93F
:105B5A000C948030E5EAF3E008950E94D02C0023EB
:105B6A00089520E030E0F801E20FF31F4081F901C7
:105B7A00EB55FC4F3589342B358B2395273090F321
:105B8A0012D0046003AB08950ED0026003AB0FD0AD
:105B9A00002341F408D00D7F03AB20E030E00FE092
:105BAA000E9413320895E5EAF3E003A908952697BF
:105BBA000091D80302FF09C02AEB33E009ED13E094
:105BCA000E94B02CF0DF0B7F03AB9E0109ED13E0BE
:105BDA00C4DFA9F0E9EDF3E067817085462F18D09C
:105BEA000095202F43E08B010DD005890223058BF8
:105BFA009E018B0111D0002341F304E001C000E0B3
:105C0A00269608950E94CC24F801EB55FC4F08957E
:105C1A00477001E00C94A5240E94D1252C973801E5
:105C2A00D901552466D00C835D828D919C91119780
:105C3A0005978883998364D0FD0144815581228127
:105C4A00338100E00E94B92E402E0F81401679F56B
:105C5A000A851B856016710651F547D02885398556
:105C6A000217130721F58E010A5F1F4F0A831B8350
:105C7A0001E00C835D8280E090E001C0019635D09E
:105C8A008017910768F50D911C911197080F191F3C
:105C9A000883198335D0EA81FB812081FD010281C5
:105CAA001381080F191FF8010081201739F3539443
:105CBA004F826A867B8619D0088719871AD010E026
:105CCA000C831D830D911C91119705501040088378
:105CDA00198349EC5DE260E08D0119D013D017D029
:105CEA00052D2C96E8E00C94E225FD01048115812E
:105CFA0008958E01095F1F4F0A831B8305E00895EB
:105D0A0001D00EC048EB5EE260E08E01089500C04B
:105D1A000E94D3250BD00F94041510D00C94E425BF
:105D2A000E94D32503D00F94BB14F7CF2801DA01C0
:105D3A00962F11D0AD01692F820108950F3F1F4F91
:105D4A0011F401E006C0A83BBE42904009F403D01A
:105D5A0000E0E6E0089502C00E944B340F94BE159D
:105D6A000023D1F708950895BC01102F80E090E038
:105D7A0006C0F901E80FF91F0081100F0196841778
:105D8A009507B8F3012FCB0108950E94D6252F97C6
:105D9A00C8018E01FE0120E0A9E02193AA95E9F746
:105DAA009C010E94B02C47E050E020E030E08C01DA
:105DBA000F9452181AC09E01275F3F4F0F81188512
:105DCA0021D0002391F42F811885422F477001E0DA
:105DDA000E94A524502F43E0022F0E94CC24FC01EC
:105DEA00E00FF11F0081052B00839E01275F3F4FC3
:105DFA008E010E94D02C0023F1F600E02F96E3E0FA
:105E0A000C94E7250E94D3252C972801D90180E01C
:105E1A008E01095F1F4F0B831C8305E00D838E8360
:105E2A000D911C9111970550104036D00A851B859B
:105E3A004016510651F5FD010481158128853985E1
:105E4A000217130711F5CB83DC8301E00D838E83E0
:105E5A004424552411C00D911C911197040D151D50
:105E6A001BD041E050E02B813C81082F7DDF802F41
:105E7A0001E0400E00E0501EFD010481158140162C
:105E8A00510648F30F81801711F002E001C000E0CB
:105E9A002C96E6E00C94E42509831A8348EB5EE22B
:105EAA0060E08E010F5F1F4F0C94952E0E94CF2544
:105EBA00269785EA93E006EF16E420E0FC010083CA
:105ECA001183228306EB17E403831483258368D0A6
:105EDA00412911F000E2E6D063D0FC012681378126
:105EEA00202B312B2683378357D0412911F001E229
:105EFA00D9D052D0FC0120853185202B312B208727
:105F0A00318740805180628020E030E022872387F9
:105F1A002487258747E050E001EC13E00F945218DC
:105F2A0088242CC0B5D0F201362DDE010F94241836
:105F3A000A811B810B5F1F4FFC01428553856485D3
:105F4A007585400F511F691D791D428753876487E4
:105F5A0075872C811D81422F477001E00E94A5247C
:105F6A00502F43E0022F0E94CC24E00FF11F048D32
:105F7A00052B048F06E0400E591C83949924FC01DA
:105F8A00068117818016910668F210D00E94A02D12
:105F9A002696EAE00C94E0250AE210E047E003C006
:105FAA0000EC10E046E050E00C94D4240E94CD2589
:105FBA006297E5EAF3E0468157816AD00E94BD24E0
:105FCA00C80104962C0166247724AA24BB24C88716
:105FDA00D98706E00A876B868824992443E08401DE
:105FEA000E94CC24F801EB55FC4F048D482D4770D4
:105FFA000E94AA240170F1F14BD0A5010E94BD2490
:10600A000C5F1F4F0E831F8346D00E94952E0C8172
:10601A001D810815190549F4088119812A813B81D6
:10602A00041515052605370549F08C829D8248829C
:10603A0059826A827B822FD00E948D2E84010E940F
:10604A00FC2BD801922F012B022B11F402E22AD049
:10605A001FD0FD01392FDE011C960F9424188E855E
:10606A009F850596A0E0480E591E6A1E7A1E01E019
:10607A00A00EBA1E01E0800E00E0901E03E3801617
:10608A0000E0900608F4AACF6296ECE00C94DE25B4
:10609A0006E010E0089548EB5EE260E08E010A5FD8
:1060AA001F4F089510EAE3E3F4E0008311830C9490
:1060BA005E3320E030E0F801E20FF31F3081332332
:1060CA0009F031C023952730A8F347C00E94D5258F
:1060DA00D801C90150D08C010F9452184A2F55D0BB
:1060EA0043E08D010E94CC24FC014AD08C010E941D
:1060FA00292DE4E051C00ED059F08E010E94B62D30
:10610A000091D80301FD02C00E94C92D01E001C01F
:10611A0000E02AC027972DD09E0100E006D08E010C
:10612A00C8DF0023089501E00895002319F00A95B5
:10613A0071F013C000E013D0448DF90117D010811B
:10614A001423108303950730B0F38901B2CF890174
:10615A000E94CA2E002309F4E6CF00E0089510E059
:10616A00F801EB55FC4F089527960895E00FF11FAB
:10617A0008959E01ABCF47E050E020E030E008955B
:10618A00F5DF0081022B00830895477001E00E9429
:10619A00A524202F089508950C94E6259A938A93AE
:1061AA00FA93EA934A933A932A931A930A934FB724
:1061BA00EFEFF3E0058906FF25C0018512852785E3
:1061CA003089200F311F2787308B058903700130F2
:1061DA0051F4838194812030314018F0019773D0B3
:1061EA0009C071D00FC031300091900040F0006CAE
:1061FA0000939000078511270787108B03C00F7340
:10620A0000939000058907FF27C00385148521891B
:10621A003289200F311F218B328B0589069506950D
:10622A000370013069F4858196812030314018F07D
:10623A0030E0328B019690939B0080939A000CC0B9
:10624A00313030F030E0218B328B3AD0006202C01C
:10625A0037D00F7D00939000068900FF26C0058580
:10626A00168523893489200F311F238B348B0589A6
:10627A0002950370013069F487819085203031409E
:10628A0018F030E0348B019690939D0080939C0027
:10629A000CC0313030F030E0238B348B11D00860E1
:1062AA0002C00ED0077F009390004FBF0991199149
:1062BA00299139914991E991F99189919991189581
:1062CA000091900008959093990080939800089502
:1062DA00BA93AA932297AEE1B4E000912104002375
:1062EA00C9F09E0101E21CD09E012F5F3F4F0DE1D4
:1062FA0017D00881023071F40981002359F40BE99F
:10630A0011E320E00D931D932C931A978D010E949F
:10631A00EBEC02C00F94100C2296A991B991089542
:10632A0010E00C94624A00912104089508950D9496
:10633A00A4170E94D325502ED9016AD0452D64D0C6
:10634A00402E00E4501608F026D09D01052DA1D05C
:10635A000023F1F49D0102E214E00E94BC32002302
:10636A0071F448E050E020E030E08D010E5F1F4FED
:10637A000F9452189D0102E214E00E945F32A80FA6
:10638A00B91FFD0102810429028339D0042902833D
:10639A00E6E00C94E42503E010E8E3E3F4E000838C
:1063AA0011830C945E330E94D325B02F290130D07B
:1063BA004B2F2AD0A02FB03408F0EDDF92010B2F1B
:1063CA0068D00023D9F00A2F0095480E591EF20111
:1063DA00128110231283E2E2F4E007C0F801E80F09
:1063EA00F91F22812A2351F4F80100811181202FFB
:1063FA00212BA1F7A09503D00A230283C9CFFC0160
:10640A00EE5DFB4F02810895477001E00C94A524CC
:10641A00069506950695802F90E008950E94D1254D
:10642A00A02F3901F5DF4A2FEFDFB02FA03410F08B
:10643A0004E0B2DFE4DF0B2319F1E2E2F4E01BC06F
:10644A00F201E80FF91F02810B23A1F0F201428544
:10645A005385648540305040604011F405E09CDF6C
:10646A00372DF201028513852485F8012CBF262DCC
:10647A000A2F1995F20140805180042D052901F750
:10648A00E8E00C94E2250BD0F0E0E02FEE5DFB4F44
:10649A000BC005D010E0200F311FF90105C0402FB5
:1064AA000695069506950895028147700E94AA24CA
:1064BA00017008950E94D525C801D90158D000233A
:1064CA0000E049F010E8E3E3F4E0008311830E945E
:1064DA00443300E011C00D930C931197FC01008125
:1064EA001181012B31F0008102C00081132F16D0D7
:1064FA00E1F7A083B18301E0E4E00C94E625BD0155
:10650A000DD041F02081D9014D915C914083518396
:10651A00890102C000E010E0DB010895F801208142
:10652A003181232B0895BD01422F432BF1F0F8014D
:10653A00408151814217530731F4DA012D913C9180
:10654A002083318310C0FA0101C0F8010E2F0F2BEE
:10655A0061F00081118102171307B9F7D8010D9173
:10656A001C910083118301E001C000E0D5CFF8013E
:10657A0000811181402F412B29F002171307B9F727
:10658A0001E0089500E0089500E012E00C94C25181
:10659A00F80102811381202F212B09F425D00F94B1
:1065AA001A1901E00093070200E112E00D94240F8A
:1065BA00BA93AA93ADE0B2E000910702002389F0F2
:1065CA0000E112E00F94490F0DEC12E320E00D9365
:1065DA001D932C931F9700E0009307028D010E94E0
:1065EA00C251A991B99108959A938A930F946C0F05
:1065FA00C8010E94A35C20E032E0239FF801E00D6D
:10660A00F11D408151818427952723952430A8F3D1
:10661A008C018991999108950E94CD252801CA017A
:10662A00DB0138018824992409C00F945B18F3010F
:10663A00019311933F0101E0800E9A1CAA24BB2406
:10664A008C019D0136952795179507958016910619
:10665A00A206B30650F380FB4EF40F945B18480E63
:10666A00591E1FEF410E511EF201008300E010E097
:10667A00ECE00C94DE2500E112E00D94490F02D003
:10668A0002E003C0ECE2F4E0089510E00083118315
:10669A00078110850283138344815581668100E056
:1066AA0040305007600721F08F01FA016CBF19953D
:1066BA000895E8DF03E0E9CFBA93AA93F8012183AA
:1066CA0032834F3748F001E010E8E3E3F4E0008357
:1066DA0011830E9444331EC010811170440F142B81
:1066EA00108351870A8100FB008100F900836383CC
:1066FA007483A181B28134E003C000E013960D9344
:10670A000181128120812695239F000D111DA0175A
:10671A00B10798F3A991B991229608950E94D225BA
:10672A00D8012901642E80E090E03FD0FD0121814B
:10673A00328189010AC0582F592B21F0FC0153815B
:10674A00451708F4C8010C5F1F4F4C91469554E059
:10675A00459FA90169D070F4F8014381442359F394
:10676A00608171816415750531F75281561519F7E3
:10677A0000E018C00C9100FD09C0082F092B21F078
:10678A00FC010381002329F002E00CC0082F092B29
:10679A0041F0FC01408251826282FD010185FC01C7
:1067AA00038301E0E7E00C94E3250E94D325280146
:1067BA000F946C0FC801D901F20145815681678196
:1067CA007085041B150B260B370B4381548160E03F
:1067DA0070E00E942E250F3F10402040304020F4E8
:1067EA00202F002311F41DC02FEFE42D0181128107
:1067FA0064E005C03381341B33830C5F1F4FF20101
:10680A004181528130813695369F0ED030F4F8019D
:10681A004381241778F7422FEDCF85839683A78388
:10682A00B087E6E00C94E425400D511D04171507C6
:10683A0008950E947D430C94DD3208950F94300D23
:10684A000E94E14A002311F402E008952FB7F89458
:10685A0018D0006116A705A72FBF01E0089517D029
:10686A0020E030E00BE20E94133208D011F40E94BB
:10687A006D3104D009F0F1CF00E0089502D0012B68
:10688A000895EEE1F2E005A516A5089500C0BA93B1
:10689A00AA9320E0EEE1F2E0422F01E010E00E942C
:1068AA00C72447A550A965A576A5462357234023A3
:1068BA005123452B59F13FB7F8940095109545A5FA
:1068CA0056A54023512345A756A73FBF022F10E0E4
:1068DA0043E050E00E94BD24E00FF11FDF014D911B
:1068EA005D916C91129740305040604041F406E04F
:1068FA0010E8E3E3F4E0008311830E945E330D9114
:10690A001D912C91F8012CBF199503C023952F30A6
:10691A0018F2A991B99108950E94D1253801422E01
:10692A00CA01DB011CD000E0F301008343868783A0
:10693A009087A187B287088519852A8504871587D4
:10694A002687EBE00C94E225F8012081222331F41A
:10695A0021E020830F5F1F4F0F94240F0895F80141
:10696A002081213031F420E020830F5F1F4F0F94E4
:10697A00490F08950E94D425D801C9010D911C918F
:10698A001197012B19F44424439401C044240A2F7B
:10699A000B2B11F0232B11F407E040D09C018D0141
:1069AA000E945F32042DE5E00C94E5250E94D32570
:1069BA00C8012901012B11F0232B11F408E02ED074
:1069CA0027D011F409E004C04A165B0621F00AE058
:1069DA0025D000E01AC08C010E94843219D0A1F09F
:1069EA00FD0144815581668140305040604011F478
:1069FA000BE014D0FD01228133818C014481558141
:106A0A006681FA016CBF199501E0E6E00C94E42571
:106A1A00FC01A081B1810A2F0B2B089510E8E3E352
:106A2A00F4E0008311830C945E330E94D525D801CB
:106A3A00C901012B11F0232B11F40CE0EFDF9C01AB
:106A4A008D010E94BC32E4E00C94E6252ED000FFB2
:106A5A0005C000810E7F00830E94713526D001FF98
:106A6A0005C000810D7F00830E94E3351ED002FF1E
:106A7A0005C000810B7F00830E94F03516D003FF0A
:106A8A0005C00081077F00830E94103600913504FB
:106A9A00002351F02FB7F894EBE4F2E00081118162
:106AAA001160118300832FBF0895E5E3F4E00081AC
:106ABA000895A991B9910895E5E3F4E00081016090
:106ACA0000832FB7F894EBE4F2E0008111811160A2
:106ADA00118300832FBF089523D0FD01078101FF91
:106AEA000BC007810D7F07830781046007834D91DF
:106AFA005D916C9112971CD0FD01078102FF0FC0B6
:106B0A00649B0CC007810B7F078307810E7F078375
:106B1A004381548165810CD008D001C0CDDFC9CF33
:106B2A00BA93AA93A6E3B4E0089504E00D94591326
:106B3A0000E040305007600721F001E0FA016CBF25
:106B4A00199508952FB7F89400E00EBB01E00ABD2D
:106B5A0000E00BBD00E50093750002E00BBDEF936A
:106B6A00FF933F93EBB5FAB531E237BF34913EBBA1
:106B7A003F91FF91EF913EB3F0E0E02FE45CFB4FD1
:106B8A00308303950A3050F300E4009375002FBF59
:106B9A0008959A938A93C801012B19F40FEF1FEFF6
:106BAA000AC0D0DFEEE3F4E08C0148E050E00E9436
:106BBA00AA2500E010E0899199910895E6E4F4E0AD
:106BCA0023D011F403E013D020E030E001E0E6E442
:106BDA00F4E014D01994E9E4F4E016D011F404E0D6
:106BEA0006D020E030E001E0E9E4F4E0F2CF10E979
:106BFA00E3E3F4E0008311830C945E334081518116
:106C0A006281FA016CBF08954081518162814030EE
:106C1A00504060400895ECE4F4E0F6DF11F405E03A
:106C2A00E6DF00E010E0ECE4F4E0D3CF61D049E61F
:106C3A0054E460E0478B508F618F0E9441F2E5E98E
:106C4A00F4E530E00FC0F9012481F801228343E71B
:106C5A0054E460E0458B568B678B0E94EBEFE7E9C3
:106C6A00F4E530E03BBF079116910895BA93AA93D1
:106C7A0024970901EBE9F4E530E033D1312D5CD0FA
:106C8A00D801179671E04DD0F801438124E130E034
:106C9A0080011FD111D19D012B5F78D125853685C1
:106CAA0009D127851BD1E9E9F4E530E00FC03CD0D2
:106CBA00E1EAF4E530E03ED073E033D0FD014281F1
:106CCA002CD024890BD1EFE9F4E530E0CBDF249610
:106CDA00A991B99108950CD04AE754E460E040873D
:106CEA00518762870E947F44E5EAF4E530E0BACF33
:106CFA00F9012481F8012383089516D0E9EAF4E51D
:106D0A0030E018D078E00DD0FD01438106D027810C
:106D1A00E5D0E7EAF4E530E0D9CF25E030E0DCD091
:106D2A0030C162E050E80895BA93AA932497D80133
:106D3A0089010895D6D0312F295F3F4F288339839F
:106D4A0008959A938A93C901F9D079E0EADF402F2E
:106D5A0024E049D1EDEAF4E530E084DF89919991A4
:106D6A00089525E0F80100810E58045080F0A9F03A
:106D7A000A9589F0025049F00B5689F0005569F0DE
:106D8A00035039F00A9529F00BC027E009C02CE01E
:106D9A0007C02DE005C02FE003C025E101C02EE2A7
:106DAA00022F10E008950E94D1252C97D8013901AD
:106DBA00EFEAF4E530E03BBF87919691E1EBF4E529
:106DCA0090D0172DBDD01B2FCCDF2801B7D074E08F
:106DDA00A8DF402F920183017CD00C910E580450F9
:106DEA0080F011F10A95C1F0025049F00B56B9F141
:106DFA000055D1F0035071F00A9561F04CC056D09D
:106E0A0007C05AD0FD01258169D0FD01268137814D
:106E1A0057D041C0119602C047D01396AFD040D088
:106E2A0055D10E94394937C03FD09D012D5F50D1BD
:106E3A000C5F1F4FF90134D09E012C5FA7D0238528
:106E4A00217043D021FB3FD022FB3DD023FB3BD016
:106E5A0026FB39D0220F20E0221F40D01CC0FD01A2
:106E6A0001811281238134810C831D832E833F8308
:106E7A002DD10E942449FD01258136811BD027810D
:106E8A00308518D021852AD040E250E01A969D011B
:106E9A008E010E9441498C012C96E8E00C94E2256F
:106EAA0048E050E00C94AA2501D00AC0FD012181D6
:106EBA003281089505D065C0F9DFFCDF2381348172
:106ECA008E010C94194920E020F908D0FD01238590
:106EDA00089502D02C9102C00C9490398E010C9422
:106EEA000C493BBF479157916791769148835983E3
:106EFA006A837B83089515D0E7EBF4E530E01BD075
:106F0A007AE023D0E5EBF4E530E06AC00AD0EDEB95
:106F1A00F4E530E010D07BE018D0EBEBF4E530E09C
:106F2A005FC00E94D5252C97D801C90108959ADE21
:106F3A002C96E4E00895D5DF192F02D00C94433A39
:106F4A00295F1F4F28831983089562E050E8402F74
:106F5A0029E149D013D017D02085C0DFFD01218552
:106F6A003285A8DF2385BADF9D01245F3F4F8E015A
:106F7A000C5F1F4FF90107D02489B0CF8E010C5F37
:106F8A001F4FFD0108958CDF9E012C5F3F4F8E013C
:106F9A000E943949F6CF3CD02497D801C90156D06E
:106FAA000883198353D00A831B839D018E010E9493
:106FBA0057498D010E941DEC76E062E050ECFC011D
:106FCA00448126E010D0FD01228188DFFD01238162
:106FDA0085DFE1ECF4E530E045DE2496E4E001C02B
:106FEA00A6DF0C94E62530E08C0176CF11D0C801DB
:106FFA00D901F801EA5BFF4F008111810E94D24951
:10700A00A801622F9D018C01FA016CBF1995E6CF88
:10701A000C94D525BA93AA932597D90117D0098339
:10702A001A8314D00B831C830E9453F4088371E1E2
:10703A0062E050EC14964C9114974DD00F5F43D0F8
:10704A00E3ECF4E530E00EDE259642CE8901095FD5
:10705A001F4F0895DDDF2697D901E5ECF4E530E00E
:10706A003BBF879196911B2F295F1F4F2A8328D0F8
:10707A002C831D8341E050E09E012F5F29D00E5FD3
:10708A001F4F0E9496490981002329F00E94FAECB9
:10709A0008837DE004C00E9406ED08837FE0FD01BD
:1070AA0044818D01095F1F4F0A830AD00C831D8317
:1070BA0062E050EC10D00E5F06D08C0126968ECF7F
:1070CA001B838D01C4CF1F4F0C9441499E012C5F35
:1070DA003F4F8E01089525E030E08D01FDDE41E04D
:1070EA0050E09E01F6CFBA93AA932397402F10E05F
:1070FA00188319831A83063070F403E050E00E9463
:10710A00BD24E6EDF5E530E0E00FF11F03E010E005
:10711A00DE010F942418088119812A812396A991E6
:10712A00B991089500E00A930A9342E053E460E0BB
:10713A00EFE4F4E02081318100E80C9463392FE414
:10714A0032E002E30C949E312197023329F400E0E5
:10715A0008838E010E94F62B219608954CE050E098
:10716A0020E030E002E11DE00F94521800E0E4E173
:10717A00FDE017D1E6E1FDE014D197D012D1EAE1A2
:10718A00FDE00FD101E00093120D08950E94D5256C
:10719A00309116053F770091120D0A9521F00A9554
:1071AA0009F45BC07AC081D080819181082F092BB4
:1071BA0001F13323F1F07CD0FC010481007C00381A
:1071CA0011F40AE203C0003471F400E40E94A748F3
:1071DA00D8010A2F0B2B39F008E11DE064D0039681
:1071EA009C018D01E5D0009116050F7731F158D039
:1071FA0024C0E6E1FDE0A081B1810A2F0B2B91F0BA
:10720A000E94F6480023C9F006E11DE04CD000E0D8
:10721A000A930A93FD014481558166819D0100E824
:10722A004DD00BC00AE11DE03ED0202F212B29F0C2
:10723A00F801448155816681EAD0EAE1FDE0B4D0E3
:10724A0059F50E94F648002341F12FD0ADD021F51F
:10725A00E6E1FDE0A9D009F11FC080E090E040E03E
:10726A0024D007C04395F8012481207C203C09F4EE
:10727A00C80100811181202F212BA1F7431761F446
:10728A00082F092B49F014D09C0108E11DE00E9447
:10729A00983203968C01F9D003D0E4E00C94E625E9
:1072AA0002E00C94F3430C948432E8E1FDE0089583
:1072BA00E6E1F5E000810A95008308950E94D12550
:1072CA00702ED9012A01662E0E94A748C801012BF7
:1072DA0069F400E87016E1F4FD0144825582668281
:1072EA009D0106E11DE00E945F3212C0282F312F56
:1072FA008D01F2016CBE19952801288539858C010A
:10730A0014D0442009F480D0552011F48C017DD08A
:10731A00EAE00C94E225F8010AE200835183228311
:10732A00338344836583768308950E94D525D801E3
:10733A00C901F8010181007C003429F502E00093BB
:10734A00120D0E94094501C029D00E945846002307
:10735A00D9F78D010E94A54603C00E9405441ED09C
:10736A0098D022D0D1F30E945E4693D020813181F9
:10737A008C011ED000E08DD014D00E941A4501E085
:10738A000093120D0AC00E94584600238D0119F479
:10739A000E94A54602C00E94DF477FCF81DF0C947E
:1073AA004B3400830183089500811181012B0895D4
:1073BA000E94D3252801D901EFE6F5E530E03BBF6D
:1073CA0087919691E22FFB2F0581168123D0A80180
:1073DA00622F00301040204069F09D01820117D0D1
:1073EA00C801FD010181007C003C21F420E030E06D
:1073FA008D019BDF882311F4820107D0992309F4B8
:10740A0003D0E6E00C94E4258D010C94D048FA01EF
:10741A006CBF19940E94D2252397C801442455248D
:10742A00662410E0188319831A830A30D0F403E023
:10743A00482F50E00E94BD24E1E5F5E530E0E00F79
:10744A00F11F03E010E0DE010F94241848815981EE
:10745A006A8140305405640521F0092FD8DF2801DC
:10746A00622E8201262D2396E7E00C94E325035031
:10747A001040980108E11DE00C945F320091130D51
:10748A00102F13951093130D089503D000831183C1
:10749A000895ECE1FDE00895BA93AA932497D901DF
:1074AA00295F3F4F288339839D01295F3F4F2A83F4
:1074BA003B8398018E010E94494971E066E050ECD5
:1074CA0014964C91149725E030E08D010E94903972
:1074DA0020E08E010E940C490CE512E00F94240F63
:1074EA00E2E3F6E530E03BBF079116912496A991B5
:1074FA00B99108950D948013BA93AA932397402FB4
:10750A0010E0188319831A830E3070F403E050E0F8
:10751A000E94BD24E7E2F5E530E0E00FF11F03E049
:10752A0010E0DE010F942418088119812A8123961C
:10753A00A991B991089554D0C80129012A5B3F4FF6
:10754A007BD2D201A85BBF4F9D018C01D1D10C9196
:10755A00033029F40BE407D00E947C4903C009E4F4
:10756A0002D06AD29EC0FED092018C01089538D012
:10757A00D80129018D919C911197F901208145D15A
:10758A00F2010081033039F492012D5F3F4F8D01E2
:10759A000E94394904C0218132818D0164D0F201EF
:1075AA0023858D0132D1F20124858D012ED10D91D1
:1075BA001C91081B190B75C013D00ED0E5E2F4E537
:1075CA0030E0B9D085D10E5F78D003836DD0E3E285
:1075DA00F4E530E0A8D066C02697D801C90108951D
:1075EA000C94D3250E94D2252C972901E9E2F4E5CF
:1075FA0030E0C7D1EBE2F4E514D2352D0DD1A2016A
:10760A007CD073E0F9D0028512E0019F200D311D74
:10761A00205F3F4F82017AD08E010C5F1F4FFD0120
:10762A001FD214D20E943949FD0120853185E8D044
:10763A002285EDD02385E8D000E009C012E0019F41
:10764A00E00DF11D248535850DD00C8103950C8341
:10765A000C81FD011285011788F38C012C96E7E055
:10766A000C94E3258E010C941949BADF2597B5DFEE
:10767A00E1E3F4E530E030D149835A836B837C83BC
:10768A00192FC2D12B831C8366D00F5F23D113D04D
:10769A00008311D0018308D0EFE2F4E530E047D04F
:1076AA002596E6E00C94E425FC010481FD01AFD1A6
:1076BA008D010C9461F50CD10F5F1F4F0E9449494F
:1076CA000881F20108950E94D6252497C901E7E3AB
:1076DA00F4E530E09ED0A7D0F801A3810DD077E081
:1076EA0063E050E84A2F2C5F0FD0E5E3F4E530E081
:1076FA00E4D1E3E00C94E725AC0104511F4F980153
:10770A008E0135DF980108953F4F8C010C94903912
:10771A0067DF62DFEDE3F4E530E00DD0C5DFEBE3D0
:10772A00F4E530E057CF03D02696E6E008953BBF54
:10773A00079116910895D0D0C2D0192FC5D00BD079
:10774A000E5FC8D0D7D0F20100831183C1D00E5F7B
:10775A00B4DF02830895402E5B2E0EE803D09D010C
:10776A008E010895400E00E0501E08950E94D22511
:10777A002497C901E1E4F4E530E03BBF4790569015
:10778A00E3E4F4E546D048D0B7DF79E035D00281AA
:10779A0010E0200F311F295FB7DFF7D0FD012381E9
:1077AA0036D0248135812CD02681378129D0208575
:1077BA002F702DD0218528D080E005C018D02285D1
:1077CA00338550DF8395FD0101858017B8F324A521
:1077DA001BD080E005C00BD025A536A543DF8395D5
:1077EA00FD0104A58017B8F38201249638CF02E080
:1077FA00809FE00DF11D089563E050E8462D76C0A4
:10780A008E010E94194972C08E010C940C49C2D093
:10781A006DC007D1392F089506D0D801A750BF4FA0
:10782A00F80163800895295F3F4F288339830895BB
:10783A000E94CF25269738014901E7E4F4E530E0B4
:10784A003BBF47905690E9E4F4E546D038D0192D6D
:10785A003BD0B72D0257A02FBF4F93018E010E5F69
:10786A0039D048D00D931C93119744D0FD0102835F
:10787A0013832ED037D0048380E004C043D005831D
:10788A0016838395FD010481801722D0B8F32AD08C
:10789A0007A380E005C01CD035D000A711A78395A7
:1078AA00FD0107A18017B8F3F4010481F301AFD0F9
:1078BA008301FFDE82012696EAE00C94E0254A83E2
:1078CA005B836C837D8308959FD02C831D830895E9
:1078DA009E0146CF1F4F2FCE3BBF479157916791CD
:1078EA00769108950E5F1F4F03D00881FD01089518
:1078FA000C944949EDDF0E5F1F4F0E9457490881DA
:10790A0019810895F8DF22E0829FFD0172CF0E945B
:10791A00CF25249728014901EDE4F4E530E031D080
:10792A00EFE4F4E57ED0192DC4D0B52D0750A02F71
:10793A00BF4FF2016380A40192012451C1D071E0CA
:10794A005BDF228130E0020F131F095F1F4F98018E
:10795A008401DCDE1AD0662406C07724E60DF71D02
:10796A00238152DF6394FD0102816016B0F308EFB0
:10797A00F9DEF20100810D3009F480E08C012496D1
:10798A009BCF3BBF8791969108952D913C9111977A
:10799A0037DF22818E0139CF0E94D1252C97280109
:1079AA003901E3E5F4E530E0ECDFE5E5F4E539D06B
:1079BA00172D2AD02A831B83B52D0257A02FBF4F1C
:1079CA0092018E01B8DD9E0139D044D000879E0114
:1079DA002ED00187128740D0038703309E0131F4ED
:1079EA002DD0045F1F4F36D0048B03C020D00487EC
:1079FA001587F3010481F2010AD082015ADE8C0153
:107A0A002C96E8E00C94E225295F1F4F0895038322
:107A1A0006EA14E420E0E751FF4F00831183228332
:107A2A0008955ADF488359836A837B8308950FD068
:107A3A0003D00C811D815ACF0C94574908D00E945B
:107A4A007C499E012C5F3F4F8D0108959E012C5F5A
:107A5A003F4F86CEF90104D0F9DF4ADF0C8146CFC9
:107A6A0048E050E00C94AA250E94D4252497B5DD5D
:107A7A00EBE5F4E530E0D5DF192F1BD0E02FFB2F23
:107A8A004380AC013B2F0451202F1AD075E063E0EC
:107A9A0050E8442D0B5F1F4F980137DEA750BF4FA8
:107AAA002C91B2DEE9E5F4E530E007D0E5E00C948C
:107ABA00E525AADF28831983089539DE24960895D7
:107ACA00C7DF55CD48D222D2E9EFF4E530E000D144
:107ADA004CD0E02FFB2F45A056A00DE2400E00E04F
:107AEA00501E0E94433A72E061E050E8402F920132
:107AFA006FD2FD012781C8D12085318533D0265F19
:107B0A00BDD12289C1D12389BFD1248935892AD0FF
:107B1A002A5EB4D1268D378DB5D120A1B5D121A148
:107B2A0032A1B0D123A134A1ADD125A136A1AAD1C8
:107B3A0045A156A127A130A58E010E944149FD0108
:107B4A0021A5A2D122A5A0D123A59ED124A5BAD030
:107B5A00235D3F4FB4D0FD0121A9B1D1E7EFF4E590
:107B6A0030E0AAC195D29D010895192F73D02883B8
:107B7A0019830895A9D22697C801D901EFEFF4E530
:107B8A0030E0ACD04A835B836C837D8362D02C83E4
:107B9A001D83392F065E202F66D0255E60D0235EB6
:107BAA005CD02BD29C012B5D5ED02A5D58D0285D1B
:107BBA0056D0265D58D0255D48D023D1FC0143A577
:107BCA0054A59C01235D49D00E94A94950D000F9CF
:107BDA004DD001F94BD002F949D003F947D004F945
:107BEA0045D005F943D006F907A70F7707A79C01E7
:107BFA00205D33D04BD28C010D58C9D2FC0143A56C
:107C0A0054A525A536A508810F941718F6D0FC01AE
:107C1A0005A716A723A534A5F0D0020F131F085FE6
:107C2A00B6D20FEC13E420E001AB12AB23ABFD019B
:107C3A000481FC0103838C010E94B6BBEDEFF4E5DD
:107C4A0030E042D02696E4E084C23F4F8E010E5FB8
:107C5A0008951B2F295F1F4F0895F7DFFCCFFDDF23
:107C6A0053D19C010895F9DF11D2FBCF07A7B5D0F4
:107C7A00FC0100FB07A50895BA93AA93249709016A
:107C8A00E5E0F5E530E024D0312D295F3F4F288328
:107C9A003983D801D49674E061E050E8F801438151
:107CAA0029E030E080012FD22D910CD008D0E3E0FA
:107CBA00F5E530E009D02496A991B99108958E018D
:107CCA000C942449FCD04FCF3BBF079116910895DD
:107CDA0005D0488359836A837B8308953BBF4791C4
:107CEA0057916791769108950E94CB25269769014D
:107CFA00E9E0F5E530E03BBFA790B69086EA1D2D96
:107D0A00E5D1860160D12C831D830E94D843202FA0
:107D1A00212B09F44CC0D8011A96380126E1620ECB
:107D2A0020E0721E480126E2820E20E0921E0F5FBA
:107D3A001F4F280152D00C935BD00183128358D075
:107D4A00038314834AD00F70FD0105833ED14BD0C3
:107D5A00068380E003C057D0F30139D0FD010681C4
:107D6A00801733D1C0F33FD0018780E004C02DD102
:107D7A004AD0F4012CD0FD0101858017C0F305EC2F
:107D8A0013E420E0F201058316832783A383B483D7
:107D9A00E381FB2F67827086F2010381F481E02F71
:107DAA008286938682010E94DCC6F201808571E098
:107DBA0033D1F601448125E030E08601A4D1282F91
:107DCA0045DF08D185012696EEE00C94DC25E00D0E
:107DDA00F11D20833183839508959E0137DF1F4F5C
:107DEA0055D1088108950E5F1F4F50D1088148C0B0
:107DFA009E018E0105D001D043C0088119810895E2
:107E0A000E5F1F4F81C0FCDF2881398102E0809F0D
:107E1A0008950E94D1252497D8012901EBE0F5E5C0
:107E2A0030E03BBF67907690152DA0DE82014AD0E4
:107E3A000E9406B5C8017CE1EBD025E030E0820162
:107E4A0062D183D00E943949FC01208538D0FC01D7
:107E5A002185328517D0238517D00385033031F465
:107E6A009D01245F0BD024892AD003C0248535853F
:107E7A000FD183012496E8E00C94E2253F4FA2D16A
:107E8A00FD01089505D1FCCF1AD0FACF64D03ED0B7
:107E9A00EDE0F5E530E03BBF4790569066DE8C0199
:107EAA0011D00E94AFB27CE06ED1FD01258907D0C6
:107EBA0082012496E6E001C0B2D00C94E4258E013A
:107ECA000C940C4980D02A831B839D0117D0285F0C
:107EDA00DBD09D01275F16D09D01255FD5D0FD011E
:107EEA00038503309D0131F4245F3F4F07D02C5E98
:107EFA00CBD002C0245F06D08D0108958E010E9466
:107F0A007C4931CE3F4F8E010C9457492497D801B2
:107F1A00C901089520D02C971BD09E012C5F3F4F9A
:107F2A006BD011D00E94964910D00C5F1F4F0E944F
:107F3A00E4C9D801922F76E062D0EFE0F5E530E0AF
:107F4A00C3DE2C96B7CF40E150E09C018E01089524
:107F5A00C8012901DEC00C94D325FDDF2797D9017A
:107F6A00E1E1F5E530E03BBF4790569072DE2B83A6
:107F7A001C838D0128D02D831E8327D00D5F41DFFE
:107F8A003CDF2A810E940ACAC801FD01448100E03F
:107F9A000883082F012B11F001E0088378E03CD018
:107FAA0025E130E08D01AFD028818E010D5F12D01E
:107FBA00082F092B29F0C7DF0D5F1F4F0E94414987
:107FCA008201279677CF095F46CE9E01BFCF30E068
:107FDA008C0199C01F4F74CFBEDF2497B9DF9C0173
:107FEA000BD08C010E94AAC9D801922F7AE007D03F
:067FFA00E3E1F5E530E0D3
:1080000060CF8E010C947C4908D026E030E08201DC
:108010007FD02A2F9B2B392F40C003D0F2014481FF
:10802000089561E050EC089586D0E6E0089572D09E
:108030009C012ED09C016CDFFC010081118122810A
:108040000E9468CBC8017EE0BED0E5E1F5E530E0F6
:1080500084C03FD060DF62D09D011AD09D0158DFFF
:108060000D911D912C9112970E9429CA0D931D9379
:108070002C93129770E174D027E0AEDFFD012281CE
:1080800023DF2D913C9109D0E7E1F5E530E065C0B3
:108090002E5F3F4F8E010C9449498E010C94194973
:1080A00018D02497C801D901EBE1F5E530E015DEE1
:1080B0001B2F11D0202F392F2BDF22D000811181CF
:1080C00022810E94B1CA72E11FD0E9E1F5E530E0FA
:1080D00044C00C94D525C3DD2A831B8308951AD090
:1080E000FC01208131818DDF0BD022810081118143
:1080F0000E9450CA74E108D0EFE1F5E530E02DC0F0
:108100009C01C6DFFC01089565D024E030E08D01BC
:108110000C949039DEDF2497C801D9018901095FE9
:108120001F4F088319838901095F1F4F0A83D5CF29
:1081300002D0E4E008953BBF07911691249608957C
:108140002ED0A9DFFD0100810E9463CC76E108D02A
:1081500024E042DFE1E2F5E530E0EADF0C94E625D9
:1081600060DFFC015CCF1BD04DDF8D010E94CBCACC
:10817000A02F8C01095F10D08C012ADF0A831B839A
:1081800078E106D02A2FA0DEE3E2F5E530E0E5CF86
:10819000E7DF25E030E021CF1F4F0883EECC99DFE9
:1081A0002497D801C901BADF9D01D5CE92DF24976B
:1081B000D901B4DF0E947FDBC8017AE104D0E5E297
:1081C000F5E530E0CACF06D02CE0A0DF9C018E019F
:1081D0000C94394926DFFD0122CF0ED00E948F7208
:1081E000C80177E095D02CE046D062D00E94394992
:1081F000E8EEF5E530E04DC084D05DD059D00E9466
:108200005749FC010081118108959DD00E947C494D
:108210008D010E946772D80171E08ED026E090D067
:108220002D913C918E010E941949EAEEF5E530E06E
:1082300030C0BA93AA9328973ED00E9499B00C837D
:108240001D832E833F8375E064E050EC14964C91BF
:10825000149728E010D09E012C5F3F4F8E010E94A2
:108260002449ECEEF5E530E03BBF079116912896E6
:10827000A991B991089530E08D010C94903944D0C2
:108280001AD00E946A6FC80179E00CD0EEEEF5E5D5
:1082900030E002D00C94E6253BBF0791169124965E
:1082A000E4E0089535D026E0E6DF02D00C941949C9
:1082B0009C018E010895D9018901095F1F4F088330
:1082C00019838901095F1F4F0A831B83089519D001
:1082D000F2DF40E150E0ECDF0E9496499C01205F14
:1082E0003F4F8E010E944949FC0120898C010E9468
:1082F0003CA77BE00DD024E0BEDFE0EFF5E530E009
:10830000C8CF02D0C80108950E94D52524970895AA
:1083100064E050ECFD014481089515D00E94494964
:10832000FD0100810E9478A77DE006D024E008D0FE
:10833000E2EFF5E530E0ADCF64E050ECFC01EBCFCF
:1083400030E08C019ACFE0DFD801C901B5DF9D0193
:10835000B0CF0E94D3252497D801C901E1E1F6E509
:1083600030E03BBF47905690192F295F1F4F28835D
:1083700019838C01095F1F4F2A831B839D01A5D0A0
:108380000D911C9111970E94454AFD0102831383B0
:1083900096D011970E94624A71E060E050ECFC01B7
:1083A0004481FD0122813381285F3F4F8C010E946F
:1083B00090392D913C9111972CD0FD012281338170
:1083C00028D077D039F0319759F0329771F034973F
:1083D00081F013C0FD0124818E010E940C4910C060
:1083E000FD012481358115D00BC00FD00E94244996
:1083F00007C00BD00E94394903C007D00E944149F1
:1084000082012496E6E00C94E42514969D018E01E9
:1084100008958E010C9419490E94D3252497D80100
:108420002901E3E1F6E530E03BBF87919691E5E174
:10843000F6E53BBF47915791679176914883598301
:108440006A837B83152D295F1F4F2A831B83202F6F
:108450003B2F3BD09D012E5F3F4F37D02AD039F0C4
:10846000319749F0329759F0349769F010C030D005
:108470000E9449490FC02CD00E9457490BC028D0F8
:108480000E94654907C024D00E947C4903C020D0C7
:108490000E94964914D00E94814A73E060E050EC3B
:1084A000F201448124E030E082010E9490398C0185
:1084B000A8CFFD0142815381FA01319708959D01B2
:1084C0002C5F3F4F0D911C9108958E010C945749DC
:1084D0009D012C5F3F4F9BCFBA93AA932397402FC8
:1084E00010E0188319831A83023070F403E050E01F
:1084F0000E94BD24E9E1F6E530E0E00FF11F03E062
:1085000010E0DE010F942418088119812A81239636
:10851000A991B99108950E94D5252497D801C90140
:1085200046D09D018E010E947C498D010E94A65C6F
:10853000A02F8C0134D08C013DD071E065E050EC6F
:10854000FC01448125E030E08C0127D02A2F8E01E8
:108550000E940C49E9E0F6E530E026D00C94E625CF
:108560000E94D5252497D90122D00E94A35CC8017E
:108570008D0115D08D011ED073E065E050ECFD013A
:1085800044812CE030E08D0108D09C018E010E94D6
:108590003949EBE0F6E530E0E0CF0C949039095F23
:1085A0001F4F0883198308954DD0E4E00895890191
:1085B000F6DF8901095F1F4F0A831B830895BA9371
:1085C000AA93EFE4F4E000831183F90104813FD022
:1085D000038300E03CD0078307E918E320E037D0AD
:1085E000058716872787EFE4F4E0008111810E9458
:1085F000C251EDE0F6E530E03BBF07911691A9913D
:10860000B9910895BA93AA9324978901295F3F4F9E
:10861000288339839801295F3F4F2A833B8375E084
:1086200065E050E814D0438126E030E0B6DF0FD09B
:10863000238534858E010E941949EFE0F6E530E08C
:1086400001D0DDCF3BBF0791169124960895AFE48A
:10865000B4E0ED91FC910895BA93AA932C97D901B7
:108660008901095F1F4F088319838901095F1F4F23
:108670000A831B838E010C5F1F4F0E94CE3571E071
:1086800069E050EC14964C9114972CE030E08D0189
:108690000E9490399E012C5F3F4F8E010E94394904
:1086A000E4E3F6E530E03BBF079116912C96A991E3
:1086B000B9910895BA93AA932397402F10E0188395
:1086C00019831A83043070F403E050E00E94BD2443
:1086D000E4EFF5E530E0E00FF11F03E010E0DE012C
:1086E0000F942418088119812A812396A991B991A0
:1086F00008950E944B4A0C941E340E94A4380E9494
:10870000EF430E949F480E941F460C94B338BA93CF
:10871000AA932397402F10E0188319831A830230FD
:1087200070F403E050E00E94BD24EFE1F6E530E094
:10873000E00FF11F03E010E0DE010F942418088120
:1087400019812A812396A991B9910895BA93AA9380
:108750002397402F10E0188319831A830D3170F48A
:1087600003E050E00E94BD24ECECF3E530E0E00FC4
:10877000F11F03E010E0DE010F9424180881198135
:108780002A812396A991B991089520E02A932A93EA
:1087900047E65DE360E0980100E80C94633920E06F
:1087A0002A932A9341E45EE360E004531040F3CF40
:1087B00040E050E006E310E00E94BD24E1E5F4E073
:1087C000E00FF11F0081002321F401E000838F01FD
:1087D00008954395433068F300E010E0089500E009
:1087E000009317050895402F37D0E7E1F5E0108199
:1087F000102B10832FB7F894EBE4F2E00081118185
:108800001260118300832FBF089500911705002384
:1088100011F120E001C02395422F1ED010911705C1
:108820001023C9F3E7E1F5E0108110271083422FF0
:1088300050E003E010E00E94BD24F801E659FD4F2E
:10884000008111812281F8012CBF19950091170533
:10885000002309F0CFDF089501E010E00C94C72455
:10886000BA93AA932397402F10E0188319831A8391
:10887000023170F403E050E00E94BD24EFE5F4E51E
:1088800030E0E00FF11F03E010E0DE010F94241848
:10889000088119812A812396A991B9910895BA93E3
:1088A000AA9300917302013099F4A2E8B2E0ED912D
:1088B000FC9100E007838F01095F1F4F40855185C0
:1088C0006285FA016CBF199500E00093730227D00E
:1088D000E3CF38D04BE356E360E031C0075010409F
:1088E000980100E808952ED04CE556E360E004516D
:1088F000F6DF26C027D042E856E360E020C0E3E779
:10890000F2E021E020830787108B02E310E0078369
:1089100010871187128731968F010D94240F00E084
:108920000A930A9346EA56E360E024E832E000E85E
:1089300007C008D048ED56E360E0D2DF01C0CEDFCB
:108940000C94633920E02A932A930895FBDF4BEFC0
:1089500057E360E00C5ECCCFF5DF40E857E360E022
:10896000ECCFF0DF4BE857E360E0E7CF0895BA9330
:10897000AA9306E912E051D1A0E0B5E008EC00931B
:10898000FE0400E00093FF040093150509E110E0E8
:108990000D931C93169606E00093020510930305B1
:1089A000109304050AE20E94A74816D008E011E0DF
:1089B00013D022D011960BE215E420E00DD02D93B8
:1089C0000BEB16E420E008D02C9391978D010F94C7
:1089D000D810A991B99108950D931D930895BA9354
:1089E000AA93ABE8B2E01BD121F00D9111970E9440
:1089F000D04802D008D1EDCF00E00D930C93119632
:108A00000D930C930895A901980103EF14E00D94C0
:108A1000BE11229700E110E00883198308811981B3
:108A2000EAE8F3E0008311830091FE040F94431001
:108A3000229608950FEFEAE8F3E0008301832FB751
:108A4000F894EBE4F2E0008111810260118300836D
:108A50002FBF0D9456100E94D5252297C801ABE870
:108A6000B2E01AC00D911C911197028313830AE2A0
:108A7000C0D000919502C1D042E050E09E01FD01BE
:108A8000028113810F941718FD01028113810E5F7B
:108A90001F4F02831383019710919102082F092B16
:108AA00009F493C0112369F01A95C1F01A95F9F0F1
:108AB0001A9511F11A9509F450C01A9509F45CC081
:108AC0008BC0B2D00CF461C0009193020A3219F746
:108AD00000E00093920201E096D0DDCF41E050E04B
:108AE00025E932E0A5D00CF450C002E0F5CF03E058
:108AF0008AD09AD084F649C004E088D09E0198D0EC
:108B00000CF443C038810091930208833983FD013E
:108B1000048335830230304011F40BE20CC0009125
:108B20009502007C003411F400E405C0003C11F40F
:108B300000EC01C00AE20E94A7480D931C93119714
:108B4000012B39F052D00C5F1F4F0930114008F44F
:108B500089CF02E0009392029ECF05E057D024E92E
:108B600032E066D094F05BD019F00091940241D0CD
:108B700001973BD035D090CFFD012481358189010B
:108B80002FD0232B59F050D01CF406E03CD024C049
:108B900046D019F0009193022CD0019726D0012BDA
:108BA00009F07ACF38D02D913C9111971091940211
:108BB000009192020E94034700E00D930C931197DD
:108BC000FD0102830383068367CF112329F023D09D
:108BD0001B968D010F94240F2296E4E00C94E62559
:108BE00001501040048315830895FD01048115810F
:108BF0000895E0918D02F0918E020193E0938D0231
:108C0000F0938E02089500939102089500939102CB
:108C100041E050E0089506E912E00D94490F0D91EE
:108C20001C911197012B089541E050E023E932E0B7
:108C300003EF14E00F943E120130104008954CE20F
:108C400050E020E030E006EE1CE00F9452188ED188
:108C500001E00093F50C04EF11E020E0E1EFFCE00F
:108C600022D00EE418E420E0E6EFFCE081D022837D
:108C700003E00093E80C09EF1CE00F94490F01E0BA
:108C80000093030D08EB1BE020E0EFEFFCE00BD0BE
:108C900008E618E420E0E4E0FDE06AD022830E94C8
:108CA000B74401E068C100831183228323830895C0
:108CB000D2D011F001E0089500E0089556D09BD085
:108CC0000E94D0489BD0EDCF9A938A9328970E9418
:108CD000B6448AD00A9529F00250C9F00A95B9F035
:108CE0000EC08BD1082F092B51F0D8D0002339F4B6
:108CF00000E11DE00E94843203968C0126D0E0E161
:108D0000FDE079D0012B09F07DD1289673C1009147
:108D10000F0D0023A1F360D061D05D836E837F834C
:108D2000E7E0FDE064D04481558166817781FE01F2
:108D30000E94222648F700E000930F0D55D0033023
:108D400011F4ACD1E2CFBFD1E0CFA2D10DD010D081
:108D500011D10A2FD0D112968D919C911397049620
:108D60009C018D018ED178C1D801E9EEFCE0089517
:108D70000083118308958CD1289774D1002309F0C2
:108D800044D10091160507FF06C00F7703950093A5
:108D9000160502E038D128D0013011F42FD01AC0C6
:108DA0000230C1F403E0E7D060D1A2D1003471F405
:108DB000E1EFFCE01CD040E011D04D834E834F83A7
:108DC0000BD0FE010E94EF25D9D004C00BEE1CE0B1
:108DD0000F94240F289640C10D946C0F08831983BB
:108DE0002A833B834C8308950091E60C089503D0B9
:108DF00022813381089500811181089500E0B5DF5B
:108E00000083018308950E94D425D801C90102304E
:108E1000B9F0232B89F0082F132F78D1402E8C0125
:108E200086D1F8010081401639F461D149F413D09C
:108E300049F08C013FD006C0A1E08C010E94D048CF
:108E40008D010DD0AA2321F452D111F08C01A3D0B1
:108E5000E5E00C94E52589DFCEDF012B089518D1DC
:108E6000902F812FFCD0D8019801182F092F17D0EF
:108E700015D0002341F076D001600083B5DF0230C9
:108E800061F0C3D00AC006D1E6E1F5E000810068D8
:108E90000083FD01EFD08D01F4D0DEC009CF4AE29E
:108EA000F901408342E050E04283538314830183FD
:108EB000890121C10E94D42557DF8081918117D17A
:108EC00019F44424439401C04424E8DF442039F4D5
:108ED000FD010481FC011481011709F042C00091D9
:108EE0000F0D002321F000E000930F0D01C03ED0D4
:108EF00003E00093E80CFD0101810370D9F03AD042
:108F00001181012F0370013061F4442011F0EAD087
:108F100015C0FC01A281B38114969D018C01B1D0D2
:108F200020C01230F1F405E026D009EF1CE00F94C8
:108F3000240F17C0442021F015D00860008311C011
:108F4000D6D0003469F404E016D046DF0053184F41
:108F50002F4F3F4F4F4F5F4F6F4F7F4F0FD001C08D
:108F6000ADDE76CFE7EEFCE0008108950BEE1CE06D
:108F70000D94490F02E00093E60C0895E7E0FDE050
:108F800000831183228333834483558366837783ED
:108F900001E0008738C0BA93AA93F8012181207CB0
:108FA000203C41F4248161D03481231729F420E04E
:108FB00020930F0D0E943C3AA991B99108959A937C
:108FC0008A9398012350304018D0F80191D0003C8A
:108FD00061F4082F092B49F000E0E0E1FDE0008397
:108FE00001838F010E945F329C0100E11DE00E941D
:108FF0005F3208D0899199910895E0E1FDE0808188
:109000009181089501E00C94F34342D02BD000FFEE
:1090100014C025D0AADEA081B181AADEE7EEFCE073
:1090200020812E7F2083E6E1F5E0208120682083E7
:10903000F80129D026D02ED00FC017D001FF05C0CF
:1090400019D01ED08FDF0D7F00830CD003FF04C02A
:1090500035DE88DF077F0083E4E00C94E6250CE230
:109060000C94A7480091E70C0895A9EEBCE0ED919F
:10907000FC910895228133812C5F3F4F089503D0E6
:109080008F010C9403458281938104969C0108957D
:109090000C94D5256ADEA083B1830895F9DF009191
:1090A000E80C002371F00A950093E80C63DFDADF27
:1090B000002321F002600093E70C04C0D6DFDFDF5D
:1090C00001C001D0C9CF20E030E002E30C9413329C
:1090D000DFDFCBDF4FDF0CD019F404D0008301C0F9
:1090E000CEDFBACFE7EEFCE0008102600895FC011C
:1090F0000181007C0895CCDFC801012B31F0082FDD
:1091000016D0D8018C0102D00C93A6CF392F482F4E
:10911000F801208182819381039603C001813196F9
:1091200020270197D9F7022F842F932F0895F80154
:1091300022813381020F131F0D5F1F4F08954EECE4
:1091400057E020E030E008E115E00D94521820E0EF
:1091500030E00B3219F40EE115E008950C3219F4E9
:1091600008E115E00895003411F0003C71F440E08E
:1091700000912605002309F041E032D09F01205FD5
:109180003F4F01E0078789010895003811F00A3246
:10919000D1F742E035D089F343954630A0F7FACFB6
:1091A000980115E008313107D1F015E00E31310793
:1091B00009F4089540E014D08F01035F1F4F20177A
:1091C000310750F08F01085A1E4F2017310720F445
:1091D000578702E00C94F3434395463060F30895BB
:1091E00016D0E7E1F5E0E00FF11F089542E008D066
:1091F00011F401E0089543954630C8F300E0089566
:1092000006D0F801E95EFA4F07850023089550E083
:109210000BE411E00C94BD243B2F4A2F11D02C936A
:10922000008111810F5F1F4F00831183A42FB32F83
:109230000895AD0105D02D933C9314D0DA01089523
:10924000F801A081B18108950D01F901408151819A
:1092500062817381F5DF4D935D936D937C9302D0B2
:10926000D0010895008111810E5F1F4F008311838B
:109270000895BD01D80157D01197F9014AD0DB01FB
:1092800008950E94D525D801CA014DD058D00C941C
:10929000E6255B2F6A2FF801A281B3814C91F90179
:1092A000408326D00F5F0DD0A62FB52F0895BD01A6
:1092B0001AD05C91F901408351831AD00E5F01D01E
:1092C000DECF1F4F0283138308950D010CD05D91F3
:1092D0006D917C91F901408351836283738308D03F
:1092E0000C5FEFDFBDCFF801A281B3814D910895EE
:1092F000F8010281138108957B2F2A2ED80112963E
:109300006D91FC9111978901E62F03D0A22DB72F03
:10931000089548E050E00E94AA2505D0085F1F4F3D
:109320001C930E9308950D911C9108950E94D525CC
:10933000D8018901CA0112962D913C91A7CF1197AE
:109340000F941718F0DF080F191F1C930E93E4E019
:109350000895F80162817381F90160837183C8DF28
:10936000040F151FAFCFBA93AA932397402F10E095
:10937000188319831A830A3070F403E050E00E94C6
:10938000BD24E1E9F5E530E0E00FF11F03E010E076
:10939000DE010F942418088119812A812396A9914E
:1093A000B991089540E050E060E001501040A9F00C
:1093B0000350104051F00250104059F00B51104032
:1093C00081F00551104089F013C04BEB5BE360E086
:1093D0000FC04CE85CE360E00BC047EF5AE360E08D
:1093E00007C049E35DE360E003C048E65BE360E09B
:1093F0008A01262F0895BA93AA93AEE1BDE049E30E
:1094000050E020E030E08D010F94521810E091966A
:109410001D931D931D931D931D931D931D931C93CD
:1094200005E00093490D01E00093510D07E0009322
:109430004A0D0EE8E6E6FCE430E0A7E5BDE023D007
:1094400003E110E0E4EFFCE430E0A5EEBDE01BD06A
:109450000FE110E0E7E0FDE430E0A8EFBDE013D05D
:109460000AE410E0E6E2FDE430E0A7E1BEE00BD064
:109470004AE452E120E030E001E61EE00F94521889
:10948000A991B99108950D942418259718D00B81AE
:109490001C81259608950E94FB490C945B2F4DD0AA
:1094A000B12FC9010CD0A0E0A030B24011F006E00D
:1094B00048D008811981FC010083118331C09801D3
:1094C0008E0146C033D011F400E03BD0E0E0F92F2C
:1094D000309621F0E050F14049F010C04B815C81A2
:1094E000288139818D010F9417180AC00B811C81C6
:1094F000E881F9813A810F94241802C001E021D05B
:109500000FC014D011F404E01CD0992311F005E031
:1095100018D04B815C819D01088119810F94171827
:1095200002D00C94E6252596E4E0089506D0912F0C
:10953000D901C5DF0A2F0B2B08950E94D525259749
:10954000089510E6E3E3F4E0008311830C945E33A6
:10955000F4DFC801D901FE0140E025E041932A95DE
:10956000E9F74A2F50E02AD00E94BD24A801A0E0CC
:10957000109639F0A050B14049F0A050B14059F0D8
:1095800014C01CD0EBEAFDE430E009C017D0E6E3DC
:10959000FFE430E004C012D0E1E2F0E530E0E40F97
:1095A000F51FDE010F94241802C00AE0CADF8C0107
:1095B000FE0145E050E00E94AA25B2CF05E010E090
:1095C0000895E9E3F1E00081016000830AE00F946F
:1095D000360808E000934201009141010F71083004
:1095E000D9F70F94550D0F94510D0F94500D01E0C4
:1095F00008959A938A9382E000917621013019F4BC
:1096000001E00093AB2000917621002389F400E073
:10961000009347019FB7F8942CE830E001E00F94E5
:10962000590D9FBF002329F000E00093742101C071
:1096300081E0082F8991999108950E94D425B02F37
:10964000A0E080E00E943B51402E00917621013045
:1096500019F401E00093AB20009176210023C1F5BD
:109660009B2FB33009F498E03CD0013169F40F949A
:10967000730D24E630E000E00F94590D02E00093F2
:1096800074212CD001E027C02CD0083011F004E068
:1096900001C009E00093420124D0093029F4B93116
:1096A00051F40F94530D09C00EE60F9436088395BC
:1096B000833090F30EC00F94520DB093420111D03D
:1096C0009017E9F7909375210FEF00934F0101C0B8
:1096D000A1E004D00A2FE5E00C94E525042D0C94BC
:1096E0003851009141010F710895F80140814A9568
:1096F0002091410120E00BC030E0F801E20FF31FA0
:109700003081E22FF0E0E058FE4F3083239524179C
:1097100098F302E00093420108950E94D525219715
:1097200080E020917621213019F421E02093AB20B4
:1097300020917621222309F0B6C0D8011196F801B4
:109740000081045809F461C00C5609F49CC0025011
:1097500009F491C00E5091F0025099F10A9509F464
:1097600048C00C5409F467C00A9509F454C003506A
:1097700009F459C00C5109F464C096C09091480195
:1097800000914801007E11811F71012B0093480157
:10979000A5D09BD061F4088196D0109145011F702F
:1097A000101710F497D08AD00E94E74C7DC09F71AB
:1097B0009A3109F079C00E94E94C8CD00091AD201B
:1097C0000FC00C9180D00093AD200F70902F7DD0F2
:1097D00049F484D008811C91011724F474D07AD004
:1097E0006DD062C000914501007F092B00934501B7
:1097F0005BC0109148011F7901810295007F000F25
:109800000076102B109348014FC00091490151D0B0
:109810000093490149C0FD0100810093620101816B
:109820000093630141C0FD0100810093600101814B
:109830000093610139C000916F013BD000936F012B
:1098400033C0FD0100810093640101810093650133
:1098500002810093660103810093670104810093F4
:109860006801058100936901068100936A010781FF
:1098700000936B0119C00181EEE6F1E000FB00816D
:1098800003F9008311C00181002329F00E943B519C
:109890000093AC2009C00FEF00934F010091AC2062
:1098A0000E94385101C081E0082F2196E4E00C9419
:1098B000E625007F11811F70012B08950F70102B7A
:1098C0001093450108950C94324D009148010F7199
:1098D0000A31089510914501107F08959E010CE40E
:1098E00010E00C94624A2997E9E3F1E000810160FD
:1098F0000083009141010F710830D9F700E0009317
:10990000AB200093762108E0009375210F94510D50
:109910000F94500DEEE6F1E0008100620083EEE46A
:1099200000810860008300810064008300914B0D7A
:10993000098300E028D00091500D098302E023D074
:109940000091510D098303E01ED000914A0D098357
:1099500004E819D00091520D098304E014D0ECE41E
:10996000F1E0008100680083ECE600810F70008365
:109970000081017F00830E94A35CF80100810093B5
:109980006D012996089508838E010C948D4B012F4B
:10999000089511D071F4003111F401E001C000E02C
:1099A000209144012F7E0295007F202B20934401BB
:1099B00001C011E0ECCF10E020917621213019F4A4
:1099C00021E02093AB20209176212223089500E10D
:1099D000E0CF00E0FDCF023011F00130B9F420916A
:1099E0004D012C7F102F1370212B20934D01EDE49E
:1099F000F1E01081146010831091B402187F000F01
:109A00000670102B1093B40200E008950FEF089534
:109A100010914D0113700091B402077E110F110FC8
:109A2000110F012B0093B40208950091B402069522
:109A3000069506950370089500914D0107FF02C039
:109A400001E001C002E01091B4021F790295007F8D
:109A5000000F102B1093B40210FD03C0116010937F
:109A6000B402089516E0033014F010E035C002305F
:109A700011F412E031C0013011F414E02DC00023C4
:109A800059F10F3F11F417E027C00E3F11F418E011
:109A900023C00D3F11F419E01FC00C3F11F41AE070
:109AA0001BC00B3F11F00A3F11F41BE015C0093F2A
:109AB00011F0083F11F41CE00FC0073F11F0063F02
:109AC00011F41DE009C0202F225F243010F41EE0A5
:109AD00003C0023F0CF41FE0012F08950E94D5251A
:109AE000D80180E00E943B51902F009176210130F7
:109AF00019F401E00093AB2000917621002341F599
:109B000010915101107FFD0103810F70102B1093F4
:109B10005101038104FF02C001E001C000E0E1E562
:109B2000F1E000FB008104F9008305E00F943608A2
:109B30000091510105FF08C0FD018483E1E5F1E0DA
:109B400000810064008305C001E0FD01048301C0C1
:109B500081E0092F0E943851082FE4E00C94E6259B
:109B60000E94D025380155240E943B51902F00912E
:109B70007621013019F401E00093AB2000917621A9
:109B8000002309F067C044247DD0013169F40F94AB
:109B9000730D24E630E000E00F94590D02E00093CD
:109BA00074216DD001E068C0EDE4F1E0B081B3FB59
:109BB000B0E0B0F90081077F0083809141018F718F
:109BC0006BD0883019F40BE90F9436085FD006E0AB
:109BD00064D058D00630E9F7A0E01FC004E0802E22
:109BE00001E00F943608440C440C009146010295A4
:109BF0000F7006950370402A8A9491F7F30101854E
:109C00001285202F212B21F00A0F151DF80140820B
:109C1000F301338543863487A395F3010085A017AC
:109C2000E8F200914D01077FBB0FBB0FBB0F0B2B61
:109C300000934D01883041F02FD028D006E12DD07F
:109C400021D00631E9F707C008E027D00FEF0093D5
:109C50004F0101C05394F3010781002359F0EFE451
:109C6000F1E0008103FF06C00081086000830081ED
:109C700003FDFDCF04D0052DE9E00C94E125092F6B
:109C80000C943851009141010F71089500914101E8
:109C90000F710930D9F7089509E000934201089542
:109CA0008A9380E00E943B5110917621113019F483
:109CB00011E01093AB2010917621112349F52ED09D
:109CC000183041F023E020934201209141012F718F
:109CD0002830D9F7E8E5F1E0208120682083208151
:109CE00027FDFDCF183069F019E01093420116D01E
:109CF0001930E9F716E11093420110D01631E9F757
:109D000003C018E0109342011FEF10934F0101C0F0
:109D100081E00E943851082F8991089510914101E6
:109D20001F7108951DD039F4FC0115812381F48140
:109D3000E22F108301C0A1E00ED00C94E72510D0D3
:109D400041F4FC012381F481E22F1081FC01128790
:109D500001C0A1E0F1CF0E9438510A2FE3E008953D
:109D60000E94D625C801A0E00E943B5110917621A7
:109D7000113019F411E01093AB20109176211123CA
:109D800008950D01BC01F901108300E0D90111967D
:109D9000412F50E0812F90E00196E02FF0E0E05855
