:100000000C949F260C94CEEF0C94FAEF0C9426F0EF
:100010000C9452F00C947EF00C94AAF00C94D6F050
:100020000C9402F10C942EF10C945AF10C94E626E7
:100030000C94E6260C94DFEB0C94E6260C9435EC3D
:100040000C94E6260C94E6260C94E6260C94E62600
:100050000C94E6260C94E6260C94E6260C94E626F0
:100060000C9485F20C9498EE0C943BEE0C946AEE92
:100070000C94E6260C9416F20C94EDF10C94E62602
:100080000C94E6260C94E6260C94E6260C94E626C0
:100090000C9432EF0C94D5EE0C9404EF0C9486F192
:1000A0000C94E6260C94E6260C94D7DD0C943AE0EA
:1000B0000C94E6260C94E6260C94E6260C94E62690
:1000C0000C94E6260C94E6260C94E6260C94E62680
:1000D0000C94E6260C94E6260C94E6260C94E62670
:1000E0000C94E6260C94E6260C94E6260C94E62660
:1000F0000C9496E00C94E6260C94E6260C94BEE054
:100100000C94E6260C94E6260C94E6260C94E6263F
:100110000C94E6260C94E6260C94E6260C94E6E075
:100120000C94E6260C94E6260C94E6260C94E6261F
:100130000C94E62600000000000000000000000013
:1001400000000000000000000000000000000000AF
:10015000000000000000000000000000000000009F
:10016000000000000000000000000000000000008F
:10017000000000000000000000000000000000007F
:10440000620E16001900550C030018009107BD003C
:104410001700041301001600B81308001500451317
:10442000010014003C1302001300A8130100260031
:104430004B1301001E003B1301000F00C2130100CB
:104440000E00AC1301000D00B41302000C000513A4
:1044500001000B00FF1202000A00221311000900E4
:1044600018130100080017130100070016130100BC
:104470000600A91301000500B21301000400FA129E
:1044800004000300331308000200F81201000100C9
:10449000DC1208000000744712002E009847150037
:1044A0002D00C24719002C00F44704002A00FC47E5
:1044B00011002900194F364E574F574F574F3B4E5B
:1044C000454E574F574F4D4E524E7A4E834E574F93
:1044D000884E904E9A4E574FA34EA84E574FB14E0E
:1044E000EC4EFE4E574FF14EF94E194F194F194FE2
:1044F000104F104F104F104F104F104F104F104FC4
:10450000104F104F104F104F104F104F104F104FB3
:10451000104FC44E104F574F574F574F574F574F8D
:10452000574F574F574F574F574F574F574F574F5B
:10453000574F104F0B4F194F104FBE4E034F1B4F8D
:10454000194F324F404F474F194F194F194FB35022
:104550002050FA50FA50FA5026502B50CE50FA50B4
:104560002E50315042504750FA504A504D50505002
:10457000FA5055505850CE505D50A750BC50FA508C
:10458000AA50AD502450B050B050CE50CE50CE5066
:10459000CE50CE50CE50CE50CE50CE50CE50CE502B
:1045A000CE50CE50CE50CE50CE50CE508D50CE505C
:1045B000FA50FA50FA50FA50FA50FA50FA50FA50AB
:1045C000FA50FA50FA50FA50FA50FA50CE50C450FD
:1045D000C750CE508550BF50D650DF50D950DC5018
:1045E000FA50ED50F250F850FF5101520C52035264
:1045F000055207520952DE510F521152DE51145228
:1046000069526C527052735277527B527E52825270
:104610008252DE561C571C571C57E5560257F3565C
:10462000FA562D57EC560957095710571C5724575F
:10463000285788578B578E578E5790579A579457AD
:104640009757A75792579D579F57A157A4579059CF
:104650009359B45996599A59B4599E59B459A9596C
:10466000AC59B2591B5DC85DD75DD65C1E5E1E5E3F
:10467000D35DD75DDC5D0A5EF35D1E5E1E5E0A5E85
:10468000095D0C5E24962C964396B596B5960C96CD
:104690001996B596B596B596639672968F969B9633
:1046A000B59609963796D595A29AA29ACB99D399A1
:1046B000D399E099E099FD99FD99FD995B9A5B9AF0
:1046C0005B9AF69AA29AA1A8F3A8C7A8CBA8CBA8F0
:1046D000CBA8CBA8CBA8CFA8CFA82EBC31BCD2BC2E
:1046E000D2BC36BCD2BC40BC29BD29BD29BD29BD28
:1046F00029BD29BD29BD29BD29BDD2BCD2BC29BD3A
:1047000029BC3BBCD2BCAFC7FDC7FDC7FDC7FDC7B9
:10471000FDC7ECC7D6C7F4C7FDC7E6C7FDC7F0C7DE
:10472000F8C7D3C9AECA8BCBB6CBF5CB21CD6ACDFA
:104730004CD34CD34CD34CD34CD34CD34CD34CD381
:104740004CD3A1CCAFCC4CD34CD3D6CC6DCB54D521
:104750005CD56ED577D579D57BD57DD580D553D62B
:10476000CBD6CBD679D682D692D69BD69ED6A1D69C
:10477000A4D6AAD600000100020003000400050030
:1047800006000700080009000A000B000C000D00DD
:104790000E000F001E0018000000010002000300C0
:1047A0000400050006000700080009000A000B00CD
:1047B0000C000D000E000F001E0013001400150069
:1047C00016000000010002000300040005000600BE
:1047D0000700080009000A000B000C000D000E0085
:1047E0000F001E001300140015001600170018001B
:1047F0001900260013001400150016000000010027
:10480000020003000400050006000700080009007C
:104810000A000B000C000D000E000F001E00FA0530
:10482000000091070000EB0600004E08000085071D
:1048300000000000000078080000E20D00003A0EC1
:1048400000008C0B0000DE0B0000A80B0000150C14
:104850000000580C00009C0D00000000000000004B
:104860000000550C0000620E000000000000000077
:104870000000000000000000000000000000000038
:104880000000000000000000000000000000000028
:104890000000000000000000000000000000000018
:1048A0000000780E0000A00E00007F060000A64A5F
:1048B0000200AA4A0100AD4A0100AB4A0200B04A18
:1048C0000100B14A0100B24A0100B34A0100B44AF2
:1048D0000100B54A0100B64A0200AE4A0200B84AD9
:1048E0000100B94A0100D24A0200C34A0100C44A89
:1048F0000100C54A0100CE4A0400BA4A0100BB4A81
:104900000400BF4A0100C04A0100CA4A0100CB4A64
:104910000100CC4A0200000000000000000000007E
:104920000000000000000000000000000000000087
:104930000000000000000000000000000000000077
:10494000000000000000C14A0100C24A0100D44A30
:104950000100D54A0100D64A0100D74A01000000F3
:104960000000C64A0400A84A0200DC120800E61251
:104970000100F4120400F8120100FA120400B0134E
:104980000100B1130100B8130800B41302003C1376
:10499000020045130100AC130100C2130100B21361
:1049A00001000113010002130100031301000413AD
:1049B0000100FF1202000513010006130100AE13EF
:1049C0000100AD130100B7120100B812010033134A
:1049D0000800191304000E13040012130400161328
:1049E0000100171301001813010022131100A9136D
:1049F00001001D1301001E130400A6120100B912CC
:104A000002003B130100FE12010000000000000044
:104A10000000A712010000000000000000000000DC
:104A20000000000000000000000000000000000086
:104A30000000000000000000000000000000000076
:104A40000000071305000C1301000D130100000006
:104A50000000000000000000000000000000000056
:104A600000000000000000000000E812010000004B
:104A70000000000000000000000000000000000036
:104A80000000000000000000000000000000000026
:104A900000000000000000000000F9120100EE120A
:104AA0000100E712010085006C000100000705000D
:104AB00007040205040204000308FF1400000001BB
:104AC00008030303020A901A00000100000000001E
:104AD0000303141061620003001E000003F4008051
:104AE0000000013412000303000002000000000077
:104AF00003034C1D000010270000010001E8030023
:104B00000004E80300001041746D656C2020202033
:104B10002020202020202007CAAAAAAAAAAA1A0078
:104B2000020301000000000000000000000000007F
:104B3000000005FF00000000000000000000000071
:104B40000000000000000000000000000000000065
:104B50000000000000000000000000000000000055
:104B60000000000000000000000000000000000045
:104B70000000000000000000000000000000000035
:104B80000000000000000000000000000000000025
:104B90000000000000000000000000000000000015
:104BA0000000000002010002020508080000FFFFEB
:104BB00034120000000000000000020201E03F3F4C
:104BC00045000000000000000000000000025E7CC4
:104BD0003C770107A697E8710101A697E8710101EA
:104BE0001D7C4F8F0101A27BAE9E0101A27B7D9EA9
:104BF0000107577BD8710101FF7ACA8401010000C7
:104C00000000010700000000010100000000010396
:104C10000000D26901040000D26901050000000013
:104C2000010600000000010D000000000101A69730
:104C30000000000100000000010E0000000001075C
:104C400000000000010A0000000001000000000058
:104C50000101000000000101000000000000000050
:104C6000C57500090000C575000C0000C575000081
:104C70000000C575006078327E659529A865749B33
:104C80009B75791B7AEB72D8802187FE75D79EFCC5
:104C9000786A735372000000001D72A0800000004B
:104CA000008767976A1D68F267166800008E679C28
:104CB000670B6895678D6A456789699069FF6981A7
:104CC0006924680000E76A0201020303020201018D
:104CD00001010101010101020201010102010202BF
:104CE00002020202010202020202020103030202A4
:104CF0000360A68C9C4395BF9D0000C2A4428E79A0
:104D0000A900000000ABB6C6BB81C58EBE5CD360F7
:104D1000C448E248E248E248E2BAE382E10BF3B079
:104D2000EBEBDE29DE45EAE5ECE9E976E8F1E64978
:104D3000E29BE3C7E4DAE299E3C5E4D8E200112498
:104D400080912418823159F084B780FD04C08F719E
:104D50008093241807C081E08093241803C081E168
:104D60008093241814BE8091600088618093600055
:104D700010926000E5E2F8E18DEC01C0819390E7CC
:104D8000E030F907D9F3D0F311241FBEC0E0D0E71B
:104D9000DEBFCDBF00E00CBF12E0A0E0B2E0EAEA67
:104DA000FAEE01E00BBF02C007900D92A63EB107DC
:104DB000D9F728E1A6EEB2E001C01D92A432B207F5
:104DC000E1F70E94AC300E94C230FDCF0C9400008D
:104DD0007F937FB7F8949D9AA5988AEF4DD08AEF7C
:104DE0004BD09D9886E448D081E0959980E08F93E0
:104DF00080EF42D08F917FBF7F9108957F937FB7DF
:104E0000F8949D9AA59886E037D09D988AE034D092
:104E1000889495990894881F8F9384E62DD08F915C
:104E20007FBF7F9108959F937F9398E0E7DF8795F9
:104E300077959A959923D1F7872F7F919F91089520
:104E40007F937FB7F894A5989D9A8F9386E014D0AE
:104E50008F91879508F49D988F9384E60DD08F915C
:104E60009D987FBF7F9108959F9398E0E9DF9A9581
:104E70009923E1F79F9108950000000000000000D1
:104E80008A958823C9F708955F937F937FB7F89435
:104E9000CF93DF93C0E0D0E07F935091B200709148
:104EA000B2007517E1F3739521965091B200571730
:104EB000D9F77F91CE01DF91CF917FBF7F915F9135
:104EC0000895FC01878581110AC062E173E081E2E7
:104ED00090E00E94DB3181E00E940C3104C067E069
:104EE00087E992E056D12FB7F894809162049091AF
:104EF0006304906190936304809362042FBF0895CC
:104F000080E00C9418310895CF93DF93EC0180E09A
:104F10000E940C3181E795E00E94D0E16CA18EA146
:104F20009FA137D162E08CE992E033D1DF91CF913C
:104F30000895CF9380911303813009F445C048F15F
:104F4000823009F05BC081E090E09093F2028093A0
:104F5000F1029093F0028093EF028093EE02809131
:104F6000F302807F81608093F3028EEE92E0909353
:104F7000EA028093E90284E897E29093EC0280933E
:104F8000EB0286EE92E00E94C94083E08093130317
:104F900029C0D0D084EF91E0A0E0B0E08093770505
:104FA00090937805A0937905B0937A05C1E0C093FA
:104FB0007B0580E897E290937D0580937C050E94B5
:104FC0002431C09313030EC081E697E2909311033E
:104FD000809310038AEF92E00E94A8C482E080933D
:104FE00013030CC02FB7F89480916204909163046E
:104FF000906190936304809362042FBFCF910895D2
:105000000895089508950895CF92DF92FF920F9327
:105010001F93CF93DF93E42FF0E0F09010042AEF7A
:1050200030E02F1931092E173F0734F150910F044A
:1050300020E030E0EC01C60FD11D0AEF10E02E1782
:105040003F07ACF4852F90E0BC016C5E7C4F6B0198
:10505000BE01620F731FDB015C91D6015C932F5F71
:105060003F4F0196B8010E94D4F3582FE8CF5093D8
:105070000F04F40EF0921004DF91CF911F910F9165
:10508000FF90DF90CF9008951F93CF93DF931092FE
:1050900043041092440410911004112309F446C0F3
:1050A00080910E04E1E1F4E01333E0F4212F30E0CD
:1050B000CAEFD0E0AF0141515440421753075CF4AE
:1050C00090E0DC01AC5EBC4F4C9141930196BE0177
:1050D0000E94D4F3EFCF80930E04109343041092F8
:1050E000100418C02AEF30E090E0DC01AC5EBC4F49
:1050F0004C9141930196B9010E94D4F394E0E334BA
:10510000F90791F780930E0482E3809343041253CE
:105110001093100481E0809344044091430450E0D4
:1051200061E174E080E595E00E9430E5DF91CF9188
:105130001F91089588EC80935B0510925C0589E1CE
:1051400090E090935E0580935D0586E080935F0517
:10515000109260051092610510927005109265051D
:105160001092640510926705109266051092690509
:105170001092680510926B0510926A0584E498E21B
:1051800090936F0580936E0580E595E00C94D1E4D3
:105190000895462F20914404222319F060E034CF73
:1051A0000895FC01A1E1B4E0633370F4862F90E030
:1051B0009D0121513440281739071CF421912D936A
:1051C000F7CF409343040CC021912D9324E0A334E6
:1051D000B207D1F722E320934304425362E314DF82
:1051E00081E0809344044091430450E061E174E025
:1051F00080E595E00C9430E50895A2E0B0E0E3E0AE
:10520000F9E20C9458F46C010091C1051091C205AB
:10521000E12CF12C8091C5059091C605E816F906A0
:10522000A8F45801B8016C5F7F4F42E050E0CE0116
:1052300001960E941EF50A5F1F4F29813A812C15A5
:105240003D0539F08FEFE81AF80AE4CF80E090E0EE
:1052500001C0C5012296EAE00C9474F4ADE0B0E020
:10526000E4E3F9E20C945AF47C016B0123E0969597
:1052700087952A95E1F7FC01EF53FA4F228D30E034
:10528000B70167707727062E02C0369527950A94D6
:10529000E2F78E010F5F1F4F20FF42C027E0EBEDCA
:1052A000F5E0D80101900D922A95E1F7A0E020E009
:1052B00030E04A2F50E048175907D8F4F801E40FBE
:1052C000F51F4081542F569555754575540F452F40
:1052D0004695469543735373450F4083E42FEF7013
:1052E00042954F7050E04E0F511D240F351FAF5F98
:1052F000E0CFE0E0D801A80FB91F4E2F50E04617CD
:10530000570780F44C9150E00E2E02C056954795F9
:105310000A94E2F741705527240F351FEF5FEDCF58
:105320002FEF3FEF1B870A8746E0429FC001439F54
:10533000900D112404969987888786E090E09D87D8
:105340008C8760EE7AE2CE01089672D18D819E81C3
:10535000E816F90639F084E090EA9093F505809319
:10536000F405E1D589819A81F601918380832D9698
:10537000E8E00C9476F4A6E0B0E0E1ECF9E20C94FD
:105380005CF47C018B0180E090E0FC0133E0F69559
:10539000E7953A95E1F7EE0DFF1D6081AC0147708E
:1053A0005527262F30E0042E02C0369527950A9403
:1053B000E2F720FF0DC021E030E001C0220F4A9546
:1053C000EAF720952623208318DF009731F431C0B7
:1053D000019683339105C9F62CC046E050E0BC012C
:1053E000CE0101960E941EF589819A81F80193836E
:1053F0008283B8018D819E8131DFF80180819181A6
:105400000596918380838B819C819583848382819F
:105410009381892B39F480E090EA9093F50580938D
:10542000F40581D58D819E81F7019087878381E086
:1054300006C08FEF9FEFF7019087878380E0269665
:10544000E6E00C9478F4A8E0B0E0E9E2FAE20C942B
:1054500056F47C01A090C305B090C405FC01868180
:1054600082FD09C000E010E0812C76E0972ECC246C
:10547000C394D12C0CC047E050E06FEF70E0C7013F
:105480000E944EF56DC0882483940F5F1F4F80915A
:10549000C7059091C8050817190708F05BC0909ED2
:1054A000B001919E700D11246A0D7B1D46E050E005
:1054B000CE0101960E941EF52D813E81F90163E027
:1054C000F695E7956A95E1F7EE0DFF1D408127708F
:1054D0003327842F90E0022E02C0969587950A9478
:1054E000E2F780FFD2CFC60102C0880F991F2A952C
:1054F000E2F79C01209524232083812C882D90E0C5
:105500002B813C818217930708F0BDCF880F991F2C
:1055100069817A81680F791F42E050E0CE010796D9
:105520000E941EF58F819885FC0153E0F695E79562
:105530005A95E1F7EE0DFF1D87709927960102C07D
:10554000220F331F8A95E2F7C9019081982B90832F
:105550008394D4CF882021F000E010E0812C97CFF5
:105560002896ECE00C9472F4CF93DF93EC018FEF6C
:105570009FEF98878F8387E0FB01DE0101900D92FA
:105580008A95E1F7CE015FDFEBEDF5E0919188813F
:105590008923899385E0E23EF807C1F7DF91CF9137
:1055A00008958091EF059091F005A7C2089510929B
:1055B000EC0581ED9AE29093EE058093ED05089558
:1055C0000895E4EDF5E0DC013D91CD012081232B30
:1055D0002193B5E0EB3DFB07B1F78091F1058460C5
:1055E0008093F10508950E946FE8882311F0DFD5BC
:1055F000FACF0895A2E0B0E0E0E0FBE20C945EF4A4
:105600008B0189839A83EFDFB80189819A810E9497
:1056100092E7019631F08AE2003E180721F4E3DFB9
:1056200002C081E001C080E02296E4E00C947AF4AC
:10563000A2E0B0E0EEE1FBE20C945EF48B01898322
:105640009A83D1DFB80189819A810E941FE7019670
:1056500031F08AE2003E180721F4C5DF02C081E084
:1056600001C080E02296E4E00C947AF4A2E1B0E07C
:10567000ECE3FBE20C9453F48091F105982F9260D7
:105680009093F10582FF0AC064ED75E085E494E033
:105690006BDF8091F1058B7F8093F105CC24C3945F
:1056A000D12C7E013DE0E30EF11C55E0A52EB12C7E
:1056B0004E0182E1880E911CBE01695F7F4F85E437
:1056C00094E059DE882309F462C060904C04709025
:1056D0004D04F30163E0F695E7956A95E1F7EF5322
:1056E000FA4FC30187709927960102C0220F331F1A
:1056F0008A95E2F7C901809593898923838BFC827F
:10570000EB82BE82AD828F81988505979A838983CB
:1057100060EE7AE2CE0101968BDF4B855C85698570
:105720007A8580E05ED0582E8D8558123AC08889DF
:10573000998968167906A9F52B853C858E859F8504
:105740002817390771F59C828B82DE82CD8200E0BA
:1057500010E02B853C850217130708F0ADCF2F8191
:105760003885200F311F3A83298360EE7AE2CE011B
:1057700001965EDFAB81BC81E985FA85E00FF11F00
:105780009C91808198130DC00F5F1F4FE2CF8091D5
:10579000F1058D7F8093F10560E070E08FE001D22C
:1057A0001CC05D86798A688A8B859C859F878E87D9
:1057B000FC82EB8285E090E09E838D838F819885CB
:1057C00005979A83898366E37BE2CE01079612DF11
:1057D00060EE7AE2CE0101960DDF6296EFE00C9466
:1057E0006FF4FB01460F571FE417F50719F091916D
:1057F000890FFACF08954F925F927F928F929F9276
:10580000AF92BF92CF92DF92EF92FF920F931F93CE
:10581000CF93DF93CDB7DEB762970FB6F894DEBFB4
:105820000FBECDBF80E094E49093C2058093C10584
:1058300086E994E49093C4058093C30506E914E4D3
:1058400000501444C80166E070E00E94C0F3892B48
:1058500039F080E290EA9093F5058093F40563D3E4
:1058600026E030E0C801B9010E94C0F34091C505AF
:105870005091C605642B752B7093C6056093C505C2
:1058800004EB14E406591444C801B9010E94C0F3A2
:10589000892B39F081E290EA9093F5058093F40525
:1058A00042D3C80166E070E00E94C0F38091C70552
:1058B0009091C805682B792B7093C8056093C70534
:1058C0000091C1051091C2051092C9051092CA0538
:1058D0001092CB051092CC0587E0EBEDF5E0DF01EF
:1058E0001D928A95E9F7D12CEE24E394F12C809156
:1058F000C5059091C6052D2D30E028173907C8F54C
:1059000046E050E0B801CE0101960E941EF52B81C1
:105910003C812B5F3F4F8091C9059091CA05A091B2
:10592000CB05B091CC05820F931FA11DB11D8093B3
:10593000C9059093CA05A093CB05B093CC058D8182
:105940009E81FC0133E0F695E7953A95E1F7EF5338
:10595000FA4F87709927970102C0220F331F8A954B
:10596000E2F7C901928D982B928F0A5F1F4FD39453
:10597000BECF26E0289F6001299FD00C112434E07F
:10598000C30ED11CE12CF12CCE010796988B8F878A
:1059900086E090E09A8B898BA12CB12C00E010E07E
:1059A00096E0792E22E2822E20EA922EF80183E000
:1059B000F695E7958A95E1F7EF53FA4F828D90E0DF
:1059C00098012770332702C0969587952A95E2F7AC
:1059D00080FF41C07A9CC0017B9C900D11240496ED
:1059E0009E878D8760EE7AE2CE010D9621DE8B8553
:1059F0009C858017910749F48F819885A985BA8580
:105A00008C159D05AE05BF0559F01C870B87CF820D
:105A1000D886E986FA8660EE7AE2CE010D96EADD56
:105A2000C801EBDB2C01009729F49092F5058092D8
:105A3000F40579D246E050E0B201CE0101960E9411
:105A40001EF58B819C810596C80ED91EE11CF11CA8
:105A50008FEFA81AB80A0F5F1F4F0333110509F023
:105A6000A5CFA5DD62960FB6F894DEBF0FBECDBF01
:105A7000DF91CF911F910F91FF90EF90DF90CF902A
:105A8000BF90AF909F908F907F905F904F900895C0
:105A900020E0FC013191CF01311105C02F5F27308B
:105AA000C1F780E0089581E0089527E0FB0111929D
:105AB0002A95E9F7FC0123E0F695E7952A95E1F7A9
:105AC000E60FF71F8770992721E030E001C0220F11
:105AD0008A95EAF78081822B8083CB01B4CC08952C
:105AE000ABEDB5E0FC013D9120812323219325E01E
:105AF000A23EB207C1F7CCCF0895A7E0B0E0E3E83B
:105B0000FDE20C945FF4BE016F5F7F4FCEDFCE01EC
:105B10000196E6DFCE010196BBDF182F882339F00E
:105B2000CE0101964EDD8091F10581FF9FDD812F31
:105B30002796E3E00C947BF408950895A2E0B0E08A
:105B4000E4EAFDE20C9460F480914E048823E9F0CD
:105B5000BE016F5F7F4F81E290E02DD4BE016E5F8A
:105B60007F4F8DE190E027D48981823071F48A8162
:105B700081110BC08DE99DE29093570480935604E8
:105B80008FE494E00E943CC102C00E943EDF229656
:105B9000E2E00C947CF480914E0408950C946EEA3B
:105BA0000895A0E0B0E0E7EDFDE20C9458F4B82EC3
:105BB0007B01082F10E093E0169507959A95E1F781
:105BC0008770C1E0D0E001C0CC0F8A95EAF7AC2E17
:105BD0008FE38B1538F484E090E89093F50580937B
:105BE000F405A1D1F801E85AFB4F80818C2311F113
:105BF000C0916004D091610485E0C82E80E8D82E61
:105C00002097C1F0FE01E00FF11F82818A2171F01F
:105C10002A853B85232B29F4D092F505C092F40503
:105C200082D1EA85FB85B7018B2D19950990D88122
:105C3000C02DE6CFCDB7DEB7EAE00C9474F4E82FC0
:105C4000F0E023E0F695E7952A95E1F7E85AFB4F57
:105C5000208130E0877041E050E002C0440F551FC2
:105C60008A95E2F72423352381E0232B09F480E091
:105C70000895282F30E043E0369527954A95E1F7BF
:105C8000620F731F877021E030E001C0220F8A95F8
:105C9000EAF7FB019281922381E009F480E0089504
:105CA0001F93CF93DF93182FEB01803438F023E05C
:105CB00030E83093F5052093F40535D1BE01812FEE
:105CC000D8DF81112AC0BE0180E694E09AD081110C
:105CD0000BC088E0FE013296DF011D928A95E9F73C
:105CE000BE0180E694E09DD0412F50E063E05695E0
:105CF00047956A95E1F7177021E030E001C0220F67
:105D00001A95EAF7C40FD51F8A81822B8A83FA017C
:105D1000E85AFB4F8081822B8083DF91CF911F91C6
:105D200008951F93CF93DF93182FEB01803438F041
:105D300023E030E83093F5052093F405F4D0BE015C
:105D4000812F97DF882369F1212F30E073E03695AA
:105D500027957A95E1F7177041E050E0012E01C0D8
:105D6000440F0A94EAF7942F9095C20FD31F8A81AB
:105D700089238A83E0916004F0916104309759F09F
:105D8000DF01A20FB31F12968C91842351F401906E
:105D9000F081E02DF3CFF901E85AFB4F8081892390
:105DA0008083DF91CF911F910895DC01ED91FC91EB
:105DB0001197309721F0208131812D933C93CF01B1
:105DC000089561157105A1F0DC01ED91FC91119729
:105DD000E617F70759F4208131812D933C930FC0CA
:105DE000808191818617970729F0FC013097C1F7D0
:105DF00080E00895DB018D919C919183808381E007
:105E00000895DC01ED91FC91309739F0E617F70722
:105E100031F00190F081E02DF7CF80E0089581E02E
:105E200008950F931F93CF93DF938C01EB01E9DF6C
:105E3000882349F080E090E89093F5058093F4057D
:105E40005AD080E014C019821882D801ED91FC91DB
:105E50001197309719F4CD93DC9308C0808191811C
:105E6000009711F0FC01FACFD183C08381E0DF916C
:105E7000CF911F910F910895CF93DF93FC01828101
:105E80009381009781F40E9422E2C22FD32F0E94B7
:105E9000FF5044E0FC0121913191CF01C227D3276B
:105EA0004150C1F7CE010E9413F581E080930602B4
:105EB0008EE092E00E94D0E1DF91CF91089580E0E2
:105EC00092E00C947051089580910602882369F045
:105ED0008EE092E00E9400E28CE39FE290930D023C
:105EE00080930C0210920602EACF08958EE092E0B1
:105EF0000C9400E2089582E090E09093F70580937F
:105F0000F6058091F4059091F5059093F90580933D
:105F1000F805E091F205F091F305309719F086EF5E
:105F200095E01995089583E090E09093F7058093AC
:105F3000F6058091F4059091F5059093F90580930D
:105F4000F805E091F205F091F305309719F086EF2E
:105F500095E019950895EF920F93FC016183728388
:105F60004F3740F081E090E89093F5058093F40579
:105F7000C2DF20C0403808F04FE7440F80818170B5
:105F80000187842BE0FA80F9808334832383CB015B
:105F9000AC016081669504962181328174E0679F2F
:105FA000200D311D11244217530720F4DC011197F5
:105FB0001C92EECF0F91EF900895A0E0B0E0E3EED9
:105FC000FFE20C9459F4EC018B01B42E0E9422E202
:105FD00069017A018D819E81AF81B885A701960103
:105FE000281B390B4A0B5B0BCA01B9012B813C8181
:105FF00040E050E00E94E7F32F3F31054105510595
:1060000018F42223F9F001C02FEF89819A81BC0195
:1060100038813695049649815A81E4E03E9F400DCF
:10602000511D11246417750748F4FC013291432F68
:10603000231708F4422F341B3083E9CFCD82DE8250
:10604000EF82F886A981BA814881842F86959D01C7
:1060500054E0859F200D311D1124C901E0E0F0E0DE
:10606000A817B907C0F413965C911397552359F0FC
:106070002D913C9111972017310729F412962C91FC
:1060800012972B15C1F0309719F02381521708F49D
:10609000FD011496E5CF40FD06C0309771F0838175
:1060A00081110BC002C0309751F011830083B2827E
:1060B0008985838304C080E003C082E001C081E061
:1060C000CDB7DEB7E9E00C9475F4FECE08950895DF
:1060D000CF93DF9360911B0270911C0280E090E0EF
:1060E000E1E0F0E09F01082E02C0220F331F0A9466
:1060F000E2F7409162045091630446235723422300
:106100005323452B11F16FB7F894409162045091DD
:106110006304209530952423352330936304209322
:1061200062046FBFFC01EE0FFF1FE156FD4FC081FF
:10613000D181209739F486E090E89093F50580931B
:10614000F405F1DEFE01199504C001968F3091052A
:1061500049F6DF91CF9108950E94C9DF0E948CB06B
:10616000882371F02FB7F8948091620490916304B2
:10617000806190936304809362042FBF81E008954F
:1061800082E00895A5DF60E070E08BE20ADD809197
:10619000620490916304892B09F4D0DC209162049D
:1061A0003091630481E0232B09F480E0089590CFBF
:1061B0000895FC012081211105C021E02193CF0128
:1061C0000C94D0E10895FC012081213021F411923A
:1061D000CF010C9400E20895A5E0B0E0E2EFF0E317
:1061E0000C945CF47C012A833B834C835D8369833C
:1061F000EADFF7011082698163872A813B814C8144
:106200005D812783308741875287158704872596CC
:10621000E6E00C9478F40895813031F018F0823083
:1062200029F008952F9A08952E9A08952C9A08958A
:10623000813031F018F0823029F008952F980895B8
:106240002E9808952C980895279A269A249A2F9884
:1062500081E0EEDF82E0ECDF80E0089589E3EBEBA4
:10626000F2E1DF011D928A95E9F7ECEDF2E191E0B0
:1062700090838AE081831282138287E0848315826F
:106280001682178225E02093E6129093EE128093F7
:10629000E71247E850E066E37BE48CE393E10E9479
:1062A0001EF543E150E063E27BE488EA92E10E945C
:1062B0001EF543E050E060E27BE485EA92E10E9453
:1062C0001EF548E450E068ED7AE484EF92E10E9424
:1062D0001EF58BEA9CE0EAEFF5E0DF019C011D92E0
:1062E00021503040E1F70895A4E0B0E0EAE7F1E39F
:1062F0000C9460F4BC011A8219821C821B828827CC
:10630000811521E0920769F0811522E09207B9F02A
:10631000892BE9F4660F771F660F771F6659764B56
:1063200007C07727660F771F660F771F6255774B79
:1063300044E050E0CE0101960E941EF50FC0772781
:10634000660F771F660F771F625E774BF1CF8AE08B
:1063500090E69093F5058093F405E5DD69817A81F7
:106360008B819C812496E2E00C947CF477DF43CA15
:106370000895A4E0B0E0EFEBF1E30C945CF47C0151
:106380008B01B2DFEE24E11422E0F20669F026E090
:1063900030E63093F5052093F40569837A838B8387
:1063A0009C83C1DD7A816981F801718360832496C1
:1063B000E6E00C9478F4A4E0B0E0E1EEF1E30C94B4
:1063C0005CF48C017B0190DFE114F10479F420E0AE
:1063D00030E63093F5052093F40569837A838B8347
:1063E0009C83A1DD9C818B817A81698100270115C5
:1063F000110549F0011521E0120751F4AC01C70164
:106400000E941EF50CC0AC01C7010E9434F507C004
:1064100081E090E69093F5058093F40584DD249661
:10642000E6E00C9478F4A0E0B0E0E9E1F2E30C944B
:106430005AF48C01EB0158DF6B017C01209739F491
:1064400084E090E69093F5058093F4056CDD0027D9
:106450000115110539F085E090E69093F5058093DC
:10646000F40561DDA701BE01C6010E9434F5CDB778
:10647000DEB7E8E00C9476F4FC0195A5892F8870CE
:1064800090FF09C0882379F081E021A532A522364A
:10649000310550F408C0882331F081E021A532A5F0
:1064A0002436310508F480E08170089521E030E061
:1064B00001C0220F8A95EAF780916704822B8093AE
:1064C00067042FB7F894809162049091630480620E
:1064D00090936304809362042FBF0895CF93DF935A
:1064E000E091C813F091C9138E179F0718F482E842
:1064F00094E446C08E1B9F0B6CE670E00E94C0F3D4
:106500008091C313681718F083E894E439C08CE6CF
:10651000689FE00DF11D11248781869590E08230FF
:10652000910559F014F00397D1F58091C713882392
:10653000B1F181508093C71332C08091C613882374
:1065400019F081508093C613DF01AC5ABF4FCD9133
:10655000DC912091CB133091CC13CE01821B930B95
:1065600063E270E00E94C0F3C217D30718F484E816
:1065700094E406C08091C413681740F085E894E461
:106580009093F5058093F405B6DC0CC0D90183E245
:10659000689FA00DB11D11248C9181111C928781DF
:1065A0008E7F8783DF91CF910895CF93DF93EC01A6
:1065B00018A68EA19FA1892B39F484E494E49093CA
:1065C000F5058093F405AFDCEEA1FFA1CE0188961E
:1065D0001995DF91CF910895EF92FF920F931F933A
:1065E000CF93DF93A091C3134091C8135091C91367
:1065F00020E030E090E09A1709F45AC0FA01E20F67
:10660000F31FB90164597F4FB781B0FD63C07F01AB
:1066100094E5E90EF11CD7011D921C928230B1F075
:1066200010F08330F1F59091C7134091C513941782
:1066300008F03EC09F5F9093C713138214821582A7
:10664000168290859F709087128235C01091C61374
:106650009091C413191760F50091CA134091CB13A0
:106660005091CC1390E09017B9F0EA014D5D5F4F67
:10667000BA0163527109DB016C9161110BC01F5F9C
:106680001093C61341E048836896D701CD93DC93FD
:10669000428302C09F5FE7CF4091CA1349130BC0EA
:1066A00007C081E894E49093F5058093F4053BDC02
:1066B00080E090E012C09085907F9087880F816085
:1066C0008783118210828091C8139091C913820F21
:1066D000931F03C09F5F9B018ECFCDB7DEB7E6E06F
:1066E0000C9478F420917804215020937804BC0114
:1066F00082E994E096DB81E0D9CE0F931F93CF938C
:10670000DF938C01C0916804D09169048091640486
:106710009091650480519140813F954048F4B801C3
:1067200088E694E07EDBCD2B59F480E0BFDE08C024
:1067300083E694E49093F5058093F405F4DBEFCFC2
:10674000DF91CF911F910F910895BC0161517109A3
:1067500084E994E066DB81E0A9CE209178042F5F84
:10676000209378040C9406916F927F929F92AF923F
:10677000BF92CF92DF92EF92FF920F931F93CF932E
:10678000DF931F92CDB7DEB78C017B01FB01E25A8C
:10679000FF4F82E793E3918380833E9782E080837B
:1067A000D80159968D919C915A9731969183808307
:1067B0009E968C919E973796808331961082319663
:1067C0009D968C919D978095881F8827881F808330
:1067D000319681E08083319680839D968C919D9740
:1067E00086FD0BC021E059968D919C915A97883F68
:1067F0009F4F08F020E0822F01C081E0F701E35AAB
:10680000FF4F81708083C80137DEF701ED5AFF4FDB
:106810006F0197012C5A3F4F3901882309F442C078
:106820009090751440917614242F30E08091791463
:1068300090E001972817390739F4D80199968C917F
:10684000499D80191124982EA92CB12CC5014E9672
:106850008236910538F081E594E49093F5058093B4
:10686000F40561DB309175142091761480918B14BE
:1068700090918C14F80163A574A5329F600D711D71
:106880001124A5014E960E9434F58AE0890DD601A7
:106890008C9380918B1490918C144496F301918386
:1068A00080830EC0D80199968C919997885F8083D8
:1068B0009B968D919C919C970897D9018D939C9361
:1068C000F301C080D180D6012C912C7F2F7E2C9398
:1068D000F801818D928D237F883F9F4F10F02860B3
:1068E000D6012C93F60180818F7D8083D8019D96FF
:1068F0009C9192FD03C08F7B808322C08064F6014F
:106900008083D70118962C911897207F21601896C4
:106910002C93C8012983B0DD29812F70882341F091
:1069200080917B148295807F822BF701808708C03D
:106930008091A6128295807F822BD70118968C9326
:10694000C8019ADDF60190818823A1F090689083B8
:106950009091761480858C7F911106C0816080872C
:1069600080917914818709C0826080878091761434
:10697000818703C09F77F6019083D80193968C910D
:106980009397F601818396968D919C919797938327
:10699000828394968D919C91959795838483989604
:1069A0008C918683C80168DD882331F080917A1448
:1069B000D60117968C9308C080918F0491E0980FB0
:1069C00090938F04F6018783C7010996C6DE80E0A5
:1069D0000F90DF91CF911F910F91FF90EF90DF907B
:1069E000CF90BF90AF909F907F906F900895E0916F
:1069F0008914F0918A14BF0180819181B5CEE8E6B7
:106A0000F4E1F0933914E093381492E09093341445
:106A10002091DB133091DC1330933614209335141E
:106A20009BE09093371410923C1410923D1491E027
:106A300090933E1490933F141092401425E637E350
:106A40003093431420934214909341149081907892
:106A50009260906890839091E213909369142091D2
:106A6000DE133091DF1330936B1420936A1420915E
:106A7000E0133091E11330936D1420936C149091D6
:106A8000DD1390936E149091E31390936F1492E042
:106A9000909370149091D913909371149091DA138C
:106AA0009093721490917314909351141092D41384
:106AB0001092D5131092D6131092D7138093CD1342
:106AC0008DEE93E14ACEA4E0B0E0E9E6F5E30C9464
:106AD0005EF4182FBE016F5F7F4F8AE190E06BDCA0
:106AE00020917D0430917E0440917F045091800478
:106AF000A12FB0E00E9440F409811A812B813C81D2
:106B0000600F711F821F931F2496E4E00C947AF4A7
:106B10000F931F93CF93DF93EC018C01075511095D
:106B2000FC013C970190F081E02D6FEF8181928113
:106B30000E942588882361F0FE01329782E793E363
:106B40009183808323971882C8010E94F69002C027
:106B5000CE01C8DDDF91CF911F910F9108956AECAE
:106B600073E180E191E027DC6BEC73E18EE092E071
:106B700000DC8091CB139091CC1320E03091CA13AC
:106B8000231748F4FC0133E2239FE00DF11D11248B
:106B900010822F5FF3CF63EC73E18FE091E00BDCA9
:106BA00068EC73E18DE092E0E4DB2091C313E091A7
:106BB000C813F091C91380E0821739F097819E7F46
:106BC00097838F5FE459FF4FF7CF9091CA1390934B
:106BD000C4138093C5131092C6131092C71365E7B0
:106BE00074E188E291E0E7DB63ED73E189E291E033
:106BF000E2DB62ED73E188E191E0DDDB8091D213AD
:106C0000882351F06EEC73E18FE092E0B2DB6BE829
:106C100074E180E192E0ADDB3091D2132091D31387
:106C20008091CE139091CF13329F800D911D11242E
:106C30009093D1138093D0131092CD13089569E9E6
:106C400074E082E192E095DB68E974E087E191E02D
:106C5000B2DB80919804E0919904F0919A04882322
:106C600049F0309739F489E294E49093F5058093E4
:106C7000F40541C99F0146E1849F200D311D112477
:106C8000C90128EAE817F90718F4258B7696FACF98
:106C900008951F93CF93DF93EC01162F0097B1F067
:106CA0008D819E81892B91F088E694E07ED81F83A8
:106CB000ED81FE81CE01079619958091680490912F
:106CC0006904892B59F080E0F1DB08C08BE694E47D
:106CD0009093F5058093F40526D9E6CFDF91CF9107
:106CE0001F910895A1E1B0E0E8E7F6E30C9450F4B9
:106CF0008C01262E29873A874B875C870E94CDDD41
:106D0000E091810429853A854B855C85EE2361F10C
:106D10003090C313C0908404D0908504E090860422
:106D2000F09087042B013C014C185D086E087F0829
:106D30004D825E826F827886E091C813F091C9130C
:106D4000198A66246A94762C430169827A828B823E
:106D50009C8246015701861A970AA80AB90A8D86AD
:106D60009E86AF86B88A0BC006EB17E3A3C0A78147
:106D7000A0FD09C0A989AF5FA98BE459FF4FB9896C
:106D8000B311F5CF40C0B085BF70B23099F7AA7F7C
:106D9000A23081F783809480A580B680811491040D
:106DA000A104B10439F3E017F10721F34D805E80AF
:106DB0006F807884481459046A047B0468F44D8415
:106DC0005E846F847888840C951CA61CB71C838213
:106DD0009482A582B68204C0138214821582168220
:106DE00083809480A580B68049805A806B807C80A7
:106DF00084149504A604B70408F0BCCF89829A8253
:106E0000AB82BC82B7CF211046C08090D413909043
:106E1000D513A090D613B090D71381149104A10478
:106E2000B104C9F12B013C014C185D086E087F08C4
:106E3000481459046A047B0488F4C80CD91CEA1C61
:106E4000FB1CC61AD70AE80AF90AC092D413D092DA
:106E5000D513E092D613F092D71308C01092D41332
:106E60001092D5131092D6131092D7138091D41389
:106E70009091D513A091D613B091D71349805A8021
:106E80006B807C8084159505A605B70520F4898361
:106E90009A83AB83BC8389819A81AB81BC8128179B
:106EA00039074A075B0710F4DA01C90106EB17E35B
:106EB0009C01AD0161E081E894E08ED981E894E025
:106EC00078D96196E2E10C946CF480917804815059
:106ED000809378048091CD13833009F43CC08230D4
:106EE00039F082E594E49093F5058093F4051BD87E
:106EF000E0917414EE2379F181E08093CD13A09199
:106F0000A712B0E011972AE030E00E943AF49B010A
:106F1000AC018091790490917A04A0917B04B091A6
:106F20007C04280F391F4A1F5B1FA091A612B0E0F6
:106F30000E9440F49B01AC016093D4137093D5136D
:106F40008093D6139093D713E150E093741461E0CB
:106F500080E090E0C7CE1092CD131092D41310921F
:106F6000D5131092D6131092D7130895A4E0B0E071
:106F7000ECEBF7E30C9458F42FEF3FEFA90110E08E
:106F8000AA24AA94B12C8091C313181708F054C0F6
:106F9000E091C813F091C9138CE6189FE00DF11D24
:106FA0001124678160FF46C07085872F8F70823003
:106FB00009F040C0862F8A7F8230E1F58381948179
:106FC000A581B681C0908804D0908904E0908A049D
:106FD000F0908B048C199D09AE09BF0983839483BB
:106FE000A583B6830097A105B105E9F4872F807FBB
:106FF000846080876E7F663059F4C5010090A712C7
:1070000002C0880F991F0A94E2F780958093781444
:1070100081E029833A834B835C8348DA29813A8172
:107020004B815C8107C082179307A407B50710F452
:107030009C01AD011F5FA7CF8091D4139091D51310
:10704000A091D613B091D7130097A105B10551F1C6
:10705000C0908804D0908904E0908A04F0908B045A
:107060008C199D09AE09BF098093D4139093D51351
:10707000A093D613B093D7130097A105B10559F487
:1070800082E029833A834B835C83B9DC29813A818E
:107090004B815C8107C082179307A407B50710F4E2
:1070A0009C01AD012F3FEFEF3E074E075E0751F009
:1070B00006EB17E361E081E894E08ED881E894E084
:1070C00078D803C081E894E07ED82496EAE00C9456
:1070D00074F4A0E0B0E0EFE6F8E30C9457F48C0110
:1070E000962EC0919904D0919A04809198046E01D3
:1070F00096E1899FC00CD11C1124F801858981116A
:1071000009C07E01F6E1EF0EF11C58018CE0A80EDB
:10711000B11C09C085E294E432C08A3A89F06696CF
:10712000F6E1EF0EF11CF801CC15DD0508F04AC0C0
:10713000908521853285F70131978081843A69F7FE
:10714000F7013E9780819813EACF89859A852817A1
:10715000390729F748E050E0B801CE010E9427F531
:10716000892BE9F6F8018385F7013B979081891314
:10717000D6CF813059F0833091F086E294E4909339
:10718000F5058093F4050E947B2F1DC0F80124852E
:1071900035858C859D852817390709F617C0F801B4
:1071A0009489F701329780819813B9CF48E050E075
:1071B000BE01645F7F4FC5010E9427F5892B09F04E
:1071C000AECF04C0958A80E090E001C0CE01CDB77B
:1071D000DEB7EBE00C9473F4CF93DF93EC010097F0
:1071E000B1F18AEA8D8B0E94FF5048E050E0BC016B
:1071F000CE010E9427F5892B51F582E88D8B888579
:1072000081508E3F20F58B858330C9F48C89815065
:107210008E3FE8F42C853D854E855F8568897989A8
:107220008A899B89A0E00E94BBF471F480E194E418
:107230009093F5058093F4050E947B2F08C0813060
:1072400019F086EA8D8B03C01D8A81E001C080E0C1
:10725000DF91CF910895CF93DF93EC01009761F117
:1072600069AB4115510551F0FA01408151816281AC
:1072700073814AAB5BAB6CAB7DAB04C01AAA1BAA93
:107280001CAA1DAAEFA5F8A9309749F484E594E457
:107290009093F5058093F4050E947B2F0DC0CE01DD
:1072A000C1961995CE01E8D8882331F010928A143E
:1072B0001092891481E0FAD8DF91CF910895A1E06E
:1072C000B0E0E5E6F9E30C945EF48C01FC0120816A
:1072D00031818091CB139091CC132817390740F45A
:1072E00087E494E49093F5058093F4050E94932F2E
:1072F000F801808191812091CB133091CC13821BB6
:10730000930B63E270E00E94C0F38091C41368178E
:1073100050F088E494E49093F5058093F405698334
:107320000E94932F69818091CB139091CC13F3E24B
:107330006F9F800D911D11242196E4E00C947AF446
:10734000FC0120814597211107C0BC0186E994E02A
:107350000E94112F81E0AAC840E050E069EA7BCF8B
:10736000A3E0B0E0E6EBF9E30C945EF48C01675F18
:107370007F4F7A836983BE016D5F7F4F8EE090E01F
:107380001AD88B81D80199965C91999740918F0476
:10739000882309F442C089819A81FC01E95BFF4F8F
:1073A00021E0208359962D913C915A973196318353
:1073B00020833296585F50839B96ED91FC919C9769
:1073C0009C01255B3F4F3897D901ED93FC938FEFDC
:1073D0008183D80196968D919C9197979383828310
:1073E00094968D919C9195979583848398968C9192
:1073F000868381E0840F80938F044783D901ED91C8
:10740000FC918081807888608F778083E981FA8120
:10741000EB5AFF4F82E793E344C089819A81FC01D4
:10742000E95BFF4F22E0208331962DEF3FEF318360
:1074300020833296575F5083D8019B96ED91FC9143
:107440009C979C01255B3F4F3997D901ED93FC93A5
:10745000D80159968D919C915A97928381839696E3
:107460008D919C9197979483838394968D919C9111
:1074700095979683858398968C91878381E0840F76
:1074800080938F044087D901ED91FC9180818078B1
:107490008C608F778083E981FA81EB5AFF4F88E80F
:1074A00095E391838083E981FA81D8019E968C913E
:1074B0009E97E15BFF4F8083E981FA81E05BFF4F9C
:1074C0008091A5128083E981FA81EF5AFF4F9D9642
:1074D0008C918095881F8827881F8083E981FA8195
:1074E000EE5AFF4F81E08083E981FA81ED5AFF4F28
:1074F0008083E981FA81EC5AFF4F808389819A81E8
:107500002CD980E02396E4E00C947AF4DC01ED9130
:10751000FC9190938A14809389141092761410929F
:1075200077148091A61280937B142091751430E01B
:1075300081A592A5B9010E94C0F3462F60937914EA
:1075400081A592A5B9010E94C0F3892B19F04F5F64
:10755000409379148FEF90E00090A71202C0880F3B
:10756000991F0A94E2F780958E7F8093781480911A
:107570008F0491E0980F90938F0480937A1408956C
:10758000A0E0B0E0E6ECFAE30C9457F4EC016B01F8
:10759000942E59010091990410919A0480919804B5
:1075A000780196E1899FE00CF11C1124209761F08D
:1075B000C017D107F0F583E294E49093F50580932A
:1075C000F4050E94932F35C0E801CE01801B910B7A
:1075D00066E170E00E94C0F3892B79F084E294E4C4
:1075E0009093F5058093F4050E94932F06C01D89A2
:1075F000143A39F01A3A29F06696CE15DF05B8F339
:1076000013C088859812F8CF89859A85C816D9063F
:1076100099F748E050E0B501CE010E9427F5892B8B
:1076200059F7143A49F703C080E090E004C0CE0156
:1076300002C06696CACFCDB7DEB7EBE00C9473F408
:107640004F925F927F928F929F92AF92BF92CF9212
:10765000DF92EF92FF920F931F93CF93DF931F92CE
:10766000CDB7DEB72C017B010E94FF506C015701A2
:107670008AE6A80EB11CF501008111814114510464
:1076800031F0E114F10419F0C114D10451F484E192
:1076900094E49093F5058093F4050E947B2F88EA8B
:1076A0005EC058EAF20166A177A1960140A5C80123
:1076B000598366DF8C015981009709F44FC0F201AC
:1076C00086899789892B19F5F8017384F3E07F1275
:1076D0001EC048018CE0880E911CC4010E94D8C0D5
:1076E000892BA9F4F2017286D2011D9688E0F4017B
:1076F00001900D928A95E1F780EC9BE3F201978B64
:10770000868BC20106960E94CDC080E028C0F5019C
:1077100011830083F80183858330B1F4C8010C968E
:107720000E94D8C0009711F459EABCCFF80124890F
:10773000F20123A3FC0180819181F201928F818F5C
:10774000B701C20111D80BC0F80184859585F201FB
:10775000928F818FB701C20103DE01C0852F0F9088
:10776000DF91CF911F910F91FF90EF90DF90CF901D
:10777000BF90AF909F908F907F905F904F900895B3
:10778000FF920F931F93CF93DF938C010551110943
:107790002091C313C091C813D091C913F12CF216D4
:1077A000E9F08F8180FF16C0888199818017910749
:1077B00089F4BE01C80144DF882381F040E050E035
:1077C000682FC80148DDCE010E946E3281E00E9420
:1077D000563204C0F394C459DF4FE1CF8091C313F4
:1077E000F81640F085E194E49093F5058093F40554
:1077F0000E94932FCDB7DEB7E5E00C9479F4EF92B9
:10780000FF921F93CF93DF931F921F92CDB7DEB7E6
:107810007B010097A1F06115710589F0FC01178AC1
:10782000168AF701E659FF4F11821082B70108DF6F
:10783000182F882389F0C7010E946E320DC023E102
:1078400034E43093F5052093F40589839A830E94EC
:10785000932F89819A81E2CF812F0F900F90DF9132
:10786000CF911F91FF90EF900895A1E0B0E0EBE37E
:10787000FCE30C945CF48C01262FDC01ED90FC9071
:10788000009709F444C0E114F10409F440C02E3C0F
:1078900061F0822F8F7D803D41F0213D11F082E02B
:1078A00005C0F70185A587FFFACF83E0F801EB5902
:1078B000FF4F4081518162817381D701D2964D93F0
:1078C0005D936D937C93D597D1962C93833071F013
:1078D000D801ED91FC91808D811108C0F701178AC4
:1078E000168AB801C701ACDE883AE1F4A7014E5C04
:1078F0005F4FD701D1966C91F80180819181ABDC0B
:10790000C8010E946E3281E00E9456320BC08FE4A3
:1079100094E49093F5058093F40529830E94932FB6
:107920002981B5CF2196E6E00C9478F4CF93DF93CC
:10793000EC0152DC882309F454C060E0CE01C9DBBD
:10794000892BC1F5209709F43EC08D8981113BC078
:10795000509198042091990430919A0440E0451781
:1079600081F0C9012A5E3F4FF90131976081683A81
:1079700031F424EAFC01258B009731F432C04F5FCB
:10798000EECF8EEA8D8B2DC0209719F03D893323E1
:1079900049F087E294E49093F5058093F4050E9402
:1079A0007B2F1AC036E1FE01DC0101900D923A9561
:1079B000E1F706C066EACE018CDB009791F024EA7D
:1079C000FC01258B09C080E294E49093F505809337
:1079D000F4050E94932FBCCF60E070E080E10E942C
:1079E000D12DDF91CF910895CF93DF93EC010097D4
:1079F000D9F08091990490919A04C817D907A0F002
:107A00002091980436E1239F800D911D1124C81701
:107A1000D90750F48D89843A11F08A3A71F488EAD2
:107A20008D8BDF91CF91089581E294E49093F505D9
:107A30008093F4050E94932FEDCF82E294E490931B
:107A4000F5058093F4050E94932FE9CFCF93DF9340
:107A5000EC01C2DB882359F064EACE013ADB0097DF
:107A600031F0C2DF60E070E080E10E94D12DDF9153
:107A7000CF9108952091990430919A04009751F084
:107A8000FC0176968091980496E1899F200D311D26
:107A9000112408C0F901F6CF8589843A49F08A3A61
:107AA00039F07696E217F307B8F380E090E0089596
:107AB000CF010895CF93DF93EC01BC0186E994E0F8
:107AC0000E94112F1F8A1E8A81E00E945632DF9188
:107AD000CF910895CF93DF93EC01BC0184E994E04A
:107AE0000E94112F1B8A1A8A81E00E945632DF9170
:107AF000CF910895AAE0B0E0E0E8FDE30C9456F4DD
:107B00001091E612BE01665F7F4F87E091E00E9410
:107B1000DB31BE016F5F7F4F8AE190E00E94DB3175
:107B2000C980DA80EB80FC80812F90E0A0E0B0E09B
:107B30008C159D05AE05BF0578F0CC0CDD1CEE1C48
:107B4000FF1CC982DA82EB82FC82BE016F5F7F4F2D
:107B50008AE190E00E941332C12ED12C87E0C80E3A
:107B6000D11CEE24D7FCE094FE2CC0927D04D09270
:107B70007E04E0927F04F09280042A8530E0A3E046
:107B8000B0E00E942BF49B01AC01C701B6010E943A
:107B9000A5F309811A812B813C81600F711F821F1F
:107BA000931F6093790470937A0480937B0490937D
:107BB0007C0481E08887BE01675F7F4F87E091E0AA
:107BC0000E94DB31BE01685F7F4F84E290E00E943B
:107BD000DB31898590E0A0E0B0E0880F991FAA1FF3
:107BE000BB1F8F3F9105A105B10529F020F08FEF54
:107BF00090E0A0E0B0E00E946335E885EE2309F450
:107C00005AC0812C912C54018B019C0101501E4FB4
:107C10002F4F3F4F800E911EA21EB31E660F771F7F
:107C2000881F991FE15081F718867501640129E0CA
:107C3000F694E794D794C7942A95D1F7D501C40157
:107C40009170AA27BB2741E050E060E070E0892BEB
:107C50008A2B8B2B19F440E050E0BA01C40ED51EDC
:107C6000E61EF71E1E821D821F82BE01695F7F4FC6
:107C700081E191E00E94DB31BE016B5F7F4F88E0C4
:107C800092E00E94B931970186010F3F110521054D
:107C9000310529F020F00FEF10E020E030E06D8199
:107CA0007E81C12CEE24E39420E032E04F818AE60D
:107CB00094E00E94AB2F2A96ECE00C9472F4882397
:107CC00031F00E9410F580938F0410927804109286
:107CD00097041092960410929504109294041092B6
:107CE00093041092920410929104109290048AE0EE
:107CF00090E0A0E0B0E08093821490938314A0936E
:107D00008414B093851487EF94E390938814809340
:107D1000871481E0809386141092DA131092E31393
:107D20001092D8131092DF131092DE131092D91311
:107D30001092DD131092E1131092E0131092DC13F5
:107D40001092DB131092E2131092CD131092D41301
:107D50001092D5131092D6131092D7138CE6E4EE3E
:107D6000F3E1DF011D928A95E9F783E2E0E5F4E1B2
:107D7000DF011D928A95E9F78091D31390E0019677
:107D80002091D213289FA001299F500D112460E05B
:107D900070E08091CE139091CF130E944EF588E64B
:107DA00094E19093391480933814A4CE4F925F924B
:107DB0007F928F929F92AF92BF92CF92DF92EF927B
:107DC000FF920F931F93CF93DF931F92CDB7DEB730
:107DD0007C01009781F02C0127E0421A5108809124
:107DE0006804909169048415950529F4D2011296CE
:107DF0008C91893149F086E694E49093F50580935F
:107E0000F4050E947B2FCBC080916404909165049F
:107E10008115B7E09B0709F07FC00091960410918F
:107E200097040115110551F086E994E00E94D52EC2
:107E300040E050E063EAC8010EDAEFCF6CE6C62EF0
:107E4000D12C7CE6772EE2E4AE2EE4E4BE2EF3E401
:107E50008F2EF4E49F2E009192041091930401154B
:107E6000110509F444C0B80182E994E00E94E12EB2
:107E70008091C8139091C913F801E81BF90BCF0149
:107E8000B6010E94C0F38091C313681740F0B0920E
:107E9000F505A092F40569830E94932F6981E09112
:107EA000C813F091C913679DE00DF11D1124808165
:107EB00091812781269530E02130310561F0223013
:107EC000310549F2232B61F4A8014B5F5F4FD801C4
:107ED00012966C9103C040E050E067EABCD9BBCF7A
:107EE0009092F5058092F4050E94932FB4CF10E094
:107EF0008091C3131817D8F48091C8139091C913B7
:107F0000BCE61B9F800D911D1124FC01278120FDE3
:107F10000E946E321F5FECCF8115924041F087E6E0
:107F200094E49093F5058093F4050E94932F1092AA
:107F300067041092660481E0C2DE0E94AF350E94A1
:107F40001F3682E393E09093650480936404D70125
:107F50008C91F201828788E694E00E94D52ED201AE
:107F600018968D919C911997892B41F489E694E498
:107F70009093F5058093F4050E94932FD2011896F3
:107F8000ED91FC911997C7010396199580916804AA
:107F900090916904892B19F080E00E9456320F906D
:107FA000DF91CF911F910F91FF90EF90DF90CF90D5
:107FB000BF90AF909F908F907F905F904F9008956B
:107FC000CF93DF93C0916804D0916904209741F466
:107FD00084E694E49093F5058093F4050E94932F32
:107FE0008A818A38F9F0853C09F44FC0893109F05B
:107FF0006CC080916404909165048031914019F4C3
:1080000080E092E002C080E097E090936504809366
:10801000640486ED9EE39E838D83CE0103960E94C9
:10802000E3A75BC08091640490916504823323E0F0
:10803000920719F08031964049F48FE394E09093D1
:1080400065048093640456DD1D8202C083EA8D833B
:1080500088E694E00E94D52E8B819C81892B41F487
:108060008AE694E49093F5058093F4050E94932F9B
:10807000EB81FC81CE010596199580916804909161
:108080006904892B51F180E018C0809164049091BB
:1080900065048F339440A1F480E095E090936504EB
:1080A0008093640482E090E09C838B8381E894E079
:1080B0000E94E3301092780481E00E9456320DC095
:1080C00063EACE010E94493608C085E694E49093A5
:1080D000F5058093F4050E94932FDF91CF910895C9
:1080E000AAE0B0E0E6E7F0E40C9460F4DC0113965B
:1080F000ED91FC9114972181328140E450E05A8344
:108100004983AE01495F5F4F5C834B8341E050E0A0
:108110005E834D836F3FBFEF7B0719F437FF15C0B8
:1081200003C02617370789F098878F837A87698776
:10813000BE016F5F7F4F8EE10E94D12D81E02D81C6
:108140003E81232B19F080E001C081E02A96E2E015
:108150000C947CF4009729F4809176049091770434
:108160000895FC01808191810895CF93C82FE0E0AC
:10817000F0E0CF01EFDFFC01009739F0A381B4817B
:108180008C91C813F6CFCF0102C080E090E0CF9170
:108190000895CF93DF93EC010097D9F086EA8F839F
:1081A000EB81FC813097A9F080819FEF980F903F81
:1081B00080F4DBDF892B69F421E08D819E81892B9E
:1081C00009F020E02A83BE0186E794E00E94112F87
:1081D0001F82DF91CF910895DF92EF92FF920F936C
:1081E0001F93CF93DF938C01009741F480E394E4D5
:1081F0009093F5058093F4050E94932FC0E0D0E0A2
:10820000A1E3EA2EA4E4FA2ECE01A4DFEC0100974C
:1082100089F18A818111F8CF8B819C81892B31F47E
:10822000F092F505E092F4050E94932FF80160A109
:1082300071A1CE0155DF882339F3EB81FC81D08019
:108240006D2DF801878190850E9425888823E1F2B1
:10825000F801D18AED81FE81309749F482E394E4FC
:108260009093F5058093F4050E947B2F03C0C8010D
:108270001995CACFCDB7DEB7E7E00C9477F4A1E348
:10828000B0E0E5E4F1E40C9456F48C01B62EDC0188
:108290005C96ED90FC905D9757966D917C91589708
:1082A000F70147818AE694E00E94DD2F882309F4D4
:1082B00014C1D70111968C919FEF980F9E3F28F41F
:1082C00054DF6C01009719F408C1C12CD12CF801BE
:1082D000248985899689213009F022E02F839987A6
:1082E0008887D70111968C918A8BF8018789908DA8
:1082F0000E94DBC0FC01009799F083E08B8B7081BA
:1083000061815281438134812581968187817E8B71
:108310006F8B588F498F3A8F2B8F9C8F8D8F02C018
:1083200082E08B8BD80157968D919C9158979D8BAD
:108330008C8B59968D919C915A979F8F8E8FF701B8
:10834000868188A3848195819AA389A38281938160
:108350009CA38BA35B968C9190E09C012A503109E1
:108360003EA32DA319A6208127FD04C09C012850FF
:10837000310906C02085237029F49C012950310958
:108380003EA32DA32DA13EA1821B930BF801248DAA
:10839000358D280F391F38A72FA3BAA684A18BA724
:1083A000868D8CA740A151A162A173A14DA75EA7A4
:1083B0006FA778AB878D89ABD7018C9187FF48C0B9
:1083C00018968C918370823009F042C0E091D013EE
:1083D000F091D113808190E09EA38DA38080912C99
:1083E000AA24A394B12C2091D81330E08091CE130D
:1083F0009091CF13A216B3064CF5E091D013F091F3
:10840000D113EA0DFB1D408150E02091D3132A9D2A
:10841000B0012B9D700D1124680F791F880D991DD7
:108420000E9434F5E091D013F091D113EA0DFB1DB9
:1084300020818DA19EA1820F911D9EA38DA3BFEFD0
:10844000AB1ABB0A8081880E911CCDCF98A78FA351
:10845000C114D10449F0D6011596ED91FC911697FF
:10846000CE010196199539C0F8018489813021F433
:10847000CE010196B1DE31C0D70111968C918F3FAC
:1084800041F5E12CF12CC70165DE7C01009729F153
:10849000D7011396ED91FC9114978081882399F36D
:1084A00012968C918111EFCF69A17AA1C70118DED4
:1084B000882349F3D7011396ED91FC91149780819D
:1084C0008A8B1596ED91FC911697CE010196199520
:1084D000DACFCE0101960E944FC8C8010E94D53262
:1084E000E196ECE00C9472F4A1E0B0E0EAE7F2E48B
:1084F0000C9458F45C01DC015C960D911C915D9725
:10850000F80181812FEF280F2E3F80F429832DDE83
:108510007C012981009751F0D80114966D917C91CE
:108520001597DEDD882309F405C105C02E3F08F448
:1085300001C1E12CF12CF801808187FF04C09085F6
:10854000937009F0F7C086FFF7C08C70883009F48B
:10855000F1C0D50157968D919C915897883FBFEFF8
:108560009B0708F0E7C0E114F10421F0F701228134
:108570002111E0C0D5015C960D911C915D97F80129
:10858000208126FD02C090E0D2C02370213009F086
:1085900027E0F090C313E091C813F091C91330E0C5
:1085A000422F50E0B801640F751F3F15E9F0A78115
:1085B000A530B1F4DF01AF5ABF4F0D90BC91A02D93
:1085C0008A179B0769F4DF01AC5ABF4FCD90DC904E
:1085D000C40ED51EDB01EC90D601DC90ED1499F2AF
:1085E0003F5FE459FF4FE1CF82E029830E94EC32E4
:1085F0002981009741F2FC01EC5AFF4F0190F08174
:10860000E02DDF0158973FEA11963C93119713969E
:10861000BC92AE92129762E0DC01A05BBF4F6C93FC
:10862000D50157964D915C915897DC01AF5ABF4FD9
:1086300011965C934E9317961C9211961C9231E002
:1086400011963C9311963C9311961C9242E753E38A
:10865000129611965C934E9311973C9330813C7F18
:1086600032603083D8014C914C70337F342B30838F
:108670004C914295417040FB34F93E7D3F7B308305
:108680004C9147FB442740F940FB37F930834C912C
:1086900030E0DC01AD5ABF4F7D0144FF0DC0D50174
:1086A0005C964D915C915D97420F531FDA012C91BE
:1086B0002183F701608337C048E04C93D8011696B8
:1086C0004C911697418312964D915C911397538369
:1086D000428314964D915C9115975583448311966E
:1086E0004C914683D5015C964D915C915D97420F0C
:1086F000531FDA012C912783D8012C9127FF13C037
:1087000018962C91237031F41086F70120812F5F89
:10871000208309C0D7012C912D5F2C93D801189686
:108720002C912370208709960E94AD3391E081E05F
:108730008927A1C190E001C091E0F801808187FF05
:1087400092C18085837009F48EC1D5015C960D912C
:108750001C915D975B968C91F801F1842091D21366
:10876000222309F487C196EFE92EE80E8091CD13FC
:10877000813009F456C030F0843008F06BC180E4D9
:1087800094E46AC1D084B1E0DB1274C12F1508F4FF
:1087900071C18091D3138E1508F46CC190E00196DD
:1087A000289FA001299F500D112460E070E0809166
:1087B000CE139091CF130E944EF58FEA80937314DD
:1087C000D092CD13F092D813F5018789908D9093B4
:1087D000DC138093DB13D80111968C911197809351
:1087E000DD1312968D919C9113979093DF138093D4
:1087F000DE1314968D919C9115979093E1138093BD
:10880000E01316968C9116978093E21317968C912D
:108810008093E3138091A612809374141092D9135D
:10882000F12CF8018085982F9370923011F0F1109F
:1088300021C18C7F09F01EC18091D8138F1508F4D7
:1088400019C12091DB133091DC13D50157968D911E
:108850009C9158972817390709F00CC19091DD13A6
:10886000F8018181981306C12091DE133091DF1346
:10887000828193812817390709F0FCC02091E01309
:108880003091E113848195812817390709F0F2C0EE
:108890009091E21386819813EDC09091E313878144
:1088A0009813E8C02091D9134091A7120F2D10E022
:1088B000822F90E0840F911D081719070CF0DAC081
:1088C0008F2D642F0E94B4F3D92EF21668F48F2DE9
:1088D000891B8093D91321E030E001C0220F4A9513
:1088E000EAF721952093DA132091D3138091CE13C8
:1088F0009091CF134E2D50E0D5015C966D917C91F7
:108900005D97665F7F4FF29E800D911D11240E943E
:1089100034F5E091D013F091D113E00FF11FE08214
:108920007091D9132091D8137F1111C09091A71283
:10893000822F8F19981708F4892F41E050E0082EF4
:1089400001C0440F0A94EAF741954093DA1341E0DD
:1089500050E00D2C01C0440F0A94EAF76091DA133D
:10896000642B6093DA136F3F79F4FF24FA94F70EC7
:10897000822F90E04091A71250E0871B9109481781
:1089800059070CF4CA01F80E8F2D90E030E0215009
:1089900031098217930751F46F3F21F483E00E945D
:1089A000FF3463C082E00E94FF3464C0A091A7122C
:1089B000B0E011979D01270F311D8217930711F029
:1089C0006F3F09F582E00E94FF348091DA138F3FF8
:1089D00009F050C08091A7129091D913980F9093ED
:1089E000D9132091D81321502F19821708F4282F5A
:1089F00081E090E0022E01C0880F0A94EAF7819589
:108A00008093DA1337C02AE030E00E943AF49B01E9
:108A1000AC018091790490917A04A0917B04B0918B
:108A20007C04280F391F4A1F5B1FA091A612B0E0DB
:108A30000E9440F49B01AC016093D4137093D51352
:108A40008093D6139093D71361E080E090E00E946A
:108A5000723610C083E594E49093F5058093F40595
:108A60000E94932F07C0992329F06FEAC50107DC04
:108A700080E001C081E02196EAE00C9474F4A4E364
:108A8000B0E0E5E4F5E40C9450F4C0906404D090B8
:108A9000650420E1C21621E0D20609F46CC12EE47F
:108AA000222E24E4322EAA24A394B12C82E994E04D
:108AB0000E94D52E7C01009709F45DC10091C81376
:108AC0001091C913C701801B910B6CE670E00E94E6
:108AD000C0F38091C313681748F089E494E490933D
:108AE000F5058093F4050E947B2F45C13CE6639F0A
:108AF000000D111D1124D80117968C91B0E1CB16F1
:108B0000B6E0DB0621F0C114E5E0DE0699F58E7FC4
:108B1000843019F5C8018C5A9F4F0E945F394C016F
:108B2000DC0111966C91119712968D919C9113977F
:108B3000892B51F4EAE4F4E4F093F505E093F405AD
:108B40006CAB0E94932F6CA9D70112968C91811166
:108B500004C0F4018281938192DBA7014B5F5F4FD8
:108B600063EAD8018D919C910E942B39C7010E9424
:108B70006E329CCF8695482E512CB1E04B16510495
:108B8000B1F054F4452809F0EFC0D70112966C916A
:108B9000C8010E94353C8ACFF2E04F16510409F417
:108BA000BCC023E04216510409F47CC0DDC0F801CA
:108BB00080858F70813009F079CF80809180D701D6
:108BC00019968C910E9463359B01AC01A091A6126D
:108BD000F801808582958F70A81BC20102C0880FA2
:108BE000991FAA95E2F7DC010E944AF42B013C018F
:108BF000D70112966C91611115C04382548265822F
:108C000076820E9410F59170B301A201480F591F9E
:108C1000611D711DD80113964D935D936D937C93E7
:108C200016972EC06E3C51F0603F41F0603D31F030
:108C3000613D89F4F40195A597FF0DC0A7014B5F35
:108C40005F4FC4010E942B39C7010E946E3281E040
:108C50000E94563290C0D80113964D925D926D924B
:108C60007C9216970E9410F59170B301A201480FF3
:108C7000591F611D711DF8014383548365837683F9
:108C8000D80118968C911897807F826018968C93E3
:108C9000189713962D913D914D915C91169760E038
:108CA000C80104C2F80180858F70813009F0FECEC2
:108CB0002091761430E08091791490E00197281784
:108CC000390709F4B5C1E091A71270917814272FE4
:108CD00030E080E090E0682F8E1708F0A9C101967F
:108CE000A901062E02C0559547950A94E2F740FF68
:108CF000F2CFC501062E01C0880F0A94EAF78095CD
:108D000087238093781480917714860F809376144C
:108D10008CE794E10E94D0E1C9CEC8018C5A9F4FE4
:108D20000E945F398C01DC0111966C9111971296AB
:108D30008D919C911397892B51F4EDE4F4E4F09319
:108D4000F505E093F4056CAB0E94932F6CA9D80154
:108D500012968D919C91139792DAC7010E946E3200
:108D600081E00E945632A2CE3092F5052092F405A1
:108D70000E94932F9BCE1BAA1AAAA5EA4A2EA3E310
:108D80005A2EBFEA2B2E13E0312EAA24A394B12C25
:108D900066246A94712C95E4892E94E4992E84E9D2
:108DA00094E00E94D52E8C01C0906404D09065049C
:108DB000009751F1F80182899389892B09F079C1D3
:108DC000048CF58DE02D80818370813009F071C1B4
:108DD0008281853009F46DC1D80157968D919C919F
:108DE00058970E94DBC0892B09F063C122E0F8018B
:108DF00026838789908D90878783538A428AC8010A
:108E000002960E94CDC0CBCFC1FE11C050E5C52E49
:108E100054E4D52E62E0462E72E1A72E74E4B72EFC
:108E2000E8E05E2EF0EA8F2EF9E39F2E3BC0009122
:108E30009604109197040115110509F458C0B80162
:108E400086E994E00E94E12E40E050E063EAC80128
:108E50000E942B39ECCF808D833081F57801FBE1C6
:108E6000EF0EF11CC7010E94D8C0892B39F5D8013B
:108E70001D96F701852D01900D928A95E1F7D80195
:108E800058968C9158971A968C931A9757969C924D
:108E90008E925697C80106960E94CDC086E994E04E
:108EA0000E94D52E0091960410919704011511058A
:108EB000F1F0F80186899789892B69F280918914EC
:108EC00090918A14892B09F4BEC2C8010E943C32D9
:108ED000882309F4B8C2C8010E943C32882309F4EF
:108EE000B2C2F8010081118101151105A1F780912D
:108EF0006404909165048115B5E09B0721F08031F1
:108F0000F6E09F0769F5F12C0EC02CE6F29E800179
:108F10001124E091C813F091C913E00FF11F87816C
:108F2000833031F0F3948091C313F81670F320C0AE
:108F300080858F70843011F08230A1F740E050E0DE
:108F400063EA808191810E942B398091C8139091AE
:108F5000C913800F911F805A9F4F0E946E32E2CF3B
:108F60008F33944029F4F12C8091C313F81648F004
:108F700080916404909165048115954009F080C347
:108F800051C00091C8131091C9138CE6F89E000DD2
:108F9000111D1124D80117968C91179780FF40C09E
:108FA00018969C911897292F2F702430C9F5282FD7
:108FB0002A7F2230A9F5907F79F19160905118961F
:108FC0009C938E7F823071F4C80109960E94AD3364
:108FD000F801238134814581568160E0C8010E94F7
:108FE00072361EC08630E1F4809178148E7F8093B3
:108FF0007814809177148093761480917B1481503B
:1090000080937B14E0918914F0918A14BF018081D0
:1090100091810E94B43304C067EAC8010E94353CC4
:10902000F394A2CF80917804882309F4AAC228C3BC
:10903000F70181850E9463359B01AC01A091A612C6
:10904000F801808582958F70A81BC50102C0880F2A
:10905000991FAA95E2F7DC010E944AF42B013C011A
:109060000091891410918A140E9410F59170B30137
:10907000A201480F591F611D711DD80113964D9310
:109080005D936D937C931697E0918914F0918A1407
:109090008085807F826080878091891490918A1476
:1090A000FC01238134814581568160E00E94723643
:1090B000FDCCD8015C96ED90FC905D97BFE3CB169C
:1090C000B4E0DB0669F0D7018C918370813041F008
:1090D000F80185A1811104C0C8010E94D532A4C144
:1090E000D7014C91642F607446FF11C05091C61394
:1090F0002091C31330E08091C71390E0850F911D3C
:10910000821793074CF78091C413581728F7242F20
:109110002C70243009F3662331F0842F8370823061
:10912000D9F243FDD9CF45FDD7CFF801D488F1E07E
:10913000DF1671F032E0D312CFCF4370842F90E06E
:10914000009721F0029709F47AC0C6CF2C3031F095
:10915000C801CAD9882309F467C1BECFD801579680
:109160006D917C915897F70140858AE694E00E94C2
:10917000DD2F882309F4B0CFD8015B968C9189301C
:1091800008F4AACFB1E0BF83F7018181928199876A
:109190008887D80157968D919C9158970E94DBC083
:1091A000FC01009791F03B8A70816181528143817B
:1091B00034812581968187817E8B6F8B588F498F73
:1091C0003A8F2B8F9C8F8D8F01C0DB8AF8018789A6
:1091D000908D9D8B8C8B818D928D9F8F8E8FD701E3
:1091E00017968C91179788A315968D919C91169739
:1091F0009AA389A313968D919C9114979CA38BA3FA
:10920000838D90E009979EA38DA3848D958D0996FB
:1092100098A78FA319A62AA684A18BA7868D8CA7B1
:1092200080A191A1A2A1B3A18DA79EA7AFA7B8AB22
:10923000878D89ABCE0101960E94EC404DCF423024
:1092400031F09092F5058092F4050E94932FC09022
:10925000C813D090C9138091C313F6012CE6829FE6
:10926000E00DF11D1124CF01C816D90608F034CF46
:10927000D60117966C91179760FFD2C018962C9163
:1092800018972F70223009F0CBC0F601EC5AFF4F2F
:109290000190F081E02D2D913C91D80157964D9190
:1092A0005C915897D90159962D913C915A97421744
:1092B000530709F0B5C0D70117963C91179727813E
:1092C0003213AEC014964D915C911597248135816F
:1092D0004217530709F0A4C012964D915C91139761
:1092E000228133814217530709F09AC011963C91AD
:1092F00011972681321394C016963C912181321326
:109300008FC06E7F623031F4F6018085807F83608C
:1093100080873FC0663009F083C0D70119969C91C1
:109320001997809177149813D7CE6091A712262FA2
:1093300030E0C501062E01C0880F0A94EAF7819536
:109340001A969C911A97982B1A969C931A97F60145
:109350008085807F836080871A96EC91EF3F99F536
:109360004091791450E070917714E70FCA01871B80
:109370009109281739070CF4C9018E0F80937614D0
:1093800090E0415051098417950741F4C6010E94AD
:10939000863A60E0C6010E94353C9ECE760F7093FF
:1093A00077148091A61280937B14709376149301A6
:1093B00002C0220F331F6A95E2F7B90160956E7FF4
:1093C0006093781423C0E095E093781480E090E0F7
:1093D0002E2F30E0782F8617C8F40196A901072EAA
:1093E00002C0559547950A94E2F740FFF3CFC501B7
:1093F000072E01C0880F0A94EAF780958E23809388
:10940000781480917714870F80937614E0918914F3
:10941000F0918A14BF01808191810E94B4335CCEA7
:109420003CE6C30ED11C20CFD8015E968C915E978E
:109430008AAB5F968C918BABBE016E5C7F4F8BE3EA
:109440000E94D12DACCCC8010E943C32882361F02F
:1094500080918B1490918C14892B09F4BDC0D80194
:109460009D968C9182FFB8C0F80181A592A58536A2
:10947000910518F085A583FFB1C0D80198963C905E
:10948000332031F0832D0E94B540892B09F448C068
:10949000F80185A5208D382F347082FF0AC0223054
:1094A00031F4818D928D883F9F4FD0F502C02130DD
:1094B000B9F18EEF820F823038F4D80193968C91F7
:1094C000815F8E3068F18CC021118AC0332309F48A
:1094D00087C0F80166A077A092D67C01009719F0AA
:1094E00080E090E00CC0B092F505A092F4050E94D7
:1094F0007B2F76C0DC011B962C91213089F09701DF
:10950000432DB3010E94C03A0097A1F769C0813092
:1095100008F475C0823009F49AC0833009F48AC017
:1095200026EAE12CF12C612C712CB80186E994E03B
:109530002CAB0E94E12E2CA921111CC0E114F104D6
:1095400031F4D092F505C092F4050E94932FF301F7
:1095500011830083C8010E943C32882319F0C301A3
:109560000E94863AB301C801F7011995282F882374
:1095700009F498CC40E050E0622FC8010E942B39DA
:1095800091CC0091680410916904F8018281853CB6
:1095900041F08DE694E49093F5058093F4050E94E4
:1095A000932FD80113968D919C9114978D7F1496CB
:1095B0009C938E931397892B09F062C080E00E94E0
:1095C0005F3E80E196E0909365048093640460E0E0
:1095D000C8010E94493654C02AEAA3CF20EAA1CF8D
:1095E000D80158968C91813009F091CF80E00E948B
:1095F000EC323C0130EBE32E39E3F32E0DC0C80111
:109600000E943C32882371F083E00E94EC323C01DE
:109610004FEFE42E4BE3F42E6114710409F467CC90
:1096200020E083CFF80185A582FF02C081E0EDCF65
:1096300080E0EBCFC8014B960E94D8C00097F1F0B4
:10964000DC018D919C91F801928F818F408EC80131
:109650000E943C32882311F083E008C0D8019D9617
:109660008C9182FF02C081E001C080E00E94EC3258
:109670003C0124EBE22E23E3F22ECECF29EA51CF98
:10968000E496E2E10C946CF4AFE1B0E0EAE4FBE4D0
:109690000C945DF4009749F485E495E49093F50506
:1096A0008093F4050E947B2F82C0FC01208123302F
:1096B00009F07DC0218132813A83298328E03396E5
:1096C000DE01139601900D922A95E1F7FC012385A6
:1096D0002B87248535853D872C8728E03E96DE0143
:1096E0001E9601900D922A95E1F7FC01218D2D8F98
:1096F000238D2E8F0789108DF688F6E0FF1508F070
:1097000056C0F8018081982F9370933009F04FC0B4
:10971000807E09F04CC08181811149C0BE01615E2B
:109720007F4F85E190E00E94DB31F8012081269592
:109730002695277030E08F8D90E028173907B9F50E
:109740008281982F9370933091F5982F907F79F5BF
:109750008C708C3091F481E08B87F8E0FF1538F540
:10976000F801838194819F878E876FEF0E942588FF
:109770008823E9F0F80129E003C0F801329727E0D7
:1097800085819681998F888F878190859F8B8E8B1D
:10979000F21AFA8E020F111D1C8F0B8FE0917404C8
:1097A000F0917504309719F0CE01019619956F96D6
:1097B000E5E00C9479F480E191E090936504809366
:1097C0006404109269041092680410926704109265
:1097D000660410927704109276040E94AF350C94C0
:1097E00002A8CF93DF93EC016DE172E085E20E9465
:1097F000502E6DE172E088E30E94502E209749F4CC
:1098000080E694E49093F5058093F4050E947B2F05
:1098100005C089E18A83CE010E947D33DF91CF911B
:109820000895009741F481E694E49093F5058093C0
:10983000F4050C947B2F2AE8FC0122830C947D33E1
:10984000009741F482E694E49093F5058093F40543
:109850000C947B2F25ECFC0122830C947D33CF9359
:109860003091CA138091CB139091CC1320E0231731
:1098700051F08396FC01B3974081442311F081E0BD
:1098800029C02F5FF4CFC0E08091C313C817E0F464
:109890000E94CB2D9CE6C99F900111244091C813D2
:1098A0005091C913FA01E20FF31F882341F0878119
:1098B00080FF08C080858F70823021F0E0CF8781E3
:1098C00080FDDDCFCF5FE0CF81E09091CD1391118E
:1098D00001C080E0CF9108951F93CF93DF93EB01F8
:1098E000853239F41881BBDF91E098279123988362
:1098F0001FC08833E9F438814091C313E091C81345
:10990000F091C91380E0841771F0278120FF07C010
:1099100090859F70923019F42A7F223031F08F5F4A
:10992000E459FF4FF0CF80E001C081E0832B8883B2
:10993000DF91CF911F910895FC01808184FD0C94EB
:109940001F360895A2E0B0E0E8EAFCE40C9460F46D
:10995000E0916604F09167042F2F30E09E2F9F5F07
:10996000983008F090E0692F70E0A901092E02C03C
:10997000569547950A94E2F740FF26C090936604F7
:1099800081E090E0062E01C0880F0A94EAF78F2745
:1099900080936704660F771F6354744B42E050E076
:1099A000CE0101960E941EF589819A81892B41F48E
:1099B00080E094E49093F5058093F4050E94932F42
:1099C000E981FA81199504C0E913C9CFE0936604CF
:1099D00080916704882361F02FB7F8948091620426
:1099E00090916304806290936304809362042FBF1C
:1099F0002296E2E00C947CF48091EF12853091F095
:109A000028F4882349F0823069F004C0843141F0A1
:109A1000863141F080E008958091E8128B3010F497
:109A200088E0089582E00895833014F083E01BC03D
:109A300096E0980F923010F48BEF15C098E0980FD5
:109A4000923010F489EF0FC09AE0980F923010F422
:109A500087EF09C09EE0980F943010F484EF03C0A4
:109A6000823F0CF48FEE8093ED120895C5DF282F0E
:109A7000220F220F280F30E0A90160E8869F400DD9
:109A8000511D1124CA0108958091EF128530E9F02B
:109A900028F4882349F0823079F004C0843189F0B9
:109AA000863189F080E008958091E812882349F09A
:109AB0008B3058F489E108958091E812811105C036
:109AC00002C082E3089588E2089580E10895CF936B
:109AD000DF93EC01D9DFE82F9E01A0ECB3E00E94F8
:109AE0002BF49B01AC01AE2FB0E00E9440F428EEB5
:109AF00033E040E050E00E94E7F3CA01B901DF9192
:109B0000CF910895CF93DF93B1DFEC01BDDF282F14
:109B10002C9FC0012D9F900D1124BC0180E090E08E
:109B200028EE33E040E050E00E94E7F32F5F2093FF
:109B3000E612DF91CF910895CF93DF938BE080936E
:109B4000E81280E098EFAFEFB7E08093E9129093CE
:109B5000EA12A093EB12B093EC126DEE72E183E087
:109B600090E00E94DB318091ED125EDF6DEE72E1DC
:109B700083E090E00E9413321092EF1277DF90930F
:109B8000F1128093F01238DF94E0899F800D112448
:109B90008093F21231DF8093F31286E390E0A0E02D
:109BA000B0E08093BB129093BC12A093BD12B0930F
:109BB000BE121092BF121092C01281E08093C112A7
:109BC0001092C3121092C2121092C4120E9410F589
:109BD0008093C512E6ECF2E18FEF8083818382836C
:109BE00083838483858386838783CFEFDFEFD0935E
:109BF000CF12C093CE120E9410F58093D01285E050
:109C00008093D11284E08093D21283E08093D312A8
:109C10008093D412D093D612C093D51280E2809351
:109C2000D7121092D8121092D912D093DB12C0938F
:109C3000DA121092E4121092E51264DFDF91CF91F4
:109C40000895A4E0B0E0E7E2FEE40C9460F4DC01E7
:109C50004C9150E0CA01805491098534910508F077
:109C6000DFC0865A9D4DFC010C9425F411968C9111
:109C70008093C01208C011968D919C911297909379
:109C8000C3128093C21280E015C111968C91853366
:109C900008F00FC18093C412F6CF11968C91809377
:109CA000C512F1CF11968C9111978093C61212961E
:109CB0008C9112978093C71213968C91139780936F
:109CC000C81214968C9114978093C91215968C9192
:109CD00015978093CA1216968C9116978093CB1283
:109CE00017968C9117978093CC1218968C9180932D
:109CF000CD12C9CF11968D919C9112979093CF124E
:109D00008093CE12C0CF11968C918093D012BBCF8E
:109D100011968C91863008F0CCC08093D212B3CFCC
:109D200011968C919091D112981708F4C2C080932B
:109D3000D412A9CF11968D919C9112979093D6121F
:109D40008093D512A0CF11968C918093D8129BCF7F
:109D500011968D919C9112979093DB128093DA1259
