:100000000C94B6260C9472F60C949EF60C94CAF6D8
:100010000C94F6F60C9422F70C944EF70C947AF7A5
:100020000C94A6F70C94D2F70C94FEF70C94FD26D2
:100030000C94FD260C9486F20C94FD260C94DCF2B4
:100040000C94FD260C94FD260C94FD260C94FD26A4
:100050000C94FD260C94FD260C94FD260C94FD2694
:100060000C9430F90C943CF50C94DFF40C940EF5E0
:100070000C94FD260C94C1F80C9498F80C94FD2671
:100080000C94FD260C94FD260C94FD260C94FD2664
:100090000C94D6F50C9479F50C94A8F50C9431F8E1
:1000A0000C94FD260C94FD260C946EE40C9458E6FA
:1000B0000C94FD260C94FD260C94FD260C94FD2634
:1000C0000C94FD260C94FD260C94FD260C94FD2624
:1000D0000C94FD260C94FD260C94FD260C94FD2614
:1000E0000C94FD260C94FD260C94FD260C94FD2604
:1000F0000C94B4E60C94FD260C94FD260C94DCE6DE
:100100000C94FD260C94FD260C94FD260C94FD26E3
:100110000C94FD260C94FD260C94FD260C9404E70B
:100120000C94FD260C94FD260C94FD260C94FD26C3
:100130000C94FD26000000000000000000000000FC
:1001400000000000000000000000000000000000AF
:10015000000000000000000000000000000000009F
:10016000000000000000000000000000000000008F
:10017000000000000000000000000000000000007F
:10440000F41416001900E71203001800230EBD0073
:1044100017009619010016004A1A08001500D7194E
:1044200001001400CE19020013003A1A0100260000
:10443000DD1901001E00CD1901000F00541A010002
:104440000E003E1A01000D00461A02000C009719DA
:1044500001000B00911902000A00B41911000900B3
:10446000AA1901000800A91901000700A8190100F4
:1044700006003B1A01000500441A010004008C19D3
:1044800004000300C519080002008A190100010098
:104490006E1908000000A24712002E00C647150042
:1044A0002D00F04719002C00224804002A002A4859
:1044B00011002900D528352B592B7E2BB42BC02B6E
:1044C0009C2BBA2BC62BCE2B2B294C2975299F2927
:1044D000112A3C2A5B2A7A2A992ABD2ADB2AFA2A3F
:1044E000192BB055CD54EE55EE55EE55D254DC5443
:1044F000EE55EE55E454E95411551A55EE551F5535
:1045000027553155EE553A553F55EE55485583558B
:104510009555EE5588559055B055B055B055A755A1
:10452000A755A755A755A755A755A755A755A755AB
:10453000A755A755A755A755A755A755A755A7559B
:104540005B55A755EE55EE55EE55EE55EE55EE552D
:10455000EE55EE55EE55EE55EE55EE55EE55EE5543
:10456000A755A255B055A75555559A55B255B055B2
:10457000C955D755DE55B055B055B0554A57B75601
:10458000915791579157BD56C25665579157C55689
:10459000C856D956DE569157E156E456E75691571C
:1045A000EC56EF566557F4563E57535791574157BF
:1045B0004457BB5647574757655765576557655723
:1045C000655765576557655765576557655765570B
:1045D0006557655765576557655724576557915710
:1045E000915791579157915791579157915791578B
:1045F0009157915791579157915765575B575E5710
:1046000065571C5756576D577657705773579157C4
:10461000845789578F5796589858A3589A589C583A
:104620009E58A0587558A658A8587558AB580059A8
:10463000035907590A590E59125915591959195937
:10464000755DB35DB35DB35D7C5D995D8A5D915DC4
:10465000C45D835DA05DA05DA75DB35DBB5DBF5D17
:104660001F5E225E255E255E275E315E2B5E2E5E1E
:104670003E5E295E345E365E385E3B5E27602A60B1
:104680004B602D6031604B6035604B604060436033
:104690004960B2635F646E646D63B564B5646A64F7
:1046A0006E647364A1648A64B564B564A164A06334
:1046B000A364BB9CC39CDA9C4C9D4C9DA39CB09C6A
:1046C0004C9D4C9D4C9DFA9C099D269D329D4C9D78
:1046D000A09CCE9C6C9C39A139A162A06AA06AA062
:1046E00077A077A094A094A094A0F2A0F2A0F2A04A
:1046F0008DA139A138AF8AAF5EAF62AF62AF62AF52
:1047000062AF62AF66AF66AFC5C2C8C269C369C3F4
:10471000CDC269C3D7C2C0C3C0C3C0C3C0C3C0C3B6
:10472000C0C3C0C3C0C3C0C369C369C3C0C3C0C220
:10473000D2C269C346CE94CE94CE94CE94CE94CEBB
:1047400083CE6DCE8BCE94CE7DCE94CE87CE8FCEC3
:104750006AD045D122D24DD28CD2B8D301D4E3D97C
:10476000E3D9E3D9E3D9E3D9E3D9E3D9E3D9E3D969
:1047700038D346D3E3D9E3D96DD304D2EBDBF3DBF3
:1047800005DC0EDC10DC12DC14DC17DCEADC62DD9C
:1047900062DD10DD19DD29DD32DD35DD38DD3BDDA3
:1047A00041DD0000010002000300040005000600D6
:1047B0000700080009000A000B000C000D000E00A5
:1047C0000F001E001800000001000200030004009A
:1047D000050006000700080009000A000B000C0095
:1047E0000D000E000F001E0013001400150016002F
:1047F000000001000200030004000500060007009D
:10480000080009000A000B000C000D000E000F004C
:104810001E001300140015001600170018001900E0
:10482000260013001400150016000000010002000D
:1048300003000400050006000700080009000A0044
:104840000B000C000D000E000F001E008C0C000071
:10485000230E00007D0D0000E00E0000170E00008A
:10486000000000000A0F000074140000CC140000C7
:104870001E120000701200003A120000A712000081
:10488000EA1200002E1400000000000000000000EA
:10489000E7120000F4140000000000000000000017
:1048A0000000000000000000000000000000000008
:1048B00000000000000000000000000000000000F8
:1048C00000000000000000000000000000000000E8
:1048D0000A15000032150000110D0000D44A020034
:1048E000D84A0100DB4A0100D94A0200DE4A010031
:1048F000DF4A0100E04A0100E14A0100E24A01000A
:10490000E34A0100E44A0200DC4A0200E64A0100F0
:10491000E74A0100004B0200F14A0100F24A01009F
:10492000F34A0100FC4A0400E84A0100E94A040095
:10493000ED4A0100EE4A0100F84A0100F94A01007F
:10494000FA4A020000000000000000000000000021
:104950000000000000000000000000000000000057
:104960000000000000000000000000000000000047
:1049700000000000EF4A0100F04A0100024B010074
:10498000034B0100044B0100054B01000000000037
:10499000F44A0400D64A02006E1908007819010092
:1049A000861904008A1901008C190400421A0100BA
:1049B000431A01004A1A0800461A0200CE190200E2
:1049C000D71901003E1A0100541A0100441A0100CF
:1049D000931901009419010095190100961901001D
:1049E000911902009719010098190100401A01005D
:1049F0003F1A0100491901004A190100C5190800B0
:104A0000AB190400A0190400A4190400A81901009E
:104A1000A9190100AA190100B41911003B1A0100DB
:104A2000AF190100B0190400381901004B19020038
:104A3000CD190100901901000000000000000000E5
:104A40003919010000000000000000000000000013
:104A50000000000000000000000000000000000056
:104A60000000000000000000000000000000000046
:104A7000991905009E1901009F190100000000000E
:104A80000000000000000000000000000000000026
:104A900000000000000000007A1901000000000082
:104AA0000000000000000000000000000000000006
:104AB00000000000000000000000000000000000F6
:104AC00000000000000000008B19010080190100A7
:104AD0007919010085006C0001000007050007043A
:104AE0000205040204000308FF140000000108038B
:104AF0000303020A901A00000100000000000303F3
:104B0000141061620003001E000003F40080000026
:104B10000134120003030000020000000000030340
:104B20004C1D000010270000000001E803000004F5
:104B3000E80300001041746D656C202020202020C7
:104B4000202020202007CAAAAAAAAAAA1A00020383
:104B50000100000000000000000000000000000054
:104B600005FF000000000000000000000000000041
:104B70000000000000000000000000000000000035
:104B80000000000000000000000000000000000025
:104B90000000000000000000000000000000000015
:104BA0000000000000000000000000000000000005
:104BB00000000000000000000000000000000000F5
:104BC00000000000000000000000000000000000E5
:104BD000000202010002020508080000FFFF341273
:104BE00000000000000000000202017746D64B00E2
:104BF000000000000000000000000002F582D37DEC
:104C000001073D9E7F7801013D9E7F780101B482BE
:104C1000E6950101398245A50101398214A50107F4
:104C2000EE816F7801019681618B01010000000027
:104C30000107000000000101000000000103000066
:104C400069700104000069700105000000000106A0
:104C500000000000010D0000000001013D9E000069
:104C6000000100000000010E00000000010700002C
:104C70000000010A00000000010000000000010126
:104C800000000000010100000000000000005C7C4A
:104C9000000900005C7C000C00005C7C000000004F
:104CA0005C7C00F77EC984FC9BC0AEFC7A32A20C0F
:104CB00080B28082796F87B88D957C6EA5937F01D5
:104CC0007AEA7800000000B4783787000000001E00
:104CD0006E2E71B46E896EAD6E0000256E336EA2BD
:104CE0006E2C6E2471DC6D2070277096701870BB6E
:104CF0006E00007E71020102030302020101010144
:104D0000010101010102020101010201020202028C
:104D1000020201020202020202010303020203F77D
:104D2000AC23A3DA9B56A4000059ABD99410B00071
:104D300000000042BD5DC218CC25C5F3D9F7CA6991
:104D4000E869E869E869E8DBE9A0E7B6F957F282C3
:104D5000E5C0E4ECF08CF390F01DEF98ED6AE8BC50
:104D6000E9E8EAFBE8BAE9E6EAF9E800112480910B
:104D7000B61E823159F084B780FD04C08F718093D4
:104D8000B61E07C081E08093B61E03C081E1809308
:104D9000B61E14BE809160008861809360001092FE
:104DA0006000E7EBFEE18DEC01C0819390E7E0301D
:104DB000F907D9F3D0F311241FBEC0E0D0E7DEBF5E
:104DC000CDBF00E00CBF18E0A0E0B2E0E2EAFBEFEC
:104DD00001E00BBF02C007900D92AE3CB107D9F7BE
:104DE0002EE1AEECB8E001C01D92A63BB207E1F7A0
:104DF0000E9442370E945837FDCF0C9400007F93E9
:104E00007FB7F8949D9AA5988AEF4DD08AEF4BD042
:104E10009D9886E448D081E0959980E08F9380EF5B
:104E200042D08F917FBF7F9108957F937FB7F89491
:104E30009D9AA59886E037D09D988AE034D08894D2
:104E400095990894881F8F9384E62DD08F917FBF0A
:104E50007F9108959F937F9398E0E7DF87957795FB
:104E60009A959923D1F7872F7F919F9108957F93EA
:104E70007FB7F894A5989D9A8F9386E014D08F9170
:104E8000879508F49D988F9384E60DD08F919D9817
:104E90007FBF7F9108959F9398E0E9DF9A959923CA
:104EA000E1F79F910895000000000000000000005D
:104EB00000000000000000000000000000008A95D3
:104EC000882389F708958091D0088093AD032FB788
:104ED000F8948091D50A9091D60A90619093D60A61
:104EE0008093D50A2FBF089560E185E494E048D708
:104EF00084E08093AD032FB7F8948091D50A909108
:104F0000D60A90619093D60A8093D50A2FBF089550
:104F1000A0E0B0E08093D7089093D808A093D90878
:104F2000B093DA086093D00881ED98E00C94EFE735
:104F30000895CF93DF93EC0180E00E94A23788EFC1
:104F400098E00E94EFE76CA18EA19FA119D762E0C3
:104F50008FEA97E015D7DF91CF910895FC018785FF
:104F6000811112C066E879E081E290E00E94723817
:104F700080918609811104C06DE086E594E000D738
:104F800081E00E94A23704C067E084E694E0F8D68E
:104F90002FB7F8948091D50A9091D60A906190939A
:104FA000D60A8093D50A2FBF089580E00C94AE37BF
:104FB000089581E00C94AE370895811104C060E239
:104FC0008CE694E0DDD689E693E00C941EEC08951F
:104FD000811104C062E28FE894E0D2D68BE893E0BE
:104FE0000C941EEC0895811104C060E282EB94E001
:104FF000C7D68AE793E00C941EEC0895811104C093
:105000006FE183ED94E0BCD688E593E00C941EEC50
:105010000895811104C065E283EF94E0B1D687E47E
:1050200093E00C941EEC0895811104C06BE187EDB0
:1050300094E0A6D686E393E00C941EEC08958111CB
:1050400004C06AE187EF94E09BD685E293E00C947C
:105050001EEC0895FC018081811115C081E00E9441
:10506000A2378BEE98E00E94EFE71092AD032FB7C6
:10507000F8948091D50A9091D60A90619093D60ABF
:105080008093D50A2FBF0895813011F483EF03C0B8
:10509000823019F485EF8093520C86E393E00E94EE
:1050A00000EC019621F46BE082E195E069D686E39D
:1050B00093E00E9436EC019621F46CE08EE195E0DD
:1050C0005FC60895811104C062E28BE295E058D674
:1050D0008CE993E00E941EEC8091CF08882351F068
:1050E0008091F80B813831F06FE08EE495E048D67E
:1050F0001092CF088091CE08882341F08091F80B60
:1051000082FD04C060E18EE595E003C06CE08FE6AF
:1051100095E036D61092CE080895CF93C82F85E239
:1051200093E00E9400EC019621F46BE082E195E0AF
:1051300027D685E293E00E945EEC019621F46BE0B5
:105140008CE795E01DD6C13069F480912F0C90E07A
:10515000982F88272091300C822B9093320C8093CB
:10516000310C0EC0C23061F480912F0C90E0982F6A
:1051700088272091300C822B9093DC0B8093DB0BE3
:10518000CF910895A4E0B0E0E8ECF8E20C94AAFB1B
:105190008091AD0390E0FC013197E731F10508F013
:1051A00022C5E65AFD4D0C94D0FA1092AD03B9D544
:1051B00080E197E2A0E0B0E08093E4089093E508F6
:1051C000A093E608B093E7081092E80884E797E216
:1051D0009093EA088093E90884E690E0A0E0B0E0CC
:1051E0008093D7089093D808A093D908B093DA0891
:1051F00041E04093DB0883E697E29093DD088093DB
:10520000DC0884EF91E0A0E0B0E08093F108909397
:10521000F208A093F308B093F4084093F50829ED41
:1052200037E23093F7082093F6088093FE089093B6
:10523000FF08A0930009B09301094093020985ED8E
:1052400097E290930409809303090E94BA378BE098
:105250008093AD0314C082E00E94A2378EEA97E2E9
:1052600090938509809384098EE699E00E943FCB54
:105270008CE08093AD0363E188E895E081D52FB79A
:10528000F8948091D50A9091D60A90619093D60AAD
:105290008093D50A2FBFA7C481E090E09093660960
:1052A00080936509909364098093630980936209F0
:1052B00080916709807F81608093670982E699E029
:1052C00090935E0980935D0989E997E29093600964
:1052D00080935F098AE599E00E9460478DE08093A2
:1052E000AD036FE08CE995E0C9CF81E090E0909349
:1052F0001E0C80931D0C82E08093110C1092130CF5
:105300001092120C21E020931C0C83E299E0909300
:10531000250C8093240C87E390E09093230C8093DA
:10532000220C2093210C8AE298E29093290C80931E
:10533000280C1092AD036FE080ED97E053C46AE053
:105340008CEA95E01DD520914E0C30914F0C409188
:10535000500C5091510C92E0E92E06E062E383EF8D
:1053600092E065D52091420C3091430C4091440C61
:105370005091450C08E062E383EF92E058D520910C
:105380003E0C30913F0C4091400C5091410C0BE091
:1053900062E383EF92E04BD52091D70B3091D80B8D
:1053A0004091D90B5091DA0B0DE062E383EF92E06C
:1053B0003ED580913D0C882311F08DE201C08BE237
:1053C0008093F8022091E70B3091E80B40E050E029
:1053D00084E0E82E08E262E383EF92E028D5209192
:1053E0004C0C30914D0C40E050E00DE262E383EF55
:1053F00092E01DD5E3EFF2E0A3E2B9E081918D9355
:1054000023E0E532F207D1F789EF9BE00E94F143F8
:1054100062E383EF92E0B4D462E08FEA97E0B0D425
:10542000E2C31092AD038FEF8093380C81E180933B
:10543000390C85EE80933A0C82E780933B0C8AE826
:1054400080933C0C89E693E00E9400EC019621F4E5
:1054500065E187EB95E094D489E693E00E9436EC11
:10546000019621F466E18DEC95E08AD46CE084EE3F
:1054700095E086D460E1B4C31092AD0380E28093DE
:10548000F80B8CE993E00E9400EC019621F464E1B2
:1054900081EF95E075D48CE993E00E9436EC01969B
:1054A00021F465E186E096E06BD46BE08CE196E058
:1054B00067D461E195C31092AD0381E08093CF087A
:1054C0008CE993E00E9400EC019621F464E181EF05
:1054D00095E056D48CE993E00E945EEC019621F4AD
:1054E00065E188E296E04CD46FE08DE396E048D425
:1054F00062E176C31092AD0384EF8093F80B8CE9E0
:1055000093E00E9400EC019621F46AE18EE496E0BB
:1055100037D48CE993E00E9436EC019621F46BE1DC
:1055200089E696E02DD461E185E896E029D463E12F
:1055300057C31092AD0381E08093DD0B80E180932F
:10554000DE0B8BE893E00E9400EC019621F468E109
:1055500087E996E015D48BE893E00E9436EC01963B
:1055600021F469E180EB96E00BD46FE08AEC96E0E1
:1055700007D464E188EE93E035C31092AD03109236
:10558000F80B8CE993E00E9400EC019621F46AE1AB
:105590008AED96E0F5D38CE993E00E9436EC019613
:1055A00021F46BE185EF96E0EBD361E181E197E0D7
:1055B000E7D365E115C31092AD0381E08093CE0877
:1055C0008CE993E00E9400EC019621F46AE18AEDF7
:1055D00096E0D6D38CE993E00E945EEC019621F42C
:1055E0006BE185EF96E0CCD361E181E197E0C8D330
:1055F00062E0F6C21092AD0382E08093F80B8CE972
:1056000093E00E9400EC019621F46AE183E297E0C6
:10561000B7D38CE993E00E9436EC019621F46BE15C
:105620008EE397E0ADD361E18AE597E0A9D367E126
:10563000D7C21092AD038AE793E00E9400EC019676
:1056400021F469E18CE697E09BD38AE793E00E941E
:105650005EEC019621F46BE186E897E091D360E17E
:1056600081EA97E08DD36AE0BBC21092AD038FE36D
:105670008093460C86E88093470C88E593E00E946F
:1056800000EC019621F465E182EB97E079D388E59F
:1056900093E00E9436EC019621F466E188EC97E0F5
:1056A0006FD36CE08FED97E06BD363E084EF91E014
:1056B00099C21092AD0381E28093460C81EB8093F6
:1056C000470C88E593E00E9400EC019621F464E128
:1056D0008CEE97E055D388E593E00E9436EC019676
:1056E00021F465E181E098E04BD362E187E198E045
:1056F00047D38EED98E00E94EFE775C21092AD039C
:105700008CEE8093460C85E08093470C88E593E00F
:105710000E9400EC019621F468E18AE298E030D31F
:1057200088E593E00E9436EC019621F469E183E478
:1057300098E026D367E02FC01092AD0387E493E092
:105740000E9400EC019621F464E18DE598E018D305
:1057500087E493E00E945EEC019621F464E182E725
:1057600098E00ED365E017C01092AD0381E08CDCA9
:1057700068E011C01092AD0381E0CFDC66E00BC0A1
:105780001092AD0382E080DC69E005C01092AD03A9
:1057900082E0C3DC66E184E690E024C21092AD03AF
:1057A0000091E90B10E0102F00278091EA0B082BE5
:1057B0001093F70B0093F60B6091EC0B862F90E0A3
:1057C000A0E0B0E06627782F892F9A2F2091ED0B6B
:1057D000622B6093F20B7093F30B8093F40B909316
:1057E000F50B0E9454FC20E030E040E857E30E94B3
:1057F000B8FC20E038EB48E856E40E94B8FC0E9470
:1058000021FC6093480C7093490C80934A0C909350
:105810004B0C6091EF0B862F90E0A0E0B0E0662784
:10582000782F892F9A2F2091F00B622B6093330CE5
:105830007093340C8093350C9093360C0E9452FC7C
:1058400020E030E040E857E30E94B8FC20E030E47C
:105850004CE156E40E94B8FC0E9426FC6093DF0BEA
:105860007093E00B8093E10B9093E20B980140E082
:1058700050E065E0E62E01E065E187E692E0D7D2F0
:105880002091480C3091490C40914A0C50914B0C9E
:105890006CE18BE492E0FCD22091DF0B3091E00BC5
:1058A0004091E10B5091E20B60E28BE292E0BFD2BB
:1058B0002091480C3091490C40914A0C50914B0C6E
:1058C00004E162E383EF92E0E3D22091DF0B3091B9
:1058D000E00B4091E10B5091E20B74E0E72E0AE1FE
:1058E00062E383EF92E0A3D22091F60B3091F70BA5
:1058F00040E050E00FE162E383EF92E098D28091C4
:10590000310C9091320CE1E5AE2EF7E0BF2EA7E10D
:10591000CA2EB4EDDB2E12E6E12E08E1F02E00E0F7
:1059200010E09C0140E050E060E070E080E090E03A
:105930000E94FBFA59016A017B018C012F3F3F4312
:1059400045445D48644472478048964009F090F4AD
:1059500020E030E445E45DE864E472E780E896E046
:105960000E9403FC19012A013B014C0181E0809354
:105970003D0C11C09501A601B701C8013054454442
:105980005D48644472478048964019012A013B01F2
:105990004C0110923D0CA12CB12CF1ECCF2EAFE6B6
:1059A000DA2EB2EFEB2E16E8F12E03E210E09101B1
:1059B000A201B301C4010E944EFB2B833C834983A7
:1059C0005A8320934E0C30934F0C4093500C5093BD
:1059D000510C9101A201B301C4010E944CFB209320
:1059E000420C3093430C4093440C5093450C8091EF
:1059F0003D0C882311F08DE201C08BE28093D5022B
:105A00004091DB0B5091DC0B9DE3A92E21E9B22ED6
:105A100030E6C32E64EED62E78E5E72EE1E1FE2EC9
:105A200000E010E09A0140E050E060E070E080E0CB
:105A300090E00E94FBFA2F3FEFEF3E07E5E84E07AC
:105A4000EEE95E07EEEA6E07E9E27E07E5ED8E0716
:105A5000910561F058F046585E496E4A7942854D8D
:105A6000910919012A013B014C0108C0212C312C5C
:105A7000412C512C612C712C812C912CA12CB12CFE
:105A800041ECC42E5FE6D52E62EFE62E76E8F72EC7
:105A900003E210E09101A201B301C4010E944EFB98
:105AA00020933E0C30933F0C4093400C5093410C9C
:105AB0009101A201B301C4010E944CFB2093D70BBA
:105AC0003093D80B4093D90B5093DA0BE3E0EE2ED2
:105AD00001E02B813C8149815A816EE185ED92E0A4
:105AE000A6D12091420C3091430C4091440C50912E
:105AF000450CF2E0EF2E05E06EE185ED92E097D1E6
:105B00004091310C5091320C22E06AE18BEB92E033
:105B10006BD120913E0C30913F0C4091400C509144
:105B2000410C01E068E283E992E081D12091D70B3A
:105B30003091D80B4091D90B5091DA0B04E068E218
:105B400083E992E074D14091DB0B5091DC0B22E0B1
:105B500067E18CE792E048D12091E30B30E0322FEF
:105B600022278091E40B282B3093E80B2093E70B3E
:105B700040E050E0B5E0EB2E01E065E180E092E02E
:105B800056D12091E50B30E0322F22278091E60B91
:105B9000282B30934D0C20934C0C40E050E066E1F4
:105BA00085E192E044D165E180E092E0E9D066E1F0
:105BB00085E192E0E5D065E187E692E0E1D06CE135
:105BC0008BE492E0DDD060E28BE292E0D9D06EE12E
:105BD00085ED92E0D5D068E283E992E0D1D06EE025
:105BE00081E090E095D92496E2E10C94C6FB0895FB
:105BF000089508950895CF92DF92FF920F931F9317
:105C0000CF93DF93E42FF0E0F090830A2AEF30E0A7
:105C10002F1931092E173F0734F15091820A20E0E5
:105C200030E0EC01C60FD11D0AEF10E02E173F0740
:105C3000ACF4852F90E0BC016957764F6B01BE0133
:105C4000620F731FDB015C91D6015C932F5F3F4FA6
:105C50000196B8010E947FFA582FE8CF5093820A2C
:105C6000F40EF092830ADF91CF911F910F91FF9074
:105C7000DF90CF9008951F93CF93DF931092B60AD1
:105C80001092B70A1091830A112309F446C080913B
:105C9000810AE4E8FAE01333E0F4212F30E0CAEFA0
:105CA000D0E0AF0144585A40421753075CF490E0EB
:105CB000DC01A957B64F4C9141930196BE010E9459
:105CC0007FFAEFCF8093810A1093B60A1092830A6D
:105CD00018C02AEF30E090E0DC01A957B64F4C9194
:105CE00041930196B9010E947FFA9AE0E63BF907D9
:105CF00091F78093810A82E38093B60A125310933E
:105D0000830A81E08093B70A4091B60A50E064E8C4
:105D10007AE086EB9BE00E9451EBDF91CF911F91DF
:105D2000089588EC8093C10B1092C20B83E390E03E
:105D30009093C40B8093C30B86E08093C50B1092A5
:105D4000C60B1092C70B1092D60B1092CB0B109271
:105D5000CA0B1092CD0B1092CC0B1092CF0B10925D
:105D6000CE0B1092D10B1092D00B8BE39EE290934E
:105D7000D50B8093D40B86EB9BE00C94F2EA08954C
:105D8000462F2091B70A222319F060E034CF0895FE
:105D9000FC01A4E8BAE0633370F4862F90E09D0123
:105DA00024583A40281739071CF421912D93F7CF36
:105DB0004093B60A0CC021912D932AE0A63BB2076E
:105DC000D1F722E32093B60A425362E314DF81E065
:105DD0008093B70A4091B60A50E064E87AE086EB17
:105DE0009BE00C9451EB089570E030E0F90133969C
:105DF000E617F707DCF463E070E0280F391FE42FA3
:105E0000EF70CA018F7099270A9710F480E301C0E0
:105E100087E38E0FF901E60FF71F808384E0569524
:105E200047958A95E1F76150710948F70895A0E018
:105E3000B0E0EDE1FFE20C94B0FBF12CF701E00FD4
:105E4000F11DC62FD0E0CE17DF07ECF0C0E0D0E0A8
:105E50008C010E0F1F1F6AE0862E912CA12CB12CF5
:105E60002197F701EC0FFD1F319669F06801CC0E08
:105E7000DD1EB901CA01A50194010E9492FA605D7C
:105E8000F6016083EDCFCDB7DEB7ECE00C94CCFB30
:105E9000A0E0B0E0EEE4FFE20C94B0FBFC01C62F02
:105EA000CA01B90110E057FD02C02BE208C090956D
:105EB0008095709561957F4F8F4F9F4F2DE2DF0149
:105EC000A00FB11F2C9398012F5F3F4FF12C2E0D87
:105ED0003F1D4C2F50E04217530704F1C0E0D0E0C3
:105EE0000E0D1F1D0E0F1F1FEAE08E2E912CA12CF0
:105EF000B12C21979E01215031092E0D3F1D37FDF8
:105F00000DC06801CC0EDD1EA50194010E94B4FAFB
:105F1000605DF6016083B901CA01EBCFCDB7DEB792
:105F2000ECE00C94CCFBA2E0B0E0E9E9FFE20C94D9
:105F3000B2FB6C010091530C1091540CE12CF12C2C
:105F40008091570C9091580CE816F906A8F4580166
:105F5000B8016C5F7F4F42E050E0CE0101960E9495
:105F60009AFD0A5F1F4F29813A812C153D0539F0B2
:105F70008FEFE81AF80AE4CF80E090E001C0C50195
:105F80002296EAE00C94CEFBADE0B0E0EAECFFE252
:105F90000C94B4FB7C016B0123E0969587952A95C0
:105FA000E1F7FC01ED5AF34F228D30E0B701677045
:105FB0007727062E02C0369527950A94E2F78E01C0
:105FC0000F5F1F4F20FF42C027E0EDE6FCE0D80145
:105FD00001900D922A95E1F7A0E020E030E04A2FF1
:105FE00050E048175907D8F4F801E40FF51F408135
:105FF000542F569555754575540F452F4695469522
:1060000043735373450F4083E42FEF7042954F70F5
:1060100050E04E0F511D240F351FAF5FE0CFE0E081
:10602000D801A80FB91F4E2F50E04617570780F42C
:106030004C9150E00E2E02C0569547950A94E2F717
:1060400041705527240F351FEF5FEDCF2FEF3FEF46
:106050001B870A8746E0429FC001439F900D112491
:1060600004969987888786E090E09D878C8766E70D
:1060700071E3CE01089672D18D819E81E816F906F2
:1060800039F084E090EA9093870C8093860CE1D5F8
:1060900089819A81F601918380832D96E8E00C94A2
:1060A000D0FBA6E0B0E0E7E5F0E30C94B6FB7C01A2
:1060B0008B0180E090E0FC0133E0F695E7953A959E
:1060C000E1F7EE0DFF1D6081AC0147705527262FCB
:1060D00030E0042E02C0369527950A94E2F720FF9F
:1060E0000DC021E030E001C0220F4A95EAF720956B
:1060F0002623208318DF009731F431C001968333C3
:106100009105C9F62CC046E050E0BC01CE010196D5
:106110000E949AFD89819A81F80193838283B80154
:106120008D819E8131DFF801808191810596918377
:1061300080838B819C819583848382819381892B49
:1061400039F480E090EA9093870C8093860C81D597
:106150008D819E81F7019087878381E006C08FEF54
:106160009FEFF7019087878380E02696E6E00C9406
:10617000D2FBA8E0B0E0EFEBF0E30C94B0FB7C01C5
:10618000A090550CB090560CFC01868182FD09C090
:1061900000E010E0812C76E0972ECC24C394D12C23
:1061A0000CC047E050E06FEF70E0C7010E94CAFDED
:1061B0006DC0882483940F5F1F4F8091590C90917C
:1061C0005A0C0817190708F05BC0909EB001919E09
:1061D000700D11246A0D7B1D46E050E0CE01019642
:1061E0000E949AFD2D813E81F90163E0F695E795C5
:1061F0006A95E1F7EE0DFF1D408127703327842F4C
:1062000090E0022E02C0969587950A94E2F780FFEF
:10621000D2CFC60102C0880F991F2A95E2F79C01D0
:10622000209524232083812C882D90E02B813C8194
:106230008217930708F0BDCF880F991F69817A8173
:10624000680F791F42E050E0CE0107960E949AFD48
:106250008F819885FC0153E0F695E7955A95E1F713
:10626000EE0DFF1D87709927960102C0220F331F84
:106270008A95E2F7C9019081982B90838394D4CFBB
:10628000882021F000E010E0812C97CF2896ECE0E8
:106290000C94CCFBCF93DF93EC018FEF9FEF9887AB
:1062A0008F8387E0FB01DE0101900D928A95E1F773
:1062B000CE015FDFEDE6FCE091918881892389932F
:1062C0008CE0E437F807C1F7DF91CF910895809112
:1062D000810C9091820CA7C2089510927E0C87E6E3
:1062E00091E39093800C80937F0C08950895E6E6E7
:1062F000FCE0DC013D91CD012081232B2193BCE00A
:10630000ED36FB07B1F78091830C84608093830C9A
:1063100008950E9416EF882311F0DFD5FACF089573
:10632000A2E0B0E0E6E9F1E30C94B8FB8B018983CD
:106330009A83EFDFB80189819A810E9439EE019634
:1063400031F081E30637180721F4E3DF02C081E072
:1063500001C080E02296E4E00C94D4FBA2E0B0E01F
:10636000E4EBF1E30C94B8FB8B0189839A83D1DFD2
:10637000B80189819A810E94C6ED019631F081E3CE
:106380000637180721F4C5DF02C081E001C080E0B4
:106390002296E4E00C94D4FBA2E1B0E0E2EDF1E35C
:1063A0000C94ADFB8091830C982F92609093830C9A
:1063B00082FF0AC066E67CE088EB9AE06BDF8091A2
:1063C000830C8B7F8093830CCC24C394D12C7E01CF
:1063D0003DE0E30EF11C55E0A52EB12C4E0182E10B
:1063E000880E911CBE01695F7F4F88EB9AE059DEF1
:1063F000882309F462C06090BF0A7090C00AF3015C
:1064000063E0F695E7956A95E1F7ED5AF34FC3011E
:1064100087709927960102C0220F331F8A95E2F7F1
:10642000C901809593898923838BFC82EB82BE828C
:10643000AD828F81988505979A83898366E771E39A
:10644000CE0101968BDF4B855C8569857A8580E07E
:106450005ED0582E8D8558123AC088899989681661
:106460007906A9F52B853C858E859F8528173907E8
:1064700071F59C828B82DE82CD8200E010E02B855C
:106480003C850217130708F0ADCF2F813885200F08
:10649000311F3A83298366E771E3CE0101965EDFFF
:1064A000AB81BC81E985FA85E00FF11F9C91808169
:1064B00098130DC00F5F1F4FE2CF8091830C8D7F2B
:1064C0008093830C60E070E08FE001D21CC05D8699
:1064D000798A688A8B859C859F878E87FC82EB8270
:1064E00085E090E09E838D838F81988505979A83C0
:1064F00089836CEC71E3CE01079612DF66E771E3E6
:10650000CE0101960DDF6296EFE00C94C9FBFB0112
:10651000460F571FE417F50719F09191890FFACF2D
:1065200008954F925F927F928F929F92AF92BF9207
:10653000CF92DF92EF92FF920F931F93CF93DF934F
:10654000CDB7DEB762970FB6F894DEBF0FBECDBFF2
:1065500080E094E49093540C8093530C86E994E487
:106560009093560C8093550C06E914E400501444A3
:10657000C80166E070E00E946BFA892B39F080E276
:1065800090EA9093870C8093860C63D326E030E0EA
:10659000C801B9010E946BFA4091570C5091580CF8
:1065A000642B752B7093580C6093570C04EB14E418
:1065B00006591444C801B9010E946BFA892B39F0BD
:1065C00081E290EA9093870C8093860C42D3C801B5
:1065D00066E070E00E946BFA8091590C90915A0C21
:1065E000682B792B70935A0C6093590C0091530CC3
:1065F0001091540C10925B0C10925C0C10925D0C7C
:1066000010925E0C87E0EDE6FCE0DF011D928A95BA
:10661000E9F7D12CEE24E394F12C8091570C909162
:10662000580C2D2D30E028173907C8F546E050E00A
:10663000B801CE0101960E949AFD2B813C812B5F0F
:106640003F4F80915B0C90915C0CA0915D0CB091E0
:106650005E0C820F931FA11DB11D80935B0C909364
:106660005C0CA0935D0CB0935E0C8D819E81FC014F
:1066700033E0F695E7953A95E1F7ED5AF34F8770D9
:106680009927970102C0220F331F8A95E2F7C901AB
:10669000928D982B928F0A5F1F4FD394BECF26E026
:1066A000289F6001299FD00C112434E0C30ED11C17
:1066B000E12CF12CCE010796988B8F8786E090E035
:1066C0009A8B898BA12CB12C00E010E096E0792EFA
:1066D00022E2822E20EA922EF80183E0F695E795D9
:1066E0008A95E1F7ED5AF34F828D90E0980127707B
:1066F000332702C0969587952A95E2F780FF41C01F
:106700007A9CC0017B9C900D112404969E878D87F6
:1067100066E771E3CE010D9621DE8B859C8580179F
:10672000910749F48F819885A985BA858C159D05B7
:10673000AE05BF0559F01C870B87CF82D886E98646
:10674000FA8666E771E3CE010D96EADDC801EBDB60
:106750002C01009729F49092870C8092860C79D2B4
:1067600046E050E0B201CE0101960E949AFD8B8175
:106770009C810596C80ED91EE11CF11C8FEFA81A4A
:10678000B80A0F5F1F4F0333110509F0A5CFA5DD30
:1067900062960FB6F894DEBF0FBECDBFDF91CF91EA
:1067A0001F910F91FF90EF90DF90CF90BF90AF902F
:1067B0009F908F907F905F904F90089520E0FC0114
:1067C0003191CF01311105C02F5F2730C1F780E033
:1067D000089581E0089527E0FB0111922A95E9F7D9
:1067E000FC0123E0F695E7952A95E1F7E60FF71F00
:1067F0008770992721E030E001C0220F8A95EAF7DF
:106800008081822B8083CB01B4CC0895ADE6BCE0BF
:10681000FC013D912081232321932CE0A437B20772
:10682000C1F7CCCF0895A7E0B0E0E9E1F4E30C9420
:10683000B9FBBE016F5F7F4FCEDFCE010196E6DF71
:10684000CE010196BBDF182F882339F0CE010196C7
:106850004EDD8091830C81FF9FDD812F2796E3E041
:106860000C94D5FB08950895A2E0B0E0EAE3F4E3C8
:106870000C94BAFB8091C10A8823E9F0BE016F5FD6
:106880007F4F81E290E02ED4BE016E5F7F4F8DE19D
:1068900090E028D48981823071F48A8181110BC003
:1068A00083E394E39093CA0A8093C90A82EC9AE046
:1068B0000E94D3C702C00E94D5E52296E2E00C9464
:1068C000D6FB8091C10A08950C9415F10895A0E0BB
:1068D000B0E0EDE6F4E30C94B2FBB82E7B01082F98
:1068E00010E093E0169507959A95E1F78770C1E05F
:1068F000D0E001C0CC0F8A95EAF7AC2E8FE38B1560
:1069000038F484E090E89093870C8093860CA1D1B2
:10691000F801E553F54F80818C2311F1C091D30A22
:10692000D091D40A85E0C82E80E8D82E2097C1F0F7
:10693000FE01E00FF11F82818A2171F02A853B85DB
:10694000232B29F4D092870CC092860C82D1EA8541
:10695000FB85B7018B2D19950990D881C02DE6CF05
:10696000CDB7DEB7EAE00C94CEFBE82FF0E023E0F1
:10697000F695E7952A95E1F7E553F54F208130E04C
:10698000877041E050E002C0440F551F8A95E2F73E
:106990002423352381E0232B09F480E00895282F58
:1069A00030E043E0369527954A95E1F7620F731F73
:1069B000877021E030E001C0220F8A95EAF7FB01E1
:1069C0009281922381E009F480E008951F93CF9390
:1069D000DF93182FEB01803438F023E030E8309358
:1069E000870C2093860C35D1BE01812FD8DF811111
:1069F0002AC0BE0183ED9AE09AD081110BC088E0D5
:106A0000FE013296DF011D928A95E9F7BE0183ED02
:106A10009AE09DD0412F50E063E0569547956A95E6
:106A2000E1F7177021E030E001C0220F1A95EAF774
:106A3000C40FD51F8A81822B8A83FA01E553F54F53
:106A40008081822B8083DF91CF911F9108951F93C6
:106A5000CF93DF93182FEB01803438F023E030E838
:106A60003093870C2093860CF4D0BE01812F97DFE2
:106A7000882369F1212F30E073E0369527957A95C8
:106A8000E1F7177041E050E0012E01C0440F0A9475
:106A9000EAF7942F9095C20FD31F8A8189238A83A6
:106AA000E091D30AF091D40A309759F0DF01A20F98
:106AB000B31F12968C91842351F40190F081E02D44
:106AC000F3CFF901E553F54F808189238083DF916E
:106AD000CF911F910895DC01ED91FC9111973097B2
:106AE00021F0208131812D933C93CF0108956115D0
:106AF0007105A1F0DC01ED91FC911197E617F70704
:106B000059F4208131812D933C930FC08081918174
:106B10008617970729F0FC013097C1F780E00895A8
:106B2000DB018D919C919183808381E00895DC014C
:106B3000ED91FC91309739F0E617F70731F00190AD
:106B4000F081E02DF7CF80E0089581E008950F9364
:106B50001F93CF93DF938C01EB01E9DF882349F08A
:106B600080E090E89093870C8093860C5AD080E068
:106B700014C019821882D801ED91FC9111973097B9
:106B800019F4CD93DC9308C080819181009711F0B6
:106B9000FC01FACFD183C08381E0DF91CF911F91B7
:106BA0000F910895CF93DF93FC0182819381009729
:106BB00081F40E9443E8C22FD32F0E94965744E0ED
:106BC000FC0121913191CF01C227D3274150C1F758
:106BD000CE010E948FFD81E08093B4038CEB93E0A3
:106BE0000E94EFE7DF91CF9108958EEA93E00C9435
:106BF000075808958091B403882369F08CEB93E0E3
:106C00000E941FE882ED95E39093BB038093BA0343
:106C10001092B403EACF08958CEB93E00C941FE834
:106C2000089582E090E09093890C8093880C809185
:106C3000860C9091870C90938B0C80938A0CE0913A
:106C4000840CF091850C309719F088E89CE0199538
:106C5000089583E090E09093890C8093880C809154
:106C6000860C9091870C90938B0C80938A0CE0910A
:106C7000840CF091850C309719F088E89CE0199508
:106C80000895EF920F93FC01618372834F3740F0B8
:106C900081E090E89093870C8093860CC2DF20C03F
:106CA000403808F04FE7440F808181700187842BC2
:106CB000E0FA80F9808334832383CB01AC016081C7
:106CC000669504962181328174E0679F200D311D05
:106CD00011244217530720F4DC0111971C92EECFC8
:106CE0000F91EF900895A0E0B0E0E9E7F6E30C948F
:106CF000B3FBEC018B01B42E0E9443E869017A01D9
:106D00008D819E81AF81B885A7019601281B390B23
:106D10004A0B5B0BCA01B9012B813C8140E050E07A
:106D20000E9492FA2F3F31054105510518F42223A4
:106D3000F9F001C02FEF89819A81BC013881369525
:106D4000049649815A81E4E03E9F400D511D112473
:106D50006417750748F4FC013291432F231708F498
:106D6000422F341B3083E9CFCD82DE82EF82F8865A
:106D7000A981BA814881842F86959D0154E0859F21
:106D8000200D311D1124C901E0E0F0E0A817B9077A
:106D9000C0F413965C911397552359F02D913C91B3
:106DA00011972017310729F412962C9112972B1561
:106DB000C1F0309719F02381521708F4FD011496A1
:106DC000E5CF40FD06C0309771F0838181110BC083
:106DD00002C0309751F011830083B282898583838A
:106DE00004C080E003C082E001C081E0CDB7DEB71F
:106DF000E9E00C94CFFBFECE08950895CF93DF9386
:106E00006091C9037091CA0380E090E0E1E0F0E096
:106E10009F01082E02C0220F331F0A94E2F740910F
:106E2000D50A5091D60A4623572342235323452B94
:106E300011F16FB7F8944091D50A5091D60A209578
:106E40003095242335233093D60A2093D50A6FBF7B
:106E5000FC01EE0FFF1FE957F74FC081D18120974A
:106E600039F486E090E89093870C8093860CF1DEED
:106E7000FE01199504C001968F30910549F6DF9106
:106E8000CF9108950E94E5E50E9423B7882371F011
:106E90002FB7F8948091D50A9091D60A806190938B
:106EA000D60A8093D50A2FBF81E0089582E0089525
:106EB000A5DF60E070E08BE20ADD8091D50A909159
:106EC000D60A892B09F4D0DC2091D50A3091D60A54
:106ED00081E0232B09F480E0089590CF0895FC0110
:106EE0002081211105C021E02193CF010C94EFE70F
:106EF0000895FC012081213021F41192CF010C94DE
:106F00001FE80895A5E0B0E0E8E8F7E30C94B6FBCD
:106F10007C012A833B834C835D836983EADFF7012D
:106F20001082698163872A813B814C815D8127833F
:106F3000308741875287158704872596E6E00C94B1
:106F4000D2FB0895813031F018F0823029F0089595
:106F50002F9A08952E9A08952C9A0895813031F031
:106F600018F0823029F008952F9808952E980895EA
:106F70002C980895279A269A249A2F9881E0EEDF7C
:106F800082E0ECDF80E0089589E3EDE4F9E1DF01E0
:106F90001D928A95E9F7EEE6F9E183E080838AE0C5
:106FA00081831282138287E084831582168217827E
:106FB00095E09093781991E09093801980937919D6
:106FC00047E850E064E67BE48EEC99E10E949AFD8C
:106FD00043E150E061E57BE48AE399E10E949AFD98
:106FE00043E050E06EE47BE487E399E10E949AFD80
:106FF00048E450E066E07BE486E899E10E949AFD6F
:107000008BEA9CE0ECE8FCE0DF019C011D92215042
:107010003040E1F70895A4E0B0E0E1E1F8E30C943A
:10702000BAFBBC011A8219821C821B828827811537
:1070300021E0920769F0811522E09207B9F0892BCF
:10704000E9F4660F771F660F771F6856764B07C007
:107050007727660F771F660F771F6452774B44E0E0
:1070600050E0CE0101960E949AFD0FC07727660F6F
:10707000771F660F771F645B774BF1CF8AE090E64E
:107080009093870C8093860CE4DD69817A818B81F3
:107090009C812496E2E00C94D6FB76DF42CA0895E8
:1070A000A4E0B0E0E6E5F8E30C94B6FB7C018B01CC
:1070B000B2DFEE24E11422E0F20669F026E030E6C9
:1070C0003093870C2093860C69837A838B839C830F
:1070D000C0DD7A816981F801718360832496E6E0DE
:1070E0000C94D2FBA4E0B0E0E8E7F8E30C94B6FB24
:1070F0008C017B0190DFE114F10479F420E030E6AB
:107100003093870C2093860C69837A838B839C83CE
:10711000A0DD9C818B817A81698100270115110591
:1071200049F0011521E0120751F4AC01C7010E949A
:107130009AFD0CC0AC01C7010E94B0FD07C081E000
:1071400090E69093870C8093860C83DD2496E6E08E
:107150000C94D2FBA0E0B0E0E0EBF8E30C94B4FBBD
:107160008C01EB0158DF6B017C01209739F484E03E
:1071700090E69093870C8093860C6BDD00270115B9
:10718000110539F085E090E69093870C8093860C8A
:1071900060DDA701BE01C6010E94B0FDCDB7DEB71C
:1071A000E8E00C94D0FBFC0195A5892F887090FF36
:1071B00009C0882379F081E021A532A52236310566
:1071C00050F408C0882331F081E021A532A524368F
:1071D000310508F480E08170089521E030E001C0BD
:1071E000220F8A95EAF78091DA0A822B8093DA0AD5
:1071F0002FB7F8948091D50A9091D60A8062909327
:10720000D60A8093D50A2FBF0895CF93DF93E091DC
:107210005A1AF0915B1A8E179F0718F482E894E4CB
:1072200046C08E1B9F0B6CE670E00E946BFA80914B
:10723000551A681718F083E894E439C08CE6689F03
:10724000E00DF11D11248781869590E08230910533
:1072500059F014F00397D1F58091591A8823B1F1B0
:1072600081508093591A32C08091581A882319F09E
:1072700081508093581ADF01AC5ABF4FCD91DC91F9
:1072800020915D1A30915E1ACE01821B930B63E24E
:1072900070E00E946BFAC217D30718F484E894E4F4
:1072A00006C08091561A681740F085E894E49093E0
:1072B000870C8093860CB5DC0CC0D90183E2689FF3
:1072C000A00DB11D11248C9181111C9287818E7F9C
:1072D0008783DF91CF910895CF93DF93EC0118A6B8
:1072E0008EA19FA1892B39F484E494E49093870CB8
:1072F0008093860CAEDCEEA1FFA1CE018896199595
:10730000DF91CF910895EF92FF920F931F93CF9348
:10731000DF93A091551A40915A1A50915B1A20E0C0
:1073200030E090E09A1709F45AC0FA01E20FF31F17
:10733000B90164597F4FB781B0FD63C07F0194E507
:10734000E90EF11CD7011D921C928230B1F010F0B1
:107350008330F1F59091591A4091571A941708F01B
:107360003EC09F5F9093591A138214821582168231
:1073700090859F709087128235C01091581A909115
:10738000561A191760F500915C1A40915D1A5091D8
:107390005E1A90E09017B9F0EA014D5D5F4FBA01B7
:1073A00063527109DB016C9161110BC01F5F109377
:1073B000581A41E048836896D701CD93DC93428305
:1073C00002C09F5FE7CF40915C1A49130BC007C012
:1073D00081E894E49093870C8093860C3ADC80E0FB
:1073E00090E012C09085907F9087880F816087839E
:1073F0001182108280915A1A90915B1A820F931F0A
:1074000003C09F5F9B018ECFCDB7DEB7E6E00C9443
:10741000D2FB2091EB0A21502093EB0ABC0185E0BE
:107420009BE095DB81E0D9CE0F931F93CF93DF9341
:107430008C01C091DB0AD091DC0A8091D70A90912F
:10744000D80A80519140813F954048F4B8018BEDB6
:107450009AE07DDBCD2B59F480E0BFDE08C083E6E7
:1074600094E49093870C8093860CF3DBEFCFDF914D
:10747000CF911F910F910895BC016151710987E06F
:107480009BE065DB81E0A9CE2091EB0A2F5F209382
:10749000EB0A0C949D976F927F929F92AF92BF924E
:1074A000CF92DF92EF92FF920F931F93CF93DF93D0
:1074B0001F92CDB7DEB78C017B01FB01E25AFF4F73
:1074C00089E09AE3918380833E9782E08083D801AC
:1074D00059968D919C915A973196918380839E966F
:1074E0008C919E97379680833196108231969D9627
:1074F0008C919D978095881F8827881F808331965F
:1075000081E08083319680839D968C919D9786FD46
:107510000BC021E059968D919C915A97883F9F4FBF
:1075200008F020E0822F01C081E0F701E35AFF4F0D
:1075300081708083C80137DEF701ED5AFF4F6F017C
:1075400097012C5A3F4F3901882309F442C090908B
:10755000071B4091081B242F30E080910B1B90E00B
:1075600001972817390739F4D80199968C91499DCC
:1075700080191124982EA92CB12CC5014E96823663
:10758000910538F081E594E49093870C8093860C04
:1075900060DB3091071B2091081B80911D1B90918F
:1075A0001E1BF80163A574A5329F600D711D112487
:1075B000A5014E960E94B0FD8AE0890DD6018C93FC
:1075C00080911D1B90911E1B4496F3019183808333
:1075D0000EC0D80199968C919997885F80839B966D
:1075E0008D919C919C970897D9018D939C93F30161
:1075F000C080D180D6012C912C7F2F7E2C93F80156
:10760000818D928D237F883F9F4F10F02860D60197
:107610002C93F60180818F7D8083D8019D969C916B
:1076200092FD03C08F7B808322C08064F60180833B
:10763000D70118962C911897207F216018962C93CB
:10764000C8012983B0DD29812F70882341F0809102
:107650000D1B8295807F822BF701808708C0809167
:1076600038198295807F822BD70118968C93C80198
:107670009ADDF60190818823A1F090689083909123
:10768000081B80858C7F911106C081608087809166
:107690000B1B818709C0826080878091081B8187CE
:1076A00003C09F77F6019083D80193968C919397AE
:1076B000F601818396968D919C919797938382830F
:1076C00094968D919C9195979583848398968C91AF
:1076D0008683C80168DD882331F080910C1BD601B8
:1076E00017968C9308C08091020B91E0980F9093AD
:1076F000020BF6018783C7010996C6DE80E00F9072
:10770000DF91CF911F910F91FF90EF90DF90CF907D
:10771000BF90AF909F907F906F900895E0911B1B5A
:10772000F0911C1BBF0180819181B5CEEAEFFAE197
:10773000F093CB1AE093CA1A92E09093C61A209164
:107740006D1A30916E1A3093C81A2093C71A9BE0B5
:107750009093C91A1092CE1A1092CF1A91E090937A
:10776000D01A9093D11A1092D21A2CEF3DE3309395
:10777000D51A2093D41A9093D31A9081907892605E
:10778000906890839091741A9093FB1A2091701ACC
:107790003091711A3093FD1A2093FC1A2091721ABD
:1077A0003091731A3093FF1A2093FE1A90916F1A3A
:1077B0009093001B9091751A9093011B92E0909307
:1077C000021B90916B1A9093031B90916C1A9093EB
:1077D000041B9091051B9093E31A1092661A109265
:1077E000671A1092681A1092691A80935F1A8FE7CD
:1077F0009AE14ACEA4E0B0E0E0E0FCE30C94B8FBF0
:10780000182FBE016F5F7F4F8AE190E06BDC209103
:10781000F00A3091F10A4091F20A5091F30AA12F37
:10782000B0E00E94EBFA09811A812B813C81600F44
:10783000711F821F931F2496E4E00C94D4FB0F93D6
:107840001F93CF93DF93EC018C0107551109FC01C5
:107850003C970190F081E02D6FEF818192810E9431
:10786000BC8E882361F0FE01329789E09AE3918310
:10787000808323971882C8010E948D9702C0CE0191
:10788000C8DDDF91CF911F910F9108956CE57AE1EA
:1078900080E191E027DC6DE57AE18EE092E000DCAA
:1078A00080915D1A90915E1A20E030915C1A231746
:1078B00048F4FC0133E2239FE00DF11D11241082F6
:1078C0002F5FF3CF65E57AE18FE091E00BDC6AE5AD
:1078D0007AE18DE092E0E4DB2091551AE0915A1AAA
:1078E000F0915B1A80E0821739F097819E7F978331
:1078F0008F5FE459FF4FF7CF90915C1A9093561A1F
:107900008093571A1092581A1092591A67E07BE127
:1079100088E291E0E7DB65E67AE189E291E0E2DB8B
:1079200064E67AE188E191E0DDDB8091641A8823E6
:1079300051F060E67AE18FE092E0B2DB6DE17BE14D
:1079400080E192E0ADDB3091641A2091651A80915C
:10795000601A9091611A329F800D911D11249093AD
:10796000631A8093621A10925F1A08956CE07BE0AC
:1079700082E192E095DB6BE07BE087E191E0B2DBB6
:1079800080910B0BE0910C0BF0910D0B882349F0CB
:10799000309739F489E294E49093870C8093860CB5
:1079A00040C99F0146E1849F200D311D1124C9016A
:1079B00028EAE817F90718F4258B7696FACF089588
:1079C0001F93CF93DF93EC01162F0097B1F08D81B9
:1079D0009E81892B91F08BED9AE07DD81F83ED81FC
:1079E000FE81CE01079619958091DB0A9091DC0A01
:1079F000892B59F080E0F1DB08C08BE694E490938A
:107A0000870C8093860C25D9E6CFDF91CF911F910B
:107A10000895A1E1B0E0EFE0FDE30C94AAFB8C0136
:107A2000262E29873A874B875C870E9464E4E09181
:107A3000F40A29853A854B855C85EE2361F1309007
:107A4000551AC090F70AD090F80AE090F90AF09021
:107A5000FA0A2B013C014C185D086E087F084D8224
:107A60005E826F827886E0915A1AF0915B1A198AC9
:107A700066246A94762C430169827A828B829C8286
:107A800046015701861A970AA80AB90A8D869E866A
:107A9000AF86B88A0BC00DE41EE3A3C0A781A0FD8A
:107AA00009C0A989AF5FA98BE459FF4FB989B31108
:107AB000F5CF40C0B085BF70B23099F7AA7FA23031
:107AC00081F783809480A580B68081149104A104FD
:107AD000B10439F3E017F10721F34D805E806F8028
:107AE0007884481459046A047B0468F44D845E84E5
:107AF0006F847888840C951CA61CB71C83829482A2
:107B0000A582B68204C013821482158216828380F5
:107B10009480A580B68049805A806B807C808414D4
:107B20009504A604B70408F0BCCF89829A82AB8280
:107B3000BC82B7CF211046C08090661A9090671A19
:107B4000A090681AB090691A81149104A104B1043C
:107B5000C9F12B013C014C185D086E087F084814E0
:107B600059046A047B0488F4C80CD91CEA1CFB1C69
:107B7000C61AD70AE80AF90AC092661AD092671A9A
:107B8000E092681AF092691A08C01092661A109270
:107B9000671A1092681A1092691A8091661A909169
:107BA000671AA091681AB091691A49805A806B804F
:107BB0007C8084159505A605B70520F489839A83F2
:107BC000AB83BC8389819A81AB81BC81281739073B
:107BD0004A075B0710F4DA01C9010DE41EE39C01BA
:107BE000AD0161E084EF9AE08DD984EF9AE077D916
:107BF0006196E2E10C94C6FB8091EB0A8150809380
:107C0000EB0A80915F1A833009F43CC0823039F06E
:107C100082E594E49093870C8093860C1AD8E091C7
:107C2000061BEE2379F181E080935F1AA091391948
:107C3000B0E011972AE030E00E94E5FA9B01AC0128
:107C40008091EC0A9091ED0AA091EE0AB091EF0AB2
:107C5000280F391F4A1F5B1FA0913819B0E00E94FE
:107C6000EBFA9B01AC016093661A7093671A8093DC
:107C7000681A9093691AE150E093061B61E080E076
:107C800090E0C7CE10925F1A1092661A1092671A8F
:107C90001092681A1092691A0895A4E0B0E0E3E522
:107CA000FEE30C94B2FB2FEF3FEFA90110E0AA24F2
:107CB000AA94B12C8091551A181708F054C0E0917D
:107CC0005A1AF0915B1A8CE6189FE00DF11D1124F1
:107CD000678160FF46C07085872F8F70823009F002
:107CE00040C0862F8A7F8230E1F583819481A5810F
:107CF000B681C090FB0AD090FC0AE090FD0AF0909B
:107D0000FE0A8C199D09AE09BF0983839483A5835C
:107D1000B6830097A105B105E9F4872F807F8460C1
:107D200080876E7F663059F4C5010090391902C012
:107D3000880F991F0A94E2F7809580930A1B81E0CF
:107D400029833A834B835C8348DA29813A814B81CA
:107D50005C8107C082179307A407B50710F49C0144
:107D6000AD011F5FA7CF8091661A9091671AA0910D
:107D7000681AB091691A0097A105B10551F1C09038
:107D8000FB0AD090FC0AE090FD0AF090FE0A8C19E4
:107D90009D09AE09BF098093661A9093671AA09354
:107DA000681AB093691A0097A105B10559F482E0E9
:107DB00029833A834B835C83B9DC29813A814B81E7
:107DC0005C8107C082179307A407B50710F49C01D4
:107DD000AD012F3FEFEF3E074E075E0751F00DE478
:107DE0001EE361E084EF9AE08DD884EF9AE077D8C3
:107DF00003C084EF9AE07DD82496EAE00C94CEFB91
:107E0000A0E0B0E0E6E0FFE30C94B1FB8C01962E1D
:107E1000C0910C0BD0910D0B80910B0B6E0196E174
:107E2000899FC00CD11C1124F8018589811109C0DA
:107E30007E01F6E1EF0EF11C58018CE0A80EB11C9A
:107E400009C085E294E432C08A3A89F06696F6E188
:107E5000EF0EF11CF801CC15DD0508F04AC0908545
:107E600021853285F70131978081843A69F7F701DE
:107E70003E9780819813EACF89859A85281739071C
:107E800029F748E050E0B801CE010E94A3FD892BFC
:107E9000E9F6F8018385F7013B9790818913D6CFE6
:107EA000813059F0833091F086E294E49093870C0E
:107EB0008093860C0E9411361DC0F80124853585FB
:107EC0008C859D852817390709F617C0F801948914
:107ED000F701329780819813B9CF48E050E0BE0196
:107EE000645F7F4FC5010E94A3FD892B09F0AECFCF
:107EF00004C0958A80E090E001C0CE01CDB7DEB726
:107F0000EBE00C94CDFBCF93DF93EC010097B1F144
:107F10008AEA8D8B0E94965748E050E0BC01CE0162
:107F20000E94A3FD892B51F582E88D8B88858150B5
:107F30008E3F20F58B858330C9F48C8981508E3F2C
:107F4000E8F42C853D854E855F85688979898A8925
:107F50009B89A0E00E9415FC71F480E194E4909369
:107F6000870C8093860C0E94113608C0813019F06E
:107F700086EA8D8B03C01D8A81E001C080E0DF911D
:107F8000CF910895CF93DF93EC01009761F169AB36
:107F90004115510551F0FA0140815181628173818F
:107FA0004AAB5BAB6CAB7DAB04C01AAA1BAA1CAA84
:107FB0001DAAEFA5F8A9309749F484E594E49093BD
:107FC000870C8093860C0E9411360DC0CE01C1969D
:107FD0001995CE01E8D8882331F010921C1B10921D
:107FE0001B1B81E0FAD8DF91CF910895A1E0B0E0AA
:107FF000ECEFFFE30C94B8FB8C01FC012081318194
:1080000080915D1A90915E1A2817390740F487E431
:1080100094E49093870C8093860C0E942936F80193
:108020008081918120915D1A30915E1A821B930BA1
:1080300063E270E00E946BFA8091561A681750F064
:1080400088E494E49093870C8093860C69830E9463
:108050002936698180915D1A90915E1AF3E26F9FD3
:10806000800D911D11242196E4E00C94D4FBFC01B9
:1080700020814597211107C0BC0189E09BE00E9447
:10808000A73581E0AAC840E050E069EA7BCFA3E0D1
:10809000B0E0EDE4F0E40C94B8FB8C01675F7F4F37
:1080A0007A836983BE016D5F7F4F8EE090E01AD8BE
:1080B0008B81D80199965C9199974091020B882306
:1080C00009F442C089819A81FC01E95BFF4F21E0FC
:1080D000208359962D913C915A9731963183208374
:1080E0003296585F50839B96ED91FC919C979C0132
:1080F000255B3F4F3897D901ED93FC938FEF818338
:10810000D80196968D919C919797938382839496AC
:108110008D919C9195979583848398968C91868375
:1081200081E0840F8093020B4783D901ED91FC918C
:108130008081807888608F778083E981FA81EB5A2B
:10814000FF4F89E09AE344C089819A81FC01E95B91
:10815000FF4F22E0208331962DEF3FEF31832083C4
:108160003296575F5083D8019B96ED91FC919C9776
:108170009C01255B3F4F3997D901ED93FC93D801C2
:1081800059968D919C915A979283818396968D9161
:108190009C9197979483838394968D919C919597C6
:1081A0009683858398968C91878381E0840F809352
:1081B000020B4087D901ED91FC91808180788C6021
:1081C0008F778083E981FA81EB5AFF4F8FE19CE33F
:1081D00091838083E981FA81D8019E968C919E9744
:1081E000E15BFF4F8083E981FA81E05BFF4F809183
:1081F00037198083E981FA81EF5AFF4F9D968C9160
:108200008095881F8827881F8083E981FA81EE5A2C
:10821000FF4F81E08083E981FA81ED5AFF4F80832F
:10822000E981FA81EC5AFF4F808389819A812CD9A8
:1082300080E02396E4E00C94D4FBDC01ED91FC910A
:1082400090931C1B80931B1B1092081B1092091B00
:108250008091381980930D1B2091071B30E081A578
:1082600092A5B9010E946BFA462F60930B1B81A562
:1082700092A5B9010E946BFA892B19F04F5F4093C8
:108280000B1B8FEF90E00090391902C0880F991FE7
:108290000A94E2F780958E7F80930A1B8091020BEF
:1082A00091E0980F9093020B80930C1B0895A0E02F
:1082B000B0E0EDE5F1E40C94B1FBEC016B01942E20
:1082C000590100910C0B10910D0B80910B0B780153
:1082D00096E1899FE00CF11C1124209761F0C017F2
:1082E000D107F0F583E294E49093870C8093860C99
:1082F0000E94293635C0E801CE01801B910B66E152
:1083000070E00E946BFA892B79F084E294E49093F8
:10831000870C8093860C0E94293606C01D89143A6A
:1083200039F01A3A29F06696CE15DF05B8F313C076
:1083300088859812F8CF89859A85C816D90699F745
:1083400048E050E0B501CE010E94A3FD892B59F70A
:10835000143A49F703C080E090E004C0CE0102C0A7
:108360006696CACFCDB7DEB7EBE00C94CDFB4F924B
:108370005F927F928F929F92AF92BF92CF92DF9245
:10838000EF92FF920F931F93CF93DF931F92CDB77E
:10839000DEB72C017B010E9496576C0157018AE6DB
:1083A000A80EB11CF501008111814114510431F076
:1083B000E114F10419F0C114D10451F484E194E4FE
:1083C0009093870C8093860C0E94113688EA5EC0D9
:1083D00058EAF20166A177A1960140A5C801598328
:1083E00066DF8C015981009709F44FC0F20186893C
:1083F0009789892B19F5F8017384F3E07F121EC069
:1084000048018CE0880E911CC4010E946FC7892B23
:10841000A9F4F2017286D2011D9688E0F401019060
:108420000D928A95E1F787E592E4F201978B868BAE
:10843000C20106960E9464C780E028C0F50111833E
:108440000083F80183858330B1F4C8010C960E9443
:108450006FC7009711F459EABCCFF8012489F201E3
:1084600023A3FC0180819181F201928F818FB7015A
:10847000C20111D80BC0F80184859585F201928F55
:10848000818FB701C20103DE01C0852F0F90DF91FC
:10849000CF911F910F91FF90EF90DF90CF90BF9001
:1084A000AF909F908F907F905F904F900895FF9234
:1084B0000F931F93CF93DF938C01055111092091E6
:1084C000551AC0915A1AD0915B1AF12CF216E9F0A4
:1084D0008F8180FF16C0888199818017910789F468
:1084E000BE01C80144DF882381F040E050E0682FDE
:1084F000C80148DDCE010E94053981E00E94ED38B7
:1085000004C0F394C459DF4FE1CF8091551AF81697
:1085100040F085E194E49093870C8093860C0E9450
:108520002936CDB7DEB7E5E00C94D3FBEF92FF928E
:108530001F93CF93DF931F921F92CDB7DEB77B01BE
:108540000097A1F06115710589F0FC01178A168A60
:10855000F701E659FF4F11821082B70108DF182F8B
:10856000882389F0C7010E9405390DC023E134E456
:108570003093870C2093860C89839A830E94293636
:1085800089819A81E2CF812F0F900F90DF91CF9157
:108590001F91FF90EF900895A1E0B0E0E2EDF2E4CA
:1085A0000C94B6FB8C01262FDC01ED90FC9000971B
:1085B00009F444C0E114F10409F440C02E3C61F018
:1085C000822F8F7D803D41F0213D11F082E005C07A
:1085D000F70185A587FFFACF83E0F801EB59FF4F3C
:1085E0004081518162817381D701D2964D935D9311
:1085F0006D937C93D597D1962C93833071F0D801ED
:10860000ED91FC91808D811108C0F701178A168ABF
:10861000B801C701ACDE883AE1F4A7014E5C5F4FB8
:10862000D701D1966C91F80180819181ABDCC801B2
:108630000E94053981E00E94ED380BC08FE494E47C
:108640009093870C8093860C29830E942936298178
:10865000B5CF2196E6E00C94D2FBCF93DF93EC01EB
:1086600052DC882309F454C060E0CE01C9DB892BB9
:10867000C1F5209709F43EC08D8981113BC050910E
:108680000B0B20910C0B30910D0B40E0451781F046
:10869000C9012A5E3F4FF90131976081683A31F490
:1086A00024EAFC01258B009731F432C04F5FEECFF6
:1086B0008EEA8D8B2DC0209719F03D89332349F028
:1086C00087E294E49093870C8093860C0E94113685
:1086D0001AC036E1FE01DC0101900D923A95E1F7F6
:1086E00006C066EACE018CDB009791F024EAFC011B
:1086F000258B09C080E294E49093870C8093860CCC
:108700000E942936BCCF60E070E080E10E946734AF
:10871000DF91CF910895CF93DF93EC010097D9F0CB
:1087200080910C0B90910D0BC817D907A0F02091E8
:108730000B0B36E1239F800D911D1124C817D9071B
:1087400050F48D89843A11F08A3A71F488EA8D8B5D
:10875000DF91CF91089581E294E49093870C809308
:10876000860C0E942936EDCF82E294E49093870C28
:108770008093860C0E942936E9CFCF93DF93EC01DA
:10878000C2DB882359F064EACE013ADB009731F06E
:10879000C2DF60E070E080E10E946734DF91CF913A
:1087A000089520910C0B30910D0B009751F0FC01B6
:1087B000769680910B0B96E1899F200D311D112437
:1087C00008C0F901F6CF8589843A49F08A3A39F030
:1087D0007696E217F307B8F380E090E00895CF01B2
:1087E0000895CF93DF93EC01BC0189E09BE00E94E8
:1087F000A7351F8A1E8A81E00E94ED38DF91CF9154
:108800000895CF93DF93EC01BC0187E09BE00E94C9
:10881000A7351B8A1A8A81E00E94ED38DF91CF913B
:108820000895AAE0B0E0E7E1F4E40C94B0FB109105
:108830007819BE01665F7F4F87E091E00E94723831
:10884000BE016F5F7F4F8AE190E00E947238C9805D
:10885000DA80EB80FC80812F90E0A0E0B0E08C1506
:108860009D05AE05BF0578F0CC0CDD1CEE1CFF1C91
:10887000C982DA82EB82FC82BE016F5F7F4F8AE1A0
:1088800090E00E94AA38C12ED12C87E0C80ED11CDE
:10889000EE24D7FCE094FE2CC092F00AD092F10AAC
:1088A000E092F20AF092F30A2A8530E0A3E0B0E009
:1088B0000E94D6FA9B01AC01C701B6010E9450FA92
:1088C00009811A812B813C81600F711F821F931FC8
:1088D0006093EC0A7093ED0A8093EE0A9093EF0A8E
:1088E00081E08887BE01675F7F4F87E091E00E944B
:1088F0007238BE01685F7F4F84E290E00E94723858
:10890000898590E0A0E0B0E0880F991FAA1FBB1FE7
:108910008F3F9105A105B10529F020F08FEF90E080
:10892000A0E0B0E00E94FA3BE885EE2309F45AC0CB
:10893000812C912C54018B019C0101501E4F2F4F13
:108940003F4F800E911EA21EB31E660F771F881F19
:10895000991FE15081F718867501640129E0F694AA
:10896000E794D794C7942A95D1F7D501C4019170A3
:10897000AA27BB2741E050E060E070E0892B8A2BFA
:108980008B2B19F440E050E0BA01C40ED51EE61E50
:10899000F71E1E821D821F82BE01695F7F4F81E12B
:1089A00091E00E947238BE016B5F7F4F88E092E0D9
:1089B0000E945038970186010F3F110521053105AE
:1089C00029F020F00FEF10E020E030E06D817E8193
:1089D000C12CEE24E39420E032E04F818DED9AE04B
:1089E0000E9441362A96ECE00C94CCFB882331F0AF
:1089F0000E948CFD8093020B1092EB0A10920A0BDE
:108A00001092090B1092080B1092070B1092060B94
:108A10001092050B1092040B1092030B8AE090E069
:108A2000A0E0B0E08093141B9093151BA093161B3D
:108A3000B093171B8EE89BE390931A1B8093191B2E
:108A400081E08093181B10926C1A1092751A109284
:108A50006A1A1092711A1092701A10926B1A109270
:108A60006F1A1092731A1092721A10926E1A109254
:108A70006D1A1092741A10925F1A1092661A109260
:108A8000671A1092681A1092691A8CE6E6E7FAE102
:108A9000DF011D928A95E9F783E2E2EEFAE1DF0158
:108AA0001D928A95E9F78091651A90E001962091D0
:108AB000641A289FA001299F500D112460E070E0E6
:108AC0008091601A9091611A0E94CAFD8AEF9AE122
:108AD0009093CB1A8093CA1AA4CE4F925F927F9242
:108AE0008F929F92AF92BF92CF92DF92EF92FF92BE
:108AF0000F931F93CF93DF931F92CDB7DEB77C0107
:108B0000009781F02C0127E0421A51088091DB0A7E
:108B10009091DC0A8415950529F4D20112968C9166
:108B2000893149F086E694E49093870C8093860C13
:108B30000E941136CBC08091D70A9091D80A811536
:108B4000B7E09B0709F07FC00091090B10910A0B59
:108B50000115110551F089E09BE00E946B3540E062
:108B600050E063EAC8010EDAEFCF6CE6C62ED12CD6
:108B70007CE6772EE2E4AE2EE4E4BE2EF3E48F2E04
:108B8000F4E49F2E0091050B1091060B01151105C1
:108B900009F444C0B80185E09BE00E9477358091DC
:108BA0005A1A90915B1AF801E81BF90BCF01B60134
:108BB0000E946BFA8091551A681740F0B092870CAA
:108BC000A092860C69830E9429366981E0915A1A25
:108BD000F0915B1A679DE00DF11D11248081918158
:108BE0002781269530E02130310561F022303105B2
:108BF00049F2232B61F4A8014B5F5F4FD801129615
:108C00006C9103C040E050E067EABCD9BBCF9092C2
:108C1000870C8092860C0E942936B4CF10E0809198
:108C2000551A1817D8F480915A1A90915B1ABCE61D
:108C30001B9F800D911D1124FC01278120FD0E94A6
:108C400005391F5FECCF8115924041F087E694E42F
:108C50009093870C8093860C0E9429361092DA0A32
:108C60001092D90A81E0C2DE0E94463C0E94B63CC6
:108C700082E393E09093D80A8093D70AD7018C912E
:108C8000F20182878BED9AE00E946B35D201189633
:108C90008D919C911997892B41F489E694E49093E6
:108CA000870C8093860C0E942936D2011896ED918C
:108CB000FC911997C701039619958091DB0A909151
:108CC000DC0A892B19F080E00E94ED380F90DF91CB
:108CD000CF911F910F91FF90EF90DF90CF90BF90B9
:108CE000AF909F908F907F905F904F900895CF931B
:108CF000DF93C091DB0AD091DC0A209741F484E62F
:108D000094E49093870C8093860C0E9429368A8184
:108D10008A38F9F0853C09F44FC0893109F06CC0FC
:108D20008091D70A9091D80A8031914019F480E05F
:108D300092E002C080E097E09093D80A8093D70A2F
:108D40008DE695E49E838D83CE0103960E947AAED4
:108D50005BC08091D70A9091D80A823323E09207B2
:108D600019F08031964049F48FE394E09093D80A4B
:108D70008093D70A56DD1D8202C083EA8D838BED76
:108D80009AE00E946B358B819C81892B41F48AE6A5
:108D900094E49093870C8093860C0E942936EB8193
:108DA000FC81CE01059619958091DB0A9091DC0A31
:108DB000892B51F180E018C08091D70A9091D80A90
:108DC0008F339440A1F480E095E09093D80A80938B
:108DD000D70A82E090E09C838B8384EF9AE00E9424
:108DE00079371092EB0A81E00E94ED380DC063EAFA
:108DF000CE010E94E03C08C085E694E49093870C85
:108E00008093860C0E942936DF91CF910895AAE0C5
:108E1000B0E0EDE0F7E40C94BAFBDC011396ED91C1
:108E2000FC9114972181328140E450E05A834983B8
:108E3000AE01495F5F4F5C834B8341E050E05E834E
:108E40004D836F3FBFEF7B0719F437FF15C003C099
:108E50002617370789F098878F837A876987BE013D
:108E60006F5F7F4F8EE10E94673481E02D813E81EC
:108E7000232B19F080E001C081E02A96E2E00C94F7
:108E8000D6FB009729F48091E90A9091EA0A0895A7
:108E9000FC01808191810895CF93C82FE0E0F0E03C
:108EA000CF01EFDFFC01009739F0A381B4818C91F1
:108EB000C813F6CFCF0102C080E090E0CF910895B3
:108EC000CF93DF93EC010097D9F086EA8F83EB8193
:108ED000FC813097A9F080819FEF980F903F80F43C
:108EE000DBDF892B69F421E08D819E81892B09F0DC
:108EF00020E02A83BE0189EE9AE00E94A7351F82F6
:108F0000DF91CF910895DF92EF92FF920F931F931D
:108F1000CF93DF938C01009741F480E394E4909326
:108F2000870C8093860C0E942936C0E0D0E0A1E334
:108F3000EA2EA4E4FA2ECE01A4DFEC01009789F119
:108F40008A818111F8CF8B819C81892B31F4F09239
:108F5000870CE092860C0E942936F80160A171A16D
:108F6000CE0155DF882339F3EB81FC81D0806D2D54
:108F7000F801878190850E94BC8E8823E1F2F80178
:108F8000D18AED81FE81309749F482E394E4909395
:108F9000870C8093860C0E94113603C0C801199576
:108FA000CACFCDB7DEB7E7E00C94D1FBA1E3B0E0C8
:108FB000ECEDF7E40C94B0FB8C01B62EDC015C9672
:108FC000ED90FC905D9757966D917C915897F701C5
:108FD00047818DED9AE00E947336882309F414C10D
:108FE000D70111968C919FEF980F9E3F28F454DF84
:108FF0006C01009719F408C1C12CD12CF801248907
:1090000085899689213009F022E02F839987888706
:10901000D70111968C918A8BF8018789908D0E94D7
:1090200072C7FC01009799F083E08B8B708161819E
:109030005281438134812581968187817E8B6F8B1C
:10904000588F498F3A8F2B8F9C8F8D8F02C082E073
:109050008B8BD80157968D919C9158979D8B8C8BBB
:1090600059968D919C915A979F8F8E8FF70186818B
:1090700088A3848195819AA389A3828193819CA3EB
:109080008BA35B968C9190E09C012A5031093EA302
:109090002DA319A6208127FD04C09C012850310969
:1090A00006C02085237029F49C01295031093EA374
:1090B0002DA32DA13EA1821B930BF801248D358D8C
:1090C000280F391F38A72FA3BAA684A18BA7868D96
:1090D0008CA740A151A162A173A14DA75EA76FA764
:1090E00078AB878D89ABD7018C9187FF48C01896E4
:1090F0008C918370823009F042C0E091621AF09145
:10910000631A808190E09EA38DA38080912CAA2475
:10911000A394B12C20916A1A30E08091601A90914A
:10912000611AA216B3064CF5E091621AF091631A27
:10913000EA0DFB1D408150E02091651A2A9DB00187
:109140002B9D700D1124680F791F880D991D0E94A9
:10915000B0FDE091621AF091631AEA0DFB1D2081C7
:109160008DA19EA1820F911D9EA38DA3BFEFAB1A6F
:10917000BB0A8081880E911CCDCF98A78FA3C11404
:10918000D10449F0D6011596ED91FC911697CE01C8
:109190000196199539C0F8018489813021F4CE01F6
:1091A0000196B1DE31C0D70111968C918F3F41F508
:1091B000E12CF12CC70165DE7C01009729F1D70174
:1091C0001396ED91FC9114978081882399F3129660
:1091D0008C918111EFCF69A17AA1C70118DE882394
:1091E00049F3D7011396ED91FC91149780818A8BF6
:1091F0001596ED91FC911697CE0101961995DACF4F
:10920000CE0101960E94E6CEC8010E946C39E1961B
:10921000ECE00C94CCFBA1E0B0E0E1E1F9E40C94CB
:10922000B2FB5C01DC015C960D911C915D97F8012D
:1092300081812FEF280F2E3F80F429832DDE7C01C2
:109240002981009751F0D80114966D917C91159762
:10925000DEDD882309F405C105C02E3F08F401C1F5
:10926000E12CF12CF801808187FF04C09085937078
:1092700009F0F7C086FFF7C08C70883009F4F1C0A0
:10928000D50157968D919C915897883FBFEF9B07CA
:1092900008F0E7C0E114F10421F0F7012281211167
:1092A000E0C0D5015C960D911C915D97F80120817D
:1092B00026FD02C090E0D2C02370213009F027E0E3
:1092C000F090551AE0915A1AF0915B1A30E0422F53
:1092D00050E0B801640F751F3F15E9F0A781A53074
:1092E000B1F4DF01AF5ABF4F0D90BC91A02D8A178A
:1092F0009B0769F4DF01AC5ABF4FCD90DC90C40EE0
:10930000D51EDB01EC90D601DC90ED1499F23F5FA5
:10931000E459FF4FE1CF82E029830E9483392981FC
:10932000009741F2FC01EC5AFF4F0190F081E02DD3
:10933000DF0158973FEA11963C9311971396BC9220
:10934000AE92129762E0DC01A05BBF4F6C93D50137
:1093500057964D915C915897DC01AF5ABF4F1196CB
:109360005C934E9317961C9211961C9231E01196C5
:109370003C9311963C9311961C9249E05AE3129645
:1093800011965C934E9311973C9330813C7F3260F1
:109390003083D8014C914C70337F342B30834C9107
:1093A0004295417040FB34F93E7D3F7B30834C91C8
:1093B00047FB442740F940FB37F930834C9130E0BC
:1093C000DC01AD5ABF4F7D0144FF0DC0D5015C9655
:1093D0004D915C915D97420F531FDA012C912183CF
:1093E000F701608337C048E04C93D80116964C9142
:1093F0001697418312964D915C9113975383428344
:1094000014964D915C9115975583448311964C9118
:109410004683D5015C964D915C915D97420F531F39
:10942000DA012C912783D8012C9127FF13C01896BD
:109430002C91237031F41086F70120812F5F208357
:1094400009C0D7012C912D5F2C93D80118962C912F
:109450002370208709960E94443A91E081E0892791
:10946000A1C190E001C091E0F801808187FF92C125
:109470008085837009F48EC1D5015C960D911C9195
:109480005D975B968C91F801F1842091641A2223F8
:1094900009F487C196EFE92EE80E80915F1A8130BA
:1094A00009F456C030F0843008F06BC180E494E4D5
:1094B0006AC1D084B1E0DB1274C12F1508F471C108
:1094C0008091651A8E1508F46CC190E00196289F72
:1094D000A001299F500D112460E070E08091601A76
:1094E0009091611A0E94CAFD8FEA8093051BD09269
:1094F0005F1AF0926A1AF5018789908D90936E1A1F
:1095000080936D1AD80111968C91119780936F1AE0
:1095100012968D919C9113979093711A8093701A63
:1095200014968D919C9115979093731A8093721A4B
:1095300016968C9116978093741A17968C91809337
:10954000751A809138198093061B10926B1AF12CB2
:10955000F8018085982F9370923011F0F11021C19D
:109560008C7F09F01EC180916A1A8F1508F419C109
:1095700020916D1A30916E1AD50157968D919C915C
:1095800058972817390709F00CC190916F1AF80104
:109590008181981306C12091701A3091711A8281CD
:1095A00093812817390709F0FCC02091721A309175
:1095B000731A848195812817390709F0F2C09091B8
:1095C000741A86819813EDC09091751A878198134B
:1095D000E8C020916B1A409139190F2D10E0822FAD
:1095E00090E0840F911D081719070CF0DAC08F2D39
:1095F000642F0E945FFAD92EF21668F48F2D891B12
:1096000080936B1A21E030E001C0220F4A95EAF7FF
:10961000219520936C1A2091651A8091601A90917F
:10962000611A4E2D50E0D5015C966D917C915D974D
:10963000665F7F4FF29E800D911D11240E94B0FD48
:10964000E091621AF091631AE00FF11FE0827091CD
:109650006B1A20916A1A7F1111C090913919822FCB
:109660008F19981708F4892F41E050E0082E01C0A7
:10967000440F0A94EAF7419540936C1A41E050E098
:109680000D2C01C0440F0A94EAF760916C1A642B08
:1096900060936C1A6F3F79F4FF24FA94F70E822FCF
:1096A00090E04091391950E0871B910948175907FC
:1096B0000CF4CA01F80E8F2D90E030E021503109F2
:1096C0008217930751F46F3F21F483E00E94963B89
:1096D00063C082E00E94963B64C0A0913919B0E05B
:1096E00011979D01270F311D8217930711F06F3FCE
:1096F00009F582E00E94963B80916C1A8F3F09F039
:1097000050C08091391990916B1A980F90936B1AF1
:1097100020916A1A21502F19821708F4282F81E00E
:1097200090E0022E01C0880F0A94EAF78195809399
:109730006C1A37C02AE030E00E94E5FA9B01AC01C8
:109740008091EC0A9091ED0AA091EE0AB091EF0A97
:10975000280F391F4A1F5B1FA0913819B0E00E94E3
:10976000EBFA9B01AC016093661A7093671A8093C1
:10977000681A9093691A61E080E090E00E94093DC8
:1097800010C083E594E49093870C8093860C0E942C
:10979000293607C0992329F06FEAC50107DC80E06C
:1097A00001C081E02196EAE00C94CEFBA4E3B0E096
:1097B000ECEDFBE40C94AAFBC090D70AD090D80A39
:1097C00020E1C21621E0D20609F46CC12EE4222E5B
:1097D00024E4322EAA24A394B12C85E09BE00E94BD
:1097E0006B357C01009709F45DC100915A1A109104
:1097F0005B1AC701801B910B6CE670E00E946BFA4C
:109800008091551A681748F089E494E49093870C86
:109810008093860C0E94113645C13CE6639F000D83
:10982000111D1124D80117968C91B0E1CB16B6E02A
:10983000DB0621F0C114E5E0DE0699F58E7F843069
:1098400019F5C8018C5A9F4F0E94F63F4C01DC016C
:1098500011966C91119712968D919C911397892B6B
:1098600051F4EAE4F4E4F093870CE093860C6CABDB
:109870000E9429366CA9D70112968C91811104C0DF
:10988000F4018281938192DBA7014B5F5F4F63EA12
:10989000D8018D919C910E94C23FC7010E94053959
:1098A0009CCF8695482E512CB1E04B165104B1F057
:1098B00054F4452809F0EFC0D70112966C91C80105
:1098C0000E94CC428ACFF2E04F16510409F4BCC08A
:1098D00023E04216510409F47CC0DDC0F801808504
:1098E0008F70813009F079CF80809180D7011996EF
:1098F0008C910E94FA3B9B01AC01A0913819F801B0
:10990000808582958F70A81BC20102C0880F991FA5
:10991000AA95E2F7DC010E94F5FA2B013C01D70180
:1099200012966C91611115C04382548265827682D1
:109930000E948CFD9170B301A201480F591F611D57
:10994000711DD80113964D935D936D937C9316977B
:109950002EC06E3C51F0603F41F0603D31F0613D02
:1099600089F4F40195A597FF0DC0A7014B5F5F4FE8
:10997000C4010E94C23FC7010E94053981E00E94D4
:10998000ED3890C0D80113964D925D926D927C9205
:1099900016970E948CFD9170B301A201480F591FC8
:1099A000611D711DF8014383548365837683D8015B
:1099B00018968C911897807F826018968C931897D0
:1099C00013962D913D914D915C91169760E0C801E1
:1099D00004C2F80180858F70813009F0FECE20919D
:1099E000081B30E080910B1B90E001972817390786
:1099F00009F4B5C1E091391970910A1B272F30E0A5
:109A000080E090E0682F8E1708F0A9C10196A901A7
:109A1000062E02C0559547950A94E2F740FFF2CF13
:109A2000C501062E01C0880F0A94EAF780958723A6
:109A300080930A1B8091091B860F8093081B8EE080
:109A40009BE10E94EFE7C9CEC8018C5A9F4F0E944C
:109A5000F63F8C01DC0111966C91119712968D9155
:109A60009C911397892B51F4EDE4F4E4F093870C67
:109A7000E093860C6CAB0E9429366CA9D801129633
:109A80008D919C91139792DAC7010E94053981E06C
:109A90000E94ED38A2CE3092870C2092860C0E9454
:109AA00029369BCE1BAA1AAAACE34A2EAAE35A2E49
:109AB000BFEA2B2E13E0312EAA24A394B12C6624E6
:109AC0006A94712C95E4892E94E4992E87E09BE0AA
:109AD0000E946B358C01C090D70AD090D80A0097AD
:109AE00051F1F80182899389892B09F079C1048C9D
:109AF000F58DE02D80818370813009F071C1828104
:109B0000853009F46DC1D80157968D919C91589775
:109B10000E9472C7892B09F063C122E0F8012683F5
:109B20008789908D90878783538A428AC8010296DD
:109B30000E9464C7CBCFC1FE11C050E5C52E54E4CE
:109B4000D52E62E0462E72E1A72E74E4B72EE8E02F
:109B50005E2EF7E38F2EF0E49F2E3BC00091090BA1
:109B600010910A0B0115110509F458C0B80189E0DC
:109B70009BE00E94773540E050E063EAC8010E9414
:109B8000C23FECCF808D833081F57801FBE1EF0E91
:109B9000F11CC7010E946FC7892B39F5D8011D96AA
:109BA000F701852D01900D928A95E1F7D80158961D
:109BB0008C9158971A968C931A9757969C928E92DE
:109BC0005697C80106960E9464C789E09BE00E94F0
:109BD0006B350091090B10910A0B01151105F1F07D
:109BE000F80186899789892B69F280911B1B9091D6
:109BF0001C1B892B09F4BEC2C8010E94D3388823DC
:109C000009F4B8C2C8010E94D338882309F4B2C24B
:109C1000F8010081118101151105A1F78091D70A82
:109C20009091D80A8115B5E09B0721F08031F6E0CC
:109C30009F0769F5F12C0EC02CE6F29E80011124DD
:109C4000E0915A1AF0915B1AE00FF11F878183307F
:109C500031F0F3948091551AF81670F320C0808586
:109C60008F70843011F08230A1F740E050E063EA59
:109C7000808191810E94C23F80915A1A90915B1A13
:109C8000800F911F805A9F4F0E940539E2CF8F337A
:109C9000944029F4F12C8091551AF81648F08091DF
:109CA000D70A9091D80A8115954009F080C351C018
:109CB00000915A1A10915B1A8CE6F89E000D111D46
:109CC0001124D80117968C91179780FF40C01896E1
:109CD0009C911897292F2F702430C9F5282F2A7F9F
:109CE0002230A9F5907F79F19160905118969C935C
:109CF0008E7F823071F4C80109960E94443AF801BF
:109D0000238134814581568160E0C8010E94093D6C
:109D10001EC08630E1F480910A1B8E7F80930A1B5F
:109D20008091091B8093081B80910D1B81508093AB
:109D30000D1BE0911B1BF0911C1BBF0180819181C9
:109D40000E944B3A04C067EAC8010E94CC42F394D7
:109D5000A2CF8091EB0A882309F4AAC228C3F70195
